:1000000011C1000040C100003EC100003CC1000021
:100010003AC1000038C1000036C1000034C1000000
:1000200032C1000030C100002EC100002CC1000010
:100030002AC1000028C1000026C1000024C1000020
:1000400022C1000020C100001EC100001CC1000030
:100050000C94C44A18C1000016C100000C947A4ADE
:1000600012C100000C94504A0C94264A0CC10000A6
:100070000AC1000008C1000006C1000004C1000060
:1000800002C1000000C10000FEC000000C94EF4A55
:100090000C94FC490C94D249F6C000000C941A4B05
:1000A000F2C00000F0C00000EEC00000ECC0000094
:1000B000EAC00000E8C00000E6C00000E4C00000A4
:1000C000E2C00000E0C00000DEC000000C94A849BF
:1000D0000C947E49D8C000000C9454490C942A49D1
:1000E000D2C000007C3C3E5E2B3D3F2F5B5D3B2C35
:1000F0002A225C0000002200250028002B002E0090
:100100003100340002010000050108010B0100006C
:1001100020002300260029002C002F0032000001BF
:10012000000003010601090100000A0B02090C0D81
:100130000E0807030401000000000000000000009A
:1001400000000000000000000000000000000000AF
:10015000000000001211100000000000000000006C
:10016000000000000000000000000000000000008F
:100170002100240027002A002D0030003300010157
:100180000000040107010A010102102020080810E4
:1001900020401020408002010201080402010102F7
:1001A00004081020408080402010080402018004D0
:1001B000020180402010080402010804020101022B
:1001C000040810204080010204081020408005052A
:1001D0000505070508080808020202020A0A0808BD
:1001E00004040404010101010101010103030303EB
:1001F00003030303040707070C0C0C0C0C0C0C0C7A
:100200000202020206060606060606060B0B0B0B8A
:100210000B0B0B0B1F1C1F1E1F1E1F1F1E1F1E0064
:10022000C2509C5011241FBECFEFD1E2DEBFCDBF24
:1002300000E00CBF1DE0A0E0B2E0EAEDF1EC00E070
:100240000BBF02C007900D92AA31B107D9F727E181
:10025000AAE1BDE001C01D92AA30B207E1F711E0AA
:10026000C1E1D1E000E006C021970109802FFE0125
:100270000E94B75CC031D10780E00807A9F70E944F
:10028000A0520C94DC60BCCE08959091010F809137
:10029000000F2FEF3FEF981748F4E92FF0E0E052FE
:1002A000F14F208130E09F5F9093010FC9010895C5
:1002B0009091010F8091000F2FEF3FEF981748F4B6
:1002C000E92FF0E0E052F14F208130E09F5F909302
:1002D000010FC90108959091DF0E9111FCCF91E0BB
:1002E0009093DF0E4093DE0E2FEF2093DD0E1092E1
:1002F000DC0E260F2093DB0E9093DA0E9091DA0E2F
:10030000880F892B8093DA0E8091D90E8130F9F411
:100310001092D90E8091DA0E8093BB008091BC00C0
:1003200083FDF8CF85EC8093BC008091DF0E813097
:10033000E1F38091DC0E861710F46091DC0EA9EBDE
:10034000BEE0E0EEFEE080E0861303C0089585EE97
:10035000EACF9D9191938F5FF7CF982F2091B80EA0
:1003600081E0213208F043C08091DF0E8111FCCF83
:100370008091B70E32E03093DF0E9093DE0E9FEF48
:100380009093DD0E1092DC0E2093DB0EA7E9BEE009
:10039000E9EBFEE090E0291331C01092DA0E909163
:1003A000DA0E880F892B8093DA0E8091D90E813076
:1003B00049F51092D90E8091DA0E8093BB0080919E
:1003C000BC0083FDF8CF85EC8093BC008091DF0EEC
:1003D0008230E1F38091DD0E8F3FB1F08091DD0E30
:1003E0008032A1F08091DD0E803391F084E0109294
:1003F000960E1092B80E1092950E08953D9131937D
:100400009F5FC9CF85EEE0CF80E0F1CF82E0EFCFF4
:1004100083E0EDCF91E09093950E8093B70E10920C
:10042000960E1092B80E089581E097CFDC011596D4
:100430001C92159714961C92149713961C9213975E
:100440001C9281E011968C93119711968C911197C3
:100450008C3070F4282F2150330BF901EC5EFD4FE6
:10046000E491823009F4EF5FE11102C08F5FEACFBF
:1004700081E012968C9308950F931F93CF93DF938F
:10048000EC019A01AB01E889F98982E08083EC856F
:10049000FD8510820E851F8560E079E08DE390E098
:1004A0000E94495C215031094109510956954795EF
:1004B00037952795F8012083188EEC89FD8986E011
:1004C0008083EA89FB89808180618083EA89FB8956
:1004D000808188608083EA89FB898081806880834D
:1004E000EA89FB8980818F7D8083DF91CF911F9185
:1004F0000F910895089508950895AF92BF92CF92F5
:10050000DF92EF92FF920F931F93CF93DF936C01D3
:100510007B018B01040F151FEB015E01AE18BF08B4
:10052000C017D10759F06991D601ED91FC91019066
:10053000F081E02DC6011995892B79F7C501DF916E
:10054000CF911F910F91FF90EF90DF90CF90BF90D0
:10055000AF900895FC01A089B1898C91A689B789D3
:1005600082FD0FC09C91818D8F5F8F73228D8217CA
:1005700049F0A18DAE0FBF2FB11D5D969C93818F69
:1005800008958C910895FC01538D448D252F30E002
:10059000842F90E0821B930B541710F0CF96089590
:1005A00001970895FC01918D828D981761F0A28DBD
:1005B000AE0FBF2FB11D5D968C91928D9F5F9F7383
:1005C000928F90E008958FEF9FEF0895FC01918D39
:1005D000828D981731F0828DE80FF11D858D90E0A6
:1005E00008958FEF9FEF0895FC01918D228D892F43
:1005F00090E0805C9F4F821B91098F73992708952B
:1006000082E091E1F1DF21E0892B09F420E0822FE3
:10061000089583ED94E1E8DF21E0892B09F420E0DF
:10062000822F089585E795E1DFDF21E0892B09F42A
:1006300020E0822F08958FE991E1D6DF21E0892B18
:1006400009F420E0822F0895FC01A48DA80FB92F92
:10065000B11DA35ABF4F2C91848D90E001968F73EA
:100660009927848FA689B7892C93A089B1898C9109
:10067000837080648C93938D848D981306C0028858
:10068000F389E02D80818F7D80830895EF92FF9222
:100690000F931F93CF93DF93EC0181E0888F9B8DA5
:1006A0008C8D98131AC0E889F989808185FF15C05F
:1006B0009FB7F894EE89FF896083E889F989808182
:1006C0008370806480839FBF81E090E0DF91CF9151
:1006D0001F910F91FF90EF900895F62E0B8D10E073
:1006E0000F5F1F4F0F731127E02E8C8D8E110BC0E3
:1006F0000FB607FCFACFE889F989808185FFF5CF2D
:10070000CE01A2DFF2CFEB8DEC0FFD2FF11DE35AEE
:10071000FF4FF0829FB7F8940B8FEA89FB898081A5
:100720008062D0CFCF93DF93EC01888D8823B1F026
:10073000AA89BB89E889F9898C9185FD03C08081EC
:1007400086FD0CC00FB607FCF7CF8C9185FFF2CF6A
:10075000808185FFEDCFCE0177DFEACFDF91CF91AA
:1007600008958150823108F05AC0E82FF0E08827C0
:10077000E354FC4F8F4F0C94B75CDD03E103CF03D0
:10078000D503D9030F04E403EA03EE03F403F803EB
:10079000FC03020406040F040A04100414048091EC
:1007A00080008F77809380000895809180008F7DF6
:1007B000F9CF80918000877FF5CF84B58F7784BD96
:1007C000089584B58F7DFBCF8091B0008F778093A3
:1007D000B00008958091B0008F7DF9CF8091900096
:1007E0008F77809390000895809190008F7DF9CF4E
:1007F00080919000877FF5CF8091A0008F778093C4
:10080000A00008958091A0008F7DF9CF8091A00075
:10081000877FF5CF809120018F7780932001089505
:10082000809120018F7DF9CF80912001877FF5CFC6
:10083000CF93DF93282F30E0F901E85DFE4F8491DC
:10084000F901E857FE4FD491F901E253FE4FC491EC
:10085000CC2399F0811185DFEC2FF0E0EE0FFF1F24
:10086000E25FFE4FA591B491EC91ED2381E090E021
:1008700009F480E0DF91CF91089580E090E0FACF15
:100880001F93CF93DF93282F30E0F901E85DFE4FEF
:100890008491F901E857FE4FD491F901E253FE4FDC
:1008A000C491CC23A1F0162F81115BDFEC2FF0E077
:1008B000EE0FFF1FEC50FF4FA591B4918FB7F89446
:1008C000EC91111108C0D095DE23DC938FBFDF912E
:1008D000CF911F910895DE2BF8CF1092010F109247
:1008E000000F1092960E1092B80E1092DF0E81E05B
:1008F0008093DE0E1092D90E61E084E1C1DF61E0E9
:1009000085E1BEDFE9EBF0E080818E7F808380812E
:100910008D7F808388E48093B80085E48093BC0059
:100920008AE792E09093910E8093900E8BE792E08D
:1009300090938F0E80938E0E0895CF93C091E90D02
:100940006C2F8FE19DDF81E0C827C093E90DCF9127
:100950000895CF93DF9390E0FC01E857FE4F249178
:1009600082539E4FFC0184918823D1F090E0880F40
:10097000991FFC01E259FE4FA591B491FC01EC5086
:10098000FF4FC591D49161110EC09FB7F8948C911F
:10099000E22FE0958E238C932881E223E8839FBF8A
:1009A000DF91CF9108958FB7F894EC91E22BEC93FF
:1009B0008FBFF6CF3FB7F8948091390E90913A0EE1
:1009C000A0913B0EB0913C0E26B5A89B05C02F3FD1
:1009D00019F00196A11DB11D3FBFBA2FA92F982F65
:1009E0008827BC01CD01620F711D811D911D42E060
:1009F000660F771F881F991F4A95D1F708958F9228
:100A00009F92AF92BF92CF92DF92EF92FF924B01F3
:100A10005C01D0DF6B017C01CDDF6C197D098E0993
:100A20009F09683E734081059105B0F321E0821A69
:100A30009108A108B10888EEC80E83E0D81EE11C19
:100A4000F11C81149104A104B10431F7FF90EF90DF
:100A5000DF90CF90BF90AF909F908F9008952FB769
:100A6000F8946091350E7091360E8091370E90910A
:100A7000380E2FBF08958F929F92AF92BF92CF9260
:100A8000DF92EF92FF920F931F93CF93DF937C013E
:100A90008C01060F171FEC016E01CE18DF080C1732
:100AA0001D0741F1DCDF6093DB147093DC1480934D
:100AB000DD149093DE1483ED94E174DD97FF28C07C
:100AC000CEDF8090DB149090DC14A090DD14B09009
:100AD000DE14681979098A099B098090D7149090CF
:100AE000D814A090D914B090DA14681579058A0545
:100AF0009B0508F3C601DF91CF911F910F91FF90E5
:100B0000EF90DF90CF90BF90AF909F908F9008951F
:100B10008993C2CF8FB7F89480912E0E8FBF08951E
:100B200061E0FC018481ACDE80912D0E8111109278
:100B30002D0E08958EBD00000DB407FEFDCF8EB5BD
:100B400008958FEFF7CF0F931F93CF93DF93EC01AF
:100B500086DF8B01F6DF8F3F61F081DF601B710B59
:100B60006C177D07B8F380E0DF91CF911F910F9153
:100B7000089581E0F9CF8CBD9DBD0895CF93DF939B
:100B8000EC0180912D0E811108C081E080932D0E23
:100B900080913C1290913D12EEDF60E08C81DF91FC
:100BA000CF916ECE8F929F92AF92BF92FF920F9392
:100BB0001F93CF93DF93EC01F62E49015A018E81EA
:100BC000882379F08F8198859C012F5F3F4F38876C
:100BD0002F838230924010F4B4DFF4CFCE01A0DF37
:100BE0001E82CE01CBDF8CE291E0ADDF8F2D8064E1
:100BF000A1DF08E110E0D501C401002E04C0B695C4
:100C0000A795979587950A94D2F794DF0850110914
:100C1000083F8FEF180779F785E9FF2021F028E0DA
:100C200087E8F2128FEF86DF10E08BDF8A8787FF7D
:100C300004C01F3F11F01F5FF8CFDF91CF911F91CC
:100C40000F91FF90BF90AF909F908F900895AF92BB
:100C5000BF92CF92DF92EF92FF920F931F93CF93A9
:100C6000DF93EC016901C801820F931F813092402C
:100C700048F58E81882379F088819981AA81BB818A
:100C800084179507A607B70731F48F819885C81692
:100C9000D90608F03CC0488359836A837B838B85DF
:100CA000833039F089E0440F551F661F771F8A95FE
:100CB000D1F79A01AB0161E1CE0174DF882381F0A5
:100CC00083E08D83CE012CDF80E0DF91CF911F91F7
:100CD0000F91FF90EF90DF90CF90BF90AF9008956D
:100CE000BEDE5B012EDF8A878F3F59F4B8DE6A19BA
:100CF0007B096D327140B0F38FE08D83CE0110DF40
:100D0000E1CF8E3F81F418861F8281E08E838F8130
:100D100098858C159D0548F414DF8F819885019680
:100D200098878F83F4CF8DE0E8CF6701E00EF11E46
:100D300008DFF60181936F01EE15FF05C9F78F817A
:100D40009885080F191F18870F838985882319F044
:100D50000115124090F08E81882379F08F8198855B
:100D60009C012F5F3F4F38872F838230924010F4D1
:100D7000E8DEF4CFCE01D4DE1E8281E0A6CFCF9292
:100D8000DF92EF92FF920F93CF93DF93EC01690113
:100D900082E1411551056105710591F08B85833024
:100DA00039F089E0440F551F661F771F8A95D1F7E8
:100DB0009A01AB0168E1CE01F5DE882319F084E0E9
:100DC0008D8326C08EEFB6DE76018EEFD81AF7013E
:100DD00081917F01AFDEEC14FD04C9F78FEFAADE2D
:100DE0008FEFA8DEAEDE8A878F71853069F401113E
:100DF00013C0CE0195DE81E0DF91CF910F91FF907E
:100E0000EF90DF90CF90089581E18D83CE0188DE51
:100E1000CE0186DE80E0F0CF88E592E094DE81119D
:100E200002C085E1CDCF20E030E0A9016DE0CE0128
:100E3000B9DE882311F084E1C3CF83DE8111FBCFBB
:100E4000D8CF0F934091300E5091310E6091320EF9
:100E50007091330E411551056105710591F0082F10
:100E600022E03FE08091930E9091940E88DF8823DA
:100E700049F01092300E1092310E1092320E1092F4
:100E8000330E81E00F9108950F93CF93C82F809177
:100E90002F0E811105C0C1E08C2FCF910F910895C5
:100EA00040910E0250910F02609110027091110258
:100EB0000C2F22E03FE08091930E9091940E5FDF23
:100EC000811102C0C0E0E8CFCC2329F381E0B9DF73
:100ED0008823C1F310922F0EDFCF8F929F92AF9293
:100EE000BF92EF92FF920F931F93CF934B015C0140
:100EF000C42F80910E0290910F02A0911002B09128
:100F0000110288159905AA05BB0541F181E0BCDFF6
:100F100081110BC080E0CF911F910F91FF90EF9056
:100F2000BF90AF909F908F90089582E0E82E8FE061
:100F3000F82E00E012E030E020E0B501A40180913D
:100F4000930E9091940E83DE882321F380920E02FB
:100F500090920F02A0921002B092110240912F0EB7
:100F60004C2B40932F0E81E0D6CFCF93DF93EC0133
:100F70006E857F858889998941E0AFDF882351F0AC
:100F80008A8920E2829FC00111248E5F904FDF91F9
:100F9000CF91089590E080E0FACF8F929F92AF9228
:100FA000BF92CF92DF92EF92FF92CF932EE332E186
:100FB0003093940E2093930E882309F46BC040E085
:100FC00060E070E0CB0189DF81110BC080E0CF9140
:100FD000FF90EF90DF90CF90BF90AF909F908F9059
:100FE00008958091C0108F7789F78091CC109091EF
:100FF000CD10A091CE10B091CF1084369105A105EF
:10100000B10520F3C090C810D090C910E090CA106C
:10101000F090CB10C114D104E104F104B9F240E026
:10102000C701B6015ADF882389F280910D0F909194
:101030000E0F8115924051F6A091120FAA2331F2A2
:101040006091100F7091110F6115710509F4BECFF9
:1010500020910F0F222309F4B9CFA0935C122093A3
:101060004E1290E080E030E0E1E0F0E0C82FAF0108
:10107000082E02C0440F551F0A94E2F724173507C3
:1010800069F041E0480F01968930910579F7409366
:1010900057129CCFC12CD12C7601C1CF809357120F
:1010A0002091180F3091190F50E040E021153105C3
:1010B00041F42091260F3091270F4091280F509135
:1010C000290F20934F123093501240935112509396
:1010D000521246015701860E971EA11CB11C809228
:1010E0005D1290925E12A0925F12B0926012E09137
:1010F000130FF091140FF0936312E0936212B0E0BB
:101100000E946B5CDC01CB01880D991DAA1DBB1DE3
:101110008093641290936512A0936612B093671245
:1011200025E0EE0FFF1F2A95E1F7E150FE4FEF2F6C
:10113000FF27E6958E0F9F1FA11DB11D80935812AA
:1011400090935912A0935A12B0935B128090150F8E
:101150009090160FB12CA12C8114910441F4809031
:10116000220F9090230FA090240FB090250FC81A43
:10117000D90AEA0AFB0AC80CD91CEA1CFB1C04C0E9
:10118000F694E794D794C794CA95D2F7C0925312B5
:10119000D0925412E0925512F092561285EFC81672
:1011A0008FE0D806E104F10428F48CE0809361120A
:1011B00081E00DCF80E125EFC2162FEFD206E104CA
:1011C000F104A0F380912E0F90912F0FA091300F7A
:1011D000B091310F8093641290936512A0936612C0
:1011E000B093671280E2E2CF4F925F926F927F924C
:1011F0008F929F92AF92BF92CF92DF92EF92FF9227
:101200000F931F93CF93DF93EC014230510561059B
:10121000710590F480E0DF91CF911F910F91FF90C5
:10122000EF90DF90CF90BF90AF909F908F907F9086
:101230006F905F904F90089589859A85AB85BC85A6
:101240000196A11DB11D84179507A607B70710F3D6
:10125000CB88DC88ED88FE888F89803109F042C018
:10126000BB27A72F962F852F480159012A013B0143
:10127000C80ED91EEA1EFB1E80910E0290910F022D
:10128000A0911002B0911102C816D906EA06FB0619
:1012900099F58F898031B9F5B301A20155276627E9
:1012A0007727440F551F4E5F504FFA01918280827D
:1012B00080912F0E816080932F0E8A89823080F07A
:1012C0008D819E81AF81B8858C0D9D1DAE1DBF1D8A
:1012D0008093300E9093310EA093320EB093330E64
:1012E00081E099CFDB01CA01E7E0B695A795979514
:1012F0008795EA95D1F7B8CF40E0C701B601EDDD9B
:101300008111C7CF87CFB301A2014F775527662739
:101310007727440F551F440F551F4E5F504FFA015A
:1013200080829182A282B382C3CF8F929F92AF922A
:10133000BF92CF92DF92EF92FF920F931F93CF93C2
:10134000DF93FC0181859285A385B4850196A11D5B
:10135000B11D84179507A607B70770F480E0DF91E9
:10136000CF911F910F91FF90EF90DF90CF90BF90A2
:10137000AF909F908F90089583889488A588B688B1
:101380008789803189F5BB27A72F962F852FE90103
:101390006A017B018F01BC01CD01680D791D8A1D99
:1013A0009B1D80900E0290900F02A0901002B090B2
:1013B000110286169706A806B90601F5F801878975
:1013C000803109F5DD24EE24FF24F601EE0FFF1F26
:1013D000EE5FF04F80819181B0E0A0E08883998337
:1013E000AA83BB8381E0BBCFDB01CA01C7E0B6950E
:1013F000A79597958795CA95D1F7C9CF40E06DDD40
:101400008111DCCFABCFE894C7F8DD24EE24FF24B4
:10141000F601EE0FFF1FEE0FFF1FEE5FF04F808112
:101420009181A281B381BF70D9CF4F925F926F92A9
:101430007F92AF92BF92CF92DF92EF92FF920F9383
:101440001F93CF93DF9300D01F92CDB7DEB78C01EF
:1014500049835A836B837C835901C12CD12C76013B
:10146000412C82E0582E612C712C49815A816B816C
:101470007C819E012F5F3F4FC80157DF882339F1E0
:10148000F8018585A301920104C0220F331F441F78
:10149000551F8A95D2F7DA01C901C80ED91EEA1E76
:1014A000FB1E49815A816B817C818789803111F1D2
:1014B00088EF9FEFAFEFBFE0481759076A077B0738
:1014C000A0F2F501C082D182E282F38281E00F9026
:1014D0000F900F900F90DF91CF911F910F91FF9080
:1014E000EF90DF90CF90BF90AF907F906F905F9024
:1014F0004F90089588EF9FEFA0E0B0E0DDCFCF934D
:10150000DF93FC012581222321F080E0DF91CF9140
:101510000895EC0180916112803159F582E0858354
:10152000178A108E118E128E809162129091631222
:10153000B0E0A0E025E0880F991FAA1FBB1F2A95E5
:10154000D1F7838B948BA58BB68B8AE492E19C8F29
:101550008B8F81E08C831E821F82188619861A86E3
:101560001B861C861D861E861F86188A198A1A8A63
:10157000CDCF803251F683E0858340916412509143
:1015800065126091661270916712478B508F618F60
:10159000728F9F012D5E3F4F8AE492E146DF8111F9
:1015A000D4CFB3CF8F929F92AF92BF92CF92DF9260
:1015B000EF92FF920F931F93CF93DF93EC018D81F6
:1015C00081110EC080E0DF91CF911F910F91FF90AC
:1015D000EF90DF90CF90BF90AF909F908F90089545
:1015E0000B891C892D893E890417150726073707A3
:1015F00048F34A015B01823031F48A869B86AC86CF
:10160000BD8681E0E0CF81149104A104B10449F4C6
:101610001E821F82188619861A861B861C861D86C6
:10162000F0CF0A851B852C853D85EB8DFC8D85854E
:1016300090E00996B901A801415051096109710969
:10164000082E04C076956795579547950A94D2F76A
:1016500075016401E1E0CE1AD108E108F10804C087
:10166000F694E794D794C7948A95D2F7C416D50612
:10167000E606F70620F0012B022B032B09F58F89D4
:10168000988DA98DBA8D8E839F83A887B9878E0187
:101690000A5F1F4FC114D104E104F10409F4ADCF76
:1016A0004E815F816885798598018B8D9C8D3DDEAB
:1016B00091E0C91AD108E108F1088111EBCF82CF7E
:1016C000C41AD50AE60AF70AE2CF3F924F925F9218
:1016D0006F927F928F929F92AF92BF92CF92DF9242
:1016E000EF92FF920F931F93CF93DF93CDB7DEB7A7
:1016F0002C970FB6F894DEBF0FBECDBF5C01DC01A6
:101700005B968D909C905C9716964D905D906D9039
:101710007C901997411451046104710409F467C065
:10172000BFEF4B1A5B0A6B0A7B0A312CF4018185EF
:101730009285A385B4859C01AD012F5F3F4F4F4F2C
:101740005F4F29873A874B875C87730162011D824F
:101750001E821F821886F40181859285A385B48537
:101760002D813E814F815885281739074A075B072D
:1017700008F054C089859A85AB85BC858C159D057C
:10178000AE05BF0550F482E0C82ED12CE12CF12C1F
:1017900092E0492E512C612C712C9E012F5F3F4FFE
:1017A000B701A601C401C1DD8823C1F189819A81F5
:1017B000AB81BC81892B8A2B8B2B09F12601370148
:1017C0009FEF491A590A690A790A2D813E814F8192
:1017D00058852F5F3F4F4F4F5F4F2D833E834F8381
:1017E00058873FEFC31AD30AE30AF30AB4CFF401D0
:1017F00040805180628073803324339497CFC41427
:10180000D504E604F70409F70FEF1FEF2FEF3FE0D1
:10181000B701A601C401E8DC811119C080E02C9653
:101820000FB6F894DEBF0FBECDBFDF91CF911F91F1
:101830000F91FF90EF90DF90CF90BF90AF909F906F
:101840008F907F906F905F904F903F900895D5015B
:1018500016964D915D916D917C91199741155105A9
:101860006105710531F097018601C401BDDC882353
:10187000A9F2D5011696CD92DD92ED92FC921997C0
:10188000332051F0D701C6010196A11DB11DF4010D
:1018900080839183A283B383F5018789908DA18D85
:1018A000B28D892B8A2B8B2B39F48481C78AD08EF9
:1018B000E18EF28E80688483F50184818062848366
:1018C00081E0ADCF2F923F924F925F926F927F92C5
:1018D0008F929F92AF92BF92CF92DF92EF92FF9240
:1018E0000F931F93CF93DF93EC015B012A018D814E
:1018F000811115C08FEF9FEFDF91CF911F910F9155
:10190000FF90EF90DF90CF90BF90AF909F908F901F
:101910007F906F905F904F903F902F9008958C81B3
:1019200080FFE8CF0B891C892D893E894A855B851C
:101930006C857D85C201B0E0A0E068017901C41A20
:10194000D50AE60AF70AC816D906EA06FB0618F40D
:101950002801441A550A42011E0126E0220E311CBC
:101960008114910409F4B0C04A855B856C857D853E
:101970006A0181E0D8228B8D9C8D8A019B01E9E070
:101980003695279517950795EA95D1F7ED81E230C1
:10199000D9F5FC01628D738D848D958D600F711F5B
:1019A000821F931F612C22E0722E6C187D08861412
:1019B000970408F434012C8126FD04C06114F2E080
:1019C0007F0671F400910E0210910F022091100217
:1019D00030911102061717072807390709F051C07F
:1019E00040E07BDA882309F485CFC6018E5F904FF3
:1019F000D5019C01260D371DFC012E173F0709F468
:101A00005EC041914D93F9CFFC0174807A947022AD
:101A1000C114D10471F471100CC0452B462B472B17
:101A200039F58F89988DA98DBA8D8E839F83A8876C
:101A3000B987EB8DFC8D6E817F8188859985625099
:101A4000710981099109258504C0660F771F881FD8
:101A5000991F2A95D2F70685178520893189600F4D
:101A6000711F821F931F670D711D811D911D9ACFDC
:101A70004E815F8168857985910157DC8111D9CFCD
:101A800039CF750183019601AB01BC018091930EA2
:101A90009091940EDCD8882309F42CCFA60CB71CA7
:101AA0008A859B85AC85BD85860D971DA11DB11DC1
:101AB0008A879B87AC87BD878618970851CF281BDC
:101AC000390BA20EB31EECCFC20116CF1F93CF93DA
:101AD000DF93FC012581222361F1162FEC01848123
:101AE00087FF1DC0CF0141DAFC01892B11F18D81E7
:101AF000823040F48B899C89AD89BE89848F958F13
:101B0000A68FB78F8F89988D938F828F8F89988DAD
:101B1000A98DBA8DB58BA48B8C818F778C83111195
:101B200003C08C818F7E8C83812FDF91CF911F9199
:101B3000ABC980E0DF91CF911F910895FF920F9381
:101B40001F93CF93DF93EC018D81813041F090E0C2
:101B500080E0DF91CF911F910F91FF9008958C81CC
:101B600081FFF5CF82FD19C00091930E1091940E64
:101B7000C80104D80E94A105F82EC8010E94900552
:101B80008FEFF812E4CF8C8185FF19C060E0CE01A1
:101B90009DDF8C818F7D8C83DACF4B895C896D8949
:101BA0007E898A859B85AC85BD8584179507A607A8
:101BB000B707D1F2CE01F6DC8111D6CFC8CF409164
:101BC000300E5091310E6091320E7091330E452BD4
:101BD000462B472B19F080E034D9B9CF80618C8334
:101BE0002A853B85317080E092E0821B930BB1CF58
:101BF000CF93DF93EC0161E069DF882311F01D8250
:101C000081E0DF91CF910895CF92DF92EF92FF9222
:101C10001F93CF93DF93C82F80916D12882319F003
:101C200088E692E1E5DF1092491210924712109275
:101C3000441210924312C09342120E942F05EB01EE
:101C400061E0809142120E94A90461E080914212F9
:101C50000E9440041FB7F8948091920E811127C012
:101C6000E3E0F2E08491EDEBF1E09491E82FF0E015
:101C7000EE0FFF1FE259FE4FA591B491EC91E923BD
:101C800021F461E085E30E94400461E085E30E9465
:101C9000A9048CB580618CBD8CB580648CBD61E07D
:101CA00084E30E94A90461E083E30E94A904809177
:101CB000920E8F5F8093920E1FBF82E580933C123D
:101CC00010923D1280913C1290913D120E94BB05F2
:101CD0001AE08FEF0E949A051150D9F78EE392E136
:101CE0000E94BE0520E030E0A90160E08EE392E1B1
:101CF0000E94D205182F80934812813081F00E94F3
:101D00002F056C1B7D0B613D774060F381E0809374
:101D100043128EE392E10E94900590E076C02AEA99
:101D200031E040E050E068E08EE392E10E94D205AD
:101D300082FF2AC01093491280914912C12CD12CE4
:101D40007601823029F4C12CD12CE12C80E4F82ECC
:101D500020E030E0A90167E38EE392E10E94D20522
:101D6000A701960169E28EE392E10E94D205809379
:101D700048128823C1F00E942F056C1B7D0B613D2A
:101D8000774030F388E0C3CF14E00E94A105809330
:101D900048121150D1F78A3A11F082E0B8CF82E0B0
:101DA00080934912C9CF809149128230D1F420E04A
:101DB00030E0A9016AE38EE392E10E94D205882314
:101DC00011F086E0A4CF0E94A105807C803C19F42C
:101DD00083E0809349120E94A1050E94A1050E9400
:101DE000A1058EE392E10E94900580E580933C126C
:101DF00010923D1281E0D1D8882381F088E692E1EB
:101E00007EDB91E0882309F488CF892FDF91CF9181
:101E10001F91FF90EF90DF90CF90089580E0BDD8A4
:101E2000882309F47ACFEACF2F923F924F925F92A4
:101E30006F927F928F929F92AF92BF92CF92DF92DA
:101E4000EF92FF920F931F93CF93DF9300D01F92D7
:101E50001F92CDB7DEB77C015B01342E5D83DC01C0
:101E600015968C911597813009F0CCC014962C9062
:101E700021FEC8C022FCB3C0C32CDD8022947FE0C9
:101E800027222094B22DB1702B2ED7011A964D9196
:101E90005D916D917C911D97C114D10409F425C108
:101EA0005B968D919C915C97FC0174807A948A0179
:101EB0009B0169E036952795179507956A95D1F7A7
:101EC00070228A01117071101FC001151105E1F413
:101ED00016964D915D916D917C9119974115510523
:101EE0006105710509F097C057968D919D910D90F0
:101EF000BC91A02D0097A105B10509F0ADC0C701A7
:101F0000E4DB882309F47EC080E092E0801B910B23
:101F100046018C159D0508F44C01D7015B964D9147
:101F20005C915C9716968D919D910D90BC91A02D22
:101F30000297A109B109FA01258504C0880F991FEC
:101F4000AA1FBB1F2A95D2F74685578560897189DC
:101F5000840F951FA61FB71F9C01AD01270D311DD2
:101F6000411D511D29013A01811432E0930609F007
:101F700079C080910E0290910F02A0911002B09151
:101F8000110284159505A605B70559F48FEF9FEF4B
:101F9000DC0180930E0290930F02A0931002B09385
:101FA0001102022D9501B301A2018091930E90912F
:101FB000940E0E94BF06882329F19EEFB91AC81813
:101FC000D908F70182859385A485B585880D991D6B
:101FD000A11DB11D82879387A487B58756CFF701CE
:101FE000438954896589768982859385A485B585D9
:101FF000481759076A077B0709F43ECFC701D2DAB1
:1020000081113ACF81E090E0D70113969C938E9393
:10201000129780E006C09E012F5F3F4F86D9811145
:1020200002C090E079C089819A81AB81BC81F701BF
:10203000238D348DF901278948EF5FEF60E070E070
:10204000203121F048EF5FEF6FEF7FE084179507B5
:10205000A607B70708F053CFF70186839783A087B9
:10206000B18752CF0115110599F5D7011A964D91F7
:102070005D916D917C911D9753968D919D910D90E1
:10208000BC91A02D481759076A077B0708F181E02A
:102090000E944407882309F4B5CF40920E02509263
:1020A0000F02609210027092110280912F0E8160D7
:1020B00080932F0EC8018E5F904FD5019C01280D93
:1020C000391DFC012E173F0759F04D914193FACF6E
:1020D00041E0C301B2010E946D078111EBCF92CFA5
:1020E000281B390BA20EB31E6ACFF701838994898E
:1020F000A589B68984179507A607B70738F48481A0
:10210000438B548B658B768B80688483F701848145
:1021100083FD1AC0832D9D810F900F900F900F901B
:102120000F90DF91CF911F910F91FF90EF90DF9073
:10213000CF90BF90AF909F908F907F906F905F9067
:102140004F903F902F90089561E0C701BFDC882336
:1021500009F458CFDFCFCF93DF931F92CDB7DEB70F
:10216000698341E050E0BE016F5F7F4F5DDE0F90FD
:10217000DF91CF910895FC01DB0112968D919C9126
:102180001397938382838EEA92E0918380831496DF
:102190008C911497848315968C9115978583169648
:1021A0004D915D916D917C9119974683578360871E
:1021B00071871A964D915D916D917C911D97428723
:1021C0005387648775871E964D915D916D917C91C3
:1021D000519746875787608B718B52968C91529797
:1021E000828B53964D915D916D917C915697438B67
:1021F000548B658B768B57964D915D916D917C914B
:102200005A97478B508F618F728F5B968D919C91FF
:10221000948F838F0895DC015996ED91FC9130974E
:1022200021F081E09581911101C080E00895FC01C9
:10223000818D928D009711F061E048CC0895DC010A
:102240005996ED91FC913097B9F083899489A589CD
:10225000B6894285538564857585841B950BA60BCD
:10226000B70B811520E89207A105B10538F08FEF73
:102270009FE7A0E0B0E0089590E080E00895DC01E1
:1022800059968D919C91009739F0DC01ED91FC916C
:102290000480F581E02D199490E080E00895CF93BB
:1022A000DF93EC01E98DFA8D309749F481E090E0FD
:1022B0009B838A8390E080E0DF91CF910895138221
:1022C0001282898D9A8DB0DDE98DFA8D228133815C
:1022D000232B61F7F1CFCF93DF931F92CDB7DEB7FA
:1022E0006983DC01ED91FC910280F381E02D41E0F6
:1022F00050E0BE016F5F7F4F19950F90DF91CF9136
:102300000895CF93DF931F92CDB7DEB741E050E041
:10231000BE016F5F7F4FD6DA019731F4898190E07B
:102320000F90DF91CF9108958FEF9FEFF9CFFC01D0
:10233000818D928D009709F0E4CF8FEF9FEF089584
:102340000F931F93CF93DF93EC01898D9A8D10E04B
:1023500000E0009789F0D5DF8C010F3F100761F096
:10236000898D9A8DFC014285538564857585415020
:1023700051096109710916D9C801DF91CF911F91E7
:102380000F9108952F923F924F925F926F927F929A
:102390008F929F92AF92BF92CF92DF92EF92FF9275
:1023A0000F931F93CF93DF932C011A0189013B01F7
:1023B000D0E0C0E06901F12CE12CC215D30511F188
:1023C0000E942F054B015C01D20112968D919C91C8
:1023D000DC01ED91FC910284F385E02D199597FFC6
:1023E00025C00115110581F30E942F05681979098F
:1023F0008A099B096C157D058E059F0528F38EEFD4
:10240000209709F08C2FDF91CF911F910F91FF90B2
:10241000EF90DF90CF90BF90AF909F908F907F9084
:102420006F905F904F903F902F900895F3018193AC
:102430003F012196C2CFAF92BF92CF92DF92EF922F
:10244000FF920F931F93CF93DF9300D01F921F92A1
:10245000CDB7DEB77C01062FB72E142F690143E0FC
:1024600050E0BE016F5F7F4F8DDF181694F08EEF46
:102470009FEF0F900F900F900F900F90DF91CF91E3
:102480001F910F91FF90EF90DF90CF90BF90AF9092
:1024900008958981882319F08DEF9FEFEACF8A8113
:1024A0008111FACF8B818F3FB9F7960142E050E05E
:1024B000BE016C5F7F4FC70165DF1816C4F68C81C3
:1024C0009D81980F49F782508C83181708F445C0F6
:1024D000F7011481AA24A394A10E960142E050E0D2
:1024E000BE016F5F7F4FC7014DDF18160CF0BFCFE5
:1024F0008981853D89F68A818A11CECF4C8150E051
:102500009601602F7B2DC7013DDF2C81082E000C2A
:10251000990B2817190609F0AACF1A52902FE02F0D
:10252000FB2D8E2F891B821718F48191180FF9CF7C
:10253000960142E050E0BE016F5F7F4FC70122DF8E
:1025400018160CF094CF8981180F09F0A5CF8A8155
:102550008111A2CF8C8190E08CCF8CEF9FEF89CF3F
:1025600040E052EC61E070E0FC01828193810C94C8
:102570003C022F923F924F925F926F927F928F9286
:102580009F92AF92BF92CF92DF92EF92FF920F9302
:102590001F93CF93DF932C011A0189013B01D0E0F7
:1025A000C0E06901F12CE12CC215D30511F10E94A4
:1025B0002F054B015C01D20112968D919C91DC019B
:1025C000ED91FC910284F385E02D199597FF25C0CC
:1025D0000115110581F30E942F05681979098A09EF
:1025E0009B096C157D058E059F0528F38EEF2097BE
:1025F00009F08C2FDF91CF911F910F91FF90EF90F9
:10260000DF90CF90BF90AF909F908F907F906F9012
:102610005F904F903F902F900895F30181933F0179
:102620002196C2CFAF92BF92CF92DF92EF92FF92EC
:102630000F931F93CF93DF9300D01F921F92CDB7BC
:10264000DEB77C01062FB72E142F690143E050E05E
:10265000BE016F5F7F4F8DDF181694F08EEF9FEFF6
:102660000F900F900F900F900F90DF91CF911F91CF
:102670000F91FF90EF90DF90CF90BF90AF900895B3
:102680008981882319F08DEF9FEFEACF8A8181112C
:10269000FACF8B818F3FB9F7960142E050E0BE013F
:1026A0006C5F7F4FC70165DF1816C4F68C819D8172
:1026B000980F49F782508C83181708F445C0F7012A
:1026C0001481AA24A394A10E960142E050E0BE0119
:1026D0006F5F7F4FC7014DDF18160CF0BFCF8981A8
:1026E000853D89F68A818A11CECF4C8150E09601D2
:1026F000602F7B2DC7013DDF2C81082E000C990B2C
:102700002817190609F0AACF1A52902FE02FFB2D97
:102710008E2F891B821718F48191180FF9CF96011B
:1027200042E050E0BE016F5F7F4FC70122DF181605
:102730000CF094CF8981180F09F0A5CF8A818111FF
:10274000A2CF8C8190E08CCF8CEF9FEF89CF40E0BF
:1027500052EC61E070E0FC01828193810C943C02B8
:10276000DC01ED91FC910190F081E02D1994CF9363
:10277000DF93EC0165E570E08A819B81F1DF65E51F
:1027800070E08A819B81ECDF70E060E08A819B8150
:10279000E7DF70E060E08A819B81E2DF70E060E06B
:1027A0008A819B81DDDF8A819B81DC01ED91FC9137
:1027B0000084F185E02D19958A819B81DC01ED91E2
:1027C000FC910084F185E02D1995892B49F08A81CF
:1027D0009B81DC01ED91FC910284F385E02DEBCF30
:1027E000DF91CF910895CF93DF93EC0165E570E021
:1027F0008A819B81B5DF65E570E08A819B81B0DFCE
:1028000070E060E08A819B81ABDF70E060E08A81EC
:102810009B81A6DF70E060E08A819B81A1DF8A81D5
:102820009B81DC01ED91FC910084F185E02D1995EF
:102830008A819B81DC01ED91FC910084F185E02D82
:102840001995892B49F08A819B81DC01ED91FC91DE
:102850000284F385E02DEBCFDF91CF91089585EDD4
:102860008093BC008091BC0084FDFCCF1092DF0EF1
:10287000089520910A0E260F3327331F2132310588
:10288000ECF42091DF0EFC0190E080E0243069F050
:1028900082E00895A0910A0E2191AC014651524F59
:1028A000A40FB52FB11D2C930196861798F3809134
:1028B0000A0E680F60930A0E80E0089581E0089583
:1028C0000895E091010F8091000FE81730F4F0E0D7
:1028D000E052F14F808190E008958FEF9FEF0895CF
:1028E0008091000F9091010F891B990B0895CF9251
:1028F000DF92EF92FF920F931F93CF93DF937C01B0
:10290000CB018A012091950E222389F0EB016B0106
:10291000C40ED51ECC15DD0561F06991D701ED918E
:10292000FC910190F081E02DC7011995F3CF642F40
:10293000A0DFC801DF91CF911F910F91FF90EF9021
:10294000DF90CF900895CF93DF931F92CDB7DEB77E
:1029500069832091950E2223F9F02091B80E203240
:1029600058F021E030E0FC013383228390E080E0E6
:102970000F90DF91CF9108958091960EE82FF0E0AF
:10298000E956F14F998190838F5F8093960E8093E3
:10299000B80E81E090E0ECCF61E0CE01019669DFF6
:1029A000F8CF1F93CF93DF93EC0188E60E940A02D1
:1029B00063E087E892E1C7DF2D811AE0822F612F63
:1029C0000E94845C682F660F680F660F620F87E8AD
:1029D00092E1B9DF2C81822F612F0E94845C682FE5
:1029E000660F680F660F620F87E892E1ACDF2B81FC
:1029F000822F612F0E94845C682F660F680F660F1C
:102A0000620F87E892E19FDF2A81822F612F0E9467
:102A1000845C682F660F680F660F620F87E892E18B
:102A200092DF60E087E892E18EDF2981822F612FBB
:102A30000E94845C682F660F680F660F620F87E83C
:102A400092E181DF2881822F612F0E94845C682FB0
:102A5000660F680F660F620F87E892E174DF0E94CD
:102A6000140288E60E940A0262E087E892E16BDFC6
:102A700060E087E892E167DFDF91CF911F910C94CE
:102A800014021F93CF93DF93EC0188E60E940A02A1
:102A900060E087E892E157DF2D811AE0822F612FF5
:102AA0000E94845C682F660F680F660F620F87E8CC
:102AB00092E149DF2C81822F612F0E94845C682F74
:102AC000660F680F660F620F87E892E13CDF2B818B
:102AD000822F612F0E94845C682F660F680F660F3B
:102AE000620F87E892E12FDF60E087E892E12BDF59
:102AF0002A81822F612F0E94845C682F660F680FE5
:102B0000660F620F87E892E11EDF2981822F612F15
:102B10000E94845C682F660F680F660F620F87E85B
:102B200092E111DF2881822F612F0E94845C682F3F
:102B3000660F680F660F620F87E892E104DFDF918E
:102B4000CF911F910C94140290E080E00895E1E889
:102B5000F0E08081887F808360E08FE10C94400406
:102B6000CF93DF939C01C0E4DEE081E08A838FB7DE
:102B70008B83F894B9017695679590E080E0605C6E
:102B80007D4B804F9F4F50E040E00E94495CDA014E
:102B9000C90123E0880F991FAA1FBB1F2A95D1F7EF
:102BA0009983888390938700809386008B818FBF61
:102BB000E1E8F0E08081887F808380819A81892BA1
:102BC0008083DF91CF910895CF939FEF980F92303C
:102BD00000F51092DB0D91E09093730D9093050238
:102BE000823009F441C0C1E0C093720D61E083E21C
:102BF0000E94400460E082E20E944004C093DE0D27
:102C000080914A0E90914B0E9093DD0D8093DC0DD8
:102C10000AC0823049F18330D1F1813021F38091B3
:102C2000DE0D811104C08091730DCF91089581E074
:102C30008093DB0D8093730D8091720D813059F478
:102C400061E082E20E94400460E083E20E9440046E
:102C50001092DE0DE8CF8230D9F761E083E20E9466
:102C6000400460E082E2F2CF82E08093720D61E086
:102C700082E20E94400460E083E20E94400481E01E
:102C80008093DE0D8091480E9091490EBDCF8091CA
:102C9000730D882341F280910502882321F0815031
:102CA00080930502C0CF61E082E20E94400461E0AF
:102CB00083E20E9440041092730D81E0F1CFCF9324
:102CC00080911402893061F498E09093140220916D
:102CD0000D02293051F490930D021092E80D0EC0B0
:102CE000813031F498E09093140280930D02F5CF77
:102CF0008430C1F38A30B1F38B30A1F380910D029F
:102D000080930C029091E80D843009F4D4C0F0F463
:102D1000813069F1823009F09AC1911108C081E0D7
:102D20008093E80D85E18093E70D1092E30D80918B
:102D3000E70D853109F4A1C008F08BC0882309F4A0
:102D40008BC19091E30D891336C086C18A3009F496
:102D500071C18B3009F474C1893009F078C19111C7
:102D60007BC181E08093E80D80E02EDF75C1911179
:102D700017C08093E80D84E20E9418048093E60D4A
:102D800085E20E941804C82F8093E50D8093E40D1E
:102D900081E01ADF8CE0C11101C08BE08093E70D68
:102DA0001092E30D8091E70D8B3041F08C30D9F01B
:102DB000882309F451C18093E30D4EC18093E30D44
:102DC00085E20E9418048093E50D9091E40D891727
:102DD00009F442C1882309F43FC18093E40D8CE0DB
:102DE0008093E70D39C18093E30D8091E20D81114D
:102DF00004C08091E10D882351F01092E20D1092F1
:102E0000E10D8091470E8093E00D82E0DDDE85E2EA
:102E10000E9418048093E50D9091E40D891709F440
:102E20001BC1811119C1D0DE84E20E9418048823DD
:102E300041F01092E70D82E080930D021092E80DB0
:102E40000BC18091E60D8111F4CF1092E70D83E064
:102E5000F3CF9091E30D863101F1873109F071CF05
:102E6000973111F08093E30D85E20E94180480935E
:102E7000E50D8111F1C0A8DEE8CF9091E30D953109
:102E800011F08093E30D84E20E941804892B09F06D
:102E9000E3C081E099DE86E1A3CF963111F0809303
:102EA000E30D85E20E9418048093E50D882309F460
:102EB000D3C087E195CF911118C081E08093E80DD0
:102EC00084E20E9418048093E60D85E20E941804B3
:102ED000C82F8093E50D8093E40D82E075DE8BE2D0
:102EE000C11101C089E28093E70D8091E70D8B321B
:102EF00009F44CC0E8F4882309F4AEC0893209F023
:102F000020CF9091E30D993211F08093E30D85E28B
:102F10000E9418048093E50D9091E40D891709F43F
:102F20009BC0882309F498C08093E40D8BE258CFAE
:102F30009091E30D8C3209F46AC08D3209F001CF13
:102F40009D3211F08093E30D8091E20D811104C058
:102F50008091E10D882351F01092E20D1092E10D65
:102F60008091470E8093E00D81E02EDE85E20E9485
:102F700018048093E50D9091E40D891709F46CC055
:102F800081116AC01092E40D1FDE39C09091E30DEB
:102F90009B3211F08093E30D8091E20D811104C00A
:102FA0008091E10D882369F081E08093DF0D10921C
:102FB000E20D1092E10D8091470E8093E00D81E0CB
:102FC00003DE85E20E9418048093E50D9091E40DE4
:102FD000891709F441C081113FC01092E40DF4DD5E
:102FE00084E20E9418049091E60D891304C0909128
:102FF000DF0D992341F08093E60D1092DF0D1092C2
:10300000E70D85E019CF82E0DFDD8CE2E9CE9C326E
:1030100011F08093E30D85E20E9418048093E50D82
:103020009091E40D8917C1F08823B1F08093E40DED
:103030008DE2D6CE911110C081E08093E80D95CE3F
:1030400091110AC081E08093E80D82E08ECE91114B
:1030500003C081E08093E80D8091DE0D882361F14B
:103060008091E50D9091E40D891363C08091DC0D92
:103070009091DD0D009709F453C001979093DD0DF9
:103080008093DC0D8091E00D2091DC0D3091DD0D01
:10309000820F932F911D892B79F484E20E941804EA
:1030A0008093E60D882309F447C080E08DDD81E040
:1030B0008093E10D1092E20D8091DB0D813031F4AF
:1030C00083E082DD811102C01092DB0D80917B00D4
:1030D000877F80937B0080E480937C0080917A00DE
:1030E000806480937A0080917A0086FDFCCF909175
:1030F000780080917900892798278927813223E0F9
:10310000920714F160E089E10E94400461E082E1ED
:103110000E94400460E081E30E94400460E024C01B
:103120008091E00D882309F4ADCF81508093E00DAC
:10313000A9CF8093E40DA6CF80E046DD81E08093A7
:10314000E20D1092E10DB8CF61E0853F914084F02F
:1031500089E10E94400460E082E10E94400460E056
:1031600081E30E94400461E080E3CF910C9440042D
:1031700089E10E94400461E082E10E94400461E034
:10318000CACFCF93DF93FB0122813381DC011396F9
:103190003C932E93129744815581668177811496D2
:1031A0004D935D936D937C93179740855185628510
:1031B000738518964D935D936D937C931B971C9626
:1031C000EF012C969C01275E3F4F49914D93A2172A
:1031D000B307D9F7218D328DFC01328F218FDF911A
:1031E000CF9108950F931F93CF93DF93082F10E093
:1031F0000B5A114FF801D081DD2351F1C82F0E94E5
:10320000DA0460933B0D70933C0D80933D0D9093D9
:103210003E0DC0933A0DF8011082C150C73080F4C2
:10322000EC2FF0E061E08827E75EF64E8F4F0C94BC
:10323000B75C2E1934193A19401946194C1952190C
:1032400061E082E00E94400461E083E00E9440046B
:103250008D2FDF91CF911F910F91089582E00E94F1
:10326000400461E084E0F2CF82E00E94400461E02B
:1032700085E0ECCF82E00E94400461E086E0E6CF8A
:1032800082E00E94400461E087E0E0CF82E00E949B
:10329000400461E088E0DACF82E00E94400461E00F
:1032A00089E0D4CF82E00E94400461E08AE0CECF82
:1032B000CF92DF92EF92FF920F931F93CF93DF9302
:1032C000C0913A0DC83008F038C0D0E0FE0160E08F
:1032D0008827E259F64E8F4F0C94B75C7619AC19DB
:1032E000AE19B019B219B419B619B81983E00E9411
:1032F00040040E94DA0400913B0D10913C0D209196
:103300003D0D30913E0DFE01EE0FFF1FEE0FFF1F32
:10331000E65EF24FC080D180E280F380DC01CB0119
:10332000801B910BA20BB30BC816D906EA06FB064D
:1033300020F480839183A283B3838FEF80933A0D2F
:1033400060E082E0DF91CF911F910F91FF90EF90AD
:10335000DF90CF900C94400484E0C9CF85E0C7CFC4
:1033600086E0C5CF87E0C3CF88E0C1CF89E0BFCF7B
:103370008AE0BDCF8F929F92AF92BF92CF92DF92A1
:10338000EF92FF920F931F93CF93DF9300D01F9282
:10339000CDB7DEB7FC018581813091F080E00F90E0
:1033A0000F900F900F90DF91CF911F910F91FF9091
:1033B000EF90DF90CF90BF90AF909F908F90089547
:1033C000848181FFEBCF83899489A589B689892B74
:1033D0008A2B8B2B09F45FC07F0140E050E0BA01DB
:1033E000CF010E94D20A8823C9F2F701C38CD48C82
:1033F0008788908CA18CB28C82E090E0A0E0B0E055
:10340000F60180839183A283B3839E012F5F3F4F98
:10341000B501A401C6010E949509882309F4BECF15
:1034200000E010E09801B501A401C6010E94F40873
:10343000882309F4B3CF89809A80AB80BC80F601E1
:103440008789803119F188EF9FEFAFEFBFE08816D1
:103450009906AA06BB06C8F2F701178A108E118ECC
:10346000128E138A148A158A168A8481806884834E
:1034700061E0C7010E94660D882309F48FCF40E008
:1034800050E0BA01C7010E94D20A89CF88EF9FEFAE
:10349000A0E0B0E0DCCF81E082CFCF92DF92EF926C
:1034A000FF921F93CF93DF93EC0180E2689FF001BE
:1034B0001124EE5FF04F9385917161F0842F827437
:1034C00049F080E0DF91CF911F91FF90EF90DF9066
:1034D000CF900895142F6A8B80910E0290910F0265
:1034E000A0911002B09111028E879F87A88BB98B93
:1034F000C488D588F12CE12C7601DD24CC24CF8A38
:10350000D88EE98EFA8E828D938DB0E0A0E0AC016A
:10351000BD014C295D296E297F294F8B588F698FFA
:103520007A8F83858871B1F4848D958DA68DB78D42
:103530008B8B9C8BAD8BBE8B81E08D831F701C832E
:103540001E821F82188619861A861B861C861D8677
:1035500081E0B8CF803109F0B4CF9E012D5E3F4F9E
:103560008B8D9C8D0E94150A882309F4AACF84E0D4
:10357000E4CF41E0682F88E60E946B011092010FB2
:103580008093000F089588E60E940A0260E087E8B1
:1035900092E1D9D90E94140281E090E0EADF0E9412
:1035A0005801805887FB882780F90895CF92DF92D1
:1035B000FF920F931F93CF93DF936C0188E60E94D5
:1035C0000A0263E087E892E1BED90E94140287E014
:1035D00090E0CFDF0E9458018F77282F30E094E0F1
:1035E000359527959A95E1F7922F990F990FC22F4C
:1035F000C91BCC0FC80F0E9458019C0144E03595AF
:1036000027954A95E1F72F703327922F990F990F3D
:10361000D22FD91BDD0FD80F0E9458019C0154E016
:10362000359527955A95E1F72F703327922F990FEB
:10363000990F122F191B110F180F0E9458019C018E
:1036400064E0359527956A95E1F72F703327922F1F
:10365000990F990F022F091B000F080F0E945801A4
:103660000E9458019C0174E0359527957A95E1F701
:103670002F703327922F990F990FF22EF91AFF0C02
:10368000F80E0E9458019C01E4E035952795EA95D3
:10369000E1F72F703327922F990F990F291B220FD3
:1036A000820FF6018083F18202831383D483C58362
:1036B000C601DF91CF911F910F91FF90DF90CF90C6
:1036C0000895CF92DF92FF920F931F93CF93DF93D2
:1036D0006C0188E60E940A0260E087E892E133D933
:1036E0000E94140287E090E044DF0E9458018F7727
:1036F000282F30E094E0359527959A95E1F7922FA1
:10370000990F990FC22FC91BCC0FC80F0E945801E7
:103710009C0144E0359527954A95E1F72F703327B2
:10372000922F990F990FD22FD91BDD0FD80F0E941E
:1037300058019C0154E0359527955A95E1F72F7073
:103740003327922F990F990F122F191B110F180F52
:103750000E9458010E9458019C0164E0359527950C
:103760006A95E1F72F703327922F990F990F022F47
:10377000091B000F080F0E9458019C0174E0359549
:1037800027957A95E1F72F703327922F990F990F8C
:10379000F22EF91AFF0CF80E0E9458019C01E4E089
:1037A00035952795EA95E1F72F703327922F990FDA
:1037B000990F291B220F820FF6018083F182028369
:1037C0001383D483C583C601DF91CF911F910F91DD
:1037D000FF90DF90CF900895EF92FF920F931F9389
:1037E000CF93DF937C018C01C8E0D0E0CE010E9432
:1037F000245CF80181938F012196CC30D105B1F77B
:10380000C701DF91CF911F910F91FF90EF90089525
:10381000EF92FF920F931F93CF93DF937C018C0164
:10382000D0E0C0E0CE010E94245CF80181938F01BA
:103830002196C431D105B1F7C701DF91CF911F9116
:103840000F91FF90EF9008950F931F93CF93DF9305
:103850008C01EB010E94245C8883C80101960E94C0
:10386000245C8983CE01DF91CF911F910F91089540
:10387000CF93DF93EB010E94245C8883CE01DF911C
:10388000CF9108952F923F924F925F926F927F92C5
:103890008F929F92AF92BF92CF92DF92EF92FF9260
:1038A0000F931F93CF93DF93CDB7DEB7A3970FB6D8
:1038B000F894DEBF0FBECDBF582E462E372ECE0158
:1038C0000196A6DF8B859C8599A388A30B811C811B
:1038D0000F5F1F4F1F8E212C852C912CF4013197E7
:1038E000FBA3EAA388A199A128161906B0F56E01D9
:1038F00096E1C90ED11C642C732CF12CE12CE81438
:10390000F90439F1B601C8018E0D9F1DB1DFF30135
:1039100081913F01F6019081FFEFCF1ADF0A9813E2
:1039200018C08AA19BA1E816F9067CF0BE016B5E67
:103930007F4FC80101979CDF8D89851541F191E08A
:103940009F8F065F1F4F2394CDCFEFEFEE1AFE0A35
:10395000D6CFFF8DFF23A9F3E9CF80E0A3960FB662
:10396000F894DEBF0FBECDBFDF91CF911F910F91B5
:10397000FF90EF90DF90CF90BF90AF909F908F908F
:103980007F906F905F904F903F902F90089581E0CF
:10399000E5CF2F923F924F925F926F927F928F92DC
:1039A0009F92AF92BF92CF92DF92EF92FF920F93CE
:1039B0001F93CF93DF93CDB7DEB7A3970FB6F894DD
:1039C000DEBF0FBECDBF582E462E372ECE01099634
:1039D00003DF89859A8599A388A31F8E212C85E111
:1039E000E82EF12C852C912CF4013197FBA3EAA34E
:1039F00088A199A128161906B0F56E0196E1C90EA5
:103A0000D11C642C732C10E000E00815190539F165
:103A1000B601C701800F911F2BDFF30181913F0198
:103A2000F6019081FFEFCF1ADF0A981318C08AA120
:103A30009BA10817190784F0BE016B5E7F4FC70179
:103A4000019716DF8D89851541F191E09F8FFAE08E
:103A5000EF0EF11C2394CCCF0F5F1F4FD6CFEF8D0D
:103A6000EE23A9F3E9CF80E0A3960FB6F894DEBF6A
:103A70000FBECDBFDF91CF911F910F91FF90EF90BF
:103A8000DF90CF90BF90AF909F908F907F906F907E
:103A90005F904F903F902F90089581E0E5CFCF92B7
:103AA000DF92EF92FF920F931F93CF93DF93EB017F
:103AB0007B012AE0E20EF11C8B016C01C61AD70AC9
:103AC000C601800F911F0E94245CF80181938F0131
:103AD000EE15FF05A9F7CE01DF91CF911F910F9150
:103AE000FF90EF90DF90CF900895FC0144815581C5
:103AF00080916C1690916D168417950780F08091D7
:103B0000681690916916009751F060817181611576
:103B1000710529F00E94DD5D21E0892B09F020E08C
:103B2000822F0895FB0101900020E9F73197AF0142
:103B3000461B570BDC01ED91FC910280F381E02DD7
:103B400019948F929F92AF92BF920F931F93CF932E
:103B5000DF93CDB7DEB7A1970FB6F894DEBF0FBEE7
:103B6000CDBF19A2423008F44AE08E010F5D1F4F0D
:103B7000842E912CB12CA12CA50194010E94495CAA
:103B8000E62FB901CA01EA30FCF4E05DD801EE93FA
:103B90008D01232B242B252B79F790E080E01097C3
:103BA00021F0BD018FE991E1BDDFA1960FB6F89438
:103BB000DEBF0FBECDBFDF91CF911F910F91BF90A0
:103BC000AF909F908F900895E95CE0CFCF93DF9303
:103BD000682F70E090E080E04AE0B3DFEC0163E73B
:103BE00073E08FE991E19EDF8C0F9D1FDF91CF91F4
:103BF0000895CF93DF93BC018FE991E193DFEC014E
:103C000063E773E08FE991E18DDF8C0F9D1FDF91FA
:103C1000CF9108950F931F93CF93DF93EC01FB0196
:103C20004481558160817181E881F9810280F3814D
:103C3000E02D19958C0163E773E0CE0173DF800FEF
:103C4000911FDF91CF911F910F910895FC01808109
:103C50009181009711F00C94975B60E070E0CB01CC
:103C60000895AF92BF92CF92DF92EF92FF920F939F
:103C70001F93CF93DF936B01EA01FB0144815581D0
:103C80004115510561F1FC01248135812115310572
:103C900031F12417350718F1C217D30710F0E901E5
:103CA0002197FC0100811181C801AA24AA94BB2498
:103CB000BA947801EC0EFD1EE816F906A0F0F601A4
:103CC000608171810E94FA5D009769F09C01201B60
:103CD000310BC217D30708F059010196EDCFAA2482
:103CE000AA94BB24BA94C501DF91CF911F910F9183
:103CF000FF90EF90DF90CF90BF90AF900895CF935B
:103D0000DF93FC01248135814217530788F4C08179
:103D1000D181FB0160817181CE01840F951F0E94CA
:103D2000FA5D009729F08C1B9D0BDF91CF910895D0
:103D30008FEF9FEFFACF50E040E0E1CF2F923F921C
:103D40004F925F926F927F928F929F92AF92BF92AB
:103D5000CF92DF92EF92FF920F931F93CF93DF9357
:103D6000FC01448055804114510409F4CCC0FB018E
:103D7000648075806114710409F4C5C07A016B0117
:103D8000EC01FA01A480B580A618B7080881198152
:103D9000A114B104B9F4F60160817181C8010E94D7
:103DA000FA5D8C01009709F4AEC0F7016081718162
:103DB000448155810E94A85DF70184819581080F97
:103DC000191FE9CFB7FC10C0FB01208031804201F0
:103DD000C801B1010E94FA5D009709F448C0860D40
:103DE000971D8A0C9B1CF5CF3801F601608171810B
:103DF000C8010E94FA5D2C01009719F14C01801A4C
:103E0000910AA401B801C3010E94A85D680C791C45
:103E1000F7016081718144815581C3010E94A85DD1
:103E2000F70184809580680C791CF6010481158166
:103E3000040D151D8C819D818A0D9B1D9D838C8396
:103E4000D4CFB801C301DF91CF911F910F91FF90A3
:103E5000EF90DF90CF90BF90AF909F908F907F902A
:103E60006F905F904F903F902F900C94D65D4814C8
:103E7000590409F448C08A819B818815990560F42A
:103E8000B4016F5F7F4FC8010E94BF5C0097D9F1FA
:103E9000998388839B828A824C815D81415051093C
:103EA00057FD31C0B601CE01DCDE8C0197FD2BC081
:103EB000F60124813581280F391F88819981820F6D
:103EC000931F4C815D81421B530BBC018A0D9B1DCE
:103ED0000E94B15D8C819D818A0D9B1D9D838C8389
:103EE00028813981820F931FFC011082888199817A
:103EF000F7016081718144815581800F911F0E947B
:103F0000A85DA801CBCFDF91CF911F910F91FF90BA
:103F1000EF90DF90CF90BF90AF909F908F907F9069
:103F20006F905F904F903F902F9008950F931F9345
:103F3000CF93DF93EC0188819981009759F02A8112
:103F40003B812617370730F081E0DF91CF911F9139
:103F50000F9108958B016F5F7F4F0E94BF5C0097A8
:103F600059F0998388831B830A832C813D81232BFD
:103F700059F7FC011082E8CF80E0E7CFEF92FF9283
:103F80000F931F93CF93DF936115710541F480E088
:103F9000DF91CF911F910F91FF90EF900895411500
:103FA0005105A9F07B01EC010C811D81040F151F47
:103FB000B801BCDF882359F3288139818C819D8128
:103FC000B701820F931F0E94D65D1D830C8381E091
:103FD000DFCFFB0101900020E9F73197AF01461BCD
:103FE000570BCCCFFB014481558160817181C6CFD5
:103FF000FC0124813581FB0144815581241735075B
:10400000A0F0FC0180819181009779F0FB01608133
:1040100071816115710549F0241B350B820F931FC7
:104020000E94CD5D21E0892B09F020E0822F0895C8
:10403000FC0124813581232B39F421E0FB018081AF
:10404000882349F020E007C0808191810E94CD5DE6
:1040500021E0892BB9F7822F0895CF93DF93EC01EC
:10406000A881B981EB01E881F9811097F1F03097CF
:10407000B1F4EC018C819D81892BC9F08C9190E089
:104080000BC0DB0114968D919C91892B81F080816E
:1040900090E0919581959109DF91CF910895BF01AD
:1040A000CD01DF91CF910C94CD5D309751F790E029
:1040B00080E0F2CF0F931F93CF93DF938C01EB013E
:1040C000FC01808191810097E1F06881798161151F
:1040D0007105A9F0428153812C813D81421753071C
:1040E00070F00E94D65D8C819D81F8019583848358
:1040F0001D821C82DF91CF911F910F9108950E9424
:104100000E5A88819981F801918380838A819B81ED
:10411000938382838C819D81958384831982188205
:104120001B821A82E5CFCF93DF93EC0188819981BE
:10413000009711F00E940E5A198218821D821C826B
:104140001B821A82DF91CF9108950F931F93CF9313
:10415000DF931F921F92CDB7DEB78C0169831A825D
:1041600041E050E0BE016F5F7F4F08DF811102C068
:10417000C801D9DFC8010F900F90DF91CF911F9137
:104180000F910895CF93DF93EC01FB010190002084
:10419000E9F73197AF01461B570BF0DE811102C0E2
:1041A000CE01C1DFCE01DF91CF910895CF93DF9390
:1041B000EC01FB014481558160817181DFDE811159
:1041C00002C0CE01B0DFCE01DF91CF910895EF9212
:1041D000FF920F931F93CF93DF93EC017B018A0132
:1041E000BA01A4DE81110AC0CE019DDFCE01DF91AC
:1041F000CF911F910F91FF90EF9008951D830C8335
:10420000B701888199810E94D65DF0CFFB010190B2
:104210000020E9F73197AF01461B570BD8CF0F931A
:104220001F93CF93DF93CDB7DEB761970FB6F894A6
:10423000DEBF0FBECDBF8C01CB01F8011182108211
:1042400013821282158214824AE0BE016F5F7F4F93
:104250000E94F85BBE016F5F7F4FC801D7DF619698
:104260000FB6F894DEBF0FBECDBFDF91CF911F9187
:104270000F9108950F931F93CF93DF9300D000D039
:1042800000D0CDB7DEB78C01862FF80111821082E5
:10429000138212821582148250E0BE016F5F7F4F3D
:1042A00090E00E94EE5BBE016F5F7F4FC801AEDF02
:1042B00029960FB6F894DEBF0FBECDBFDF91CF9128
:1042C0001F910F910895CF93DF931F921F92CDB747
:1042D000DEB7FC01118210821382128215821482D1
:1042E00069831A82BE016F5F7F4F90DF0F900F903E
:1042F000DF91CF910895CF93DF93EC01FB018617F7
:10430000970741F0608171816115710539F0448131
:1043100055815DDFCE01DF91CF91089504DFFACFA3
:10432000FC01118210821382128215821482E3CF63
:10433000FC0111821082138212821582148261158F
:10434000710549F0FB0101900020E9F73197AF01B9
:10435000461B570B3CCF0895AF92BF92CF92DF928E
:10436000EF92FF920F931F93CF93DF936C015B014A
:104370007A0189012417350720F48F2D7901042F44
:10438000182F6EEF77E0C601D3DFD5011496CD91DB
:10439000DC91EC16FD06D8F40C171D0708F4E801B3
:1043A000D501ED91FC911197EC0FFD1F108110824A
:1043B0006D917C916E0D7F1DC6016115710599F09F
:1043C00025DFF50180819181C80FD91F1883C601AF
:1043D000DF91CF911F910F91FF90EF90DF90CF90E1
:1043E000BF90AF9008959FDEECCF1F93CF93DF93E4
:1043F000EC01162F62EF72E09BDF173098F4E12F8B
:10440000F0E08827E95FFD4D8F4F0C94B75C0E22DA
:1044100017221A221D222022232226226CEF72E06C
:10442000CE01F4DECE01DF91CF911F91089568E0B7
:1044300073E0F6CF64E173E0F3CF6AE273E0F0CFAC
:1044400066E373E0EDCF6CE373E0EACF60E573E021
:10445000E7CFFC0180819181009711F00C940E5AF6
:1044600008959F92AF92BF92CF92DF92EF92FF9208
:104470000F931F93CF93DF93CDB7DEB7AA970FB6F5
:10448000F894DEBF0FBECDBF7C018B018091460E3C
:10449000813009F085C023E130E041E150E0CE01F8
:1044A0004F965ADFCE014F96D1DBD62E20E130E079
:1044B0004EE050E0B801CE0149964EDFCE0149965C
:1044C000C5DBC62E2DE030E04BE050E0B801CE0158
:1044D000439642DFCE014396B9DBB62E22E030E0B0
:1044E00050E040E0B801CE010D9636DFCE010D96CA
:1044F000ADDBA62E25E030E043E050E0B801CE0170
:1045000007962ADFCE010796A1DB962E2AE030E03F
:1045100046E050E0B801CE0101961EDFCE010196C3
:1045200095DB9B01603D774010F0205D37402DA367
:104530009EA2AFA2B8A6C9A6DAA6CE0185960E9411
:104540004115CE01019685DFCE01079682DFCE01AF
:104550000D967FDFCE0143967CDFCE01499679DF51
:10456000CE014F9676DFF7011182108213821282FC
:1045700015821482B801C7019DDDC701AA960FB646
:10458000F894DEBF0FBECDBFDF91CF911F910F9189
:10459000FF90EF90DF90CF90BF90AF909F900895E5
:1045A000823009F723E130E041E150E0CE014F963F
:1045B000D3DECE014F964ADBD62E20E130E04EE02E
:1045C00050E0B801CE014996C7DECE0149963EDBE8
:1045D000C62E2DE030E04BE050E0B801CE0143960E
:1045E000BBDECE01439632DBB62E22E030E050E057
:1045F00040E0B801CE010D96AFDECE010D9626DB70
:10460000A62E25E030E043E050E0B801CE01079649
:10461000A3DECE0107961ADB962E2AE030E046E0B4
:1046200050E0B801CE01019697DECE0101960EDB77
:104630009B01603D774010F0205D37402DA39EA286
:10464000AFA2B8A6C9A6DAA6CE0185960E94D1145B
:1046500078CF8F929F92AF92BF92CF92DF92EF92DC
:10466000FF920F931F93CF93DF9300D000D0CDB76D
:10467000DEB77C01A62E6A016EEF77E059DE860177
:10468000D12CC12CB12CCA14DB0424F5C114D104E3
:1046900021F06FEF7BE0C7019CDC4801F8018081CD
:1046A000803120F46CE773E0C70193DC0F5F1F4F8C
:1046B00040E1F4016081CE010196DCDDBE016F5F57
:1046C0007F4FC7018FDCCE010196C3DEFFEFCF1A0B
:1046D000DF0AD9CFC70126960FB6F894DEBF0FBE0A
:1046E000CDBFDF91CF911F910F91FF90EF90DF90A1
:1046F000CF90BF90AF909F908F9008950F931F938E
:10470000CF93DF9300D000D0CDB7DEB711E082E0C9
:1047100091E10E94F402892B09F43CC082E091E10E
:104720000E94D2028093590D9091410D992339F145
:1047300080913F0D9091400D01969093400D809394
:104740003F0D80910202909103028734910591F40C
:1047500067E673E0CE010196EBDDBE016F5F7F4F30
:1047600088E696E145DC082FCE01019672DE011144
:104770001093410D10925F0D10925E0DC8CF89838A
:104780001A8241E050E0BE016F5F7F4F88E696E1FC
:10479000F5DBD7CF26960FB6F894DEBF0FBECDBFA0
:1047A000DF91CF911F910F910895A8CF80E090E005
:1047B000892B29F00E941B0381110E94000080E0D8
:1047C00090E0892B29F00E94120381110E940000C1
:1047D00080E090E0892B29F00E94090381110E945A
:1047E00000000E940003811189CF0895EF92FF928B
:1047F0000F931F93CF93DF9300D000D0CDB7DEB7D8
:104800008C016EEF77E094DD86EFE82E8FE0F82ED6
:10481000C7010E94245C8F3FC9F46CE773E0C801B4
:10482000D8DB8FEFE81AF80AE11480E1F80681F787
:10483000C80126960FB6F894DEBF0FBECDBFDF913C
:10484000CF911F910F91FF90EF900895682FCE01A7
:10485000019639DDBE016F5F7F4FC801C3DBCE011A
:104860000196F7DDDECFCF93DF9300D000D0CDB738
:10487000DEB7BC01CE01019653DD66E773E0CE01E1
:10488000019680DCBC018EE696E135DDCE01019615
:10489000E0DD81E080936F0D26960FB6F894DEBFC1
:1048A0000FBECDBFDF91CF910895DF92EF92FF92BF
:1048B0000F931F93CF93DF93CDB7DEB7E6970FB675
:1048C000F894DEBF0FBECDBF7C01D62E8A016EEFFD
:1048D00077E02EDDCE0101960E94081C101611060D
:1048E00044F421E4D21609F459C032E4D31609F491
:1048F0009CC06D817E81CE01C19691DC69817A81F7
:10490000CE018B968CDC6F817885CE01859687DC15
:104910006B817C81CE014F9682DC6EE773E0CE0125
:10492000459606DDBE01615E7F4FCE0145963EDCB9
:1049300067E873E027DCBE016B5D7F4F37DC6FEF0C
:104940007BE020DCBE01655D7F4F30DC67E873E013
:1049500019DCBE016F5C7F4F29DCBC01C70142DB63
:10496000CE01459676DDCE014F9673DDCE0185965C
:1049700070DDCE018B966DDDCE01C1966ADDC7017B
:10498000E6960FB6F894DEBF0FBECDBFDF91CF9194
:104990001F910F91FF90EF90DF9008958F81988580
:1049A0008017910708F4A5CF8B819C81009709F4AB
:1049B000A0CF015011094AE0409F9001419F300D66
:1049C0001124BE016B5E7F4F820F931F68D810E0E9
:1049D000812F012E000C990B2D892817190679F2C9
:1049E00074F2E6E1F0E0EC0FFD1F8E0F9F1FFC015B
:1049F000608140E1CE018596603100F53BDC6BE7DC
:104A000073E0CE014F9694DCBE016B5D7F4FCE010B
:104A10004F96CCDBBC01C701E5DACE014F9619DD1C
:104A2000CE01859616DD1F5FD3CF8D819E818017C5
:104A3000910708F45ECF89819A81B8CF1BDC6FEFB4
:104A40007BE0DFCFCF93DF93EC01898D9A8D0097C8
:104A500041F00E94F80D898D9A8D0E940E5A1A8E8F
:104A6000198EDF91CF9108950F931F93CF93DF930A
:104A7000CDB7DEB762970FB6F894DEBF0FBECDBFDD
:104A80008C01CB01F80111821082138212821582EF
:104A9000148250E0BE016F5F7F4F0E94C55BBE0174
:104AA0006F5F7F4FC801B2DB62960FB6F894DEBF2E
:104AB0000FBECDBFDF91CF911F910F910895AF929F
:104AC000BF92CF92DF92EF92FF920F931F93CF93FB
:104AD000DF931F921F92CDB7DEB78C016B015A0195
:104AE0007A0181E0E81AF10869E873E0C601A0DA0A
:104AF0008823D1F0BE016F5F7F4FC5018F52904F69
:104B00000E94381C4AE06981C801B4DBC8010F90DB
:104B10000F90DF91CF911F910F91FF90EF90DF9059
:104B2000CF90BF90AF9008956DE873E0C60180DA32
:104B3000882349F0BE016F5F7F4FC5018F52904FB0
:104B40000E94381CDFCF61E973E0C60171DA882367
:104B500079F0C701880F991FBE016F5F7F4F8E529A
:104B6000904F0E94241C69817A81C80158DBCECF06
:104B700065E973E0C6015CDA882381F0C701880F1C
:104B8000991FBE016F5F7F4F8E52904F0E94241C71
:104B900069817A814AE0C80167DFB8CF69E973E0CB
:104BA000C801C6DBB3CF3F924F925F926F927F9264
:104BB0008F929F92AF92BF92CF92DF92EF92FF922D
:104BC0000F931F93CF93DF9300D000D000D01F929C
:104BD0001F92CDB7DEB77C01DC0115968C91811157
:104BE00015C0FE013196CE010C966F0130E2319373
:104BF000E817F907E1F7DA0130E087E09D91B92E77
:104C0000992329F19E3239F48A3011F480E0DAC018
:104C100038E08AE0F3CFE4EEF0E04491442321F061
:104C200031969413FACFF2CF831780F34FED490FEB
:104C30004E3560F74FE9490F4A3118F440EEB42E73
:104C4000B90EF601E30FF11DB0823F5FD7CF898126
:104C50008032E1F2322E8B01FB01838D948DD701DE
:104C60005C969C938E935B971682178210861186B2
:104C70001286138614861586F80182859385A4858D
:104C8000B585438954896589768984179507A60770
:104C9000B70708F04DC025E0B695A795979587957D
:104CA0002A95D1F7F82FFF70AF2ED80115968C9169
:104CB000823008F4ABCFC8010E94811197FDA6CFC6
:104CC000F80182859385A485B5854F96A11DB11DF8
:104CD00082879387A487B587F0E2AF9EB001112445
:104CE0006E5F704F6115710509F490CFDB018C91F7
:104CF000882341F0853E09F058C0BB2029F0BB2431
:104D0000B394BACFB1100EC0F701A28A80910E02FF
:104D100090910F02A0911002B0911102868797879F
:104D2000A08BB18BDB018C918111E9CFBB24B394B3
:104D3000832D8271823109F069CFBB2009F45AC0FA
:104D4000C7010E94B507009709F460CF20E2FC017B
:104D500011922A95E9F72BE0F601DC0101900D9202
:104D60002A95E1F721E238E2DC0151963C932E933B
:104D7000509740E058E01F965C934E931E975396D1
:104D80003C932E93529759963C932E93589757964F
:104D90005C934E93569781E00E944407882309F460
:104DA00035CF432DF70162890AC04BE050E0C601C0
:104DB0000E949B5D892B09F05FCF432D6A2DC701AF
:104DC0000E944D1A2B960FB6F894DEBF0FBECDBFD2
:104DD000DF91CF911F910F91FF90EF90DF90CF90D7
:104DE000BF90AF909F908F907F906F905F904F900B
:104DF0003F900895F8018581823009F407CFC801FA
:104E00000E94650B882309F401CFD8015B96ED91D0
:104E1000FC915C9716968D909D90AD90BC901997E3
:104E2000B2E08B1A9108A108B108858504C0880CEE
:104E3000991CAA1CBB1C8A95D2F786859785A089E8
:104E4000B189880E991EAA1EBB1E848124013501DA
:104E5000480E511C611C711C84149504A604B704EF
:104E600009F1E1E04E1A51086108710881E00E94E1
:104E70004407882309F4CACEE2E0FFE0119282E001
:104E800091E18E179F07D1F740920E0250920F02C8
:104E9000609210027092110280912F0E81608093B7
:104EA0002F0EDACFD8015B96ED91FC91258580E03D
:104EB00092E0A0E0B0E004C0880F991FAA1FBB1FBA
:104EC0002A95D2F7F8014389548965897689840F38
:104ED000951FA61FB71F838B948BA58BB68BD7010D
:104EE00052961C9282E09FE031CFCF93DF93CDB7F3
:104EF000DEB76D970FB6F894DEBF0FBECDBF44236B
:104F000091F1AB01BC011C821B828EEA92E09A8374
:104F100089831E8222E0CE01019645DE81110EC0FA
:104F200090E081E0911101C080E06D960FB6F89499
:104F3000DEBF0FBECDBFDF91CF910895CE010196A8
:104F40000E94BA19882361F3CE0101960E94B50729
:104F5000009731F325EEFC0120831E8281E00E9440
:104F60004407982FDECF81E0E0CF1F93CF93DF93EC
:104F7000CDB7DEB76D970FB6F894DEBF0FBECDBFCD
:104F8000AB011C821B822EEA32E03A8329831E8207
:104F900021E0BC01CE01019606DE11E081110CC0BA
:104FA00010E0812F6D960FB6F894DEBF0FBECDBF17
:104FB000DF91CF911F910895CE0101960E94F80DC7
:104FC000F0CF9F92AF92BF92CF92DF92EF92FF927B
:104FD0000F931F93CF93DF93CDB7DEB72C970FB608
:104FE000F894DEBF0FBECDBF7C016B01942EB22EB4
:104FF000A32EDC0112968D919C91DC01ED91FC9128
:105000000084F185E02D1995F70182819381DC01FF
:10501000ED91FC910084F185E02D1995F701A281B5
:10502000B381892B41F0ED91FC9111970284F385B6
:10503000E02DCD01E8CFF6018081F701848370E097
:1050400060E0CD010E94B01370E060E0D7011296DD
:105050008D919C910E94B0136FEF70E0F7018281F7
:1050600093810E94B01361E0600F162F190DD701D4
:1050700012968D919C91DC01ED91FC910190F08153
:10508000E02D612F1995612F70E07195619571097F
:10509000F701828193810E94B01364ED70E0D70123
:1050A00012968D919C910E94B013F7018281938199
:1050B000492D50E0DC01ED91FC910280F381E02D5F
:1050C000B60119959C2DF60114ED8E2F891B8915BB
:1050D00018F48191180FF9CFF70182819381402F45
:1050E00050E0DC01ED91FC910280F381E02D6B2D0D
:1050F0007A2D19959B2DEB2DFA2D8E2F891B80175C
:1051000018F48191180FF9CFF70182819381612FF3
:105110006195DC01ED91FC910190F081E02D1995F4
:1051200070E060E0F701828193810E94B01386E015
:10513000EBE1F2E0DE01179601900D928A95E1F71E
:105140002AE030E046E050E0BE016F5F7F4FC701CC
:105150000E94C21118160CF546E050E0BE01695FCE
:105160007F4FCE0101960E949B5D21E0892B09F4BF
:1051700020E0822F81952C960FB6F894DEBF0FBEEB
:10518000CDBFDF91CF911F910F91FF90EF90DF90F6
:10519000CF90BF90AF909F9008958EEFECCF9F92ED
:1051A000AF92BF92CF92DF92EF92FF920F931F9335
:1051B000CF93DF93CDB7DEB72C970FB6F894DEBF51
:1051C0000FBECDBF7C016B01942EB22EA32EDC014D
:1051D00012968D919C91DC01ED91FC910084F185FA
:1051E000E02D1995F70182819381DC01ED91FC910D
:1051F0000084F185E02D1995F701A281B381892BF7
:1052000041F0ED91FC9111970284F385E02DCD01E1
:10521000E8CFF6018081F701848370E060E0CD0182
:105220000E94B01370E060E0D70112968D919C91BE
:105230000E94B0136FEF70E0F701828193810E94AA
:10524000B01361E0600F162F190DD70112968D91E2
:105250009C91DC01ED91FC910190F081E02D612F9A
:105260001995612F70E0719561957109F70182813F
:1052700093810E94B01364ED70E0D70112968D9176
:105280009C910E94B013F70182819381492D50E0D7
:10529000DC01ED91FC910280F381E02DB6011995BE
:1052A0009C2DF60114ED8E2F891B891518F4819120
:1052B000180FF9CFF70182819381402F50E0DC0174
:1052C000ED91FC910280F381E02D6B2D7A2D1995E3
:1052D0009B2DEB2DFA2D8E2F891B801718F48191B1
:1052E000180FF9CFF70182819381612F6195DC015D
:1052F000ED91FC910190F081E02D199570E060E056
:10530000F701828193810E94B01386E0EBE1F2E025
:10531000DE01179601900D928A95E1F72AE030E0C0
:1053200046E050E0BE016F5F7F4FC7010E94B91297
:1053300018160CF546E050E0BE01695F7F4FCE01C4
:1053400001960E949B5D21E0892B09F420E0822FC9
:1053500081952C960FB6F894DEBF0FBECDBFDF91BE
:10536000CF911F910F91FF90EF90DF90CF90BF9062
:10537000AF909F9008958EEFECCFEF92FF920F9336
:105380001F93CF93DF93EC017B018A011B821A826A
:1053900088EE93E0A0E0B0E08C839D83AE83BF8372
:1053A00084EE92E0998388838DE190E00E947259A7
:1053B0009A8F898F009779F02DE1F701DC01019038
:1053C0000D922A95E1F74CE050E0B801CE010C9621
:1053D0000E94EB5D188EDF91CF911F910F91FF908E
:1053E000EF9008952F923F924F925F926F927F922B
:1053F0008F929F92AF92BF92CF92DF92EF92FF92E5
:105400000F931F93CF93DF93CDB7DEB7C756D10964
:105410000FB6F894DEBF0FBECDBF5C013B01A69670
:105420004FAFA69719A218A28EEA92E09F8F8E8F97
:105430001BA21C821B829A8389831E824E018EE1ED
:10544000880E911CC4010E947F0A63018E010F5FC8
:105450001F4F240118016FE270E0C6010E94C25D77
:10546000009709F457C0F60120812F3271F4FFEF45
:10547000CF1ADF0A902F812F8201492E582E942DAA
:10548000852D2801092F182FE6CF8C198D3008F0B3
:105490008CE0E82EF12CA701B601CE01885A9F4F6F
:1054A0000E94EB5DE8E5F0E0EC0FFD1FEE0DFF1D47
:1054B0001082C8010E94F80D21E0AE01485A5F4FEA
:1054C000B201C80170DB81111FC01EAE1DAE8EEA95
:1054D00092E09CAF8BAF21961FAE2197A896EEADC0
:1054E000FFADA8976E0E7F1EF301808181111FC052
:1054F000BE01655C7F4FC1010E94BB1047E853E0CD
:10550000B101C5013ADF31C0CE0CDF1CC2010E94DF
:10551000F80DB5CFC60186199709A8969FAF8EAF33
:10552000A897B201CE01CB960E94BB10D7CF19A28B
:1055300018A28EEA92E09F8F8E8F1BA221968FADCC
:10554000219781112DC0F5011382128288EE93E01C
:10555000A0E0B0E084839583A683B78384EE92E0D5
:1055600091838083128E118E1486C501C959DF4F35
:105570000FB6F894DEBF0FBECDBFDF91CF911F9164
:105580000F91FF90EF90DF90CF90BF90AF909F90E2
:105590008F907F906F905F904F903F902F900895E5
:1055A000A6962FADA697A301BE01655C7F4FC401EF
:1055B000FADA882341F2CE01CB960E94F80DA69626
:1055C0008FADA6978670863039F449A95AA96BA980
:1055D0007CA9C4010E94D20AB401C1010E94BB107F
:1055E000A3018ECF0C942C5CCF92DF92EF92FF92AE
:1055F0000F931F93CF93DF93C62F6A010EEB1FE02B
:10560000823411F008EC1FE0C43011F0C73021F5EE
:1056100078018FEFE81AF80A6C2FC801E3DF10E079
:1056200000E0D0E0C8018E0D9F1D60E00C171D0743
:1056300024F4F601E00FF11F6081D4DF0F5F1F4FEC
:105640000730110579F7DF91CF911F910F91FF90EE
:10565000EF90DF90CF900895C111F5CFD0E0C0E07A
:1056600060E0CE01800F911FBDDF2196C830D105CB
:10567000B9F7E9CFFF920F931F93CF93DF93EC011C
:10568000F62E08811981C8010E94245CF81621F0C9
:105690006F2DC8010E942C5CCE01DF91CF911F912C
:1056A0000F91FF900895CF92DF92EF92FF920F93A8
:1056B0001F93CF93DF931F921F92CDB7DEB76C017C
:1056C0007C0110E000E01A830983F70161917F01FA
:1056D000CE010196CFDF0F5F1F4F0431110599F7FF
:1056E000C6010F900F90DF91CF911F910F91FF9006
:1056F000EF90DF90CF900895EF92FF920F931F935A
:10570000CF93DF931F921F92CDB7DEB78C017B0141
:105710009A838983FB016081CE010196ABDF0F5F25
:105720001F4F1A830983F7016181CE010196A2DF21
:10573000C7010F900F90DF91CF911F910F91FF90B4
:10574000EF900895AF92BF92CF92DF92EF92FF92C7
:105750000F931F93CF93DF931F921F92CDB7DEB7A6
:105760008B016B012AE0C20ED11C7B015C01A61AE1
:10577000B70AC5018E0D9F1D9A838983F701619138
:105780007F01CE01019676DFEC14FD0491F7C8018C
:105790000F900F90DF91CF911F910F91FF90EF909D
:1057A000DF90CF90BF90AF9008958F929F92AF926D
:1057B000BF92CF92DF92EF92FF920F931F93CF93FE
:1057C000DF93CDB7DEB7E2970FB6F894DEBF0FBE1A
:1057D000CDBF6C01F62E8A0163EA73E0CE018B9691
:1057E0000E9498211AAA19AACE0101960E94081CAB
:1057F00081E4F81639F082E4F81609F45AC0F12C65
:10580000E12C32C0EB80FC808B859C859AAB89AB08
:1058100010161106ECF069E074E0C6010E949821B0
:10582000CE018B960E942922C601E2960FB6F8940B
:10583000DEBF0FBECDBFDF91CF911F910F91FF90C3
:10584000EF90DF90CF90BF90AF909F908F90089592
:105850008017910700F301979AAB89ABBE016F5C8B
:105860007F4F8AE090E048DF580181E0A81AB10834
:105870002AE02A9DC0012B9D900D1124E80EF91EEF
:1058800089A99AA9A816B90658F547018AE0880E91
:10589000911CBE016B5E7F4FC4010E944F1DBE0173
:1058A0006B5E7F4FC7014EDF8FEFA81AB80A7401F5
:1058B000E7CFE980FA8089859A859AAB89AB101683
:1058C00011060CF0A8CF8017910708F4A4CF019718
:1058D0009AAB89ABBE016F5C7F4F88E090E0C3CF8D
:1058E0004AE0B801CE018596BFD8BE01655D7F4F05
:1058F000CE014F960E949021BE016B5D7F4FCE017D
:105900004F960E94D620BC01C6010E949021CE0174
:105910004F960E942922CE0185960E94292280CF8F
:10592000CF93DF93CDB7DEB7E2970FB6F894DEBF23
:105930000FBECDBF89A7262FDE019A96FB019E2FB1
:10594000921B981718F491919D93F9CF81E489AB3C
:10595000CE0101960E94081C84E1FE013196DE0111
:10596000559601900D928A95E1F78F89988D4F8D0C
:1059700058A16AE0649F9001659F300D1124BE011B
:10598000675D7F4F820F931FDDDE8F8D98A101969B
:1059900098A38F8FBE01615E7F4F8AE090E0ACDEFE
:1059A000E2960FB6F894DEBF0FBECDBFDF91CF9168
:1059B0000895CF93DF93CDB7DEB7E2970FB6F89493
:1059C000DEBF0FBECDBF89A7262FDE019A96FB0151
:1059D0009E2F921B981718F491919D93F9CF85E50E
:1059E00089ABCE0109960E94EC1B84E1FE01319641
:1059F000DE01559601900D928A95E1F72D8D3E8D31
:105A00004AE0429FC001439F900D1124BE01675D93
:105A10007F4F449697DE8D8D9E8D01969E8F8D8F44
:105A2000BE01635E7F4F88E090E066DEE2960FB6CF
:105A3000F894DEBF0FBECDBFDF91CF910895CF9216
:105A4000DF92FF920F931F93CF93DF93CDB7DEB713
:105A5000E3970FB6F894DEBF0FBECDBF6C01CE0149
:105A60004C960E9416026EEF77E0CE0188960E9457
:105A700098218091460E8E010F5F1F4F813009F0F3
:105A800006C1C8010E94611B86E0F801DE015C9638
:105A900001900D928A95E1F789A11F928F9388A1B9
:105AA0001F928F938F8D1F928F938E8D1F928F9346
:105AB0008D8D1F928F938C8D90E08053984F9F9384
:105AC0008F9381E294E09F938F931F930F930E9493
:105AD000145EB801CE0188960E9406216FEF7BE02C
