:1000000011C1000040C100003EC100003CC1000021
:100010003AC1000038C1000036C1000034C1000000
:1000200032C1000030C100002EC100002CC1000010
:100030002AC1000028C1000026C1000024C1000020
:1000400022C1000020C100001EC100001CC1000030
:100050000C94FF0F18C1000016C100000C942A4335
:1000600012C100000C948D3F0C94633F0CC1000042
:100070000AC1000008C1000006C1000004C1000060
:1000800002C1000000C10000FEC000000C942A1054
:100090000C94393F0C94103FF6C000000C94CA1029
:1000A000F2C00000F0C00000EEC00000ECC0000094
:1000B000EAC00000E8C00000E6C00000E4C00000A4
:1000C000E2C00000E0C00000DEC000000C94E63E8C
:1000D0000C94BD3ED8C000000C94943E0C946B3E32
:1000E000D2C000007C3C3E5E2B3D3F2F5B5D3B2C35
:1000F0002A225C0000002200250028002B002E0090
:100100003100340002010000050108010B0100006C
:1001100020002300260029002C002F0032000001BF
:10012000000003010601090100000A0B02090C0D81
:100130000E0807030401000000000000000000009A
:1001400000000000000000000000000000000000AF
:10015000000000001211100000000000000000006C
:10016000000000000000000000000000000000008F
:100170002100240027002A002D0030003300010157
:100180000000040107010A010102102020080810E4
:1001900020401020408002010201080402010102F7
:1001A00004081020408080402010080402018004D0
:1001B000020180402010080402010804020101022B
:1001C000040810204080010204081020408005052A
:1001D0000505070508080808020202020A0A0808BD
:1001E00004040404010101010101010103030303EB
:1001F00003030303040707070C0C0C0C0C0C0C0C7A
:100200000202020206060606060606060B0B0B0B8A
:100210000B0B0B0B1F1C1F1E1F1E1F1F1E1F1E0064
:100220004D56355611241FBECFEFD1E2DEBFCDBFF4
:1002300000E00CBF1EE0A0E0B2E0ECE7F1ED00E072
:100240000BBF02C007900D92A233B107D9F729E185
:10025000A2E3BEE001C01D92A43FB207E1F711E0A6
:10026000C1E1D1E000E006C021970109802FFE0125
:100270000E948864C031D10780E00807A9F70E9476
:10028000A5570C94AD68BCCEDC015996ED91FC915C
:10029000309721F081E09581911101C080E00895AF
:1002A000DC015996ED91FC913097B9F083899489DE
:1002B000A589B6894285538564857585841B950B10
:1002C000A60BB70B811520E89207A105B10538F000
:1002D0008FEF9FE7A0E0B0E0089590E080E0089500
:1002E000DC0159968D919C91009739F0DC01ED91DC
:1002F000FC910480F581E02D199490E080E0089550
:10030000CF93DF931F92CDB7DEB76983DC01ED9108
:10031000FC910280F381E02D41E050E0BE016F5F6F
:100320007F4F19950F90DF91CF910895DC01ED91EA
:10033000FC910190F081E02D1994CF93DF93EC01B3
:1003400065E570E08A819B81F1DF65E570E08A8177
:100350009B81ECDF70E060E08A819B81E7DF70E0E9
:1003600060E08A819B81E2DF70E060E08A819B81AE
:10037000DDDF8A819B81DC01ED91FC910084F185B8
:10038000E02D19958A819B81DC01ED91FC9100841F
:10039000F185E02D1995892B49F08A819B81DC013B
:1003A000ED91FC910284F385E02DEBCFDF91CF91AD
:1003B0000895CF93DF93EC0165E570E08A819B811E
:1003C000B5DF65E570E08A819B81B0DF70E060E0B9
:1003D0008A819B81ABDF70E060E08A819B81A6DF30
:1003E00070E060E08A819B81A1DF8A819B81DC01D2
:1003F000ED91FC910084F185E02D19958A819B8116
:10040000DC01ED91FC910084F185E02D1995892B9B
:1004100049F08A819B81DC01ED91FC910284F38596
:10042000E02DEBCFDF91CF91089520915D11260F44
:100430003327331F21323105ECF42091F111FC01F7
:1004400090E080E0243069F082E00895A0915D1191
:100450002191AC01435C5E4EA40FB52FB11D2C93CE
:100460000196861798F380915D11680F60935D1176
:1004700080E0089581E00895089508950895E09139
:10048000181280911712E81730F4F0E0E950FE4E90
:10049000808190E008958FEF9FEF0895909118125A
:1004A000809117122FEF3FEF981748F4E92FF0E0F3
:1004B000E950FE4E208130E09F5F90931812C901F1
:1004C00008958091171290911812891B990B089525
:1004D000CF92DF92EF92FF920F931F93CF93DF9310
:1004E0007C01CB018A012091A811222389F0EB0124
:1004F0006B01C40ED51ECC15DD0561F06991D701E5
:10050000ED91FC910190F081E02DC7011995F3CF99
:10051000642F8BDFC801DF91CF911F910F91FF9066
:10052000EF90DF90CF900895CF93DF931F92CDB7D8
:10053000DEB769832091A8112223F9F02091CA1116
:10054000203258F021E030E0FC013383228390E038
:1005500080E00F90DF91CF9108958091A911E82F4D
:10056000F0E0E655FE4E998190838F5F8093A9114C
:100570008093CA1181E090E0ECCF61E0CE0101965A
:1005800054DFF8CF90E080E00895CF93DF939C0193
:10059000C2E8D1E181E08A838FB78B83F894B901F7
:1005A0007695679590E080E0605C7D4B804F9F4F33
:1005B00050E040E00E941A64DA01C90123E0880F8C
:1005C000991FAA1FBB1F2A95D1F7998388839093FF
:1005D0008700809386008B818FBFE1E8F0E0808107
:1005E000887F808380819A81892B8083DF91CF915E
:1005F0000895CF93DF93FB0122813381DC011396B1
:100600003C932E931297448155816681778114968D
:100610004D935D936D937C931797408551856285CB
:10062000738518964D935D936D937C931B971C96E1
:10063000EF012C969C01275E3F4F49914D93A217E5
:10064000B307D9F7218D328DFC01328F218FDF91D5
:10065000CF9108952F923F924F925F926F927F9227
:100660008F929F92AF92BF92CF92DF92EF92FF92C2
:100670000F931F93CF93DF932C011A0189013B0144
:10068000D0E0C0E06901F12CE12CC215D30511F1D5
:100690000E94B5424B015C01D20112968D919C9152
:1006A000DC01ED91FC910284F385E02D199597FF13
:1006B00025C00115110581F30E94B5426819790919
:1006C0008A099B096C157D058E059F0528F38EEF21
:1006D000209709F08C2FDF91CF911F910F91FF9000
:1006E000EF90DF90CF90BF90AF909F908F907F90D2
:1006F0006F905F904F903F902F900895F3018193FA
:100700003F012196C2CFAF92BF92CF92DF92EF927C
:10071000FF920F931F93CF93DF9300D01F921F92EE
:10072000CDB7DEB77C01062FB72E142F690143E049
:1007300050E0BE016F5F7F4F8DDF181694F08EEF93
:100740009FEF0F900F900F900F900F90DF91CF9130
:100750001F910F91FF90EF90DF90CF90BF90AF90DF
:1007600008958981882319F08DEF9FEFEACF8A8160
:100770008111FACF8B818F3FB9F7960142E050E0AB
:10078000BE016C5F7F4FC70165DF1816C4F68C8110
:100790009D81980F49F782508C83181708F445C043
:1007A000F7011481AA24A394A10E960142E050E01F
:1007B000BE016F5F7F4FC7014DDF18160CF0BFCF32
:1007C0008981853D89F68A818A11CECF4C8150E09E
:1007D0009601602F7B2DC7013DDF2C81082E000C78
:1007E000990B2817190609F0AACF1A52902FE02F5B
:1007F000FB2D8E2F891B821718F48191180FF9CFCA
:10080000960142E050E0BE016F5F7F4FC70122DFDB
:1008100018160CF094CF8981180F09F0A5CF8A81A2
:100820008111A2CF8C8190E08CCF8CEF9FEF89CF8C
:100830002F923F924F925F926F927F928F929F92F0
:10084000AF92BF92CF92DF92EF92FF920F931F93DE
:10085000CF93DF932C011A0189013B01D0E0C0E066
:100860006901F12CE12CC215D30511F10E94B542AA
:100870004B015C01D20112968D919C91DC01ED91AE
:10088000FC910284F385E02D199597FF25C0011591
:10089000110581F30E94B542681979098A099B09FB
:1008A0006C157D058E059F0528F38EEF209709F0C6
:1008B0008C2FDF91CF911F910F91FF90EF90DF90E0
:1008C000CF90BF90AF909F908F907F906F905F90F0
:1008D0004F903F902F900895F30181933F0121960F
:1008E000C2CFAF92BF92CF92DF92EF92FF920F935F
:1008F0001F93CF93DF9300D01F921F92CDB7DEB727
:100900007C01062FB72E142F690143E050E0BE0191
:100910006F5F7F4F8DDF181694F08EEF9FEF0F9073
:100920000F900F900F900F90DF91CF911F910F912B
:10093000FF90EF90DF90CF90BF90AF9008958981A6
:10094000882319F08DEF9FEFEACF8A818111FACFCA
:100950008B818F3FB9F7960142E050E0BE016C5F9A
:100960007F4FC70165DF1816C4F68C819D81980FF3
:1009700049F782508C83181708F445C0F701148199
:10098000AA24A394A10E960142E050E0BE016F5F3D
:100990007F4FC7014DDF18160CF0BFCF8981853D11
:1009A00089F68A818A11CECF4C8150E09601602F62
:1009B0007B2DC7013DDF2C81082E000C990B2817D9
:1009C000190609F0AACF1A52902FE02FFB2D8E2F77
:1009D000891B821718F48191180FF9CF960142E014
:1009E00050E0BE016F5F7F4FC70122DF18160CF089
:1009F00094CF8981180F09F0A5CF8A818111A2CFE8
:100A00008C8190E08CCF8CEF9FEF89CF60913B1170
:100A10008FE10E94E03F80913B1191E08927809314
:100A20003B110895E1E8F0E08081887F808360E0F9
:100A30008FE10C94E03FCF939FEF980F923000F539
:100A400010922D1191E09093BD1090930502823089
:100A500009F441C0C1E0C093BC1061E083E20E9490
:100A6000E03F60E082E20E94E03FC093301180915D
:100A70008F119091901190932F1180932E110AC095
:100A8000823049F18330D1F1813021F380913011EE
:100A9000811104C08091BD10CF91089581E08093B1
:100AA0002D118093BD108091BC10813059F461E00C
:100AB00082E20E94E03F60E083E20E94E03F109209
:100AC0003011E8CF8230D9F761E083E20E94E03F45
:100AD00060E082E2F2CF82E08093BC1061E082E2CB
:100AE0000E94E03F60E083E20E94E03F81E080936B
:100AF000301180918D1190918E11BDCF8091BD10DC
:100B0000882341F280910502882321F0815080934F
:100B10000502C0CF61E082E20E94E03F61E083E233
:100B20000E94E03F1092BD1081E0F1CFCF93DF93A0
:100B3000CDB7DEB76D970FB6F894DEBF0FBECDBF51
:100B4000442399F1AB01BC011C821B828DEA92E027
:100B50009A8389831E8222E0CE0101960E944D4E27
:100B600081110EC090E081E0911101C080E06D968E
:100B70000FB6F894DEBF0FBECDBFDF91CF910895C1
:100B8000CE0101960E944D4A882361F3CE01019661
:100B90000E946845009731F325EEFC0120831E82F8
:100BA00081E00E94F444982FDECF81E0E0CF1F93D4
:100BB000CF93DF93CDB7DEB76D970FB6F894DEBF56
:100BC0000FBECDBFAB011C821B822DEA32E03A83FF
:100BD00029831E8221E0BC01CE0101960E944D4E68
:100BE00011E081110CC010E0812F6D960FB6F894C2
:100BF000DEBF0FBECDBFDF91CF911F910895CE0113
:100C000001960E94ED4FF0CFCF93DF93EC01898DD9
:100C10009A8D009741F00E94ED4F898D9A8D0E9428
:100C2000BE611A8E198EDF91CF910895FC01818DDE
:100C3000928D009719F061E00C9482490895CF934A
:100C4000DF93EC01E98DFA8D309749F481E090E073
:100C50009B838A8390E080E0DF91CF910895138297
:100C60001282898D9A8D0E94464BE98DFA8D2281E0
:100C70003381232B59F7F0CF9F92AF92BF92CF923F
:100C8000DF92EF92FF920F931F93CF93DF93CDB735
:100C9000DEB72C970FB6F894DEBF0FBECDBF7C0138
:100CA0006B01942EB22EA32EDC0112968D919C9195
:100CB000DC01ED91FC910084F185E02D1995F7019F
:100CC00082819381DC01ED91FC910084F185E02D1E
:100CD0001995F701A281B381892B41F0ED91FC9127
:100CE00011970284F385E02DCD01E8CFF6018081D4
:100CF000F701848370E060E0CD0118DB70E060E014
:100D0000D70112968D919C9111DB6FEF70E0F70186
:100D1000828193810BDB61E0600F162F190DD701E3
:100D200012968D919C91DC01ED91FC910190F081E6
:100D3000E02D612F1995612F70E071956195710912
:100D4000F70182819381F2DA64ED70E0D7011296A7
:100D50008D919C91EBDAF70182819381492D50E0CE
:100D6000DC01ED91FC910280F381E02DB601199533
:100D70009C2DF60114ED8E2F891B891518F4819195
:100D8000180FF9CFF70182819381402F50E0DC01E9
:100D9000ED91FC910280F381E02D6B2D7A2D199558
:100DA0009B2DEB2DFA2D8E2F891B801718F4819126
:100DB000180FF9CFF70182819381612F6195DC01D2
:100DC000ED91FC910190F081E02D199570E060E0CB
:100DD000F70182819381AADA86E0EDE1F2E0DE019B
:100DE000179601900D928A95E1F72AE030E046E0EF
:100DF00050E0BE016F5F7F4FC7012CDC18160CF569
:100E000046E050E0BE01695F7F4FCE0101960E942F
:100E10006C6521E0892B09F420E0822F81952C96C6
:100E20000FB6F894DEBF0FBECDBFDF91CF911F91FB
:100E30000F91FF90EF90DF90CF90BF90AF909F9079
:100E400008958EEFECCF9F92AF92BF92CF92DF9238
:100E5000EF92FF920F931F93CF93DF93CDB7DEB73F
:100E60002C970FB6F894DEBF0FBECDBF7C016B018F
:100E7000942EB22EA32EDC0112968D919C91DC0152
:100E8000ED91FC910084F185E02D1995F7018281A7
:100E90009381DC01ED91FC910084F185E02D1995A1
:100EA000F701A281B381892B41F0ED91FC9111975B
:100EB0000284F385E02DCD01E8CFF6018081F701B2
:100EC000848370E060E0CD0131DA70E060E0D7014A
:100ED00012968D919C912ADA6FEF70E0F701828172
:100EE000938124DA61E0600F162F190DD701129655
:100EF0008D919C91DC01ED91FC910190F081E02DB0
:100F0000612F1995612F70E0719561957109F70155
:100F1000828193810BDA64ED70E0D70112968D9196
:100F20009C9104DAF70182819381492D50E0DC0124
:100F3000ED91FC910280F381E02DB60119959C2D75
:100F4000F60114ED8E2F891B891518F48191180F65
:100F5000F9CFF70182819381402F50E0DC01ED91C0
:100F6000FC910280F381E02D6B2D7A2D19959B2D3C
:100F7000EB2DFA2D8E2F891B801718F48191180FF5
:100F8000F9CFF70182819381612F6195DC01ED91A9
:100F9000FC910190F081E02D199570E060E0F7017F
:100FA00082819381C3D986E0EDE1F2E0DE011796FC
:100FB00001900D928A95E1F72AE030E046E050E09A
:100FC000BE016F5F7F4FC70133DC18160CF546E09A
:100FD00050E0BE01695F7F4FCE0101960E946C65B3
:100FE00021E0892B09F420E0822F81952C960FB601
:100FF000F894DEBF0FBECDBFDF91CF911F910F914F
:10100000FF90EF90DF90CF90BF90AF909F900895AA
:101010008EEFECCF40E052EC61E070E0FC018281A9
:1010200093810C949B3940E052EC61E070E0FC014C
:10103000828193810C949B39EF92FF921F93CF93FF
:10104000DF93182FEB017A019091171280911812FB
:10105000981719F00E945839F7CF1695812F0E94E2
:101060006B3961E08EE993E15FDA61E08EE993E14B
:101070005BDA81E00E940E416EE170E080E090E07A
:101080000E94854241E06AE0812F0E943340109225
:101090001812809317120E945839873049F50E9420
:1010A00058390E9458390E94583988830E9458390B
:1010B00089830E9458398A830E9458398B831C8205
:1010C0001D821E829091171280911812981719F0A4
:1010D0000E945839F7CF84E0F701808381E00E94B5
:1010E0000E4181E0DF91CF911F91FF90EF90089525
:1010F0008A3021F50E9458390E9458390E94583987
:1011000088830E94583989830E9458398A830E94B3
:1011100058398B830E9458398C830E9458398D83AB
:101120000E9458398E839091171280911812981747
:1011300019F00E945839F7CF87E0CECF1882198274
:101140001A821B821C821D821E829091171280912E
:101150001812981719F00E945839F7CFF70110822A
:1011600081E00E940E4180E0BDCFCF9380911402B8
:10117000893061F498E09093140220910D02293097
:1011800051F490930D0210923A110EC0813031F457
:1011900098E09093140280930D02F5CF8430C1F350
:1011A0008A30B1F38B30A1F380910D0280930C0251
:1011B00090913A11843009F4D4C0F0F4813069F18F
:1011C000823009F09AC1911108C081E080933A11F0
:1011D00085E1809339111092351180913911853153
:1011E00009F4A1C008F08BC0882309F48BC1909149
:1011F0003511891336C086C18A3009F471C18B302C
:1012000009F474C1893009F078C191117BC181E082
:1012100080933A1180E00FDC75C1911117C0809363
:101220003A1184E20E94B73F8093381185E20E9410
:10123000B73FC82F809337118093361181E0FBDBD5
:101240008CE0C11101C08BE08093391110923511EF
:10125000809139118B3041F08C30D9F0882309F41A
:1012600051C1809335114EC18093351185E20E94A2
:10127000B73F8093371190913611891709F442C115
:10128000882309F43FC1809336118CE08093391193
:1012900039C18093351180913411811104C080913E
:1012A0003311882351F01092341110923311809130
:1012B0008C118093321182E0BEDB85E20E94B73F41
:1012C0008093371190913611891709F41BC1811150
:1012D00019C1B1DB84E20E94B73F882341F010922C
:1012E000391182E080930D0210923A110BC1809166
:1012F00038118111F4CF1092391183E0F3CF90911E
:101300003511863101F1873109F071CF973111F034
:101310008093351185E20E94B73F80933711811188
:10132000F1C089DBE8CF90913511953111F08093B0
:10133000351184E20E94B73F892B09F0E3C081E0B8
:101340007ADB86E1A3CF963111F08093351185E2E7
:101350000E94B73F80933711882309F4D3C087E1F7
:1013600095CF911118C081E080933A1184E20E94D8
:10137000B73F8093381185E20E94B73FC82F809312
:1013800037118093361182E056DB8BE2C11101C028
:1013900089E280933911809139118B3209F44CC064
:1013A000E8F4882309F4AEC0893209F020CF909187
:1013B0003511993211F08093351185E20E94B73FC3
:1013C0008093371190913611891709F49BC08823B7
:1013D00009F498C0809336118BE258CF9091351163
:1013E0008C3209F46AC08D3209F001CF9D3211F0C0
:1013F0008093351180913411811104C08091331193
:10140000882351F0109234111092331180918C1175
:101410008093321181E00FDB85E20E94B73F809319
:10142000371190913611891709F46CC081116AC087
:101430001092361100DB39C0909135119B3211F0BA
:101440008093351180913411811104C08091331142
:10145000882369F081E08093311110923411109249
:10146000331180918C118093321181E0E4DA85E2AE
:101470000E94B73F8093371190913611891709F474
:1014800041C081113FC010923611D5DA84E20E942A
:10149000B73F90913811891304C09091311199236D
:1014A00041F080933811109231111092391185E07A
:1014B00019CF82E0C0DA8CE2E9CE9C3211F0809341
:1014C000351185E20E94B73F809337119091361114
:1014D0008917C1F08823B1F0809336118DE2D6CE02
:1014E000911110C081E080933A1195CE91110AC0FC
:1014F00081E080933A1182E08ECE911103C081E0A9
:1015000080933A1180913011882361F180913711D5
:1015100090913611891363C080912E1190912F11F3
:10152000009709F453C0019790932F1180932E11C7
:101530008091321120912E1130912F11820F932F13
:10154000911D892B79F484E20E94B73F8093381172
:10155000882309F447C080E06EDA81E0809333117C
:101560001092341180912D11813031F483E063DACF
:10157000811102C010922D1180917B00877F809392
:101580007B0080E480937C0080917A00806480936B
:101590007A0080917A0086FDFCCF9091780080914E
:1015A0007900892798278927813223E0920714F14F
:1015B00060E089E10E94E03F61E082E10E94E03F5B
:1015C00060E081E30E94E03F60E024C0809132113E
:1015D000882309F4ADCF815080933211A9CF809335
:1015E0003611A6CF80E027DA81E080933411109283
:1015F0003311B8CF61E0853F914084F089E10E94CA
:10160000E03F60E082E10E94E03F60E081E30E9411
:10161000E03F61E080E3CF910C94E03F89E10E94DC
:10162000E03F61E082E10E94E03F61E0CACF0C94BC
:10163000FD630F931F93CF93DF938C01EB010E9407
:10164000F5638883C80101960E94F5638983CE0102
:10165000DF91CF911F910F910895CF93DF93EB010D
:101660000E94F5638883CE01DF91CF910895CF92D8
:10167000DF92EF92FF920F931F93CF93DF93EB01D3
:101680007B012AE0E20EF11C8B016C01C61AD70A1D
:10169000C601800F911F0E94F563F80181938F01AD
:1016A000EE15FF05A9F7CE01DF91CF911F910F91A4
:1016B000FF90EF90DF90CF900895CF93DF939C0140
:1016C000E091B310F091B410CF01019666E070E0A4
:1016D0000E9475644091B1105091B210481759079B
:1016E00091F0EC01C9012AE52E9FB0012F9F700DEA
:1016F00011246B56714F4AE550E00E943539D09362
:10170000B410C093B310DF91CF9108951F93CF937E
:10171000DF93CDB7DEB764970FB6F894DEBF0FBE88
:10172000CDBF182FCE0101960E94EF388B859C8586
:10173000113431F089859A85123411F090E080E0FF
:1017400064960FB6F894DEBF0FBECDBFDF91CF9188
:101750001F9108952F923F924F925F926F927F92C6
:101760008F929F92AF92BF92CF92DF92EF92FF92B1
:101770000F931F93CF93DF93CDB7DEB7A3970FB629
:10178000F894DEBF0FBECDBF582E462E372ECE01A9
:1017900001960E94EF388B859C8599A388A30B81C5
:1017A0001C810F5F1F4F1F8E212C852C912CF40163
:1017B0003197FBA3EAA388A199A128161906B0F5D1
:1017C0006E0196E1C90ED11C642C732CF12CE12C16
:1017D000E814F90439F1B601C8018E0D9F1D3DDFF3
:1017E000F30181913F01F6019081FFEFCF1ADF0AEB
:1017F000981318C08AA19BA1E816F9067CF0BE01D7
:101800006B5E7F4FC801019728DF8D89851541F1F7
:1018100091E09F8F065F1F4F2394CDCFEFEFEE1A1D
:10182000FE0AD6CFFF8DFF23A9F3E9CF80E0A39670
:101830000FB6F894DEBF0FBECDBFDF91CF911F91E1
:101840000F91FF90EF90DF90CF90BF90AF909F905F
:101850008F907F906F905F904F903F902F90089562
:1018600081E0E5CFAF92BF92CF92DF92EF92FF92ED
:101870000F931F93CF93DF93CDB7DEB7C854D10931
:101880000FB6F894DEBF0FBECDBF98E0E3E2F2E002
:10189000DE01D19601900D929A95E1F798E0EBE286
:1018A000F2E0DE01D99601900D929A95E1F798E069
:1018B000E3E3F2E0DE01AF5BBF4F01900D929A953A
:1018C000E1F798E0EBE3F2E0DE01599601900D922A
:1018D0009A95E1F798E0E3E4F2E0DE019196019059
:1018E0000D929A95E1F798E0EBE4F2E0DE0199962B
:1018F00001900D929A95E1F798E0E3E5F2E0DE01C0
:10190000119601900D929A95E1F798E0EBE5F2E0DF
:10191000DE01199601900D929A95E1F798E0E3E6C1
:10192000F2E0DE01519601900D929A95E1F7FE01E9
:10193000F19693E040E0282F2150330B89016B0191
:1019400030E020E0281788F4D6015D916D017F0119
:10195000E20EF31ED7011196FC90F51206C0201777
:1019600031072CF42F5F3F4FEDCF442321F020812E
:10197000281719F141E0915038969111E0CFFE01FE
:10198000799643E050E0282F2150330B89015B0109
:1019900030E020E0281798F4D501FD905D016F013B
:1019A000C20ED31ED6011196EC90EF1008C020177E
:1019B00031073CF42F5F3F4FEDCF91E0E0CF55234F
:1019C00021F02081281719F151E04150389641113A
:1019D000DECFFE01319643E050E0282F2150330B3B
:1019E00089015B0130E020E0281798F4D501FD90D3
:1019F0005D016F01C20ED31ED6011196EC90EF105F
:101A000008C0201731073CF42F5F3F4FEDCF92E025
:101A1000E0CF552321F020812817C1F051E041503B
:101A200038964111DECF892FC85BDF4F0FB6F8948F
:101A3000DEBF0FBECDBFDF91CF911F910F91FF9001
:101A4000EF90DF90CF90BF90AF90089593E0EBCFF1
:101A50002F923F924F925F926F927F928F929F92BE
:101A6000AF92BF92CF92DF92EF92FF920F931F93AC
:101A7000CF93DF93CDB7DEB7A4970FB6F894DEBF50
:101A80000FBECDBF382E6CA3272ECE0109960E9423
:101A9000D33889859A8599A388A31F8EB12CA12C50
:101AA00085E1E82EF12C832C912CF4013197FBA3D6
:101AB000EAA388A199A1A816B906C1F16E0196E121
:101AC000C90ED11C4CA0522C10E000E008151905DD
:101AD00049F1B601C701800F911FBFDDF20181916D
:101AE0002F01F6019081FFEFCF1ADF0A98131AC079
:101AF0008AA19BA10817190794F0BE016B5E7F4F66
:101B0000C7010197AADD8D89831551F191E09F8F5F
:101B1000FAE0EF0EF11C2FEFA21AB20ACACF0F5F44
:101B20001F4FD4CFEF8DEE2399F3E7CF80E0A4963B
:101B30000FB6F894DEBF0FBECDBFDF91CF911F91DE
:101B40000F91FF90EF90DF90CF90BF90AF909F905C
:101B50008F907F906F905F904F903F902F9008955F
:101B600081E0E5CF8FB7F894809181118FBF089500
:101B700061E0FC0184810E94E03F8091801181112D
:101B80001092801108958EBD00000DB407FEFDCFA8
:101B90008EB508958FEFF7CF8CBD9DBD0895CF937F
:101BA000DF93EC0180918011811108C081E0809366
:101BB00080118091531390915413EEDF60E08C817B
:101BC000DF91CF910C94E03F8F929F92AF92BF92A2
:101BD000FF920F931F93CF93DF93EC01F62E4901F1
:101BE0005A018E81882379F08F8198859C012F5F1F
:101BF0003F4F38872F838230924010F4CBDFF4CFF1
:101C0000CE01B6DF1E82CE01CADF8CE291E00E94D7
:101C1000C1428F2D8064B7DF08E110E0D501C40117
:101C2000002E04C0B695A795979587950A94D2F78C
:101C3000AADF08501109083F8FEF180779F785E9E7
:101C4000FF2021F028E087E8F2128FEF9CDF10E000
:101C5000A1DF8A8787FF04C01F3F11F01F5FF8CF05
:101C6000DF91CF911F910F91FF90BF90AF909F9008
:101C70008F900895AF92BF92CF92DF92EF92FF9232
:101C80000F931F93CF93DF93EC016901C801820F7B
:101C9000931F8130924048F58E81882379F08881A6
:101CA0009981AA81BB8184179507A607B70731F4EC
:101CB0008F819885C816D90608F03EC0488359839D
:101CC0006A837B838B85833039F089E0440F551F0D
:101CD000661F771F8A95D1F79A01AB0161E1CE01AA
:101CE00073DF882381F083E08D83CE0141DF80E0C4
:101CF000DF91CF911F910F91FF90EF90DF90CF90E8
:101D0000BF90AF9008950E94B5425B0143DF8A8780
:101D10008F3F61F40E94B5426A197B096D327140B0
:101D2000A8F38FE08D83CE0123DFDFCF8E3F81F4D8
:101D300018861F8281E08E838F8198858C159D0582
:101D400048F428DF8F819885019698878F83F4CF98
:101D50008DE0E8CF6701E00EF11E1CDFF6018193F4
:101D60006F01EE15FF05C9F78F819885080F191FC0
:101D700018870F838985882319F00115124090F088
:101D80008E81882379F08F8198859C012F5F3F4F4A
:101D900038872F838230924010F4FCDEF4CFCE01DE
:101DA000E7DE1E8281E0A4CFCF92DF92EF92FF9216
:101DB0000F93CF93DF93EC01690182E14115510547
:101DC0006105710591F08B85833039F089E0440F0E
:101DD000551F661F771F8A95D1F79A01AB0168E1FD
:101DE000CE01F2DE882319F084E08D8326C08EEFC9
:101DF000CADE76018EEFD81AF70181917F01C3DE2A
:101E0000EC14FD04C9F78FEFBEDE8FEFBCDEC2DE3F
:101E10008A878F71853069F4011113C0CE01A8DE65
:101E200081E0DF91CF910F91FF90EF90DF90CF9005
:101E3000089581E18D83CE019BDECE0199DE80E0A5
:101E4000F0CF88E592E00E94C142811102C085E195
:101E5000CCCF20E030E0A9016DE0CE01B5DE8823D3
:101E600011F084E1C2CF96DE8111FBCFD7CFFC0108
:101E7000DB0112968D919C911397938382838DEA57
:101E800092E09183808314968C91149784831596A5
:101E90008C911597858316964D915D916D917C91EE
:101EA000199746835783608771871A964D915D9184
:101EB0006D917C911D9742875387648775871E9625
:101EC0004D915D916D917C91519746875787608BBD
:101ED000718B52968C915297828B53964D915D9156
:101EE0006D917C915697438B548B658B768B57966F
:101EF0004D915D916D917C915A97478B508F618F79
:101F0000728F5B968D919C91948F838F0895EF9241
:101F1000FF920F931F93CF93DF93EC017B018A0114
:101F20001B821A8288EE93E0A0E0B0E08C839D8350
:101F3000AE83BF8383EE92E0998388838DE190E046
:101F40000E9422619A8F898F009779F02DE1F70125
:101F5000DC0101900D922A95E1F74CE050E0B801C8
:101F6000CE010C960E94BC65188EDF91CF911F9117
:101F70000F91FF90EF900895CF93DF931F92CDB70D
:101F8000DEB741E050E0BE016F5F7F4F0E94474DDA
:101F9000019731F4898190E00F90DF91CF910895FE
:101FA0008FEF9FEFF9CFFC01818D928D009709F0A3
:101FB000E3CF8FEF9FEF08950F931F93CF93DF939E
:101FC000EC01898D9A8D10E000E0009791F0D4DF4C
:101FD0008C010F3F100769F0898D9A8DFC014285B5
:101FE00053856485758541505109610971090E94C5
:101FF000BA49C801DF91CF911F910F9108951F92A7
:102000000F920FB60F9211240BB60F922F933F939E
:102010004F935F936F937F938F939F93AF93BF93F0
:10202000EF93FF93E0918611F09187111995FF913D
:10203000EF91BF91AF919F918F917F916F915F9140
:102040004F913F912F910F900BBE0F900FBE0F90AD
:102050001F9018951F920F920FB60F9211240BB676
:102060000F922F933F934F935F936F937F938F9331
:102070009F93AF93BF93EF93FF93E0919611F091ED
:1020800097111995FF91EF91BF91AF919F918F910A
:102090007F916F915F914F913F912F910F900BBE68
:1020A0000F900FBE0F901F9018951092F11181E0C4
:1020B0008093F0111092EB1161E084E10E94E03F07
:1020C00061E085E10E94E03FE9EBF0E080818E7FF6
:1020D000808380818D7F808388E48093B80085E44D
:1020E0008093BC000895CF93DF9391E090933C11CF
:1020F0008823B1F0C091B800D091BA008091BC00A3
:102100008A7B8093BC0060E084E10E94E03F60E055
:1021100085E10E94E03FC9DFD093BA00C093B800C8
:10212000DF91CF91089585ED8093BC008091F311EC
:102130009091F411A091F511B091F6110796A11D9F
:10214000B11D23E0B695A795979587952A95D1F768
:102150002091BC0024FD03C01092F111089540911C
:10216000F3115091F4116091F5117091F611452B16
:10217000462B472B69F30097A105B10541F025E3F4
:102180002A95F1F700000197A109B109E1CF8091EB
:10219000F211A9CF1F920F920FB60F9211240BB616
:1021A0000F922F933F934F935F936F937F938F93F0
:1021B0009F93AF93BF93EF93FF938091B900887F74
:1021C000803609F44CC008F03FC0883209F4A8C03A
:1021D00028F5803109F49CC0C8F4882309F4FAC0BA
:1021E000883009F495C0FF91EF91BF91AF919F9115
:1021F0008F917F916F915F914F913F912F910F90B0
:102200000BBE0F900FBE0F901F901895883109F4E8
:1022100087C0803241F78093EF1114C0803409F4F5
:102220009CC040F48033B9F38833E9F68093EF1112
:1022300085ECAFC0803509F484C0883509F495C0B9
:10224000883489F670DFCFCF883909F48CC038F52F
:10225000883729F050F4883611F0803721F683E072
:102260008093F11110927F1157C0883809F47BC018
:10227000803919F0803809F0B6CF80917F11803213
:1022800008F071C0E0917F1181E08E0F80937F1183
:102290008091BB00F0E0E15AFE4E80833DC0803B60
:1022A00039F0E0F4803A09F479C0883A09F09BCF1C
:1022B00084E08093F11110925E1110925D11E09113
:1022C000A511F091A611199580915D1181110FC092
:1022D00081E080935D1110923D1109C0803C09F4AA
:1022E000A7CF883C09F4A4CF883B09F07CCFE091CC
:1022F0005E1181E08E0F80935E11F0E0E35CFE4E94
:1023000080818093BB0090915E1180915D1129C006
:102310008091EC118093BB0085EC8093BC0063CF6F
:102320009091EE118091ED11981758F5E091EE1112
:1023300081E08E0F8093EE11F0E0E553FE4E808138
:10234000E9CFE091EE1181E08E0F8093EE11809144
:10235000BB00F0E0E553FE4E80839091EE1180913A
:10236000ED119817C8F285E8D8CFE091EE1181E021
:102370008E0F8093EE118091BB00F0E0E553FE4E8E
:1023800080838091F01181115DCF81E08093EB110A
:1023900084EA8093BC001092F11125CF85EC8093E4
:1023A000BC001092F11180917F11803230F4E091E5
:1023B0007F11F0E0E15AFE4E108260917F1170E0D3
:1023C000E091A311F091A4118FE591E1199510927C
:1023D0007F1109CF1092EF1135CFCF92DF92EF929C
:1023E000FF920F931F93CF93DF93C62F6A010EEBDB
:1023F0001FE0823411F008EC1FE0C43011F0C73048
:1024000021F578018FEFE81AF80A6C2FC8010FD96F
:1024100010E000E0D0E0C8018E0D9F1D60E00C17B9
:102420001D0724F4F601E00FF11F608100D90F5F52
:102430001F4F0730110579F7DF91CF911F910F9151
:10244000FF90EF90DF90CF900895C111F5CFD0E0CD
:10245000C0E060E0CE01800F911FE9D82196C8301E
:10246000D105B9F7E9CFFF920F931F93CF93DF9375
:10247000EC01F62E08811981C8010E94F563F81657
:1024800021F06F2DC8010E94FD63CE01DF91CF9135
:102490001F910F91FF900895EF92FF920F931F935A
:1024A000CF93DF931F921F92CDB7DEB78C017B01D4
:1024B0009A838983FB016081CE010196D4DF0F5F8F
:1024C0001F4F1A830983F7016181CE010196CBDF8B
:1024D000C7010F900F90DF91CF911F910F91FF9047
:1024E000EF900895AF92BF92CF92DF92EF92FF925A
:1024F0000F931F93CF93DF931F921F92CDB7DEB739
:102500008B016B012AE0C20ED11C7B015C01A61A73
:10251000B70AC5018E0D9F1D9A838983F7016191CA
:102520007F01CE0101969FDFEC14FD0491F7C801F5
:102530000F900F90DF91CF911F910F91FF90EF902F
:10254000DF90CF90BF90AF900895CF93DF93CDB73A
:10255000DEB7E2970FB6F894DEBF0FBECDBF89A7F6
:10256000262FDE019A96FB019E2F921B981718F4D6
:1025700091919D93F9CF81E489ABCE0101960E94A0
:10258000EF3884E1FE013196DE01559601900D92FF
:102590008A95E1F78F89988D4F8D58A16AE0649FE5
:1025A0009001659F300D1124BE01675D7F4F820F42
:1025B000931F98DF8F8D98A1019698A38F8FBE01EE
:1025C000615E7F4F8AE090E067DFE2960FB6F89495
:1025D000DEBF0FBECDBFDF91CF910895CF93DF93C4
:1025E000CDB7DEB7E2970FB6F894DEBF0FBECDBF12
:1025F00089A7262FDE019A96FB019E2F921B981722
:1026000018F491919D93F9CF85E589ABCE01099698
:102610000E94D33884E1FE013196DE015596019087
:102620000D928A95E1F72D8D3E8D4AE0429FC001C3
:10263000439F900D1124BE01675D7F4F449652DF8A
:102640008D8D9E8D01969E8F8D8FBE01635E7F4F17
:1026500088E090E021DFE2960FB6F894DEBF0FBE6F
:10266000CDBFDF91CF9108950F931F93CF93DF9349
:10267000082F10E006561E4EF801D081DD2351F1DF
:10268000C82F0E940E406093530E7093540E809397
:10269000550E9093560EC093520EF8011082C15001
:1026A000C73080F4EC2FF0E061E08827E55AFC4E5B
:1026B0008F4F0C948864701376137C1382138813E5
:1026C0008E13941361E082E00E94E03F61E083E0BA
:1026D0000E94E03F8D2FDF91CF911F910F910895C0
:1026E00082E00E94E03F61E084E0F2CF82E00E945D
:1026F000E03F61E085E0ECCF82E00E94E03F61E0F6
:1027000086E0E6CF82E00E94E03F61E087E0E0CF34
:1027100082E00E94E03F61E088E0DACF82E00E9440
:10272000E03F61E089E0D4CF82E00E94E03F61E0D9
:102730008AE0CECF0F931F93E091520EE83098F4C9
:10274000F0E060E08827E855FC4E8F4F0C948864D9
:10275000B013E613E813EA13EC13EE13F013F213BD
:1027600083E00E94E03F8091520E883030F50E9455
:102770000E408B014091530E5091540E6091550EB6
:102780007091560EE091520EDC01C801841B950B2E
:10279000A60BB70B24E0E29FF0011124EE5CF14F91
:1027A0004081518162817381481759076A077B070D
:1027B00020F480839183A283B3838FEF8093520EA2
:1027C00060E082E01F910F910C94E03F84E0C9CF5C
:1027D00085E0C7CF86E0C5CF87E0C3CF88E0C1CF13
:1027E00089E0BFCF8AE0BDCF9F92AF92BF92CF92D8
:1027F000DF92EF92FF920F931F93CF93DF93CDB7AA
:10280000DEB7AA970FB6F894DEBF0FBECDBF7C012E
:102810008B0180918B11813009F098C023E130E069
:1028200041E150E0CE014F960E948A3DCE014F9685
:102830000E94F639D62E20E130E04EE050E0B8019B
:10284000CE0149960E948A3DCE0149960E94F639F2
:10285000C62E2DE030E04BE050E0B801CE014396AB
:102860000E948A3DCE0143960E94F639B62E22E0A0
:1028700030E050E040E0B801CE010D960E948A3D64
:10288000CE010D960E94F639A62E25E030E043E0F9
:1028900050E0B801CE0107960E948A3DCE0107960E
:1028A0000E94F639962E2AE030E046E050E0B8016A
:1028B000CE0101960E948A3DCE0101960E94F63912
:1028C0009B01603D774010F0205D37402DA39EA214
:1028D000AFA2B8A6C9A6DAA6CE0185960E948A4400
:1028E000CE0101960E94FA3CCE0107960E94FA3C66
:1028F000CE010D960E94FA3CCE0143960E94FA3C0E
:10290000CE0149960E94FA3CCE014F960E94FA3CB5
:10291000F701118210821382128215821482B8018B
:10292000C7010E94053CC701AA960FB6F894DEBF06
:102930000FBECDBFDF91CF911F910F91FF90EF9010
:10294000DF90CF90BF90AF909F900895823001F7B5
:1029500023E130E041E150E0CE014F960E948A3DF4
:10296000CE014F960E94F639D62E20E130E04EE09F
:1029700050E0B801CE0149960E948A3DCE014996A9
:102980000E94F639C62E2DE030E04BE050E0B80151
:10299000CE0143960E948A3DCE0143960E94F639AD
:1029A000B62E22E030E050E040E0B801CE010D96B6
:1029B0000E948A3DCE010D960E94F639A62E25E092
:1029C00030E043E050E0B801CE0107960E948A3D16
:1029D000CE0107960E94F639962E2AE030E046E0B6
:1029E00050E0B801CE0101960E948A3DCE010196C9
:1029F0000E94F6399B01603D774010F0205D374022
:102A00002DA39EA2AFA2B8A6C9A6DAA6CE0185962E
:102A10000E940D4265CF8F929F92AF92BF92CF924C
:102A2000DF92EF92FF920F931F93CF93DF9300D02B
:102A300000D0CDB7DEB77C01A62E6A016BEB7BE040
:102A40000E94763D8601D12CC12CB12CCA14DB0426
:102A50004CF5C114D10429F063E877E0C7010E9466
:102A6000F63B4801F8018081803128F460E973E089
:102A7000C7010E94F63B0F5F1F4F40E1F4016081E8
:102A8000CE0101960E942D3DBE016F5F7F4FC701B1
:102A90000E94FF3BCE0101960E94FA3CFFEFCF1A45
:102AA000DF0AD4CFC70126960FB6F894DEBF0FBE5B
:102AB000CDBFDF91CF911F910F91FF90EF90DF90ED
:102AC000CF90BF90AF909F908F9008951F93CF931A
:102AD000DF93EC01162F61EF72E00E94763D173014
:102AE000A0F4E12FF0E08827E758FA4E8F4F0C94BE
:102AF000886480158A158D1590159315961599156E
:102B00006BEF72E0CE010E94B13CCE01DF91CF911C
:102B10001F91089567E073E0F5CF63E173E0F2CFB2
:102B200069E273E0EFCF65E373E0ECCF6BE373E052
:102B3000E9CF6FE473E0E6CF0F931F93CF93DF935A
:102B400000D000D0CDB7DEB711E089E192E10E945C
:102B5000FA36892B09F44BC089E192E10E94D836FC
:102B600080937A0E9091590E2091570E3091580E05
:102B7000992339F12F5F3F4F3093580E2093570E12
:102B8000809102029091030280359105A9F466E6D6
:102B900073E0CE0101960E94763DBE016F5F7F4FCC
:102BA00088E994E10E94663B082FCE0101960E94BD
:102BB000FA3C01111093590E1092840E1092830E5C
:102BC000C4CF2F3F310509F034F42F5F3F4F3093CE
:102BD000580E2093570E89831A8241E050E0BE01BF
:102BE0006F5F7F4F88E994E10E94CB3BC9CF269667
:102BF0000FB6F894DEBF0FBECDBFDF91CF911F910E
:102C00000F91089599CFAF92BF92CF92DF92EF923A
:102C1000FF920F931F93CF93DF931F921F92CDB715
:102C2000DEB78C016B015A017A0181E0E81AF108E4
:102C300065E773E0C6010E94863B8823D9F0BE0198
:102C40006F5F7F4FC5018F52904F0E942D0B4AE05E
:102C50006981C8010E942D3DC8010F900F90DF913E
:102C6000CF911F910F91FF90EF90DF90CF90BF9089
:102C7000AF90089569E773E0C6010E94863B882300
:102C800049F0BE016F5F7F4FC5018F52904F0E9488
:102C90002D0BDDCF6DE773E0C6010E94863B8823D4
:102CA00081F0C701880F991FBE016F5F7F4F8E5261
:102CB000904F0E94190B69817A81C8010E94BA3C29
:102CC000CBCF61E873E0C6010E94863B882389F080
:102CD000C701880F991FBE016F5F7F4F8E52904FC3
:102CE0000E94190B69817A814AE0C8010E94023D65
:102CF000B3CF65E873E0C8010E94763DADCFEF9297
:102D0000FF920F931F93CF93DF9300D000D0CDB7E6
:102D1000DEB78C016BEB7BE00E94763D86EFE82E00
:102D20008FE0F82EC7010E94F5638F3FD1F460E970
:102D300073E0C8010E94F63B8FEFE81AF80AE1142D
:102D400080E1F80679F7C80126960FB6F894DEBF41
:102D50000FBECDBFDF91CF911F910F91FF90EF90EC
:102D60000895682FCE0101960E94563DBE016F5F07
:102D70007F4FC8010E94FF3BCE0101960E94FA3CA2
:102D8000DBCFDF92EF92FF920F931F93CF93DF93EE
:102D9000CDB7DEB7E6970FB6F894DEBF0FBECDBF56
:102DA0007C01D62E8A016BEB7BE00E94763DCE0142
:102DB00001960E94EF381016110644F421E4D21651
:102DC00009F46BC032E4D31609F4B5C06D817E817D
:102DD000CE01C1960E94BA3C69817A81CE018B9660
:102DE0000E94BA3C6F817885CE0185960E94BA3CDC
:102DF0006B817C81CE014F960E94BA3C62E973E000
:102E0000CE0145960E94763DBE01615E7F4FCE01A8
:102E100045960E94813C6BE973E00E946D3CBE01C7
:102E20006B5D7F4F0E94813C63E877E00E946D3CC0
:102E3000BE01655D7F4F0E94813C6BE973E00E949B
:102E40006D3CBE016F5C7F4F0E94813CBC01C7019D
:102E50000E94FF3BCE0145960E94FA3CCE014F9660
:102E60000E94FA3CCE0185960E94FA3CCE018B96D8
:102E70000E94FA3CCE01C1960E94FA3CC701E69638
:102E80000FB6F894DEBF0FBECDBFDF91CF911F917B
:102E90000F91FF90EF90DF9008958F8198858017B4
:102EA000910708F493CF8B819C81009709F48ECF12
:102EB000015011094AE0409F9001419F300D1124BB
:102EC000BE016B5E7F4F820F931F0E94370B10E095
:102ED000812F012E000C990B2D892817190671F2EC
:102EE0006CF2E6E1F0E0EC0FFD1F8E0F9F1FFC017E
:102EF000608140E1CE018596603130F50E942D3D24
:102F00006FE873E0CE014F960E94763DBE016B5D87
:102F10007F4FCE014F960E94813CBC01C7010E94A9
:102F2000FF3BCE014F960E94FA3CCE0185960E944F
:102F3000FA3C1F5FCDCF8D819E818017910708F4E9
:102F400045CF89819A81B1CF0E942D3D63E877E01A
:102F5000D9CFDF92EF92FF920F931F93CF93DF931E
:102F6000CDB7DEB7E3970FB6F894DEBF0FBECDBF87
:102F70007C01CE014C960E9475396BEB7BE0CE0153
:102F800088960E94763D80918B118E010F5F1F4FB6
:102F9000813009F000C1C8010E94FF4386E0F801BA
:102FA000DE015C9601900D928A95E1F789A11F924E
:102FB0008F9388A11F928F938F8D1F928F938E8DE9
:102FC0001F928F938D8D1F928F938C8D90E08053E5
:102FD000984F9F938F9389EF93E09F938F931F93C5
:102FE0000F930E94E565B801CE0188960E94B13C1E
:102FF00063E877E0C8010E94763DB801CE0188966B
:103000000E94633B9C0150E040E0BE01685D7F4F41
:10301000CE014C960E948A3DBE01645E7F4FCE0178
:1030200082960E946E3D65E174E0CE0182960E9418
:103030006D3CBC01CE018E960E946E3DCE01829603
:103040000E94FA3CCE014C960E94FA3CC8010E94B4
:10305000FA3C8DE794E10E9444010FB6F894DEBF7C
:103060000FBECDBF882389F069E874E1C8010E94D2
:10307000763DBE01625D7F4FC8010E949B3BD82E0A
:10308000C8010E94FA3CD11015C08DE794E10E945E
:103090004401882321F08DE794E10E9404066EA587
:1030A0007FA547E1C8010E94F94FB8018DE794E17F
:1030B0000E94F90263E877E0C8010E94763DB801FA
:1030C000CE0188960E94633B2CA53DA5AC014F5FC5
:1030D0005F4FBE01685D7F4FCE014C960E948A3DD6
:1030E000BE01645E7F4FCE0182960E946E3D63E812
:1030F00077E0CE0182960E946D3CB7010E94813C30
:10310000BC018DE794E10E944F3ECE0182960E9461
:10311000FA3CCE014C960E94FA3CC8010E94FA3C4F
:103120008DE794E10E941606BE01685D7F4FC801DD
:103130000E946E3D69E0C8010E94503CB7010E94A8
:10314000813C62E773E00E946D3CBC01CE014C966D
:103150000E946E3DCE014C960E945D0BCE014C96B6
:103160000E94FA3CC8010E94FA3CCE018E960E9451
:10317000FA3CCE0188960E94FA3CE3960FB6F8948A
:10318000DEBF0FBECDBFDF91CF911F910F91FF909A
:10319000EF90DF900895823009F008CFC8010E94B7
:1031A0007443FCCE0F931F93CF93DF93CDB7DEB75D
:1031B00067970FB6F894DEBF0FBECDBF80912C117C
:1031C000882309F472C0815080932C1180910802E9
:1031D000882309F4A0C281508093080210910C0248
:1031E000133069F0153009F4E4C4123041F01130A5
:1031F00031F0812F8D7F11E0843009F010E0809153
:103200000D11811709F446C010930D11612F84EB45
:103210009FE00E94FD63612FCE010C9657DC6CEF9E
:1032200076E0CE0101960E94763DBE01645F7F4F3D
:10323000CE0101960E94813CBC01CE0142960E94C3
:103240006E3DCE01429685DECE0142960E94FA3C4A
:10325000CE0101960E94FA3CCE010C960E94FA3CE7
:1032600080910C028330B1F480910702882391F0A1
:1032700050E040E060E081E4B0D86DE077E0CE015E
:1032800001960E94763DCE01019663DECE01019645
:103290000E94FA3C67960FB6F894DEBF0FBECDBF12
:1032A000DF91CF911F910F91089581E080932C11B0
:1032B00080910A0290910B02009729F00197909358
:1032C0000B0280930A02E5E2F1E187E0DF011D9243
:1032D0008A95E9F71092241144E251E1BF0182EA94
:1032E0000E941C088823B9F105E211E12091241104
:1032F000C801855291412817190679F074F0F80138
:1033000061918F0170E090E080E040E10E94E23D39
:1033100083E897E00E94383EE9CF62E773E086EBEE
:1033200092E10E94D33D65E271E1809124110E94F7
:10333000AA0B882309F4A2C080910A0290910B0283
:10334000892B19F482E08093060285E090E0909347
:103350000B0280930A0280910A0290910B02892B42
:1033600041F486E20E94B73F892B19F081E08093F7
:10337000A2111AE088E10E94B73F892B09F0B5C17C
:103380001150C1F710921C114CE151E16DE171E156
:1033900080EA0E941C0820911A1130911B11882389
:1033A00009F4A3C1232B31F082E090E090931B112C
:1033B00080931A1180910902882309F407CF109293
:1033C000090282E08093060214E010931202109327
:1033D00013020091191180911C116DE171E101112D
:1033E00024C190911811911120C10E94280D8823A9
:1033F00009F44CC085E0809312028093130210936D
:10340000140281E08093A2114DE151E160911C1101
:1034100082E40E94ED114DE151E160911C11CE0159
:103420000C96F9DA6AE174E0CE0101960E94763DCD
:10343000BE01645F7F4FCE0101960E94813C64E42F
:1034400074E00E946D3CBC01CE0142960E946E3D2C
:10345000CE0142967EDDCE0142960E94FA3CCE011C
:1034600001960E94FA3CCE010C960E94FA3C82E042
:1034700090E090931B1180931A11A8CE83E0809363
:10348000060210920B0210920A0265CF6DE171E103
:1034900080911C110E94320C813009F443C008F461
:1034A0008CC0823009F474C0833009F08FCE4DE1B6
:1034B00051E160911C11CE010C96ADDA65E974E022
:1034C000CE0101960E94763DBE01645F7F4FCE0122
:1034D00001960E94813C64E474E00E946D3CBC0152
:1034E000CE0142960E946E3DCE01429632DDCE0163
:1034F00042960E94FA3CCE0101960E94FA3CCE010F
:103500000C960E94FA3C61E080E20E94E03F0E943B
:10351000205289E0809306028CE08093120280930F
:10352000130254CE1093060297E0909312029093E8
:103530001302809319114DE151E160911C11CE01EC
:103540000C9669DA66E474E0CE0101960E94763D3D
:10355000BE01645F7F4FCE0101960E94813C64E40E
:1035600074E00E946D3CBC01CE0142960E946E3D0B
:10357000CE014296EEDCCE0142960E94FA3CCE018C
:1035800001960E94FA3CCE010C960E94FA3C1ECE97
:1035900086E08093060289E08093120280931302F2
:1035A00081E0809318114DE151E160911C11CE0131
:1035B0000C9631DA6EE674E0C7CF83E080930602A2
:1035C00086E080931202809313024DE151E16091F5
:1035D0001C11CE010C961FDA69EC74E0CE01019645
:1035E0000E94763DBE01645F7F4FCE0101960E942E
:1035F000813C64E474E00E946D3CBC01CE014296C3
:103600000E946E3DCE014296A4DCCE0142960E94FD
:10361000FA3CCE0101960E94FA3CCE010C960E9423
:10362000FA3C81E080931602D1CD0E94320C8130A9
:10363000B9F4002309F4CACD85E08093060288E03E
:103640008093120280931302109219114DE151E1FF
:1036500060911C11CE010C96DED968EE74E074CF37
:103660008230C9F480911811882309F4AFCD87E026
:10367000809306028AE080931202809313021092D4
:1036800018114DE151E160911C11CE010C96C3D986
:103690006AE175E059CF833009F498CD002381F0B9
:1036A0006DE171E180911C110E94EE124DE151E13A
:1036B00060911C11CE010C96AED96BE475E044CF3D
:1036C00080911811882309F481CD6DE171E1809119
:1036D0001C110E94A5124DE151E160911C11CE0117
:1036E0000C9699D96FE675E02FCF80911A119091C1
:1036F0001B11009729F0019790931B1180931A11C9
:1037000080911A1190911B11892B09F05FCD81E0F6
:10371000809309025BCD81E0809308028AEA93E1FD
:103720000E94FA36892B29F08AEA93E10E94D83662
:10373000F5CF6AEB8AEA93E10E944C3762E08AEAAD
:1037400093E10E944C3761E08AEA93E10E944C3792
:1037500069EB8AEA93E10E944C378AEA93E10E947E
:10376000983782E390E0A0E0B0E08093AE139093AE
:10377000AF13A093B013B093B11310921111109224
:10378000121110921311109214111092151110921F
:1037900016111092171161E070E0CE0142960E945E
:1037A000DA420197A1F01092101180910E119091C0
:1037B0000F11009709F0F7C180910E1190910F1130
:1037C000892B09F00BCD81E08093070207CD8A8910
:1037D0008D3B49F761E070E0CE010C960E94DA4221
:1037E000019709F76C85683011F06B30E1F670E0F5
:1037F000CE0101960E94DA422C852817190699F607
:10380000283009F081C08B81809311118C818093C5
:1038100012118D81809313118E8180931411109257
:103820001511109216111092171184E08093101147
:1038300020910E1130910F11232B31F022E030E056
:1038400030930F1120930E1190910702992309F4E0
:10385000C5CC1092070292E09093060204E0009318
:103860001202009313021091191161E171E111111B
:1038700036C190911811911132C10E94AA0B882370
:1038800009F45CC085E0809312028093130281E00A
:103890008093140241E151E16091101181E40E9492
:1038A000ED1141E151E160911011CE010C96B3D8B8
:1038B00062E975E0CE0101960E94763DBE01645F2B
:1038C0007F4FCE0101960E94813C64E474E00E9427
:1038D0006D3CBC01CE0142960E946E3DCE014296E7
:1038E00038DBCE0142960E94FA3CCE0101960E943E
:1038F000FA3CCE010C960E94FA3C82E090E0909354
:103900000F1180930E116ACC2B3009F04CCF8B81B4
:10391000809311118C81809312118D8180931311EA
:103920008E81809314118F818093151188858093E7
:10393000161189858093171187E078CF61E171E1D5
:10394000809110110E94320C813009F443C008F4B8
:103950008DC0823009F474C0833009F03FCC41E15E
:1039600051E160911011CE010C9655D865E076E0DA
:10397000CE0101960E94763DBE01645F7F4FCE016D
:1039800001960E94813C64E474E00E946D3CBC019D
:10399000CE0142960E946E3DCE014296DADACE0109
:1039A00042960E94FA3CCE0101960E94FA3CCE015A
:1039B0000C960E94FA3C61E080E20E94E03F0E9487
:1039C000205289E0809306028CE08093120280935B
:1039D000130204CC0093060297E090931202909396
:1039E00013028093191141E151E160911011CE0150
:1039F0000C9611D868EB75E0CE0101960E94763DD9
:103A0000BE01645F7F4FCE0101960E94813C64E459
:103A100074E00E946D3CBC01CE0142960E946E3D56
:103A2000CE01429696DACE0142960E94FA3CCE0131
:103A300001960E94FA3CCE010C960E94FA3CCECB35
:103A400086E08093060289E080931202809313023D
:103A500081E08093181141E151E160911011CE0194
:103A60000C960E940B156FED75E0C6CF83E0809336
:103A7000060286E0809312028093130241E151E135
:103A800060911011CE010C960E940B1568E376E050
:103A9000CE0101960E94763DBE01645F7F4FCE014C
:103AA00001960E94813C64E474E00E946D3CBC017C
:103AB000CE0142960E946E3DCE0142964ADACE0178
:103AC00042960E94FA3CCE0101960E94FA3CCE0139
:103AD0000C960E94FA3C81E0809315027FCB0E94F5
:103AE000320C8130C1F4112309F478CB85E0809346
:103AF000060288E08093120280931302109219113B
:103B000041E151E160911011CE010C960E940B151C
:103B100066E576E071CF8230D1F480911811882368
:103B200009F45CCB87E0809306028AE0809312025E
:103B3000809313021092181141E151E1609110112C
:103B4000CE010C960E940B1567E876E055CF8330C6
:103B500009F444CB112389F061E171E180911011E6
:103B60000E94EE1241E151E160911011CE010C96DC
:103B70000E940B1567EB76E03FCF809118118823E8
:103B800009F42CCB61E171E1809110110E94A51222
:103B900041E151E160911011CE010C960E940B158C
:103BA0006AED76E029CF019790930F1180930E1163
:103BB00003CE14E024CBCF93DF9300D000D0CDB759
:103BC000DEB7BC01CE0101960E946E3D6BEF7AE03C
:103BD000CE0101960E946D3CBC018EE994E10E94E9
:103BE000E53CCE0101960E94FA3C81E08093940E60
:103BF00026960FB6F894DEBF0FBECDBFDF91CF91F2
:103C00000895AF92BF92CF92DF92EF92FF920F93FF
:103C10001F93CF93DF93CDB7DEB76D970FB6F894B0
:103C2000DEBF0FBECDBF5C016B016BEB7BE0CE0155
:103C300048960E94763D06EF1FE0C8010E94F5639A
:103C4000682FCE0101960E94563DBE016F5F7F4FE7
:103C5000CE0148960E94FF3BCE0101960E94FA3C9D
:103C60000F5F1F4F011580E1180739F74BE050E057
:103C7000BE016F5F7F4FC6010E9435398E010F5F15
:103C80001F4F86EFE82E8FE0F82EF80161918F012B
:103C9000C7010E94170BFFEFEF1AFF0AE11480E142
:103CA000F80699F768E577E0CE010C960E94763D1C
:103CB000B601CE010C960E94813C69EF76E00E942D
:103CC0006D3CBE01685E7F4F0E94813C64E474E0FD
:103CD0000E946D3CBC01CE0142960E946E3DCE0119
:103CE000429637D9CE0142960E94FA3CCE010C96FC
:103CF0000E94FA3CB601CE010C960E946E3D63E82C
:103D000077E0CE010C960E946D3CBE01685E7F4F4D
:103D10000E94813CBC01C5010E946E3DCE010C9603
:103D20000E94FA3CCE0148960E94FA3CC5016D966D
:103D30000FB6F894DEBF0FBECDBFDF91CF911F91BC
:103D40000F91FF90EF90DF90CF90BF90AF900895CC
:103D50008F929F92AF92BF92CF92DF92EF92FF929B
:103D60000F931F93CF93DF93CDB7DEB7E2970FB6D4
:103D7000F894DEBF0FBECDBF6C01F62E8A016DE94F
:103D800073E0CE018B960E94763D1AAA19AACE0145
:103D900001960E94EF3881E4F81639F082E4F816B3
:103DA00009F45CC0F12CE12C33C0EB80FC808B85E6
:103DB0009C859AAB89AB10161106ECF06AE677E0A9
:103DC000C6010E94763DCE018B960E94FA3CC60148
:103DD000E2960FB6F894DEBF0FBECDBFDF91CF9154
:103DE0001F910F91FF90EF90DF90CF90BF90AF9019
:103DF0009F908F9008958017910700F301979AABD9
:103E000089ABBE016F5C7F4F8AE090E00E944C124C
:103E1000580181E0A81AB1082AE02A9DC0012B9D13
:103E2000900D1124E80EF91E89A99AA9A816B906C1
:103E300060F547018AE0880E911CBE016B5E7F4FE2
:103E4000C4010E94370BBE016B5E7F4FC7010E9409
:103E500072128FEFA81AB80A7401E6CFE980FA80CF
:103E600089859A859AAB89AB101611060CF0A6CFFE
:103E70008017910708F4A2CF01979AAB89ABBE01D6
:103E80006F5C7F4F88E090E0C1CF4AE0B801CE017F
:103E900085960E94023DBE01655D7F4FCE014F9623
:103EA0000E946E3DBE016B5D7F4FCE014F960E941A
:103EB000813CBC01C6010E946E3DCE014F960E941E
:103EC000FA3CCE0185960E94FA3C7DCF7F928F927C
:103ED0009F92AF92BF92CF92DF92EF92FF920F9399
:103EE0001F93CF93DF93CDB7DEB7E0970FB6F8946B
:103EF000DEBF0FBECDBF7C01762E6A0162E877E09F
:103F0000CE018B960E94763DCE0101960E94EF383D
:103F100087E08D8BF60184819581449710F484E0CD
:103F20008D8B5E01F5E1AF0EB11C450110E000E0A4
:103F300094012A193B098D899FEF891A990A8217E2
:103F40001306D9F0D4F098012E5F3F4FA801B601B7
:103F5000CE014F960E948A3D40E150E070E060E063
:103F60008F8D98A10E944762F4016083CE014F9625
:103F70000E94FA3C0D5F1F4FDBCFF1E47F1649F042
:103F800092E4791609F475C010E000E0912C812CC0
:103F90003CC00B851C852F81388502171307F0F074
:103FA00065E877E0C7010E94763DCE018B960E94BE
:103FB000FA3CC701E0960FB6F894DEBF0FBECDBF46
:103FC000DF91CF911F910F91FF90EF90DF90CF90F5
:103FD000BF90AF909F908F907F9008958B809C8032
:103FE000BE016A5E7F4F0E94AA0B882319F06BE91D
:103FF00077E0D8CFC801019698A38F8FBE01615E8C
:104000007F4F8AE090E00E944C122AE0209FC0017E
:10401000219F900D1124B501880D991D0E947212E7
:10402000B8016F5F7F4FCE0185960E94BA3CBE01FA
:10403000655D7F4FCE014F960E946E3DBE016B5D68
:104040007F4FCE014F960E94813C63E877E00E944B
:104050006D3CB6010E94813CBC01C7010E946E3DCF
:10406000CE014F960E94FA3CCE0185960E94FA3C02
:104070009CCF09851A852D813E810217130708F010
:104080008FCF89809A80BE016A5E7F4F0E94280D83
:104090008111ADCFC801019698A38F8FBE01615EDB
:1040A0007F4F88E090E0AFCFCF92DF92EF92FF9208
:1040B0000F931F93CF93DF93CDB7DEB768970FB6FB
:1040C000F894DEBF0FBECDBF80918C0E811109C068
:1040D0006BEB7BE086E89EE00E94763D81E080937A
:1040E0008C0E8091850E882371F08091840E9091C2
:1040F0000402891740F48F5F8093840E891718F0AB
:1041000081E08093830EF090820E20910202309124
:10411000030280910002909101022817390719F4D7
:10412000FF2009F4B5C01092810E1092800EF1109C
:1041300009C06BEB7BE086E89EE00E94B13C83E027
:10414000809304021092820E1092850E80910002DC
:10415000909101029093030280930202F8946BEB1A
:104160007BE088E994E10E94B13C78941092830E40
:104170001092840E84E180937F0EFF24F3941091BB
:104180007F0E80917A0EE12C8A3009F0D4C0009124
:10419000850E002309F4B4C060E773E0CE010196F8
:1041A0000E94763DBE016F5F7F4F88E994E10E94D7
:1041B000633B6C01CE0101960E94FA3CD7FCA0C083
:1041C000F89463E773E0CE0107960E94763DBE0146
:1041D000695F7F4F88E994E10E94633BE12C97FD82
:1041E00016C063E773E0CE0101960E94763DBE01E2
:1041F0006F5F7F4F88E994E10E94633BEE24E39474
:1042000002970CF0E12CCE0101960E94FA3CCE01FF
:1042100007960E94FA3CEE2009F445C063E773E07C
:10422000CE0101960E94763DBE016F5F7F4F88E907
:1042300094E10E94633B40919C1450919D14411560
:10424000510509F1BC016F5F7F4FE9F04617570731
:1042500008F4BA018091981490919914461B570B59
:1042600050939D1440939C14680F791F0E94BC6565
:10427000E0919814F091991480919C1490919D1460
:10428000E80FF91F1082CE0101960E94FA3C99CFE7
:104290000E94B54280917F0E882309F470CF81502F
:1042A00080937F0E6CCF78948091020290910302EC
:1042B0008433910509F4D0C308F08BC08E31910589
:1042C00009F4FAC108F04DC08231910509F452C1D8
:1042D0002091850E8331910580F58B30910509F48D
:1042E00023C18C30910509F432C10A9799F5211147
:1042F00009C164EC77E086E89EE00E94B13CA1C071
:104300000091850EE12C002379F26CEB77E0CE0171
:1043100001960E94763DBE016F5F7F4F88E994E170
:104320000E94663BEE24E394811101C0E12CCE0192
:1043300001960E94FA3C00E0B7CF8431910509F460
:1043400036C108F42EC18531910509F460C1469744
:1043500009F48DC18FEF90E09093010280930002E9
:1043600070C08932910509F4C5C22091850E8A3248
:104370009105D0F48032910509F4EEC108F4B1C181
:10438000889741F721118FC26BEB7BE086E89EE0B6
:104390000E94863B882309F404C26CE378E086E837
:1043A0009EE00E94B13C4DC08B32910509F4F1C2F0
:1043B00008F4CCC28233910509F4FFC2C39751F6C9
:1043C00021112AC360E979E086E89EE00E94B13CB1
:1043D00038C08434910509F479C708F051C08F338F
:1043E000910509F43CC5E8F48D33910509F43BC40B
:1043F00008F0FAC4CC9709F0ADCF8091850E8111F9
:1044000014C46BEB7BE086E89EE00E94863B882329
:1044100009F49FC363EB79E086E89EE00E94B13C1B
:1044200010C02091850E8134910509F40BC608F463
:1044300068C58234910509F42EC68334910509F0CC
:1044400089CF8091850E8111CDC580918A0E909182
:104450008B0E892B09F4C6C566E87EE089E192E1FE
:104460000E944F3E0E94B54260937B0E70937C0E7B
:1044700080937D0E90937E0E81E08093850EBBC568
:104480008834910511F40C947D2BE0F42091850E75
:104490008634910511F40C945F2B10F40C942C2BA2
:1044A000FF2031F082E38093040286E980937F0E3F
:1044B00021110C94772B62EF7BE086E89EE00E944E
:1044C000B13CBFCF8135910511F40C946C2C80F474
:1044D0008035910509F03ECF8091850E81110C94B5
:1044E0003E2C62E07CE086E89EE00E94B13CA9CFD1
:1044F0008935910511F40C94A22C8F3F910509F494
:10450000A0CF28CF002339F08BE090E090930102F8
:104510008093000296CF111165C582E190E09093DF
:104520000102809300028DCF211107C069EC77E072
:1045300086E89EE00E94B13C84CF002309F420C2AB
:104540008CE090E090930102809300027ACF2111D9
:1045500007C061ED77E086E89EE00E94B13C71CF34
:10456000002309F40DC284E190E09093010280934E
:10457000000267CFFF2041F061E087E10E94E03F49
:104580008AE080937F0E5DCF11115BCF60E087E101
:104590000E94E03F83E190E090930102809300024B
:1045A00050CFF1104ECF112309F4ECC14ACF2111A5
:1045B00007C06BED77E086E89EE00E94B13C41CFFA
:1045C000002309F4DDC162EE77E0CE0101960E947E
:1045D000763DBE016F5F7F4F88E994E10E94633BA7
:1045E0008C01CE0101960E94FA3C0F30110541F476
:1045F00040E150E06AE67EE088E994E10E943539C6
:1046000085E190E090930102809300021ACF21117E
:1046100007C064EE77E086E89EE00E94B13C11CFCF
:10462000002309F4ADC162EE77E0CE0101960E944D
:10463000763DBE016F5F7F4F88E994E10E94633B46
:104640008C01CE0101960E94FA3C0F30110541F415
:1046500040E150E06AE57EE088E994E10E94353966
:1046600086E190E09093010280930002EACE21114E
:1046700007C06CEE77E086E89EE00E94B13CE1CE98
:10468000002309F47DC165EF77E0CE0101960E9419
:10469000763DCE0101960E94D939082FCE010196B0
:1046A0000E94FA3C002309F47ECF8EE190E09093C3
:1046B000010280930002C5CE8091850E811107C052
:1046C00062E078E086E89EE00E94B13CBACE00232A
:1046D00009F456C18FE190E09093010280930002AB
:1046E000B0CE211107C069E078E086E89EE00E9424
:1046F000B13CA7CE002309F443C162E178E0CE01CA
:1047000007960E94763DCE0107960E94D939811105
:1047100012C06DE178E0CE0101960E94763DCE0197
:1047200001960E94D93901E0811101C000E0CE015B
:1047300001960E94FA3CCE0107960E94FA3C0023A3
:1047400039F080E290E0909301028093000279CEEC
:1047500081E08093820E75CE211107C068E278E077
:1047600086E89EE00E94B13C6CCE002309F408C1AB
:1047700062E378E0CE0101960E94763DCE0101967B
:104780000E94D939082FCE0101960E94FA3C0023DD
:1047900009F409CF88E290E090930102809300022F
:1047A00050CE6AE578E0CE0101960E94763DBE01CA
:1047B0006F5F7F4F86E89EE00E94633B8C01CE01D5
:1047C00001960E94FA3C17FD1EC0809191119091B4
:1047D00092118130910539F462E678E086E89EE036
:1047E0000E94B13C2ECE029739F46EE778E086E85D
:1047F0009EE00E94B13C25CE60EA78E086E89EE02B
:104800000E94B13C1ECE63EC78E0CE0101960E947E
:10481000763DBE016F5F7F4F86E89EE00E94633B5E
:104820008C01CE0101960E94FA3C17FD14C08091C4
:10483000911190919211029739F067EC78E086E837
:104840009EE00E94B13CFDCD6EED78E086E89EE0F2
:104850000E94B13CF6CD6DEF78E0CE0101960E944A
:10486000763DBE016F5F7F4F86E89EE00E94633B0E
:104870008C01CE0101960E94FA3C17FDE2CD809199
:10488000911190919211029739F062E079E086E8F7
:104890009EE00E94B13CD5CD68E179E086E89EE0DB
:1048A0000E94B13CCECDEE2039F082E190E09093B1
:1048B000010280930002C5CD002309F461C060E3CA
:1048C00079E0CE0101960E94763DBE016F5F7F4F79
:1048D00086E89EE00E94633B8C01CE0101960E9417
:1048E000FA3C17FD35CF89E290E090930102809366
:1048F0000002A7CDFF2039F064E379E086E89EE06E
:104900000E94B13C9ECD0023C1F062E479E0CE016B
:1049100001960E94763DCE0101960E94D939182F4A
:10492000CE0101960E94FA3C112349F08CE390E0FD
:10493000909301028093000284CD111182CD8AE20E
:1049400090E090930102809300027BCD21110DC075
:104950006FE479E086E89EE00E94B13C8EE18093AE
:10496000040282E380937F0E6CCDEE2039F08BE25F
:1049700090E0909301028093000263CD0111D6CFA5
:10498000111130C38AE090E09093010280930002FD
:1049900058CD21110DC06CE579E086E89EE00E94BB
:1049A000B13C8EE18093040282E380937F0E49CD77
:1049B0000111C5CFE110C3CFE3CF211107C069E6D4
:1049C00079E086E89EE00E94B13C3BCD8091830E69
:1049D0008823B1F26DE37CE0CE0101960E94763D22
:1049E000BE016F5F7F4F88E994E10E94633B8C01B9
:1049F000CE0101960E94FA3C17FD07C084E390E0C7
:104A000090930102809300021CCD83E390E0909389
:104A100001028093000215CD8091830E882309F452
:104A2000AFCF6DE37CE0CE0101960E94763DBE01E2
:104A30006F5F7F4F88E994E10E94633B7C01CE0168
:104A400001960E94FA3CF7FCAECD82E390E0909391
:104A5000010280930002F5CC8091850E81112AC05D
:104A60006BEB7BE086E89EE00E94863B882339F072
:104A70006BE979E086E89EE00E94B13CE2CC6EE909
:104A800079E0CE0101960E94763DBE016F5F7F4FB7
:104A900086E89EE00E94633B8C01CE0101960E9455
:104AA000FA3C17FDCECC64EA79E086E89EE00E94ED
:104AB000B13CC7CC8091830E882309F461CF67EAAB
:104AC00079E0CE0107960E94763DBE01695F7F4F77
:104AD00086E89EE00E94633B10E097FD15C06DEAFA
:104AE00079E0CE0101960E94763DBE016F5F7F4F57
:104AF00088E994E10E94633B192F111F1127111FB0
:104B0000CE0101960E94FA3CCE0107960E94FA3C23
:104B1000112339F080E590E0909301028093000228
:104B200090CC6DE37CE0CE0101960E94763DBE0103
:104B30006F5F7F4F88E994E10E94633B8C01CE0157
:104B400001960E94FA3C17FD7CCC81E08093820E96
:104B500078CC6FEB79E0CE0101960E94763DBE01E4
:104B60006F5F7F4F86E89EE00E94633B8C01CE0121
:104B700001960E94FA3C17FD07C063EC79E086E8D5
:104B80009EE00E94B13C5DCC6CEE79E0CE010196D6
:104B90000E94763DBE016F5F7F4F86E89EE00E94D7
:104BA000633B8C01CE0101960E94FA3C17FD07C0C1
:104BB00061EF79E086E89EE00E94B13C42CC6FEF65
:104BC00079E0CE0101960E94763DBE016F5F7F4F76
:104BD00086E89EE00E94633B8C01CE0101960E9414
:104BE000FA3C17FD07C064E07AE086E89EE00E9488
:104BF000B13C27CC6BE27AE0CE0101960E94763D73
:104C0000BE016F5F7F4F86E89EE00E94633B8C0190
:104C1000CE0101960E94FA3C17FD13CC6FE27AE0B8
:104C200086E89EE00E94B13C0CCC002309F4A8CE9B
:104C300061E57AE0CE0101960E94763DBE016F5F8C
:104C40007F4F86E89EE00E94633B8C01CE01019677
:104C50000E94FA3C17FD79CF8DE390E0909301021A
:104C600080930002EECB8091850E81119DC06BEB8D
:104C70007BE086E89EE00E94863B882339F064E56D
:104C80007AE086E89EE00E94B13CDBCB68E67AE001
:104C9000CE0101960E94763DBE016F5F7F4F86E890
:104CA0009EE00E94633B8C01CE0101960E94FA3C7B
:104CB00017FD5FC06CE67AE0CE0101960E94763D5A
:104CC0006EE974E1CE0101960E94813C6FE47AE0C6
:104CD0000E946D3CBC0186E89EE00E94E53CCE014E
:104CE00001960E94FA3C6AE57EE0CE0143960E945E
:104CF000763D6AE67EE0CE010D960E94763D6CE739
:104D00007AE0CE0107960E94763DBE01635F7F4F39
:104D1000CE0107960E94813C6CE77AE00E946D3CD0
:104D2000BE016D5E7F4F0E94813C6EE77AE00E947B
:104D30006D3C8C016EE77AE0CE0101960E94763DD3
:104D4000A801BE016F5F7F4F86E89EE00E944F3A48
:104D5000CE0101960E94FA3CCE0107960E94FA3CD1
:104D6000CE010D960E94FA3CCE0143960E94FA3C79
:104D700068CB6EED7BE0CE0101960E94763DBE01D0
:104D80006F5F7F4F86E89EE00E94633B8C01CE01FF
:104D900001960E94FA3C17FD54CB60E87AE086E861
:104DA0009EE00E94B13C4DCB002309F4E9CD61E5C2
:104DB0007BE0CE0101960E94763DBE016F5F7F4F82
:104DC00086E89EE00E94633B8C01CE0101960E9422
:104DD000FA3C17FDBACE8EE390E0909301028093E7
:104DE00000021092940E2DCBFF2021F084E68093D8
:104DF0007F0E27CB8091940E81112ECF8091B3101E
:104E00009091B4102091B1103091B210112389F01B
:104E10002817390709F415CB6BEB7BE084EA94E1A2
:104E20000E94B13C8FE390E09093010280930002D6
:104E300008CB2817390781F780911602811105C028
:104E400080911502882309F480CE82E490E090934B
:104E500001028093000281E08093940EF2CA809157
:104E6000850E81110DC06CE97AE086E89EE00E9413
:104E7000B13C82E38093040286E980937F0EE1CA0D
:104E80000023B1F168EA7AE0CE0101960E94763DF6
:104E9000BE016F5F7F4F88E994E10E94633B8C0104
:104EA000CE0101960E94FA3C17FD07C080E490E015
:104EB0009093010280930002C4CA65EB7AE0CE01B0
:104EC00001960E94763DBE016F5F7F4F88E994E1B5
:104ED0000E94633B8C01CE0101960E94FA3C17FDB3
:104EE000B0CA89E290E09093010280930002A9CABF
:104EF000111178C08FE190E090930102809300023D
:104F0000A0CAFF2031F084E68093040286E98093F2
:104F10007F0E21115DC00AE586E0E82EF12C80911C
:104F2000B1109091B2102091B3103091B4102817A5
:104F3000390719F1089FB001099F700D11246B56B4
:104F4000714FCE0101960E94763DBE016F5F7F4F8B
:104F500084EA94E10E94FF3BCE0101960E94FA3C54
:104F60008091B1109091B2100196B7010E947564C2
:104F70009093B2108093B110D2CF6091A814709129
:104F8000A914CE0107960E94BA3C60EC7AE0CE01EB
:104F900001960E94763DBE01695F7F4FCE0101966A
:104FA0000E94813CBC0186E89EE00E94E53CCE0167
:104FB00001960E94FA3CCE0107960E94FA3C11111C
:104FC00040CA8EE390E0909301028093000239CAB8
:104FD000002301F181E490E09093010280930002AC
:104FE000112379F39091800E81E0981721F0909130
:104FF000810E9111AFC468960FB6F894DEBF0FBE54
:10500000CDBFDF91CF911F910F91FF90EF90DF9077
:10501000CF9008956DEC7AE0CE0101960E94763D26
:10502000BE016F5F7F4F88E994E10E94633B7C0182
:10503000CE0101960E94FA3CF7FCC1CF81E080933B
:10504000810EBDCFFF2031F082E38093040286E918
:1050500080937F0E211107C068ED7AE086E89EE01C
:105060000E94B13CEEC966EE7AE0002309F4B8CFA5
:10507000CE0101960E94763DBE016F5F7F4F88E9A9
:1050800094E10E94633B8C01CE0101960E94FA3CA0
:1050900017FF97CFD6C92111E5C06BEB7BE086E8FF
:1050A0009EE00E94863B882309F449C06EE974E1C2
:1050B000CE0101960E946E3D8091160262EF7AE069
:1050C000811102C069EF7AE0CE010D960E94763D13
:1050D0006BEF7AE0CE0107960E94763DAE01435F0A
:1050E0005F4FBE01695F7F4FCE0101960E944F3A2C
:1050F000CE0107960E94FA3CCE010D960E94FA3C22
:1051000060E07BE0CE0107960E94763DBE016F5FB6
:105110007F4FCE0107960E94813C6FE47AE00E94A7
:105120006D3CBC0186E89EE00E94E53CCE010796FE
:105130000E94FA3CCE0101960E94FA3C82C960E1CD
:105140007BE0CE0101960E94763DBE016F5F7F4FEE
:1051500086E89EE00E94633B8C01CE0101960E948E
:10516000FA3C17FD49C06EE974E1CE010D960E942C
:105170006E3D8091160268E17BE0811102C061E220
:105180007BE0CE0107960E94763D6BEF7AE0CE0180
:1051900001960E94763DAE01495F5F4FBE016F5F91
:1051A0007F4FCE010D960E944F3ACE0101960E948C
:1051B000FA3CCE0107960E94FA3C6CE67AE0CE01FA
:1051C00001960E94763DBE01635F7F4FCE0101963E
:1051D0000E94813C6FE47AE00E946D3CBC0186E84D
:1051E0009EE00E94E53CCE0101960E94FA3CCE0171
:1051F0000D960E94FA3C25C96AE27BE0CE01019639
:105200000E94763DBE016F5F7F4F86E89EE00E9460
:10521000633B8C01CE0101960E94FA3C17FD07C04A
:1052200062E37BE086E89EE00E94B13C0AC96EE43E
:105230007BE0CE0101960E94763DBE016F5F7F4FFD
:1052400086E89EE00E94633B8C01CE0101960E949D
:10525000FA3C17FDF6C866E57BE086E89EE00E9412
:10526000B13CEFC88091830E882309F4B9CE6DE379
:105270007CE0CE0101960E94763DBE016F5F7F4FBC
:1052800088E994E10E94633B7C01CE0101960E9473
:10529000FA3CF7FC94CE62E77BE0CE0101960E94D7
:1052A000763DBE016F5F7F4F86E89EE00E94633BC4
:1052B0008C01CE0101960E94FA3C17FD46CC84E495
:1052C00090E09093010280930002BBC88091850E0C
:1052D00081112BC06BEB7BE086E89EE00E94863B51
:1052E0006AE77BE0811116C066E87BE0CE0101969B
:1052F0000E94763DBE016F5F7F4F86E89EE00E9470
:10530000633B8C01CE0101960E94FA3C17FD06C05A
:105310006AE87BE086E89EE00E94B13C84E18093ED
:10532000040284E680937F0E8CC869E97BE0CE019D
:1053300001960E94763DBE016F5F7F4F88E994E140
:105340000E94633B7C01CE0101960E94FA3CF7FC6F
:1053500010C080911602882349F01092160286E44C
:1053600090E090930102809300026BC810921502A6
:10537000F6CF8091830E882309F421CE6DE37CE083
:10538000CE0101960E94763DBE016F5F7F4F88E996
:1053900094E10E94633B7C01CE0101960E94FA3C9D
:1053A000F7FC0DCE65EA7BE0CE0101960E94763DCA
:1053B000BE016F5F7F4F88E994E10E94633B8C01DF
:1053C000CE0101960E94FA3C17FFBFCB6CEB7AE04E
:1053D000CE0107960E94763DBE01695F7F4F88E946
:1053E00094E10E94633B10E097FD15C06DE77BE000
:1053F000CE0101960E94763DBE016F5F7F4F86E829
:105400009EE00E94663B11E0811101C010E0CE01D8
:1054100001960E94FA3CCE0107960E94FA3C1123A5
:1054200051F080911602882319F010921602C9CD0E
:1054300010921502C6CD6AEA7BE0CE0101960E9469
:10544000763DBE016F5F7F4F88E994E10E94633B28
:105450008C01CE0101960E94FA3C17FD02C00C940B
:10546000212262EB7BE0CE0101960E94763DBE01D7
:105470006F5F7F4F88E994E10E94633B8C01CE010E
:1054800001960E94FA3C17FF02C00C94212281E091
:105490008093820E60EC79E0CE0101960E94763D09
:1054A000BE016F5F7F4F88E994E10E94633B8C01EE
:1054B000CE0101960E94FA3C17FD4AC069EB7BE0E1
:1054C000CE0101960E94763DBE016F5F7F4F88E955
:1054D00094E10E94633B8C01CE0101960E94FA3C4C
:1054E00017FD9FCF00919C1410919D140650110937
:1054F00069EB7BE0CE0101960E94763DBE016F5FB5
:105500007F4F88E994E10E94633B9801AC0168E910
:1055100074E1CE0107960E948A3DBE01695F7F4F0C
:1055200084EA94E10E94053CCE0107960E94FA3C71
:10553000CE0101960E94FA3C1092B9101092B81058
:105540001092B7101092B6100E94EC540C942122C5
:1055500000919C1410919D146CEB7BE0CE010196A0
:105560000E94763DBE016F5F7F4F88E994E10E9403
:10557000633B9801AC0168E974E1CE0107960E9493
:105580008A3DBE01695F7F4F88E994E10E94053C36
:10559000CE0107960E94FA3CCE0101960E94FA3C89
:1055A00000919C1410919D1463E773E0CE01019665
:1055B0000E94763DBE016F5F7F4F88E994E10E94B3
:1055C000633BAC014F5F5F4F980168E974E1CE0126
:1055D00007960E948A3DBE01695F7F4F88E994E18A
:1055E0000E94053CCE0107960E94FA3CCE0101962E
:1055F0000E94FA3C20919C1430919D142650310950
:1056000050E040E068E974E1CE0101960E948A3DD5
:10561000BE016F5F7F4F88E994E10E94053CCE0197
:1056200001960E94FA3C64EA74E1CE0101960E9460
:105630006E3D68E974E1CE0101960E94813CBC0197
:1056400084EA94E10E94E53CCE0101960E94FA3C76
:105650000E94EC540C942122FF2031F082E38093CD
:10566000040286E980937F0E211108C066EC7BE07E
:1056700086E89EE00E94B13C0C942122002309F4AC
:10568000AFCC69E97BE0CE0101960E94763DBE0178
:105690006F5F7F4F88E994E10E94633B8C01CE01EC
:1056A00001960E94FA3C17FF02C00C94212288E464
:1056B00090E090930102809300020C942122FF203D
:1056C00031F082E38093040286E980937F0E2111FA
:1056D00008C066ED7BE086E89EE00E94B13C0C9439
:1056E000212263EE7BE0002309F47ACCC1CC0023B5
:1056F00009F476CC6DEF7BE0BBCCE090B810F09075
:10570000B9100091B6101091B710E114F10459F4DA
:105710000115110541F480911602882309F450C047
:1057200082E48093B510D090B5108D2D0E94860B29
:10573000081719070CF046C0A8014F5F5F4F509340
:10574000B7104093B6106D2DCE0101960E94C11680
:105750002D813E8141E050E0BE016F5F7F4FCE0161
:1057600007960E948A3DBE01695F7F4F84EA94E1FB
:105770000E94633B8C01CE0107960E94FA3CCE0149
:1057800001960E94FA3C17FD02C00C942122409120
:10579000B6105091B7106091B510CE0101960E94DD
:1057A000A81ECE0101960E94FA3C8091B6109091FD
:1057B000B71001979093B7108093B6100C942122E4
:1057C00081E4AFCF6AEB7BE0CE0101960E94763D8B
:1057D000A7014F5F5F4FBE016F5F7F4F84EA94E187
:1057E0000E94473B01969093B9108093B810CE0168
:1057F00001960E94FA3C4091B8105091B9109A015C
:10580000255F3F4F64EA74E1CE0101960E948A3D14
:10581000AE014F5F5F4F6091B510CE0107960E94B9
:10582000661FCE0107960E94FA3CCE0101960E94A7
:10583000FA3C8091B6109091B71001969093B710F2
:105840008093B6100091B8101091B9106AEB7BE00C
:10585000CE0101960E94763DA801BE016F5F7F4F89
:1058600084EA94E10E94473B8C01CE0101960E949C
:10587000FA3C17FD02C00C942122D3CD8091830EF7
:105880008823C1F065E37CE0CE0101960E94763D5D
:10589000BE016F5F7F4F88E994E10E94633B7C010A
:1058A000CE0101960E94FA3CF7FE0EC0112321F0B2
:1058B0000C942122111196CB8AE090E09093010282
:1058C000809300020C94212281E590E090930102E4
:1058D000809300020C9421226BEB7BE086E89EE033
:1058E0000E94B13C81E08093850E8091830E8823D5
:1058F00009F478CB8091590E81111AC060E47CE0E4
:10590000CE0101960E94763DBE016F5F7F4F88E910
:1059100094E10E94633B8C01CE0101960E94FA3C07
:1059200017FD06C089E590E0909301028093000284
:105930001092580E1092570E1092590E1092830E1C
:105940000C94212280E590E0909301028093000264
:105950000C9421228093800E64EA74E189E192E143
:105960000E944F3E48CB8F929F92AF92BF92CF92B0
:10597000DF92EF92FF920F931F93CF93DF93CDB7F8
:10598000DEB7C056D1090FB6F894DEBF0FBECDBF4B
:1059900080910C1191E0980F90930C11837041F558
:1059A000E0910602E23019F481E08093C710809103
:1059B000C710813009F46AC098F0823009F4B0C190
:1059C000833009F475C260E08FE10E94E03F60E03F
:1059D00080E20E94E03F61E08EE10E94E03F84C0EF
:1059E000EB3009F446C081E08093C7100E94542038
:1059F00011E086EB92E10E94FA36181619060CF0B7
:105A0000FBC286EB92E10E94D836E0919811F091AA
:105A10009911E453FF4E8083833251F49091CC105E
:105A2000933231F010929911109298118093CC100A
:105A30008091CC108332E9F6809198119091991160
:105A4000FC01E453FF4E20812D3011F41093CB1054
:105A500001969093991180939811803491054CF29E
:105A60008091CB108111C5CF10929911109298118D
:105A7000C0CF80911302853111F082E0B5CF8091C3
:105A800012028F3109F4B2CF83E0AECFE250EA3098
:105A9000B8F4F0E08827E05BF24D8F4F0C948864F7
:105AA0005A2D7F2D962DC82DDC2DF02D042E472E3E
:105AB000602D672D8091C6108823C9F0813071F167
:105AC0000E9412051092C6108BE08093060280910E
:105AD00006028B3091F680911302853171F6809128
