:1000000011C1000040C100003EC100003CC1000021
:100010003AC1000038C1000036C1000034C1000000
:1000200032C1000030C100002EC100002CC1000010
:100030002AC1000028C1000026C1000024C1000020
:1000400022C1000020C100001EC100001CC1000030
:100050000C94C10E18C1000016C100000C94F23FB0
:1000600012C100000C94263B0C94FC3A0CC1000019
:100070000AC1000008C1000006C1000004C1000060
:1000800002C1000000C10000FEC000000C94EC0E94
:100090000C94D23A0C94A93AF6C000000C948C0F40
:1000A000F2C00000F0C00000EEC00000ECC0000094
:1000B000EAC00000E8C00000E6C00000E4C00000A4
:1000C000E2C00000E0C00000DEC000000C947F3AF7
:1000D0000C94563AD8C000000C942D3A0C94043A73
:1000E000D2C000007C3C3E5E2B3D3F2F5B5D3B2C35
:1000F0002A225C0000002200250028002B002E0090
:100100003100340002010000050108010B0100006C
:1001100020002300260029002C002F0032000001BF
:10012000000003010601090100000A0B02090C0D81
:100130000E0807030401000000000000000000009A
:1001400000000000000000000000000000000000AF
:10015000000000001211100000000000000000006C
:10016000000000000000000000000000000000008F
:100170002100240027002A002D0030003300010157
:100180000000040107010A010102102020080810E4
:1001900020401020408002010201080402010102F7
:1001A00004081020408080402010080402018004D0
:1001B000020180402010080402010804020101022B
:1001C000040810204080010204081020408005052A
:1001D0000505070508080808020202020A0A0808BD
:1001E00004040404010101010101010103030303EB
:1001F00003030303040707070C0C0C0C0C0C0C0C7A
:100200000202020206060606060606060B0B0B0B8A
:100210000B0B0B0B1F1C1F1E1F1E1F1F1E1F1E0064
:10022000ED51D55111241FBECFEFD1E2DEBFCDBFBE
:1002300000E00CBF1DE0A0E0B2E0ECE6F7EC00E06F
:100240000BBF02C007900D92A235B107D9F72AE182
:10025000A2E5BDE001C01D92AF36B207E1F711E0A3
:10026000C1E1D1E000E006C021970109802FFE0125
:100270000E94805FC031D10780E00807A9F70E9483
:1002800045530C94A563BCCEDC015996ED91FC91CD
:10029000309721F081E09581911101C080E00895AF
:1002A000DC015996ED91FC913097B9F083899489DE
:1002B000A589B6894285538564857585841B950B10
:1002C000A60BB70B811520E89207A105B10538F000
:1002D0008FEF9FE7A0E0B0E0089590E080E0089500
:1002E000DC0159968D919C91009739F0DC01ED91DC
:1002F000FC910480F581E02D199490E080E0089550
:10030000CF93DF931F92CDB7DEB76983DC01ED9108
:10031000FC910280F381E02D41E050E0BE016F5F6F
:100320007F4F19950F90DF91CF910895DC01ED91EA
:10033000FC910190F081E02D1994CF93DF93EC01B3
:1003400065E570E08A819B81F1DF65E570E08A8177
:100350009B81ECDF70E060E08A819B81E7DF70E0E9
:1003600060E08A819B81E2DF70E060E08A819B81AE
:10037000DDDF8A819B81DC01ED91FC910084F185B8
:10038000E02D19958A819B81DC01ED91FC9100841F
:10039000F185E02D1995892B49F08A819B81DC013B
:1003A000ED91FC910284F385E02DEBCFDF91CF91AD
:1003B0000895CF93DF93EC0165E570E08A819B811E
:1003C000B5DF65E570E08A819B81B0DF70E060E0B9
:1003D0008A819B81ABDF70E060E08A819B81A6DF30
:1003E00070E060E08A819B81A1DF8A819B81DC01D2
:1003F000ED91FC910084F185E02D19958A819B8116
:10040000DC01ED91FC910084F185E02D1995892B9B
:1004100049F08A819B81DC01ED91FC910284F38596
:10042000E02DEBCFDF91CF9108952091E111260FC0
:100430003327331F21323105ECF420917512FC0172
:1004400090E080E0243069F082E00895A091E1110D
:100450002191AC014F535E4EA40FB52FB11D2C93CB
:100460000196861798F38091E111680F6093E1116E
:1004700080E0089581E00895089508950895E09139
:100480009C1280919B12E81730F4F0E0E558FD4E85
:10049000808190E008958FEF9FEF089590919C12D6
:1004A00080919B122FEF3FEF981748F4E92FF0E06F
:1004B000E558FD4E208130E09F5F90939C12C9016A
:1004C000089580919B1290919C12891B990B08951D
:1004D000CF92DF92EF92FF920F931F93CF93DF9310
:1004E0007C01CB018A0120912C12222389F0EB019F
:1004F0006B01C40ED51ECC15DD0561F06991D701E5
:10050000ED91FC910190F081E02DC7011995F3CF99
:10051000642F8BDFC801DF91CF911F910F91FF9066
:10052000EF90DF90CF900895CF93DF931F92CDB7D8
:10053000DEB7698320912C122223F9F020914E120C
:10054000203258F021E030E0FC013383228390E038
:1005500080E00F90DF91CF91089580912D12E82FC8
:10056000F0E0E25DFD4E998190838F5F80932D12C4
:1005700080934E1281E090E0ECCF61E0CE010196D5
:1005800054DFF8CF90E080E00895CF93DF939C0193
:10059000C6E0D2E181E08A838FB78B83F894B901FA
:1005A0007695679590E080E0605C7D4B804F9F4F33
:1005B00050E040E00E94125FDA01C90123E0880F99
:1005C000991FAA1FBB1F2A95D1F7998388839093FF
:1005D0008700809386008B818FBFE1E8F0E0808107
:1005E000887F808380819A81892B8083DF91CF915E
:1005F0000895CF93DF93FB0122813381DC011396B1
:100600003C932E931297448155816681778114968D
:100610004D935D936D937C931797408551856285CB
:10062000738518964D935D936D937C931B971C96E1
:10063000EF012C969C01275E3F4F49914D93A217E5
:10064000B307D9F7218D328DFC01328F218FDF91D5
:10065000CF9108956091BF118FE10E94783B809106
:10066000BF1191E089278093BF110895E1E8F0E080
:100670008081887F808360E08FE10C94783BCF930A
:100680009FEF980F923000F51092B11191E0909386
:10069000411190930502823009F441C0C1E0C0933A
:1006A000401161E083E20E94783B60E082E20E94B8
:1006B000783BC093B41180911312909114129093CF
:1006C000B3118093B2110AC0823049F18330D1F165
:1006D000813021F38091B411811104C080914111C6
:1006E000CF91089581E08093B11180934111809161
:1006F0004011813059F461E082E20E94783B60E071
:1007000083E20E94783B1092B411E8CF8230D9F78F
:1007100061E083E20E94783B60E082E2F2CF82E017
:100720008093401161E082E20E94783B60E083E2C6
:100730000E94783B81E08093B411809111129091D6
:100740001212BDCF80914111882341F280910502A0
:10075000882321F0815080930502C0CF61E082E2BE
:100760000E94783B61E083E20E94783B1092411145
:1007700081E0F1CFCF93DF93CDB7DEB76D970FB6A2
:10078000F894DEBF0FBECDBF442399F1AB01BC018D
:100790001C821B8281EB92E09A8389831E8222E075
:1007A000CE0101960E94B64A81110EC090E081E010
:1007B000911101C080E06D960FB6F894DEBF0FBEB8
:1007C000CDBFDF91CF910895CE0101960E941247CF
:1007D000882361F3CE0101960E942D42009731F3E8
:1007E00025EEFC0120831E8281E00E94BC41982FEF
:1007F000DECF81E0E0CF1F93CF93DF93CDB7DEB79D
:100800006D970FB6F894DEBF0FBECDBFAB011C8253
:100810001B8221EB32E03A8329831E8221E0BC0156
:10082000CE0101960E94B64A11E081110CC010E081
:10083000812F6D960FB6F894DEBF0FBECDBFDF914E
:10084000CF911F910895CE0101960E94564CF0CF92
:10085000CF93DF93EC01898D9A8D009741F00E9430
:10086000564C898D9A8D0E94D75C1A8E198EDF9115
:10087000CF910895FC01818D928D009719F061E070
:100880000C9447460895CF93DF93EC01E98DFA8DE0
:10089000309749F481E090E09B838A8390E080E088
:1008A000DF91CF91089513821282898D9A8D0E94D3
:1008B0000B48E98DFA8D22813381232B59F7F0CF34
:1008C0002F923F924F925F926F927F928F929F9260
:1008D000AF92BF92CF92DF92EF92FF920F931F934E
:1008E000CF93DF932C011A0189013B01D0E0C0E0D6
:1008F0006901F12CE12CC215D30511F10E944D3E86
:100900004B015C01D20112968D919C91DC01ED911D
:10091000FC910284F385E02D199597FF25C0011500
:10092000110581F30E944D3E681979098A099B09D6
:100930006C157D058E059F0528F38EEF209709F035
:100940008C2FDF91CF911F910F91FF90EF90DF904F
:10095000CF90BF90AF909F908F907F906F905F905F
:100960004F903F902F900895F30181933F0121967E
:10097000C2CFAF92BF92CF92DF92EF92FF920F93CE
:100980001F93CF93DF9300D01F921F92CDB7DEB796
:100990007C01062FB72E142F690143E050E0BE0101
:1009A0006F5F7F4F8DDF181694F08EEF9FEF0F90E3
:1009B0000F900F900F900F90DF91CF911F910F919B
:1009C000FF90EF90DF90CF90BF90AF900895898116
:1009D000882319F08DEF9FEFEACF8A818111FACF3A
:1009E0008B818F3FB9F7960142E050E0BE016C5F0A
:1009F0007F4FC70165DF1816C4F68C819D81980F63
:100A000049F782508C83181708F445C0F701148108
:100A1000AA24A394A10E960142E050E0BE016F5FAC
:100A20007F4FC7014DDF18160CF0BFCF8981853D80
:100A300089F68A818A11CECF4C8150E09601602FD1
:100A40007B2DC7013DDF2C81082E000C990B281748
:100A5000190609F0AACF1A52902FE02FFB2D8E2FE6
:100A6000891B821718F48191180FF9CF960142E083
:100A700050E0BE016F5F7F4FC70122DF18160CF0F8
:100A800094CF8981180F09F0A5CF8A818111A2CF57
:100A90008C8190E08CCF8CEF9FEF89CF2F923F928B
:100AA0004F925F926F927F928F929F92AF92BF927E
:100AB000CF92DF92EF92FF920F931F93CF93DF932A
:100AC0002C011A0189013B01D0E0C0E06901F12C41
:100AD000E12CC215D30511F10E944D3E4B015C0182
:100AE000D20112968D919C91DC01ED91FC910284D2
:100AF000F385E02D199597FF25C00115110581F3A8
:100B00000E944D3E681979098A099B096C157D057B
:100B10008E059F0528F38EEF209709F08C2FDF912B
:100B2000CF911F910F91FF90EF90DF90CF90BF90EA
:100B3000AF909F908F907F906F905F904F903F907D
:100B40002F900895F30181933F012196C2CFAF9278
:100B5000BF92CF92DF92EF92FF920F931F93CF93AA
:100B6000DF9300D01F921F92CDB7DEB77C01062F16
:100B7000B72E142F690143E050E0BE016F5F7F4F35
:100B80008DDF181694F08EEF9FEF0F900F900F905F
:100B90000F900F90DF91CF911F910F91FF90EF90E9
:100BA000DF90CF90BF90AF9008958981882319F08E
:100BB0008DEF9FEFEACF8A818111FACF8B818F3F32
:100BC000B9F7960142E050E0BE016C5F7F4FC7016C
:100BD00065DF1816C4F68C819D81980F49F7825005
:100BE0008C83181708F445C0F7011481AA24A39434
:100BF000A10E960142E050E0BE016F5F7F4FC7013A
:100C00004DDF18160CF0BFCF8981853D89F68A81AA
:100C10008A11CECF4C8150E09601602F7B2DC70109
:100C20003DDF2C81082E000C990B2817190609F0BE
:100C3000AACF1A52902FE02FFB2D8E2F891B8217DF
:100C400018F48191180FF9CF960142E050E0BE01EF
:100C50006F5F7F4FC70122DF18160CF094CF898198
:100C6000180F09F0A5CF8A818111A2CF8C8190E065
:100C70008CCF8CEF9FEF89CF9F92AF92BF92CF9294
:100C8000DF92EF92FF920F931F93CF93DF93CDB735
:100C9000DEB72C970FB6F894DEBF0FBECDBF7C0138
:100CA0006B01942EB22EA32EDC0112968D919C9195
:100CB000DC01ED91FC910084F185E02D1995F7019F
:100CC00082819381DC01ED91FC910084F185E02D1E
:100CD0001995F701A281B381892B41F0ED91FC9127
:100CE00011970284F385E02DCD01E8CFF6018081D4
:100CF000F701848370E060E0CD0118DB70E060E014
:100D0000D70112968D919C9111DB6FEF70E0F70186
:100D1000828193810BDB61E0600F162F190DD701E3
:100D200012968D919C91DC01ED91FC910190F081E6
:100D3000E02D612F1995612F70E071956195710912
:100D4000F70182819381F2DA64ED70E0D7011296A7
:100D50008D919C91EBDAF70182819381492D50E0CE
:100D6000DC01ED91FC910280F381E02DB601199533
:100D70009C2DF60114ED8E2F891B891518F4819195
:100D8000180FF9CFF70182819381402F50E0DC01E9
:100D9000ED91FC910280F381E02D6B2D7A2D199558
:100DA0009B2DEB2DFA2D8E2F891B801718F4819126
:100DB000180FF9CFF70182819381612F6195DC01D2
:100DC000ED91FC910190F081E02D199570E060E0CB
:100DD000F70182819381AADA86E0EDE1F2E0DE019B
:100DE000179601900D928A95E1F72AE030E046E0EF
:100DF00050E0BE016F5F7F4FC70162DD18160CF532
:100E000046E050E0BE01695F7F4FCE0101960E942F
:100E1000646021E0892B09F420E0822F81952C96D3
:100E20000FB6F894DEBF0FBECDBFDF91CF911F91FB
:100E30000F91FF90EF90DF90CF90BF90AF909F9079
:100E400008958EEFECCF9F92AF92BF92CF92DF9238
:100E5000EF92FF920F931F93CF93DF93CDB7DEB73F
:100E60002C970FB6F894DEBF0FBECDBF7C016B018F
:100E7000942EB22EA32EDC0112968D919C91DC0152
:100E8000ED91FC910084F185E02D1995F7018281A7
:100E90009381DC01ED91FC910084F185E02D1995A1
:100EA000F701A281B381892B41F0ED91FC9111975B
:100EB0000284F385E02DCD01E8CFF6018081F701B2
:100EC000848370E060E0CD0131DA70E060E0D7014A
:100ED00012968D919C912ADA6FEF70E0F701828172
:100EE000938124DA61E0600F162F190DD701129655
:100EF0008D919C91DC01ED91FC910190F081E02DB0
:100F0000612F1995612F70E0719561957109F70155
:100F1000828193810BDA64ED70E0D70112968D9196
:100F20009C9104DAF70182819381492D50E0DC0124
:100F3000ED91FC910280F381E02DB60119959C2D75
:100F4000F60114ED8E2F891B891518F48191180F65
:100F5000F9CFF70182819381402F50E0DC01ED91C0
:100F6000FC910280F381E02D6B2D7A2D19959B2D3C
:100F7000EB2DFA2D8E2F891B801718F48191180FF5
:100F8000F9CFF70182819381612F6195DC01ED91A9
:100F9000FC910190F081E02D199570E060E0F7017F
:100FA00082819381C3D986E0EDE1F2E0DE011796FC
:100FB00001900D928A95E1F72AE030E046E050E09A
:100FC000BE016F5F7F4FC70169DD18160CF546E063
:100FD00050E0BE01695F7F4FCE0101960E946460C0
:100FE00021E0892B09F420E0822F81952C960FB601
:100FF000F894DEBF0FBECDBFDF91CF911F910F914F
:10100000FF90EF90DF90CF90BF90AF909F900895AA
:101010008EEFECCF40E052EC61E070E0FC018281A9
:1010200093810C94373540E052EC61E070E0FC01B4
:10103000828193810C943735EF92FF921F93CF9367
:10104000DF93182FEB017A0190919B1280919C12F3
:10105000981719F00E94F434F7CF1695812F0E944B
:10106000073561E080E294E15FDA61E080E294E1DB
:101070005BDA81E00E94A63C6EE170E080E090E0E7
:101080000E941D3E41E06AE0812F0E94CB3B1092FE
:101090009C1280939B120E94F434873049F50E9481
:1010A000F4340E94F4340E94F43488830E94F434AF
:1010B00089830E94F4348A830E94F4348B831C82D7
:1010C0001D821E8290919B1280919C12981719F09C
:1010D0000E94F434F7CF84E0F701808381E00E941E
:1010E000A63C81E0DF91CF911F91FF90EF90089592
:1010F0008A3021F50E94F4340E94F4340E94F434C2
:1011000088830E94F43489830E94F4348A830E9485
:10111000F4348B830E94F4348C830E94F4348D83E6
:101120000E94F4348E8390919B1280919C129817A8
:1011300019F00E94F434F7CF87E0CECF18821982DD
:101140001A821B821C821D821E8290919B128091AA
:101150009C12981719F00E94F434F7CFF70110820F
:1011600081E00E94A63C80E0BDCFCF938091160223
:10117000893061F498E09093160220910F02293093
:1011800051F490930F021092BE110EC0813031F4D1
:1011900098E09093160280930F02F5CF8430C1F34C
:1011A0008A30B1F38B30A1F380910F0280930E024D
:1011B0009091BE11843009F4D4C0F0F4813069F10B
:1011C000823009F09AC1911108C081E08093BE116C
:1011D00085E18093BD111092B9118091BD118531C7
:1011E00009F4A1C008F08BC0882309F48BC1909149
:1011F000B911891336C086C18A3009F471C18B30A8
:1012000009F474C1893009F078C191117BC181E082
:101210008093BE1180E033DA75C1911117C08093BD
:10122000BE1184E20E94503B8093BC1185E20E9473
:10123000503BC82F8093BB118093BA1181E01FDA15
:101240008CE0C11101C08BE08093BD111092B911E7
:101250008091BD118B3041F08C30D9F0882309F496
:1012600051C18093B9114EC18093B91185E20E949A
:10127000503B8093BB119091BA11891709F442C178
:10128000882309F43FC18093BA118CE08093BD118B
:1012900039C18093B9118091B811811104C0809136
:1012A000B711882351F01092B8111092B7118091A4
:1012B00010128093B61182E0E2D985E20E94503B81
:1012C0008093BB119091BA11891709F41BC1811148
:1012D00019C1D5D984E20E94503B882341F0109275
:1012E000BD1182E080930F021092BE110BC180915C
:1012F000BC118111F4CF1092BD1183E0F3CF909116
:10130000B911863101F1873109F071CF973111F0B0
:101310008093B91185E20E94503B8093BB118111EB
:10132000F1C0ADD9E8CF9091B911953111F080930A
:10133000B91184E20E94503B892B09F0E3C081E09F
:101340009ED986E1A3CF963111F08093B91185E241
:101350000E94503B8093BB11882309F4D3C087E1DE
:1013600095CF911118C081E08093BE1184E20E9454
:10137000503B8093BC1185E20E94503BC82F809364
:10138000BB118093BA1182E07AD98BE2C11101C0FE
:1013900089E28093BD118091BD118B3209F44CC05C
:1013A000E8F4882309F4AEC0893209F020CF909187
:1013B000B911993211F08093B91185E20E94503B26
:1013C0008093BB119091BA11891709F49BC08823AF
:1013D00009F498C08093BA118BE258CF9091B9115B
:1013E0008C3209F46AC08D3209F001CF9D3211F0C0
:1013F0008093B9118091B811811104C08091B71107
:10140000882351F01092B8111092B71180911012E8
:101410008093B61181E033D985E20E94503B8093DE
:10142000BB119091BA11891709F46CC081116AC07F
:101430001092BA1124D939C09091B9119B3211F090
:101440008093B9118091B811811104C08091B711B6
:10145000882369F081E08093B5111092B811109241
:10146000B711809110128093B61181E008D985E2FE
:101470000E94503B8093BB119091BA11891709F4D7
:1014800041C081113FC01092BA11F9D884E20E9484
:10149000503B9091BC11891304C09091B5119923D0
:1014A00041F08093BC111092B5111092BD1185E0EE
:1014B00019CF82E0E4D88CE2E9CE9C3211F080931F
:1014C000B91185E20E94503B8093BB119091BA11F3
:1014D0008917C1F08823B1F08093BA118DE2D6CE7E
:1014E000911110C081E08093BE1195CE91110AC078
:1014F00081E08093BE1182E08ECE911103C081E025
:101500008093BE118091B411882361F18091BB1149
:101510009091BA11891363C08091B2119091B31167
:10152000009709F453C001979093B3118093B211BF
:101530008091B6112091B2113091B311820F932F87
:10154000911D892B79F484E20E94503B8093BC1159
:10155000882309F447C080E092D881E08093B711D6
:101560001092B8118091B111813031F483E087D8A5
:10157000811102C01092B11180917B00877F80930E
:101580007B0080E480937C0080917A00806480936B
:101590007A0080917A0086FDFCCF9091780080914E
:1015A0007900892798278927813223E0920714F14F
:1015B00060E089E10E94783B61E082E10E94783B33
:1015C00060E081E30E94783B60E024C08091B61126
:1015D000882309F4ADCF81508093B611A9CF8093B1
:1015E000BA11A6CF80E04BD881E08093B811109259
:1015F000B711B8CF61E0853F914084F089E10E9446
:10160000783B60E082E10E94783B60E081E30E94E9
:10161000783B61E080E3CF910C94783B89E10E94B4
:10162000783B61E082E10E94783B61E0CACF0C9494
:10163000F55E0F931F93CF93DF938C01EB010E9414
:10164000ED5E8883C80101960E94ED5E8983CE011C
:10165000DF91CF911F910F910895CF93DF93EB010D
:101660000E94ED5E8883CE01DF91CF910895CF92E5
:10167000DF92EF92FF920F931F93CF93DF93EB01D3
:101680007B012AE0E20EF11C8B016C01C61AD70A1D
:10169000C601800F911F0E94ED5EF80181938F01BA
:1016A000EE15FF05A9F7CE01DF91CF911F910F91A4
:1016B000FF90EF90DF90CF9008952F923F924F923E
:1016C0005F926F927F928F929F92AF92BF92CF92D2
:1016D000DF92EF92FF920F931F93CF93DF93CDB7DB
:1016E000DEB7A3970FB6F894DEBF0FBECDBF582E5E
:1016F000462E372ECE0101960E948B348B859C8519
:1017000099A388A30B811C810F5F1F4F1F8E212C73
:10171000852C912CF4013197FBA3EAA388A199A110
:1017200028161906B0F56E0196E1C90ED11C642C7D
:10173000732CF12CE12CE814F90439F1B601C8013D
:101740008E0D9F1D8ADFF30181913F01F60190818B
:10175000FFEFCF1ADF0A981318C08AA19BA1E816E1
:10176000F9067CF0BE016B5E7F4FC801019775DF03
:101770008D89851541F191E09F8F065F1F4F23945E
:10178000CDCFEFEFEE1AFE0AD6CFFF8DFF23A9F3E0
:10179000E9CF80E0A3960FB6F894DEBF0FBECDBFB1
:1017A000DF91CF911F910F91FF90EF90DF90CF903D
:1017B000BF90AF909F908F907F906F905F904F9071
:1017C0003F902F90089581E0E5CFCF93DF939C0168
:1017D000E0913C11F0913D11CF0101966AE070E07B
:1017E0000E946D5F40913A1150913B114817590783
:1017F00091F0EC01C9012AE52E9FB0012F9F700DD9
:1018000011246A54724F4AE550E00E94D134D093BB
:101810003D11C0933C11DF91CF910895AF92BF92DB
:10182000CF92DF92EF92FF920F931F93CF93DF93AC
:10183000CDB7DEB7C854D1090FB6F894DEBF0FBEDE
:10184000CDBF98E0E3E2F2E0DE01D19601900D9287
:101850009A95E1F798E0EBE2F2E0DE01D99601908B
:101860000D929A95E1F798E0E3E3F2E0DE01AF5BD9
:10187000BF4F01900D929A95E1F798E0EBE3F2E00B
:10188000DE01599601900D929A95E1F798E0E3E414
:10189000F2E0DE01919601900D929A95E1F798E0C1
:1018A000EBE4F2E0DE01999601900D929A95E1F752
:1018B00098E0E3E5F2E0DE01119601900D929A9531
:1018C000E1F798E0EBE5F2E0DE01199601900D9268
:1018D0009A95E1F798E0E3E6F2E0DE015196019097
:1018E0000D929A95E1F7FE01F19693E040E0282FE2
:1018F0002150330B89016B0130E020E0281788F478
:10190000D6015D916D017F01E20EF31ED7011196A4
:10191000FC90F51206C0201731072CF42F5F3F4FC3
:10192000EDCF442321F02081281719F141E0915097
:1019300038969111E0CFFE01799643E050E0282FD0
:101940002150330B89015B0130E020E0281798F427
:10195000D501FD905D016F01C20ED31ED601119617
:10196000EC90EF1008C0201731073CF42F5F3F4F79
:10197000EDCF91E0E0CF552321F02081281719F118
:1019800051E0415038964111DECFFE01319643E0DF
:1019900050E0282F2150330B89015B0130E020E01B
:1019A000281798F4D501FD905D016F01C20ED31E7A
:1019B000D6011196EC90EF1008C0201731073CF4C7
:1019C0002F5F3F4FEDCF92E0E0CF552321F02081F4
:1019D0002817C1F051E0415038964111DECF892FD0
:1019E000C85BDF4F0FB6F894DEBF0FBECDBFDF91EF
:1019F000CF911F910F91FF90EF90DF90CF90BF900C
:101A0000AF90089593E0EBCF2F923F924F925F9269
:101A10006F927F928F929F92AF92BF92CF92DF92FE
:101A2000EF92FF920F931F93CF93DF93CDB7DEB763
:101A3000A3970FB6F894DEBF0FBECDBF582E462E2B
:101A4000372ECE0109960E946F3489859A8599A315
:101A500088A31F8E212C85E1E82EF12C852C912C5A
:101A6000F4013197FBA3EAA388A199A128161906CE
:101A7000B0F56E0196E1C90ED11C642C732C10E0F8
:101A800000E00815190539F1B601C701800F911F53
:101A9000E4DDF30181913F01F6019081FFEFCF1A60
:101AA000DF0A981318C08AA19BA10817190784F0B0
:101AB000BE016B5E7F4FC7010197CFDD8D89851514
:101AC00041F191E09F8FFAE0EF0EF11C2394CCCF0F
:101AD0000F5F1F4FD6CFEF8DEE23A9F3E9CF80E044
:101AE000A3960FB6F894DEBF0FBECDBFDF91CF91A6
:101AF0001F910F91FF90EF90DF90CF90BF90AF902C
:101B00009F908F907F906F905F904F903F902F901D
:101B1000089581E0E5CF61E0FC0184810E94783B7B
:101B20008091041281111092041208958EBD00005C
:101B30000DB407FEFDCF8EB508958FEFF7CF8F92CE
:101B40009F92AF92BF92FF920F931F93CF93DF9319
:101B5000EC01F62E49015A018E81882379F08F819C
:101B600098859C012F5F3F4F38872F8382309240AA
:101B700010F4E3DFF4CFCE01CEDF1E82CE010E944F
:101B8000644D8CE291E00E94593E8F2D8064CEDF3F
:101B900008E110E0D501C401002E04C0B695A79558
:101BA000979587950A94D2F7C1DF08501109083F2D
:101BB0008FEF180779F785E9FF2021F028E087E803
:101BC000F2128FEFB3DF10E0B8DF8A8787FF04C01F
:101BD0001F3F11F01F5FF8CFDF91CF911F910F9141
:101BE000FF90BF90AF909F908F9008958CBD9DBD4A
:101BF0000895FC01DB0112968D919C9113979383BC
:101C0000828381EB92E09183808314968C91149768
:101C1000848315968C911597858316964D915D91C9
:101C20006D917C91199746835783608771871A96C7
:101C30004D915D916D917C911D974287538764878B
:101C400075871E964D915D916D917C915197468758
:101C50005787608B718B52968C915297828B5396DB
:101C60004D915D916D917C915697438B548B658B13
:101C7000768B57964D915D916D917C915A97478BDC
:101C8000508F618F728F5B968D919C91948F838F13
:101C90000895EF92FF920F931F93CF93DF93EC0180
:101CA0007B018A011B821A8288EE93E0A0E0B0E0FB
:101CB0008C839D83AE83BF8387EE92E09983888374
:101CC0008DE190E00E943B5C9A8F898F009779F0BC
:101CD0002DE1F701DC0101900D922A95E1F74CE02E
:101CE00050E0B801CE010C960E94B460188EDF91CE
:101CF000CF911F910F91FF90EF900895CF93DF93B5
:101D00001F92CDB7DEB741E050E0BE016F5F7F4F5D
:101D10000E94B049019731F4898190E00F90DF91E2
:101D2000CF9108958FEF9FEFF9CFFC01818D928DB8
:101D3000009709F0E3CF8FEF9FEF08950F931F9364
:101D4000CF93DF93EC01898D9A8D10E000E000972E
:101D500091F0D4DF8C010F3F100769F0898D9A8DC7
:101D6000FC0142855385648575854150510961099F
:101D700071090E947F46C801DF91CF911F910F9199
:101D800008951F920F920FB60F9211240BB60F9267
:101D90002F933F934F935F936F937F938F939F9373
:101DA000AF93BF93EF93FF93E0910A12F0910B1260
:101DB0001995FF91EF91BF91AF919F918F917F9175
:101DC0006F915F914F913F912F910F900BBE0F90AC
:101DD0000FBE0F901F9018951F920F920FB60F9283
:101DE00011240BB60F922F933F934F935F936F93F2
:101DF0007F938F939F93AF93BF93EF93FF93E09164
:101E00001A12F0911B121995FF91EF91BF91AF91AA
:101E10009F918F917F916F915F914F913F912F9102
:101E20000F900BBE0F900FBE0F901F901895109241
:101E3000751281E08093741210926F1261E084E158
:101E40000E94783B61E085E10E94783BE9EBF0E09D
:101E500080818E7F808380818D7F808388E48093E2
:101E6000B80085E48093BC000895CF93DF9391E0A0
:101E70009093C0118823B1F0C091B800D091BA00FE
:101E80008091BC008A7B8093BC0060E084E10E946A
:101E9000783B60E085E10E94783BC9DFD093BA00CF
:101EA000C093B800DF91CF91089585ED8093BC0079
:101EB0008091771290917812A0917912B0917A1254
:101EC0000796A11DB11D23E0B695A7959795879517
:101ED0002A95D1F72091BC0024FD03C01092751201
:101EE0000895409177125091781260917912709113
:101EF0007A12452B462B472B69F30097A105B105B4
:101F000041F025E32A95F1F700000197A109B109F5
:101F1000E1CF80917612A9CF1F920F920FB60F9248
:101F200011240BB60F922F933F934F935F936F93B0
:101F30007F938F939F93AF93BF93EF93FF93809182
:101F4000B900887F803609F44CC008F03FC0883261
:101F500009F4A8C028F5803109F49CC0C8F488238E
:101F600009F4FAC0883009F495C0FF91EF91BF9150
:101F7000AF919F918F917F916F915F914F913F9121
:101F80002F910F900BBE0F900FBE0F901F901895C2
:101F9000883109F487C0803241F78093731214C0EE
:101FA000803409F49CC040F48033B9F38833E9F6F7
:101FB0008093731285ECAFC0803509F484C08835F6
:101FC00009F495C0883489F670DFCFCF883909F4D9
:101FD0008CC038F5883729F050F4883611F08037F6
:101FE00021F683E0809375121092031257C088384F
:101FF00009F47BC0803919F0803809F0B6CF8091A0
:102000000312803208F071C0E091031281E08E0F5C
:10201000809303128091BB00F0E0ED51FE4E80836F
:102020003DC0803B39F0E0F4803A09F479C0883A49
:1020300009F09BCF84E0809375121092E211109208
:10204000E111E0912912F0912A1219958091E11184
:1020500081110FC081E08093E1111092C11109C07C
:10206000803C09F4A7CF883C09F4A4CF883B09F051
:102070007CCFE091E21181E08E0F8093E211F0E0DD
:10208000EF53FE4E80818093BB009091E2118091CE
:10209000E11129C0809170128093BB0085EC809380
:1020A000BC0063CF9091721280917112981758F50D
:1020B000E091721281E08E0F80937212F0E0E15B8A
:1020C000FD4E8081E9CFE091721281E08E0F809306
:1020D00072128091BB00F0E0E15BFD4E8083909135
:1020E0007212809171129817C8F285E8D8CFE091EA
:1020F000721281E08E0F809372128091BB00F0E02B
:10210000E15BFD4E80838091741281115DCF81E08F
:1021100080936F1284EA8093BC001092751225CFD1
:1021200085EC8093BC00109275128091031280326E
:1021300030F4E0910312F0E0ED51FE4E1082609118
:10214000031270E0E0912712F091281283EE91E1E2
:1021500019951092031209CF1092731235CFCF92B6
:10216000DF92EF92FF920F931F93CF93DF93C62FCF
:102170006A010EEB1FE0823411F008EC1FE0C4305E
:1021800011F0C73021F578018FEFE81AF80A6C2FAB
:10219000C8014DDA10E000E0D0E0C8018E0D9F1DAF
:1021A00060E00C171D0724F4F601E00FF11F6081B9
:1021B0003EDA0F5F1F4F0730110579F7DF91CF919E
:1021C0001F910F91FF90EF90DF90CF900895C11174
:1021D000F5CFD0E0C0E060E0CE01800F911F27DA9C
:1021E0002196C830D105B9F7E9CFFF920F931F931D
:1021F000CF93DF93EC01F62E08811981C8010E946C
:10220000ED5EF81621F06F2DC8010E94F55ECE013B
:10221000DF91CF911F910F91FF900895EF92FF9260
:102220000F931F93CF93DF931F921F92CDB7DEB70B
:102230008C017B019A838983FB016081CE01019629
:10224000D4DF0F5F1F4F1A830983F7016181CE012D
:102250000196CBDFC7010F900F90DF91CF911F91B7
:102260000F91FF90EF900895AF92BF92CF92DF92BF
:10227000EF92FF920F931F93CF93DF931F921F92C2
:10228000CDB7DEB78B016B012AE0C20ED11C7B01FA
:102290005C01A61AB70AC5018E0D9F1D9A8389831A
:1022A000F70161917F01CE0101969FDFEC14FD04DF
:1022B00091F7C8010F900F90DF91CF911F910F916F
:1022C000FF90EF90DF90CF90BF90AF900895CF93A5
:1022D000DF93CDB7DEB7E2970FB6F894DEBF0FBE3F
:1022E000CDBF89A7262FDE019A96FB019E2F921B58
:1022F000981718F491919D93F9CF81E489ABCE01A1
:1023000001960E948B3484E1FE013196DE015596E0
:1023100001900D928A95E1F78F89988D4F8D58A184
:102320006AE0649F9001659F300D1124BE01675DD6
:102330007F4F820F931F98DF8F8D98A1019698A3EE
:102340008F8FBE01615E7F4F8AE090E067DFE2968B
:102350000FB6F894DEBF0FBECDBFDF91CF910895C9
:10236000CF93DF93CDB7DEB7E2970FB6F894DEBF19
:102370000FBECDBF89A7262FDE019A96FB019E2FA7
:10238000921B981718F491919D93F9CF85E589AB2D
:10239000CE0109960E946F3484E1FE013196DE0180
:1023A000559601900D928A95E1F72D8D3E8D4AE06C
:1023B000429FC001439F900D1124BE01675D7F4F76
:1023C000449652DF8D8D9E8D01969E8F8D8FBE011E
:1023D000635E7F4F88E090E021DFE2960FB6F894CD
:1023E000DEBF0FBECDBFDF91CF9108950F931F9336
:1023F000CF93DF93082F10E0025E1D4EF801D081CD
:10240000DD2351F1C82F0E94A63B6093730D70939A
:10241000740D8093750D9093760DC093720DF80135
:102420001082C150C73080F4EC2FF0E061E08827C3
:10243000E35EFD4E8F4F0C94805F321238123E12D5
:1024400044124A125012561261E082E00E94783B18
:1024500061E083E00E94783B8D2FDF91CF911F9147
:102460000F91089582E00E94783B61E084E0F2CF12
:1024700082E00E94783B61E085E0ECCF82E00E9440
:10248000783B61E086E0E6CF82E00E94783B61E045
:1024900087E0E0CF82E00E94783B61E088E0DACF1D
:1024A00082E00E94783B61E089E0D4CF82E00E9424
:1024B000783B61E08AE0CECF0F931F93E091720DDD
:1024C000E83098F4F0E060E08827E659FD4E8F4F41
:1024D0000C94805F7212A812AA12AC12AE12B01243
:1024E000B212B41283E00E94783B8091720D883062
:1024F00030F50E94A63B8B014091730D5091740DF5
:102500006091750D7091760DE091720DDC01C8013E
:10251000841B950BA60BB70B24E0E29FF00111245E
:10252000EE5AF24F408151816281738148175907F9
:102530006A077B0720F480839183A283B3838FEFA4
:102540008093720D60E082E01F910F910C94783BB4
:1025500084E0C9CF85E0C7CF86E0C5CF87E0C3CF91
:1025600088E0C1CF89E0BFCF8AE0BDCF9F92AF9214
:10257000BF92CF92DF92EF92FF920F931F93CF9370
:10258000DF93CDB7DEB7AA970FB6F894DEBF0FBEC4
:10259000CDBF7C018B0180910F12813009F098C072
:1025A00023E130E041E150E0CE014F960E94233913
:1025B000CE014F960E949235D62E20E130E04EE0BB
:1025C00050E0B801CE0149960E942339CE014996C8
:1025D0000E949235C62E2DE030E04BE050E0B8016D
:1025E000CE0143960E942339CE0143960E94923534
:1025F000B62E22E030E050E040E0B801CE010D966A
:102600000E942339CE010D960E949235A62E25E018
:1026100030E043E050E0B801CE0107960E94233934
:10262000CE0107960E949235962E2AE030E046E0D1
:1026300050E0B801CE0101960E942339CE010196E7
:102640000E9492359B01603D774010F0205D37403D
:102650002DA39EA2AFA2B8A6C9A6DAA6CE018596E2
:102660000E945241CE0101960E949338CE010796F6
:102670000E949338CE010D960E949338CE01439666
:102680000E949338CE0149960E949338CE014F960E
:102690000E949338F70111821082138212821582F0
:1026A0001482B801C7010E949E37C701AA960FB6CF
:1026B000F894DEBF0FBECDBFDF91CF911F910F9178
:1026C000FF90EF90DF90CF90BF90AF909F900895D4
:1026D000823001F723E130E041E150E0CE014F9636
:1026E0000E942339CE014F960E949235D62E20E1CA
:1026F00030E04EE050E0B801CE0149960E94233907
:10270000CE0149960E949235C62E2DE030E04BE076
:1027100050E0B801CE0143960E942339CE01439682
:102720000E949235B62E22E030E050E040E0B80141
:10273000CE010D960E942339CE010D960E9492354E
:10274000A62E25E030E043E050E0B801CE01079628
:102750000E942339CE0107960E949235962E2AE0D8
:1027600030E046E050E0B801CE0101960E942339E6
:10277000CE0101960E9492359B01603D774010F09A
:10278000205D37402DA39EA2AFA2B8A6C9A6DAA6A7
:10279000CE0185960E94A53D65CF8F929F92AF9204
:1027A000BF92CF92DF92EF92FF920F931F93CF933E
:1027B000DF9300D000D0CDB7DEB77C01A62E6A0132
:1027C0006BE47BE00E940F398601D12CC12CB12C27
:1027D000CA14DB044CF5C114D10429F067E877E092
:1027E000C7010E948F374801F8018081803128F4A9
:1027F00064E973E0C7010E948F370F5F1F4F40E10C
:10280000F4016081CE0101960E94C638BE016F5F5F
:102810007F4FC7010E949837CE0101960E949338DE
:10282000FFEFCF1ADF0AD4CFC70126960FB6F89470
:10283000DEBF0FBECDBFDF91CF911F910F91FF90F3
:10284000EF90DF90CF90BF90AF909F908F900895C2
:102850001F93CF93DF93EC01162F65EF72E00E9478
:102860000F391730A0F4E12FF0E08827E55CFB4E2C
:102870008F4F0C94805F42144C144F145214551413
:1028800058145B146FEF72E0CE010E944A38CE01FB
:10289000DF91CF911F9108956BE073E0F5CF67E171
:1028A00073E0F2CF6DE273E0EFCF69E373E0ECCF5A
:1028B0006FE373E0E9CF63E573E0E6CF0F931F9317
:1028C000CF93DF9300D000D0CDB7DEB711E08DE914
:1028D00092E10E94BA32892B09F440C08DE992E15D
:1028E0000E94983280939F0D9091790D992351F118
:1028F0008091770D9091780D01969093780D80934B
:10290000770D809102029091030287349105A9F41A
:102910006AE673E0CE0101960E940F39BE016F5F37
:102920007F4F8AE195E10E940237082FCE01019680
:102930000E94933801111093790D1092A50D1092F9
:10294000A40DC5CF89831A8241E050E0BE016F5FBC
:102950007F4F8AE195E10E946437D3CF26960FB668
:10296000F894DEBF0FBECDBFDF91CF911F910F91C5
:102970000895A4CFAF92BF92CF92DF92EF92FF92D1
:102980000F931F93CF93DF931F921F92CDB7DEB7A4
:102990008C016B015A017A0181E0E81AF10869E7BC
:1029A00073E0C6010E9422378823D9F0BE016F5F11
:1029B0007F4FC5018F52904F0E942D0B4AE06981D5
:1029C000C8010E94C638C8010F900F90DF91CF91C7
:1029D0001F910F91FF90EF90DF90CF90BF90AF903D
:1029E00008956DE773E0C6010E942237882349F0FD
:1029F000BE016F5F7F4FC5018F52904F0E942D0B1C
:102A0000DDCF61E873E0C6010E942237882381F0A0
:102A1000C701880F991FBE016F5F7F4F8E52904F85
:102A20000E94190B69817A81C8010E945338CBCF6B
:102A300065E873E0C6010E942237882389F0C70148
:102A4000880F991FBE016F5F7F4F8E52904F0E947B
:102A5000190B69817A814AE0C8010E949B38B3CF83
:102A600069E873E0C8010E940F39ADCFEF92FF9281
:102A70000F931F93CF93DF9300D000D0CDB7DEB775
:102A80008C016BE47BE00E940F3986EFE82E8FE02B
:102A9000F82EC7010E94ED5E8F3FD1F464E973E028
:102AA000C8010E948F378FEFE81AF80AE11480E11D
:102AB000F80679F7C80126960FB6F894DEBF0FBE68
:102AC000CDBFDF91CF911F910F91FF90EF900895AF
:102AD000682FCE0101960E94EF38BE016F5F7F4FD5
:102AE000C8010E949837CE0101960E949338DBCF2F
:102AF000DF92EF92FF920F931F93CF93DF93CDB7A7
:102B0000DEB7E6970FB6F894DEBF0FBECDBF7C01EF
:102B1000D62E8A016BE47BE00E940F39CE0101962C
:102B20000E948B341016110644F421E4D21609F4E5
:102B30006BC032E4D31609F4B5C06D817E81CE013D
:102B4000C1960E94533869817A81CE018B960E948A
:102B500053386F817885CE0185960E9453386B81FA
:102B60007C81CE014F960E94533866E973E0CE0116
:102B700045960E940F39BE01615E7F4FCE0145969A
:102B80000E941A386FE973E00E940638BE016B5D3F
:102B90007F4F0E941A3867E877E00E940638BE012E
:102BA000655D7F4F0E941A386FE973E00E94063816
:102BB000BE016F5C7F4F0E941A38BC01C7010E94A2
:102BC0009837CE0145960E949338CE014F960E94C9
:102BD0009338CE0185960E949338CE018B960E9441
:102BE0009338CE01C1960E949338C701E6960FB67E
:102BF000F894DEBF0FBECDBFDF91CF911F910F9133
:102C0000FF90EF90DF9008958F819885801791074E
:102C100008F493CF8B819C81009709F48ECF0150EB
:102C200011094AE0409F9001419F300D1124BE01DF
:102C30006B5E7F4F820F931F0E94370B10E0812F36
:102C4000012E000C990B2D892817190671F26CF2D0
:102C5000E6E1F0E0EC0FFD1F8E0F9F1FFC0160818D
:102C600040E1CE018596603130F50E94C63863E9B7
:102C700073E0CE014F960E940F39BE016B5D7F4F0E
:102C8000CE014F960E941A38BC01C7010E949837A6
:102C9000CE014F960E949338CE0185960E949338BC
:102CA0001F5FCDCF8D819E818017910708F445CF9E
:102CB00089819A81B1CF0E94C63867E877E0D9CF81
:102CC000CF92DF92FF920F931F93CF93DF93CDB7F5
:102CD000DEB7E3970FB6F894DEBF0FBECDBF6C0131
:102CE000CE014C960E9411356BE47BE0CE018896B4
:102CF0000E940F3980910F128E010F5F1F4F81309C
:102D000009F00BC1C8010E94C74086E0F801DE014E
:102D10005C9601900D928A95E1F789A11F928F939D
:102D200088A11F928F938F8D1F928F938E8D1F92EC
:102D30008F938D8D1F928F938C8D90E08053984F41
:102D40009F938F938DEF93E09F938F931F930F9398
:102D50000E94DD60B801CE0188960E944A3867E87B
:102D600077E0C8010E940F39B801CE0188960E9411
:102D7000FF369C0150E040E0BE01685D7F4FCE0110
:102D80004C960E942339BE01645E7F4FCE0182962D
:102D90000E94073969E174E0CE0182960E940638EC
:102DA000BC01CE018E960E940739CE0182960E9408
:102DB0009338CE014C960E949338C8010E949338F4
:102DC0008FEF94E10E9444010FB6F894DEBF0FBE6E
:102DD000CDBF8823E1F06BE075E1C8010E940F3997
:102DE0002D813E818AA99BA92817390751F4BE017C
:102DF000625D7F4FC8010E943737FF24F394892B0F
:102E000009F0F12CC8010E949338F11015C08FEF22
:102E100094E10E944401882321F08FEF94E10E9405
:102E200028046EA57FA547E1C8010E94624CB80145
:102E30008FEF94E10E94F90267E877E0C8010E94F1
:102E40000F39B801CE0188960E94FF362CA53DA50A
:102E5000AC014F5F5F4FBE01685D7F4FCE014C9666
:102E60000E942339BE01645E7F4FCE0182960E948C
:102E7000073967E877E0CE0182960E940638B601EE
:102E80000E941A38BC018FEF94E10E94E839CE010C
:102E900082960E949338CE014C960E949338C801C6
:102EA0000E9493388FEF94E10E943A04BE01685D5E
:102EB0007F4FC8010E94073969E0C8010E94E937C5
:102EC000B6010E941A3866E773E00E940638BC011A
:102ED000CE014C960E940739CE014C960E94E50B1C
:102EE000CE014C960E949338C8010E949338CE01BF
:102EF0008E960E949338CE0188960E949338E3966E
:102F00000FB6F894DEBF0FBECDBFDF91CF911F91FA
:102F10000F91FF90DF90CF900895823009F0FDCEA1
:102F2000C8010E943C40F1CE0F931F93CF93DF93D3
:102F3000CDB7DEB767970FB6F894DEBF0FBECDBF33
:102F40008091B011882309F472C081508093B01130
:102F500080910A02882309F4A0C2815080930A025A
:102F600010910E02133069F0153009F4E4C41230E8
:102F700041F0113031F0812F8D7F11E0843009F064
:102F800010E080919111811709F446C010939111BE
:102F9000612F84EB9FE00E94F55E612FCE010C96BD
:102FA00057DC60E077E0CE0101960E940F39BE0148
:102FB000645F7F4FCE0101960E941A38BC01CE019A
:102FC00042960E940739CE0142967ADECE014296A1
:102FD0000E949338CE0101960E949338CE010C9640
:102FE0000E94933880910E028330B1F480910902DF
:102FF000882391F050E040E060E081E4B0D861E1E6
:1030000077E0CE0101960E940F39CE01019658DE7D
:10301000CE0101960E94933867960FB6F894DEBFF2
:103020000FBECDBFDF91CF911F910F91089581E029
:103030008093B01180910C0290910D02009729F0BD
:10304000019790930D0280930C02E9EAF1E187E089
:10305000DF011D928A95E9F71092A81148EA51E123
:10306000BF0182EA0E941C088823D1F109EA11E11C
:103070002091A811C801895A91412817190679F0A1
:1030800074F0F80161918F0170E090E080E040E120
:103090000E947B3987E897E00E94D139E9CF66E743
:1030A00073E08AE393E10E946C3969EA71E18091EF
:1030B000A8110E945D0B882309F4A5C080910C0221
:1030C00090910D02892B31F482E08093080284E014
:1030D0008093140285E090E090930D0280930C029F
:1030E00080910C0290910D02892B41F486E20E949E
:1030F000503B892B19F083E0809326121AE088E177
:103100000E94503B892B09F0B2C11150C1F71092B7
:10311000A01140EA51E161EA71E180EA0E941C08D5
:1031200020919E1130919F11882309F4A0C1232B77
:1031300031F082E090E090939F1180939E118091F6
:103140000B02882309F404CF10920B0282E08093D3
:10315000080214E0109314021093150200919D11BF
:103160008091A01161EA71E1011121C190919C113E
:1031700091111DC10E94040D882309F449C085E006
:1031800080931402809315021093160283E08093BB
:10319000261241EA51E16091A01182E40E94AF1031
:1031A00041EA51E16091A011CE010C96F6DA6EE190
:1031B00074E0CE0101960E940F39BE01645F7F4F1B
:1031C000CE0101960E941A3868E474E00E94063825
:1031D000BC01CE0142960E940739CE01429670DDB5
:1031E000CE0142960E949338CE0101960E949338F8
:1031F000CE010C960E94933882E090E090939F114C
:1032000080939E11A5CE10920D0210920C0268CFF1
:1032100061EA71E18091A0110E940E0C813009F4E5
:1032200043C008F48CC0823009F474C0833009F0C4
:103230008FCE41EA51E16091A011CE010C96ADDA3A
:1032400069E974E0CE0101960E940F39BE01645F06
:103250007F4FCE0101960E941A3868E474E00E9404
:103260000638BC01CE0142960E940739CE01429633
:1032700027DDCE0142960E949338CE0101960E942E
:103280009338CE010C960E94933861E080E20E9450
:10329000783B0E94014F89E0809308028CE0809384
:1032A00014028093150254CE1093080297E0909375
:1032B00014029093150280939D1141EA51E16091AF
:1032C000A011CE010C9669DA6AE474E0CE01019691
:1032D0000E940F39BE01645F7F4FCE0101960E94AC
:1032E0001A3868E474E00E940638BC01CE014296A8
:1032F0000E940739CE014296E3DCCE0142960E943D
:103300009338CE0101960E949338CE010C960E940C
:1033100093381ECE86E08093080289E080931402E1
:103320008093150281E080939C1141EA51E1609104
:10333000A011CE010C9631DA62E774E0C7CF83E0CA
:103340008093080286E0809314028093150241EA7C
:1033500051E16091A011CE010C961FDA6DEC74E082
:10336000CE0101960E940F39BE01645F7F4FCE01EE
:1033700001960E941A3868E474E00E940638BC0185
:10338000CE0142960E940739CE01429699DCCE01C9
:1033900042960E949338CE0101960E949338CE0146
:1033A0000C960E94933881E080930702D1CD0E9451
:1033B0000E0C8130B9F4002309F4CACD85E0809366
:1033C000080288E0809314028093150210929D11E8
:1033D00041EA51E16091A011CE010C96DED96CEE6C
:1033E00074E074CF8230C9F480919C11882309F471
:1033F000AFCD87E0809308028AE080931402809327
:10340000150210929C1141EA51E16091A011CE0188
:103410000C96C3D96EE175E059CF833009F498CD8D
:10342000002381F061EA71E18091A0110E94B01146
:1034300041EA51E16091A011CE010C96AED96FE442
:1034400075E044CF80919C11882309F481CD61EA15
:1034500071E18091A0110E94671141EA51E16091F0
:10346000A011CE010C9699D963E775E02FCF80911A
:103470009E1190919F11009729F0019790939F11B1
:1034800080939E1180919E1190919F11892B09F03C
:103490005FCD81E080930B025BCD81E080930A02D7
:1034A0008CE294E10E94BA32892B29F08CE294E1FB
:1034B0000E949832F5CF6AEB8CE294E10E940C33C3
:1034C00062E08CE294E10E940C3361E08CE294E1D2
:1034D0000E940C3369EB8CE294E10E940C338CE285
:1034E00094E10E94583382E390E0A0E0B0E0809342
:1034F000301490933114A0933214B093331410927B
:103500009511109296111092971110929811109295
:10351000991110929A1110929B1161E070E0CE0106
:1035200042960E94023F0197A1F01092941180915F
:10353000921190919311009709F0F7C18091921127
:1035400090919311892B09F00BCD81E080930902B2
:1035500007CD8A898D3B49F761E070E0CE010C967A
:103560000E94023F019709F76C85683011F06B30BB
:10357000E1F670E0CE0101960E94023F2C852817EB
:10358000190699F6283009F081C08B818093951136
:103590008C81809396118D81809397118E81809379
:1035A00098111092991110929A1110929B1184E027
:1035B000809394112091921130919311232B31F02B
:1035C00022E030E030939311209392119091090200
:1035D000992309F4C5CC1092090292E09093080255
:1035E00004E0009314020093150210919D1165E907
:1035F00071E1111136C190919C11911132C10E945B
:103600005D0B882309F45CC085E0809314028093ED
:10361000150281E08093160245E951E16091941111
:1036200081E40E94AF1045E951E160919411CE010F
:103630000C96B3D866E975E0CE0101960E940F3969
:10364000BE01645F7F4FCE0101960E941A3868E484
:1036500074E00E940638BC01CE0142960E940739F0
:10366000CE0142962DDBCE0142960E949338CE01C8
:1036700001960E949338CE010C960E94933882E006
:1036800090E090939311809392116ACC2B3009F0C3
:103690004CCF8B81809395118C81809396118D8175
:1036A000809397118E81809398118F8180939911C7
:1036B000888580939A11898580939B1187E078CFC4
:1036C00065E971E1809194110E940E0C813009F43A
:1036D00043C008F48DC0823009F474C0833009F00F
:1036E0003FCC45E951E160919411CE010C9655D83B
:1036F00069E076E0CE0101960E940F39BE01645F59
:103700007F4FCE0101960E941A3868E474E00E944F
:103710000638BC01CE0142960E940739CE0142967E
:10372000CFDACE0142960E949338CE0101960E94D4
:103730009338CE010C960E94933861E080E20E949B
:10374000783B0E94014F89E0809308028CE08093CF
:1037500014028093150204CC0093080297E0909322
:1037600014029093150280939D1145E951E16091F7
:103770009411CE010C9611D86CEB75E0CE01019638
:103780000E940F39BE01645F7F4FCE0101960E94F7
:103790001A3868E474E00E940638BC01CE014296F3
:1037A0000E940739CE0142968BDACE0142960E94E2
:1037B0009338CE0101960E949338CE010C960E9458
:1037C0009338CECB86E08093080289E08093140280
:1037D0008093150281E080939C1145E951E160914D
:1037E0009411CE010C960E94CD1363EE75E0C6CF06
:1037F00083E08093080286E0809314028093150290
:1038000045E951E160919411CE010C960E94CD13CF
:103810006CE376E0CE0101960E940F39BE01645F31
:103820007F4FCE0101960E941A3868E474E00E942E
:103830000638BC01CE0142960E940739CE0142965D
:103840003FDACE0142960E949338CE0101960E9443
:103850009338CE010C960E94933881E08093060243
:103860007FCB0E940E0C8130C1F4112309F478CB78
:1038700085E08093080288E080931402809315020B
:1038800010929D1145E951E160919411CE010C9681
:103890000E94CD136AE576E071CF8230D1F4809139
:1038A0009C11882309F45CCB87E0809308028AE0AE
:1038B000809314028093150210929C1145E951E106
:1038C00060919411CE010C960E94CD136BE876E0C6
:1038D00055CF833009F444CB112389F065E971E1B8
:1038E000809194110E94B01145E951E160919411C9
:1038F000CE010C960E94CD136BEB76E03FCF80910A
:103900009C11882309F42CCB65E971E18091941115
:103910000E94671145E951E160919411CE010C9626
:103920000E94CD136EED76E029CF0197909393110D
:103930008093921103CE14E024CBCF93DF9300D079
:1039400000D0CDB7DEB7BC01CE0101960E94073989
:1039500066EF7AE0CE0101960E940638BC0180E253
:1039600095E10E947E38CE0101960E94933881E055
:103970008093B50D26960FB6F894DEBF0FBECDBF6F
:10398000DF91CF910895AF92BF92CF92DF92EF92E5
:10399000FF920F931F93CF93DF93CDB7DEB76D9751
:1039A0000FB6F894DEBF0FBECDBF5C016B016BE4B8
:1039B0007BE0CE0148960E940F3906EF1FE0C80158
:1039C0000E94ED5E682FCE0101960E94EF38BE0185
:1039D0006F5F7F4FCE0148960E949837CE010196C7
:1039E0000E9493380F5F1F4F011580E1180739F7C8
:1039F0004BE050E0BE016F5F7F4FC6010E94D134A3
:103A00008E010F5F1F4F86EFE82E8FE0F82EF80132
:103A100061918F01C7010E94170BFFEFEF1AFF0A98
:103A2000E11480E1F80699F76CE577E0CE010C9699
:103A30000E940F39B601CE010C960E941A386DEF24
:103A400076E00E940638BE01685E7F4F0E941A38F9
:103A500068E474E00E940638BC01CE0142960E94E0
:103A60000739CE0142962CD9CE0142960E94933856
:103A7000CE010C960E949338B601CE010C960E949E
:103A8000073967E877E0CE010C960E940638BE0140
:103A9000685E7F4F0E941A38BC01C5010E94073939
:103AA000CE010C960E949338CE0148960E9493381E
:103AB000C5016D960FB6F894DEBF0FBECDBFDF9186
:103AC000CF911F910F91FF90EF90DF90CF90BF901B
:103AD000AF9008958F929F92AF92BF92CF92DF9254
:103AE000EF92FF920F931F93CF93DF93CDB7DEB783
:103AF000E2970FB6F894DEBF0FBECDBF6C01F62E75
:103B00008A0161EA73E0CE018B960E940F391AAAEE
:103B100019AACE0101960E948B3481E4F81639F07F
:103B200082E4F81609F45CC0F12CE12C33C0EB8080
:103B3000FC808B859C859AAB89AB10161106ECF046
:103B40006EE677E0C6010E940F39CE018B960E9487
:103B50009338C601E2960FB6F894DEBF0FBECDBF14
:103B6000DF91CF911F910F91FF90EF90DF90CF9059
:103B7000BF90AF909F908F9008958017910700F3AA
:103B800001979AAB89ABBE016F5C7F4F8AE090E0F2
:103B90000E940E11580181E0A81AB1082AE02A9D5E
:103BA000C0012B9D900D1124E80EF91E89A99AA938
:103BB000A816B90660F547018AE0880E911CBE017F
:103BC0006B5E7F4FC4010E94370BBE016B5E7F4F5F
:103BD000C7010E9434118FEFA81AB80A7401E6CF0A
:103BE000E980FA8089859A859AAB89AB101611060F
:103BF0000CF0A6CF8017910708F4A2CF01979AABDB
:103C000089ABBE016F5C7F4F88E090E0C1CF4AE096
:103C1000B801CE0185960E949B38BE01655D7F4F3D
:103C2000CE014F960E940739BE016B5D7F4FCE01DA
:103C30004F960E941A38BC01C6010E940739CE0176
:103C40004F960E949338CE0185960E9493387DCF7F
:103C50007F928F929F92AF92BF92CF92DF92EF921C
:103C6000FF920F931F93CF93DF93CDB7DEB7E0970B
:103C70000FB6F894DEBF0FBECDBF7C01762E6A0171
:103C800066E877E0CE018B960E940F39CE0101964F
:103C90000E948B3487E08D8BF60184819581449757
:103CA00010F484E08D8B5E01F5E1AF0EB11C45018F
:103CB00010E000E094012A193B098D899FEF891AD1
:103CC000990A82171306D9F0D4F098012E5F3F4F5E
:103CD000A801B601CE014F960E94233940E150E081
:103CE00070E060E08F8D98A10E94605DF4016083B8
:103CF000CE014F960E9493380D5F1F4FDBCFF1E44A
:103D00007F1649F092E4791609F475C010E000E0DE
:103D1000912C812C3CC00B851C852F813885021786
:103D20001307F0F069E877E0C7010E940F39CE0170
:103D30008B960E949338C701E0960FB6F894DEBFC9
:103D40000FBECDBFDF91CF911F910F91FF90EF90EC
:103D5000DF90CF90BF90AF909F908F907F9008950D
:103D60008B809C80BE016A5E7F4F0E945D0B882322
:103D700019F06FE977E0D8CFC801019698A38F8F2B
:103D8000BE01615E7F4F8AE090E00E940E112AE042
:103D9000209FC001219F900D1124B501880D991D10
:103DA0000E943411B8016F5F7F4FCE0185960E944B
:103DB0005338BE01655D7F4FCE014F960E94073993
:103DC000BE016B5D7F4FCE014F960E941A3867E8A7
:103DD00077E00E940638B6010E941A38BC01C7017C
:103DE0000E940739CE014F960E949338CE018596E6
:103DF0000E9493389CCF09851A852D813E81021738
:103E0000130708F08FCF89809A80BE016A5E7F4FCA
:103E10000E94040D8111ADCFC801019698A38F8F28
:103E2000BE01615E7F4F88E090E0AFCFCF92DF921E
:103E3000EF92FF920F931F93CF93DF93CDB7DEB72F
:103E4000A6970FB6F894DEBF0FBECDBF8091AD0D23
:103E5000811109C06BE47BE087EA9DE00E940F3985
:103E600081E08093AD0D8091A60D882371F0809143
:103E7000A50D90910402891740F48F5F8093A50DE2
:103E8000891718F081E08093A40DE090A30D209194
:103E900002023091030280910002909101022817E2
:103EA000390719F4EE2009F4B5C01092A20D109252
:103EB000A10DE11009C06BE47BE087EA9DE00E9460
:103EC0004A3883E0809304021092A30D1092A60D4D
:103ED000809100029091010290930302809302026C
:103EE000F8946BE47BE08AE195E10E944A3878948B
:103EF0001092A40D1092A50D84E18093A00DEE24E4
:103F0000E3941091A00D80919F0DF12C8A3009F05F
:103F1000D8C00091A60D002309F4B8C064E773E08F
:103F2000CE0101960E940F39BE016F5F7F4F8AE17B
:103F300095E10E94FF366C01CE0101960E949338F4
:103F4000D7FCA4C0F89467E773E0CE0145960E94C1
:103F50000F39BE016B5E7F4F8AE195E10E94FF360B
:103F6000F12C97FD16C067E773E0CE0101960E9421
:103F70000F39BE016F5F7F4F8AE195E10E94FF36E6
:103F8000FF24F39402970CF0F12CCE0101960E94CD
:103F90009338CE0145960E949338FF2009F443C020
:103FA00067E773E0CE0101960E940F39BE016F5F93
:103FB0007F4F8AE195E10E94FF3640911E15509196
:103FC0001F154115510509F1BC016F5F7F4FE9F0E5
:103FD0004617570708F4BA0180911A1590911B15DE
:103FE000461B570B50931F1540931E15680F791FE2
:103FF0000E94B460E0911A15F0911B1580911E1576
:1040000090911F15E80FF91F1082CE0101960E94B2
:10401000933899CF8091A00D882309F472CF8150F5
:104020008093A00D6ECF789480910202909103024C
:104030008233910509F4C8C308F09BC0863191050D
:1040400009F486C208F06DC08231910509F441C2BD
:104050002091A60D83319105B0F58B30910509F4BF
:1040600005C28C30910509F427C20A9709F07EC079
:1040700061EC77E0222309F4FDC18BE090E00111AF
:1040800023C2111191C582E190E01EC20091A60DDC
:10409000F12C002349F269EB77E0CE0101960E94F2
:1040A0000F39BE016F5F7F4F8AE195E10E940237B1
:1040B000FF24F394811101C0F12CCE0101960E94DE
:1040C000933800E0B1CF8431910509F41AC208F4A5
:1040D00013C261EE77E0222309F4CCC1002309F476
:1040E000E6C16FED77E0CE0101960E940F39BE0167
:1040F0006F5F7F4F8AE195E10E94FF368C01CE0110
:1041000001960E9493380F30110541F440E150E0D0
:104110006FE77DE08AE195E10E94D13486E190E08D
:10412000D3C18832910509F47FC2B8F42091A60D5D
:104130008F31910509F42AC28032910509F458C2E1
:104140004E97A1F46FEF77E0222309F493C1002387
:1041500009F4ADC18FE190E0B7C18A32910509F44D
:1041600012C308F4F1C28B9709F41AC38FEF90E0E1
:10417000ABC18134910509F479C508F0BAC08D331B
:10418000910509F4ECC308F06FC02091A60D8433AB
:10419000910509F45FC308F43CC3CC9739F72111AA
:1041A000C4C36BE47BE087EA9DE00E94223760EBAA
:1041B00079E081115FC16CEB79E0CE0101960E943C
:1041C0000F39BE016F5F7F4F87EA9DE00E94FF3687
:1041D0008C01CE0101960E94933860EC79E017FFC4
:1041E00049C169EE79E0CE0101960E940F39BE0106
:1041F0006F5F7F4F87EA9DE00E94FF368C01CE0102
:1042000001960E9493386EEE79E017FF33C16CEF90
:1042100079E0CE0101960E940F39BE016F5F7F4F9A
:1042200087EA9DE00E94FF368C01CE0101960E9434
:10423000933861E07AE017FF1DC168E27AE0CE01B1
:1042400001960E940F39BE016F5F7F4F87EA9DE0A4
:104250000E94FF368C01CE0101960E9493386CE2D9
:104260007AE017FF07C10AC18F33910509F45DC4D5
:1042700008F42DC4EE2031F084E68093040286E930
:104280008093A00D8091A60D8111CDC40AE58AE02E
:10429000E82EF12C80913A1190913B1120913C1124
:1042A00030913D112817390709F496C4089FB001D1
:1042B000099F700D11246A54724FCE0101960E941D
:1042C0000F39BE016F5F7F4F86E295E10E949837FC
:1042D000CE0101960E94933880913A1190913B1142
:1042E0000196B7010E946D5F90933B1180933A1144
:1042F000D1CF8734910509F4C9C608F076C083345C
:10430000910509F460C508F4C3C48534910509F02A
:104310002DCF80917D0D90917E0D892B71F4809130
:104320007B0D90917C0D892B41F4809107028823AD
:1043300009F44CC682E480937A0D10917A0DCE0177
:1043400001960E948B348B859C85113431F08985D0
:104350009A85123411F090E080E040917B0D5091ED
:104360007C0D481759070CF033C64F5F5F4F5093D1
:104370007C0D40937B0D60917A0DCE0101960E94D9
:1043800078152D813E8141E050E0BE016F5F7F4F87
:10439000CE0145960E942339BE016B5E7F4F86E2B7
:1043A00095E10E94FF368C01CE0145960E9493381C
:1043B000CE0101960E94933817FF60C040917B0D9B
:1043C00050917C0D60917A0DCE01019683DBCE0178
:1043D00001960E94933880917B0D90917C0D0197FE
:1043E00090937C0D80937B0D49C08F34910509F427
:1043F00084C28F3F910509F441C08834910509F0CA
:10440000B5CE6BE47BE087EA9DE00E944A3881E00C
:104410008093A60D8091A40D882309F4C5C38091D3
:10442000790D81111AC06AE87BE0CE0101960E94E5
:104430000F39BE016F5F7F4F8AE195E10E94FF3621
:104440008C01CE0101960E94933817FD06C08FE4BF
:1044500090E090930102809300021092780D1092E8
:10446000770D1092790D1092A40D08C021111BC078
:1044700066EC77E087EA9DE00E944A388091A60DBD
:10448000811192C38091AB0D9091AC0D892B09F4F1
:104490008BC367EA7DE08DE992E10E94E83981E013
:1044A0008093A60D8AC38CE090E001110DC011111C
:1044B0007BC38AE090E008C06EEC77E02223D1F263
:1044C00084E190E0002399F390930102809300022D
:1044D000D5CFEE2041F061E087E10E94783B8AE091
:1044E0008093A00DCBCF1111C9CF60E087E10E946E
:1044F000783B83E190E0E8CFE110C0CF1123C9F20F
:10450000BDCF68ED77E0222309F4B4CF002379F220
:104510006FED77E0CE0101960E940F39BE016F5F0B
:104520007F4F8AE195E10E94FF368C01CE01019612
:104530000E9493380F30110541F440E150E06FE8DC
:104540007DE08AE195E10E94D13485E190E0BCCF25
:104550008091A60D69EE77E0882309F48BCF0023C4
:1045600009F4A5CF62EF77E0CE0101960E940F39E2
:10457000CE0101960E947535082FCE0101960E944A
:1045800093388EE190E001119FCFB8CF66E078E0DC
:10459000222309F46FCF002309F489CF6FE078E07C
:1045A000CE0145960E940F39CE0145960E94753581
:1045B000811112C06AE178E0CE0101960E940F39A4
:1045C000CE0101960E94753501E0811101C000E025
:1045D000CE0101960E949338CE0145960E949338F1
:1045E00080E290E0011170CF81E08093A30D46CF6F
:1045F00065E278E0222309F43DCF002309F457CF88
:104600006FE278E0CE0101960E940F39CE0101964B
:104610000E947535082FCE0101960E94933888E2DA
:1046200090E0011151CF6ACF8091A60D811170C029
:104630006BE47BE087EA9DE00E94223769E378E043
:10464000811118CF67E578E0CE0101960E940F39FD
:10465000BE016F5F7F4F87EA9DE00E94FF368C01AD
:10466000CE0101960E94933817FD12C08091151259
:10467000909116126FE578E08130910509F4FACE39
:104680006BE778E0029709F4F5CE6DE978E0F2CEB9
:1046900060EC78E0CE0101960E940F39BE016F5F99
:1046A0007F4F87EA9DE00E94FF368C01CE01019684
:1046B0000E94933817FD0CC080911512909116122C
:1046C00064EC78E0029709F0D5CE6BED78E0D2CEBD
:1046D0006AEF78E0CE0101960E940F39BE016F5F4C
:1046E0007F4F87EA9DE00E94FF368C01CE01019644
:1046F0000E94933817FDC2CE809115129091161228
:104700006FEF78E0029709F0B5CE65E179E0B2CEBF
:10471000F110B9CC002309F4CACE6DE279E0CE01E4
:1047200001960E940F39BE016F5F7F4F87EA9DE0BF
:104730000E94FF368C01CE0101960E94933817FD2E
:1047400053CF89E290E0C0CE61E379E0E11092CEF0
:104750000023A1F06FE379E0CE0101960E940F39AA
:10476000CE0101960E947535182FCE0101960E9448
:104770009338112329F08CE390E0A6CE11117ECE60
:104780008AE290E0A1CE8091A60D6CE479E08823C6
:1047900069F08BE290E0F11097CE0111ECCF87CE5B
:1047A0008091A60D81110BC069E579E087EA9DE053
:1047B0000E944A388EE18093040282E391CE011177
:1047C000DFCFF110DDCF73CE8091A60D66E679E0E4
:1047D000882309F44FCE8091A40D882309F467CE75
:1047E00067E87BE0CE0101960E940F39BE016F5F42
:1047F0007F4F8AE195E10E94FF368C01CE01019640
:104800000E94933884E390E017FF5ECE83E390E04C
:104810005BCE6DE879E0222309F42CCE8091A40DC3
:10482000882309F444CE67E87BE0CE0101960E941C
:104830000F39BE016F5F7F4F8AE195E10E94FF361D
:104840007C01CE0101960E94933882E390E0F7FE4E
:104850003BCE54CE211121C06BE47BE087EA9DE082
:104860000E94223768E979E0811104CE6BE979E092
:10487000CE0101960E940F39BE016F5F7F4F87EA1C
:104880009DE00E94FF368C01CE0101960E94933874
:1048900061EA79E017FFEECDF1CD8091A40D882378
:1048A00009F405CE64EA79E0CE0145960E940F39FD
:1048B000BE016B5E7F4F87EA9DE00E94FF3610E0ED
:1048C00097FD15C06AEA79E0CE0101960E940F3982
:1048D000BE016F5F7F4F8AE195E10E94FF36192F7D
:1048E000111F1127111FCE0101960E949338CE018E
:1048F00045960E949338112319F087E490E0E4CDA7
:1049000067E87BE0CE0101960E940F39BE016F5F20
:104910007F4F8AE195E10E94FF368C01CE0101961E
:104920000E94933817FDAACD5FCE002309F4BFCDB6
:104930006EE47AE0CE0101960E940F39BE016F5FEE
:104940007F4F87EA9DE00E94FF368C01CE010196E1
:104950000E94933817FD48CE8DE390E0B5CD80914D
:10496000A60D811194C06BE47BE087EA9DE00E9474
:10497000223761E57AE081117DCD65E67AE0CE01EE
:1049800001960E940F39BE016F5F7F4F87EA9DE05D
:104990000E94FF368C01CE0101960E94933817FDCC
:1049A0005FC069E67AE0CE0101960E940F3960E2AD
:1049B00075E1CE0101960E941A386CE47AE00E94FB
:1049C0000638BC0187EA9DE00E947E38CE01019640
:1049D0000E9493386FE77DE0CE0181960E940F39E7
:1049E0006FE87DE0CE014B960E940F3969E77AE0CF
:1049F000CE0145960E940F39BE01655E7F4FCE0104
:104A000045960E941A3869E77AE00E940638BE018E
:104A10006F5D7F4F0E941A386BE77AE00E9406387C
:104A20008C016BE77AE0CE0101960E940F39A80154
:104A3000BE016F5F7F4F87EA9DE00E94EB35CE019C
:104A400001960E949338CE0145960E949338CE017C
:104A50004B960E949338CE0181960E9493380ECDDA
:104A60006DE77AE0CE0101960E940F39BE016F5FBB
:104A70007F4F87EA9DE00E94FF368C01CE010196B0
:104A80000E94933862E87AE017FFF4CCF7CC002359
:104A900009F40DCD6EE97AE0CE0101960E940F393E
:104AA000BE016F5F7F4F87EA9DE00E94FF368C0159
:104AB000CE0101960E9493388EE390E017FD94CDCD
:104AC00090930102809300021092B50DD7CCEE2096
:104AD00011F084E605CD8091B50D81113DCF209177
:104AE0003C1130913D1180913A1190913B1111236D
:104AF00069F02817390709F4C1CC6BE47BE086E242
:104B000095E10E944A388FE390E0DECC2817390700
:104B1000A1F780910702811105C0809106028823C8
:104B200009F462CD82E490E0CFCC8091A60D811192
:104B30000BC063EA7AE087EA9DE00E944A3882E38C
:104B40008093040286E9CCCC002359F16FEA7AE025
:104B5000CE0101960E940F39BE016F5F7F4F8AE13F
:104B600095E10E94FF368C01CE0101960E94933898
:104B700080E490E017FFA8CC6CEB7AE0CE010196C0
:104B80000E940F39BE016F5F7F4F8AE195E10E945D
:104B9000FF368C01CE0101960E94933817FD6ECC32
:104BA000D0CD112309F4D6CA9091A10D81E09817B8
:104BB00021F09091A20D91118CC2A6960FB6F89497
:104BC000DEBF0FBECDBFDF91CF911F910F91FF9040
:104BD000EF90DF90CF90089560912A1570912B157A
:104BE000CE0145960E94533867EC7AE0CE010196DB
:104BF0000E940F39BE016B5E7F4FCE0101960E946D
:104C00001A38BC0187EA9DE00E947E38CE010196E9
:104C10000E949338CE0145960E94933811112ECCF4
:104C20008EE390E051CC002349F081E490E0909332
:104C30000102809300021111B7CFF2CF64ED7AE048
:104C4000CE0101960E940F39BE016F5F7F4F8AE14E
:104C500095E10E94FF367C01CE0101960E949338B7
:104C6000F7FCDCCF81E08093A20DD8CFEE2031F0AD
:104C700082E38093040286E98093A00D8091A60DC3
:104C80006FED7AE0882309F4F5CB0111C9CFD3CFBA
:104C90008091A60D811167C06BE47BE087EA9DE0FF
:104CA0000E942237882309F447C060E275E1CE01F3
:104CB00001960E940739809107026DEE7AE081111A
:104CC00002C064EF7AE0CE014B960E940F3966EF86
:104CD0007AE0CE0145960E940F39AE01455E5F4FE6
:104CE000BE016B5E7F4FCE0101960E94EB35CE0177
:104CF00045960E949338CE014B960E9493386BEFF5
:104D00007AE0CE0145960E940F39BE016F5F7F4F5A
:104D1000CE0145960E941A386CE47AE00E9406386B
:104D2000BC0187EA9DE00E947E38CE0145960E9434
:104D30009338CE01019691CE6DE77AE0CE010196CF
:104D40000E940F39BE016F5F7F4F87EA9DE00E948E
:104D5000FF368C01CE0101960E9493386BE07BE018
:104D600017FF88CB8BCB8091A40D882309F463CFE8
:104D700067E87BE0CE0101960E940F39BE016F5FAC
:104D80007F4F8AE195E10E94FF367C01CE010196BA
:104D90000E949338F7FC42CF6EE97AE0CE0101968B
:104DA0000E940F39BE016F5F7F4F87EA9DE00E942E
:104DB000FF368C01CE0101960E94933817FD14CC6A
:104DC00083E490E07DCE8091A60D811128C06BE434
:104DD0007BE087EA9DE00E94223767E27BE0811159
:104DE00016C06DE27BE0CE0101960E940F39BE0134
:104DF0006F5F7F4F87EA9DE00E94FF368C01CE01F6
:104E000001960E94933817FD06C063E37BE087EAB2
:104E10009DE00E944A3884E1809304025ACE80913A
:104E2000A40D882309F407CF67E87BE0CE01019643
:104E30000E940F39BE016F5F7F4F8AE195E10E94AA
:104E4000FF367C01CE0101960E949338F7FCE6CE36
:104E500064E47BE0CE0101960E940F39BE016F5FD2
:104E60007F4F8AE195E10E94FF368C01CE010196C9
:104E70000E94933817FFB8CB63EC7AE0CE014596D9
:104E80000E940F39BE016B5E7F4F8AE195E10E945F
:104E9000FF3610E097FD15C06AE27BE0CE01019677
:104EA0000E940F39BE016F5F7F4F87EA9DE00E942D
:104EB000023711E0811101C010E0CE0101960E947D
:104EC0009338CE0145960E949338112351F080917A
:104ED0000702882319F010920702A2CE1092060250
:104EE0009FCE67E87BE0CE0145960E940F39BE0158
:104EF0006B5E7F4F8AE195E10E94FF3697FD16C0F9
:104F00006DEB79E0CE0101960E940F39BE016F5F13
:104F10007F4F8AE195E10E94FF369095192F111F6E
:104F20001127111FCE0101960E949338CE0145969C
:104F30000E949338112309F4A1CA69E47BE0CE01F1
:104F400001960E940F39BE016F5F7F4F8AE195E1A4
:104F50000E94FF368C01CE0101960E94933817FD06
:104F6000B6CF00911E1510911F150550110969E467
:104F70007BE0CE0101960E940F39BE016F5F7F4F2B
:104F80008AE195E10E94FF369801AC016AE175E182
:104F9000CE0145960E942339BE016B5E7F4F86E2AB
:104FA00095E10E949E37CE0145960E949338CE012E
:104FB00001960E94933810927E0D10927D0D1092F2
:104FC0007C0D10927B0D85E490E07ECA81E4B3C92C
:104FD00000917D0D10917E0D0F5F1F4F6AE47BE005
:104FE000CE0101960E940F39A801BE016F5F7F4F6D
:104FF00086E295E10E94E336019690937E0D8093C0
:105000007D0DCE0101960E94933840917D0D509107
:105010007E0D9A01255F3F4F66E275E1CE01019654
:105020000E942339AE014F5F5F4F60917A0DCE0130
:1050300045960E94281ECE0145960E949338CE01C7
:1050400001960E94933880917B0D90917C0D019682
:1050500090937C0D80937B0D00917D0D10917E0DC2
:105060006AE47BE0CE0101960E940F39A801BE01DF
:105070006F5F7F4F86E295E10E94E3368C01CE019F
:1050800001960E94933817FFF9C921CF8091A60D90
:105090006CE47BE0882309F4EDC98091A40D88239A
:1050A00009F405CA6FE77BE0CE0101960E940F3933
:1050B000BE016F5F7F4F8AE195E10E94FF367C0160
:1050C000CE0101960E94933888E490E0F7FEFCC977
:1050D00015CA8093A10D66E275E18DE992E10E9407
:1050E000E8396BCD8F929F92AF92BF92CF92DF92B1
:1050F000EF92FF920F931F93CF93DF93CDB7DEB75D
:10510000C056D1090FB6F894DEBF0FBECDBF809157
:10511000901191E0980F90939011837041F5E09178
:105120000802E23019F481E080934B1180914B1119
:10513000813009F46AC098F0823009F4B0C183303C
:1051400009F475C260E08FE10E94783B60E080E284
:105150000E94783B61E08EE10E94783B84C0EB3096
:1051600009F446C081E080934B110E94161F11E0A4
:105170008AE393E10E94BA32181619060CF0FBC2BA
:105180008AE393E10E949832E0911C12F0911D1283
:10519000E05BFE4E8083833251F490915011933244
:1051A00031F010921D1210921C12809350118091B8
:1051B00050118332E9F680911C1290911D12FC016E
:1051C000E05BFE4E20812D3011F410934F110196BB
:1051D00090931D1280931C12803491054CF28091A3
:1051E0004F118111C5CF10921D1210921C12C0CF09
:1051F00080911502853111F082E0B5CF80911402C3
:105200008F3109F4B2CF83E0AECFE250EA30B8F488
:10521000F0E08827E15FF64D8F4F0C94805F1929ED
:105220003E29552987299B29AF29C329062A1F29E9
:10523000262980914A118823C9F0813071F10E949A
:10524000360310924A118BE0809308028091080285
:105250008B3091F680911502853171F680911402A0
:105260008F3109F0C9CF10924B117FCF88EE93E0B8
:105270000E94C50281E0809349110CC080914A11BF
:105280008111DBCF8DE491E00E94C50282E0809322
:10529000491181E080934A11D9CF80914911882327
:1052A00071F2815080934911D1CF80914A1182309F
:1052B00009F47FC078F48823F9F0813009F0BFCF7A
:1052C000809149118111EDCF0E943603109248114F
:1052D00082E0E0CF843009F475C0843008F4B3C0B4
:1052E000853009F0ACCF809149118111DACF0E944D
:1052F000360310924811A5CF80ED97E0B9CF84EC2A
:1053000099E00E94C5021092491183E0C3CF8091B9
:105310004A11823009F490C028F48111CECF8CED6F
:1053200095E0A6CF8430C9F680914811811146C01E
:1053300080ED97E04DC0E0914A11E83008F07FCF52
:10534000F0E08827E955F64D8F4F0C94805F7C295B
:105350006029D929232AE2292D2AEE297329E091EF
:105360004A11E83008F06BCFF0E08827E554F64D9D
:105370008F4F0C94805F8F2960291C2A232A94293F
:105380002D2A372A7329E0914A11EA3008F057CFC5
:10539000F0E08827E153F64D8F4F0C94805F7C2915
:1053A0006029D929232AE2292D2AEE293E2AFA2921
:1053B000732980914811882309F4A1CF81508093EB
:1053C000481144CF809148118111F8CF84EC99E0C5
:1053D0000E94C5021092491185E05CCF809148116E
:1053E0008111ECCF84EC99E00E94C5021092491122
:1053F00087E050CF809148118111E0CF84EC99E093
:105400000E94C5021092491189E044CFE0914A11EF
:10541000EA3008F014CFF0E08827EE5EF54D8F4FAC
:105420000C94805F8F2960291C2A232A94292D2A15
:10543000372A3E2A482A7329809148118111BECF0C
:1054400080ED97E05ECF8091491181112ACF0E94B3
:1054500036031092481184E01DCF809149118111CB
:1054600020CF0E9436031092481186E013CF80911E
:1054700048118111A3CF80ED97E0B6CF80914911FB
:1054800081110FCF0E9436031092481188E002CF9D
:1054900080914811811192CF80ED97E0B1CFE091DA
:1054A0001502E350E331D0F4F0E08827E55AF54DDA
:1054B0008F4F0C94805F852A6E2A6E2A872ABC2A19
:1054C0006E2ADE2A6E2AFC2A6E2A852A6E2A6E2A07
:1054D0006E2A6E2A6E2A6E2A6E2A752A60E080E293
:1054E0000E94783B85E180931502809108028B3001
:1054F00009F089CE80911502853109F084CE809122
:1055000014028F3109F07FCEAECE61E0E8CF8091FA
:1055100047118130B1F068F0823031F160E080E213
:105520000E94783B61E08EE10E94783B1092471127
:10553000D9CF61E080E20E94783B85E080934611FC
:105540002EC080914611882321F08150809346110E
:10555000CCCF60E080E20E94783B83E080934511ED
:1055600082E080934711C1CF809145118823D1F209
:10557000815080934511B9CF10914711112329F023
:10558000113079F060E080E2CFCF80914511811138
:10559000EFCF61E080E20E94783B1092461181E0FB
:1055A000E0CF809146118111D0CF60E080E20E946F
:1055B000783B109345111092471197CF8091471176
:1055C000882371F08130F1F6809146118111BDCFB1
:1055D00060E080E20E94783B82E080934511EBCF4F
:1055E000809145118111C4CF61E080E20E94783B37
:1055F00081E080934611B5CF80914711882369F0EF
:10560000813009F0BFCF8091461181119ECF60E0BB
:1056100080E20E94783B83E0E0CF809145118111C8
:10562000A7CF61E080E20E94783B82E087CF809143
:1056300014028730A9F170F4843049F1863011F0FA
:10564000823079F460E08EE10E94783B8FE18093B4
:1056500014020DC08B3009F471C028F4893009F4AC
:105660004DC061E0F0CF8D3069F38F31D1F780917B
:1056700008028B3009F076CD80911502853109F052
:1056800071CD809114028F3109F06CCDECCD8EE19B
:105690000E94503B61E068278EE10E94783BE7CF93
:1056A00010914411112349F01130B9F060E08EE1FE
:1056B0000E94783B10924411C9CF809143118823F6
:1056C00021F0815080934311D2CF61E08EE10E949E
:1056D000783B1092421181E02EC0809142118823C4
:1056E00021F0815080934211C2CF60E08EE10E9490
:1056F000783B1093431110924411B9CF809144111B
:10570000882371F0813091F6809142118111E9CFA7
:1057100060E08EE10E94783B82E080934311EBCF02
:10572000809143118111CDCF61E08EE10E94783BE1
:1057300081E0809342118093441199CF809144116C
:10574000882369F0813009F0B1CF80914211811135
:10575000C8CF60E08EE10E94783B83E0DECF80918D
:1057600043118111AECF61E08EE10E94783B82E06F
:1057700080934211B0CF80914F11882309F4E4C087
:1057800060E571E1CE0101960E940F3924E030E01E
:1057900041E050E0BE016F5F7F4FCE014C960E940A
:1057A0002339BE01645E7F4F8CE295E10E949E37F3
:1057B000CE014C960E949338CE0101960E949338F8
:1057C00060E571E1CE0101960E940F3920911C1213
:1057D00030911D122150310945E050E0BE016F5F4C
:1057E0007F4FCE014C960E942339BE01645E7F4FED
:1057F00082E395E10E949E37CE014C960E94933839
:10580000CE0101960E94933861E97BE0CE010196BA
:105810000E940F39BE016F5F7F4FCE014C960E94F0
:1058200007396CE275E1CE014C960E941A3860E2AD
:105830000E94E937BC0188E395E10E947E38CE01E1
:105840004C960E949338CE0101960E94933881E0D5
:1058500080934E1163E97BE08CE295E10E94223750
:105860006BE672E081110AC66BEF78E08CE295E19D
:105870000E942237882361F0CE0101960E943615DE
:10588000BE016F5F7F4F88E395E10E9498372CC07F
:1058900067E97BE08CE295E10E942237882339F1A9
:1058A00062E375E1CE0101960E940739BE016F5F88
:1058B0007F4FCE014C960E94C31CBE01645E7F4F99
:1058C00088E395E10E949837CE014C960E94933868
:1058D000CE0101960E949338CE0101960E943615A2
:1058E000CE0101960E949D1CCE01019610C16BE96C
:1058F0007BE08CE295E10E9422378823C9F1109267
:105900004E1180914E118823C9F068E375E1CE01F4
:1059100001960E9407396DE0CE0101960E94E93799
:10592000FC0144815581608171818AE393E1ABD5AB
:10593000CE0101960E94933810924E1110921D12C2
:1059400010921C1210924F11C05ADF4F0FB6F894EC
:10595000DEBF0FBECDBFDF91CF911F910F91FF90A2
:10596000EF90DF90CF90BF90AF909F908F90089571
:105970006FE97BE08CE295E10E942237882359F0A1
:1059800088E19CE00FB6F894A895809360000FBE64
:1059900090936000B6CF63EA7BE08CE295E10E94D1
:1059A0002237882309F4BEC0CE018B5A9F4F0E9434
:1059B000113580910F12813009F0ACC0CE010196F3
:1059C0000E94C74086E0FE013196DE01AB5ABF4F10
:1059D00001900D928A95E1F74AE06B966FAD6B9757
:1059E000CE0101960E94C6384AE06A966FAD6A976A
:1059F000CE014C960E94C6384AE069966FAD699711
:105A0000CE01C7960E94C63866966FAD669770E065
:105A10006053784FCE01CD960E9453384AE0679686
:105A20006FAD6797CE018D5B9F4F0E94C6384AE0ED
:105A300068966FAD6897CE01815B9F4F0E94C63814
:105A4000BE01615B7F4FCE01875B9F4F0E9407398C
:105A50006BE77AE0CE01875B9F4F0E940638BE015C
:105A60006D5B7F4F0E941A386BE77AE00E94063820
:105A7000BE01635C7F4F0E941A3869E77AE00E949A
:105A80000638BE01695C7F4F0E941A3867EA7BE0E6
:105A90000E940638BE01645E7F4F0E941A3867EA92
:105AA0007BE00E940638BE016F5F7F4F0E941A386C
:105AB000BC01CE01855A9F4F0E940739CE01875BFA
:105AC0009F4F0E949338CE01815B9F4F0E94933875
:105AD000CE018D5B9F4F0E949338CE01CD960E94E0
