:020000040000FA
:100000000C947E050C94AF050C94AF050C94AF05D1
:100010000C94AF050C94AF050C94AF050C94AF0590
:100020000C94AF050C94AF050C94AF050C94AF0580
:100030000C94AF050C94AF050C94AF050C94AF0570
:100040000C94AF050C94AF050C94AF050C94AF0560
:100050000C94CC450C94AF050C94AF050C948245E0
:100060000C94AF050C9458450C942E450C94AF0598
:100070000C94AF050C94AF050C94AF050C94AF0530
:100080000C94AF050C94AF050C94AF050C94F74598
:100090000C9404450C94DA440C94AF050C9422465D
:1000A0000C94AF050C94AF050C94AF050C94AF0500
:1000B0000C94AF050C94AF050C94AF050C94AF05F0
:1000C0000C94AF050C94AF050C94AF050C94B044A0
:1000D0000C9486440C94AF050C945C440C9432440C
:1000E0000C94AF050C948A4F0C94AC340C94E31F21
:1000F0000C946E1A0C94E8070C9469080C94C907C8
:100100000C94E91F0C9494350C9452350C94EE1613
:100110000C94BD280C940A080C94CC280C94302D17
:100120000C9415150C94B3280C94EE070C9400084D
:100130000C94B61B0C94D3340C9425150C94D42B2E
:100140000C943A350C94152C0C9409080C94472007
:100150000C94CB1F0C94C1350C944F200C94683533
:100160000C94F5140C9443200C94C3280C94413641
:100170000C94EC140C94A1340C9483350C94233619
:100180000C94DD1F0C94F6070C9465340C942F0628
:100190000C94DB070C946F350C94C8340C947706E0
:1001A0000C94E4070C9490160C9401360C94DE0722
:1001B0000C9425350C94F6150C94A8060C945E1A34
:1001C0000C944D200C944B200C94FE060C942E3570
:1001D0000C94DB340C94BA350C947F140C94E734F3
:1001E0000C9446350C948A340C9488170C94C028CF
:1001F0000C94B1050C9479350C94D3070C946607D4
:100200000C9486060C94711C0C940F350C944215BA
:100210000C94A24F0C9472340C94D5170C943006A5
:100220000C9479150C94422C0C9404080C9494179B
:100230000C9431060C940E080C94D11F0C948A3542
:100240000C946F150C940D200C94CC350C94D71F86
:100250000C94C6280C945F1A0C94C51F0C94D707F5
:100260000C949A060C9445200C942E060C946B3436
:100270000C94CF070C9479120C94BF340C94A21AEE
:100280000C94FC070C94CA350C94FB340C94751A2E
:100290000C94F2070C9449200C94C9280C94E03477
:1002A000204665686C65722000200020300046659D
:1002B000686C65723A206578697374696572742038
:1002C00062657265697473004665686C65723A2090
:1002D000537065696368657220766F6C6C00466563
:1002E000686C65723A206578697374696572742008
:1002F00062657265697473004665686C65723A2060
:10030000537065696368657220766F6C6C00466532
:10031000686C65723A206E6963687420766F7268E3
:10032000616E64656E004665686C65723A206E6940
:1003300063687420766F7268616E64656E005365E1
:100340007269656E6E756D6D6572206E65752800DB
:100350002920616C74280042657A656963686E754E
:100360006E67206E657528002920616C7428005422
:1003700079706665686C65720031362D0031362BF8
:100380000030382D0030382B00506172616D65747B
:10039000657220454550524F4D2800293A200020D3
:1003A0003D20005479706665686C65720031362DA9
:1003B00000576572746665686C65720031362B0093
:1003C000576572746665686C65720030382D005729
:1003D0006572746665686C65720030382B0046651E
:1003E000686C65723A204B61727465206E6963684F
:1003F0007420766F7268616E64656E004665686C25
:1004000065723A204461746569206E69636874207E
:10041000766F7268616E64656E00446174656965CB
:100420006E6465004665686C65723A204B61727453
:1004300065206E6963687420766F7268616E6465AA
:100440006E004665686C65723A2044617465692087
:100450006E6963687420766F7268616E64656E00A1
:100460004665686C65723A204461746569206E69FE
:1004700063687420656E746665726E7400756E6272
:10048000656B616E6E7400300020004665686C65B7
:10049000723A204B61727465206E696368742076CD
:1004A0006F7268616E64656E004665686C65723A6D
:1004B000204461746569206E6963687420766F7288
:1004C00068616E64656E004665686C65723A204BC3
:1004D00061727465206E6963687420766F726861FA
:1004E0006E64656E00204164726573736665686C46
:1004F00065720030002000300030300030303000B5
:10050000303030303030303030300064656C6574FD
:1005100065303030300030303030303030303030D6
:1005200000495442315F31323072315F44004665D8
:10053000686C65723A20417274696B656C206E69F3
:100540006368742065696E67656C656774005363E2
:10055000686C6F73737A757374616E643A200041CE
:100560007274696B656C616E6D656C64756E673A0B
:10057000206E6575657220417274696B656C202808
:1005800000417274696B656C616E6D656C64756E4B
:10059000673A206E657565722042656E75747A657E
:1005A00072202800417274696B656C616E6D656CB8
:1005B00064756E673A20417274696B656C204C6596
:1005C000726E766F7267616E67206265656E6465D4
:1005D00074202800417274696B656C616E6D656C86
:1005E00064756E673A2042656E75747A6572204C48
:1005F00065726E766F7267616E67206265656E64A4
:100600006574202800417274696B656C616E6D655C
:100610006C64756E673A20756E62656B616E6E74A0
:10062000202800417274696B656C616E6D656C6445
:10063000756E673A2042656E75747A657220756EC4
:100640006420417274696B656C20656E74666572B6
:100650006E656E202800417274696B656C616E6D09
:10066000656C64756E673A20417274696B656C20C5
:1006700065696E6C65726E656E20280041727469E2
:100680006B656C616E6D656C64756E673A20426572
:100690006E75747A65722065696E6C65726E656ED2
:1006A000202800417274696B656C616E6D656C64C5
:1006B000756E673A207370657272656E20616B7437
:1006C00069766965727420280042656E75747A6572
:1006D00072616E6D656C64756E673A206E657565E6
:1006E0007220417274696B656C20280042656E75DA
:1006F000747A6572616E6D656C64756E673A206EB2
:10070000657565722042656E75747A657220280081
:1007100042656E75747A6572616E6D656C64756E36
:10072000673A20417274696B656C204C65726E7615
:100730006F7267616E67206265656E6465742028FC
:100740000042656E75747A6572616E6D656C647574
:100750006E673A2042656E75747A6572204C6572D8
:100760006E766F7267616E67206265656E64657430
:1007700020280042656E75747A6572616E6D656CD5
:1007800064756E673A20756E62656B616E6E74207B
:10079000280042656E75747A6572616E6D656C6471
:1007A000756E673A2042656E75747A657220756E53
:1007B0006420417274696B656C20656E7466657245
:1007C0006E656E20280042656E75747A6572616E82
:1007D0006D656C64756E673A20417274696B656C07
:1007E0002065696E6C65726E656E20280042656ECC
:1007F00075747A6572616E6D656C64756E673A20AA
:1008000042656E75747A65722065696E6C65726E8C
:10081000656E20280042656E75747A6572616E6D32
:10082000656C64756E673A20656E7473706572727C
:10083000656E20616B746976696572742028007C2E
:100840003C3E5E2B3D3F2F5B5D3B2C2A225C000033
:10085000002200250028002B002E00310034000269
:10086000010000050108010B010000200023002603
:100870000029002C002F00320000010000030106B7
:1008800001090100000A0B02090C0D0E0807030400
:100890000100000000000000000000000000000057
:1008A0000000000000000000000000000000001236
:1008B0001110000000000000000000000000000017
:1008C0000000000000000000005254432044533157
:1008D00033303720747279656420746F20696E69D3
:1008E0007469616C6963650023494E462000525467
:1008F00043206E6F7420646574656374656420645E
:10090000656661756C742044533133303700234978
:100910004E46200052544320445331333037206E2A
:100920006F7420696E697469616C696365642073B2
:100930006F20747279656420746F20696E697469C0
:10094000616C6963650023494E4620005254432080
:1009500044533133303720646574656374656400D3
:1009600023494E46200052544320504346383532E6
:1009700033206E6F7420696E697469616C69636598
:10098000642C20736F20747279656420746F206901
:100990006E697469616C6963650023494E46200085
:1009A00052544320504346383532332064657465D1
:1009B000637465640023494E46200020005254436E
:1009C00020445331333037200023494E4620002045
:1009D00000525443205043463835323320002349D7
:1009E0004E46200069203D200023494E462000420B
:1009F0006F6F74766F7267616E673A2061626765C8
:100A00007363686C6F7373656E2056284954423166
:100A10005F31323072315F44290044696769746123
:100A20006C657220486175736D6569737465723A9F
:100A300020656E747370657272656E20616B746987
:100A400076696572740000002100240027002A00E6
:100A50002D003000330001010000040107010A01EC
:100A600001021020200808102040102040800201C0
:100A700002010804020101020408102040808040A5
:100A800020100804020180040201804020100804A4
:100A90000201080402010102040810204080010242
:100AA000040810204080050505050705080808080A
:100AB000020202020A0A08080404040401010101F6
:100AC00001010101030303030303030304070707F1
:100AD0000C0C0C0C0C0C0C0C020202020606060696
:100AE000060606060B0B0B0B0B0B0B0B1F1C1F1E1E
:100AF0001F1E1F1F1E1F1E00A24F8A4F11241FBE44
:100B0000CFEFD1E2DEBFCDBF00E00CBF14E0A0E02C
:100B1000B2E0E4EEF0EC00E00BBF02C007900D92F3
:100B2000A236B107D9F720E1A2E6B4E001C01D92D8
:100B3000A232B207E1F715E0CDE7D5E000E006C04C
:100B400021970109802FFE010E94395CCC37D10723
:100B500080E00807A9F70E941D510C9460600C9476
:100B6000000090914A08809149082FEF3FEF9817B5
:100B700048F4E92FF0E0E75DF74F208130E09F5F18
:100B800090934A08C901089590914A0880914908B4
:100B90002FEF3FEF981748F4E92FF0E0E75DF74FAC
:100BA000208130E09F5F90934A08C901089591E049
:100BB0009093D9078093FB071092DA071092FC07F5
:100BC0000895DC0115961C92159714961C921497A3
:100BD00013961C9213971C9281E011968C93119797
:100BE00011968C9111978C3070F4282F2150330B73
:100BF000F901E451F54FE491823009F4EF5FE1111E
:100C000002C08F5FEACF81E012968C930895FC01B9
:100C1000A089B18982E08C93A485B5851C92A685B4
:100C2000B78580E18C93108EA489B58986E08C937A
:100C3000A289B3898C9180618C93A289B3898C91AC
:100C400088608C93A289B3898C9180688C93028888
:100C5000F389E02D80818F7D808308950895089524
:100C60000895AF92BF92CF92DF92EF92FF920F93CF
:100C70001F93CF93DF936C017B018B01040F151F32
:100C8000EB015E01AE18BF08C017D10759F069919A
:100C9000D601ED91FC910190F081E02DC6011995EE
:100CA000892B79F7C501DF91CF911F910F91FF90AB
:100CB000EF90DF90CF90BF90AF900895FC01A08996
:100CC000B1898C91A689B78982FD0FC09C91818DD5
:100CD0008F5F8F73228D821749F0A18DAE0FBF2FCA
:100CE000B11D5D969C93818F08958C910895FC01B0
:100CF000538D448D252F30E0842F90E0821B930B81
:100D0000541710F0CF96089501970895FC01918D26
:100D1000828D981761F0A28DAE0FBF2FB11D5D9629
:100D20008C91928D9F5F9F73928F90E008958FEFCB
:100D30009FEF0895FC01918D828D981731F0828D7F
:100D4000E80FF11D858D90E008958FEF9FEF0895D6
:100D5000FC01918D228D892F90E0805C9F4F821B3A
:100D600091098F73992708958BE49AE00E94A80651
:100D700021E0892B09F420E0822F08958CE19EE088
:100D80000E94A80621E0892B09F420E0822F089513
:100D90008EEB9EE00E94A80621E0892B09F420E05A
:100DA000822F089588EE9AE00E94A80621E0892B00
:100DB00009F420E0822F0895FC01A48DA80FB92F1B
:100DC000B11DA35ABF4F2C91848D90E001968F7373
:100DD0009927848FA689B7892C93A089B1898C9192
:100DE000837080648C93938D848D981306C00288E1
:100DF000F389E02D80818F7D80830895EF92FF92AB
:100E00000F931F93CF93DF93EC0181E0888F9B8D2D
:100E10008C8D98131AC0E889F989808185FF15C0E7
:100E20009FB7F894EE89FF896083E889F98980810A
:100E30008370806480839FBF81E090E0DF91CF91D9
:100E40001F910F91FF90EF900895F62E0B8D10E0FB
:100E50000F5F1F4F0F731127E02E8C8D8E110CC06A
:100E60000FB607FCFACFE889F989808185FFF5CFB5
:100E7000CE010E94DC06F1CFEB8DEC0FFD2FF11DB2
:100E8000E35AFF4FF0829FB7F8940B8FEA89FB89F2
:100E900080818062CFCF0F931F93CF93DF938C011C
:100EA000D0E0C0E0F801EC0FFD1F6491662341F033
:100EB00088EE9AE00E94FE06892B11F02196F2CF6F
:100EC000CE01DF91CF911F910F910895CF93DF93C2
:100ED000EC01888D8823B9F0AA89BB89E889F98952
:100EE0008C9185FD03C0808186FD0DC00FB607FC87
:100EF000F7CF8C9185FFF2CF808185FFEDCFCE01BA
:100F00000E94DC06E9CFDF91CF91089580E090E068
:100F1000892B29F00E94D20681110E94000080E0F6
:100F200090E0892B29F00E94C80681110E940000E0
:100F300080E090E0892B29F00E94BE0681110E947A
:100F4000000080E090E0892B29F00E94B406811116
:100F50000C94000008958150823108F05AC0E82FA7
:100F6000F0E08827E954F84F8F4F0C94395CD7078D
:100F7000DB07C907CF07D3070908DE07E407E8073F
:100F8000EE07F207F607FC070008090804080A083C
:100F90000E08809180008F77809380000895809163
:100FA00080008F7DF9CF80918000877FF5CF84B559
:100FB0008F7784BD089584B58F7DFBCF8091B0007D
:100FC0008F778093B00008958091B0008F7DF9CF26
:100FD000809190008F778093900008958091900089
:100FE0008F7DF9CF80919000877FF5CF8091A00011
:100FF0008F778093A00008958091A0008F7DF9CF16
:101000008091A000877FF5CF809120018F7780931A
:1010100020010895809120018F7DF9CF80912001DA
:10102000877FF5CFCF93DF93282F30E0F901ED577D
:10103000F74F8491F901E05AF54FD491F901EA553F
:10104000F54FC491CC23A1F081110E94AB07EC2F86
:10105000F0E0EE0FFF1FE759F74FA591B491EC9127
:10106000ED2381E090E009F480E0DF91CF910895D5
:1010700080E090E0FACF1F93CF93DF93282F30E0EA
:10108000F901ED57F74F8491F901E05AF54FD491EA
:10109000F901EA55F54FC491CC23A9F0162F81111F
:1010A0000E94AB07EC2FF0E0EE0FFF1FE15BF74F64
:1010B000A591B4918FB7F894EC91111108C0D09517
:1010C000DE23DC938FBFDF91CF911F910895DE2B3C
:1010D000F8CFCF93C09125076C2F8FE10E943B087A
:1010E00081E0C827C0932507CF910895CF93DF9360
:1010F00090E0FC01E05AF54F24918A55954FFC0190
:1011000084918823D1F090E0880F991FFC01EA5B5D
:10111000F54FA591B491FC01E15BF74FC591D491D6
:1011200061110EC09FB7F8948C91E22FE0958E2349
:101130008C932881E223E8839FBFDF91CF910895AC
:101140008FB7F894EC91E22BEC938FBFF6CF3FB7BB
:10115000F8948091780790917907A0917A07B091DF
:101160007B0726B5A89B05C02F3F19F00196A11D4E
:10117000B11D3FBFBA2FA92F982F8827BC01CD01E1
:10118000620F711D811D911D42E0660F771F881F40
:10119000991F4A95D1F708958F929F92AF92BF926F
:1011A000CF92DF92EF92FF924B015C010E94A70861
:1011B0006B017C010E94A7086C197D098E099F09AB
:1011C000683E734081059105A8F321E0821A9108D9
:1011D000A108B10888EEC80E83E0D81EE11CF11CFE
:1011E00081149104A104B10429F7FF90EF90DF90DE
:1011F000CF90BF90AF909F908F9008952FB7F894A5
:1012000060917407709175078091760790917707C8
:101210002FBF08958F929F92AF92BF92CF92DF928D
:10122000EF92FF920F931F93CF93DF937C018C017A
:10123000060F171FEC016E01CE18DF080C171D07F3
:1012400059F10E94FE086093240E7093250E80933E
:10125000260E9093270E8CE19EE00E94860697FF53
:1012600029C00E94FE088090240E9090250EA09028
:10127000260EB090270E681979098A099B0980907B
:10128000200E9090210EA090220EB090230E681593
:1012900079058A059B05F8F2C601DF91CF911F9170
:1012A0000F91FF90EF90DF90CF90BF90AF909F9005
:1012B0008F9008958993BFCF8FB7F89480916B0773
:1012C0008FBF089561E0FC0184810E943B088091FA
:1012D0006A07811110926A0708958EBD00000DB44F
:1012E00007FEFDCF8EB508958FEF0C946D090F9317
:1012F0001F93CF93DF93EC010E94FE088B010E94A5
:1013000074098F3F69F00E94FE08601B710B6C1717
:101310007D07A8F380E0DF91CF911F910F91089591
:1013200081E0F9CF8CBD9DBD0895CF93DF93EC0193
:1013300080916A07811109C081E080936A078091DA
:10134000850B9091860B0E94920960E08C81DF9161
:10135000CF910C943B088F929F92AF92BF92FF92D5
:101360000F931F93CF93DF93EC01F62E49015A019F
:101370008E81882389F08F8198859C012F5F3F4F54
:1013800038872F838230924018F40E947409F3CF7B
:10139000CE010E9462091E82CE010E9495098CE254
:1013A00091E00E9477098F2D80640E946D0908E109
:1013B00010E0D501C401002E04C0B695A7959795FD
:1013C00087950A94D2F70E946D0908501109083FC9
:1013D0008FEF180771F785E9FF2021F028E087E8F3
:1013E000F2128FEF0E946D0910E00E9474098A8743
:1013F00087FF04C01F3F11F01F5FF7CFDF91CF9130
:101400001F910F91FF90BF90AF909F908F90089584
:101410008F929F92AF92BF92EF92FF920F931F9382
:10142000CF93DF93EC011B8619861E821D826C838D
:101430000E94FE088B0161E08C810E94760861E0C9
:101440008C810E943B08FFB6F8948091D8078111E7
:1014500027C0EBEDFAE08491E5E9FAE09491E82FFA
:10146000F0E0EE0FFF1FEA5BF54FA591B491EC9110
:10147000E92321F461E085E30E943B0861E085E314
:101480000E9476088CB580618CBD8CB580648CBD63
:1014900061E084E30E94760861E083E30E947608BD
:1014A0008091D8078F5F8093D807FFBE82E5809335
:1014B000850B1092860B8091850B9091860B0E9474
:1014C00092092AE0F22E8FEF0E946D09FA94F11032
:1014D000FACFCE010E94950920E030E0A90160E03A
:1014E000CE010E94AB09F82E8A8781E0F816C9F078
:1014F0000E94FE08601B710B613D774068F381E03C
:101500008D83CE010E946209F12C8F2DDF91CF9146
:101510001F910F91FF90EF90BF90AF909F908F9091
:1015200008952AEA31E040E050E068E0CE010E94F0
:10153000AB0982FF25C0FB868B85812C912C540141
:10154000823029F4812C912CA12C80E4B82E20E04B
:1015500030E0A90167E3CE010E94AB09A501940127
:1015600069E2CE010E94AB098A878823C1F00E94FC
:10157000FE08601B710B613D774048F388E0C0CFE7
:1015800094E0E92E0E9474098A87EA94E110FACF68
:101590008A3A11F082E0B4CF82E08B87CDCF8B8581
:1015A0008230C1F420E030E0A9016AE3CE010E945C
:1015B000AB09882311F086E0A3CF0E947409807CD8
:1015C000803C11F483E08B870E9474090E947409A7
:1015D0000E947409CE010E94620980E58093850B08
:1015E0001092860B92CFAF92BF92CF92DF92EF9282
:1015F000FF920F931F93CF93DF93EC016901C80112
:10160000820F931F8130924050F58E81882379F0AC
:1016100088819981AA81BB8184179507A607B7079E
:1016200031F48F819885C816D90608F042C04883E6
:1016300059836A837B838B85833039F089E0440F3B
:10164000551F661F771F8A95D1F79A01AB0161E19B
:10165000CE010E94AB09882389F083E08D83CE01FF
:101660000E94620980E0DF91CF911F910F91FF905E
:10167000EF90DF90CF90BF90AF9008950E94FE084A
:101680005B010E9474098A878F3F69F40E94FE08FB
:101690006A197B096D327140A0F38FE08D83CE0112
:1016A0000E946209DCCF8E3F89F418861F8281E098
:1016B0008E838F8198858C159D0550F40E94740946
:1016C0008F819885019698878F83F3CF8DE0E6CF41
:1016D0006701E00EF11E0E947409F60181936F010B
:1016E000EE15FF05C1F78F819885080F191F188720
:1016F0000F838985882319F001151240A0F08E818F
:10170000882389F08F8198859C012F5F3F4F388710
:101710002F838230924018F40E947409F3CFCE01D7
:101720000E9462091E8281E09ECFCF92DF92EF92EB
:10173000FF920F93CF93DF93EC01690182E1411592
:1017400051056105710599F08B85833039F089E089
:10175000440F551F661F771F8A95D1F79A01AB0179
:1017600068E1CE010E94AB09882319F084E08D83E3
:101770002DC08EEF0E946D0976018EEFD81AF70109
:1017800081917F010E946D09EC14FD04C1F78FEF78
:101790000E946D098FEF0E946D090E9474098A876B
:1017A0008F71853071F4011116C0CE010E9462095B
:1017B00081E0DF91CF910F91FF90EF90DF90CF907C
:1017C000089581E18D83CE010E946209CE010E94BD
:1017D000620980E0EECF88E592E00E9477098111EE
:1017E00002C085E1C4CF20E030E0A9016DE0CE0168
:1017F0000E94AB09882311F084E1B9CF0E947409DB
:101800008111FACFD2CF0F9340916D0750916E079F
:1018100060916F0770917007411551056105710561
:1018200099F0082F2BE438E08091710790917207AE
:101830000E94950B882349F010926D0710926E0755
:1018400010926F071092700781E00F9108950F9327
:10185000CF93C82F80916C07811105C0C1E08C2FF8
:10186000CF910F9108954091090250910A02609121
:101870000B0270910C020C2F2BE438E08091710761
:10188000909172070E94950B811102C0C0E0E7CFD2
:10189000CC2321F381E00E94030C8823B9F310923A
:1018A0006C07DDCF8F929F92AF92BF92EF92FF9223
:1018B0000F931F93CF934B015C01C42F80910902BA
:1018C00090910A02A0910B02B0910C028815990523
:1018D000AA05BB0551F181E00E94270C81110BC0C4
:1018E00080E0CF911F910F91FF90EF90BF90AF904C
:1018F0009F908F9008958BE4E82E88E0F82E00E00A
:1019000012E030E020E0B501A401809171079091D0
:1019100072070E94F30A882319F3809209029092B9
:101920000A02A0920B02B0920C0240916C074C2B61
:1019300040936C0781E0D5CFCF93DF93EC016E85A8
:101940007F858889998941E00E94520C882351F053
:101950008A8920E2829FC0011124855B974FDF9125
:10196000CF91089590E080E0FACF8F929F92AF924E
:10197000BF92CF92DF92EF92FF920F931F93CF937C
:10198000DF93EC017093720760937107442309F4AD
:101990006AC040E060E070E0CB010E94520C81110F
:1019A0000EC080E0DF91CF911F910F91FF90EF90DB
:1019B000DF90CF90BF90AF909F908F9008958091CF
:1019C000090A8F7771F78091150A9091160AA091F4
:1019D000170AB091180A84369105A105B10508F3DC
:1019E000C090110AD090120AE090130AF090140AE5
:1019F000C114D104E104F104A1F240E0C701B60131
:101A00000E94520C882369F28091560890915708E1
:101A10008115924031F690915B08992311F2209143
:101A2000590830915A08232B09F4BBCF80915808EC
:101A3000882309F4B6CF9A8B8C831D8690E041E011
:101A400050E02D85E22FBA01022E02C0660F771FEB
:101A50000A94E2F78617970751F031E0320F3D877D
:101A6000283078F39ECFC12CD12C7601C6CF20919F
:101A700061083091620850E040E02115310541F4E1
:101A800020916F0830917008409171085091720850
:101A90002D833E834F8358878091590890915A082F
:101AA00046015701880E991EA11CB11C8B8A9C8A85
:101AB000AD8ABE8A00915C0810915D08198F088F6D
:101AC000A0915B08B0E00E94EB5BDC01CB01880DCC
:101AD000991DAA1DBB1D8A8F9B8FAC8FBD8F25E0E2
:101AE000000F111F2A95E1F701501E4F012F1127FA
:101AF0000695800F911FA11DB11D8E879F87A88B12
:101B0000B98B00915E0810915F0830E020E001156C
:101B1000110541F400916B0810916C0820916D083B
:101B200030916E08C81AD90AEA0AFB0AC00ED11E03
:101B3000E21EF31E04C0F694E794D794C794EA9586
:101B4000D2F7C986DA86EB86FC8685EFC8168FE069
:101B5000D806E104F10420F48CE08F8B81E022CFE1
:101B600080E125EFC2162FEFD206E104F104A8F3BD
:101B70008091770890917808A0917908B0917A08BF
:101B80008A8F9B8FAC8FBD8F80E2E7CF4F925F92A1
:101B90006F927F928F929F92AF92BF92CF92DF927D
:101BA000EF92FF920F931F93CF93DF93EC0142309C
:101BB00051056105710590F480E0DF91CF911F918F
:101BC0000F91FF90EF90DF90CF90BF90AF909F90DC
:101BD0008F907F906F905F904F90089589859A8540
:101BE000AB85BC850196A11DB11D84179507A6077D
:101BF000B70710F3CB88DC88ED88FE888F898031A9
:101C000009F042C0BB27A72F962F852F4801590105
:101C10002A013B01C80ED91EEA1EFB1E8091090253
:101C200090910A02A0910B02B0910C02C816D9063D
:101C3000EA06FB0699F58F898031C1F5B301A2014F
:101C4000552766277727440F551F455B574FFA01E5
:101C50009182808280916C07816080936C078A8971
:101C6000823080F08D819E81AF81B8858C0D9D1D65
:101C7000AE1DBF1D80936D0790936E07A0936F07F5
:101C8000B093700781E099CFDB01CA01E7E0B69518
:101C9000A79597958795EA95D1F7B8CF40E0C7010A
:101CA000B6010E94520C8111C6CF86CFB301A201AA
:101CB0004F77552766277727440F551F440F551F29
:101CC000455B574FFA0180829182A282B382C2CFD4
:101CD0008F929F92AF92BF92CF92DF92EF92FF923C
:101CE0000F931F93CF93DF93FC0181859285A3858A
:101CF000B4850196A11DB11D84179507A607B707E6
:101D000070F480E0DF91CF911F910F91FF90EF90E1
:101D1000DF90CF90BF90AF909F908F900895838871
:101D20009488A588B6888789803189F5BB27A72F35
:101D3000962F852FE9016A017B018F01BC01CD013E
:101D4000680D791D8A1D9B1D8090090290900A02E2
:101D5000A0900B02B0900C0286169706A806B90652
:101D600001F5F8018789803111F5DD24EE24FF2487
:101D7000F601EE0FFF1FE55BF74F80819181B0E028
:101D8000A0E088839983AA83BB8381E0BBCFDB017A
:101D9000CA01C7E0B695A79597958795CA95D1F7DB
:101DA000C9CF40E00E94520C8111DBCFAACFE8944A
:101DB000C7F8DD24EE24FF24F601EE0FFF1FEE0F1F
:101DC000FF1FE55BF74F80819181A281B381BF70D6
:101DD000D8CF4F925F926F927F92AF92BF92CF9285
:101DE000DF92EF92FF920F931F93CF93DF9300D078
:101DF0001F92CDB7DEB78C0149835A836B837C83F6
:101E00005901C12CD12C7601412C82E0582E612C35
:101E1000712C49815A816B817C819E012F5F3F4FDC
:101E2000C8010E94680E882339F1F8018585A30155
:101E3000920104C0220F331F441F551F8A95D2F709
:101E4000DA01C901C80ED91EEA1EFB1E49815A815A
:101E50006B817C818789803111F188EF9FEFAFEF33
:101E6000BFE0481759076A077B0798F2F501C0825F
:101E7000D182E282F38281E00F900F900F900F9059
:101E8000DF91CF911F910F91FF90EF90DF90CF9056
:101E9000BF90AF907F906F905F904F90089588EFC4
:101EA0009FEFA0E0B0E0DDCF0F931F93CF93DF93C0
:101EB000FC012581222331F080E0DF91CF911F9139
:101EC0000F9108958B01EC01FB018789803139F571
:101ED00082E08D831F8A188E198E1A8E808D918DC7
:101EE000B0E0A0E025E0880F991FAA1FBB1F2A952C
:101EF000D1F78B8B9C8BAD8BBE8B1C8F0B8F81E0B6
:101F00008C831E821F82188619861A861B861C8661
:101F10001D861E861F86188A198A1A8ACECF80329D
:101F200059F683E08D83428D538D648D758D4F8B73
:101F3000588F698F7A8F9E012D5E3F4FC8010E9496
:101F4000E90E8111DACFB8CF8F929F92AF92BF92F4
:101F5000CF92DF92EF92FF920F931F93CF93DF9375
:101F6000EC018D8181110EC080E0DF91CF911F9136
:101F70000F91FF90EF90DF90CF90BF90AF909F9028
:101F80008F9008950B891C892D893E8904171507A8
:101F90002607370748F34A015B01823031F48A860D
:101FA0009B86AC86BD8681E0E0CF81149104A104BC
:101FB000B10449F41E821F82188619861A861B8670
:101FC0001C861D86F0CF0A851B852C853D85EB8DF3
:101FD000FC8D858590E00996B901A8014150510911
:101FE00061097109082E04C0769567955795479544
:101FF0000A94D2F775016401E1E0CE1AD108E10834
:10200000F10804C0F694E794D794C7948A95D2F760
:10201000C416D506E606F70620F0012B022B032B8B
:1020200011F58F89988DA98DBA8D8E839F83A8878E
:10203000B9878E010A5F1F4FC114D104E104F10476
:1020400009F4ADCF4E815F816885798598018B8DCC
:102050009C8D0E94680E91E0C91AD108E108F10830
:102060008111EACF81CFC41AD50AE60AF70AE1CF77
:102070003F924F925F926F927F928F929F92AF9218
:10208000BF92CF92DF92EF92FF920F931F93CF9365
:10209000DF93CDB7DEB72C970FB6F894DEBF0FBE37
:1020A000CDBF5C01DC015B968D909C905C97169691
:1020B0004D905D906D907C9019974114510461048E
:1020C000710409F468C0BFEF4B1A5B0A6B0A7B0A04
:1020D000312CF40181859285A385B4859C01AD01E5
:1020E0002F5F3F4F4F4F5F4F29873A874B875C8762
:1020F000730162011D821E821F821886F401818590
:102100009285A385B4852D813E814F8158852817FE
:1021100039074A075B0708F056C089859A85AB8561
:10212000BC858C159D05AE05BF0550F482E0C82E18
:10213000D12CE12CF12C92E0492E512C612C712CE8
:102140009E012F5F3F4FB701A601C4010E94680E98
:102150008823C9F189819A81AB81BC81892B8A2B23
:102160008B2B09F1260137019FEF491A590A690A99
:10217000790A2D813E814F8158852F5F3F4F4F4F08
:102180005F4F2D833E834F8358873FEFC31AD30A97
:10219000E30AF30AB3CFF401408051806280738078
:1021A0003324339496CFC414D504E604F70409F716
:1021B0000FEF1FEF2FEF3FE0B701A601C4010E9410
:1021C000C60D811119C080E02C960FB6F894DEBFC1
:1021D0000FBECDBFDF91CF911F910F91FF90EF9078
:1021E000DF90CF90BF90AF909F908F907F906F9037
:1021F0005F904F903F900895D50116964D915D9157
:102200006D917C911997411551056105710539F062
:1022100097018601C4010E94C60D8823A1F2D50151
:102220001696CD92DD92ED92FC921997332051F0E3
:10223000D701C6010196A11DB11DF40180839183D0
:10224000A283B383F5018789908DA18DB28D892BEF
:102250008A2B8B2B39F48481C78AD08EE18EF28E43
:1022600080688483F50184818062848381E0ACCFBF
:102270002F923F924F925F926F927F928F929F9296
:10228000AF92BF92CF92DF92EF92FF920F931F9384
:10229000CF93DF93EC015B012A018D81811115C081
:1022A0008FEF9FEFDF91CF911F910F91FF90EF90F4
:1022B000DF90CF90BF90AF909F908F907F906F9066
:1022C0005F904F903F902F9008958C8180FFE8CFD2
:1022D0000B891C892D893E894A855B856C857D85A6
:1022E000C201B0E0A0E068017901C41AD50AE60A8B
:1022F000F70AC816D906EA06FB0618F42801441A9C
:10230000550A42011E0126E0220E311C811491045F
:1023100009F4B3C04A855B856C857D856A0181E0DF
:10232000D8228B8D9C8D8A019B01E9E036952795FB
:1023300017950795EA95D1F7ED81E230E1F5FC01BB
:10234000628D738D848D958D600F711F821F931F19
:10235000612C22E0722E6C187D088614970408F414
:1023600034012C8126FD04C06114F2E07F0671F473
:102370000091090210910A0220910B0230910C0287
:10238000061717072807390709F053C040E00E94D5
:10239000520C882309F484CFC601855B974FD50181
:1023A0009C01260D371DFC012E173F0709F460C064
:1023B00041914D93F9CFFC0174807A947022C1143D
:1023C000D10471F471100CC0452B462B472B39F505
:1023D0008F89988DA98DBA8D8E839F83A887B987A1
:1023E000EB8DFC8D6E817F818885998562507109A6
:1023F00081099109258504C0660F771F881F991FE1
:102400002A95D2F70685178520893189600F711FBB
:10241000821F931F670D711D811D911D99CF4E81E4
:102420005F816885798591010E94680E8111D8CFFE
:1024300037CF750183019601AB01BC018091710713
:10244000909172070E94F30A882309F429CFA60C01
:10245000B71C8A859B85AC85BD85860D971DA11D02
:10246000B11D8A879B87AC87BD87861897084ECF9A
:10247000281B390BA20EB31EECCFC20113CF1F9342
:10248000CF93DF93FC012581222371F1162FEC01FC
:10249000848187FF1EC0CF010E949C0CFC01892B08
:1024A00019F18D81823040F48B899C89AD89BE8978
:1024B000848F958FA68FB78F8F89988D938F828FFA
:1024C0008F89988DA98DBA8DB58BA48B8C818F77D0
:1024D0008C83111103C08C818F7E8C83812FDF91BF
:1024E000CF911F910C94270C80E0DF91CF911F9129
:1024F0000895FF920F931F93CF93DF93EC018D818B
:10250000813041F090E080E0DF91CF911F910F91F9
:10251000FF9008958C8181FFF5CF82FD1BC0009153
:10252000710710917207C8010E9495090E947409F1
:10253000F82EC8010E9462098FEFF812E3CF8C8158
:1025400085FF1BC060E0CE010E943F128C818F7D11
:102550008C83D8CF4B895C896D897E898A859B85E0
:10256000AC85BD8584179507A607B707C1F2CE01D4
:102570000E94A40F8111D3CFC5CF40916D07509118
:102580006E0760916F0770917007452B462B472BA4
:1025900021F080E00E94030CB5CF80618C832A85F6
:1025A0003B85317080E092E0821B930BADCFCF93DF
:1025B000DF93EC0161E00E943F12882311F01D823D
:1025C00081E0DF91CF9108952F923F924F925F92D9
:1025D0006F927F928F929F92AF92BF92CF92DF9233
:1025E000EF92FF920F931F93CF93DF9300D01F9230
:1025F0001F92CDB7DEB77C015B01342E5D83DC0119
:1026000015968C911597813009F0CEC014962C90B8
:1026100021FECAC022FCB4C0C32CDD8022947FE01E
:1026200027222094B22DB1702B2ED7011A964D91EE
:102630005D916D917C911D97C114D10409F428C15D
:102640005B968D919C915C97FC0174807A948A01D1
:102650009B0169E036952795179507956A95D1F7FF
:1026600070228A011170711020C001151105E9F462
:1026700016964D915D916D917C911997411551057B
:102680006105710509F099C057968D919D910D9046
:10269000BC91A02D0097A105B10509F0B0C0C701FC
:1026A0000E943810882309F47FC080E092E0801BEC
:1026B000910B46018C159D0508F44C01D7015B96E2
:1026C0004D915C915C9716968D919D910D90BC916A
:1026D000A02D0297A109B109FA01258504C0880F30
:1026E000991FAA1FBB1F2A95D2F746855785608977
:1026F0007189840F951FA61FB71F9C01AD01270D7F
:10270000311D411D511D29013A01811432E093060A
:1027100009F07BC08091090290910A02A0910B02FE
:10272000B0910C0284159505A605B70559F48FEFF5
:102730009FEFDC018093090290930A02A0930B02A1
:10274000B0930C02022D9501B301A2018091710793
:10275000909172070E94950B882331F19EEFB91A70
:10276000C818D908F70182859385A485B585880D99
:10277000991DA11DB11D82879387A487B58755CF69
:10278000F701438954896589768982859385A48573
:10279000B585481759076A077B0709F43DCFC7017C
:1027A0000E94A40F811138CF81E090E0D7011396E9
:1027B0009C938E93129780E007C09E012F5F3F4F3E
:1027C0000E94680E811102C090E079C089819A81CF
:1027D000AB81BC81F701238D348DF901278948EF46
:1027E0005FEF60E070E0203121F048EF5FEF6FEFC6
:1027F0007FE084179507A607B70708F050CFF701C9
:1028000086839783A087B18750CF0115110599F56D
:10281000D7011A964D915D916D917C911D975396BC
:102820008D919D910D90BC91A02D481759076A0775
:102830007B0708F181E00E94270C882309F4B4CFBC
:102840004092090250920A0260920B0270920C02AE
:1028500080916C07816080936C07C801855B974FFE
:10286000D5019C01280D391DFC012E173F0759F099
:102870004D914193FACF41E0C301B2010E94520C45
:102880008111EBCF91CF281B390BA20EB31E68CF5D
:10289000F70183899489A589B68984179507A607C6
:1028A000B70738F48481438B548B658B768B8068B3
:1028B0008483F701848183FD1AC0832D9D810F904D
:1028C0000F900F900F900F90DF91CF911F910F916C
:1028D000FF90EF90DF90CF90BF90AF909F908F9040
:1028E0007F906F905F904F903F902F90089561E0A0
:1028F000C7010E943F12882309F456CFDECFCF9341
:10290000DF931F92CDB7DEB7698341E050E0BE018F
:102910006F5F7F4F0E94E4120F90DF91CF91089577
:10292000FC01DB0112968D919C9113979383828316
:1029300086ED92E09183808314968C911497848322
:1029400015968C911597858316964D915D916D9195
:102950007C91199746835783608771871A964D91AA
:102960005D916D917C911D97428753876487758730
:102970001E964D915D916D917C9151974687578739
:10298000608B718B52968C915297828B53964D919E
:102990005D916D917C915697438B548B658B768BB3
:1029A00057964D915D916D917C915A97478B508FC1
:1029B000618F728F5B968D919C91948F838F089518
:1029C000DC015996ED91FC91309721F081E09581E1
:1029D000911101C080E00895FC01818D928D0097D6
:1029E00019F061E00C943F120895DC015996ED91C5
:1029F000FC913097B9F083899489A589B68942857D
:102A0000538564857585841B950BA60BB70B8115C3
:102A100020E89207A105B10538F08FEF9FE7A0E00D
:102A2000B0E0089590E080E00895DC0159968D9122
:102A30009C91009739F0DC01ED91FC910480F581C7
:102A4000E02D199490E080E00895CF93DF93EC019E
:102A5000E98DFA8D309749F481E090E09B838A8379
:102A600090E080E0DF91CF91089513821282898DEA
:102A70009A8D0E94E412E98DFA8D22813381232BF5
:102A800059F7F0CFCF93DF931F92CDB7DEB76983AD
:102A9000DC01ED91FC910280F381E02D41E050E0FA
:102AA000BE016F5F7F4F19950F90DF91CF91089511
:102AB000CF93DF931F92CDB7DEB741E050E0BE0168
:102AC0006F5F7F4F0E943811019731F4898190E048
:102AD0000F90DF91CF9108958FEF9FEFF9CFFC0119
:102AE000818D928D009711F00C9458158FEF9FEF08
:102AF00008950F931F93CF93DF93EC01898D9A8DE7
:102B000010E000E0009799F00E9458158C010F3FEB
:102B1000100769F0898D9A8DFC0142855385648583
:102B2000758541505109610971090E94A40FC801BE
:102B3000DF91CF911F910F9108952F923F924F9265
:102B40005F926F927F928F929F92AF92BF92CF923D
:102B5000DF92EF92FF920F931F93CF93DF932C019D
:102B60001A0189013B01D0E0C0E06901F12CE12CA0
:102B7000C215D30511F10E94FE084B015C01D20180
:102B800012968D919C91DC01ED91FC910284F3856C
:102B9000E02D199597FF25C00115110581F30E94BD
:102BA000FE08681979098A099B096C157D058E054F
:102BB0009F0528F38EEF209709F08C2FDF91CF919E
:102BC0001F910F91FF90EF90DF90CF90BF90AF904B
:102BD0009F908F907F906F905F904F903F902F903D
:102BE0000895F30181933F012196C2CFAF92BF9226
:102BF000CF92DF92EF92FF920F931F93CF93DF93C9
:102C000000D01F921F92CDB7DEB77C01062FB72EE2
:102C1000142F690143E050E0BE016F5F7F4F0E94B7
:102C20009D15181694F08EEF9FEF0F900F900F9058
:102C30000F900F90DF91CF911F910F91FF90EF9028
:102C4000DF90CF90BF90AF9008958981882319F0CD
:102C50008DEF9FEFEACF8A818111FACF8B818F3F71
:102C6000B9F7960142E050E0BE016C5F7F4FC701AB
:102C70000E949D151816BCF68C819D81980F41F716
:102C800082508C83181708F448C0F7011481AA24D5
:102C9000A394A10E960142E050E0BE016F5F7F4F0A
:102CA000C7010E949D1518160CF0BDCF8981853D86
:102CB00079F68A818A11CCCF4C8150E09601602F41
:102CC0007B2DC7010E949D152C81082E000C990BAD
:102CD0002817190609F0A7CF1A52902FE02FFB2DC5
:102CE0008E2F891B821718F48191180FF9CF960146
:102CF00042E050E0BE016F5F7F4FC7010E949D150B
:102D000018160CF090CF8981180F09F0A1CF8A8195
:102D100081119ECF8C8190E088CF8CEF9FEF85CF83
:102D2000FC01828193810C9407062F923F924F926F
:102D30005F926F927F928F929F92AF92BF92CF924B
:102D4000DF92EF92FF920F931F93CF93DF932C01AB
:102D50001A0189013B01D0E0C0E06901F12CE12CAE
:102D6000C215D30511F10E94FE084B015C01D2018E
:102D700012968D919C91DC01ED91FC910284F3857A
:102D8000E02D199597FF25C00115110581F30E94CB
:102D9000FE08681979098A099B096C157D058E055D
:102DA0009F0528F38EEF209709F08C2FDF91CF91AC
:102DB0001F910F91FF90EF90DF90CF90BF90AF9059
:102DC0009F908F907F906F905F904F903F902F904B
:102DD0000895F30181933F012196C2CFAF92BF9234
:102DE000CF92DF92EF92FF920F931F93CF93DF93D7
:102DF00000D01F921F92CDB7DEB77C01062FB72EF1
:102E0000142F690143E050E0BE016F5F7F4F0E94C5
:102E10009516181694F08EEF9FEF0F900F900F906D
:102E20000F900F90DF91CF911F910F91FF90EF9036
:102E3000DF90CF90BF90AF9008958981882319F0DB
:102E40008DEF9FEFEACF8A818111FACF8B818F3F7F
:102E5000B9F7960142E050E0BE016C5F7F4FC701B9
:102E60000E9495161816BCF68C819D81980F41F72B
:102E700082508C83181708F448C0F7011481AA24E3
:102E8000A394A10E960142E050E0BE016F5F7F4F18
:102E9000C7010E94951618160CF0BDCF8981853D9B
:102EA00079F68A818A11CCCF4C8150E09601602F4F
:102EB0007B2DC7010E9495162C81082E000C990BC2
:102EC0002817190609F0A7CF1A52902FE02FFB2DD3
:102ED0008E2F891B821718F48191180FF9CF960154
:102EE00042E050E0BE016F5F7F4FC7010E94951620
:102EF00018160CF090CF8981180F09F0A1CF8A81A4
:102F000081119ECF8C8190E088CF8CEF9FEF85CF91
:102F1000FC01828193810C940706DC01ED91FC9108
:102F20000190F081E02D1994CF93DF93EC0165E5DA
:102F300070E08A819B810E948D1765E570E08A812F
:102F40009B810E948D1770E060E08A819B810E94C6
:102F50008D1770E060E08A819B810E948D1770E080
:102F600060E08A819B810E948D178A819B81DC01B0
:102F7000ED91FC910084F185E02D19958A819B816A
:102F8000DC01ED91FC910084F185E02D1995892BF0
:102F900049F08A819B81DC01ED91FC910284F385EB
:102FA000E02DEBCFDF91CF910895CF93DF93EC012C
:102FB00065E570E08A819B810E948D1765E570E070
:102FC0008A819B810E948D1770E060E08A819B81DD
:102FD0000E948D1770E060E08A819B810E948D17AE
:102FE00070E060E08A819B810E948D178A819B81BD
:102FF000DC01ED91FC910084F185E02D19958A8129
:103000009B81DC01ED91FC910084F185E02D199507
:10301000892B49F08A819B81DC01ED91FC9102842E
:10302000F385E02DEBCFDF91CF91089520914707F5
:10303000260F3327331F21323105ECF4209123086A
:10304000FC0190E080E0243069F082E00895A091D6
:1030500047072191AC01495D584FA40FB52FB11D11
:103060002C930196861798F380914707680F609319
:10307000470780E0089581E008951092230881E0D9
:103080008093220810921D0861E084E10E943B08B1
:1030900061E085E10E943B08E9EBF0E080818E7FF2
:1030A000808380818D7F808388E48093B80085E46D
:1030B0008093BC00089510924A081092490810921B
:1030C000DA071092FC070E943D188EE296E090937A
:1030D000D7078093D6078FE296E09093D507809329
:1030E000D4070895CF93DF9391E090932607882328
:1030F000B9F0C091B800D091BA008091BC008A7B31
:103100008093BC0060E084E10E943B0860E085E1C0
:103110000E943B080E943D18D093BA00C093B800AB
:10312000DF91CF9108958F929F92AF92BF92CF92ED
:10313000DF92EF92FF920F931F93CF93DF93D82FDD
:10314000C62F142F613208F09CC00E94A7086B01A3
:103150007C018091230881116FC081E08093230856
:10316000109322089FEF90932108109220089C0F43
:1031700090931F0880931E0880911E08DD0FD82BA6
:10318000D0931E0880911D08813009F07CC01092F8
:103190001D080E94A7086B017C0180911E08809386
:1031A000BB008091250890912608A0912708B09136
:1031B0002808892B8A2B8B2BA1F00E94A70800914D
:1031C00025081091260820912708309128086C19AD
:1031D0007D098E099F09061717072807390708F484
:1031E0004CC08091BC0083FDD8CF85EC8093BC009F
:1031F0000E94A7086B017C0180912308813009F4AB
:1032000044C0809120088C1710F4C0912008EDEF85
:10321000F7E0A9E2B8E080E08C1359C08C2FDF9171
:10322000CF911F910F91FF90EF90DF90CF90BF90C3
:10323000AF909F908F9008958091250890912608D7
:10324000A0912708B0912808892B8A2B8B2B09F491
:1032500080CF0E94A7088090250890902608A09013
:103260002708B09028086C197D098E099F098616D9
:103270009706A806B90608F06CCF809124080E9432
:103280007218C0E0CBCF85EEB1CF80912508909128
:103290002608A0912708B0912808892B8A2B8B2B10
:1032A00009F4AACF0E94A7080091250810912608CA
:1032B00020912708309128086C197D098E099F09F3
:1032C000061717072807390708F096CFD6CF919130
:1032D0009D938F5FA1CF8F929F92AF92BF92CF921B
:1032E000DF92EF92FF920F931F93CF93DF93D091D2
:1032F000FC07D13208F0D7C0182FC091FB070E94FD
:10330000A7086B017C018091230881116BC082E0CA
:1033100080932308109322088FEF80932108109246
:103320002008D0931F08ABEDB7E0EDEFF7E080E0A9
:10333000D81391C010921E0880911E08CC0FC82B84
:10334000C0931E0880911D08813009F088C010923A
:103350001D080E94A7086B017C0180911E088093C4
:10336000BB008091250890912608A0912708B09174
:103370002808892B8A2B8B2BA1F00E94A70800918B
:1033800025081091260820912708309128086C19EB
:103390007D098E099F09061717072807390708F4C2
:1033A00042C08091BC0083FDD8CF85EC8093BC00E7
:1033B0000E94A7086B017C0180912308823009F4E8
:1033C00050C0809121088F3F09F46FC0809121087F
:1033D000803209F46CC080912108803309F469C0FF
:1033E00084E026C08091250890912608A0912708A6
:1033F000B0912808892B8A2B8B2B09F484CF0E944B
:10340000A7088090250890902608A0902708B090E3
:1034100028086C197D098E099F0986169706A8064B
:10342000B90608F070CF809124080E94721885E0D8
:103430001092DA071092FC071092D907DF91CF9112
:103440001F910F91FF90EF90DF90CF90BF90AF90C2
:103450009F908F9008959D9191938F5F69CF85EE96
:10346000A5CF8091250890912608A0912708B091BA
:103470002808892B8A2B8B2B09F49ECF0E94A70842
:1034800000912508109126082091270830912808DE
:103490006C197D098E099F09061717072807390738
:1034A00008F08ACFC0CF81E0C3CF80E0C1CF82E0F7
:1034B000BFCF83E0BDCF81E00C946B190895E091FC
:1034C0004A0880914908E81730F4F0E0E75DF74FCB
:1034D000808190E008958FEF9FEF089580914908D3
:1034E00090914A08891B990B0895CF92DF92EF9231
:1034F000FF920F931F93CF93DF937C01CB018A013F
:103500002091D907222389F0EB016B01C40ED51E4F
:10351000CC15DD0569F06991D701ED91FC91019021
:10352000F081E02DC7011995F3CF642F0E94161882
:10353000C801DF91CF911F910F91FF90EF90DF9025
:10354000CF900895CF93DF931F92CDB7DEB76983F5
:103550002091D9072223F9F02091FC07203258F05E
:1035600021E030E0FC013383228390E080E00F9083
:10357000DF91CF9108958091DA07E82FF0E0E552CE
:10358000F84F998190838F5F8093DA078093FC07CF
:1035900081E090E0ECCF61E0CE0101960E94161828
:1035A000F7CF1F93CF93DF93EC0188E60E94D705F6
:1035B00063E080ED9BE00E94A21A2D811AE0822F29
:1035C000612F0E94055C682F660F680F660F620FFF
:1035D00080ED9BE00E94A21A2C81822F612F0E9415
:1035E000055C682F660F680F660F620F80ED9BE029
:1035F0000E94A21A2B81822F612F0E94055C682FE6
:10360000660F680F660F620F80ED9BE00E94A21AA2
:103610002A81822F612F0E94055C682F660F680F38
:10362000660F620F80ED9BE00E94A21A60E080EDC1
:103630009BE00E94A21A2981822F612F0E94055CC3
:10364000682F660F680F660F620F80ED9BE00E9487
:10365000A21A2881822F612F0E94055C682F660FB5
:10366000680F660F620F80ED9BE00E94A21A0E9415
:103670005B1A88E60E94D70562E080ED9BE00E941D
:10368000A21A60E080ED9BE00E94A21ADF91CF9128
:103690001F910C945B1A1F93CF93DF93EC0188E684
:1036A0000E94D70560E080ED9BE00E94A21A2D8168
:1036B0001AE0822F612F0E94055C682F660F680F49
:1036C000660F620F80ED9BE00E94A21A2C81822F70
:1036D000612F0E94055C682F660F680F660F620FEE
:1036E00080ED9BE00E94A21A2B81822F612F0E9405
:1036F000055C682F660F680F660F620F80ED9BE018
:103700000E94A21A60E080ED9BE00E94A21A2A812A
:10371000822F612F0E94055C682F660F680F660F6D
:10372000620F80ED9BE00E94A21A2981822F612FF7
:103730000E94055C682F660F680F660F620F80EDB0
:103740009BE00E94A21A2881822F612F0E94055CB3
:10375000682F660F680F660F620F80ED9BE00E9476
:10376000A21ADF91CF911F910C945B1A90E080E038
:103770000895E1E8F0E08081887F808360E08FE158
:103780000C943B08CF93DF939C01CCE7D7E081E01A
:103790008A838FB78B83F894B9017695679590E00B
:1037A00080E0605C7D4B804F9F4F50E040E00E9486
:1037B000C95BDA01C90123E0880F991FAA1FBB1F4B
:1037C0002A95D1F799838883909387008093860008
:1037D0008B818FBFE1E8F0E08081887F80838081EA
:1037E0009A81892B8083DF91CF910895CF939FEFAA
:1037F000980F923000F51092160791E09093A8066A
:1038000090930002823009F441C0C1E0C093A70642
:1038100061E083E20E943B0860E082E20E943B0894
:10382000C09319078091890790918A079093180790
:10383000809317070AC0823049F18330D1F181307B
:1038400021F380911907811104C08091A806CF91BE
:10385000089581E0809316078093A8068091A706BB
:10386000813059F461E082E20E943B0860E083E22B
:103870000E943B0810921907E8CF8230D9F761E027
:1038800083E20E943B0860E082E2F2CF82E0809314
:10389000A70661E082E20E943B0860E083E20E94AA
:1038A0003B0881E0809319078091870790918807F2
:1038B000BDCF8091A806882341F280910002882321
:1038C00021F0815080930002C0CF61E082E20E942B
:1038D0003B0861E083E20E943B081092A80681E069
:1038E000F1CF0F931F93CF93DF9380912407811122
:1038F00018C0CBE00D2F10E0C15059F084E20E94B7
:10390000120880179107C1F384E20E941208D82F91
:10391000F0CFD11103C083E08093080281E080934F
:10392000240780910F02893061F498E090930F0290
:1039300020910802293051F4909308021092230735
:103940000EC0813031F498E090930F02809308020A
:10395000F5CF8430C1F38A30B1F38B30A1F380917D
:1039600008028093070290912307843009F4DAC09B
:10397000F0F4813071F1823009F0A6C1911108C0D4
:1039800081E08093230785E18093220710921E0730
:1039900080912207853109F4A6C008F08FC08823E2
:1039A00009F497C190911E07891338C092C18A30DB
:1039B00009F47DC18B3009F480C1893009F084C1DC
:1039C000911187C181E08093230780E00E94F61B5C
:1039D00080C1911118C08093230784E20E941208CD
:1039E0008093210785E20E941208C82F8093200748
:1039F00080931F0781E00E94F61B8CE0C11101C07B
:103A00008BE08093220710921E07809122078B3053
:103A100041F08C30D9F0882309F45BC180931E07F4
:103A200058C180931E0785E20E94120880932007E8
:103A300090911F07891709F44CC1882309F449C1E3
:103A400080931F078CE08093220743C180931E0759
:103A500080911D07811104C080911C07882359F0B3
:103A600010921D0710921C078091860780931B07F8
:103A700082E00E94F61B85E20E94120880932007D4
:103A800090911F07891709F424C1811122C10E9456
:103A9000F61B84E20E941208882341F0109222074C
:103AA00082E0809308021092230713C180912107BE
:103AB0008111F4CF1092220783E0F3CF90911E077B
:103AC000863111F1873109F06DCF973111F0809374
:103AD0001E0785E20E941208809320078111F9C019
:103AE0000E94F61BE7CF90911E07953111F080934D
:103AF0001E0784E20E941208892B09F0EAC081E0C7
:103B00000E94F61B86E19FCF963111F080931E072D
:103B100085E20E94120880932007882309F4D9C007
:103B200087E191CF911119C081E08093230784E24E
:103B30000E9412088093210785E20E941208C82F74
:103B40008093200780931F0782E00E94F61B8BE280
:103B5000C11101C089E280932207809122078B3234
:103B600009F44EC0E8F4882309F4B3C0893209F09F
:103B700019CF90911E07993211F080931E0785E2AC
:103B80000E9412088093200790911F07891709F45B
:103B9000A0C0882309F49DC080931F078BE253CFF8
:103BA00090911E078C3209F46FC08D3209F0FACE65
:103BB0009D3211F080931E0780911D07811104C072
:103BC00080911C07882359F010921D0710921C0742
:103BD0008091860780931B0781E00E94F61B85E297
:103BE0000E9412088093200790911F07891709F4FB
:103BF00070C081116EC010921F070E94F61B3BC05F
:103C000090911E079B3211F080931E0780911D0733
:103C1000811104C080911C07882371F081E080939A
:103C20001A0710921D0710921C0780918607809337
:103C30001B0781E00E94F61B85E20E941208809318
:103C4000200790911F07891709F443C0811141C0D3
:103C500010921F070E94F61B84E20E9412089091A6
:103C60002107891304C090911A07992341F080938A
:103C7000210710921A071092220785E012CF82E0E6
:103C80000E94F61B8CE2DFCE9C3211F080931E075F
:103C900085E20E9412088093200790911F078917E0
:103CA000C1F08823B1F080931F078DE2CCCE911133
:103CB00010C081E08093230789CE91110AC081E072
:103CC0008093230782E082CE911103C081E080932C
:103CD000230780911907882369F18091200790912B
:103CE0001F07891365C080911707909118070097E7
:103CF00009F455C001979093180780931707809196
:103D00001B072091170730911807820F932F911DE1
:103D1000892B81F484E20E94120880932107882372
:103D200009F449C080E00E94F61B81E080931C07E3
:103D300010921D0780911607813039F483E00E94AC
:103D4000F61B811102C01092160780917B00877FBD
:103D500080937B0080E480937C0080917A00806473
:103D600080937A0080917A0086FDFCCF9091780054
:103D700080917900892798278927813223E092074B
:103D80001CF160E089E10E943B0861E082E10E9451
:103D90003B0860E081E30E943B0860E025C0809121
:103DA0001B07882309F4ABCF815080931B07A7CF53
:103DB00080931F07A4CF80E00E94F61B81E08093D0
:103DC0001D0710921C07B6CF61E0853F91409CF023
:103DD00089E10E943B0860E082E10E943B0860E0CC
:103DE00081E30E943B0861E080E3DF91CF911F9166
:103DF0000F910C943B0889E10E943B0861E082E14D
:103E00000E943B0861E0C6CF80910702833071F0C9
:103E1000853059F0823051F0813041F0982F9D7FEC
:103E200081E0943019F080E0089584E00895CF9304
:103E3000DF93FB0122813381DC0113963C932E93A7
:103E40001297448155816681778114964D935D93D5
:103E50006D937C931797408551856285738518967D
:103E60004D935D936D937C931B971C96EF012C965D
:103E70009C01275E3F4F49914D93A217B307D9F795
:103E8000218D328DFC01328F218FDF91CF910895EA
:103E90000F931F93CF93DF93EC018B0141E00E94BE
:103EA000B50C811109C040E0B801CE01DF91CF917E
:103EB0001F910F910C94B50C81E0DF91CF911F9170
:103EC0000F910895CF93C82F8091B60B882321F0CE
:103ED00081EB9BE00E94D7126C2F87E89BE00E9449
:103EE000080A811102C090E011C067E87BE083E915
:103EF0009BE00E94481F8823B1F363E97BE081EBDC
:103F00009BE00E94540F91E0882369F3892FCF91A1
:103F100008950F931F93CF93DF93082F10E00E5651
:103F2000184FF801D081DD2351F1C82F0E94A70856
:103F30006093830470938404809385049093860433
:103F4000C0938204F8011082C150C73080F4EC2F76
:103F5000F0E061E08827E055F04E8F4F0C94395C1B
:103F6000C51FCB1FD11FD71FDD1FE31FE91F61E056
:103F700082E00E943B0861E083E00E943B088D2FB5
:103F8000DF91CF911F910F91089582E00E943B082D
:103F900061E084E0F2CF82E00E943B0861E085E0CE
:103FA000ECCF82E00E943B0861E086E0E6CF82E051
:103FB0000E943B0861E087E0E0CF82E00E943B087E
:103FC00061E088E0DACF82E00E943B0861E089E0AE
:103FD000D4CF82E00E943B0861E08AE0CECFCF924E
:103FE000DF92EF92FF920F931F93CF93DF93C091D5
:103FF0008204C83008F038C0D0E0FE0160E08827B5
:10400000EB5FFF4D8F4F0C94395C0D204320452012
:10401000472049204B204D204F2083E00E943B0841
:104020000E94A708009183041091840420918504C4
:1040300030918604FE01EE0FFF1FEE0FFF1FEE59B9
:10404000FB4FC080D180E280F380DC01CB01801B7C
:10405000910BA20BB30BC816D906EA06FB0620F497
:1040600080839183A283B3838FEF8093820460E087
:1040700082E0DF91CF911F910F91FF90EF90DF9041
:10408000CF900C943B0884E0C9CF85E0C7CF86E091
:10409000C5CF87E0C3CF88E0C1CF89E0BFCF8AE03A
:1040A000BDCF8F929F92AF92BF92CF92DF92EF924D
:1040B000FF920F931F93CF93DF9300D01F92CDB742
:1040C000DEB7FC018581813091F080E00F900F9088
:1040D0000F900F90DF91CF911F910F91FF90EF9074
:1040E000DF90CF90BF90AF909F908F900895848184
:1040F00081FFEBCF83899489A589B689892B8A2B87
:104100008B2B09F45FC07F0140E050E0BA01CF0182
:104110000E94A40F8823C9F2F701C38CD48C87882E
:10412000908CA18CB28C82E090E0A0E0B0E0F6012F
:1041300080839183A283B3839E012F5F3F4FB5019C
:10414000A401C6010E94680E882309F4BECF00E0D6
:1041500010E09801B501A401C6010E94C60D882394
:1041600009F4B3CF89809A80AB80BC80F60187893F
:10417000803119F188EF9FEFAFEFBFE08816990605
:10418000AA06BB06C8F2F701178A108E118E128E8E
:10419000138A148A158A168A84818068848361E070
:1041A000C7010E943F12882309F48FCF40E050E0FE
:1041B000BA01C7010E94A40F89CF88EF9FEFA0E04A
:1041C000B0E0DCCF81E082CFCF92DF92EF92FF921E
:1041D0001F93CF93DF93EC0180E2689FF0011124DD
:1041E000E55BF74F9385917161F0842F827449F0FC
:1041F00080E0DF91CF911F91FF90EF90DF90CF9003
:104200000895142F6A8B8091090290910A02A0915F
:104210000B02B0910C028E879F87A88BB98BC48844
:10422000D588F12CE12C7601DD24CC24CF8AD88EE0
:10423000E98EFA8E828D938DB0E0A0E0AC01BD01D5
:104240004C295D296E297F294F8B588F698F7A8F72
:1042500083858871B1F4848D958DA68DB78D8B8BF8
:104260009C8BAD8BBE8B81E08D831F701C831E8267
:104270001F82188619861A861B861C861D8681E079
:10428000B8CF803109F0B4CF9E012D5E3F4F8B8DAA
:104290009C8D0E94E90E882309F4AACF84E0E4CF24
:1042A000EF92FF921F93CF93DF93182FEB017A01C8
:1042B0009091490880914A08981719F00E94C40506
:1042C000F7CF1695812F0E94D70561E080ED9BE026
:1042D0000E94A21A61E080ED9BE00E94A21A81E098
:1042E0000E946B196EE170E080E090E00E94CC08C3
:1042F00041E06AE0812F0E949318182F10924A081B
:10430000809349080E94C405873039F50E94C4058E
:104310000E94C4050E94C40588830E94C405898345
:104320000E94C4058A830E94C4058B831C821D825F
:104330001E8280914A08181719F00E94C405F9CF0F
:1043400084E0F701808381E00E946B1981E0DF91B6
:10435000CF911F91FF90EF9008958A3011F50E9440
:10436000C4050E94C4050E94C40588830E94C40538
:1043700089830E94C4058A830E94C4058B830E949E
:10438000C4058C830E94C4058D830E94C4058E835E
:1043900080914A08181719F00E94C405F9CF87E0E8
:1043A000D0CF188219821A821B821C821D821E8223
:1043B00080914A08181719F00E94C405F9CFF70137
:1043C000108281E00E946B1980E0C1CF41E0682F2C
:1043D00088E60E94931810924A088093490808952D
:1043E00088E60E94D70560E080ED9BE00E94A21A5B
:1043F0000E945B1A81E090E00E94E6210E94C405C1
:10440000805887FB882780F90895CF92DF92FF922A
:104410000F931F93CF93DF936C0188E60E94D7051B
:1044200063E080ED9BE00E94A21A0E945B1A87E085
:1044300090E00E94E6210E94C4058F77282F30E08B
:1044400094E0359527959A95E1F7922F990F990F5A
:10445000C22FC91BCC0FC80F0E94C4059C0144E0A9
:10446000359527954A95E1F72F703327922F990FAD
:10447000990FD22FD91BDD0FD80F0E94C4059C01C4
:1044800054E0359527955A95E1F72F703327922FF1
:10449000990F990F122F191B110F180F0E94C405A5
:1044A0009C0164E0359527956A95E1F72F703327D5
:1044B000922F990F990F022F091B000F080F0E94CE
:1044C000C4050E94C4059C0174E0359527957A9532
:1044D000E1F72F703327922F990F990FF22EF91AC7
:1044E000FF0CF80E0E94C4059C01E4E03595279569
:1044F000EA95E1F72F703327922F990F990F291B17
:10450000220F820FF6018083F18202831383D4830A
:10451000C583C601DF91CF911F910F91FF90DF906E
:10452000CF900895CF92DF92FF920F931F93CF9376
:10453000DF936C0188E60E94D70560E080ED9BE088
:104540000E94A21A0E945B1A87E090E00E94E62176
:104550000E94C4058F77282F30E094E03595279589
:104560009A95E1F7922F990F990FC22FC91BCC0F83
:10457000C80F0E94C4059C0144E0359527954A95D3
:10458000E1F72F703327922F990F990FD22FD91B54
:10459000DD0FD80F0E94C4059C0154E03595279586
:1045A0005A95E1F72F703327922F990F990F122FF9
:1045B000191B110F180F0E94C4050E94C4059C010D
:1045C00064E0359527956A95E1F72F703327922F90
:1045D000990F990F022F091B000F080F0E94C405A5
:1045E0009C0174E0359527957A95E1F72F70332774
:1045F000922F990F990FF22EF91AFF0CF80E0E94C4
:10460000C4059C01E4E035952795EA95E1F72F7004
:104610003327922F990F990F291B220F820FF60132
:104620008083F18202831383D483C583C601DF9123
:10463000CF911F910F91FF90DF90CF900895EF924F
:10464000FF920F931F93CF93DF937C018C01C8E0FF
:10465000D0E0CE010E94A35BF80181938F012196E7
:10466000CC30D105B1F7C701DF91CF911F910F91E8
:10467000FF90EF900895EF92FF920F931F93CF93C7
:10468000DF937C018C01D0E0C0E0CE010E94A35BEF
:10469000F80181938F012196C431D105B1F7C7018B
:1046A000DF91CF911F910F91FF90EF9008950F939D
:1046B0001F93CF93DF938C01EB010E94A35B888350
:1046C000C80101960E94A35B8983CE01DF91CF913F
:1046D0001F910F910895CF93DF93EB010E94A35B8D
:1046E0008883CE01DF91CF9108952F923F924F9210
:1046F0005F926F927F928F929F92AF92BF92CF9272
:10470000DF92EF92FF920F931F93CF93DF93CDB77A
:10471000DEB7A3970FB6F894DEBF0FBECDBF582EFD
:10472000462E372ECE0101960E943B238B859C8519
:1047300099A388A30B811C810F5F1F4F1F8E212C13
:10474000852C912CF4013197FBA3EAA388A199A1B0
:1047500028161906C0F56E0196E1C90ED11C642C0D
:10476000732CF12CE12CE814F90449F1B601C801CD
:104770008E0D9F1D0E946B23F30181913F01F60175
:104780009081FFEFCF1ADF0A981319C08AA19BA16D
:10479000E816F90684F0BE016B5E7F4FC8010197F1
:1047A0000E946B238D89851541F191E09F8F065FF3
:1047B0001F4F2394CBCFEFEFEE1AFE0AD4CFFF8D1D
:1047C000FF23A9F3E8CF80E0A3960FB6F894DEBFED
:1047D0000FBECDBFDF91CF911F910F91FF90EF9052
:1047E000DF90CF90BF90AF909F908F907F906F9011
:1047F0005F904F903F902F90089581E0E5CF2F92EA
:104800003F924F925F926F927F928F929F92AF9260
:10481000BF92CF92DF92EF92FF920F931F93CF93AD
:10482000DF93CDB7DEB7A4970FB6F894DEBF0FBE07
:10483000CDBF382E6CA3272ECE0109960E941F23D0
:1048400089859A8599A388A31F8EB12CA12C85E117
:10485000E82EF12C832C912CF4013197FBA3EAA3D1
:1048600088A199A1A816B906D1F16E0196E1C90EE9
:10487000D11C4CA0522C10E000E00815190559F18C
:10488000B601C701800F911F0E946B23F201819135
:104890002F01F6019081FFEFCF1ADF0A98131BC09A
:1048A0008AA19BA1081719079CF0BE016B5E7F4F80
:1048B000C70101970E946B238D89831551F191E007
:1048C0009F8FFAE0EF0EF11C2FEFA21AB20AC8CFA9
:1048D0000F5F1F4FD2CFEF8DEE2399F3E6CF80E02D
:1048E000A4960FB6F894DEBF0FBECDBFDF91CF9177
:1048F0001F910F91FF90EF90DF90CF90BF90AF90FE
:104900009F908F907F906F905F904F903F902F90EF
:10491000089581E0E5CF0C94A35B0F931F93CF9391
:10492000DF93FC01048115810115110539F4FB01A8
:104930001082DF91CF911F910F910895415051093D
:104940004017510708F48A01EB01FC016081718175
:10495000A801CE010E94615DC00FD11F1882E9CF6E
:10496000CF93DF939C01E091A306F091A406CF01C1
:10497000019666E070E00E94255C009791F0EC01E2
:10498000C9012AE52E9FB0012F9F700D1124695790
:104990007B4F4AE550E00E948D24D093A406C0933B
:1049A000A306DF91CF910895CF93DF93DC01149696
:1049B0002D913C911597232B79F0FB01CD91DC9142
:1049C00060817181CE010E94705D009729F08C1B7F
:1049D0009D0BDF91CF9108958FEF9FEFFACFFB01F1
:1049E00001900020E9F73197AF01461B570BDC011E
:1049F000ED91FC910280F381E02D1994CF93DF9328
:104A00000E944B07EC016EED72E088EE9AE00E9486
:104A1000EF248C0F9D1FDF91CF9108958F929F926D
:104A2000AF92BF920F931F93CF93DF93CDB7DEB7B3
:104A3000A1970FB6F894DEBF0FBECDBF19A24230CA
:104A400008F44AE08E010F5D1F4F842E912CB12C8B
:104A5000A12CA50194010E94C95BE62FB901CA01EE
:104A6000EA3004F5E05DD801EE938D01232B242B71
:104A7000252B79F790E080E0109729F0BD0188EEB2
:104A80009AE00E94EF24A1960FB6F894DEBF0FBE05
:104A9000CDBFDF91CF911F910F91BF90AF909F90AD
:104AA0008F900895E95CDFCFCF93DF93682F70E09C
:104AB00090E080E04AE00E940E25EC016EED72E08D
:104AC00088EE9AE00E94EF248C0F9D1FDF91CF911A
:104AD0000895FC0180819181009711F00C94005B96
:104AE00060E070E0CB010895FC0124813581232B27
:104AF00039F421E0FB018081882349F020E007C0E0
:104B0000808191810E94435D21E0892BB9F7822F3A
:104B10000895FC0124813581FB01448155812417CE
:104B20003507E1F4FC0180819181FB016081718195
:104B30000097D1F061157105A1F4232BC1F0FC01A0
:104B4000808190E008C0232B91F0FB01808190E0F0
:104B500091958195910921E0892B09F020E0822F20
:104B600008950E94435DF7CF6115710561F721E05B
:104B7000F6CF0F931F93CF93DF938C01EB01FC01D2
:104B8000808191810097E1F06881798161157105DB
:104B9000A9F0428153812C813D814217530770F067
:104BA0000E944C5D8C819D81F801958384831D82D8
:104BB0001C82DF91CF911F910F9108950E9474592B
:104BC00088819981F801918380838A819B81938375
:104BD00082838C819D8195838483198218821B82B4
:104BE0001A82E5CFCF93DF93EC01888199810097FA
:104BF00011F00E947459198218821D821C821B8236
:104C00001A82DF91CF910895FC01808191810097F4
:104C100011F00C9474590895CF93DF93EC01898DB2
:104C20009A8D009741F00E94D712898D9A8D0E942B
:104C300074591A8E198EDF91CF9108950F931F9397
:104C4000CF93DF93EC0188819981009759F02A81F5
:104C50003B812617370730F081E0DF91CF911F911C
:104C60000F9108958B016F5F7F4F0E94415C009709
:104C700059F0998388831B830A832C813D81232BE0
:104C800059F7FC011082E8CF80E0E7CFEF92FF9266
:104C90000F931F93CF93DF93EC017B01CB010E9415
:104CA000375B0097A9F00C811D81080F191FB8010F
:104CB000CE010E941E26882361F0288139818C81D3
:104CC0009D81B701820F931F0E94305B1D830C836F
:104CD00081E0DF91CF911F910F91FF90EF900895A8
:104CE000EF92FF920F931F93CF93DF93611571059E
:104CF00041F480E0DF91CF911F910F91FF90EF90F1
:104D0000089541155105B1F07B01EC010C811D8125
:104D1000040F151FB8010E941E26882351F3288115
:104D200039818C819D81B701820F931F0E944C5D58
:104D30001D830C8381E0DECFFB0101900020E9F7A9
:104D40003197AF01461B570B0C9470260F931F939E
:104D5000CF93DF931F921F92CDB7DEB78C0169838B
:104D60001A8241E050E0BE016F5F7F4F0E947026C3
:104D7000811103C0C8010E94F225C8010F900F9055
:104D8000DF91CF911F910F910895CF93DF93EC01A5
:104D9000FB0101900020E9F73197AF01461B570B4B
:104DA0000E947026811103C0CE010E94F225CE011F
:104DB000DF91CF910895CF93DF93EC01FB01448104
:104DC0005581608171810E947026811103C0CE01DE
:104DD0000E94F225CE01DF91CF910895FB0144811D
:104DE0005581608171810C947026EF92FF920F9330
:104DF0001F93CF93DF93EC018B01CB010E94375BB4
:104E00007C01BC01CE010E941E2681110BC0CE0187
:104E10000E94F225CE01DF91CF911F910F91FF905B
:104E2000EF900895FD82EC82B801888199810E94FB
:104E3000305BF0CFFC011182108213821282158246
:104E400014820C94F526EF92FF920F931F93CF9349
:104E5000DF93EC017B018A01BA010E941E268111B9
:104E60000BC0CE010E94F225CE01DF91CF911F91A0
:104E70000F91FF90EF9008951D830C83B7018881F7
:104E800099810E944C5DF0CFFB0101900020E9F771
:104E90003197AF01461B570B0C9423270F931F9399
:104EA000CF93DF93CDB7DEB761970FB6F894DEBF2F
:104EB0000FBECDBF8C01CB01F8011182108213828D
:104EC0001282158214824AE0BE016F5F7F4F0E94FA
:104ED000765BBE016F5F7F4FC8010E9444276196D9
:104EE0000FB6F894DEBF0FBECDBFDF91CF911F91FB
:104EF0000F9108950F931F93CF93DF9300D000D0AD
:104F000000D0CDB7DEB78C01862FF8011182108258
:104F1000138212821582148250E0BE016F5F7F4FB0
:104F200090E00E946B5BBE016F5F7F4FC8010E94E3
:104F3000442729960FB6F894DEBF0FBECDBFDF9190
:104F4000CF911F910F910895CF93DF931F921F92DE
:104F5000CDB7DEB7FC011182108213821282158256
:104F6000148269831A82BE016F5F7F4F0E944427BB
:104F70000F900F90DF91CF910895CF93DF93EC01C5
:104F8000FB018617970749F06081718161157105F2
:104F900041F0448155810E942327CE01DF91CF91BA
:104FA00008950E94F225F9CFFC011182108213822C
:104FB0001282158214820C94BD27FC01118210828A
:104FC00013821282158214826115710551F0FB0162
:104FD00001900020E9F73197AF01461B570B0C9465
:104FE00023270895AF92BF92CF92DF92EF92FF9264
:104FF0000F931F93CF93DF936C015B017A018901BB
:105000002417350720F48F2D7901042F182F60EE17
:1050100072E0C6010E94DD27D5011496CD91DC9186
:10502000EC16FD06E0F40C171D0708F4E801D501A5
:10503000ED91FC911197EC0FFD1F108110826D9185
:105040007C916E0D7F1DC60161157105A1F00E9456
:105050004427F50180819181C80FD91F1883C601AB
:10506000DF91CF911F910F91FF90EF90DF90CF9044
:10507000BF90AF9008950E94F225EBCF8F929F9240
:10508000AF92BF92CF92DF92EF92FF920F931F9356
:10509000CF93DF9300D000D0CDB7DEB77C01A62E32
:1050A0006A0160EE72E00E94DD278601D12CC12CDE
:1050B000B12CCA14DB044CF5C114D10429F061E809
:1050C00073E0C7010E949C264801F801808180316D
:1050D00028F461EE72E0C7010E949C260F5F1F4F0B
:1050E00040E1F4016081CE0101960E947A27BE0161
:1050F0006F5F7F4FC7010E94EE26CE0101960E948E
:105100000426FFEFCF1ADF0AD4CFC70126960FB6C9
:10511000F894DEBF0FBECDBFDF91CF911F910F91ED
:10512000FF90EF90DF90CF90BF90AF909F908F90C7
:1051300008951F93CF93DF93EC01162F63EE72E077
:105140000E94DD271730A0F4E12FF0E08827E45516
:10515000F74D8F4F0C94395CB328BD28C028C32865
:10516000C628C928CC286DEE72E0CE010E944427E3
:10517000CE01DF91CF911F91089569EF72E0F5CFD5
:1051800065E073E0F2CF6BE173E0EFCF67E273E0CD
:10519000ECCF6DE273E0E9CF61E473E0E6CFEF922C
:1051A000FF920F931F93CF93DF9300D000D0CDB722
:1051B000DEB78C0160EE72E00E94DD278CEEE82EF7
:1051C0008FE0F82EC7010E948B248F3FD9F461EE47
:1051D00072E0C8010E949C268FEFE81AF80A86EF59
:1051E000E8168FE0F80671F7C80126960FB6F89416
:1051F000DEBF0FBECDBFDF91CF911F910F91FF900A
:10520000EF900895682FCE0101960E94A427BE0159
:105210006F5F7F4FC8010E94EE26CE0101960E946B
:105220000426DACFEF92FF920F931F93CF93DF9371
:1052300000D000D0CDB7DEB78C0160EE72E00E94E6
:10524000DD2786EFE82E8FE0F82EC7010E948B2421
:105250008F3FD1F461EE72E0C8010E949C268FEF6F
:10526000E81AF80AE11480E1F80679F7C8012696F1
:105270000FB6F894DEBF0FBECDBFDF91CF911F9167
:105280000F91FF90EF900895682FCE0101960E9434
:10529000A427BE016F5F7F4FC8010E94EE26CE019A
:1052A00001960E940426DBCF0F931F93CF93DF93C9
:1052B000CDB7DEB762970FB6F894DEBF0FBECDBF95
:1052C0008C01CB01F80111821082138212821582A7
:1052D000148250E0BE016F5F7F4F0E94405BBE01B1
:1052E0006F5F7F4FC8010E94442762960FB6F89403
:1052F000DEBF0FBECDBFDF91CF911F910F910895FB
:105300009F92AF92BF92CF92DF92EF92FF920F9354
:105310001F93CF93DF9300D000D0CDB7DEB78C01C1
:105320006B015A017A0181E0E81AF10865E873E03F
:10533000CE0101960E941A27BE016F5F7F4FC60102
:105340000E948925982ECE0101960E94042699205C
:1053500001F1BE016F5F7F4FC5018F52904F0E94D8
:105360006B234AE06981C8010E947A27C80126960A
:105370000FB6F894DEBF0FBECDBFDF91CF911F9166
:105380000F91FF90EF90DF90CF90BF90AF909F90E4
:10539000089561E873E0CE0101960E941A27BE01CC
:1053A0006F5F7F4FC6010E948925982ECE0101961E
:1053B0000E940426992049F0BE016F5F7F4FC5010E
:1053C0008F52904F0E946B23CCCF6DE773E0CE01DC
:1053D00001960E941A27BE016F5F7F4FC6010E948F
:1053E0008925B82ECE0101960E940426BB2081F0AB
:1053F000C701880F991FBE016F5F7F4F8E52904F7C
:105400000E94572369817A81C8010E944E27AECF3E
:1054100069E773E0CE0101960E941A27BE016F5F13
:105420007F4FC6010E948925D82ECE0101960E9489
:105430000426DD2089F0C701880F991FBE016F5F28
:105440007F4F8E52904F0E94572369817A814AE0A4
:10545000C8010E9454298ACF6FE673E0C8010E94F8
:105460001A2784CF3F924F925F926F927F928F92D2
:105470009F92AF92BF92CF92DF92EF92FF920F93E3
:105480001F93CF93DF9300D000D000D01F921F92C4
:10549000CDB7DEB77C01DC0115968C91811115C06A
:1054A000FE013196CE010C966F0130E23193E81780
:1054B000F907E1F7DA0130E087E09D91B92E9923F1
:1054C00029F19E3239F48A3011F480E0DAC038E0F4
:1054D0008AE0F3CFEFE3F8E04491442321F03196E2
:1054E0009413FACFF2CF831780F34FED490F4E3567
:1054F00060F74FE9490F4A3118F440EEB42EB90E67
:10550000F601E30FF11DB0823F5FD7CF8981803272
:10551000E1F2322E8B01FB01838D948DD7015C96D5
:105520009C938E935B971682178210861186128643
:10553000138614861586F80182859385A485B58522
:10554000438954896589768984179507A607B70723
:1055500008F04DC025E0B695A795979587952A95B3
:10556000D1F7F82FFF70AF2ED80115968C918230AD
:1055700008F4ABCFC8010E94581597FDA6CFF801DB
:1055800082859385A485B5854F96A11DB11D82871F
:105590009387A487B587F0E2AF9EB0011124655BC5
:1055A000774F6115710509F490CFDB018C91882349
:1055B00041F0853E09F058C0BB2029F0BB24B394CC
:1055C000BACFB1100EC0F701A28A80910902909162
:1055D0000A02A0910B02B0910C0286879787A08BDC
:1055E000B18BDB018C918111E9CFBB24B394832D66
:1055F0008271823109F069CFBB2009F45AC0C7011A
:105600000E949C0C009709F460CF20E2FC011192EB
:105610002A95E9F72BE0F601DC0101900D922A951D
:10562000E1F721E238E2DC0151963C932E9350974A
:1056300040E058E01F965C934E931E9753963C9320
:105640002E93529759963C932E93589757965C9366
:105650004E93569781E00E94270C882309F435CF9A
:10566000432DF70162890AC04BE050E0C6010E9459
:10567000225D892B09F05FCF432D6A2DC7010E945F
:10568000E4202B960FB6F894DEBF0FBECDBFDF919E
:10569000CF911F910F91FF90EF90DF90CF90BF902F
:1056A000AF909F908F907F906F905F904F903F90C2
:1056B0000895F8018581823009F407CFC8010E945E
:1056C0003810882309F401CFD8015B96ED91FC9145
:1056D0005C9716968D909D90AD90BC901997B2E016
:1056E0008B1A9108A108B108858504C0880C991C03
:1056F000AA1CBB1C8A95D2F786859785A089B1899B
:10570000880E991EAA1EBB1E848124013501480EF5
:10571000511C611C711C84149504A604B70409F182
:10572000E1E04E1A51086108710881E00E94270CDF
:10573000882309F4CACEEBE4F8E011928BE49AE0F6
:105740008E179F07D1F74092090250920A02609289
:105750000B0270920C0280916C07816080936C0741
:10576000DACFD8015B96ED91FC91258580E092E03F
:10577000A0E0B0E004C0880F991FAA1FBB1F2A95A4
:10578000D2F7F8014389548965897689840F951F7A
:10579000A61FB71F838B948BA58BB68BD701529610
:1057A0001C928BE498E031CFCF93DF93CDB7DEB777
:1057B0006D970FB6F894DEBF0FBECDBF442399F1AD
:1057C000AB01BC011C821B8286ED92E09A83898327
:1057D0001E8222E0CE0101960E94322A81110EC063
:1057E00090E081E0911101C080E06D960FB6F894D1
:1057F000DEBF0FBECDBFDF91CF910895CE010196E0
:105800000E945120882361F3CE0101960E949C0CD6
:10581000009731F325EEFC0120831E8281E00E9477
:10582000270C982FDECF81E0E0CF1F93CF93DF933B
:10583000CDB7DEB76D970FB6F894DEBF0FBECDBF04
:10584000AB011C821B8226ED32E03A8329831E8243
:1058500021E0BC01CE0101960E94322A11E08111A3
:105860000CC010E0812F6D960FB6F894DEBF0FBE0E
:10587000CDBFDF91CF911F910895CE0101960E9477
:10588000D712F0CF9F92AF92BF92CF92DF92EF925A
:10589000FF920F931F93CF93DF93CDB7DEB72C9773
:1058A0000FB6F894DEBF0FBECDBF7C016B01942E06
:1058B000B22EA32EDC0112968D919C91DC01ED910C
:1058C000FC910084F185E02D1995F7018281938187
:1058D000DC01ED91FC910084F185E02D1995F70133
:1058E000A281B381892B41F0ED91FC911197028443
:1058F000F385E02DCD01E8CFF6018081F7018483A7
:1059000070E060E0CD010E948D1770E060E0D7018B
:1059100012968D919C910E948D176FEF70E0F701A8
:10592000828193810E948D1761E0600F162F190DFF
:10593000D70112968D919C91DC01ED91FC91019023
:10594000F081E02D612F1995612F70E071956195BF
:105950007109F701828193810E948D1764ED70E0D7
:10596000D70112968D919C910E948D17F70182812B
:105970009381492D50E0DC01ED91FC910280F3818F
:10598000E02DB60119959C2DF60114ED8E2F891B83
:10599000891518F48191180FF9CFF701828193814D
:1059A000402F50E0DC01ED91FC910280F381E02D6D
:1059B0006B2D7A2D19959B2DEB2DFA2D8E2F891B92
:1059C000801718F48191180FF9CFF7018281938124
:1059D000612F6195DC01ED91FC910190F081E02D4A
:1059E000199570E060E0F701828193810E948D1724
:1059F00086E0E6E1F2E0DE01179601900D928A95CD
:105A0000E1F72AE030E046E050E0BE016F5F7F4FF3
:105A1000C7010E949D1518160CF546E050E0BE0126
:105A2000695F7F4FCE0101960E94225D21E0892BA4
:105A300009F420E0822F81952C960FB6F894DEBFF2
:105A40000FBECDBFDF91CF911F910F91FF90EF90CF
:105A5000DF90CF90BF90AF909F9008958EEFECCFE6
:105A60009F92AF92BF92CF92DF92EF92FF920F93ED
:105A70001F93CF93DF93CDB7DEB72C970FB6F89473
:105A8000DEBF0FBECDBF7C016B01942EB22EA32EC4
:105A9000DC0112968D919C91DC01ED91FC910084CA
:105AA000F185E02D1995F70182819381DC01ED915B
:105AB000FC910084F185E02D1995F701A281B38155
:105AC000892B41F0ED91FC9111970284F385E02D33
:105AD000CD01E8CFF6018081F701848370E060E0BA
