:1000000058C7000087C7000085C7000083C70000ED
:1000100081C700007FC700007DC700007BC70000CC
:1000200079C7000077C7000075C7000073C70000DC
:1000300071C700006FC700006DC700006BC70000EC
:1000400069C7000067C7000065C7000063C70000FC
:100050000C9446165FC700005DC700000C94314B3E
:1000600059C700000C9494470C946A4753C700008A
:1000700051C700004FC700004DC700004BC700002C
:1000800049C7000047C7000045C700000C9471161F
:100090000C9440470C9416473DC700000C94111770
:1000A00039C7000037C7000035C7000033C700005C
:1000B00031C700002FC700002DC700002BC700006C
:1000C00029C7000027C7000025C700000C94EC4694
:1000D0000C94C2461FC700000C9498460C946F46BF
:1000E00019C70000204665686C657220002000205A
:1000F00030004665686C65723A206578697374698A
:100100006572742062657265697473004665686C17
:1001100065723A20537065696368657220766F6C0A
:100120006C004665686C65723A206578697374691D
:100130006572742062657265697473004665686CE7
:1001400065723A20537065696368657220766F6CDA
:100150006C004665686C65723A206E69636874204D
:10016000766F7268616E64656E004665686C657274
:100170003A206E6963687420766F7268616E646598
:100180006E0053657269656E6E756D6D6572206E79
:10019000657528002920616C7428005479706665A3
:1001A000686C65720031362D0031362B0030382DE9
:1001B0000030382B00506172616D657465722045A6
:1001C0004550524F4D2800293A2000203D20005430
:1001D00079706665686C65720031362D00576572FE
:1001E000746665686C65720031362B0057657274F1
:1001F0006665686C65720030382D005765727466EC
:1002000065686C65720030382B000D0A434F4E4E06
:10021000454354204F4B0D0A00434C4F5345440077
:10022000434F4E4E454354204F4B0041542B4349BE
:100230005053544152543D22544350222C22777043
:1002400031323036393837322E7365727665722D19
:1002500068652E6465222C22333330362200090073
:1002600009002B4654500041542B465450515549D7
:1002700054002B46545052454E414D453A312C3096
:100280000041542B46545052454E414D45002B469B
:1002900054504745543A312C300041542B46545069
:1002A0004745543D322C323536000A002B46545017
:1002B0004745543A320031090031090049440047AA
:1002C00045543A322C004745543A322C30004654BB
:1002D000504745543D31003A312C003A312C310021
:1002E0004F4B002B4654504745543A312C30004177
:1002F000542B4654504745543D322C333200474529
:10030000540041542B4654504745543D31005055FC
:100310005450415448004F4B0041542B46545050C8
:100320005554504154483D222F57656C41636344F6
:100330006F772F220041542B465450505554504152
:1003400054483D222F57656C416363446F772F22D9
:1003500000474554504154480041542B465450479F
:100360004554504154483D222F57656C41636344C6
:100370006F772F220041542B46545047455450412B
:1003800054483D222F57656C416363446F772F2299
:10039000005055544E414D450041542B4654505049
:1003A00055544E414D453D22002E747874005F61D6
:1003B0005F642E747874002E747874005F755F64C7
:1003C0002E747874004745544E414D450041542BDE
:1003D0004654504745544E414D453D22002E7478B9
:1003E00074005F612E747874002E747874005F75E9
:1003F0002E747874002B4654505055543A312C309A
:100400000041542B4654505055543D322C30002B53
:100410004654505055543A322C0041542B465450B7
:100420005055543D322C002B4654505055543A31BF
:100430002C002B4654505055543A312C312C00414D
:10044000542B4654505055543D31005041544800AF
:1004500041542B465450505554504154483D222F3E
:1004600057656C41636355706C2F22004E414D45BA
:100470000041542B4654505055544E414D453D2259
:10048000004F50540041542B4654505055544F5037
:10049000543D2241505045220050570041542B46B4
:1004A000545050573D2257656C41636365737343E5
:1004B0006C69656E74496F5430303121220050559B
:1004C0004E0041542B465450554E3D2266747031B7
:1004D000323036393837322D57656C416363657376
:1004E00073436C69656E742200504F52540041543E
:1004F0002B465450504F52543D32310053455256C2
:100500000041542B465450534552563D227770308B
:1005100031312E7765627061636B2E686F7374651D
:1005200075726F70652E6465220043494400415422
:100530002B4654504349443D31004F4B00455252E5
:100540004F520043494653520041542B43494653AE
:10055000520043494943520041542B4349494352B5
:10056000004F4B0041542B43495053485554004FC2
:100570004B0041542B435354543D226770727369AE
:100580006E7465726E6574222C22742D6D6F6269B3
:100590006C65222C22746D220041542B5341504231
:1005A000523D302C310041542B53415042523D3189
:1005B0002C31002B53415042523A20312C312C0027
:1005C00041542B53415042523D322C203100505760
:1005D000440041542B53415042523D332C312C2284
:1005E000505744222C22220041542B534150425256
:1005F0003D332C312C22505744222C22746D220082
:1006000041542B53415042523D332C312C225057F0
:1006100044222C222200555345520041542B534171
:100620005042523D332C312C2255534552222C221C
:10063000220041542B53415042523D332C312C2245
:1006400055534552222C22742D6D6F62696C6522C0
:100650000041542B53415042523D332C312C2255F2
:10066000534552222C22220041504E0041542B531C
:10067000415042523D332C312C2241504E222C22EB
:100680006D326D2E7075626C69632E61742200414B
:10069000542B53415042523D332C312C2241504E69
:1006A000222C2267707273696E7465726E65742293
:1006B0000041542B53415042523D332C312C2241A6
:1006C000504E222C227765626175742200434F4E92
:1006D000545950450041542B53415042523D332C04
:1006E000312C22434F4E54595045222C2247505210
:1006F0005322002B43474154543A20310041542B9C
:1007000043474154543F002B435245473A20302C35
:1007100035002B435245473A20302C310041542BB1
:10072000435245473F0041542B435351002B435004
:10073000494E3A2052454144590041542B435049B7
:100740004E3F0041542B43494D490041542B4753E0
:100750004E0041542B4346554E3D310041542B49E8
:1007600050523F0041544530004552524F520D0AFD
:10077000004F4B0D0A002E747874002077726F6E54
:1007800067000900090009004665686C65723A2037
:100790004B61727465206E6963687420766F72684D
:1007A000616E64656E004665686C65723A204461EE
:1007B000746569206E6963687420766F7268616E13
:1007C00064656E004461746569656E6465004665C4
:1007D000686C65723A204B61727465206E6963685B
:1007E0007420766F7268616E64656E004665686C31
:1007F00065723A204461746569206E69636874208B
:10080000766F7268616E64656E004665686C6572CD
:100810003A204461746569206E6963687420656E6E
:10082000746665726E7400756E62656B616E6E746F
:1008300000300020004665686C65723A204B61729A
:100840007465206E6963687420766F7268616E6487
:10085000656E004665686C65723A204B617274651E
:10086000206E6963687420766F7268616E64656E6D
:10087000004665686C65723A204461746569206E53
:100880006963687420766F7268616E64656E0020BB
:100890004164726573736665686C65720030002030
:1008A00000300030300030303000495442315F3188
:1008B0003230707265315F44004665686C65723A2B
:1008C00020417274696B656C206E69636874206581
:1008D000696E67656C656774005363686C6F7373EA
:1008E0007A757374616E643A2000417274696B6545
:1008F0006C616E6D656C64756E673A206E657565CA
:100900007220417274696B656C20280041727469B1
:100910006B656C616E6D656C64756E673A206E65B3
:100920007565722042656E75747A65722028004183
:100930007274696B656C616E6D656C64756E673A37
:1009400020417274696B656C204C65726E766F72B3
:1009500067616E67206265656E646574202800417A
:100960007274696B656C616E6D656C64756E673A07
:100970002042656E75747A6572204C65726E766F72
:100980007267616E67206265656E64657420280019
:10099000417274696B656C616E6D656C64756E67D0
:1009A0003A20756E62656B616E6E7420280041722C
:1009B00074696B656C616E6D656C64756E673A2009
:1009C00042656E75747A657220756E64204172742A
:1009D000696B656C20656E746665726E656E202845
:1009E00000417274696B656C616E6D656C64756EE7
:1009F000673A20417274696B656C2065696E6C653D
:100A0000726E656E202800417274696B656C616E50
:100A10006D656C64756E673A2042656E75747A65B3
:100A2000722065696E6C65726E656E202800417279
:100A300074696B656C616E6D656C64756E673A2088
:100A40007370657272656E20616B74697669657228
:100A50007420280042656E75747A6572616E6D65EA
:100A60006C64756E673A206E6575657220417274AC
:100A7000696B656C20280042656E75747A657261D9
:100A80006E6D656C64756E673A206E657565722073
:100A900042656E75747A657220280042656E7574C1
:100AA0007A6572616E6D656C64756E673A2041722D
:100AB00074696B656C204C65726E766F7267616EDF
:100AC00067206265656E64657420280042656E75F6
:100AD000747A6572616E6D656C64756E673A2042FA
:100AE000656E75747A6572204C65726E766F72678A
:100AF000616E67206265656E6465742028004265DA
:100B00006E75747A6572616E6D656C64756E673A48
:100B100020756E62656B616E6E7420280042656E92
:100B200075747A6572616E6D656C64756E673A2076
:100B300042656E75747A657220756E6420417274B8
:100B4000696B656C20656E746665726E656E2028D3
:100B50000042656E75747A6572616E6D656C647560
:100B60006E673A20417274696B656C2065696E6CC2
:100B700065726E656E20280042656E75747A6572C6
:100B8000616E6D656C64756E673A2042656E757452
:100B90007A65722065696E6C65726E656E202800DC
:100BA00042656E75747A6572616E6D656C64756EA2
:100BB000673A20656E747370657272656E20616B42
:100BC000746976696572742028007C3C3E5E2B3D1A
:100BD0003F2F5B5D3B2C2A225C0000002200250099
:100BE00028002B002E003100340002010000050116
:100BF00008010B01000020002300260029002C0022
:100C00002F0032000001000003010601090100006D
:100C10000A0B02090C0D0E08070304010000000076
:100C200000000000000000000000000000000000C4
:100C30000000000000000000000012111000000081
:100C400000000000000000000000000000000000A4
:100C50000000000052544320445331333037207495
:100C60007279656420746F20696E697469616C695A
:100C700063650023494E462000525443206E6F7432
:100C80002064657465637465642064656661756C71
:100C900074204453313330370023494E46200052EC
:100CA000544320445331333037206E6F7420696EC3
:100CB000697469616C6963656420736F207472790B
:100CC000656420746F20696E697469616C6963651D
:100CD0000023494E462000525443204453313330C0
:100CE000372064657465637465640023494E46204B
:100CF000005254432050434638353233206E6F74CF
:100D000020696E697469616C696365642C20736F16
:100D100020747279656420746F20696E69746961EA
:100D20006C6963650023494E4620005254432050AD
:100D300043463835323320646574656374656400F6
:100D400023494E462000200052544320445331335F
:100D50003037200023494E462000200052544320C3
:100D600050434638353233200023494E462000692F
:100D7000203D200023494E462000426F6F74766F5D
:100D80007267616E673A20616267657363686C6F52
:100D90007373656E205628495442315F313230708A
:100DA0007265315F4429004469676974616C6572DA
:100DB00020486175736D6569737465723A20656E5C
:100DC000747370657272656E20616B7469766965A3
:100DD00072740057656C4163633A20496E697469A7
:100DE00061746520446F776E6C6F61640053797332
:100DF0003A204865617274626561742800000021C0
:100E000000240027002A002D0030003300010100DB
:100E100000040107010A0101021020200808102027
:100E20004010204080020102010804020101020476
:100E30000810204080804020100804020180040235
:100E4000018040201008040201080402010102048C
:100E5000081020408001020408102040800505058C
:100E600005070508080808020202020A0A08080421
:100E7000040404010101010101010103030303034F
:100E8000030303040707070C0C0C0C0C0C0C0C02DE
:100E900002020206060606060606060B0B0B0B0BE5
:100EA0000B0B0B1F1C1F1E1F1E1F1F1E1F1EB55EC0
:100EB0009D5E11241FBECFEFD1E2DEBFCDBF00E0AB
:100EC0000CBF14E0A0E0B2E0E2E4F2EE00E00BBF01
:100ED00002C007900D92A431B107D9F72FE0A4E129
:100EE000B4E001C01D92A63DB207E1F717E0C8E5E6
:100EF000D7E000E006C021970109802FFE010E9483
:100F0000EB6CC735D10780E00807A9F70E940D6098
:100F10000C94107175C8DC015996ED91FC913097D5
:100F200021F081E09581911101C080E00895DC01FC
:100F30005996ED91FC913097B9F083899489A589F0
:100F4000B6894285538564857585841B950BA60BF0
:100F5000B70B811520E89207A105B10538F08FEF96
:100F60009FE7A0E0B0E0089590E080E00895DC0104
:100F700059968D919C91009739F0DC01ED91FC918F
:100F80000480F581E02D199490E080E00895CF93DE
:100F9000DF931F92CDB7DEB76983DC01ED91FC9141
:100FA0000280F381E02D41E050E0BE016F5F7F4F92
:100FB00019950F90DF91CF910895DC01ED91FC918F
:100FC0000190F081E02D1994CF93DF93EC0165E55A
:100FD00070E08A819B81F1DF65E570E08A819B8109
:100FE000ECDF70E060E08A819B81E7DF70E060E029
:100FF0008A819B81E2DF70E060E08A819B81DDDF96
:101000008A819B81DC01ED91FC910084F185E02DCA
:1010100019958A819B81DC01ED91FC910084F18519
:10102000E02D1995892B49F08A819B81DC01ED9196
:10103000FC910284F385E02DEBCFDF91CF910895F1
:10104000CF93DF93EC0165E570E08A819B81B5DF8A
:1010500065E570E08A819B81B0DF70E060E08A81A5
:101060009B81ABDF70E060E08A819B81A6DF70E04E
:1010700060E08A819B81A1DF8A819B81DC01ED9107
:10108000FC910084F185E02D19958A819B81DC011A
:10109000ED91FC910084F185E02D1995892B49F0A3
:1010A0008A819B81DC01ED91FC910284F385E02D26
:1010B000EBCFDF91CF91089520913F07260F332783
:1010C000331F21323105ECF42091D307FC0190E06D
:1010D00080E0243069F082E00895A0913F072191DB
:1010E000AC01415E584FA40FB52FB11D2C93019652
:1010F000861798F380913F07680F60933F0780E061
:10110000089581E00895089508950895E091FA07FB
:101110008091F907E81730F4F0E0E752F84F80814A
:1011200090E008958FEF9FEF08959091FA078091D6
:10113000F9072FEF3FEF981748F4E92FF0E0E75257
:10114000F84F208130E09F5F9093FA07C90108951E
:101150008091F9079091FA07891B990B0895CF9216
:10116000DF92EF92FF920F931F93CF93DF937C0157
:10117000CB018A0120918A07222389F0EB016B01C0
:10118000C40ED51ECC15DD0561F06991D701ED9136
:10119000FC910190F081E02DC7011995F3CF642FE8
:1011A0008BDFC801DF91CF911F910F91FF90EF90DE
:1011B000DF90CF900895CF93DF931F92CDB7DEB726
:1011C000698320918A072223F9F02091AC0720320D
:1011D00058F021E030E0FC013383228390E080E08E
:1011E0000F90DF91CF91089580918B07E82FF0E069
:1011F000E457F84F998190838F5F80938B0780939A
:10120000AC0781E090E0ECCF61E0CE01019654DFC5
:10121000F8CF90E080E00895CF93DF939C01C4E67F
:10122000D7E081E08A838FB78B83F894B9017695F4
:10123000679590E080E0605C7D4B804F9F4F50E071
:1012400040E00E947D6CDA01C90123E0880F991FFC
:10125000AA1FBB1F2A95D1F7998388839093870093
:10126000809386008B818FBFE1E8F0E08081887FEA
:10127000808380819A81892B8083DF91CF9108952B
:10128000CF93DF93FB0122813381DC0113963C93E2
:101290002E931297448155816681778114964D93E0
:1012A0005D936D937C931797408551856285738517
:1012B00018964D935D936D937C931B971C96EF014D
:1012C0002C969C01275E3F4F49914D93A217B3077F
:1012D000D9F7218D328DFC01328F218FDF91CF9193
:1012E00008952F923F924F925F926F927F928F92CA
:1012F0009F92AF92BF92CF92DF92EF92FF920F93A5
:101300001F93CF93DF932C011A0189013B01D0E099
:10131000C0E06901F12CE12CC215D30511F10E9446
:10132000BC4A4B015C01D20112968D919C91DC016B
:10133000ED91FC910284F385E02D199597FF25C06E
:101340000115110581F30E94BC4A681979098A09BF
:101350009B096C157D058E059F0528F38EEF209760
:1013600009F08C2FDF91CF911F910F91FF90EF909B
:10137000DF90CF90BF90AF909F908F907F906F90B5
:101380005F904F903F902F900895F30181933F011C
:101390002196C2CFAF92BF92CF92DF92EF92FF928F
:1013A0000F931F93CF93DF9300D01F921F92CDB75F
:1013B000DEB77C01062FB72E142F690143E050E001
:1013C000BE016F5F7F4F8DDF181694F08EEF9FEF99
:1013D0000F900F900F900F900F90DF91CF911F9172
:1013E0000F91FF90EF90DF90CF90BF90AF90089556
:1013F0008981882319F08DEF9FEFEACF8A818111CF
:10140000FACF8B818F3FB9F7960142E050E0BE01E1
:101410006C5F7F4FC70165DF1816C4F68C819D8114
:10142000980F49F782508C83181708F445C0F701CC
:101430001481AA24A394A10E960142E050E0BE01BB
:101440006F5F7F4FC7014DDF18160CF0BFCF89814A
:10145000853D89F68A818A11CECF4C8150E0960174
:10146000602F7B2DC7013DDF2C81082E000C990BCE
:101470002817190609F0AACF1A52902FE02FFB2D3A
:101480008E2F891B821718F48191180FF9CF9601BE
:1014900042E050E0BE016F5F7F4FC70122DF1816A8
:1014A0000CF094CF8981180F09F0A5CF8A818111A2
:1014B000A2CF8C8190E08CCF8CEF9FEF89CF2F92C1
:1014C0003F924F925F926F927F928F929F92AF92D4
:1014D000BF92CF92DF92EF92FF920F931F93CF9321
:1014E000DF932C011A0189013B01D0E0C0E06901C2
:1014F000F12CE12CC215D30511F10E94BC4A4B011D
:101500005C01D20112968D919C91DC01ED91FC91D0
:101510000284F385E02D199597FF25C0011511056B
:1015200081F30E94BC4A681979098A099B096C15E4
:101530007D058E059F0528F38EEF209709F08C2FEF
:10154000DF91CF911F910F91FF90EF90DF90CF909F
:10155000BF90AF909F908F907F906F905F904F90D3
:101560003F902F900895F30181933F012196C2CFC0
:10157000AF92BF92CF92DF92EF92FF920F931F93A1
:10158000CF93DF9300D01F921F92CDB7DEB77C01BF
:10159000062FB72E142F690143E050E0BE016F5FA4
:1015A0007F4F8DDF181694F08EEF9FEF0F900F9006
:1015B0000F900F900F90DF91CF911F910F91FF909F
:1015C000EF90DF90CF90BF90AF90089589818823EE
:1015D00019F08DEF9FEFEACF8A818111FACF8B81CD
:1015E0008F3FB9F7960142E050E0BE016C5F7F4F3C
:1015F000C70165DF1816C4F68C819D81980F49F7E5
:1016000082508C83181708F445C0F7011481AA246E
:10161000A394A10E960142E050E0BE016F5F7F4FA0
:10162000C7014DDF18160CF0BFCF8981853D89F6C3
:101630008A818A11CECF4C8150E09601602F7B2D9C
:10164000C7013DDF2C81082E000C990B28171906C5
:1016500009F0AACF1A52902FE02FFB2D8E2F891B55
:10166000821718F48191180FF9CF960142E050E0EB
:10167000BE016F5F7F4FC70122DF18160CF094CFB9
:101680008981180F09F0A5CF8A818111A2CF8C81A1
:1016900090E08CCF8CEF9FEF89CF60911D078FE199
:1016A0000E94E74780911D0791E0892780931D07DD
:1016B0000895E1E8F0E08081887F808360E08FE139
:1016C0000C94E747CF939FEF980F923000F510925C
:1016D0000F0791E090939F0690930502823009F4E2
:1016E00041C0C1E0C0939E0661E083E20E94E747EB
:1016F00060E082E20E94E747C09312078091710781
:101700009091720790931107809310070AC082305E
:1017100049F18330D1F1813021F380911207811199
:1017200004C080919F06CF91089581E080930F07B8
:1017300080939F0680919E06813059F461E082E299
:101740000E94E74760E083E20E94E7471092120799
:10175000E8CF8230D9F761E083E20E94E74760E09A
:1017600082E2F2CF82E080939E0661E082E20E94F4
:10177000E74760E083E20E94E74781E08093120739
:1017800080916F0790917007BDCF80919F0688234D
:1017900041F280910502882321F081508093050257
:1017A000C0CF61E082E20E94E74761E083E20E94ED
:1017B000E74710929F0681E0F1CFCF93DF93CDB73B
:1017C000DEB76D970FB6F894DEBF0FBECDBF4423D2
:1017D00099F1AB01BC011C821B8282EA92E09A83E0
:1017E00089831E8222E0CE0101960E945456811107
:1017F0000EC090E081E0911101C080E06D960FB6BF
:10180000F894DEBF0FBECDBFDF91CF910895CE011A
:1018100001960E945452882361F3CE0101960E94E2
:101820006F4D009731F325EEFC0120831E8281E08D
:101830000E94FB4C982FDECF81E0E0CF1F93CF9327
:10184000DF93CDB7DEB76D970FB6F894DEBF0FBE4E
:10185000CDBFAB011C821B8222EA32E03A8329838E
:101860001E8221E0BC01CE0101960E94545611E077
:1018700081110CC010E0812F6D960FB6F894DEBF79
:101880000FBECDBFDF91CF911F910895CE0101967C
:101890000E94F457F0CFCF93DF93EC01898D9A8D9E
:1018A000009741F00E94F457898D9A8D0E94116A29
:1018B0001A8E198EDF91CF910895FC01818D928D42
:1018C000009719F061E00C9489510895CF93DF934C
:1018D000EC01E98DFA8D309749F481E090E09B832B
:1018E0008A8390E080E0DF91CF9108951382128285
:1018F000898D9A8D0E944D53E98DFA8D2281338115
:10190000232B59F7F0CF9F92AF92BF92CF92DF92E5
:10191000EF92FF920F931F93CF93DF93CDB7DEB774
:101920002C970FB6F894DEBF0FBECDBF7C016B01C4
:10193000942EB22EA32EDC0112968D919C91DC0187
:10194000ED91FC910084F185E02D1995F7018281DC
:101950009381DC01ED91FC910084F185E02D1995D6
:10196000F701A281B381892B41F0ED91FC91119790
:101970000284F385E02DCD01E8CFF6018081F701E7
:10198000848370E060E0CD0118DB70E060E0D70197
:1019900012968D919C9111DB6FEF70E0F7018281BF
:1019A00093810BDB61E0600F162F190DD7011296A2
:1019B0008D919C91DC01ED91FC910190F081E02DE5
:1019C000612F1995612F70E0719561957109F7018B
:1019D00082819381F2DA64ED70E0D70112968D91E5
:1019E0009C91EBDAF70182819381492D50E0DC0173
:1019F000ED91FC910280F381E02DB60119959C2DAB
:101A0000F60114ED8E2F891B891518F48191180F9A
:101A1000F9CFF70182819381402F50E0DC01ED91F5
:101A2000FC910280F381E02D6B2D7A2D19959B2D71
:101A3000EB2DFA2D8E2F891B801718F48191180F2A
:101A4000F9CFF70182819381612F6195DC01ED91DE
:101A5000FC910190F081E02D199570E060E0F701B4
:101A600082819381AADA86E0EDE1F2E0DE01179649
:101A700001900D928A95E1F72AE030E046E050E0CF
:101A8000BE016F5F7F4FC7012CDC18160CF546E0D6
:101A900050E0BE01695F7F4FCE0101960E94CF6D7D
:101AA00021E0892B09F420E0822F81952C960FB636
:101AB000F894DEBF0FBECDBFDF91CF911F910F9184
:101AC000FF90EF90DF90CF90BF90AF909F900895E0
:101AD0008EEFECCF9F92AF92BF92CF92DF92EF92B8
:101AE000FF920F931F93CF93DF93CDB7DEB72C9761
:101AF0000FB6F894DEBF0FBECDBF7C016B01942EF4
:101B0000B22EA32EDC0112968D919C91DC01ED91F9
:101B1000FC910084F185E02D1995F7018281938174
:101B2000DC01ED91FC910084F185E02D1995F70120
:101B3000A281B381892B41F0ED91FC911197028430
:101B4000F385E02DCD01E8CFF6018081F701848394
:101B500070E060E0CD0131DA70E060E0D70112960C
:101B60008D919C912ADA6FEF70E0F7018281938169
:101B700024DA61E0600F162F190DD70112968D91AE
:101B80009C91DC01ED91FC910190F081E02D612FA1
:101B90001995612F70E0719561957109F701828146
:101BA00093810BDA64ED70E0D70112968D919C91D0
:101BB00004DAF70182819381492D50E0DC01ED9137
:101BC000FC910280F381E02DB60119959C2DF60160
:101BD00014ED8E2F891B891518F48191180FF9CFF8
:101BE000F70182819381402F50E0DC01ED91FC915F
:101BF0000280F381E02D6B2D7A2D19959B2DEB2D15
:101C0000FA2D8E2F891B801718F48191180FF9CFA8
:101C1000F70182819381612F6195DC01ED91FC9147
:101C20000190F081E02D199570E060E0F70182816C
:101C30009381C3D986E0EDE1F2E0DE0117960190D1
:101C40000D928A95E1F72AE030E046E050E0BE01CF
:101C50006F5F7F4FC70133DC18160CF546E050E08C
:101C6000BE01695F7F4FCE0101960E94CF6D21E0DA
:101C7000892B09F420E0822F81952C960FB6F894D9
:101C8000DEBF0FBECDBFDF91CF911F910F91FF90AF
:101C9000EF90DF90CF90BF90AF909F9008958EEF20
:101CA000ECCF40E052EC61E070E0FC018281938176
:101CB0000C94B94140E052EC61E070E0FC0182819B
:101CC00093810C94B941EF92FF921F93CF93DF93CE
:101CD000182FEB017A019091F9078091FA07981774
:101CE00019F00E947641F7CF1695812F0E94894105
:101CF00061E080E899E05FDA61E080E899E05BDA32
:101D000081E00E9415496EE170E080E090E00E9461
:101D10008C4A41E06AE0812F0E943A481092FA070B
:101D20008093F9070E947641873049F50E947641F9
:101D30000E9476410E94764188830E947641898381
:101D40000E9476418A830E9476418B831C821D8289
:101D50001E829091F9078091FA07981719F00E9456
:101D60007641F7CF84E0F701808381E00E94154936
:101D700081E0DF91CF911F91FF90EF9008958A301D
:101D800021F50E9476410E9476410E947641888327
:101D90000E94764189830E9476418A830E9476411F
:101DA0008B830E9476418C830E9476418D830E94B2
:101DB00076418E839091F9078091FA07981719F070
:101DC0000E947641F7CF87E0CECF188219821A821F
:101DD0001B821C821D821E829091F9078091FA0756
:101DE000981719F00E947641F7CFF701108281E031
:101DF0000E94154980E0BDCFCF93809114028930B5
:101E000061F498E09093140220910D02293051F46E
:101E100090930D0210921C070EC0813031F498E0AF
:101E20009093140280930D02F5CF8430C1F38A3071
:101E3000B1F38B30A1F380910D0280930C0290914D
:101E40001C07843009F4D4C0F0F4813069F1823089
:101E500009F09AC1911108C081E080931C0785E1C7
:101E600080931B071092170780911B07853109F497
:101E7000A1C008F08BC0882309F48BC1909117078B
:101E8000891336C086C18A3009F471C18B3009F4D8
:101E900074C1893009F078C191117BC181E08093D0
:101EA0001C0780E00FDC75C1911117C080931C07DF
:101EB00084E20E94BE4780931A0785E20E94BE47D3
:101EC000C82F809319078093180781E0FBDB8CE013
:101ED000C11101C08BE080931B07109217078091FE
:101EE0001B078B3041F08C30D9F0882309F451C1A5
:101EF000809317074EC18093170785E20E94BE4763
:101F00008093190790911807891709F442C1882313
:101F100009F43FC1809318078CE080931B0739C1F7
:101F20008093170780911607811104C080911507CF
:101F3000882351F0109216071092150780916E07B2
:101F40008093140782E0BEDB85E20E94BE47809347
:101F5000190790911807891709F41BC1811119C13C
:101F6000B1DB84E20E94BE47882341F010921B0738
:101F700082E080930D0210921C070BC180911A071A
:101F80008111F4CF10921B0783E0F3CF90911707D4
:101F9000863101F1873109F071CF973111F08093CB
:101FA000170785E20E94BE47809319078111F1C08F
:101FB00089DBE8CF90911707953111F080931707CF
:101FC00084E20E94BE47892B09F0E3C081E07ADBFE
:101FD00086E1A3CF963111F08093170785E20E9426
:101FE000BE4780931907882309F4D3C087E195CFB2
:101FF000911118C081E080931C0784E20E94BE47C3
:1020000080931A0785E20E94BE47C82F8093190764
:102010008093180782E056DB8BE2C11101C089E290
:1020200080931B0780911B078B3209F44CC0E8F4A6
:10203000882309F4AEC0893209F020CF90911707A8
:10204000993211F08093170785E20E94BE47809372
:10205000190790911807891709F49BC0882309F480
:1020600098C0809318078BE258CF909117078C3255
:1020700009F46AC08D3209F001CF9D3211F08093CE
:10208000170780911607811104C0809115078823D6
:1020900051F0109216071092150780916E078093E9
:1020A000140781E00FDB85E20E94BE478093190789
:1020B00090911807891709F46CC081116AC01092B9
:1020C000180700DB39C0909117079B3211F08093FD
:1020D000170780911607811104C080911507882386
:1020E00069F081E08093130710921607109215078C
:1020F00080916E078093140781E0E4DA85E20E9404
:10210000BE478093190790911807891709F441C0B9
:1021100081113FC010921807D5DA84E20E94BE47B1
:1021200090911A07891304C090911307992341F0E5
:1021300080931A071092130710921B0785E019CF9E
:1021400082E0C0DA8CE2E9CE9C3211F0809317076E
:1021500085E20E94BE47809319079091180789175E
:10216000C1F08823B1F0809318078DE2D6CE91118B
:1021700010C081E080931C0795CE91110AC081E0C8
:1021800080931C0782E08ECE911103C081E0809382
:102190001C0780911207882361F1809119079091A3
:1021A0001807891363C08091100790911107009759
:1021B00009F453C001979093110780931007809101
:1021C00014072091100730911107820F932F911D52
:1021D000892B79F484E20E94BE4780931A078823F2
:1021E00009F447C080E06EDA81E080931507109211
:1021F000160780910F07813031F483E063DA811193
:1022000002C010920F0780917B00877F80937B0034
:1022100080E480937C0080917A00806480937A00CF
:1022200080917A0086FDFCCF9091780080917900B2
:10223000892798278927813223E0920714F160E0EB
:1022400089E10E94E74761E082E10E94E74760E0A0
:1022500081E30E94E74760E024C08091140788234F
:1022600009F4ADCF815080931407A9CF809318074C
:10227000A6CF80E027DA81E0809316071092150739
:10228000B8CF61E0853F914084F089E10E94E74743
:1022900060E082E10E94E74760E081E30E94E74757
:1022A00061E080E3CF910C94E74789E10E94E74722
:1022B00061E082E10E94E74761E0CACF0C94606C64
:1022C0000F931F93CF93DF938C01EB010E94586C07
:1022D0008883C80101960E94586C8983CE01DF91E2
:1022E000CF911F910F910895CF93DF93EB010E943F
:1022F000586C8883CE01DF91CF910895CF92DF9201
:10230000EF92FF920F931F93CF93DF93EB017B012B
:102310002AE0E20EF11C8B016C01C61AD70AC60135
:10232000800F911F0E94586CF80181938F01EE1568
:10233000FF05A9F7CE01DF91CF911F910F91FF907B
:10234000EF90DF90CF900895CF93DF939C01E091C1
:102350009506F0919606CF01019666E070E00E9426
:10236000D86C40919306509194064817590791F004
:10237000EC01C9012AE52E9FB0012F9F700D112499
:1023800069587B4F4AE550E00E945341D09396062E
:10239000C0939506DF91CF9108951F93CF93DF935C
:1023A000CDB7DEB764970FB6F894DEBF0FBECDBFD2
:1023B000182FCE0101960E940D418B859C8511340A
:1023C00031F089859A85123411F090E080E06496AE
:1023D0000FB6F894DEBF0FBECDBFDF91CF911F9136
:1023E00008952F923F924F925F926F927F928F92B9
:1023F0009F92AF92BF92CF92DF92EF92FF920F9394
:102400001F93CF93DF93CDB7DEB7A3970FB6F894A2
:10241000DEBF0FBECDBF582E462E372ECE01019601
:102420000E940D418B859C8599A388A30B811C81FB
:102430000F5F1F4F1F8E212C852C912CF40131979B
:10244000FBA3EAA388A199A128161906B0F56E018D
:1024500096E1C90ED11C642C732CF12CE12CE814EC
:10246000F90439F1B601C8018E0D9F1D3DDFF3015E
:1024700081913F01F6019081FFEFCF1ADF0A981397
:1024800018C08AA19BA1E816F9067CF0BE016B5E1C
:102490007F4FC801019728DF8D89851541F191E0B3
:1024A0009F8F065F1F4F2394CDCFEFEFEE1AFE0AEA
:1024B000D6CFFF8DFF23A9F3E9CF80E0A3960FB617
:1024C000F894DEBF0FBECDBFDF91CF911F910F916A
:1024D000FF90EF90DF90CF90BF90AF909F908F9044
:1024E0007F906F905F904F903F902F90089581E084
:1024F000E5CFAF92BF92CF92DF92EF92FF920F9310
:102500001F93CF93DF93CDB7DEB7C854D1090FB671
:10251000F894DEBF0FBECDBF98E0E3E2F2E0DE014B
:10252000D19601900D929A95E1F798E0EBE2F2E0F6
:10253000DE01D99601900D929A95E1F798E0E3E3D8
:10254000F2E0DE01AF5BBF4F01900D929A95E1F78B
:1025500098E0EBE3F2E0DE01599601900D929A9536
:10256000E1F798E0E3E4F2E0DE01919601900D924C
:102570009A95E1F798E0EBE4F2E0DE01999601909C
:102580000D929A95E1F798E0E3E5F2E0DE0111960D
:1025900001900D929A95E1F798E0EBE5F2E0DE010B
:1025A000199601900D929A95E1F798E0E3E6F2E032
:1025B000DE01519601900D929A95E1F7FE01F19698
:1025C00093E040E0282F2150330B89016B0130E06C
:1025D00020E0281788F4D6015D916D017F01E20E9D
:1025E000F31ED7011196FC90F51206C02017310793
:1025F0002CF42F5F3F4FEDCF442321F0208128178B
:1026000019F141E0915038969111E0CFFE01799691
:1026100043E050E0282F2150330B89015B0130E06B
:1026200020E0281798F4D501FD905D016F01C20EDE
:10263000D31ED6011196EC90EF1008C02017310779
:102640003CF42F5F3F4FEDCF91E0E0CF552321F0D9
:102650002081281719F151E0415038964111DECF01
:10266000FE01319643E050E0282F2150330B8901C1
:102670005B0130E020E0281798F4D501FD905D0162
:102680006F01C20ED31ED6011196EC90EF1008C058
:10269000201731073CF42F5F3F4FEDCF92E0E0CFA2
:1026A000552321F020812817C1F051E04150389680
:1026B0004111DECF892FC85BDF4F0FB6F894DEBF24
:1026C0000FBECDBFDF91CF911F910F91FF90EF9083
:1026D000DF90CF90BF90AF90089593E0EBCF2F9213
:1026E0003F924F925F926F927F928F929F92AF92A2
:1026F000BF92CF92DF92EF92FF920F931F93CF93EF
:10270000DF93CDB7DEB7A4970FB6F894DEBF0FBE48
:10271000CDBF382E6CA3272ECE0109960E94F14022
:1027200089859A8599A388A31F8EB12CA12C85E158
:10273000E82EF12C832C912CF4013197FBA3EAA312
:1027400088A199A1A816B906C1F16E0196E1C90E3A
:10275000D11C4CA0522C10E000E00815190549F1DD
:10276000B601C701800F911FBFDDF20181912F01DA
:10277000F6019081FFEFCF1ADF0A98131AC08AA1E1
:102780009BA10817190794F0BE016B5E7F4FC7012C
:102790000197AADD8D89831551F191E09F8FFAE0B1
:1027A000EF0EF11C2FEFA21AB20ACACF0F5F1F4F14
:1027B000D4CFEF8DEE2399F3E7CF80E0A4960FB648
:1027C000F894DEBF0FBECDBFDF91CF911F910F9167
:1027D000FF90EF90DF90CF90BF90AF909F908F9041
:1027E0007F906F905F904F903F902F90089581E081
:1027F000E5CF8FB7F894809163078FBF089561E0AC
:10280000FC0184810E94E747809162078111109248
:10281000620708958EBD00000DB407FEFDCF8EB592
:1028200008958FEFF7CF8CBD9DBD0895CF93DF93B3
:10283000EC0180916207811108C081E080936207FA
:102840008091350990913609EEDF60E08C81DF914F
:10285000CF910C94E7478F929F92AF92BF92FF92D5
:102860000F931F93CF93DF93EC01F62E49015A018A
:102870008E81882379F08F8198859C012F5F3F4F4F
:1028800038872F838230924010F4CBDFF4CFCE0113
:10289000B6DF1E82CE01CADF8CE291E00E94C84AF8
:1028A0008F2D8064B7DF08E110E0D501C401002E50
:1028B00004C0B695A795979587950A94D2F7AADF95
:1028C00008501109083F8FEF180779F785E9FF20B5
:1028D00021F028E087E8F2128FEF9CDF10E0A1DF03
:1028E0008A8787FF04C01F3F11F01F5FF8CFDF9179
:1028F000CF911F910F91FF90BF90AF909F908F90BD
:102900000895AF92BF92CF92DF92EF92FF920F9312
:102910001F93CF93DF93EC016901C801820F931FCE
:102920008130924048F58E81882379F088819981A1
:10293000AA81BB8184179507A607B70731F48F8159
:102940009885C816D90608F03EC0488359836A8323
:102950007B838B85833039F089E0440F551F661FD8
:10296000771F8A95D1F79A01AB0161E1CE0173DF40
:10297000882381F083E08D83CE0141DF80E0DF9109
:10298000CF911F910F91FF90EF90DF90CF90BF906C
:10299000AF9008950E94BC4A5B0143DF8A878F3F56
:1029A00061F40E94BC4A6A197B096D327140A8F338
:1029B0008FE08D83CE0123DFDFCF8E3F81F4188639
:1029C0001F8281E08E838F8198858C159D0548F448
:1029D00028DF8F819885019698878F83F4CF8DE0CB
:1029E000E8CF6701E00EF11E1CDFF60181936F0155
:1029F000EE15FF05C9F78F819885080F191F1887F5
:102A00000F838985882319F00115124090F08E817B
:102A1000882379F08F8198859C012F5F3F4F3887FD
:102A20002F838230924010F4FCDEF4CFCE01E7DE3B
:102A30001E8281E0A4CFCF92DF92EF92FF920F939C
:102A4000CF93DF93EC01690182E1411551056105E6
:102A5000710591F08B85833039F089E0440F551F63
:102A6000661F771F8A95D1F79A01AB0168E1CE0105
:102A7000F2DE882319F084E08D8326C08EEFCADE53
:102A800076018EEFD81AF70181917F01C3DEEC1435
:102A9000FD04C9F78FEFBEDE8FEFBCDEC2DE8A8792
:102AA0008F71853069F4011113C0CE01A8DE81E079
:102AB000DF91CF910F91FF90EF90DF90CF9008952D
:102AC00081E18D83CE019BDECE0199DE80E0F0CFE7
:102AD00088E592E00E94C84A811102C085E1CCCF0E
:102AE00020E030E0A9016DE0CE01B5DE882311F0D1
:102AF00084E1C2CF96DE8111FBCFD7CFFC01DB0191
:102B000012968D919C9113979383828382EA92E02F
:102B10009183808314968C911497848315968C915D
:102B20001597858316964D915D916D917C911997BE
:102B300046835783608771871A964D915D916D9199
:102B40007C911D9742875387648775871E964D91A8
:102B50005D916D917C91519746875787608B718B02
:102B600052968C915297828B53964D915D916D91B7
:102B70007C915697438B548B658B768B57964D91F2
:102B80005D916D917C915A97478B508F618F728FB9
:102B90005B968D919C91948F838F0895EF92FF9215
:102BA0000F931F93CF93DF93EC017B018A011B826C
:102BB0001A8288EE93E0A0E0B0E08C839D83AE8320
:102BC000BF8388ED92E0998388838DE190E00E9435
:102BD00075699A8F898F009779F02DE1F701DC01F3
:102BE00001900D922A95E1F74CE050E0B801CE013A
:102BF0000C960E941F6E188EDF91CF911F910F913E
:102C0000FF90EF900895CF93DF931F92CDB7DEB77B
:102C100041E050E0BE016F5F7F4F0E944E5501972B
:102C200031F4898190E00F90DF91CF9108958FEF7B
:102C30009FEFF9CFFC01818D928D009709F0E3CFD2
:102C40008FEF9FEF08950F931F93CF93DF93EC01C6
:102C5000898D9A8D10E000E0009791F0D4DF8C010F
:102C60000F3F100769F0898D9A8DFC0142855385CD
:102C70006485758541505109610971090E94C151EE
:102C8000C801DF91CF911F910F9108951F920F926C
:102C90000FB60F9211240BB60F922F933F934F93C1
:102CA0005F936F937F938F939F93AF93BF93EF93B4
:102CB000FF93E0916807F09169071995FF91EF91F3
:102CC000BF91AF919F918F917F916F915F914F9144
:102CD0003F912F910F900BBE0F900FBE0F901F9042
:102CE00018951F920F920FB60F9211240BB60F92E8
:102CF0002F933F934F935F936F937F938F939F9304
:102D0000AF93BF93EF93FF93E0917807F09179072A
:102D10001995FF91EF91BF91AF919F918F917F9105
:102D20006F915F914F913F912F910F900BBE0F903C
:102D30000FBE0F901F9018951092D30781E08093DB
:102D4000D2071092CD0761E084E10E94E74761E07D
:102D500085E10E94E747E9EBF0E080818E7F808388
:102D600080818D7F808388E48093B80085E48093A0
:102D7000BC000895CF93DF9391E090931E078823C2
:102D8000B1F0C091B800D091BA008091BC008A7BAC
:102D90008093BC0060E084E10E94E74760E085E149
:102DA0000E94E747C9DFD093BA00C093B800DF9113
:102DB000CF91089585ED8093BC008091D5079091C7
:102DC000D607A091D707B091D8070796A11DB11DCE
:102DD00023E0B695A795979587952A95D1F72091E9
:102DE000BC0024FD03C01092D30708954091D5077D
:102DF0005091D6076091D7077091D807452B462B85
:102E0000472B69F30097A105B10541F025E32A9509
:102E1000F1F700000197A109B109E1CF8091D40732
:102E2000A9CF1F920F920FB60F9211240BB60F92DB
:102E30002F933F934F935F936F937F938F939F93C2
:102E4000AF93BF93EF93FF938091B900887F803653
:102E500009F44CC008F03FC0883209F4A8C028F536
:102E6000803109F49CC0C8F4882309F4FAC0883082
:102E700009F495C0FF91EF91BF91AF919F918F9110
:102E80007F916F915F914F913F912F910F900BBE6A
:102E90000F900FBE0F901F901895883109F487C0CE
:102EA000803241F78093D10714C0803409F49CC06C
:102EB00040F48033B9F38833E9F68093D10785EC89
:102EC000AFC0803509F484C0883509F495C08834D2
:102ED00089F670DFCFCF883909F48CC038F5883790
:102EE00029F050F4883611F0803721F683E0809382
:102EF000D3071092610757C0883809F47BC0803926
:102F000019F0803809F0B6CF80916107803208F05F
:102F100071C0E091610781E08E0F8093610780911D
:102F2000BB00F0E0EF5BF84F80833DC0803B39F0A1
:102F3000E0F4803A09F479C0883A09F09BCF84E044
:102F40008093D3071092400710923F07E0918707C4
:102F5000F0918807199580913F0781110FC081E09A
:102F600080933F0710921F0709C0803C09F4A7CF48
:102F7000883C09F4A4CF883B09F07CCFE09140075E
:102F800081E08E0F80934007F0E0E15EF84F808192
:102F90008093BB009091400780913F0729C08091AA
:102FA000CE078093BB0085EC8093BC0063CF9091EB
:102FB000D0078091CF07981758F5E091D00781E0AE
:102FC0008E0F8093D007F0E0E355F84F8081E9CF72
:102FD000E091D00781E08E0F8093D0078091BB00F5
:102FE000F0E0E355F84F80839091D0078091CF07B0
:102FF0009817C8F285E8D8CFE091D00781E08E0F0E
:103000008093D0078091BB00F0E0E355F84F8083B8
:103010008091D20781115DCF81E08093CD0784EA52
:103020008093BC001092D30725CF85EC8093BC0021
:103030001092D30780916107803230F4E0916107EC
:10304000F0E0EF5BF84F10826091610770E0E09173
:103050008507F091860781E497E019951092610742
:1030600009CF1092D10735CFCF92DF92EF92FF9226
:103070000F931F93CF93DF93C62F6A010EEB1FE0D0
:10308000823411F008EC1FE0C43011F0C73021F594
:1030900078018FEFE81AF80A6C2FC8010FD910E0F9
:1030A00000E0D0E0C8018E0D9F1D60E00C171D07E9
:1030B00024F4F601E00FF11F608100D90F5F1F4F6C
:1030C0000730110579F7DF91CF911F910F91FF9094
:1030D000EF90DF90CF900895C111F5CFD0E0C0E020
:1030E00060E0CE01800F911FE9D82196C830D1054C
:1030F000B9F7E9CFFF920F931F93CF93DF93EC01C2
:10310000F62E08811981C8010E94586CF81621F02A
:103110006F2DC8010E94606CCE01DF91CF911F918D
:103120000F91FF900895EF92FF920F931F93CF930B
:10313000DF931F921F92CDB7DEB78C017B019A837C
:103140008983FB016081CE010196D4DF0F5F1F4FA1
:103150001A830983F7016181CE010196CBDFC70194
:103160000F900F90DF91CF911F910F91FF90EF90F3
:103170000895AF92BF92CF92DF92EF92FF920F939A
:103180001F93CF93DF931F921F92CDB7DEB78B01B2
:103190006B012AE0C20ED11C7B015C01A61AB70AA2
:1031A000C5018E0D9F1D9A838983F70161917F016F
:1031B000CE0101969FDFEC14FD0491F7C8010F903A
:1031C0000F90DF91CF911F910F91FF90EF90DF90C3
:1031D000CF90BF90AF900895CF93DF93CDB7DEB778
:1031E000E2970FB6F894DEBF0FBECDBF89A7262F9A
:1031F000DE019A96FB019E2F921B981718F491916D
:103200009D93F9CF81E489ABCE0101960E940D41D7
:1032100084E1FE013196DE01559601900D928A956A
:10322000E1F78F89988D4F8D58A16AE0649F9001D6
:10323000659F300D1124BE01675D7F4F820F931F84
:1032400098DF8F8D98A1019698A38F8FBE01615E44
:103250007F4F8AE090E067DFE2960FB6F894DEBF1A
:103260000FBECDBFDF91CF910895CF93DF93CDB740
:10327000DEB7E2970FB6F894DEBF0FBECDBF89A7C9
:10328000262FDE019A96FB019E2F921B981718F4A9
:1032900091919D93F9CF85E589ABCE0109960E9466
:1032A000F14084E1FE013196DE01559601900D92C8
:1032B0008A95E1F72D8D3E8D4AE0429FC001439FE4
:1032C000900D1124BE01675D7F4F449652DF8D8DB6
:1032D0009E8D01969E8F8D8FBE01635E7F4F88E02D
:1032E00090E021DFE2960FB6F894DEBF0FBECDBFAF
:1032F000DF91CF9108950F931F93CF93DF93082F02
:1033000010E00458184FF801D081DD2351F1C82F87
:103310000E941548609335047093360480933704F7
:1033200090933804C0933404F8011082C150C73020
:1033300080F4EC2FF0E061E08827EE55F64E8F4FD9
:103340000C94EB6CB719BD19C319C919CF19D5194C
:10335000DB1961E082E00E94E74761E083E00E94C0
:10336000E7478D2FDF91CF911F910F91089582E054
:103370000E94E74761E084E0F2CF82E00E94E747E5
:1033800061E085E0ECCF82E00E94E74761E086E003
:10339000E6CF82E00E94E74761E087E0E0CF82E08D
:1033A0000E94E74761E088E0DACF82E00E94E747C9
:1033B00061E089E0D4CF82E00E94E74761E08AE0E3
:1033C000CECF0F931F93E0913404E83098F4F0E0EF
:1033D00060E08827E151F64E8F4F0C94EB6CF719A3
:1033E0002D1A2F1A311A331A351A371A391A83E05F
:1033F0000E94E74780913404883030F50E941548D8
:103400008B014091350450913604609137047091DE
:103410003804E0913404DC01C801841B950BA60B31
:10342000B70B24E0E29FF0011124EC5EFB4F4081DA
:10343000518162817381481759076A077B0720F41D
:1034400080839183A283B3838FEF8093340460E001
:1034500082E01F910F910C94E74784E0C9CF85E08B
:10346000C7CF86E0C5CF87E0C3CF88E0C1CF89E072
:10347000BFCF8AE0BDCF9F92AF92BF92CF92DF9233
:10348000EF92FF920F931F93CF93DF93CDB7DEB7E9
:10349000AA970FB6F894DEBF0FBECDBF7C018B019B
:1034A00080916D07813009F098C023E130E041E15F
:1034B00050E0CE014F960E940A46CE014F960E94E0
:1034C0002242D62E20E130E04EE050E0B801CE019D
:1034D00049960E940A46CE0149960E942242C62E73
:1034E0002DE030E04BE050E0B801CE0143960E9461
:1034F0000A46CE0143960E942242B62E22E030E0D8
:1035000050E040E0B801CE010D960E940A46CE017F
:103510000D960E942242A62E25E030E043E050E0C6
:10352000B801CE0107960E940A46CE0107960E9476
:103530002242962E2AE030E046E050E0B801CE016B
:1035400001960E940A46CE0101960E9422429B01EA
:10355000603D774010F0205D37402DA39EA2AFA2C2
:10356000B8A6C9A6DAA6CE0185960E94914CCE01D6
:1035700001960E947245CE0107960E947245CE01C7
:103580000D960E947245CE0143960E947245CE016F
:1035900049960E947245CE014F960E947245F701EE
:1035A000118210821382128215821482B801C7011F
:1035B0000E945A44C701AA960FB6F894DEBF0FBE08
:1035C000CDBFDF91CF911F910F91FF90EF90DF90D2
:1035D000CF90BF90AF909F900895823001F723E184
:1035E00030E041E150E0CE014F960E940A46CE0104
:1035F0004F960E942242D62E20E130E04EE050E06D
:10360000B801CE0149960E940A46CE0149960E9411
:103610002242C62E2DE030E04BE050E0B801CE0152
:1036200043960E940A46CE0143960E942242B62E3D
:1036300022E030E050E040E0B801CE010D960E945B
:103640000A46CE010D960E942242A62E25E030E0C9
:1036500043E050E0B801CE0107960E940A46CE0131
:1036600007960E942242962E2AE030E046E050E083
:10367000B801CE0101960E940A46CE0101960E9431
:1036800022429B01603D774010F0205D37402DA322
:103690009EA2AFA2B8A6C9A6DAA6CE0185960E94C0
:1036A000144A65CF8F929F92AF92BF92CF92DF92D2
:1036B000EF92FF920F931F93CF93DF9300D000D030
:1036C000CDB7DEB77C01A62E6A0160E873E00E94E8
:1036D000F6458601D12CC12CB12CCA14DB044CF563
:1036E000C114D10429F067E873E0C7010E944B447C
:1036F0004801F8018081803128F466EE72E0C7014C
:103700000E944B440F5F1F4F40E1F4016081CE01E6
:1037100001960E94A545BE016F5F7F4FC7010E94C1
:103720005444CE0101960E947245FFEFCF1ADF0A82
:10373000D4CFC70126960FB6F894DEBF0FBECDBF1B
:10374000DF91CF911F910F91FF90EF90DF90CF907D
:10375000BF90AF909F908F9008951F93CF93DF936A
:10376000EC01162F68EE72E00E94F6451730A0F4C7
:10377000E12FF0E08827E054F44E8F4F0C94EB6C6F
:10378000C71BD11BD41BD71BDA1BDD1BE01B62EF51
:1037900072E0CE010E942945CE01DF91CF911F91A9
:1037A00008956EEF72E0F5CF6AE073E0F2CF60E269
:1037B00073E0EFCF6CE273E0ECCF62E373E0E9CF4C
:1037C00066E473E0E6CFDF92EF92FF920F931F93D0
:1037D000CF93DF93CDB7DEB7E3970FB6F894DEBF94
:1037E0000FBECDBF7C01CE014C960E94934160E894
:1037F00073E0CE0188960E94F64580916D078E0198
:103800000F5F1F4F813009F000C1C8010E94064CB4
:1038100086E0F801DE015C9601900D928A95E1F751
:1038200089A11F928F9388A11F928F938F8D1F92D2
:103830008F938E8D1F928F938D8D1F928F938C8D72
:1038400090E08053984F9F938F938DE593E09F93E3
:103850008F931F930F930E94486EB801CE018896F4
:103860000E94294567E873E0C8010E94F645B80147
:10387000CE0188960E948F439C0150E040E0BE013B
:10388000685D7F4FCE014C960E940A46BE01645E81
:103890007F4FCE0182960E94EE4569E773E0CE012C
:1038A00082960E94C244BC01CE018E960E94EE45D3
:1038B000CE0182960E947245CE014C960E947245BE
:1038C000C8010E9472458FE59AE00E948B070FB6EF
:1038D000F894DEBF0FBECDBF882389F06BE67AE097
:1038E000C8010E94F645BE01625D7F4FC8010E947B
:1038F000C743D82EC8010E947245D11015C08FE56C
:103900009AE00E948B07882321F08FE59AE00E94BD
:103910004B0C6EA57FA547E1C8010E940058B80175
:103920008FE59AE00E94400967E873E0C8010E94B1
:10393000F645B801CE0188960E948F432CA53DA57F
:10394000AC014F5F5F4FBE01685D7F4FCE014C966B
:103950000E940A46BE01645E7F4FCE0182960E949D
:10396000EE4567E873E0CE0182960E94C244B7013B
:103970000E94D644BC018FE59AE00E945346CE01D6
:1039800082960E947245CE014C960E947245C801F3
:103990000E9472458FE59AE00E945D0CBE01685D51
:1039A0007F4FC8010E94EE4569E0C8010E94A5440E
:1039B000B7010E94D6446EE773E00E94C244BC0186
:1039C000CE014C960E94EE45CE014C960E94A41169
:1039D000CE014C960E947245C8010E947245CE01EC
:1039E0008E960E947245CE0188960E947245E3969B
:1039F0000FB6F894DEBF0FBECDBFDF91CF911F9100
:103A00000F91FF90EF90DF900895823009F008CF7A
:103A1000C8010E947B4BFCCEEF92FF920F931F9345
:103A2000CF93DF9300D000D0CDB7DEB78C0160E834
:103A300073E00E94F64586EFE82E8FE0F82EC7016E
:103A40000E94586C8F3FD1F466EE72E0C8010E946C
:103A50004B448FEFE81AF80AE11480E1F80679F791
:103A6000C80126960FB6F894DEBF0FBECDBFDF911A
:103A7000CF911F910F91FF90EF900895682FCE0185
:103A800001960E94CE45BE016F5F7F4FC8010E9424
:103A90005444CE0101960E947245DBCF0F931F93D1
:103AA000CF93DF93CDB7DEB76D970FB6F894DEBF37
:103AB0000FBECDBF80910E07882309F47DC08150D1
:103AC00080930E0780910802882309F4B5C28150C3
:103AD0008093080210910C02133069F0153009F43C
:103AE0001FC5123041F0113031F0812F8D7F11E070
:103AF000843009F010E08091EF06811709F451C07D
:103B00001093EF06612F84EB9FE00E94606C612FA1
:103B1000CE01429622DE69ED78E0CE0101960E9448
:103B2000E645BE016F5F7F4FCE010C960E94EE45C9
:103B3000BE016E5E7F4FCE010C960E94D644BC0142
:103B4000CE0148960E94EE45CE0148963CDECE015D
:103B500048960E947245CE010C960E947245CE0195
:103B600001960E947245CE0142960E947245809154
:103B70000C028330B1F480910702882391F050E069
:103B800040E060E081E470DA69EB78E0CE01019614
:103B90000E94E645CE01019616DECE0101960E94F6
:103BA00072456D960FB6F894DEBF0FBECDBFDF91A4
:103BB000CF911F910F91089581E080930E0780911E
:103BC0000A0290910B02009729F0019790930B0243
:103BD00080930A02E7E0F7E087E0DF011D928A9513
:103BE000E9F71092060746E057E0BF0182EA0E941B
:103BF000630E8823C1F067E077E0809106070E949A
:103C0000F111882309F4ACC080910A0290910B0253
:103C1000892B19F482E08093060285E090E090936E
:103C20000B0280930A0280910A0290910B02892B69
:103C300041F486E20E94BE47892B19F081E080930F
:103C400084071AE088E10E94BE47892B09F0DEC193
:103C50001150C1F71092FE064EEF56E06FEF76E07E
:103C600080EA0E94630E2091FC063091FD068823B5
:103C700009F4CCC1232B31F082E090E09093FD0653
:103C80008093FC0680910902882309F41BCF1092CF
:103C9000090282E08093060214E01093120210934E
:103CA00013020091FB068091FE066FEF76E0011192
:103CB0004FC19091FA0691114BC10E946F13882356
:103CC00009F456C085E0809312028093130210938A
:103CD000140281E0809384074FEF56E06091FE0666
:103CE00082E4C2D94FEF56E06091FE06CE014296C3
:103CF000D9DC60EA7BE0CE0101960E94E645BE0178
:103D00006F5F7F4FCE010C960E94EE45BE016E5E46
:103D10007F4FCE010C960E94D64461E873E00E946A
:103D2000C244BC01CE0148960E94EE45CE014896A1
:103D30004ADDCE0148960E947245CE010C960E9443
:103D40007245CE0101960E947245CE0142960E94B4
:103D5000724582E090E09093FD068093FC06B2CE1F
:103D600083E08093060210920B0210920A025BCF4E
:103D70006FEF76E08091FE060E947912813009F49F
:103D80004EC008F4A2C0823009F48AC0833009F022
:103D900099CE4FEF56E06091FE06CE01429682DC4E
:103DA0006DE17BE0CE0101960E94E645BE016F5FAA
:103DB0007F4FCE010C960E94EE45BE016E5E7F4F96
:103DC000CE010C960E94D64461E873E00E94C24482
:103DD000BC01CE0148960E94EE45CE014896F3DC28
:103DE000CE0148960E947245CE010C960E94724503
:103DF000CE0101960E947245CE0142960E94724504
:103E000061E080E20E94E7470E94275A89E08093A0
:103E100006028CE0809312028093130253CE10931B
:103E2000060297E090931202909313028093FB0690
:103E30004FEF56E06091FE06CE01429633DC68E714
:103E40007BE0CE0101960E94E645BE016F5F7F4F89
:103E5000CE010C960E94EE45BE016E5E7F4FCE01F4
:103E60000C960E94D64461E873E00E94C244BC01F3
:103E7000CE0148960E94EE45CE014896A4DCCE01C4
:103E800048960E947245CE010C960E947245CE0162
:103E900001960E947245CE0142960E94724512CE52
:103EA00086E08093060289E08093120280931302D9
:103EB00081E08093FA064FEF56E06091FE06CE0156
:103EC0004296F0DB61E57BE0BCCF83E080930602A5
:103ED00086E080931202809313024FEF56E06091C8
:103EE000FE06CE014296DEDB6EEF7AE0CE01019651
:103EF0000E94E645BE016F5F7F4FCE010C960E9487
:103F0000EE45BE016E5E7F4FCE010C960E94D644F8
:103F100061E873E00E94C244BC01CE0148960E9451
:103F2000EE45CE0148964FDCCE0148960E94724580
:103F3000CE010C960E947245CE0101960E947245F8
:103F4000CE0142960E94724581E080931602BACD5E
:103F50000E9479128130B9F4002309F4B3CD85E0D1
:103F60008093060288E080931202809313021092DD
:103F7000FB064FEF56E06091FE06CE01429692DBC3
:103F80006CEC7AE05ECF8230C9F48091FA06882327
:103F900009F498CD87E0809306028AE080931202AC
:103FA000809313021092FA064FEF56E06091FE06DE
:103FB000CE01429677DB6BE97AE043CF833009F498
:103FC00081CD002379F06FEF76E08091FE064DD928
:103FD0004FEF56E06091FE06CE01429663DB67E745
:103FE0007AE02FCF8091FA06882309F46BCD6FEF2A
:103FF00076E08091FE06F0D84FEF56E06091FE0625
:10400000CE0142964FDB64E57AE01BCF8091FC063F
:104010009091FD06009729F001979093FD068093FB
:10402000FC068091FC069091FD06892B09F04ACD93
:1040300081E08093090246CD81E0809308028CE8FC
:1040400099E00E94973E892B29F08CE899E00E9424
:10405000753EF5CF6AEB8CE899E00E94E93E62E09C
:104060008CE899E00E94E93E61E08CE899E00E94CA
:10407000E93E69EB8CE899E00E94E93E8CE899E022
:104080000E944F3F82E390E0A0E0B0E0809390096F
:1040900090939109A0939209B09393091092F3061B
:1040A0001092F4061092F5061092F6061092F7069A
:1040B0001092F8061092F90661E070E0CE01429687
:1040C0000E94E14A0197A1F01092F2068091F00659
:1040D0009091F106009709F01DC28091F006909131
:1040E000F106892B09F0F6CC81E080930702F2CC2F
:1040F0008A898D3B49F761E070E0CE010C960E9401
:10410000E14A019709F76C85683011F06B30E1F6F0
:1041100070E0CE0101960E94E14A2C85281719060D
:1041200099F6283009F08CC08B818093F3068C813E
:104130008093F4068D818093F5068E818093F60638
:104140001092F7061092F8061092F90684E0809318
:10415000F2062091F0063091F106232B31F022E097
:1041600030E03093F1062093F006909107029923F6
:1041700009F4B0CC1092070292E09093060204E09A
:1041800000931202009313021091FB0663EF76E096
:10419000111160C19091FA0691115CC10E94F11158
:1041A000882309F467C085E080931202809313028C
:1041B00081E08093140243EF56E06091F20681E4BF
:1041C0000E94341843EF56E06091F206CE01429609
:1041D00069DA6EE27AE0CE0101960E94E645BE0100
:1041E0006F5F7F4FCE010C960E94EE45BE016E5E62
:1041F0007F4FCE010C960E94D64461E873E00E9486
:10420000C244BC01CE0148960E94EE45CE014896BC
:10421000DADACE0148960E947245CE010C960E94D1
:104220007245CE0101960E947245CE0142960E94CF
:10423000724582E090E09093F1068093F0064ACCBC
:104240002B3009F041CF8B818093F3068C818093D2
:10425000F4068D818093F5068E818093F6068F811A
:104260008093F70688858093F80689858093F90600
:1042700087E06DCF63EF76E08091F2060E947912BD
:10428000813009F44EC008F4A2C0823009F48AC01B
:10429000833009F01FCC43EF56E06091F206CE0167
:1042A000429600DA6EEA79E0CE0101960E94E64578
:1042B000BE016F5F7F4FCE010C960E94EE45BE019E
:1042C0006E5E7F4FCE010C960E94D64461E873E08B
:1042D0000E94C244BC01CE0148960E94EE45CE0128
:1042E000489671DACE0148960E947245CE010C962E
:1042F0000E947245CE0101960E947245CE014296FF
:104300000E94724561E080E20E94E7470E94275ABE
:1043100089E0809306028CE080931202809313025E
:10432000D9CB0093060297E0909312029093130268
:104330008093FB0643EF56E06091F206CE01429671
:10434000B1D967E07AE0CE0101960E94E645BE0150
:104350006F5F7F4FCE010C960E94EE45BE016E5EF0
:104360007F4FCE010C960E94D64461E873E00E9414
:10437000C244BC01CE0148960E94EE45CE0148964B
:1043800022DACE0148960E947245CE010C960E9418
:104390007245CE0101960E947245CE0142960E945E
:1043A000724598CB86E08093060289E080931202E2
:1043B0008093130281E08093FA0643EF56E0609108
:1043C000F206CE0142966ED961EE79E0BCCF83E071
:1043D0008093060286E0809312028093130243EFDB
:1043E00056E06091F206CE0142965CD960E979E030
:1043F000CE0101960E94E645BE016F5F7F4FCE0160
:104400000C960E94EE45BE016E5E7F4FCE010C966B
:104410000E94D64461E873E00E94C244BC01CE0110
:1044200048960E94EE45CE014896CDD9CE014896D9
:104430000E947245CE010C960E947245CE010196F3
:104440000E947245CE0142960E94724581E080939F
:10445000150240CB0E9479128130B9F4112309F47E
:1044600039CB85E08093060288E080931202809326
:1044700013021092FB0643EF56E06091F206CE0164
:10448000429610D96FE579E05ECF8230C9F4809111
:10449000FA06882309F41ECB87E0809306028AE09F
:1044A00080931202809313021092FA0643EF56E0B3
:1044B0006091F206CE014296F5D86FE279E043CFE3
:1044C000833009F407CB112381F063EF76E080910C
:1044D000F2060E94351943EF56E06091F206CE01D4
:1044E0004296E0D86CE079E02ECF8091FA068823DE
:1044F00009F4F0CA63EF76E08091F2060E94EC18AE
:1045000043EF56E06091F206CE014296CBD86AEEB8
:1045100078E019CF01979093F1068093F006DDCDF6
:1045200014E0E9CA0F931F93CF93DF93CDB7DEB7A3
:104530002C970FB6F894DEBF0FBECDBF8C0166E797
:1045400077E0CE0107960E94E645B801CE010196BC
:104550000E94EE45BE01695F7F4FCE0101960E9429
:10456000D644BC0180E89AE00E945D45CE010196E8
:104570000E947245CE0107960E94724581E08093A9
:1045800076042C960FB6F894DEBF0FBECDBFDF9138
:10459000CF911F910F9108950F931F93CF93DF93A6
:1045A00000D000D0CDB7DEB711E08BEF97E00E94CE
:1045B000973E892B09F44BC08BEF97E00E94753E24
:1045C00080935C0490913B042091390430913A042B
:1045D000992339F12F5F3F4F30933A0420933904E8
:1045E000809102029091030280359105A9F46AE05E
:1045F00072E0CE0101960E94E645BE016F5F7F4FDB
:104600008AE79AE00E949243082FCE0101960E9409
:104610007245011110933B041092660410926504D8
:10462000C4CF2F3F310509F034F42F5F3F4F309353
:104630003A042093390489831A8241E050E0BE0194
:104640006F5F7F4F8AE79AE00E942044C9CF269689
:104650000FB6F894DEBF0FBECDBFDF91CF911F9193
:104660000F91089599CF9F92AF92BF92CF92DF9210
:10467000EF92FF920F931F93CF93DF9300D000D060
:10468000CDB7DEB78C016B015A017A0181E0E81ADF
:10469000F10861EB71E0CE0101960E94E645BE0192
:1046A0006F5F7F4FC6010E94C743982ECE010196CF
:1046B0000E947245992001F1BE016F5F7F4FC501D5
:1046C0008F52904F0E9474114AE06981C8010E9484
:1046D000A545C80126960FB6F894DEBF0FBECDBF24
:1046E000DF91CF911F910F91FF90EF90DF90CF90CE
:1046F000BF90AF909F9008956DEA71E0CE01019652
:104700000E94E645BE016F5F7F4FC6010E94C7430E
:10471000982ECE0101960E947245992049F0BE0163
:104720006F5F7F4FC5018F52904F0E947411CCCFA5
:1047300069EA71E0CE0101960E94E645BE016F5F15
:104740007F4FC6010E94C743B82ECE0101960E943A
:104750007245BB2081F0C701880F991FBE016F5FB2
:104760007F4F8E52904F0E94601169817A81C801FB
:104770000E943245AECF65EA71E0CE0101960E94FB
:10478000E645BE016F5F7F4FC6010E94C743D82E2A
:10479000CE0101960E947245DD2089F0C701880F85
:1047A000991FBE016F5F7F4F8E52904F0E94601124
:1047B00069817A814AE0C8010E947A458ACF6BE913
:1047C00071E0C8010E94E64584CFAF92BF92CF92BC
:1047D000DF92EF92FF920F931F93CF93DF93CDB7AA
:1047E000DEB7A9970FB6F894DEBF0FBECDBF5C0150
:1047F0006B0160E873E0CE0184960E94F64506EFF7
:104800001FE0C8010E94586C682FCE0101960E94DB
:10481000CE45BE016F5F7F4FCE0184960E94544407
:10482000CE0101960E9472450F5F1F4F011580E176
:10483000180739F74BE050E0BE016F5F7F4FC601AC
:104840000E9453418E010F5F1F4F86EFE82E8FE0CD
:10485000F82EF80161918F01C7010E945E11FFEFF0
:10486000EF1AFF0AE11480E1F80699F764E971E0B4
:10487000CE0148960E94E64562E871E0CE010C96B2
:104880000E94E645BE01645F7F4FCE0142960E94C2
:10489000EE45B601CE0142960E94D644BE01685E46
:1048A0007F4F0E94D644BE016C5D7F4F0E94D6446C
:1048B00061E873E00E94C244BC01CE014E960E94A2
:1048C000EE45CE014E960E94E31BCE014E960E940D
:1048D0007245CE0142960E947245CE010C960E940E
:1048E0007245CE0148960E947245B601CE010C96E3
:1048F0000E94EE4567E873E0CE010C960E94C24428
:10490000BE016C5D7F4F0E94D644BC01C5010E9470
:10491000EE45CE010C960E947245CE0184960E940F
:104920007245C501A9960FB6F894DEBF0FBECDBF84
:10493000DF91CF911F910F91FF90EF90DF90CF907B
:10494000BF90AF9008958F929F92AF92BF92CF92F7
:10495000DF92EF92FF920F931F93CF93DF93CDB728
:10496000DEB7E2970FB6F894DEBF0FBECDBF6C0185
:10497000F62E8A0163E873E0CE018B960E94F6451D
:104980001AAA19AACE0101960E940D4181E4F816D7
:1049900039F082E4F81609F45CC0F12CE12C33C044
:1049A000EB80FC808B859C859AAB89AB1016110639
:1049B0001CF480179107E8F46AE671E0C6010E94D2
:1049C000E645CE018B960E947245C601E2960FB66F
:1049D000F894DEBF0FBECDBFDF91CF911F910F9135
:1049E000FF90EF90DF90CF90BF90AF909F908F900F
:1049F000089501979AAB89ABBE016F5C7F4F8AE047
:104A000090E00E949318580181E0A81AB1082AE0AA
:104A10002A9DC0012B9D900D1124E80EF91E89A935
:104A20009AA9A816B90668F547018AE0880E911C74
:104A3000BE016B5E7F4FC4010E947E11BE016B5EA2
:104A40007F4FC7010E94B9188FEFA81AB80A7401E6
:104A5000E6CFE980FA8089859A859AAB89AB1016F2
:104A600011061CF48017910718F462E571E0A6CFD7
:104A700001979AAB89ABBE016F5C7F4F88E090E0F5
:104A8000C0CF4AE0B801CE0185960E947A45BE01AA
:104A9000655D7F4FCE014F960E94EE45BE016B5D76
:104AA0007F4FCE014F960E94D644BC01C6010E94A2
:104AB000EE45CE014F960E947245CE0185960E942A
:104AC00072457FCF7F928F929F92AF92BF92CF928B
:104AD000DF92EF92FF920F931F93CF93DF93CDB7A7
:104AE000DEB7E0970FB6F894DEBF0FBECDBF7C01F6
:104AF000762E6A0166E873E0CE018B960E94F64539
:104B0000CE0101960E940D4187E08D8BF6018481D4
:104B10009581449710F484E08D8B5E01F5E1AF0E32
:104B2000B11C450110E000E094012A193B098D8970
:104B30009FEF891A990A82171306D9F0D4F09801C9
:104B40002E5F3F4FA801B601CE014F960E940A4644
:104B500040E150E070E060E08F8D98A10E949A6A79
:104B6000F4016083CE014F960E9472450D5F1F4F86
:104B7000DBCFF1E47F1649F092E4791609F474C0B2
:104B800010E000E0912C812C3BC00B851C852F810F
:104B900038856CE371E00217130758F48B809C8012
:104BA000BE016A5E7F4F0E94F1118823F1F062E23C
:104BB00071E0C7010E94E645CE018B960E947245C6
:104BC000C701E0960FB6F894DEBF0FBECDBFDF91F0
:104BD000CF911F910F91FF90EF90DF90CF90BF90FA
:104BE000AF909F908F907F900895C801019698A3F1
:104BF0008F8FBE01615E7F4F8AE090E00E94931824
:104C00002AE0209FC001219F900D1124B501880D3D
:104C1000991D0E94B918B8016F5F7F4FCE0185962C
:104C20000E943245BE01655D7F4FCE014F960E94C6
:104C3000EE45BE016B5D7F4FCE014F960E94D6447C
:104C400067E873E00E94C244B6010E94D644BC01EA
:104C5000C7010E94EE45CE014F960E947245CE01DB
:104C600085960E947245A8CF09851A852D813E81BF
:104C70006CE071E00217130708F09BCF89809A80DF
:104C8000BE016A5E7F4F0E946F1362EF70E0811178
:104C900090CFC801019698A38F8FBE01615E7F4FB0
:104CA00088E090E0ABCFDF92EF92FF920F931F93DB
:104CB000CF93DF93CDB7DEB7EC970FB6F894DEBF96
:104CC0000FBECDBF7C01D62E8A0160E873E00E9442
:104CD000F645CE0101960E940D411016110644F4CE
:104CE00021E4D21609F476C032E4D31609F4CBC01D
:104CF0006D817E81CE01C7960E94324569817A819D
:104D0000CE01C1960E9432456F817885CE018B9687
:104D10000E9432456B817C81CE0185960E9432458E
:104D200064EE70E0CE0145960E94E645BE016B5EE2
:104D30007F4FCE014F960E94EE45BE016B5D7F4FC7
:104D4000CE014F960E94D64469E873E00E94C244A7
:104D5000BE01655D7F4F0E94D64467E873E00E9404
:104D6000C244BE016F5C7F4F0E94D64469E873E085
:104D70000E94C244BE01695C7F4F0E94D644BC01C0
:104D8000C7010E945444CE014F960E947245CE0145
:104D900045960E947245CE0185960E947245CE01CD
:104DA0008B960E947245CE01C1960E947245CE013B
:104DB000C7960E947245C701EC960FB6F894DEBF05
:104DC0000FBECDBFDF91CF911F910F91FF90EF905C
:104DD000DF9008958F8198858017910708F488CF18
:104DE0008B819C81009709F483CF015011094AE01F
:104DF000409F9001419F300D1124BE016B5E7F4F9B
:104E0000820F931F0E947E1110E0812F012E000C53
:104E1000990B2D892817190671F26CF2E6E1F0E082
:104E2000EC0FFD1F8E0F9F1FFC01608140E1CE0142
:104E30008B96603188F50E94A5456FEE70E0CE013B
:104E40004F960E94E645BE01615E7F4FCE0185967A
:104E50000E94EE45BE01655D7F4FCE0185960E94A2
:104E6000D644BC01C7010E945444CE0185960E94DD
:104E70007245CE014F960E947245CE018B960E94DC
:104E800072451F5FC2CF8D819E818017910708F404
:104E90002FCF89819A81A6CF0E94A5456DEE70E043
:104EA000CECFCF92DF92EF92FF920F931F93CF93CB
:104EB000DF93CDB7DEB768970FB6F894DEBF0FBEAD
:104EC000CDBF80916E04811109C060E873E088E66F
:104ED00094E00E94F64581E080936E04809167041F
:104EE000882371F08091660490910402891740F440
:104EF0008F5F80936604891718F081E080936504C2
:104F0000F09064042091020230910302809100022B
:104F1000909101022817390719F4FF2009F4B5C050
:104F20001092630410926204F11009C060E873E00B
:104F300088E694E00E94294583E080930402109261
:104F40006404109267048091000290910102909392
:104F5000030280930202F89460E873E08AE79AE023
:104F60000E9429457894109265041092660484E1A9
:104F700080936104FF24F3941091610480915C0498
:104F8000E12C8A3009F0D4C000916704002309F4B1
:104F9000B4C061E777E0CE0101960E94E645BE010C
:104FA0006F5F7F4F8AE79AE00E948F436C01CE01CA
:104FB00001960E947245D7FCA0C0F8946FE773E099
:104FC000CE0107960E94F645BE01695F7F4F8AE7D2
:104FD0009AE00E948F43E12C97FD16C06FE773E0C3
:104FE000CE0101960E94F645BE016F5F7F4F8AE7B2
:104FF0009AE00E948F43EE24E39402970CF0E12C98
:10500000CE0101960E947245CE0107960E9472451C
:10501000EE2009F445C06FE773E0CE0101960E94CF
:10502000F645BE016F5F7F4F8AE79AE00E948F438B
:1050300040917E0A50917F0A4115510509F1BC014A
:105040006F5F7F4FE9F04617570708F4BA01809168
:105050007A0A90917B0A461B570B50937F0A409324
:105060007E0A680F791F0E941F6EE0917A0AF09104
:105070007B0A80917E0A90917F0AE80FF91F1082C7
:10508000CE0101960E94724599CF0E94BC4A809140
:105090006104882309F470CF8150809361046CCF40
:1050A000789480910202909103028433910509F46F
:1050B000E4C308F08BC08E31910509F4FAC108F001
:1050C0004DC08231910509F452C1209167048331AA
:1050D000910580F58B30910509F423C18C30910541
:1050E00009F432C10A9799F5211109C164E677E004
:1050F00088E694E00E94E744A1C000916704E12C97
:10510000002379F269E677E0CE0101960E94E64538
:10511000BE016F5F7F4F8AE79AE00E949243EE24C0
:10512000E394811101C0E12CCE0101960E947245E9
:1051300000E0B7CF8431910509F436C108F42EC1DF
:105140008531910509F460C1469709F48DC18FEF4F
:1051500090E0909301028093000270C08932910523
:1051600009F4D9C2209167048A329105D0F48032C3
:10517000910509F4EEC108F4B1C1889741F72111F6
:10518000A3C260E873E088E694E00E94B2438823FB
:1051900009F404C265ED76E088E694E00E94E744F5
:1051A0004DC08B32910509F405C308F4E0C2823387
:1051B000910509F413C3C39751F621113EC364E668
:1051C00075E088E694E00E94E74438C08434910595
:1051D00009F4DFC708F051C08F33910509F45BC5AE
:1051E000E8F48D33910509F44FC408F019C5CC9744
:1051F00009F0ADCF80916704811128C460E873E0A5
:1052000088E694E00E94B243882309F4B3C36EE2B7
:1052100075E088E694E00E94E74410C0209167049E
:105220008134910509F435C608F487C582349105A7
:1052300009F458C68334910509F089CF8091670439
:105240008111F7C580916C0490916D04892B09F44C
:10525000F0C568E674E08BEF97E00E9453460E9429
:10526000BC4A60935D0470935E0480935F049093E6
:10527000600481E080936704E5C58834910511F4EA
:105280000C94E032E0F4209167048634910511F427
:105290000C94C23210F40C948F32FF2031F082E370
:1052A0008093040286E98093610421110C94DA3220
:1052B00067E672E088E694E00E94E744BFCF81355C
:1052C000910511F40C94CF3380F48035910509F0E9
:1052D0003ECF8091670481110C94A1336BE272E0A0
:1052E00088E694E00E94E744A9CF8935910511F43E
:1052F0000C9405348F3F910509F4A0CF28CF0023EB
:1053000039F08BE090E0909301028093000296CFF9
:1053100011118FC582E190E0909301028093000209
:105320008DCF211107C06CE577E088E694E00E94FC
:10533000E74484CF002309F434C28CE090E09093DA
:105340000102809300027ACF211107C062E577E065
:1053500088E694E00E94E74471CF002309F421C25B
:1053600084E190E0909301028093000267CFFF20D8
:1053700041F061E087E10E94E7478AE080936104A1
:105380005DCF11115BCF60E087E10E94E74783E1C9
:1053900090E0909301028093000250CFF1104ECF25
:1053A000112309F400C24ACF211107C06BE477E052
:1053B00088E694E00E94E74441CF002309F4F1C15C
:1053C0006BE873E0CE0101960E94F645BE016F5F67
:1053D0007F4F8AE79AE00E948F438C01CE010196AD
:1053E0000E9472450F30110541F440E150E06CE439
:1053F00074E08AE79AE00E94534185E190E090933F
:105400000102809300021ACF211107C063E477E004
:1054100088E694E00E94E74411CF002309F4C1C15B
:105420006BE873E0CE0101960E94F645BE016F5F06
:105430007F4F8AE79AE00E948F438C01CE0101964C
:105440000E9472450F30110541F440E150E06CE3D9
:1054500074E08AE79AE00E94534186E190E09093DD
:10546000010280930002EACE211107C06AE377E0CF
:1054700088E694E00E94E744E1CE002309F491C15C
:105480006DE277E0CE0101960E94E645CE010196DD
:105490000E940542082FCE0101960E94724500230A
:1054A00009F47ECF8EE190E0909301028093000298
:1054B000C5CE80916704811107C066E277E088E677
:1054C00094E00E94E744BACE002309F46AC18FE158
:1054D00090E09093010280930002B0CE211107C0AA
:1054E0006DE177E088E694E00E94E744A7CE0023D0
:1054F00009F457C162E177E0CE0107960E94E645C4
:10550000CE0107960E940542811112C067E077E044
:10551000CE0101960E94E645CE0101960E94054209
:1055200001E0811101C000E0CE0101960E947245A8
:10553000CE0107960E947245002339F080E290E088
:10554000909301028093000279CE81E080936404FD
:1055500075CE211107C06DEF76E088E694E00E94D9
:10556000E7446CCE002309F41CC163EF76E0CE0162
:1055700001960E94E645CE0101960E940542082F41
:10558000CE0101960E947245002309F409CF88E2FA
:1055900090E0909301028093000250CE6DEC76E093
:1055A000CE0101960E94E645BE016F5F7F4F88E6FF
:1055B00094E00E948F438C01CE0101960E947245B7
:1055C00017FD1EC08091730790917407813091057B
:1055D00039F461EB76E088E694E00E94E7442ECE51
:1055E000029739F46FE876E088E694E00E94E74499
:1055F00025CE6CE676E088E694E00E94E7441ECE75
:1056000068E676E0CE0101960E94E645BE016F5F36
:105610007F4F88E694E00E948F438C01CE01019673
:105620000E94724517FD1EC0809173079091740708
:105630008130910539F461E576E088E694E00E94D6
:10564000E744FCCD029739F462E376E088E694E023
:105650000E94E744F3CD6BE176E088E694E00E9497
:10566000E744ECCD66E176E0CE0101960E94E64586
:10567000BE016F5F7F4F88E694E00E948F438C01EC
:10568000CE0101960E94724517FDD8CD8091730717
:10569000909174078130910539F460E076E088E6F6
:1056A00094E00E94E744CACD029739F468EE75E0B1
:1056B00088E694E00E94E744C1CD62ED75E088E69B
:1056C00094E00E94E744BACDEE2039F082E190E008
:1056D0009093010280930002B1CD002309F461C0D0
:1056E0006EEC75E0CE0101960E94E645BE016F5F4B
:1056F0007F4F88E694E00E948F438C01CE01019693
:105700000E94724517FD21CF89E290E0909301023B
:105710008093000293CDFF2039F060EC75E088E6BD
:1057200094E00E94E7448ACD0023C1F063EB75E06A
:10573000CE0101960E94E645CE0101960E940542E7
:10574000182FCE0101960E947245112349F08CE377
:1057500090E0909301028093000270CD11116ECD04
:105760008AE290E0909301028093000267CD2111BC
:105770000DC066EA75E088E694E00E94E7448EE199
:105780008093040282E38093610458CDEE2039F0C7
:105790008BE290E090930102809300024FCD0111C3
:1057A000D6CF111146C38AE090E090930102809316
:1057B000000244CD21110DC069E975E088E694E04E
:1057C0000E94E7448EE18093040282E380936104A7
:1057D00035CD0111C5CFE110C3CFE3CF211107C0F3
:1057E00062E775E088E694E00E94E74427CD809167
:1057F00065048823B1F26FE675E0CE0101960E9440
:10580000E645BE016F5F7F4F8AE79AE00E948F43B3
:105810008C01CE0101960E94724517FD07C084E3FA
:1058200090E0909301028093000208CD83E390E022
:10583000909301028093000201CD8091650488233A
:1058400009F4AFCF61E675E0CE0101960E94E6450E
:10585000BE016F5F7F4F8AE79AE00E948F437C0111
:10586000CE0101960E947245F7FC9ACD82E390E04A
:105870009093010280930002E1CC80916704811132
:105880002AC060E873E088E694E00E94B24388236F
:1058900039F068E575E088E694E00E94E744CECCF4
:1058A00062E575E0CE0101960E94E645BE016F5F9C
:1058B0007F4F88E694E00E948F438C01CE010196D1
:1058C0000E94724517FDBACC69E475E088E694E061
:1058D0000E94E744B3CC80916504882309F461CF2A
:1058E00063E475E0CE0107960E94E645BE01695F5C
:1058F0007F4F88E694E00E948F4310E097FD15C02B
:105900006DE375E0CE0101960E94E645BE016F5F32
:105910007F4F8AE79AE00E948F43192F111F1127AA
:10592000111FCE0101960E947245CE0107960E947A
:105930007245112339F080E590E090930102809345
:1059400000027CCC6AE375E0CE0101960E94E64538
:10595000BE016F5F7F4F8AE79AE00E948F438C0100
:10596000CE0101960E94724517FD68CC81E08093BC
:10597000640464CC6AE275E0CE0101960E94E645BB
:10598000BE016F5F7F4F88E694E00E948F438C01D9
:10599000CE0101960E94724517FD07C061E075E0D7
:1059A00088E694E00E94E74449CC6CEF74E0CE01B5
:1059B00001960E94E645BE016F5F7F4F88E694E046
:1059C0000E948F438C01CE0101960E94724517FD03
:1059D00007C06EEE74E088E694E00E94E7442ECCA7
:1059E00069EE74E0CE0101960E94E645BE016F5F4C
:1059F0007F4F88E694E00E948F438C01CE01019690
:105A00000E94724517FD07C062EC74E088E694E0DE
:105A10000E94E74413CC6EEB74E0CE0101960E9425
:105A2000E645BE016F5F7F4F88E694E00E948F439A
:105A30008C01CE0101960E94724517FDFFCB6CE9E7
:105A400074E088E694E00E94E744F8CB002309F470
:105A5000A8CE69E974E0CE0101960E94E645BE0138
:105A60006F5F7F4F88E694E00E948F438C01CE01E8
:105A700001960E94724517FD79CF8DE390E09093D7
:105A8000010280930002DACB809167048111A8C0E3
:105A900060E873E088E694E00E94B243882339F01E
:105AA00065E874E088E694E00E94E744C7CB61E8CB
:105AB00074E0CE0101960E94E645BE016F5F7F4F04
:105AC00088E694E00E948F438C01CE0101960E94EB
:105AD000724517FD6AC061E774E0CE0101960E942D
