:1000000095C10000C4C10000C2C10000C0C1000011
:10001000BEC10000BCC10000BAC10000B8C10000F0
:10002000B6C10000B4C10000B2C10000B0C1000000
:10003000AEC10000ACC10000AAC10000A8C1000010
:10004000A6C10000A4C10000A2C10000A0C1000020
:100050000C94C1309CC100009AC100000C942B2369
:1000600096C100000C942B220C94022290C1000037
:100070008EC100008CC100008AC1000088C1000050
:1000800086C1000084C1000082C100000C94EC30E5
:100090000C94D8210C94AF217AC100000C94073A3B
:1000A00076C1000074C1000072C1000070C1000080
:1000B0006EC100006CC100006AC1000068C1000090
:1000C00066C1000064C1000062C100000C9485217B
:1000D0000C945C215CC100000C9432210C94092129
:1000E00056C100007D0684069B06A706BD06CB060A
:1000F000E106320785078C07EF064007F2064A073C
:100100000507540718077807D9064007F9064A0774
:100110000C0754071F077807EF064007F2064A0747
:100120000507540718075E072B077807D90640070D
:10013000F9064A070C0754071F075E076807780788
:100140004408420844084408AE07D5074408F207AB
:1001500044080F0844084208440844084408440876
:100160004408440844084B08E108E3086B08E30826
:10017000E1087408E3089108E308AE08E308E10821
:10018000E308E308E308E308E308E308E308E30817
:10019000E308E308E308E308E308E308E308E30807
:1001A000E308EA08CB1DCE1DBD1DC11DC71D051EE0
:1001B000D21DD61DDC1DE01DE41DEA1DEE1DF21D45
:1001C000051EF81DFC1D001EDB2E462FCE2E902F87
:1001D000CE2ECE2ECE2ECE2ED42E64306A300449B2
:1001E00007490A490D4910491349164900002100E1
:1001F000240027002A002D003000330001010000F8
:10020000040107010A010102102020080810204003
:1002100010204080020102010804020101020408CA
:100220001020408080402010080402018004020158
:1002300080402010080402010804020101020408A1
:1002400010204080010204081020408005050505AB
:10025000070508080808020202020A0A080804043E
:10026000040401010101010101010303030303036C
:100270000303040707070C0C0C0C0C0C0C0C0202FB
:10028000020206060606060606060B0B0B0B0B0BF8
:100290000B0B00002200250028002B002E0031004F
:1002A000340002010000050108010B0100002000DC
:1002B0002300260029002C002F003200000100003E
:1002C00003010601090100000A0B02090C0D0E08CA
:1002D000070304010000000000000000000000000F
:1002E000000000000000000000000000000000000E
:1002F00000001211100000000000000000000000CB
:100300000000000000000000000000007C3C3E5E99
:100310002B3D3F2F5B5D3B2C2A225C001F1C1F1EC8
:100320001F1E1F1F1E1F1E1FD852AA5211241FBEA0
:10033000CFEFD1E2DEBFCDBF00E00CBF1BE0A0E0FD
:10034000B2E0E4E4F8EB00E00BBF02C007900D92CE
:10035000AA3FB107D9F726E1AAEFBBE001C01D9281
:10036000A237B207E1F711E0C5E9D1E000E006C02D
:1003700021970109802FFE010E949959C439D107A4
:1003800080E00807A9F70E94574B0C94115C38CE07
:10039000FF920F931F93CF93DF93CDB7DEB7629792
:1003A0000FB6F894DEBF0FBECDBF8091110C88232D
:1003B00021F081508093110CF1C181E08093110CE8
:1003C00049E05CE06AE07CE082E193E10E94F6446F
:1003D0002091070C3091080C882309F4CDC1232B00
:1003E00031F082E090E09093080C8093070C8091AC
:1003F0000502882309F4D2C11092050282E080939D
:10040000020284E08093090280930A0282EE92E065
:100410000E94BB44F12C8091090CF816C8F40F2DF2
:1004200010E0065F134FF8018081803118F488EEE8
:1004300092E002C08DEE92E00E94BB44F801808100
:100440000E94C0448AEA99E00E94BB44F394E3CF3F
:1004500082E89AE00E94BB441091060C6AE07CE0BE
:10046000111126C18091050C811122C18091090CC6
:100470000E945B34882309F444C085E0809309021C
:1004800080930A0284E080930F024AE05CE060916E
:10049000090C82E40E9418324AE05CE06091090C89
:1004A000CE0107960E94773161EF72E0CE0101968E
:1004B0000E948120BE01695F7F4FCE0101960E949C
:1004C0007C1F6BE173E00E94651FBC01CE010D969D
:1004D0000E947920CE010D960E948646CE010D968F
:1004E0000E940520CE0101960E940520CE010796AC
:1004F0000E94052082E090E09093080C8093070C06
:100500004DC16AE07CE08091090C0E946A32813022
:1005100009F445C008F492C0823009F455C0833014
:1005200009F03CC14AE05CE06091090CCE010796FD
:100530000E9477316CE673E0CE0101960E94812023
:10054000BE01695F7F4FCE0101960E947C1F6BE167
:1005500073E00E94651FBC01CE010D960E947920B8
:10056000CE010D960E948646CE010D960E94052072
:10057000CE0101960E940520CE0107960E9405201B
:1005800061E080E20E947D220E94365289E08093E1
:1005900002028CE08093090280930A02FFC094E07B
:1005A0009093020297E09093090290930A0280933D
:1005B000060C4AE05CE06091090CCE0107960E94AF
:1005C00077316DE173E015C086E08093020289E027
:1005D0008093090280930A0281E08093050C4AE02F
:1005E0005CE06091090CCE0107960E94773165E4CA
:1005F00073E0CE0101960E948120BE01695F7F4FAA
:10060000CE0101960E947C1F6BE173E00E94651F82
:10061000BC01CE010D960E947920CE010D960E945C
:100620008646CE010D960E940520CE0101960E94BD
:100630000520CE0107960E940520B0C083E080937C
:10064000020286E08093090280930A024AE05CE09D
:100650006091090CCE0107960E94773160EA73E041
:10066000CE0101960E948120BE01695F7F4FCE01BD
:1006700001960E947C1F6BE173E00E94651FBC0124
:10068000CE010D960E947920CE010D960E948646DD
:10069000CE010D960E940520CE0101960E940520F4
:1006A000CE0107960E94052081E08093010276C06A
:1006B0008091090C0E946A328130C1F4112309F43F
:1006C0006DC085E08093020288E0809309028093E8
:1006D0000A021092060C4AE05CE06091090CCE011F
:1006E00007960E9477316FEB73E083CF8230D1F4AD
:1006F0008091050C882309F451C087E080930202A1
:100700008AE08093090280930A021092050C4AE065
:100710005CE06091090CCE0107960E94773161EF91
:1007200073E067CF8330D1F1112389F06AE07CE078
:100730008091090C0E94B1354AE05CE06091090C9F
:10074000CE0107960E94773162E274E052CF809129
:10075000050C882319F16AE07CE08091090C0E9465
:1007600061354AE05CE06091090CCE0107960E9479
:10077000773166E474E03DCF2115310531F0215029
:1007800031093093080C2093070C8091070C90914D
:10079000080C892B19F481E08093050280910402F2
:1007A000882321F0815080930402F1C181E080937D
:1007B00004024DEF5BE06EEF7BE082EF91E10E947F
:1007C000F6442091FB0B3091FC0B882309F4CDC13A
:1007D000232B31F082E090E09093FC0B8093FB0B95
:1007E00080910302882309F4D2C11092030282E0AF
:1007F0008093020284E08093090280930A0282EED1
:1008000092E00E94BB44F12C8091FD0BF816C8F4D5
:100810000F2D10E00250144FF8018081803118F440
:1008200088EE92E002C08DEE92E00E94BB44F80197
:1008300080810E94C0448AEA99E00E94BB44F394FC
:10084000E3CF82E89AE00E94BB441091060C6EEF61
:100850007BE0111126C18091050C811122C180918C
:10086000FD0B0E94C333882309F444C085E08093C4
:10087000090280930A0281E080930F024EEF5BE051
:100880006091FD0B81E40E9418324EEF5BE06091B5
:10089000FD0BCE0107960E94773169E674E0CE0128
:1008A00001960E948120BE01695F7F4FCE010196B3
:1008B0000E947C1F6BE173E00E94651FBC01CE01AA
:1008C0000D960E947920CE010D960E948646CE019B
:1008D0000D960E940520CE0101960E940520CE01B2
:1008E00007960E94052082E090E09093FC0B809395
:1008F000FB0B4DC16EEF7BE08091FD0B0E946A32D5
:10090000813009F445C008F492C0823009F455C022
:10091000833009F03CC14EEF5BE06091FD0BCE01EE
:1009200007960E9477316CED74E0CE0101960E942B
:100930008120BE01695F7F4FCE0101960E947C1F1E
:100940006BE173E00E94651FBC01CE010D960E9411
:100950007920CE010D960E948646CE010D960E940A
:100960000520CE0101960E940520CE0107960E9427
:10097000052061E080E20E947D220E94365289E0DB
:10098000809302028CE08093090280930A02FFC0E8
:1009900094E09093020297E09093090290930A02E8
:1009A0008093060C4EEF5BE06091FD0BCE01079645
:1009B0000E9477316FE874E015C086E080930202F0
:1009C00089E08093090280930A0281E08093050CFC
:1009D0004EEF5BE06091FD0BCE0107960E947731F0
:1009E00066EB74E0CE0101960E948120BE01695F32
:1009F0007F4FCE0101960E947C1F6BE173E00E9445
:100A0000651FBC01CE010D960E947920CE010D9686
:100A10000E948646CE010D960E940520CE010196C9
:100A20000E940520CE0107960E940520B0C083E0F9
:100A30008093020286E08093090280930A024EEFBF
:100A40005BE06091FD0BCE0107960E9477316FE06D
:100A500075E0CE0101960E948120BE01695F7F4F43
:100A6000CE0101960E947C1F6BE173E00E94651F1E
:100A7000BC01CE010D960E947920CE010D960E94F8
:100A80008646CE010D960E940520CE0101960E9459
:100A90000520CE0107960E94052081E08093000288
:100AA00076C08091FD0B0E946A328130C1F411231F
:100AB00009F46DC085E08093020288E0809309020A
:100AC00080930A021092060C4EEF5BE06091FD0BE2
:100AD000CE0107960E9477316DE275E083CF8230B8
:100AE000D1F48091050C882309F451C087E08093EC
:100AF00002028AE08093090280930A021092050C98
:100B00004EEF5BE06091FD0BCE0107960E947731BE
:100B10006EE575E067CF8330D1F1112389F06EEF78
:100B20007BE08091FD0B0E94B1354EEF5BE0609160
:100B3000FD0BCE0107960E9477316EE875E052CF2B
:100B40008091050C882319F16EEF7BE08091FD0BFD
:100B50000E9461354EEF5BE06091FD0BCE01079680
:100B60000E94773161EB75E03DCF2115310531F001
:100B7000215031093093FC0B2093FB0B8091FB0B30
:100B80009091FC0B892B19F481E080930302109162
:100B90000D02133071F0153059F0123051F0113050
:100BA00041F0812F8D7F11E0843019F010E001C0F9
:100BB00014E08091FA0B811709F44AC01093FA0BE4
:100BC000612F84EB9FE00E940E59612FCE010796A2
:100BD0000E94EF4863ED75E0CE0101960E948120EE
:100BE000BE01695F7F4FCE0101960E947C1FBC0150
:100BF000CE010D960E947920CE010D960E94864668
:100C0000CE010D960E940520CE0101960E9405207E
:100C1000CE0107960E94052080910D028330C1F419
:100C2000809103028823A1F040E050E060E081E47D
:100C30000E94183264EE75E0CE0101960E94812078
:100C4000CE0101960E948646CE0101960E940520A3
:100C500062960FB6F894DEBF0FBECDBFDF91CF9185
:100C60001F910F91FF9008958F929F92AF92BF9224
:100C7000CF92DF92EF92FF920F931F93CF93DF9368
:100C8000CDB7DEB7C056D1090FB6F894DEBF0FBEA0
:100C9000CDBFE0910202E23019F481E080931B0C99
:100CA00080911B0C8130D9F038F0823009F446C1B4
:100CB000833009F400C29EC2EB3011F081E00CC019
:100CC00080910A02853111F082E006C0809109020C
:100CD0008F3109F49BC283E080931B0C97C28E2F47
:100CE00090E0FC013297EA30F10508F00EC1882748
:100CF000EE58FF4F8F4F0C94995980911A0C811127
:100D000007C088EE93E057C080911A0C882319F031
:100D1000813061F0FAC08DE491E00E94203182E0E0
:100D20008093190C81E080931A0CF6C08091190C05
:100D30008111E7C0EAC080911A0C823009F452C0D8
:100D400018F481110CC04BC0843081F45EC08091D6
:100D50001A0C823009F44DC030F4882351F18130EF
:100D600009F48EC0D2C0843009F456C0843008F42F
:100D700091C0853009F4BCC0C8C080911A0C90E0C5
:100D80008830910508F0C1C0FC018827E458FF4F66
:100D90008F4F0C94995980911A0C90E088309105EE
:100DA00008F0B3C0FC018827EC57FF4F8F4F0C941D
:100DB00099598CED95E00E94203181E08093190CC7
:100DC000B2CF80911A0C90E08A30910508F09DC056
:100DD000FC018827E457FF4F8F4F0C94995980ED01
:100DE00097E0E9CF8091180C811176C084EC99E0EE
:100DF00006C08091180C81116FC080ED97E00E94B1
:100E000020311092190C83E08ECF8091180C811143
:100E100063C084EC99E006C08091180C81115CC01D
:100E200080ED97E00E9420311092190C85E07BCF75
:100E30008091180C811150C084EC99E006C080911B
:100E4000180C811149C080ED97E00E94203110926A
:100E5000190C87E068CF8091180C81113DC084EC9B
:100E600099E040C080911A0C90E08A30910508F01A
:100E70004CC0FC018827EA56FF4F8F4F0C949959BC
:100E80008091190C81113DC00E9417311092180CED
:100E900082E049CF8091190C811133C00E94173133
:100EA0001092180C84E03FCF8091190C811129C059
:100EB0000E9417311092180C86E035CF8091190CE2
:100EC00081111FC00E9417311092180C88E02BCF9F
:100ED0008091180C882321F081508093180C1CC03D
:100EE00080ED97E00E9420311092190C89E01BCF11
:100EF0008091190C811105C00E9417311092180CB5
:100F000006C081508093190C07C00E9417311092BF
:100F10001A0C8BE080930202809102028B3009F060
:100F2000D3CE80910A02853109F0CECE809109029C
:100F30008F3109F0C9CE10921B0C68C1E0910A02F2
:100F40008E2F90E0FC013297E431F10508F09CC04F
:100F50008827E056FF4F8F4F0C9499598091170CBA
:100F6000813051F018F08230A1F018C061E080E2C9
:100F70000E947D2285E067C08091160C81116DC0B2
:100F800060E080E20E947D2283E08093150C82E085
:100F90005DC08091150C81114DC004C060E080E2FD
:100FA0000E947D2261E081E268C01091170C11233C
:100FB00019F0113061F05FC08091150C81113AC0B9
:100FC00061E080E20E947D221092160C3EC080916A
:100FD000160C811142C060E080E20E947D221093D5
:100FE000150C46C08091170C882319F0813069F0E8
:100FF00042C08091150C81111DC061E080E20E9409
:101000007D2281E08093160C21C08091160C811105
:1010100024C060E080E20E947D2282E027C08091AF
:10102000170C882319F08130A1F025C08091150C90
:10103000882321F081508093150C2DC061E080E25F
:101040000E947D2282E08093160C81E08093170C31
:1010500022C08091160C882321F081508093160CB9
:101060001AC060E080E20E947D2283E08093150C2C
:101070001092170C10C060E080E20E947D22109256
:10108000170C06C061E001C060E080E20E947D2292
:1010900085E180930A02809102028B3009F01BCE19
:1010A00080910A02853109F016CE809109028F31B4
:1010B00009F011CE40CFE09109028E2F90E0FC01A3
:1010C0003297EE31F10508F07EC08827EC54FF4FCF
:1010D0008F4F0C94995981E20E94552261E0682754
:1010E00081E20E947D2276C01091140C112319F028
:1010F000113061F05FC08091130C81113AC061E042
:1011000081E20E947D221092120C3EC08091120C4E
:10111000811142C060E081E20E947D221093130C95
:1011200046C08091140C882319F0813069F042C0C8
:101130008091130C81111DC061E081E20E947D222B
:1011400081E08093120C21C08091120C811124C087
:1011500060E081E20E947D2282E027C08091140C31
:10116000882319F08130A1F025C08091130C8823C9
:1011700021F081508093130C2DC061E081E20E9428
:101180007D2282E08093120C81E08093140C22C0B7
:101190008091120C882321F081508093120C1AC088
:1011A00060E081E20E947D2283E08093130C109224
:1011B000140C10C060E081E20E947D221092140C99
:1011C00006C060E001C061E081E20E947D228FE103
:1011D00080930902809102028B3009F06FCD8091DB
:1011E0000A02853109F06ACD809109028F3109F038
:1011F00065CDA1CE60E08FE10E947D2260E080E2BB
:101200000E947D2261E081E20E947D2233D7FF248B
:10121000F3948EEF90E10E94C81C181619066CF525
:101220000091B40C1091B50C8EEF90E10E94A61CB9
:10123000F801EB5BF34F80838091450C833249F7D3
:101240008091B40C9091B50CFC01EB5BF34F2081C5
:101250002D3011F4F092440C01969093B50C8093CC
:10126000B40C80349105ACF28091440C8111D1CF43
:101270001092B50C1092B40CCCCF8091440C882302
:1012800009F4A6C665E47CE0CE0101960E948120A7
:10129000BE016F5F7F4F8CEF95E10E94CB1FCE01A7
:1012A00001960E94052024E030E041E050E06CEF20
:1012B00075E1CE0101960E949520BE016F5F7F4FC0
:1012C00082E096E10E94CB1FCE0101960E9405208C
:1012D0002091B40C3091B50C2150310945E050E01B
:1012E0006CEF75E1CE0101960E949520BE016F5F03
:1012F0007F4F88E096E10E94CB1FCE0101960E94AD
:10130000052064E076E0CE0101960E948120BE01B6
:101310006F5F7F4FCE014C960E94792062E076E1AC
:10132000CE014C960E947C1F60E20E94481FBC01C7
:101330008EE096E10E94B61FCE014C960E940520D9
:10134000CE0101960E94052081E08093430C66E067
:1013500076E082E096E10E94FC1E882339F066EF79
:1013600075E18EE096E10E949B1F0EC66BE078E06F
:1013700082E096E10E94FC1E882329F0CE010196AE
:101380000E940B39B5C26AE076E082E096E10E94E5
:10139000FC1E882349F168E076E1CE0101960E94A7
:1013A0007920BE016F5F7F4FCE014C960E94C21B19
:1013B000BE01645E7F4F8EE096E10E949B1FCE01CE
:1013C0004C960E940520CE0101960E940520CE0178
:1013D00001960E940B39CE0101960E94C948CE01A8
:1013E00001960E940520D0C56EE076E082E096E18D
:1013F0000E94FC1E882319F01092430CC5C562E1BF
:1014000076E082E096E10E94FC1E882359F09CE081
:1014100088E10FB6F894A895809360000FBE909372
:101420006000B2C566E176E082E096E10E94FC1EB3
:10143000882309F4B8C0CE018B5A9F4F0E945D43A8
:1014400080911402882329F0CE0101960E94F7238F
:1014500004C0CE0101960E94752386E0FE013196FC
:10146000DE01AB5ABF4F01900D928A95E1F74AE039
:101470006B966FAD6B97CE0101960E9435204AE0C6
:101480006A966FAD6A97CE014C960E9435204AE06D
:1014900069966FAD6997CE01C7960E943520669612
:1014A0006FAD669770E06053784FCE01CD960E9485
:1014B00082424AE067966FAD6797CE018D5B9F4F82
:1014C0000E9435204AE068966FAD6897CE01815B37
:1014D0009F4F0E943520BE01615B7F4FCE01875B2D
:1014E0009F4F0E9479206AE176E0CE01875B9F4F93
:1014F0000E94651FBE016D5B7F4F0E947C1F6AE1E9
:1015000076E00E94651FBE01635C7F4F0E947C1FD6
:101510006CE176E00E94651FBE01695C7F4F0E940E
:101520007C1F66EE72E00E94651FBE01645E7F4F05
:101530000E947C1F66EE72E00E94651FBE016F5F15
:101540007F4F0E947C1FBC01CE01855A9F4F0E9495
:101550007920CE01875B9F4F0E940520CE01815BE1
:101560009F4F0E940520CE018D5B9F4F0E9405205A
:10157000CE01CD960E940520CE01C7960E9405207F
:10158000CE014C960E940520CE0101960E940520B6
:10159000BE01655A7F4F8EE096E10E949B1FCE01EF
:1015A000855A9F4F1ECF6EE176E082E096E10E9461
:1015B000FC1E882371F068E076E1CE0101960E945E
:1015C0007920BE016F5F7F4FCE014C960E94345050
:1015D000FAC262E276E082E096E10E94FC1E882375
:1015E00009F46AC06AE27AE0CE014C960E9481203A
:1015F00084EB9FE00E940659682FCE0101960E945D
:10160000EF48BE016F5F7F4FCE014C960E94CB1F0B
:10161000CE0101960E940520E12CF12C64EE7AE0C7
:10162000CE014C960E948D1FC7018254904F0E949C
:101630000659843011F0873081F5C12CD12C082F48
:1016400010E0470121E4821A20EF920AC016D10669
:1016500054F5C4018C0D9D1D0E940659B82E8FE0D3
:101660008B1530F061E47BE0CE014C960E948D1F1B
:1016700040E16B2DCE0101960E943520BE016F5FC7
:101680007F4FCE014C960E949B1FCE0101960E9477
:101690000520EFEFCE1ADE0AD9CF66E276E0CE0162
:1016A0004C960E948D1FFAE0EF0EF11C24E1E21629
:1016B000F10409F0B3CF58C460E376E082E096E12C
:1016C0000E94FC1E882311F081E409C064E376E0E7
:1016D00082E096E10E94FC1E882331F082E40E94A1
:1016E0009D334AE0BC01F9C068E376E082E096E110
:1016F0000E94FC1E882339F088E096E10E94831E38
:10170000AB0161E446C06CE376E082E096E10E94C2
:10171000FC1E882359F068E076E1CE0101960E9414
:101720007920AE014F5F5F4F61E460C060E476E016
:1017300082E096E10E94FC1E882339F088E096E161
:101740000E94831EAB0161E464C064E476E082E041
:1017500096E10E94FC1E882371F068E476E0CE01D9
:1017600001960E9481201D8E1C8EBE01645E7F4FFB
:101770008AE090E068C06FE476E082E096E10E9443
:10178000FC1E882309F188E096E10E94831EAB01CC
:1017900062E4CE014C960E941B3868E076E1CE01EF
:1017A00001960E947920BE01645E7F4FCE010196B2
:1017B0000E947C1FBC018EE096E10E949B1FCE011F
:1017C00001960E940520D7C363E576E082E096E1AA
:1017D0000E94FC1E882379F068E076E1CE01019634
:1017E0000E947920AE014F5F5F4F62E4CE014C96BC
:1017F0000E940036E8C167E576E082E096E10E944B
:10180000FC1E882359F088E096E10E94831EAB01FC
:1018100062E4CE0101960E94EA366AC06BE576E08A
:1018200082E096E10E94FC1E8823B1F068E476E035
:10183000CE0101960E9481201D8E1C8EBE01645E29
:101840007F4F88E090E00E94083561E47BE0CE01A4
:1018500001960E94A11F4CC06FE576E082E096E100
:101860000E94FC1E882309F44BC08091EE0C81116C
:1018700002C00E9437568091EE0C882399F141E016
:1018800063E676E0CE014C960E949E43CE014C96D4
:101890000E94215000E010E0BE01645E7F4FCE0147
:1018A00001960E949751CE0101960E9445428823DD
:1018B00071F0EA8DFB8D309709F4C8C385818230C1
:1018C00008F4C4C3CE0101960E943342E5CFCE0195
:1018D0004C960E9433424AE0B801CE0101960E9424
:1018E0000A2006C065E676E0CE0101960E948120BE
:1018F000BE016F5F7F4F8EE096E10E949B1F6FCD10
:1019000063E876E082E096E10E94FC1E882309F4F9
:10191000E7C088E096E10E94831E6B017C018B0189
:101920008091390C811107C08EE19CE00E94C22A8F
:1019300081E08093390C4AE0B601CE014C960E94BA
:101940000A20BE01645E7F4FCE0101960E9479207D
:1019500064EE7AE0CE0101960E94651FBC01CE01C3
:10196000CD960E947920CE0101960E940520CE01DD
:101970004C960E9405206AE27AE0CE01C7960E944A
:1019800081208091EE0C811111C00E9437568EE1AA
:101990009CE00E944542882321F08EE19CE00E9459
:1019A00033428091EE0C882309F470C08EE19CE0F4
:1019B0000E94454220911C0C30911D0C882319F087
:1019C00020173107ECF01216130624F48EE19CE088
:1019D0000E94334241E063E676E0CE0101960E9428
:1019E0009E43BE016F5F7F4F8EE19CE00E94DD4011
:1019F0008EE19CE00E94215010921D0C10921C0C54
:101A000080911C0C90911D0C8017910784F56EE15C
:101A10007CE0CE0101960E949751CE0101960E9472
:101A20004542811116C0BE01635C7F4FCE014C96CA
:101A30000E94792067E876E0CE014C960E94651FEF
:101A4000BC01CE018D5B9F4F0E947920CE014C9648
:101A500032C0EA8DFB8D309709F4FBC2858182305C
:101A600008F4F7C2CE0101960E943342C9CFBE01ED
:101A7000635C7F4FCE0101960E947920BE01695CB4
:101A80007F4FCE0101960E947C1F0DC0BE01635C9A
:101A90007F4FCE0101960E94792065E676E0CE0167
:101AA00001960E94651FBC01CE018D5B9F4F0E9475
:101AB0007920CE0101960E940520CE01C7960E9492
:101AC0000520CE01CD960E940520BE016D5B7F4FA3
:101AD0008EE096E10E949B1FCE018D5B9F4F81CCD3
:101AE00065EA76E082E096E10E94FC1E882309F414
:101AF00055C000910C1610910D1664EE7AE0CE01DF
:101B0000C7960E948120BE01695C7F4F88E096E104
:101B10000E94F91E9801AC0168E076E1CE01CD96F5
:101B20000E949520CE01CD960E94831E6B017C0100
:101B300064EE7AE0CE0101960E948120BE016F5FC3
:101B40007F4F88E096E10E94F91E9C0140E050E042
:101B500068E076E1CE014C960E949520A601BE0178
:101B6000645E7F4FCE018D5B9F4F0E943E56BE014B
:101B70006D5B7F4F8EE096E10E949B1FCE018D5BD7
:101B80009F4F0E940520CE014C960E940520CE0159
:101B900001960E940520CE01CD9684C069EA76E0C8
:101BA00082E096E10E94FC1E8823C9F068E076E19D
:101BB000CE0101960E947920BE016F5F7F4FCE015A
:101BC0004C960E944551BE01645E7F4F8EE096E1C7
:101BD0000E949B1FCE014C960E94052000CC6DEA0E
:101BE00076E082E096E10E94FC1E882311F08AE0F4
:101BF00009C061EB76E082E096E10E94FC1E88233A
:101C000021F08BE080930F02BFC165EB76E082E0AC
:101C100096E10E94FC1E882309F449C020910C160D
:101C200030910D1644E050E068E076E1CE01C796B1
:101C30000E949520CE01C7960E94831E6B017C01F5
:101C400023E030E040E050E068E076E1CE014C96E1
:101C50000E949520A601BE01645E7F4FCE01CD9605
:101C60000E94A33768E076E1CE0101960E947920B8
:101C700064EE7AE0CE0101960E94651FBE01635CAE
:101C80007F4F0E947C1FBC018EE096E10E949B1F4B
:101C9000CE0101960E940520CE01CD960E9405201E
:101CA000CE014C960E940520CE01C7969ACB69EBD7
:101CB00076E082E096E10E94FC1E882309F4DDC0F4
:101CC00064EE7AE0CE0101960E94812040910C16CC
:101CD00050910D168D819E81481B590BBE016F5F7F
:101CE0007F4F88E096E10E948E1E9C0144E050E008
:101CF00068E076E1CE014C960E949520CE014C968C
:101D00000E94831E4B015C018B01CE014C960E9408
:101D10000520CE0101960E94052064EE7AE0CE01F6
:101D200001960E948120E0900C16F0900D168D8196
:101D30009E81A701481B590BBE016F5F7F4F88E052
:101D400096E10E948E1EAC014F5F5F4F970168E0E5
:101D500076E1CE014C960E949520CE014C960E94D1
:101D6000831E6B017C01CE014C960E940520CE01A2
:101D700001960E94052023E030E040E050E068E05A
:101D800076E1CE0101960E949520BE016F5F7F4FE4
:101D9000CE014C960E9479209601A401BE01645E9A
:101DA0007F4FCE01C7960E942055BE01695C7F4FD0
:101DB0008EE096E10E949B1FCE01C7960E940520EF
:101DC000CE014C960E9405206DEB76E0CE01019687
:101DD0000E94FC1E882369F10130110521F00230B8
:101DE0001105A1F0FCCAC601E1E0CE1AD108F8EE57
:101DF000CF16F3E0DF0608F0F2CA6FE070E00E9451
:101E000072597093AC0C6093AB0CE9CAC60121E027
:101E1000C21AD108E8EECE16E3E0DE0608F0DFCA0B
:101E20006FE070E00E9472597093AA0C6093A90C45
:101E3000D6CA61EC76E0CE0101960E94FC1E882392
:101E400009F4CDCA0530110549F00630110509F035
:101E5000C6CAD092AE0CC092AD0CC1CAC6010197E1
:101E60008E3F910508F0BBCAC60199276FE070E06C
:101E70000E9486596093A80CB2CA65EC76E082E0B5
:101E800096E10E94FC1E882309F478C088E096E160
:101E90000E94831E6B017C018B016AE27AE0CE0115
:101EA0004C960E948120003111051CF469EC76E00B
:101EB0000DC00F3F110509F01CF46AEC76E006C076
:101EC000C114F0E1DF0634F461E47BE0CE014C960E
:101ED0000E94A11F40E1B601CE0101960E940A2096
:101EE000BE016F5F7F4FCE014C960E949B1FCE01BB
:101EF00001960E94052021EFC2162FE0D20670F550
:101F000000E010E0C8018C0D9D1D0E940659F82EBE
:101F100064EE7AE0CE014C960E948D1F8FE08F1503
:101F200030F061E47BE0CE014C960E948D1F40E1D1
:101F30006F2DCE0101960E943520BE016F5F7F4F4D
:101F4000CE014C960E949B1FCE0101960E94052057
:101F50000F5F1F4F00311105A9F606C06DEC76E04A
:101F6000CE014C960E948D1FBE01645E7F4F8EE0B5
:101F700096E10E949B1FCE014C9633CA60E477E045
:101F80008EE096E10E948D1F8091430C8823D1F052
:101F90006EE076E1CE0101960E9479206DE0CE01DF
:101FA00001960E94481FFC01448155816081718126
:101FB0008EEF90E10E946D1CCE0101960E940520DB
:101FC0001092430C1092B50C1092B40C1092440C69
:101FD0008EE10E9455228091410C9091420C029713
:101FE0000997E0F485E08093090280930A0284E077
:101FF00080930F0240E050E060E082E40E941832DB
:102000006BED76E0CE0101960E948120CE01019613
:102010000E948646CE0101960E9405201092420C35
:102020001092410CC05ADF4F0FB6F894DEBF0FBEBE
:10203000CDBFDF91CF911F910F91FF90EF90DF9077
:10204000CF90BF90AF909F908F9008950F5F1F4FDC
:1020500039CC80911C0C90911D0C019690931D0C15
:1020600080931C0CBE01635F7F4FCE01C7960E9418
:10207000A11FF8CCEF92FF920F931F93CF93DF93A2
:10208000CDB7DEB762970FB6F894DEBF0FBECDBFF7
:102090008091940C811109C06AE27AE085E89CE0A5
:1020A0000E94812081E08093940C0091070210919E
:1020B000080220910B0230910C028091930C2017A2
:1020C000310711F4882311F1811106C06AE27AE028
:1020D00085E89CE00E94A11F1092930C1092920C34
:1020E00010930C0200930B026AE27AE08CE695E111
:1020F0000E94A11F1092B60C1092B70C84E180933D
:10210000910C83E08093060221E001C020E08091E1
:10211000910C882319F081508093910C1091910CAF
:1021200080910B0290910C028333910509F4E6C271
:10213000C8F58E31910509F416C1C8F48C309105AB
:1021400009F4B1C058F42091920C8A30910509F439
:1021500062C00B9709F482C00C94F6188331910584
:1021600009F4C4C0449709F4DBC00C94F61820911C
:10217000920C8832910509F473C148F48F319105AE
:1021800009F414C1809709F44AC10C94F6188A32F4
:10219000910509F459C208F417C2C29709F48AC21A
:1021A0000C94F6188234910509F475C5C8F48D3382
:1021B000910509F4CCC358F42091920C8433910515
:1021C00009F4BFC2CC9709F429C30C94F6188E33D6
:1021D000910509F440C4CF9709F492C40C94F61801
:1021E0008734910509F4ABC748F48334910509F4A9
:1021F000FDC58534910509F4F0C6F8C78F34910503
:1022000009F4F1C78F3F910509F4F6C788349105A9
:1022100009F0ECC7B8C7211103C067E077E022C01E
:102220008091B60C8823B9F066E67AE0CE0101967B
:102230000E948120BE016F5F7F4F8CE695E10E9476
:10224000F91E7C01CE0101960E940520F7FC03C017
:102250008BE090E0CDC71111CFC788C1211107C015
:102260006AE077E085E89CE00E94A11FC5C78091E5
:10227000B60C882309F482C766E67AE0CE0101969F
:102280000E948120BE016F5F7F4F8CE695E10E9426
:10229000F91E7C01CE0101960E940520F7FC6EC755
:1022A0008CE090E0A5C78091920C811103C062E19F
:1022B00077E0D8CF8091B60C882309F45FC766E633
:1022C0007AE0CE0101960E948120BE016F5F7F4FB0
:1022D0008CE695E10E94F91E7C01CE0101960E94D8
:1022E0000520F7FC4BC784E190E082C7222381F0F0
:1022F0008091900C811105C081E08093900C61E089
:1023000003C01092900C60E087E10E947D2274C7A8
:10231000111172C78091900C882309F431C77AC2D9
:102320008091920C811103C06CE177E09BCF80918A
:10233000B60C882309F422C765E277E0CE01019646
:102340000E948120BE016F5F7F4F8CE695E10E9465
:10235000F91E7C01CE0101960E940520F7FC0EC7F4
:102360008EE190E045C78091920C811103C062E339
:1023700077E078CF8091B60C882309F4FFC666E633
:102380007AE0CE0101960E948120BE016F5F7F4FEF
:102390008CE695E10E94F91E7C01CE0101960E9417
:1023A0000520F7FCEBC68FE190E022C7211103C0A6
:1023B00069E377E057CF0091B60C002309F4DEC63D
:1023C00062E477E0CE0107960E948120BE01695F3A
:1023D0007F4F8CE695E10E94F91E97FF16C06DE4D1
:1023E00077E0CE0101960E948120BE016F5F7F4F92
:1023F0008CE695E10E94F91E9095092F001F002799
:10240000001FCE0101960E940520CE0107960E9472
:102410000520002309F4FEC180E290E0E9C6211105
:1024200003C068E577E01ECF8091B60C882309F4DD
:10243000A5C662E677E0CE0101960E948120BE012A
:102440006F5F7F4F8CE695E10E94F91E7C01CE0103
:1024500001960E940520F7FC91C688E290E0C8C66C
:1024600021116BC06AE27AE085E89CE00E94FC1EC4
:10247000882319F06CE677E0F5CE6AE877E0CE01C4
:1024800001960E948120BE016F5F7F4F85E89CE02E
:102490000E94F91E8C01CE0101960E94052017FDB5
:1024A0000CC08091AD0C9091AE0C019719F462E9CB
:1024B00077E0D8CE6EEA77E0D5CE60ED77E0CE015A
:1024C00001960E948120BE016F5F7F4F85E89CE0EE
:1024D0000E94F91E8C01CE0101960E94052017FD75
:1024E0000CC08091AD0C9091AE0C019719F464ED85
:1024F00077E0B8CE6BEE77E0B5CE6AE078E0CE015B
:1025000001960E948120BE016F5F7F4F85E89CE0AD
:102510000E94F91E8C01CE0101960E94052017FD34
:102520006BC68091AD0C9091AE0C019719F46FE0E1
:1025300078E098CE65E278E095CE8091B60C88235D
:1025400009F41CC66DE378E0CE0101960E9481205B
:10255000BE016F5F7F4F8CE695E10E94F91E8C01F2
:10256000CE0101960E94052017FD03C083E190E093
:102570003FC666E67AE0CE0101960E948120BE0148
:102580006F5F7F4F8CE695E10E94F91E8C01CE01B2
:1025900001960E94052017FD2FC663E478E0CE0166
:1025A00001960E948120BE016F5F7F4F8CE695E10E
:1025B0000E94F91E8C01CE0101960E94052017FD94
:1025C00029C189E290E014C621110BC067E478E0CC
:1025D00085E89CE00E94A11F84E18093060282E3CB
:1025E000FAC28091B60C882309F4C8C56DE378E07F
:1025F000CE0101960E948120BE016F5F7F4F8CE665
:1026000095E10E94F91E8C01CE0101960E940520E1
:1026100017FD03C08AE290E0EBC566E67AE0CE01E2
:1026200001960E948120BE016F5F7F4F8CE695E18D
:102630000E94F91E8C01CE0101960E94052017FD13
:10264000DBC58CE390E0D4C5211103C064E578E0DC
:1026500009CE0091B60C002309F490C56DE378E033
:10266000CE0107960E948120BE01695F7F4F8CE6F4
:1026700095E10E94F91E97FF16C066E67AE0CE014A
:1026800001960E948120BE016F5F7F4F8CE695E12D
:102690000E94F91E9095092F001F0027001FCE01F0
:1026A00001960E940520CE0107960E940520011187
:1026B00088CF64C5211103C061E678E0D3CD809155
:1026C000B60C882309F45AC566E67AE0CE01019675
:1026D0000E948120BE016F5F7F4F8CE695E10E94D2
:1026E000F91E8C01CE0101960E94052017FD03C042
:1026F00084E390E07DC583E390E07AC58091920CFD
:10270000811103C068E878E0ADCD8091B60C8823D4
:1027100009F434C566E67AE0CE0101960E94812074
:10272000BE016F5F7F4F8CE695E10E94F91E7C0130
:10273000CE0101960E940520F7FC20C582E390E0BF
:1027400057C5211122C06AE27AE085E89CE00E9428
:10275000FC1E882319F063E978E084CD66E978E00F
:10276000CE0101960E948120BE016F5F7F4F85E8F8
:102770009CE00E94F91E8C01CE0101960E9405206A
:1027800017FD3AC56CE978E06DCD8091B60C8823D1
:1027900009F4F4C46FE978E0CE0107960E94812025
:1027A000BE01695F7F4F85E89CE00E94F91E97FD9E
:1027B00016C06DE378E0CE0101960E948120BE0133
:1027C0006F5F7F4F8CE695E10E94F91E192F111F54
:1027D0001127111FCE0101960E94052001C010E0B3
:1027E000CE0107960E9405201111FDC466E67AE02D
:1027F000CE0101960E948120BE016F5F7F4F8CE663
:1028000095E10E94F91E8C01CE0101960E940520DF
:1028100017FDF2C481E08093930CEEC4211167C0D0
:102820006AE27AE085E89CE00E94FC1E882319F0A9
:1028300065EA78E017CD61EB78E0CE0101960E9461
:102840008120BE016F5F7F4F85E89CE00E94F91EEA
:102850008C01CE0101960E94052017FD03C065EB97
:1028600078E000CD6EED78E0CE0101960E948120E7
:10287000BE016F5F7F4F85E89CE00E94F91E8C01CE
:10288000CE0101960E94052017FD03C063EE78E09B
:10289000E9CC61EF78E0CE0101960E948120BE0173
:1028A0006F5F7F4F85E89CE00E94F91E8C01CE018E
:1028B00001960E94052017FD03C066EF78E0D2CC98
:1028C00064E179E0CE0101960E948120BE016F5F34
:1028D0007F4F85E89CE00E94F91E8C01CE01019695
:1028E0000E94052017FD88C468E179E0BBCC809187
:1028F000B60C882309F442C466E67AE0CE0101965C
:102900000E948120BE016F5F7F4F8CE695E10E949F
:10291000F91E7C01CE0101960E940520F7FC2EC411
:102920006CE279E0CE0101960E948120BE016F5FCA
:102930007F4F85E89CE00E94F91E8C01CE01019634
:102940000E94052017FD66CF8DE390E051C4809171
:10295000920C811150C06AE27AE085E89CE00E9406
:10296000FC1E882319F06FE279E07CCC63E479E007
:10297000CE0101960E948120BE016F5F7F4F85E8E6
:102980009CE00E94F91E8C01CE0101960E94052058
:1029900017FD1AC067E479E0CE0101960E948120FC
:1029A00062E775E1CE0101960E947C1F63E278E048
:1029B0000E94651FBC0185E89CE00E94B61FCE0105
:1029C00001960E94052018C467E579E0CE010196C2
:1029D0000E948120BE016F5F7F4F85E89CE00E94CE
:1029E000F91E8C01CE0101960E94052017FD04C43A
:1029F0006CE579E037CC8091B60C882309F4BEC32E
:102A000066E67AE0CE0101960E948120BE016F5FEA
:102A10007F4F8CE695E10E94F91E7C01CE01019664
:102A20000E940520F7FCAAC364E779E0CE01019675
:102A30000E948120BE016F5F7F4F85E89CE00E946D
:102A4000F91E8C01CE0101960E94052017FDE2CEF1
:102A50008EE390E0C4C12111BDC080914416811164
:102A600073CF1111C9C320915F1030916010809114
:102A70005D1090915E1028173907B1F16AE27AE093
:102A800080EF95E10E94A11F86E0F82E04E110E09E
:102A900080915D1090915E1020915F1030916010D8
:102AA00028173907F1F09C012F5F3F4F30935E10DC
:102AB00020935D10F89EB001F99E700D11246858A6
:102AC0007A4E80EF95E10E949B1F80915D1090915E
:102AD0005E10B8010E94865990935E1080935D103D
:102AE000D7CF8FE390E084C380910102811105C0AC
:102AF00080910002882309F48DCE82E490E078C3AF
:102B00008091920C81116AC06AE27AE085E89CE0CB
:102B10000E94FC1E882319F069E779E054C06FE732
:102B200079E0CE0101960E948120BE016F5F7F4F48
:102B300085E89CE00E94F91E8C01CE0101960E945E
:102B4000052017FD23C06091F4157091F515CE0195
:102B500007960E94824265E879E0CE0101960E94C4
:102B60008120BE01695F7F4FCE0101960E947C1FCC
:102B7000BC0185E89CE00E94B61FCE0101960E9430
:102B80000520CE0107960E94052021C062E979E068
:102B9000CE0101960E948120BE016F5F7F4F85E8C4
:102BA0009CE00E94F91E8C01CE0101960E94052036
:102BB00017FD07C060EF75E185E89CE00E94B61F35
:102BC00006C068E979E085E89CE00E94A11F84E1E5
:102BD0008093060284E68093910C0EC38091B60C1C
:102BE000882309F4F6C166E67AE0CE0107960E94D2
:102BF0008120BE01695F7F4F8CE695E10E94F91E3E
:102C000097FD17C066EA79E0CE0101960E94812007
:102C1000BE016F5F7F4F8CE695E10E94F91E909593
:102C2000192F111F1127111FCE0101960E94052097
:102C300001C010E0CE0107960E9405201111EACDD7
:102C40006CEA79E0CE0101960E948120BE016F5F9F
:102C50007F4F8CE695E10E94F91E8C01CE01019612
:102C60000E94052017FFD6CD60EB79E0CE010196DA
:102C70000E948120BE016F5F7F4F8CE695E10E942C
:102C8000F91E8C01CE0101960E94052017FDB4C2E9
:102C90008EE390E0ADC28091920C811171C06AE226
:102CA0007AE085E89CE00E94FC1E882309F44AC073
:102CB00062E775E1CE0101960E94792080910102C0
:102CC000882319F065EB79E002C069EB79E0CE0169
:102CD0000D960E94812061E87BE0CE0107960E945C
:102CE0008120AE01435F5F4FBE01695F7F4FCE0120
:102CF00001960E942049CE0107960E940520CE0130
:102D00000D960E9405206DEB79E0CE0107960E949A
:102D10008120BE016F5F7F4FCE0107960E947C1F0E
:102D200063E278E00E94651FBC0185E89CE00E9498
:102D3000B61FCE0107960E940520CE0101960E9483
:102D400005205AC267E579E0CE0101960E948120F4
:102D5000BE016F5F7F4F85E89CE00E94F91E8C01E9
:102D6000CE0101960E94052017FD46C28091010206
:102D7000882319F06DEC79E075CA68EE79E072CAC3
:102D80008091B60C882309F424C166E67AE0CE016E
:102D900001960E948120BE016F5F7F4F8CE695E116
:102DA0000E94F91E7C01CE0101960E940520F7FCCD
:102DB00010C164E779E0CE0101960E948120BE0136
:102DC0006F5F7F4F85E89CE00E94F91E8C01CE0169
:102DD00001960E94052017FD1DCD83E490E090939D
:102DE0000802809307021092441606C28091920C4A
:102DF000811120C06AE27AE085E89CE0FDD7882353
:102E000019F062E07AE0DFCE68E07AE0CE01019668
:102E10000E948120BE016F5F7F4F85E89CE0E9D76B
:102E20008C01CE0101960E94052017FDD0CE6EE0E8
:102E30007AE0C9CE8091B60C882309F4CAC066E650
:102E40007AE0CE0101960E948120BE016F5F7F4F24
:102E50008CE695E1CED77C01CE0101960E9405203B
:102E6000F7FCB7C06FE17AE0CE0101960E948120A5
:102E7000BE016F5F7F4F8CE695E1BBD78C01CE0121
:102E800001960E94052017FFC5CC64E27AE0CE01CE
:102E900007960E948120BE01695F7F4F8CE695E115
:102EA000A8D797FD15C065E07AE0CE0101960E9493
:102EB0008120BE016F5F7F4F85E89CE043D411E025
:102EC000811101C010E0CE0101960E94052001C0D1
:102ED00010E0CE0107960E940520112351F0809149
:102EE0000102882319F010920102D2CE1092000242
:102EF000CFCE66E67AE0CE0107960E948120BE0121
:102F0000695F7F4F8CE695E174D797FD15C062EB42
:102F100078E0CE0101960E948120BE016F5F7F4F55
:102F20008CE695E166D79095192F111F1127111F77
:102F3000CE0101960E940520CE0107960E94052031
:102F4000112309F459C168E27AE0CE0101960E948A
:102F50008120BE016F5F7F4F8CE695E14AD78C01DF
:102F6000CE0101960E94052017FDB9CF0091701582
:102F7000109171150550110968E27AE0CE010196B1
:102F80000E948120BE016F5F7F4F8CE695E131D7B3
:102F90009801AC016CE675E1CE0107960E94952080
:102FA000BE01695F7F4F80EF95E1F5D7CE010796AF
:102FB0000E940520CE0101960E94052010928F0CE0
:102FC00010928E0C10928D0C10928C0C85E490E077
:102FD0000FC1112309F45CCE0FC100918E0C10912A
:102FE0008F0C0115110579F480918C0C90918D0C4A
:102FF000892B49F480910102882311F082E401C0F9
:1030000081E480938B0CF0908B0C8F2D0E949D336C
:1030100040918C0C50918D0C481759070CF03CC016
:103020004F5F5F4F50938D0C40938C0C6F2DCE01F2
:1030300001960E941B382D813E8141E050E0BE0187
:103040006F5F7F4FCE0107960E949520BE01695F9A
:103050007F4F80EF95E1CDD68C01CE010796D5D775
:10306000CE010196D2D717FFC7C040918C0C50916A
:103070008D0C60918B0CCE0101960E94EA36CE0138
:103080000196C3D780918C0C90918D0C01979093F1
:103090008D0C80938C0CB0C069E27AE0CE01019671
:1030A0000E948120A8014F5F5F4FBE016F5F7F4F7D
:1030B00080EF95E181D6019690938F0C80938E0CD2
:1030C000CE010196A2D740918E0C50918F0C9A019F
:1030D000255F3F4F60EF75E1CE0101960E9495207C
:1030E000AE014F5F5F4F60918B0CCE0107960E943F
:1030F0000036CE01079689D7CE01019686D78091FA
:103100008C0C90918D0C019690938D0C80938C0C6F
:1031100000918E0C10918F0C69E27AE0CE0101963D
:10312000F0D7A801BE016F5F7F4F80EF95E144D6D5
:103130008C01CE01019669D717FF5EC0D0CE809179
:10314000920C811103C06BE27AE08CC88091B60CBE
:103150008823A1F06EE57AE0CE010196D2D7BE01B8
:103160006F5F7F4F8CE695E144D67C01CE010196DE
:103170004CD7F7FC03C088E490E03AC011113CC082
:103180008AE090E035C06AE27AE085E89CE0D9D632
:1031900081E08093920C8091B60C882369F1809134
:1031A000BA0C811117C069E67AE0CE010196A9D761
:1031B000BE016F5F7F4F8CE695E11BD68C01CE017F
:1031C000019623D717FD06C08FE490E09093080284
:1031D000809307021092B90C1092B80C1092BA0C9E
:1031E0001092B60C09C087E490E002C08FEF90E027
:1031F00090930802809307028091920C811106C07F
:103200008091890C90918A0C892B99F48091920C71
:103210008823C1F08091B70C90910602891790F431
:103220008F5F8093B70C891768F081E08093B60CAC
:1032300009C065E87CE081E690E1CFD781E080932A
:10324000920CE4CF62960FB6F894DEBF0FBECDBFEE
:10325000DF91CF911F910F91FF90EF9008950E9401
:10326000A25B8F929F92AF92BF92CF92DF92EF922A
:10327000FF92CF931092B4111092B2111092AF112D
:103280001092AE118093AD110E941F236B017C013F
:1032900061E08091AD110E94AB2261E08091AD119F
:1032A0000E947D22CFB7F8948091EF0C811127C046
:1032B000E1E8F2E08491EBE3F2E09491E82FF0E0B2
:1032C000EE0FFF1FE451FE4FA591B491EC91E9235D
:1032D00021F461E085E30E947D2261E085E30E94A4
:1032E000AB228CB580618CBD8CB580648CBD61E0F7
:1032F00084E30E94AB2261E083E30E94AB228091D1
:10330000EF0C8F5F8093EF0CCFBF82E58093A71106
:103310001092A8118091A7119091A8110E942729BD
:10332000CAE08FEF0E94EE28C150D9F789EA91E1F7
:103330000E942A2920E030E0A90160E089EA91E1B9
:103340000E943E29C82F8093B311813049F00E941A
:103350001F236C197D09613D774060F381E054C003
:103360002AEA31E040E050E068E089EA91E10E9419
:103370003E2982FF03C0C093B4110EC0C4E00E9476
:10338000F5288093B311C150D1F78A3A11F082E049
:103390003BC082E08093B4118091B411823021F05F
:1033A000812C912C540105C0812C912CA12C30E44E
:1033B000B32E20E030E0A90167E389EA91E10E94A1
:1033C0003E29A501940169E289EA91E10E943E2922
:1033D0008093B311882349F00E941F236C197D0943
:1033E000613D774030F388E00FC08091B4118230A6
:1033F00001F520E030E0A9016AE389EA91E10E9449
:103400003E29882341F086E08093AE1189EA91E15C
:103410000E94E4288FC00E94F528807C803C19F42B
:1034200083E08093B4110E94F5280E94F5280E9441
:10343000F52889EA91E10E94E42880E58093A711AC
:103440001092A81181E00E945845882329F08091AC
:10345000D811882341F06EC080E00E94584588232F
:1034600009F468C0F4CF8091CC11803109F582E075
:103470008093D8111092EA111092EB111092EC1176
:103480001092ED118091CD119091CE11A0E0B0E09D
:1034900025E0880F991FAA1FBB1F2A95D1F780939B
:1034A000E6119093E711A093E811B093E9111EC0C3
:1034B000803209F03FC083E08093D8114091CF1152
:1034C0005091D0116091D1117091D2114093EA11B5
:1034D0005093EB116093EC117093ED1126EE31E1F6
:1034E00085EB91E10E94CB41882321F185EB91E1AD
:1034F0009093EF118093EE1181E08093D711109299
:10350000D9111092DA111092DB111092DC11109285
:10351000DD111092DE111092DF111092E011109265
:10352000E1111092E2111092E3111092E411109245
:10353000E51101C080E0CF91FF90EF90DF90CF9038
:10354000BF90AF909F908F9008950F931F93CF934C
:103550008C0188E60E94AE4263E08BE991E10E9413
:10356000D939F8012581CAE0822F6C2F0E94665953
:10357000682F660F860F880F682F620F8BE991E125
:103580000E94D939F8012481822F6C2F0E9466593C
:10359000682F660F860F880F682F620F8BE991E105
:1035A0000E94D939F8012381822F6C2F0E9466591D
:1035B000682F660F860F880F682F620F8BE991E1E5
:1035C0000E94D939F8012281822F6C2F0E946659FE
:1035D000682F660F860F880F682F620F8BE991E1C5
:1035E0000E94D93960E08BE991E10E94D939F80154
:1035F0002181822F6C2F0E946659682F660F860FDB
:10360000880F682F620F8BE991E10E94D939F80188
:103610002081822F6C2F0E946659682F660F860FBB
:10362000880F682F620F8BE991E10E94D9390E94BF
:10363000014388E60E94AE4262E08BE991E10E947C
:10364000D93960E08BE991E10E94D939CF911F917E
:103650000F910C9401430F931F93CF938C0188E635
:103660000E94AE4260E08BE991E10E94D939F801F5
:103670002581CAE0822F6C2F0E946659682F660F41
:10368000860F880F682F620F8BE991E10E94D9396C
:10369000F8012481822F6C2F0E946659682F660FD3
:1036A000860F880F682F620F8BE991E10E94D9394C
:1036B000F8012381822F6C2F0E946659682F660FB4
:1036C000860F880F682F620F8BE991E10E94D9392C
:1036D00060E08BE991E10E94D939F8012281822FC3
:1036E0006C2F0E946659682F660F860F880F682F0F
:1036F000620F8BE991E10E94D939F8012181822F73
:103700006C2F0E946659682F660F860F880F682FEE
:10371000620F8BE991E10E94D939F8012081822F53
:103720006C2F0E946659682F660F860F880F682FCE
:10373000620F8BE991E10E94D939CF911F910F91CE
:103740000C940143FC0124813581FB0144815581A6
:1037500024173507A0F0FC0180819181009779F052
:10376000FB01608171816115710549F0241B350BE6
:10377000820F931F0E94D85B21E0892B09F020E083
:10378000822F0895AF92BF92CF92DF92EF92FF9275
:103790000F931F93CF93DF93CDB7DEB76D970FB61F
:1037A000F894DEBF0FBECDBF6C017B016AE27AE008
:1037B000CE014896A6D406EF1FE0C8010E94065924
:1037C000682FCE0101967DD4BE016F5F7F4FCE0181
:1037D0004896B1D3CE01019618D40F5F1F4F011543
:1037E00080E1180751F7F7010481158101151105D2
:1037F00011F4198214C00A30110510F00AE010E02B
:10380000F70160817181A801CE0101960E94E85BF9
:10381000E1E0F0E0EC0FFD1FE00FF11F10828E01E0
:103820000F5F1F4F86EFA82E8FE0B82EF801619131
:103830008F01C5010E941632FFEFAF1ABF0AA11413
:1038400080E1B80699F761ED7AE0CE01429659D44D
:10385000B701CE01429650D360ED75E036D3BE017C
:10386000685E7F4F49D36BE173E02FD3BC01CE017B
:103870000C963FD4CE010C960E948646CE010C9643
:10388000C4D3CE014296C1D3B701CE010C9631D438
:1038900064EE7AE0CE010C9618D3BE01685E7F4FCD
:1038A0002BD3BC01C60125D4CE010C96AED3CE01DC
:1038B0004896ABD3C6016D960FB6F894DEBF0FBE27
:1038C000CDBFDF91CF911F910F91FF90EF90DF90CF
:1038D000CF90BF90AF9008950895CF92DF92EF926E
:1038E000FF920F931F93CF93DF936C017A018B01AB
:1038F000C0E0D0E0CE15DF0581F0D8016D918D01DB
:10390000D601ED91FC910190F081E02DC601199551
:10391000892B11F02196EECF7E01C701DF91CF9167
:103920001F910F91FF90EF90DF90CF900895FC01D1
:10393000538D448D252F30E0842F90E0821B930B14
:10394000541710F0CF96089501970895FC01918DBA
:10395000828D981761F0828DDF01A80FB11D5D96F1
:103960008C91928D9F5F9F73928F90E008958FEF5F
:103970009FEF0895FC01918D828D981731F0828D13
:10398000E80FF11D858D90E008958FEF9FEF08956A
:10399000FC01918D228D892F90E0805C9F4F821BCE
:1039A00091098F739927089581E690E1F1DF21E075
:1039B000892B09F420E0822F089582E394E1E8DF67
:1039C00021E0892B09F420E0822F08958FEC94E107
:1039D000DFDF21E0892B09F420E0822F08958EEFAC
:1039E00090E1D6DF21E0892B09F420E0822F0895B1
:1039F000FC01848DDF01A80FB11DA35ABF4F2C918C
:103A0000848D90E001968F739927848FA689B7895A
:103A10002C93A089B1898C91837080648C93938D51
:103A2000848D981306C00288F389E02D80818F7DF4
:103A300080830895EF92FF920F931F93CF93DF93AC
:103A4000EC0181E0888F9B8D8C8D981305C0E889EF
:103A5000F989808185FD25C0F62E0B8D10E00F5F62
:103A60001F4F0F731127E02E8C8DE8120BC00FB67D
:103A700007FCFACFE889F989808185FFF5CFCE016F
:103A8000B7DFF2CF8B8DFE01E80FF11DE35AFF4F38
:103A9000F0829FB7F8940B8FEA89FB89808180625E
:103AA0000AC09FB7F894EE89FF896083E889F98995
:103AB00080818370806480839FBF81E090E0DF918C
:103AC000CF911F910F91FF90EF900895CF93DF93C7
:103AD000EC01888D8823C1F0EA89FB89808185FD0E
:103AE00005C0A889B9898C9186FD0EC00FB607FC68
:103AF000F5CF808185FFF2CFA889B9898C9185FFA8
:103B0000EDCFCE0175DFE8CFDF91CF91089580E052
:103B100090E0892B19F063DF811116C080E090E0FE
:103B2000892B19F053DF811112C080E090E0892BBE
:103B300019F043DF81110EC080E090E0892B79F00D
:103B400033DF81110AC008950E940000E7CF0E9470
:103B50000000EBCF0E940000EFCF0C94000008950E
:103B600090E0FC013197E231F10508F04EC0882762
:103B7000EE52FF4F8F4F0C949959809180008F77B0
:103B800003C0809180008F7D809380000895809194
:103B90008000877FF9CF84B58F7702C084B58F7D91
:103BA00084BD08958091B0008F7703C08091B000EC
:103BB0008F7D8093B0000895809190008F7707C02B
:103BC000809190008F7D03C080919000877F8093CB
:103BD000900008958091A0008F7707C08091A00089
:103BE0008F7D03C08091A000877F8093A0000895FF
:103BF000809120018F7707C0809120018F7D03C0C5
:103C000080912001877F8093200108953FB7F89429
:103C10008091F50C9091F60CA091F70CB091F80CF6
:103C200026B5A89B05C02F3F19F00196A11DB11D17
:103C30003FBFBA2FA92F982F8827820F911DA11D52
:103C4000B11DBC01CD0142E0660F771F881F991F8F
:103C50004A95D1F70895CF93DF93EC01888199813C
:103C6000009711F00E94395A198218821D821C8215
:103C70001B821A82DF91CF9108950F931F93CF93E8
:103C8000DF93EC0188819981009729F02A813B819B
:103C90002617370788F48B016F5F7F4F0E94C25A47
:103CA000009761F0998388831B830A832C813D816F
:103CB000232B11F4FC01108281E001C080E0DF9130
:103CC000CF911F910F910895EF92FF920F931F9341
:103CD000CF93DF93EC017B018A01BA01CEDF811122
:103CE00003C0CE01B8DF07C01D830C83B7018881F4
:103CF00099810E94E15BCE01DF91CF911F910F91DD
:103D0000FF90EF900895FC0180819181009711F060
:103D10000C94795860E070E0CB010895AF92BF92A7
:103D2000CF92DF92EF92FF920F931F93CF93DF9387
:103D30007B018A01FB01448155814115510561F1E7
:103D4000FC01248135812115310531F12417350716
:103D500018F10217130718F0890101501109FC012D
:103D6000A080B180C501DFEFCFEF6501C00ED11E8D
:103D7000C816D906A0F0F701608171810E94F75B37
:103D8000009769F09C012A193B090217130710F0EC
:103D9000D22FC32F0196ECCF8FEF9FEF02C08D2F54
:103DA0009C2FDF91CF911F910F91FF90EF90DF90AB
:103DB000CF90BF90AF900895CF93DF93FC01248103
:103DC00035814217530780F4FB01DC01CD91DC9172
:103DD00060817181CE01840F951F0E94F75B00976F
:103DE00019F08C1B9D0B02C08FEF9FEFDF91CF91DD
:103DF000089540E050E0E0CFFC0124813581232B81
:103E000031F421E061157105A1F0FB0108C0FC014E
:103E1000808191816115710531F421E0FC0180817F
:103E2000882339F005C00E94D85B21E0892B09F076
:103E300020E0822F0895EF92FF920F931F93CF936C
:103E4000DF936115710511F480E01BC04115510528
:103E5000B9F07B01EC018C819D818A01080F191F4B
:103E6000B801CE010ADF882379F3288139818C815A
:103E70009D81B701820F931F0E94E15B1D830C831C
:103E800081E0DF91CF911F910F91FF90EF90089506
:103E90000F931F93CF93DF931F921F92CDB7DEB77F
:103EA0008C0169831A8241E050E0BE016F5F7F4F51
:103EB000C2DF811102C0C801CEDEC8010F900F9091
:103EC000DF91CF911F910F910895CF93DF93EC0174
:103ED0006115710559F0FB0101900020E9F7319758
:103EE000AF01461B570BA7DF811102C0CE01B3DE25
:103EF000CE01DF91CF910895CF93DF93EC01FB01C9
:103F0000448155816081718196DF811102C0CE01AB
:103F1000A2DECE01DF91CF9108956115710549F0C0
:103F2000FB0101900020E9F73197AF01461B570BC9
:103F300082CF80E00895FB014481558160817181C9
:103F40007ACFCF93DF93EC016115710551F0FB013E
:103F500001900020E9F73197AF01461B570BB4DE03
:103F600001C079DECE01DF91CF910895CF93DF9329
:103F7000EC01FB018617970751F060817181611593
:103F8000710521F0448155819FDE01C064DECE01C0
:103F9000DF91CF9108950F931F93CF93DF938C01FF
:103FA000EB01FC0180819181009739F06881798172
:103FB00061157105A1F40E94395A88819981F8012F
:103FC000918380838A819B81938382838C819D816D
:103FD00095838483198218821B821A820FC0F8018C
:103FE000428153812C813D814217530720F30E9467
:103FF000E15B8C819D81F801958384831D821C8205
:10400000DF91CF911F910F910895FC0180819181E3
:104010000C94395A0F931F93CF93DF93CDB7DEB72C
:1040200062970FB6F894DEBF0FBECDBF8C01CB01F7
:10403000F80111821082138212821582148250E0DC
:10404000BE016F5F7F4F0E94A758BE016F5F7F4F19
:10405000C80177DF62960FB6F894DEBF0FBECDBF02
:10406000DF91CF911F910F9108950F931F93CF93DD
:10407000DF93CDB7DEB729970FB6F894DEBF0FBE3A
:10408000CDBF8C01862FF80111821082138212821B
:104090001582148250E0BE016F5F7F4F90E00E9456
:1040A000D058BE016F5F7F4FC8014BDF29960FB616
:1040B000F894DEBF0FBECDBFDF91CF911F910F915E
:1040C0000895CF93DF931F921F92CDB7DEB7FC0107
:1040D00011821082138212821582148269831A82DD
:1040E000BE016F5F7F4F2DDF0F900F90DF91CF915B
:1040F0000895FC01118210821382128215821482AB
:1041000035CFFC0111821082138212821582148233
:104110006115710549F0FB0101900020E9F7319725
:10412000AF01461B570BD0CD0895BF92CF92DF92BF
:10413000EF92FF920F931F93CF93DF937C016B015C
:104140008A01E9012417350720F4812F8901C42F42
:10415000D82F6AE27AE0C701D4DFD60114968D9198
:104160009C91159708171907C0F48C179D0708F440
:10417000EC01D601ED91FC911197EC0FFD1FB08081
:1041800010826D917C91600F711FC701DADED6013C
:10419000ED91FC91EC0FFD1FB082C701DF91CF9133
:1041A0001F910F91FF90EF90DF90CF90BF900895F7
:1041B0006115710579F0FB0101900020E9F7319755
:1041C000AF01461B570BDC01ED91FC910280F3819E
:1041D000E02D199480E090E008950F931F93CF9302
:1041E000DF93EC01FB014481558160817181E8819D
:1041F000F9810280F381E02D19958C016EEA7AE055
:10420000CE01D6DF800F911FDF91CF911F910F91CB
:1042100008951F920F920FB60F9211240BB60F92B2
:104220002F933F934F935F936F937F938F939F93BE
:10423000AF93BF93EF93FF9381E690E1D9DBFF91BA
:10424000EF91BF91AF919F918F917F916F915F910E
:104250004F913F912F910F900BBE0F900FBE0F907B
:104260001F9018951F920F920FB60F9211240BB644
:104270000F922F933F934F935F936F937F938F93FF
:104280009F93AF93BF93EF93FF9381E690E10E94DA
:104290003E4BFF91EF91BF91AF919F918F917F9195
:1042A0006F915F914F913F912F910F900BBE0F90A7
:1042B0000FBE0F901F9018951F920F920FB60F927E
:1042C00011240BB60F922F933F934F935F936F93ED
:1042D0007F938F939F93AF93BF93EF93FF9382E36B
:1042E00094E186DBFF91EF91BF91AF919F918F9108
:1042F0007F916F915F914F913F912F910F900BBEE6
:104300000F900FBE0F901F9018951F920F920FB62F
:104310000F9211240BB60F922F933F934F935F93FD
:104320006F937F938F939F93AF93BF93EF93FF937D
:1043300082E394E10E943E4BFF91EF91BF91AF91D8
:104340009F918F917F916F915F914F913F912F91AD
:104350000F900BBE0F900FBE0F901F9018951F92DD
:104360000F920FB60F9211240BB60F922F933F931B
:104370004F935F936F937F938F939F93AF93BF936D
:10438000EF93FF938FEC94E133DBFF91EF91BF91BB
:10439000AF919F918F917F916F915F914F913F91DD
:1043A0002F910F900BBE0F900FBE0F901F9018957E
:1043B0001F920F920FB60F9211240BB60F922F93EC
:1043C0003F934F935F936F937F938F939F93AF939D
:1043D000BF93EF93FF938FEC94E10E943E4BFF91CC
:1043E000EF91BF91AF919F918F917F916F915F916D
:1043F0004F913F912F910F900BBE0F900FBE0F90DA
:104400001F9018951F920F920FB60F9211240BB6A2
:104410000F922F933F934F935F936F937F938F935D
:104420009F93AF93BF93EF93FF938EEF90E1E0DA0A
:10443000FF91EF91BF91AF919F918F917F916F917C
:104440005F914F913F912F910F900BBE0F900FBE38
:104450000F901F9018951F920F920FB60F92112474
:104460000BB60F922F933F934F935F936F937F936E
:104470008F939F93AF93BF93EF93FF938EEF90E152
:104480000E943E4BFF91EF91BF91AF919F918F9111
:104490007F916F915F914F913F912F910F900BBE44
:1044A0000F900FBE0F901F901895CF93DF93282F7A
:1044B00030E0F901EA53FD4F8491F901EA5FFD4FC5
:1044C000D491F901E45BFD4FC491CC2389F08111B3
:1044D00047DBEC2FF0E0EE0FFF1FE455FD4FA591F9
:1044E000B491EC91ED2381E090E021F480E002C0F2
:1044F00080E090E0DF91CF9108951F93CF93DF93F9
:10450000282F30E0F901EA53FD4F8491F901EA5F69
:10451000FD4FD491F901E45BFD4FC491CC23B9F078
:10452000162F81111DDBEC2FF0E0EE0FFF1FEE5672
:10453000FD4FA591B4919FB7F894111104C08C91CF
:10454000D095D82302C0EC91DE2BDC939FBFDF9186
:10455000CF911F910895CF93DF9390E0FC01EA5F24
:10456000FD4F2491FC01E45BFD4F8491882361F1B0
:1045700090E0880F991FFC01E451FE4FC591D49142
:10458000FC01EE56FD4FA591B491611109C09FB792
:10459000F8948881209582238883EC912E230BC088
:1045A000623061F49FB7F8948881322F309583236D
:1045B0008883EC912E2B2C939FBF06C08FB7F89465
:1045C000E8812E2B28838FBFDF91CF9108958F92A2
:1045D0009F92AF92BF92CF92DF92EF92FF926B01C8
:1045E0007C0114DB4B015C01C114D104E104F10432
:1045F000E9F00CDBDC01CB0188199909AA09BB0998
:10460000883E9340A105B10578F321E0C21AD10894
:10461000E108F10888EE880E83E0981EA11CB11C09
:10462000C114D104E104F10421F7DECFFF90EF9033
:10463000DF90CF90BF90AF909F908F9008952FB74D
:10464000F8946091F10C7091F20C8091F30C9091C0
:10465000F40C2FBF08951F920F920FB60F921124E2
:104660002F933F938F939F93AF93BF938091F10CC0
:104670009091F20CA091F30CB091F40C3091F00CED
:1046800023E0230F2D3720F40196A11DB11D05C095
:1046900026E8230F0296A11DB11D2093F00C8093F4
:1046A000F10C9093F20CA093F30CB093F40C809166
:1046B000F50C9091F60CA091F70CB091F80C0196C6
:1046C000A11DB11D8093F50C9093F60CA093F70CEF
:1046D000B093F80CBF91AF919F918F913F912F9123
:1046E0000F900FBE0F901F901895CF92DF92EF9210
:1046F000FF920F931F93CF93DF93EC0188E60E9404
:10470000AE4263E08BE991E10E94D9390E940143F6
:1047100087E090E00E94B8428BE991E10E949139D4
:104720008F77982F92959F701AEF082F919F000D09
:1047300011248BE991E10E9491399C01332794E087
:10474000359527959A95E1F7F82E129FF00C1124D4
:104750008BE991E10E9491399C01332744E0359522
:1047600027954A95E1F7E82E129FE00C11248BE97A
:1047700091E10E9491399C01332754E035952795AA
:104780005A95E1F7D82E129FD00C11248BE991E1B4
:104790000E9491398BE991E10E9491399C01332764
:1047A00064E0359527956A95E1F7C82E129FC00CF5
:1047B00011248BE991E10E9491399C01332774E027
:1047C000359527957A95E1F7129F800D11248883FE
:1047D000C982DA82EB82FC820D83CE01DF91CF9118
:1047E0001F910F91FF90EF90DF90CF900895CF929F
:1047F000DF92EF92FF920F931F93CF93DF93EC0121
:1048000088E60E94AE4260E08BE991E10E94D939CE
:104810000E94014387E090E00E94B8428BE991E159
:104820000E9491398F77982F92959F701AEF082FD9
:10483000919F000D11248BE991E10E9491399C0117
:10484000332794E0359527959A95E1F7F82E129F36
:10485000F00C11248BE991E10E9491399C013327DE
:1048600044E0359527954A95E1F7E82E129FE00C34
:1048700011248BE991E10E9491398BE991E10E9429
:1048800091399C01332754E0359527955A95E1F7E6
:10489000D82E129FD00C11248BE991E10E949139FE
:1048A0009C01332764E0359527956A95E1F7C82E7A
:1048B000129FC00C11248BE991E10E9491399C0157
:1048C000332774E0359527957A95E1F7129F800D8F
:1048D00011248883C982DA82EB82FC820D83CE01A7
:1048E000DF91CF911F910F91FF90EF90DF90CF90CC
:1048F0000895DC015996ED91FC915A973097B9F0E3
:1049000083899489A589B68942855385648575858F
:10491000841B950BA60BB70B811520E89207A10508
:10492000B10538F08FEF9FE7A0E0B0E0089580E098
:1049300090E00895CF93DF931F92CDB7DEB76983E0
:10494000DC01ED91FC910280F381E02D41E050E02B
:10495000BE016F5F7F4F19950F90DF91CF91089542
:1049600080E090E00895FC01818D928D009711F018
:104970000C94DD3C0895CF93DF93EC01898D9A8DE3
:10498000009739F481E090E09B838A8380E090E097
:104990000BC0FC01138212820E949E3DE98DFA8DAC
:1049A00022813381232B71F7DF91CF910895CF932B
:1049B000DF931F92CDB7DEB741E050E0BE016F5FDD
:1049C0007F4F0E94383F019719F4898190E002C01F
:1049D0008FEF9FEF0F90DF91CF910895FC01818DB4
:1049E000928D009709F0E3CF8FEF9FEF08950F931B
:1049F0001F93CF93DF93FC01818D928D0097B1F0CF
:104A0000EF01D5DF8C010F3F8FEF180791F0898DF3
:104A10009A8DFC0142855385648575854150510905
:104A2000610971090E94083DC80105C080E090E05D
:104A300002C08FEF9FEFDF91CF911F910F910895EB
:104A4000AF92BF92CF92DF92EF92FF920F931F939C
:104A5000CF93DF9300D01F921F92CDB7DEB77C01BA
:104A6000062FB72E142F690143E050E0BE016F5F9F
:104A70007F4F0E94E04A18161CF08EEF9FEF6BC02C
:104A80008981882319F08DEF9FEF65C08A8181119C
:104A9000FACF8B818F3FB9F7960142E050E0BE011B
:104AA0006C5F7F4FC7010E94E04A181634F78C8173
:104AB0009D81980F41F782508C83181708F449C0E4
:104AC000F7011481AA24A394A10E960142E050E0BC
:104AD000BE016F5F7F4FC7010E94E04A18166CF657
:104AE0008981853D81F68A81A812CDCF4C8150E025
:104AF0009601602F7B2DC7010E94E04A2C81082E71
:104B0000000C990B422F50E08417950709F0B5CFA0
:104B10001A52902FE02FFB2D8E2F891B821718F42D
:104B20008191180FF9CF960142E050E0BE016F5F0E
:104B30007F4FC7010E94E04A18160CF09ECF898172
:104B4000180F09F0A0CF8A8181119DCF8C8190E050
:104B500002C08CEF9FEF0F900F900F900F900F906F
:104B6000DF91CF911F910F91FF90EF90DF90CF9049
:104B7000BF90AF900895CF93DF93EC010E94DD3C8E
:104B8000882311F01D8281E0DF91CF9108953F923B
:104B90004F925F926F927F928F929F92AF92BF924D
:104BA000CF92DF92EF92FF920F931F93CF93DF93F9
:104BB000CDB7DEB72C970FB6F894DEBF0FBECDBFD2
:104BC0005C01DC015B968D909C905C971696CD9075
:104BD000DD90ED90FC901997C114D104E104F1042B
:104BE00039F0BFEFCB1ADB0AEB0AFB0A312C07C006
:104BF000F401C080D180E280F38033243394F40147
:104C000081859285A385B4859C01AD012F5F3F4FBF
:104C10004F4F5F4F29873A874B875C8726013701C3
:104C20001D821E821F821886F40181859285A385CC
:104C3000B4852D813E814F815885281739074A0751
:104C40005B0708F063C089859A85AB85BC858C15A8
:104C50009D05AE05BF0550F482E0C82ED12CE12C95
:104C6000F12C92E0492E512C612C712C9E012F5F6A
:104C70003F4FB701A601C4010E945B3C882309F4A1
:104C800045C089819A81AB81BC81892B8A2B8B2B72
:104C900041F0260137019FEF491A590A690A790A3A
:104CA00005C0C414D504E604F70491F02D813E81BB
:104CB0004F8158852F5F3F4F4F4F5F4F2D833E836E
:104CC0004F8358873FEFC31AD30AE30AF30AACCFE6
:104CD0000FEF1FEF2FEF3FE0B301A201C4010E94CD
:104CE000BB3B882399F0D50116964D915D916D914E
:104CF0007C911997411551056105710549F09301A2
:104D00008201C4010E94BB3B811102C080E02AC025
:104D1000D50116964D925D926D927C921997332033
:104D200051F0D301C2010196A11DB11DF401808390
:104D30009183A283B383F5018789908DA18DB28D74
:104D4000892B8A2B8B2B69F4D50157964D925D9256
:104D50006D927C925A9714968C9114978068149651
:104D60008C9381E02C960FB6F894DEBF0FBECDBFBA
:104D7000DF91CF911F910F91FF90EF90DF90CF9037
:104D8000BF90AF909F908F907F906F905F904F906B
:104D90003F9008952F923F924F925F926F927F9231
:104DA0008F929F92AF92BF92CF92DF92EF92FF923B
:104DB0000F931F93CF93DF93CDB7DEB72C970FB62A
:104DC000F894DEBF0FBECDBF7C01DC0115962C90A0
:104DD00021106BC1FE013196CE010C966F0130E2BD
:104DE00031938E179F07E1F7DA0130E087E09D915C
:104DF000992331F19E3231F48A3009F45BC138E0F5
:104E00008AE0F5CFECE0F3E04491442321F03196C1
:104E10009413FACF4FC1831708F44CC14FED490FDB
:104E20004E3508F047C141E0430FF601E30FF11D95
:104E30003FE9390F3A3108F490529083342FD7CF9D
:104E40008981803209F436C12C878B01FB01838D67
:104E5000948DD7015C969C938E935B9716821782F4
:104E6000108611861286138614861586B12CF801D9
:104E700082859385A485B58543895489658976891A
:104E800084179507A607B70708F05AC025E0B6951E
:104E9000A795979587952A95D1F7F82FFF70AF2E94
:104EA000D80115968C91823008F404C1C8017FDDC9
:104EB00097FD00C1F80182859385A485B5854F963D
:104EC000A11DB11D82879387A487B587F0E2AF9EAD
:104ED000B0011124635A714F6115710509F4EAC0DC
:104EE000DB018C91882319F0853EC1F4E0C0B1103C
:104EF0000EC0F701A28A8091100290911102A09138
:104F00001202B091130286879787A08BB18BDB01C9
:104F10008C91882399F0BB24B394A9CF4BE050E047
:104F2000C6010E94A65B892B09F0A1CF8C858073F6
:104F3000803309F4BFC04C856A2DB2C0BB24B39442
:104F40008C858271823109F0B5C0BB2039F0C70170
:104F50000E94C540009709F077C0ACC0F801858178
:104F6000823009F4A7C0C80112DE882309F4A2C068
:104F7000D8015B96ED91FC915C9716968D909D9073
:104F8000AD90BC901997B2E08B1A9108A108B108B6
:104F9000058404C0880C991CAA1CBB1C0A94D2F777
:104FA00086859785A089B189880E991EAA1EBB1E89
:104FB0003480E1E08E1A9108A108B108332009F18C
:104FC00024013501430C511C611C711C0E94383BAB
:104FD000882309F46FC0EDE5FEE0119220E1ED3584
:104FE000F207D9F740921002509211026092120219
:104FF000709213028091A90D81608093A90D3A945B
:10500000DDCFD8015B96ED91FC915C9780E092E05A
:10501000A0E0B0E0058404C0880F991FAA1FBB1F41
:105020000A94D2F7F8014389548965897689840FF7
:10503000951FA61FB71F838B948BA58BB68BD701AB
:1050400052961C928DE59EE020E2FC0111922A9579
:10505000E9F72BE0F601DC0101900D922A95E1F7CA
:1050600021E238E2DC0151963C932E93509740E0C8
:1050700058E01F965C934E931E9753963C932E9345
:10508000529759963C932E93589757965C934E930C
:1050900056970E94383B882369F04C85F701628956
:1050A000C7010E943B40282E05C0212C03C0B1102F
:1050B00032CF1FCF822D2C960FB6F894DEBF0FBED5
:1050C000CDBFDF91CF911F910F91FF90EF90DF90B7
:1050D000CF90BF90AF909F908F907F906F905F9098
:1050E0004F903F902F900895CF93DF93CDB7DEB7C9
:1050F0006D970FB6F894DEBF0FBECDBF442349F1C4
:10510000AB01BC011C821B8286EB92E09A838983EF
:105110001E8222E0CE0101963DDE811102C090E0A8
:1051200013C0CE0101960E9443418823C1F3CE01F2
:1051300001960E94C540009791F325EEFC01208363
:105140001E820E94383B982F81E0911103C080E0BD
:1051500001C081E06D960FB6F894DEBF0FBECDBFE3
:10516000DF91CF9108951F93CF93DF93CDB7DEB733
:105170006D970FB6F894DEBF0FBECDBFAB011C829A
:105180001B8226EB32E03A8329831E8221E0BC0198
:10519000CE010196FFDD11E0811102C010E003C0D5
:1051A000CE010196E8DC812F6D960FB6F894DEBF34
:1051B0000FBECDBFDF91CF911F9108958FB7F894A7
:1051C0008091FA0C8FBF089561E0FC01848195D92C
:1051D0008091F90C81111092F90C08958EBD000098
:1051E0000DB407FEFDCF8EB508958FEFF7CF0F9367
:1051F0001F93CF93DF93EB0122DA8B01F6DF8F3F12
:1052000041F01DDA601B710B6C177D07B8F380E06D
:1052100001C081E0DF91CF911F910F910895CF934D
:10522000DF93EC018E81882379F08F8198859C0132
:105230002F5F3F4F38872F838230924010F4D5DFA5
:10524000F4CFCE01C1DF1E82DF91CF9108958CBDD6
:105250009DBD0895CF93DF93EC018091F90C8111EE
:1052600008C081E08093F90C8091A7119091A8115A
:10527000EEDF60E08C81DF91CF913FC98F929F92EA
:10528000AF92BF92FF920F931F93CF93DF93EC01E6
:10529000F62E49015A01C3DFCE01DCDF6CE271E07A
:1052A000CE01A5DF8F2D806499DF08E110E0D501E4
:1052B000C401002E04C0B695A795979587950A94CA
:1052C000D2F78CDF08501109083F8FEF180779F7E4
:1052D000FF2029F088E0F81204C087E803C085E9C0
:1052E00001C08FEF7BDF10E080DF8A8787FF04C07B
:1052F0001F3F11F01F5FF8CFDF91CF911F910F91EA
:10530000FF90BF90AF909F908F900895AF92BF9203
:10531000CF92DF92EF92FF920F931F93CF93DF9381
:10532000EC016901C801820F931F8130924008F09F
:1053300068C08E81882371F088819981AA81BB81A0
:1053400084179507A607B70729F48F819885C81693
:10535000D90688F5488359836A837B838B8583309C
:1053600039F089E0440F551F661F771F8A95D1F7E2
:105370009A01AB0161E1CE0181DF882319F083E05E
:105380008D833FC05CD95B0130DF8A878F3F41F45A
:1053900056D96A197B096D327140B0F38FE003C0B2
:1053A0008E3F29F08DE08D83CE010EDF2AC0188656
:1053B0001F8281E08E838F8198858C159D0538F43E
:1053C00014DF8F819885019698878F83F4CF6701CA
:1053D000E00EF11EEC14FD0429F007DFF6018193C5
:1053E0006F01F8CF8F819885080F191F18870F83D9
:1053F0008985882319F00115124038F0CE010FDF9E
:1054000004C0CE01E1DE80E001C081E0DF91CF91F8
:105410001F910F91FF90EF90DF90CF90BF90AF90D2
:105420000895EF92FF920F931F93CF93DF93EC01B8
:105430007901411551056105710511F482E134C00E
:105440008B85833039F089E0440F551F661F771F25
:105450008A95D1F79A01AB0168E1CE010FDF88236D
:1054600011F084E021C08EEFB9DE87018EEFF81ACB
:10547000F80181918F01B2DEE016F106C9F78FEFD6
:10548000ADDE8FEFABDEB1DE8A878F71853029F01C
:1054900081E18D83CE0198DE08C068E572E0CE011F
:1054A000A6DE811106C085E18D83CE018DDE80E010
:1054B00011C020E030E0A9016DE0CE01DFDE8111F6
:1054C00007C093DE811104C0CE017EDE81E002C000
:1054D00084E1EACFDF91CF911F910F91FF90EF9080
:1054E0000895FC01DB0112968D919C911397938393
:1054F000828386EB92E09183808314968C9114973B
:10550000848315968C911597858316964D915D91A0
:105510006D917C91199746835783608771871A969E
:105520004D915D916D917C911D9742875387648762
:1055300075871E964D915D916D917C91519746872F
:105540005787608B718B52968C915297828B5396B2
:105550004D915D916D917C915697438B548B658BEA
:10556000768B57964D915D916D917C915A97478BB3
:10557000508F618F728F5B968D919C915C97948F09
:10558000838F0895FC011382128288EE93E0A0E0DD
:10559000B0E084839583A683B7838EE692E09183FF
:1055A0008083128E118E14860895EF92FF920F93CE
:1055B000CF93DF93FC0194E1978F81E080A391A3C7
:1055C00082A37F0182EEE81A8EEFF80AD7018D914F
:1055D0009C91EF016F96DC01ED91FC910480F581C7
:1055E000E02D00E020E030E044E0BE01199581119B
:1055F00012C0F70180819181DC01ED91FC91068060
:10560000F781E02D28EE33E04FEFBE01199521E040
:10561000181619060CF020E0822FDF91CF910F9120
:10562000FF90EF900895CF92DF92EF92FF920F9349
:10563000CF93DF93EC0182E08F8F6E0122EEC21ACE
:105640002EEFD20AD6018D919C917E01BFE1EB0E27
:10565000F11CDC01ED91FC910480F581E02D00E06E
:1056600020E030E041E0B7011995882321F060E0A7
:1056700070E0CB0126C0F60180819181DC01ED91C3
:10568000FC910680F781E02D28EE33E04FEFB70163
:10569000199597FDECCF6F8D78A176276727762730
:1056A000CB01A0E0B0E0BA2FA92F982F882729A11D
:1056B000822BBA2FA92F982F88272AA1BC01CD01B0
:1056C000622BDF91CF910F91FF90EF90DF90CF9001
:1056D0000895CF93DF93EC01C25EDE4F88819981FC
:1056E000DC01ED91FC910190F081E02D199588810C
:1056F0009981DC01ED91FC910280F381E02DDF9135
:10570000CF911994CF93DF93EC0165E570E08A8126
:105710009B810E947B4A65E570E08A819B810E94A3
:105720007B4A60E070E08A819B810E947B4A60E056
:1057300070E08A819B810E947B4A60E070E08A81F0
:105740009B810E947B4A8A819B81DC01ED91FC91C7
:105750000084F185E02D19958A819B81DC01ED9112
:10576000FC910084F185E02D1995892B49F08A81FF
:105770009B81DC01ED91FC910284F385E02DEBCF60
:10578000DF91CF910895CF93DF93EC0165E570E051
:105790008A819B810E947B4A65E570E08A819B81BA
:1057A0000E947B4A60E070E08A819B810E947B4A74
:1057B00060E070E08A819B810E947B4A60E070E03B
:1057C0008A819B810E947B4A8A819B81DC01ED91C9
:1057D000FC910084F185E02D19958A819B81DC0183
:1057E000ED91FC910084F185E02D1995892B49F00C
:1057F0008A819B81DC01ED91FC910284F385E02D8F
:10580000EBCFDF91CF9108959F92AF92BF92CF924D
:10581000DF92EF92FF920F931F93CF93DF93CDB759
:10582000DEB72C970FB6F894DEBF0FBECDBF7C015C
:105830006B01942EB22EA32EDC0112968D919C91B9
:105840001397DC01ED91FC910084F185E02D199511
:10585000F70182819381DC01ED91FC910084F18557
:10586000E02D1995F701A281B381892B41F0ED91CB
:10587000FC9111970284F385E02DCD01E8CFF6016C
:105880008081F701848360E070E0CD010E947B4A53
:1058900060E070E0D70112968D919C9113970E9461
:1058A0007B4A6FEF70E0F701828193810E947B4A0F
:1058B00061E0600F162F190DD70112968D919C9102
:1058C0001397DC01ED91FC910190F081E02D612FA7
:1058D0001995612F70E0719561957109F7018281C9
:1058E00093810E947B4A64ED70E0D70112968D91FE
:1058F0009C9113970E947B4AF70182819381492DE5
:1059000050E0DC01ED91FC910280F381E02DB601C5
:1059100019959C2DF60114ED8E2F891B891518F40D
:105920008191180FF9CFF70182819381402F50E0C8
:10593000DC01ED91FC910280F381E02D6B2D7A2D3D
:1059400019959B2DEB2DFA2D8E2F891B801718F49E
:105950008191180FF9CFF70182819381612F6195B1
:10596000DC01ED91FC910190F081E02D199560E052
:1059700070E0F701828193810E947B4A86E0ECE12E
:10598000F2E0DE01179601900D928A95E1F72AE088
:1059900030E046E050E0BE016F5F7F4FC7010E94DC
:1059A000E04A181684F446E050E0BE01695F7F4F7C
:1059B000CE0101960E94A65B21E0892B09F420E02C
:1059C000822F819501C08EEF2C960FB6F894DEBF22
:1059D0000FBECDBFDF91CF911F910F91FF90EF9040
:1059E000DF90CF90BF90AF909F90089540E052EC31
:1059F00061E070E0FC01828193810C94184A40E0E0
:105A000052EC61E070E0FC01828193810C94184AB1
:105A1000AF92BF92CF92DF92EF92FF920F931F93BC
:105A2000CF93DF9300D01F921F92CDB7DEB77C01DA
:105A3000062FB72E142F690143E050E0BE016F5FBF
:105A40007F4F0E94824A18161CF08EEF9FEF6BC0AA
:105A50008981882319F08DEF9FEF65C08A818111BC
:105A6000FACF8B818F3FB9F7960142E050E0BE013B
:105A70006C5F7F4FC7010E94824A181634F78C81F1
:105A80009D81980F41F782508C83181708F449C004
:105A9000F7011481AA24A394A10E960142E050E0DC
:105AA000BE016F5F7F4FC7010E94824A18166CF6D5
:105AB0008981853D81F68A81A812CDCF4C8150E045
:105AC0009601602F7B2DC7010E94824A2C81082EEF
:105AD000000C990B422F50E08417950709F0B5CFC1
