:020000023000CC
:10FC000001C021C1112484B7882369F0982F9A700C
:10FC1000923049F081FF02C097EF94BF282E80E018
:10FC2000FDD00C94000085E08093810082E08093F9
:10FC3000C00088E18093C10086E08093C20080E12B
:10FC40008093C4008EE0EAD0279A86E020E33CEF60
:10FC500091E0309385002093840096BBB09BFECF4B
:10FC60001F9AA8954091C00047FD02C0815089F7B6
:10FC7000FF24F39455E0E52E61E1D62EC3D0813404
:10FC800069F4C0D0C82FD0D0C23809F4AAC0C13896
:10FC900011F488E001C083E0AED0AAC0823411F430
:10FCA00084E103C0853419F485E0C6D0A1C0853550
:10FCB00079F4A8D0082FA6D0182F87FF03C08BB7E0
:10FCC000816002C08BB78E7F8BBF000F111F8FC06A
:10FCD000863581F497D08D3449F494D0CBB792D047
:10FCE000C170880FC82BCBBF81E001C083E0A4D0D6
:10FCF00080E0D2CF843609F048C084D0C82FD0E04D
:10FD0000DC2FCC277FD0C82B7DD0C82E5E01812C64
:10FD100032E0932E77D0F40181934F01F1E0AF1AD6
:10FD2000B108C1F781D085E4C81212C0DE5F480176
:10FD3000A12C92E0B92EAC16BD0609F459C0F5010C
:10FD400061915F01C40197D0FFEF8F1A9F0AF3CF33
:10FD500083E0F80187BFE89507B600FCFDCFA0E07F
:10FD6000B2E0F8018D919D910C01F7BEE895112448
:10FD7000229732962097B1F7F801E7BEE89507B6CB
:10FD800000FCFDCFD7BEE89533C0843719F53AD0D3
:10FD9000C82FD0E0DC2FCC2735D05E01A82A32D086
:10FDA000982E42D0E801F5E49F120BC0CE015BD043
:10FDB00022D081E0A81AB1082196A114B104B1F7AC
:10FDC00017C0FE018791EF0116D0E1E0AE1AB1082D
:10FDD000C1F70EC0853739F427D08EE10CD088E901
:10FDE0000AD081E059CF813511F488E017D01CD0BA
:10FDF00080E101D043CF9091C00095FFFCCF80936C
:10FE0000C60008958091C00087FFFCCF8091C0009C
:10FE100084FD01C0A8958091C6000895E0E6F0E059
:10FE200098E1908380830895EDDF803219F088E0B7
:10FE3000F5DFFFCF84E1DFCFCF93C82FE3DFC150E1
:10FE4000E9F7CF91F1CFFC010A0167BFE8951124D2
:10FE500007B600FCFDCF667029F0452B19F481E14F
:10FE600087BFE8950895F999FECF92BD81BDF89AB4
:10FE7000992780B50895262FF999FECF1FBA92BD14
:10FE800081BD20BD0FB6F894FA9AF99A0FBE01967B
:10FE9000089556657273696F6E3D382E31004F506C
:10FEA0005449424F4F545F435553544F4D5645525A
:10FEB0003D30004465766963653D61746D656761D9
:10FEC0003235363000465F4350553D3136303030A4
:10FED0003030304C00424947424F4F543D31004290
:10FEE00075696C743A4465632031362032303230A3
:10FEF0003A32333A35373A343300554152543D3073
:10FF000000424155445F524154453D313135323014
:10FF100030004C45443D4237004C45445F5354410A
:0DFF200052545F464C41534845533D330059
:02FFFE000108F8
:040000033000FC00CD
:00000001FF
