:100000000C9428010C9459010C9459010C94590139
:100010000C9459010C9459010C9459010C945901F8
:100020000C9459010C9459010C9459010C945901E8
:100030000C9459010C9459010C9459010C945901D8
:100040000C9459010C9459010C9459010C945901C8
:100050000C9459010C9459010C9459010C944C04C2
:100060000C9459010C9416040C94EC030C94590153
:100070000C9459010C9459010C9459010C94590198
:100080000C9459010C9459010C9459010C94590188
:100090000C9459010C9459010C9459010C94590178
:1000A0000C9459010C9459010C9459010C94590168
:1000B0000C9459010C9459010C9459010C94590158
:1000C0000C9459010C9459010C9459010C94590148
:1000D0000C9459010C9459010C9459010C94590138
:1000E0000C9459010C94CF010C9475060C94BD012D
:1000F0000C949E010C94C1010C94CB010C948C01C6
:100100000C94D3010C9479020C94A2010C94330248
:100110000C94C5010C9410020C94AD010C94B70121
:100120000C94B3010C94A6010C941F020C94DD01F5
:100130000C94C6020C9441020C94AA010C94870101
:100140000C94D9010C94E301000021002400270045
:100150002A002D00300033000101000004010701D6
:100160000A0100002200250028002B002E0031008B
:10017000340002010000050108010B010505050519
:10018000070508080808020202020A0A080804040F
:10019000040401010101010101010303030303033D
:1001A0000303040707070C0C0C0C0C0C0C0C0202CC
:1001B000020206060606060606060B0B0B0B0B0BC9
:1001C0000B0B010210202008081020401020408056
:1001D000020102010804020101020408102040800B
:1001E0008040201008040201800402018040201099
:1001F00008040201080402010102040810204080E2
:10020000010204081020408000000A0B02090C0DB6
:100210000E080703040100000000000000000000B9
:1002200000000000000000000000000000000000CE
:10023000000000001211100000000000000000008B
:100240000000000000000000000000000000750633
:1002500011241FBECFEFD1E2DEBFCDBF00E00CBF47
:1002600012E0A0E0B2E0EAEAFDE000E00BBF02C06D
:1002700007900D92AC35B107D9F724E0ACE5B2E0B8
:1002800001C01D92AA30B207E1F711E0C8E2D1E047
:1002900000E006C021970109802FFE010E94C406DC
:1002A000C732D10780E00807A9F70E9496040C9492
:1002B000D3060C940000382FE5E1F2E08491EFECD6
:1002C000F1E02491E9E8F1E09491992309F435C033
:1002D000882311F181508231F8F4E82FF0E088276B
:1002E000EB58FE4F8F4F0C94C406A601AA0187015C
:1002F0009E01A2018C01AD01B301B701BD01C10195
:10030000C501CB01CF018C01D301D901DD01809161
:1003100080008F7780938000E92FF0E0EE0FFF1FC1
:10032000EE59FE4FA591B4918FB7F894EC9131112D
:1003300048C020952E232C938FBF08958091800074
:100340008F7DE8CF80918000877FE4CF84B58F7761
:1003500084BDE2CF84B58F7DFBCF8091B0008F77D5
:100360008093B000D9CF8091B0008F7DF9CF80917C
:1003700090008F7780939000CFCF809190008F7DF9
:10038000F9CF80919000877FF5CF8091A0008F7783
:100390008093A000C1CF8091A0008F7DF9CF809184
:1003A000A000877FF5CF809120018F778093200177
:1003B000B3CF809120018F7DF9CF80912001877F7D
:1003C000F5CF2E2BB8CFAF92BF92CF92DF92EF92A4
:1003D000FF920F931F93CF93DF936C017B018B01EF
:1003E000040F151FEB015E01AE18BF08C017D1073F
:1003F00059F06991D601ED91FC910190F081E02DC9
:10040000C6011995892B79F7C501DF91CF911F910D
:100410000F91FF90EF90DF90CF90BF90AF90089535
:10042000FC01538D448D252F30E0842F90E0821BFA
:10043000930B541710F0CF96089501970895FC017F
:10044000918D828D981761F0A28DAE0FBF2FB11DD7
:100450005D968C91928D9F5F9F73928F90E008952F
:100460008FEF9FEF0895FC01918D828D981731F0E9
:10047000828DE80FF11D858D90E008958FEF9FEF3D
:100480000895FC01918D228D892F90E0805C9F4F13
:10049000821B91098F73992708958DE693E00E943E
:1004A000410221E0892B09F420E0822F0895FC010C
:1004B000A48DA80FB92FB11DA35ABF4F2C91848DC5
:1004C00090E001968F739927848FA689B7892C9322
:1004D000A089B1898C91837080648C93938D848D75
:1004E000981306C00288F389E02D80818F7D808378
:1004F0000895EF92FF920F931F93CF93DF93EC0138
:1005000081E0888F9B8D8C8D98131AC0E889F989BA
:10051000808185FF15C09FB7F894EE89FF896083BD
:10052000E889F98980818370806480839FBF81E03E
:1005300090E0DF91CF911F910F91FF90EF90089580
:10054000F62E0B8D10E00F5F1F4F0F731127E02E5B
:100550008C8D8E110CC00FB607FCFACFE889F98993
:10056000808185FFF5CFCE010E945702F1CFEB8D40
:10057000EC0FFD2FF11DE35AFF4FF0829FB7F89467
:100580000B8FEA89FB8980818062CFCFCF93DF9385
:10059000EC01888D8823B9F0AA89BB89E889F9899B
:1005A0008C9185FD03C0808186FD0DC00FB607FCD0
:1005B000F7CF8C9185FFF2CF808185FFEDCFCE0103
:1005C0000E945702E9CFDF91CF91089580E090E03B
:1005D000892B29F00E944D0281110E94000080E0C9
:1005E00090E0892B49F080E090E0892B29F00E946F
:1005F000000081110E94000080E090E0892B49F00A
:1006000080E090E0892B29F00E94000081110E9477
:10061000000080E090E0892B49F080E090E0892B99
:1006200029F00E94000081110C94000008953FB74A
:10063000F89480915D0290915E02A0915F02B0916A
:10064000600226B5A89B05C02F3F19F00196A11D99
:10065000B11D3FBFBA2FA92F982F8827BC01CD010C
:10066000620F711D811D911D42E0660F771F881F6B
:10067000991F4A95D1F708958F929F92AF92BF929A
:10068000CF92DF92EF92FF924B015C010E94170321
:100690006B017C010E9417036C197D098E099F096B
:1006A000683E734081059105A8F321E0821A910804
:1006B000A108B10888EEC80E83E0D81EE11CF11C29
:1006C00081149104A104B10429F7FF90EF90DF9009
:1006D000CF90BF90AF909F908F900895CF92DF9270
:1006E000EF92FF92CF93DF93DC01CB01642FCFB762
:1006F000F8946D01EE24FF24CBBEDCB741E04CBF83
:10070000A901E1E0F8EF1995DCBFCFBFDF91CF91F0
:10071000FF90EF90DF90CF900895FC0101900020B2
:10072000E9F73197AF01481B590BBC018DE693E007
:100730000C94E3018F929F92AF92BF920F931F93FD
:10074000CF93DF93CDB7DEB7A1970FB6F894DEBF96
:100750000FBECDBF19A2423008F44AE08E010F5DF2
:100760001F4F842E912CB12CA12CA50194010E9425
:10077000A206E62FB901CA01EA30F4F4E05DD8011F
:10078000EE938D01232B242B252B79F790E080E02D
:10079000109719F0CD010E948D03A1960FB6F89421
:1007A000DEBF0FBECDBFDF91CF911F910F91BF90E4
:1007B000AF909F908F900895E95CE1CFCF93DF9346
:1007C0000E948D03EC0182E192E00E948D038C0F68
:1007D0009D1FDF91CF9108951F920F920FB60F9238
:1007E00011240BB60F922F933F934F935F936F9308
:1007F0007F938F939F93AF93BF93EF93FF938DE678
:1008000093E00E945702FF91EF91BF91AF919F91AA
:100810008F917F916F915F914F913F912F910F90A9
:100820000BBE0F900FBE0F901F9018951F920F9246
:100830000FB60F9211240BB60F922F938F939F93A5
:10084000EF93FF93E0917D03F0917E038081E0912F
:100850008303F091840382FD1DC090818091860303
:100860008F5F8F7320918703821741F0E091860399
:10087000F0E0E359FC4F958F80938603FF91EF9151
:100880009F918F912F910F900BBE0F900FBE0F90E5
:100890001F9018958081F2CF1F920F920FB60F9282
:1008A00011242F933F938F939F93AF93BF93809186
:1008B000650390916603A0916703B091680330913E
:1008C0005C0223E0230F2D3758F50196A11DB11DC1
:1008D00020935C028093650390936603A093670363
:1008E000B093680380915D0290915E02A0915F02D7
:1008F000B09160020196A11DB11D80935D0290939D
:100900005E02A0935F02B0936002BF91AF919F918E
:100910008F913F912F910F900FBE0F901F901895C0
:1009200026E8230F0296A11DB11DD2CF789484B57D
:10093000826084BD84B5816084BD85B5826085BDDB
:1009400085B5816085BD80916E00816080936E0069
:10095000109281008091810082608093810080915B
:10096000810081608093810080918000816080930C
:1009700080008091B10084608093B1008091B000CC
:1009800081608093B000809191008260809391009B
:1009900080919100816080939100809190008160AE
:1009A000809390008091A10082608093A10080914B
:1009B000A10081608093A1008091A000816080935C
:1009C000A00080912101826080932101809121010A
:1009D00081608093210180912001816080932001BA
:1009E00080917A00846080937A0080917A0082609E
:1009F00080937A0080917A00816080937A00809160
:100A00007A00806880937A001092C100EFECF1E0E8
:100A10002491E9E8F1E08491882399F090E0880F2F
:100A2000991FFC01E85BFE4FA591B491FC01EE59C2
:100A3000FE4F859194918FB7F894EC91E22BEC9353
:100A40008FBFE0917D03F0917E0382E08083E0918F
:100A50007903F0917A031082E0917B03F0917C039B
:100A600080E1808310928503E0918103F0918203FD
:100A700086E08083E0917F03F09180038081806134
:100A80008083E0917F03F091800380818860808380
:100A9000E0917F03F0918003808180688083E09102
:100AA0007F03F091800380818F7D808385E192E0D8
:100AB0000E94DE038EE192E00E94DE0340E051E0FE
:100AC00061E070E085E692E00E94CC0630E020E034
:100AD00043E060E070E280E090E00E946E0305E693
:100AE00012E0C12CD12C7601D0E0C0E0D8018D916C
:100AF0008D0190E0960121703327232B09F084C0EB
:100B0000EC01BFEFCB1ADB0AEB0AFB0AC114E1E0F0
:100B1000DE06E104F10451F730E020E045E060E05A
:100B200070E280E090E00E946E038CE292E00E940E
:100B3000DE03E5E6F2E080E091E0DF019C011D923A
:100B400021503040E1F710926402109263028091CC
:100B50006302909164028115944008F071C087E4AB
:100B600092E00E948D03609163027091640290E0B4
:100B700080E04AE00E949A0382E192E00E948D03A5
:100B80008091630290916402B0E0A0E0BA2FA92F97
:100B9000982F8827C5E6D2E0ABBFFC0127912993A7
:100BA0000196A11DB11D43E0C536D407A9F71092E7
:100BB00062021092610280916102909162028F3F05
:100BC000910509F078F58B599D4FDC018C918031AE
:100BD00020F48EE492E00E948D03E0916102F09196
:100BE0006202EB59FD4F608170E090E080E040E1EF
:100BF0000E949A0380916102909162020196909303
:100C0000620280936102D7CF982F8827C80FD91F1F
:100C10009E0141E0C701B601705E8F4F9F4F0E9459
:100C20006E036FCF82E192E00E948D038091630298
:100C3000909164020196909364028093630287CF3F
:100C400081E00E945B016AEF70E080E090E00E942A
:100C50003C0380E00E945B016AEF70E080E090E07E
:100C60000E943C0381E00E945B016AEF70E080E03B
:100C700090E00E943C0380E00E945B016EEE72E017
:100C800080E090E00E943C0380E592E00E948D03AA
:100C90008FB7F894C0906503D0906603E090670327
:100CA000F09068038FBF8091690390916A03A091CF
:100CB0006B03B0916C03A7019601281B390B4A0BFB
:100CC0005B0BCA01B9014AE00E949A0382E192E0FB
:100CD0000E948D03C0926903D0926A03E0926B0375
:100CE000F0926C030E94E602ABCFEDE6F3E01382D4
:100CF000128288EE93E0A0E0B0E084839583A6831F
:100D0000B78384E092E09183808385EC90E09587BF
:100D1000848784EC90E09787868780EC90E0918BC5
:100D2000808B81EC90E0938B828B82EC90E0958BB2
:100D3000848B86EC90E0978B868B118E128E138EAF
:100D4000148E0895A1E21A2EAA1BBB1BFD010DC033
:100D5000AA1FBB1FEE1FFF1FA217B307E407F5076B
:100D600020F0A21BB30BE40BF50B661F771F881F47
:100D7000991F1A9469F760957095809590959B01DD
:100D8000AC01BD01CF010895EE0FFF1F881F8BBF7F
:100D90000790F691E02D1994DC0101C06D9341504C
:0A0DA0005040E0F70895F894FFCFEB
:100DAA00000000007902E3011002C60241021F029C
:100DBA0033020D0A00526573657420563600577265
:100DCA006974652070616765203332005265616419
:100DDA002077686F6C652070726F6772616D6D2025
:100DEA006D656D6F727900506167653A2000300059
:0C0DFA004C6F6F702D54696D653A20003D
:00000001FF
