:100000000C9429010C945A010C945A010C945A0135
:100010000C945A010C945A010C945A010C945A01F4
:100020000C945A010C945A010C945A010C945A01E4
:100030000C945A010C94C1050C945A010C945A0169
:100040000C945A010C945A010C945A010C945A01C4
:100050000C945A010C945A010C945A010C94810688
:100060000C945A010C944B060C9421060C945A01E2
:100070000C945A010C945A010C945A010C945A0194
:100080000C945A010C945A010C945A010C945A0184
:100090000C945A010C945A010C945A010C945A0174
:1000A0000C945A010C945A010C945A010C945A0164
:1000B0000C945A010C945A010C945A010C945A0154
:1000C0000C945A010C945A010C945A010C945A0144
:1000D0000C945A010C945A010C945A010C945A0134
:1000E0000C945A010C94F8040C94F4040C94E60457
:1000F0000C94D2040C94EA040C9402050C94DE03D4
:100100000C942B040C94C7040C9448030C94E20444
:100110000C94C3040C9484030C94CF040C94D80462
:100120000C94CB040C94F0040C94B1040C9498033C
:100130000C94AC040C94C9070C94DC040C94FE04DD
:100140000C94A6030C94750300000A0B02090C0D15
:100150000E0807030401000000000000000000007A
:10016000000000000000000000000000000000008F
:10017000000000001211100000000000000000004C
:10018000000000000000000000000000000002006D
:10019000002200250028002B002E00310034000230
:1001A000010000050108010B0100002100240027C7
:1001B000002A002D00300033000101000004010777
:1001C000010A0105050505070508080808020202DD
:1001D000020A0A08080404040401010101010101E2
:1001E000010303030303030303040707070C0C0CB9
:1001F0000C0C0C0C0C020202020606060606060691
:10020000060B0B0B0B0B0B0B0B010210202008082D
:100210001020401020408002010201080402010168
:100220000204081020408080402010080402018051
:1002300004020180402010080402010804020101A8
:1002400002040810204080010204081020408000B1
:10025000C90711241FBECFEFD1E2DEBFCDBF00E042
:100260000CBF12E0A0E0B2E0E2E8F0E100E00BBF7A
:1002700002C007900D92A232B107D9F722E0A2E2A4
:10028000B2E001C01D92A83EB207E1F711E0C9E259
:10029000D1E000E006C021970109802FFE010E94F5
:1002A0001508C832D10780E00807A9F70E94CB06DD
:1002B0000C943F080C94000090E0FC01E75FFD4FB8
:1002C00024918D539E4FFC018491882399F090E0F6
:1002D000880F991FFC01E755FE4FA591B491FC01D1
:1002E000E157FE4F859194918FB7F894EC91E22BF2
:1002F000EC938FBF08950F931F93CF938C01809140
:1003000000028F3131F08F3F99F1CF911F910F9102
:100310000895EEE8F1E0C491C7FDF7CF8FE10E94A8
:100320005C01C1113EC0980150E040E068E478EE05
:1003300081E090E00E94F607BA01A90141505109FD
:100340006109710985B5887F836085BD47BD8FEFE1
:100350009FEFDC018093470290934802A0934902EB
:10036000B0934A0280916E00826080936E00CDCF80
:100370008FE180930002EEE8F1E0C4918C2FCF3F33
:1003800009F4C3CFC23009F492C0B0F5CC2309F40C
:1003900058C0C13009F46DC087FDB7CF8FE10E940E
:1003A0005C01980150E040E0C23009F0DFC060E934
:1003B00070ED83E090E00E94F607BA01A901415078
:1003C0005109610971098091B100887F8360809330
:1003D000B1004093B3008FEF9FEFDC0180933F02A9
:1003E00090934002A0934102B0934202809170002A
:1003F00082608093700089CFC43009F499C008F4FA
:1004000078C0C53049F610922001109221018091E8
:100410002101886080932101809121018160809376
:100420002101E2EEF1E0E491F0E0EE0FFF1FE15771
:10043000FE4F85919491E8E2F2E0E491E0932B0283
:100440006DCF14BC15BC84B5826084BD85B5816058
:1004500085BDE2EEF1E0E491F0E0EE0FFF1FE15721
:10046000FE4F85919491E8E2F2E0E491E09332024C
:1004700055CF109280001092810080918100886099
:100480008093810080918100816080938100E2EE01
:10049000F1E0E491F0E0EE0FFF1FE157FE4F859190
:1004A0009491E8E2F2E0E491E093310237CF1092C8
:1004B000B0001092B1008091B00082608093B000D3
:1004C0008091B10081608093B100E2EEF1E0E491AF
:1004D000F0E0EE0FFF1FE157FE4F8591949190934E
:1004E000300280932F02E8E2F2E0E491E0932E02E2
:1004F00015CF109290001092910080919100886029
:100500008093910080919100816080939100E2EE50
:10051000F1E0E491F0E0EE0FFF1FE157FE4F85910F
:100520009491E8E2F2E0E491E0932D02C3E0F6CE8C
:100530001092A0001092A1008091A1008860809389
:10054000A1008091A10081608093A100E2EEF1E022
:10055000E491F0E0EE0FFF1FE157FE4F859194917B
:10056000E8E2F2E0E491E0932C02D8CE60E072E1A0
:100570008AE790E00E94F607DA01C9010197A10914
:10058000B109AC01C130D9F420918100287F2160EC
:100590002093810090938900809388008FEF9FEFD4
:1005A000DC018093430290934402A0934502B093F0
:1005B000460280916F00826080936F00A6CEC330A8
:1005C000D9F420919100287F21602093910090938D
:1005D0009900809398008FEF9FEFDC0180933B029E
:1005E00090933C02A0933D02B0933E028091710033
:1005F00082608093710089CEC430D9F42091A1002B
:10060000287F21602093A1009093A9008093A800E7
:100610008FEF9FEFDC018093370290933802A09315
:100620003902B0933A028091720082608093720026
:100630006CCEC530D9F420912101287F2160209310
:10064000210190932901809328018FEF9FEFDC0116
:100650008093330290933402A0933502B093360214
:10066000809173008260809373004FCEC23009F492
:10067000B0CE3CF4CC2309F469CEC13009F045CEAC
:1006800089CFC43009F20CF4A2CFC530D1F23DCEEF
:10069000AF92BF92CF92DF92EF92FF920F931F9390
:1006A000CF93DF936C017B018B01040F151FEB01CE
:1006B0005E01AE18BF08C017D10759F06991D60185
:1006C000ED91FC910190F081E02DC6011995892BE7
:1006D00079F7C501DF91CF911F910F91FF90EF90B6
:1006E000DF90CF90BF90AF900895FC01538D448D63
:1006F000252F30E0842F90E0821B930B541710F0CD
:10070000CF96089501970895FC01918D828D9817D9
:1007100061F0A28DAE0FBF2FB11D5D968C91928DB1
:100720009F5F9F73928F90E008958FEF9FEF0895E2
:10073000FC01918D828D981731F0828DE80FF11DAB
:10074000858D90E008958FEF9FEF0895FC01918DC6
:10075000228D892F90E0805C9F4F821B91098F73BF
:10076000992708958BE492E00E94A60321E0892B4B
:1007700009F420E0822F0895FC01A48DA80FB92F61
:10078000B11DA35ABF4F2C91848D90E001968F73B9
:100790009927848FA689B7892C93A089B1898C91D8
:1007A000837080648C93938D848D981306C0028827
:1007B000F389E02D80818F7D80830895EF92FF92F1
:1007C0000F931F93CF93DF93EC0181E0888F9B8D74
:1007D0008C8D98131AC0E889F989808185FF15C02E
:1007E0009FB7F894EE89FF896083E889F989808151
:1007F0008370806480839FBF81E090E0DF91CF9120
:100800001F910F91FF90EF900895F62E0B8D10E041
:100810000F5F1F4F0F731127E02E8C8D8E110CC0B0
:100820000FB607FCFACFE889F989808185FFF5CFFB
:10083000CE010E94BC03F1CFEB8DEC0FFD2FF11D1B
:10084000E35AFF4FF0829FB7F8940B8FEA89FB8938
:1008500080818062CFCFCF93DF93EC01888D882396
:10086000B9F0AA89BB89E889F9898C9185FD03C013
:10087000808186FD0DC00FB607FCF7CF8C9185FFF8
:10088000F2CF808185FFEDCFCE010E94BC03E9CF7E
:10089000DF91CF91089580E090E0892B29F00E94AC
:1008A000B20381110E94000080E090E0892B49F0A2
:1008B00080E090E0892B29F00E94000081110E94C5
:1008C000000080E090E0892B49F080E090E0892BE7
:1008D00029F00E94000081110E94000080E090E059
:1008E000892B49F080E090E0892B29F00E940000DC
:1008F00081110C9400000895282F30E0F901E85B85
:10090000FE4F9491F901E75FFD4F44912D533E4F07
:10091000F9012491222309F435C0992311F1915052
:100920009231F8F4E92FF0E08827E656FB4F8F4F1D
:100930000C941508CB04CF04AC04C304C704B10461
:10094000D204D804DC04E204E604EA04F004F4046B
:10095000B104F804FE040205809180008F77809333
:100960008000E22FF0E0EE0FFF1FE157FE4FA59150
:10097000B4918FB7F894EC91611148C040954E2323
:100980004C938FBF0895809180008F7DE8CF809138
:100990008000877FE4CF84B58F7784BDE2CF84B5B4
:1009A0008F7DFBCF8091B0008F778093B000D9CF3F
:1009B0008091B0008F7DF9CF809190008F778093E8
:1009C0009000CFCF809190008F7DF9CF80919000E3
:1009D000877FF5CF8091A0008F778093A000C1CF53
:1009E0008091A0008F7DF9CF8091A000877FF5CF07
:1009F000809120018F7780932001B3CF80912001D7
:100A00008F7DF9CF80912001877FF5CF4E2BB8CF16
:100A10009091000289130DC0EEE8F1E0E4919FEFA0
:100A200090930002E230E1F038F4EE2381F0E130FF
:100A300089F060E00C947C04E43049F110F1E53079
:100A4000C1F7909173009D7F90937300F2CF109245
:100A50006E00EFCF90916F009D7F90936F00E9CF74
:100A6000909170009D7F9093700091E09093B00002
:100A70009091B100987F94609093B1001092B30070
:100A8000D8CF909171009D7F90937100D2CF9091BB
:100A900072009D7F90937200CCCF3FB7F894809105
:100AA000270290912802A0912902B0912A0226B52E
:100AB000A89B05C02F3F19F00196A11DB11D3FBF96
:100AC000BA2FA92F982F8827BC01CD01620F711D65
:100AD000811D911D42E0660F771F881F991F4A955F
:100AE000D1F708958F929F92AF92BF92CF92DF92EB
:100AF000EF92FF924B015C010E944D056B017C015E
:100B00000E944D056C197D098E099F09683E73404E
:100B100081059105A8F321E0821A9108A108B10886
:100B200088EEC80E83E0D81EE11CF11C81149104EC
:100B3000A104B10429F7FF90EF90DF90CF90BF9010
:100B4000AF909F908F900895CF93DF93FC01019019
:100B50000020E9F73197AF01481B590BBC018BE42A
:100B600092E00E944803EC0142E050E063E172E051
:100B70008BE492E00E9448038C0F9D1FDF91CF9180
:100B800008951F920F920FB60F9211240BB60F9279
:100B90002F933F934F935F936F937F938F939F9385
:100BA000AF93BF93EF93FF9380913F0290914002E8
:100BB000A0914102B0914202892B8A2B8B2BE1F14B
:100BC00090912E02E0912F02F091300280818927CE
:100BD000808380913F0290914002A0914102B091A8
:100BE0004202181619061A061B069CF480913F0251
:100BF00090914002A0914102B09142020197A10957
:100C0000B10980933F0290934002A0934102B093B8
:100C10004202FF91EF91BF91AF919F918F917F9190
:100C20006F915F914F913F912F910F900BBE0F905D
:100C30000FBE0F901F901895809100020E9408052A
:100C4000E8CF1F920F920FB60F9211240BB60F929E
:100C50002F933F934F935F936F937F938F939F93C4
:100C6000AF93BF93EF93FF938BE492E00E94BC039A
:100C7000FF91EF91BF91AF919F918F917F916F9174
:100C80005F914F913F912F910F900BBE0F900FBE30
:100C90000F901F9018951F920F920FB60F9211246C
:100CA0000BB60F922F938F939F93EF93FF93E09147
:100CB0005B02F0915C028081E0916102F09162023E
:100CC00082FD1DC09081809164028F5F8F7320919F
:100CD0006502821741F0E0916402F0E0E55BFD4FB0
:100CE000958F80936402FF91EF919F918F912F9147
:100CF0000F900BBE0F900FBE0F901F901895808124
:100D0000F2CF1F920F920FB60F9211242F933F93A1
:100D10008F939F93AF93BF9380912302909124026E
:100D2000A0912502B09126023091220223E0230FE8
:100D30002D3758F50196A11DB11D209322028093F5
:100D4000230290932402A0932502B093260280915F
:100D5000270290912802A0912902B0912A020196BF
:100D6000A11DB11D8093270290932802A093290210
:100D7000B0932A02BF91AF919F918F913F912F9194
:100D80000F900FBE0F901F90189526E8230F029624
:100D9000A11DB11DD2CF789484B5826084BD84B585
:100DA000816084BD85B5826085BD85B5816085BD66
:100DB00080916E00816080936E001092810080911E
:100DC00081008260809381008091810081608093A6
:100DD0008100809180008160809380008091B100CB
:100DE00084608093B1008091B00081608093B000F6
:100DF0008091910082608093910080919100816048
:100E00008093910080919000816080939000809108
:100E1000A10082608093A1008091A10081608093F5
:100E2000A1008091A00081608093A00080912101A9
:100E30008260809321018091210181608093210152
:100E40008091200181608093200180917A008460EC
:100E500080937A0080917A00826080937A008091FA
:100E60007A00816080937A0080917A008068809314
:100E70007A001092C1008EE10E945C0180E20E9423
:100E80005C018FE10E945C01E0915B02F0915C02E9
:100E900082E08083E0915702F09158021082E09145
:100EA0005902F0915A0280E1808310926302E0912E
:100EB0005F02F091600286E08083E0915D02F09134
:100EC0005E02808180618083E0915D02F0915E022C
:100ED000808188608083E0915D02F0915E02808174
:100EE00080688083E0915D02F0915E0280818F7D59
:100EF000808386E192E00E94A40560E080E20E9487
:100F00007C04C3E0D0E061E08EE10E947C0461E0FB
:100F10008FE10E947C0464E170E080E090E00E9438
:100F2000720560E08FE10E947C0460E08EE10E9427
:100F30007C0462E370E080E090E00E9472052197FB
:100F400011F761E080E20E947C0488EE93E00E9449
:100F50007B0164EF71E080E090E00E94720588EB15
:100F60009BE00E947B0164EF71E080E090E00E94D2
:100F700072058FE10E94080560ED77E080E090E067
:100F80000E9472058CE192E00E94A4050E944B042D
:100F9000B4CFEBE4F2E01382128288EE93E0A0E09B
:100FA000B0E084839583A683B78385E092E0918344
:100FB000808385EC90E09587848784EC90E0978728
:100FC000868780EC90E0918B808B81EC90E0938B16
:100FD000828B82EC90E0958B848B86EC90E0978BF3
:100FE000868B118E128E138E148E0895052E97FB0C
:100FF0001EF400940E940D0857FD07D00E941D08A2
:1010000007FC03D04EF40C940D0850954095309594
:1010100021953F4F4F4F5F4F089590958095709564
:1010200061957F4F8F4F9F4F0895EE0FFF1F881FD1
:101030008BBF0790F691E02D1994A1E21A2EAA1BFE
:10104000BB1BFD010DC0AA1FBB1FEE1FFF1FA21778
:10105000B307E407F50720F0A21BB30BE40BF50B75
:10106000661F771F881F991F1A9469F760957095FE
:10107000809590959B01AC01BD01CF010895F89436
:02108000FFCFA0
:10108200FF00000000DE03480375032B04A603845F
:101092000398030D0A005374617274006E657874CC
:0210A20000004C
:00000001FF
