:1000000095C10000C4C10000C2C10000C0C1000011
:10001000BEC10000BCC10000BAC10000B8C10000F0
:10002000B6C10000B4C10000B2C10000B0C1000000
:10003000AEC10000ACC10000AAC10000A8C1000010
:10004000A6C10000A4C10000A2C10000A0C1000020
:100050000C94CF319CC100009AC100000C94A929D6
:1000600096C100000C94A9280C94802890C100002F
:100070008EC100008CC100008AC1000088C1000050
:1000800086C1000084C1000082C100000C94FA31D6
:100090000C9456280C942D287AC100000C9425321B
:1000A00076C1000074C1000072C1000070C1000080
:1000B0006EC100006CC100006AC1000068C1000090
:1000C00066C1000064C1000062C100000C940328F6
:1000D0000C94DA275CC100000C94B0270C9487279D
:1000E00056C100009C07A307BA07C607DC07EA074A
:1000F00000085108A408AB080E085F081108690839
:100100002408730837089708F8075F081808690873
:100110002B0873083E0897080E085F081108690845
:100120002408730837087D084A089708F8075F080D
:10013000180869082B0873083E087D088708970887
:100140006309610963096309CD08F40863091109AA
:1001500063092E0963096109630963096309630976
:100160006309630963096A09000A020A8A09020A23
:10017000000A9309020AB009020ACD09020A000A1C
:10018000020A020A020A020A020A020A020A020A0F
:10019000020A020A020A020A020A020A020A020AFF
:1001A000020A090AA524A82497249B24A124DF2459
:1001B000AC24B024B624BA24BE24C424C824CC243D
:1001C000DF24D224D624DA242E4596452145DE4567
:1001D00021452145214521452745AC46B2467C486D
:1001E0007F488248854888488B488E487C3C3E5EE4
:1001F0002B3D3F2F5B5D3B2C2A225C000000220040
:10020000250028002B002E003100340002010000E0
:10021000050108010B010000200023002600290031
:100220002C002F003200000100000301060109012B
:1002300000000A0B02090C0D0E0807030401000060
:1002400000000000000000000000000000000000AE
:10025000000000000000000000000000121110006B
:10026000000000000000000000000000000000008E
:1002700000000000000000002100240027002A00E8
:100280002D003000330001010000040107010A01C4
:100290000102102020080810204010204080020198
:1002A000020108040201010204081020408080407D
:1002B000201008040201800402018040201008047C
:1002C000020108040201010204081020408001021A
:1002D00004081020408005050505070508080808E2
:1002E000020202020A0A08080404040401010101CE
:1002F00001010101030303030303030304070707C9
:100300000C0C0C0C0C0C0C0C02020202060606066D
:10031000060606060B0B0B0B0B0B0B0B1F1C1F1EF5
:100320001F1E1F1F1E1F1E1FE052B25211241FBE90
:10033000CFEFD1E2DEBFCDBF00E00CBF1BE0A0E0FD
:10034000B2E0E4E5F8EB00E00BBF02C007900D92CD
:10035000AC3DB107D9F726E1ACEDBBE001C01D9281
:10036000A335B207E1F711E0C5E9D1E000E006C02E
:1003700021970109802FFE010E94A159C439D1079C
:1003800080E00807A9F70E949D4D0C94195C38CEB7
:10039000CF92DF92EF92FF920F931F93CF93DF9351
:1003A000CDB7DEB762970FB6F894DEBF0FBECDBFF4
:1003B0008091F30B882321F081508093F30B86C248
:1003C00081E08093F30B1092EB0B9091EE158091EE
:1003D000EF15981729F083EB91E10E94032CF5CFDC
:1003E00080E50E94894061E083EB91E10E944B2C03
:1003F00061E083EB91E10E944B2C81E00E942D4053
:100400006EE170E080E090E00E94652941E06AE0E2
:1004100080E50E94EB3F1092EF158093EE1583EB81
:1004200091E10E94032C873099F583EB91E10E94C2
:10043000032C83EB91E10E94032C83EB91E10E945A
:10044000032C8093EC0B83EB91E10E94032C8093AF
:10045000ED0B83EB91E10E94032C8093EE0B83EB79
:1004600091E10E94032C8093EF0B1092F00B1092FD
:10047000F10B1092F20B9091EE158091EF159817F9
:1004800029F083EB91E10E94032CF5CF84E041C079
:100490008A3009F04DC083EB91E10E94032C83EB7D
:1004A00091E10E94032C83EB91E10E94032C809345
:1004B000EC0B83EB91E10E94032C8093ED0B83EB1B
:1004C00091E10E94032C8093EE0B83EB91E10E945B
:1004D000032C8093EF0B83EB91E10E94032C80931C
:1004E000F00B83EB91E10E94032C8093F10B83EBE3
:1004F00091E10E94032C8093F20B9091EE15809174
:10050000EF15981729F083EB91E10E94032CF5CFAA
:1005100087E08093EB0B8091E90B9091EA0B892B9C
:1005200079F182E090E09093EA0B8093E90B28C088
:100530001092EC0B1092ED0B1092EE0B1092EF0B51
:100540001092F00B1092F10B1092F20B9091EE15AD
:100550008091EF15981729F083EB91E10E94032C0D
:10056000F5CF1092EB0B8091E90B9091EA0B00977D
:1005700009F4A3C101979093EA0B8093E90B9DC105
:1005800080910502882309F4A1C11092050282E03E
:100590008093020214E010930D0210930E0200915A
:1005A000E80B6CEE7BE0011124C18091E70B811117
:1005B00020C18091EB0B0E94E938882309F443C0E5
:1005C00085E080930D0280930E02109314024CEE8E
:1005D0005BE06091EB0B82E40E94A6364CEE5BE0A0
:1005E0006091EB0BCE0107960E94654765EE72E0C5
:1005F000CE0101960E945027BE01695F7F4FCE0158
:1006000001960E944B266FE073E00E943426BC01E5
:10061000CE010D960E944827CE010D960E942E43D2
:10062000CE010D960E94D426CE0101960E94D426BA
:10063000CE0107960E94D42682E090E09093EA0BC8
:100640008093E90B43C16CEE7BE08091EB0B0E9441
:10065000F836813009F445C008F491C0823009F4BD
:1006600054C0833009F032C14CEE5BE06091EB0B7B
:10067000CE0107960E94654760E673E0CE010196C1
:100680000E945027BE01695F7F4FCE0101960E94F4
:100690004B266FE073E00E943426BC01CE010D961C
:1006A0000E944827CE010D960E942E43CE010D9642
:1006B0000E94D426CE0101960E94D426CE01079630
:1006C0000E94D42661E080E20E94FB280E943E52F4
:1006D00089E0809302028CE080930D0280930E02E9
:1006E000F5C01093020297E090930D0290930E02D2
:1006F0008093E80B4CEE5BE06091EB0BCE0107962C
:100700000E94654761E173E015C086E080930202B4
:1007100089E080930D0280930E0281E08093E70BC5
:100720004CEE5BE06091EB0BCE0107960E946547B3
:1007300069E373E0CE0101960E945027BE01695F14
:100740007F4FCE0101960E944B266FE073E00E941E
:100750003426BC01CE010D960E944827CE010D968D
:100760000E942E43CE010D960E94D426CE01019602
:100770000E94D426CE0107960E94D426A7C083E00B
:100780008093020286E080930D0280930E024CEE6D
:100790005BE06091EB0BCE0107960E94654764E930
:1007A00073E0CE0101960E945027BE01695F7F4F22
:1007B000CE0101960E944B266FE073E00E94342622
:1007C000BC01CE010D960E944827CE010D960E94D5
:1007D0002E43CE010D960E94D426CE0101960E9492
:1007E000D426CE0107960E94D42681E08093010290
:1007F0006DC08091EB0B0E94F8368130C1F400236C
:1008000009F464C085E08093020288E080930D02C1
:1008100080930E021092E80B4CEE5BE06091EB0BC4
:10082000CE0107960E94654763EB73E083CF823069
:10083000D1F48091E70B882309F448C087E08093C6
:1008400002028AE080930D0280930E021092E70B61
:100850004CEE5BE06091EB0BCE0107960E94654782
:1008600065EE73E067CF833089F1002389F06CEE89
:100870007BE08091EB0B0E943F3A4CEE5BE0609195
:10088000EB0BCE0107960E94654766E174E052CFFC
:100890008091E70B8823D1F06CEE7BE08091EB0B2D
:1008A0000E94EF394CEE5BE06091EB0BCE010796B6
:1008B0000E9465476AE374E03DCF8091E90B909117
:1008C000EA0B892B19F481E0809305021091040250
:1008D000112321F0115010930402C7C081E08093CE
:1008E00004028FED92E10E94A223892B29F08FED63
:1008F00092E10E948023F5CF8CE1E82E82E0F82E71
:100900009FE1C92E92E0D92E00E0F70161917F01AD
:1009100006278FED92E10E94F423CE14DF04A9F79D
:10092000602F8FED92E10E94F4238FED92E10E94FF
:1009300040241092E00B1092E10B1092E20B109207
:10094000E30B1092E40B1092E50B1092E60B8FED87
:1009500092E10E94A223892BD1F38FED92E10E94B4
:1009600080238D3B910509F06BC08FED92E10E94D1
:10097000A223892BD1F38FED92E10E948023082FCF
:100980007C01FF248FED92E10E94A2238E159F052A
:10099000C9F78FED92E10E9480238FED92E10E94D2
:1009A0008023083001F58FED92E10E94802380932F
:1009B000E00B8FED92E10E9480238093E10B8FED9D
:1009C00092E10E9480238093E20B8FED92E10E94DE
:1009D00080238093E30B1092E40B1092E50B1092AE
:1009E000E60B14E02DC00B3059F58FED92E10E941B
:1009F00080238093E00B8FED92E10E94802380930F
:100A0000E10B8FED92E10E9480238093E20B8FED4A
:100A100092E10E9480238093E30B8FED92E10E948C
:100A200080238093E40B8FED92E10E9480238093DA
:100A3000E50B8FED92E10E9480238093E60B17E097
:100A40001093DF0B8091DD0B9091DE0B112309F4E5
:100A500009C2892B31F082E090E09093DE0B809305
:100A6000DD0B80910302811164C0109112021330DA
:100A700071F0153059F0123051F0113041F0812FE2
:100A80008D7F11E0843019F010E001C014E08091F6
:100A9000DC0B811709F4F8C11093DC0B612F84EB98
:100AA0009FE00E941659612FCE0107960E94674869
:100AB00067EC75E0CE0101960E945027BE01695F88
:100AC0007F4FCE0101960E944B26BC01CE010D96B0
:100AD0000E944827CE010D960E942E43CE010D960E
:100AE0000E94D426CE0101960E94D426CE010796FC
:100AF0000E94D42680911202833009F0C5C18091F2
:100B00000302882309F4C0C140E050E060E081E4C2
:100B10000E94A63668ED75E0CE0101960E9450272E
:100B2000CE0101960E942E43CE0101960E94D4264A
:100B3000ABC11092030282E08093020204E00093B2
:100B40000D0200930E02F090E80B60EE7BE0F110D6
:100B500024C18091E70B811120C1812F0E9451385F
:100B6000882309F444C085E080930D0280930E022F
:100B700081E08093140240EE5BE06091DF0B81E442
:100B80000E94A63640EE5BE06091DF0BCE01079637
:100B90000E9465476DE574E0CE0101960E945027E2
:100BA000BE01695F7F4FCE0101960E944B266FE028
:100BB00073E00E943426BC01CE010D960E944827A6
:100BC000CE010D960E942E43CE010D960E94D42692
:100BD000CE0101960E94D426CE0107960E94D4260B
:100BE00082E090E09093DE0B8093DD0B3ECF60EED1
:100BF0007BE08091DF0B0E94F836813009F445C01C
:100C000008F491C0823009F454C0833009F02DCF2C
:100C100040EE5BE06091DF0BCE0107960E946547D6
:100C200060ED74E0CE0101960E945027BE01695F1D
:100C30007F4FCE0101960E944B266FE073E00E9429
:100C40003426BC01CE010D960E944827CE010D9698
:100C50000E942E43CE010D960E94D426CE0101960D
:100C60000E94D426CE0107960E94D42661E080E23D
:100C70000E94FB280E943E5289E0809302028CE091
:100C800080930D0280930E02F0CE0093020297E053
:100C900090930D0290930E028093E80B40EE5BE080
:100CA0006091DF0BCE0107960E94654763E874E010
:100CB00015C086E08093020289E080930D02809344
:100CC0000E0281E08093E70B40EE5BE06091DF0B6A
:100CD000CE0107960E9465476AEA74E0CE0101964C
:100CE0000E945027BE01695F7F4FCE0101960E948E
:100CF0004B266FE073E00E943426BC01CE010D96B6
:100D00000E944827CE010D960E942E43CE010D96DB
:100D10000E94D426CE0101960E94D426CE010796C9
:100D20000E94D426A2CE83E08093020286E08093C4
:100D30000D0280930E0240EE5BE06091DF0BCE016E
:100D400007960E94654763E075E0CE0101960E9418
:100D50005027BE01695F7F4FCE0101960E944B264E
:100D60006FE073E00E943426BC01CE010D960E9414
:100D70004827CE010D960E942E43CE010D960E946B
:100D8000D426CE0101960E94D426CE0107960E9459
:100D9000D42681E08093000268CE812F0E94F8362D
:100DA0008130C1F4FF2009F460CE85E08093020217
:100DB00088E080930D0280930E021092E80B40EEC3
:100DC0005BE06091DF0BCE0107960E94654761E210
:100DD00075E084CF8230D1F48091E70B882309F449
:100DE00044CE87E0809302028AE080930D028093D4
:100DF0000E021092E70B40EE5BE06091DF0BCE013C
:100E000007960E94654762E575E068CF833009F474
:100E10002CCEFF2089F060EE7BE08091DF0B0E94FA
:100E20003F3A40EE5BE06091DF0BCE0107960E94F7
:100E3000654762E875E052CF8091E70B882309F49B
:100E400014CE60EE7BE08091DF0B0E94EF3940EE24
:100E50005BE06091DF0BCE0107960E94654765EA73
:100E600075E03CCF009729F001979093DE0B8093BB
:100E7000DD0B8091DD0B9091DE0B892B09F0F5CD18
:100E800081E080930302F1CD62960FB6F894DEBF45
:100E90000FBECDBFDF91CF911F910F91FF90EF90CB
:100EA000DF90CF9008958F929F92AF92BF92CF9292
:100EB000DF92EF92FF920F931F93CF93DF93CDB703
:100EC000DEB7C056D1090FB6F894DEBF0FBECDBF56
:100ED000E0910202E23019F481E08093FD0B8091F1
:100EE000FD0B8130D9F038F0823009F446C18330EF
:100EF00009F400C29EC2EB3011F081E00CC0809179
:100F00000E02853111F082E006C080910D028F3112
:100F100009F49BC283E08093FD0B97C28E2F90E073
:100F2000FC013297EA30F10508F00EC18827EE582F
:100F3000FF4F8F4F0C94A1598091FC0B811107C07A
:100F400088EE93E057C08091FC0B882319F0813024
:100F500061F0FAC08DE491E00E940E4782E0809338
:100F6000FB0B81E08093FC0BF6C08091FB0B8111A1
:100F7000E7C0EAC08091FC0B823009F452C018F43B
:100F800081110CC04BC0843081F45EC08091FC0B99
:100F9000823009F44DC030F4882351F1813009F4D6
:100FA0008EC0D2C0843009F456C0843008F491C099
:100FB000853009F4BCC0C8C08091FC0B90E088303B
:100FC000910508F0C1C0FC018827E458FF4F8F4FFE
:100FD0000C94A1598091FC0B90E08830910508F0A9
:100FE000B3C0FC018827EC57FF4F8F4F0C94A159D9
:100FF0008CED95E00E940E4781E08093FB0BB2CF11
:101000008091FC0B90E08A30910508F09DC0FC01B6
:101010008827E457FF4F8F4F0C94A15980ED97E03C
:10102000E9CF8091FA0B811176C084EC99E006C07B
:101030008091FA0B81116FC080ED97E00E940E47FE
:101040001092FB0B83E08ECF8091FA0B811163C06D
:1010500084EC99E006C08091FA0B81115CC080EDB0
:1010600097E00E940E471092FB0B85E07BCF8091AA
:10107000FA0B811150C084EC99E006C08091FA0B04
:10108000811149C080ED97E00E940E471092FB0B42
:1010900087E068CF8091FA0B81113DC084EC99E024
:1010A00040C08091FC0B90E08A30910508F04CC064
:1010B000FC018827EA56FF4F8F4F0C94A15980916D
:1010C000FB0B81113DC00E9405471092FA0B82E094
:1010D00049CF8091FB0B811133C00E9405471092CC
:1010E000FA0B84E03FCF8091FB0B811129C00E9455
:1010F00005471092FA0B86E035CF8091FB0B8111EA
:101100001FC00E9405471092FA0B88E02BCF8091F8
:10111000FA0B882321F081508093FA0B1CC080EDDC
:1011200097E00E940E471092FB0B89E01BCF809145
:10113000FB0B811105C00E9405471092FA0B06C0F7
:1011400081508093FB0B07C00E9405471092FC0B57
:101150008BE080930202809102028B3009F0D3CEA3
:1011600080910E02853109F0CECE80910D028F3133
:1011700009F0C9CE1092FD0B68C1E0910E028E2FCE
:1011800090E0FC013297E431F10508F09CC088271B
:10119000E056FF4F8F4F0C94A1598091F90B81308D
:1011A00051F018F08230A1F018C061E080E20E9496
:1011B000FB2885E067C08091F80B81116DC060E06D
:1011C00080E20E94FB2883E08093F70B82E05DC001
:1011D0008091F70B81114DC004C060E080E20E9455
:1011E000FB2861E08EE168C01091F90B112319F022
:1011F000113061F05FC08091F70B81113AC061E05E
:1012000080E20E94FB281092F80B3EC08091F80B00
:10121000811142C060E080E20E94FB281093F70B2E
:1012200046C08091F90B882319F0813069F042C0E3
:101230008091F70B81111DC061E080E20E94FB28C4
:1012400081E08093F80B21C08091F80B811124C0BC
:1012500060E080E20E94FB2882E027C08091F90BC9
:10126000882319F08130A1F025C08091F70B8823E5
:1012700021F081508093F70B2DC061E080E20E9445
:10128000FB2882E08093F80B81E08093F90B22C069
:101290008091F80B882321F081508093F80B1AC0BD
:1012A00060E080E20E94FB2883E08093F70B1092BD
:1012B000F90B10C060E080E20E94FB281092F90B4D
:1012C00006C061E001C060E080E20E94FB2885E189
:1012D00080930E02809102028B3009F01BCE809128
:1012E0000E02853109F016CE80910D028F3109F082
:1012F00011CE40CFE0910D028E2F90E0FC0132978D
:10130000EE31F10508F07EC08827EC54FF4F8F4F77
:101310000C94A1598EE10E94D32861E068278EE1E8
:101320000E94FB2876C01091F60B112319F01130A2
:1013300061F05FC08091F50B81113AC061E08EE1F0
:101340000E94FB281092F40B3EC08091F40B811197
:1013500042C060E08EE10E94FB281093F50B46C06E
:101360008091F60B882319F0813069F042C080919A
:10137000F50B81111DC061E08EE10E94FB2881E028
:101380008093F40B21C08091F40B811124C060E0A4
:101390008EE10E94FB2882E027C08091F60B882313
:1013A00019F08130A1F025C08091F50B882321F040
:1013B00081508093F50B2DC061E08EE10E94FB28E7
:1013C00082E08093F40B81E08093F60B22C0809141
:1013D000F40B882321F081508093F40B1AC060E055
:1013E0008EE10E94FB2883E08093F50B1092F60BB0
:1013F00010C060E08EE10E94FB281092F60B06C040
:1014000060E001C061E08EE10E94FB288FE18093E3
:101410000D02809102028B3009F06FCD80910E0297
:10142000853109F06ACD80910D028F3109F065CDCB
:10143000A1CE60E08FE10E94FB2860E080E20E9484
:10144000FB2861E08EE10E94FB2843D7FF24F39440
:101450008BEC90E10E94A223181619066CF50091FE
:10146000E70C1091E80C8BEC90E10E948023F801CE
:10147000E95DF34F80838091270C833249F7809197
:10148000E70C9091E80CFC01E95DF34F20812D30D1
:1014900011F4F092260C01969093E80C8093E70CDF
:1014A00080349105ACF28091260C8111D1CF10923D
:1014B000E80C1092E70CCCCF8091260C882309F41D
:1014C000A6C667E27CE0CE0101960E945027BE01CD
:1014D0006F5F7F4F89EA94E10E949A26CE010196C0
:1014E0000E94D42624E030E041E050E069EA74E153
:1014F000CE0101960E941B36BE016F5F7F4F8FEABF
:1015000094E10E949A26CE0101960E94D426209151
:10151000E70C3091E80C2150310945E050E069EAD0
:1015200074E1CE0101960E941B36BE016F5F7F4FB2
:1015300085EB94E10E949A26CE0101960E94D42662
:1015400068EF75E0CE0101960E945027BE016F5FE3
:101550007F4FCE014C960E9448276FEA74E1CE017E
:101560004C960E944B2660E20E941726BC018BEB32
:1015700094E10E948526CE014C960E94D426CE018D
:1015800001960E94D42681E08093250C6AEF75E0D5
:101590008FEA94E10E94CB25882339F063EA74E155
:1015A0008BEB94E10E946A260EC661E078E08FEA38
:1015B00094E10E94CB25882329F0CE0101960E9458
:1015C000923DB5C26EEF75E08FEA94E10E94CB25A3
:1015D000882349F165EB74E1CE0101960E9448270A
:1015E000BE016F5F7F4FCE014C960E945335BE0106
:1015F000645E7F4F8BEB94E10E946A26CE014C968D
:101600000E94D426CE0101960E94D426CE010196D6
:101610000E94923DCE0101960E944148CE01019662
:101620000E94D426D0C562E076E08FEA94E10E9461
:10163000CB25882319F01092250CC5C566E076E00D
:101640008FEA94E10E94CB25882359F09CE088E141
:101650000FB6F894A895809360000FBE9093600039
:10166000B2C56AE076E08FEA94E10E94CB25882338
:1016700009F4B8C0CE018B5A9F4F0E9495418091CA
:101680001102882329F0CE0101960E946D2A04C020
:10169000CE0101960E94F32986E0FE013196DE011B
:1016A000AB5ABF4F01900D928A95E1F74AE06B96D5
:1016B0006FAD6B97CE0101960E9404274AE06A96AF
:1016C0006FAD6A97CE014C960E9404274AE0699656
:1016D0006FAD6997CE01C7960E94042766966FADDD
:1016E000669770E06053784FCE01CD960E94BF3F61
:1016F0004AE067966FAD6797CE018D5B9F4F0E9462
:1017000004274AE068966FAD6897CE01815B9F4FD2
:101710000E940427BE01615B7F4FCE01875B9F4F14
:101720000E9448276EE076E0CE01875B9F4F0E94C3
:101730003426BE016D5B7F4F0E944B266EE076E043
:101740000E943426BE01635C7F4F0E944B2660E1FD
:1017500076E00E943426BE01695C7F4F0E944B26D2
:1017600062E176E00E943426BE01645E7F4F0E94F3
:101770004B2662E176E00E943426BE016F5F7F4F08
:101780000E944B26BC01CE01855A9F4F0E944827DC
:10179000CE01875B9F4F0E94D426CE01815B9F4F75
:1017A0000E94D426CE018D5B9F4F0E94D426CE018D
:1017B000CD960E94D426CE01C7960E94D426CE0193
:1017C0004C960E94D426CE0101960E94D426BE01DA
:1017D000655A7F4F8BEB94E10E946A26CE01855AB1
:1017E0009F4F1ECF64E176E08FEA94E10E94CB2503
:1017F000882371F065EB74E1CE0101960E944827C1
:10180000BE016F5F7F4FCE014C960E94144BFAC20F
:1018100068E176E08FEA94E10E94CB25882309F401
:101820006AC060E27AE0CE014C960E94502784EBB9
:101830009FE00E940E59682FCE0101960E946748D2
:10184000BE016F5F7F4FCE014C960E949A26CE015B
:1018500001960E94D426E12CF12C65EC7AE0CE01B1
:101860004C960E945C26C7018254904F0E940E59EC
:10187000843011F0873081F5C12CD12C082F10E075
:10188000470121E4821A20EF920AC016D10654F5CE
:10189000C4018C0D9D1D0E940E59B82E8FE08B1532
:1018A00030F062E27BE0CE014C960E945C2640E183
:1018B0006B2DCE0101960E940427BE016F5F7F4F02
:1018C000CE014C960E946A26CE0101960E94D42633
:1018D000EFEFCE1ADE0AD9CF6CE176E0CE014C965E
:1018E0000E945C26FAE0EF0EF11C24E1E216F104FE
:1018F00009F0B3CF58C466E276E08FEA94E10E9423
:10190000CB25882311F081E409C06AE276E08FEAF2
:1019100094E10E94CB25882331F082E40E942B3889
:101920004AE0BC01F9C06EE276E08FEA94E10E94E1
:10193000CB25882339F085EB94E10E941036AB016A
:1019400061E446C062E376E08FEA94E10E94CB2531
:10195000882359F065EB74E1CE0101960E94482777
:10196000AE014F5F5F4F61E460C066E376E08FEAEF
:1019700094E10E94CB25882339F085EB94E10E9405
:101980001036AB0161E464C06AE376E08FEA94E16B
:101990000E94CB25882371F06EE376E0CE0101969C
:1019A0000E9450271D8E1C8EBE01645E7F4F8AE010
:1019B00090E068C065E476E08FEA94E10E94CB2570
:1019C000882309F185EB94E10E941036AB0162E4B3
:1019D000CE014C960E94A63C65EB74E1CE010196C7
:1019E0000E944827BE01645E7F4FCE0101960E948F
:1019F0004B26BC018BEB94E10E946A26CE01019636
:101A00000E94D426D7C369E476E08FEA94E10E946D
:101A1000CB25882379F065EB74E1CE0101960E9415
:101A20004827AE014F5F5F4F62E4CE014C960E94A3
:101A30008E3AE8C16DE476E08FEA94E10E94CB250E
:101A4000882359F085EB94E10E941036AB0162E4E3
:101A5000CE0101960E94763B6AC061E576E08FEA8E
:101A600094E10E94CB258823B1F06EE376E0CE01AD
:101A700001960E9450271D8E1C8EBE01645E7F4F12
:101A800088E090E00E94963962E27BE0CE01019608
:101A90000E9470264CC065E576E08FEA94E10E94D2
:101AA000CB25882309F44BC08091D10C811102C051
:101AB0000E943F568091D10C882399F141E069E55D
:101AC00076E0CE014C960E949340CE014C960E9447
:101AD000014B00E010E0BE01645E7F4FCE01019635
:101AE0000E94FE4CCE0101960E94823F882371F035
:101AF000EA8DFB8D309709F4C4C38581823008F4E8
:101B0000C0C3CE0101960E94703FE5CFCE014C9636
:101B10000E94703F4AE0B801CE0101960E94D9268A
:101B200006C06BE576E0CE0101960E945027BE010B
:101B30006F5F7F4F8BEB94E10E946A266FCD69E760
:101B400076E08FEA94E10E94CB25882309F4E7C070
:101B500085EB94E10E9410366B017C018B01809132
:101B60001B0C811107C080E09CE00E94733181E072
:101B700080931B0C4AE0B601CE014C960E94D926F8
:101B8000BE01645E7F4FCE0101960E94482765EC3E
:101B90007AE0CE0101960E943426BC01CE01CD969A
:101BA0000E944827CE0101960E94D426CE014C9671
:101BB0000E94D42660E27AE0CE01C7960E945027A8
:101BC0008091D10C811111C00E943F5680E09CE0B1
:101BD0000E94823F882321F080E09CE00E94703FB9
:101BE0008091D10C882309F470C080E09CE00E94B1
:101BF000823F2091FE0B3091FF0B882319F02017B4
:101C00003107ECF01216130624F480E09CE00E94E9
:101C1000703F41E069E576E0CE0101960E94934075
:101C2000BE016F5F7F4F80E09CE00E94143E80E029
:101C30009CE00E94014B1092FF0B1092FE0B8091D2
:101C4000FE0B9091FF0B8017910784F560E07CE01C
:101C5000CE0101960E94FE4CCE0101960E94823F69
:101C6000811116C0BE01635C7F4FCE014C960E946D
:101C700048276DE776E0CE014C960E943426BC01E1
:101C8000CE018D5B9F4F0E944827CE014C9632C0FB
:101C9000EA8DFB8D309709F4F7C28581823008F414
:101CA000F3C2CE0101960E94703FC9CFBE01635CB2
:101CB0007F4FCE0101960E944827BE01695C7F4F8D
:101CC000CE0101960E944B260DC0BE01635C7F4F82
:101CD000CE0101960E9448276BE576E0CE01019681
:101CE0000E943426BC01CE018D5B9F4F0E94482785
:101CF000CE0101960E94D426CE01C7960E94D4261A
:101D0000CE01CD960E94D426BE016D5B7F4F8BEB3A
:101D100094E10E946A26CE018D5B9F4F81CC6BE9D6
:101D200076E08FEA94E10E94CB25882309F455C020
:101D30000091B9141091BA1465EC7AE0CE01C796FF
:101D40000E945027BE01695C7F4F85EB94E10E94A1
:101D5000C8259801AC0165EB74E1CE01CD960E94D7
:101D60001B36CE01CD960E9410366B017C0165ECCE
:101D70007AE0CE0101960E945027BE016F5F7F4F2F
:101D800085EB94E10E94C8259C0140E050E065EBA2
:101D900074E1CE014C960E941B36A601BE01645E22
:101DA0007F4FCE018D5B9F4F0E944656BE016D5BFB
:101DB0007F4F8BEB94E10E946A26CE018D5B9F4F93
:101DC0000E94D426CE014C960E94D426CE010196C4
:101DD0000E94D426CE01CD9684C06FE976E08FEACA
:101DE00094E10E94CB258823C9F065EB74E1CE0114
:101DF00001960E944827BE016F5F7F4FCE014C962F
:101E00000E94AB4CBE01645E7F4F8BEB94E10E945D
:101E10006A26CE014C960E94D42600CC63EA76E076
:101E20008FEA94E10E94CB25882311F08AE009C053
:101E300067EA76E08FEA94E10E94CB25882321F0BF
:101E40008BE080931402BFC16BEA76E08FEA94E1E5
:101E50000E94CB25882309F449C02091B914309100
:101E6000BA1444E050E065EB74E1CE01C7960E94DD
:101E70001B36CE01C7960E9410366B017C0123E011
:101E800030E040E050E065EB74E1CE014C960E94FA
:101E90001B36A601BE01645E7F4FCE01CD960E9427
:101EA0002F3C65EB74E1CE0101960E94482765EC5A
:101EB0007AE0CE0101960E943426BE01635C7F4F1A
:101EC0000E944B26BC018BEB94E10E946A26CE0156
:101ED00001960E94D426CE01CD960E94D426CE0132
:101EE0004C960E94D426CE01C7969ACB6FEA76E034
:101EF0008FEA94E10E94CB25882309F4DDC065ECCC
:101F00007AE0CE0101960E9450274091B914509179
:101F1000BA148D819E81481B590BBE016F5F7F4FA4
:101F200085EB94E10E945D259C0144E050E065EB67
:101F300074E1CE014C960E941B36CE014C960E9455
:101F400010364B015C018B01CE014C960E94D426C9
:101F5000CE0101960E94D42665EC7AE0CE0101966E
:101F60000E945027E090B914F090BA148D819E81A0
:101F7000A701481B590BBE016F5F7F4F85EB94E1B2
:101F80000E945D25AC014F5F5F4F970165EB74E1E7
:101F9000CE014C960E941B36CE014C960E94103604
:101FA0006B017C01CE014C960E94D426CE01019695
:101FB0000E94D42623E030E040E050E065EB74E17D
:101FC000CE0101960E941B36BE016F5F7F4FCE018E
:101FD0004C960E9448279601A401BE01645E7F4F83
:101FE000CE01C7960E942855BE01695C7F4F8BEBDE
:101FF00094E10E946A26CE01C7960E94D426CE01A3
:102000004C960E94D42663EB76E0CE0101960E94A6
:10201000CB25882369F10130110521F0023011052B
:10202000A1F0FCCAC601E1E0CE1AD108F8EECF1645
:10203000F3E0DF0608F0F2CA6FE070E00E947A5920
:102040007093DF0C6093DE0CE9CAC60121E0C21A6E
:10205000D108E8EECE16E3E0DE0608F0DFCA6FE056
:1020600070E00E947A597093DD0C6093DC0CD6CA44
:1020700067EB76E0CE0101960E94CB25882309F418
:10208000CDCA0530110549F00630110509F0C6CA60
:10209000D092E10CC092E00CC1CAC60101978E3FFC
:1020A000910508F0BBCAC60199276FE070E00E9455
:1020B0008E596093DB0CB2CA6BEB76E08FEA94E149
:1020C0000E94CB25882309F478C085EB94E10E9417
:1020D00010366B017C018B0160E27AE0CE014C96F8
:1020E0000E945027003111051CF46FEB76E00DC003
:1020F0000F3F110509F01CF460EC76E006C0C11436
:10210000F0E1DF0634F462E27BE0CE014C960E94FF
:10211000702640E1B601CE0101960E94D926BE018B
:102120006F5F7F4FCE014C960E946A26CE010196CA
:102130000E94D42621EFC2162FE0D20670F500E0EF
:1021400010E0C8018C0D9D1D0E940E59F82E65EC03
:102150007AE0CE014C960E945C268FE08F1530F01D
:1021600062E27BE0CE014C960E945C2640E16F2D3E
:10217000CE0101960E940427BE016F5F7F4FCE0102
:102180004C960E946A26CE0101960E94D4260F5FCB
:102190001F4F00311105A9F606C063EC76E0CE01B1
:1021A0004C960E945C26BE01645E7F4F8BEB94E1EF
:1021B0000E946A26CE014C9633CA66E377E08BEB29
:1021C00094E10E945C268091250C8823D1F06BEB72
:1021D00074E1CE0101960E9448276DE0CE01019680
:1021E0000E941726FC0144815581608171818BEC2E
:1021F00090E10E944723CE0101960E94D4261092BE
:10220000250C1092E80C1092E70C1092260C81E23B
:102210000E94D3282091230C3091240C019759F46B
:102220002B3031050CF041C02F5F3F4F3093240C11
:102230002093230C3AC02250310929303105E0F4B3
:1022400085E080930D0280930E0284E08093140257
:1022500040E050E060E082E40E94A63661ED76E066
:10226000CE0101960E945027CE0101960E942E4376
:10227000CE0101960E94D4261092240C1092230CB9
:1022800014C00F5F1F4F3DCC8091FE0B9091FF0B50
:1022900001969093FF0B8093FE0BBE01635F7F4F0F
:1022A000CE01C7960E947026FCCCC05ADF4F0FB6F5
:1022B000F894DEBF0FBECDBFDF91CF911F910F917C
:1022C000FF90EF90DF90CF90BF90AF909F908F9056
:1022D0000895EF92FF920F931F93CF93DF93CDB7A3
:1022E000DEB762970FB6F894DEBF0FBECDBF809108
:1022F000760C811109C060E27AE087E69CE00E94DA
:10230000502781E08093760C00910702109108021B
:1023100020910F02309110028091750C2017310727
:1023200011F4882311F1811106C060E27AE087E69A
:102330009CE00E9470261092750C1092740C109301
:10234000100200930F0260E27AE089E194E10E94BA
:1023500070261092E90C1092EA0C84E18093730CC1
:1023600083E08093060221E001C020E08091730C9D
:10237000882319F081508093730C1091730C809115
:102380000F02909110028333910509F4EAC2C8F557
:102390008E31910509F41AC1C8F48C30910509F405
:1023A000B5C058F42091740C8A30910509F466C0C8
:1023B0000B9709F486C00C94461A8331910509F4F1
:1023C000C8C0449709F4DFC00C94461A2091740CDD
:1023D0008832910509F477C148F48F31910509F4E9
:1023E00018C1809709F44EC10C94461A8A3291059F
:1023F00009F45DC208F41BC2C29709F48EC20C94A2
:10240000461A8234910509F479C5C8F48D339105D3
:1024100009F4D0C358F42091740C8433910509F465
:10242000C3C2CC9709F42DC30C94461A8E33910580
:1024300009F444C4CF9709F496C40C94461A87341F
:10244000910509F4C5C750F48334910509F401C618
:102450008534910509F4FFC60C94461A8F34910512
:1024600011F40C94431A8F3F910511F40C944C1AFB
:102470008834910511F00C94461AD1C7211103C07C
:102480006DEF76E022C08091E90C8823B9F06CE50D
:102490007AE0CE0101960E945027BE016F5F7F4F08
:1024A00089E194E10E94C8257C01CE0101960E9439
:1024B000D426F7FC03C08BE090E0EAC71111ECC70B
:1024C00088C1211107C060E077E087E69CE00E94A8
:1024D0007026E2C78091E90C882309F49BC76CE55C
:1024E0007AE0CE0101960E945027BE016F5F7F4FB8
:1024F00089E194E10E94C8257C01CE0101960E94E9
:10250000D426F7FC87C78CE090E0C2C78091740C9A
:10251000811103C068E077E0D8CF8091E90C88236F
:1025200009F478C76CE57AE0CE0101960E94502745
:10253000BE016F5F7F4F89E194E10E94C8257C0155
:10254000CE0101960E94D426F7FC64C784E190E096
:102550009FC7222381F08091720C811105C081E018
:102560008093720C61E003C01092720C60E087E10E
:102570000E94FB2891C711118FC78091720C88238C
:1025800009F44AC77AC28091740C811103C062E1D8
:1025900077E09BCF8091E90C882309F43BC76BE17E
:1025A00077E0CE0101960E945027BE016F5F7F4FFA
:1025B00089E194E10E94C8257C01CE0101960E9428
:1025C000D426F7FC27C78EE190E062C78091740C97
:1025D000811103C068E277E078CF8091E90C88230D
:1025E00009F418C76CE57AE0CE0101960E945027E5
:1025F000BE016F5F7F4F89E194E10E94C8257C0195
:10260000CE0101960E94D426F7FC04C78FE190E02A
:102610003FC7211103C06FE277E057CF0091E90C6B
:10262000002309F4F7C668E377E0CE0107960E941D
:102630005027BE01695F7F4F89E194E10E94C82560
:1026400097FF16C063E477E0CE0101960E94502701
:10265000BE016F5F7F4F89E194E10E94C82590958C
:10266000092F001F0027001FCE0101960E94D426CB
:10267000CE0107960E94D426002309F4FEC180E211
:1026800090E006C7211103C06EE477E01ECF809171
:10269000E90C882309F4BEC668E577E0CE0101960F
:1026A0000E945027BE016F5F7F4F89E194E10E9435
:1026B000C8257C01CE0101960E94D426F7FCAAC64B
:1026C00088E290E0E5C621116BC060E27AE087E61F
:1026D0009CE00E94CB25882319F062E677E0F5CED6
:1026E00060E877E0CE0101960E945027BE016F5F3F
:1026F0007F4F87E69CE00E94C8258C01CE010196A1
:102700000E94D42617FD0CC08091E00C9091E10C42
:10271000019719F468E877E0D8CE64EA77E0D5CE7F
:1027200066EC77E0CE0101960E945027BE016F5FF4
:102730007F4F87E69CE00E94C8258C01CE01019660
:102740000E94D42617FD0CC08091E00C9091E10C02
:10275000019719F46AEC77E0B8CE61EE77E0B5CE78
:1027600060E078E0CE0101960E945027BE016F5FC5
:102770007F4F87E69CE00E94C8258C01CE01019620
:102780000E94D42617FD88C68091E00C9091E10C40
:10279000019719F465E078E098CE6BE178E095CE8A
:1027A0008091E90C882309F435C663E378E0CE0113
:1027B00001960E945027BE016F5F7F4F89E194E12F
:1027C0000E94C8258C01CE0101960E94D42617FDD7
:1027D00003C083E190E05CC66CE57AE0CE0101962F
:1027E0000E945027BE016F5F7F4F89E194E10E94F4
:1027F000C8258C01CE0101960E94D42617FD4CC637
:1028000069E378E0CE0101960E945027BE016F5F18
:102810007F4F89E194E10E94C8258C01CE01019689
:102820000E94D42617FD29C189E290E031C621110A
:102830000BC06DE378E087E69CE00E94702684E19F
:102840008093060282E3FAC28091E90C882309F49E
:10285000E1C563E378E0CE0101960E945027BE01F6
:102860006F5F7F4F89E194E10E94C8258C01CE0102
:1028700001960E94D42617FD03C08AE290E008C6A4
:102880006CE57AE0CE0101960E945027BE016F5F91
:102890007F4F89E194E10E94C8258C01CE01019609
:1028A0000E94D42617FDF8C58CE390E0F1C52111F4
:1028B00003C06AE478E009CE0091E90C002309F432
:1028C000A9C563E378E0CE0107960E945027BE01B8
:1028D000695F7F4F89E194E10E94C82597FF16C088
:1028E0006CE57AE0CE0101960E945027BE016F5F31
:1028F0007F4F89E194E10E94C8259095092F001F20
:102900000027001FCE0101960E94D426CE01079613
:102910000E94D426011188CF7DC5211103C067E52F
:1029200078E0D3CD8091E90C882309F473C56CE578
:102930007AE0CE0101960E945027BE016F5F7F4F63
:1029400089E194E10E94C8258C01CE0101960E9484
:10295000D42617FD03C084E390E09AC583E390E09A
:1029600097C58091740C811103C06EE778E0ADCDFE
:102970008091E90C882309F44DC56CE57AE0CE011D
:1029800001960E945027BE016F5F7F4F89E194E15D
:102990000E94C8257C01CE0101960E94D426F7FC36
:1029A00039C582E390E074C5211122C060E27AE06B
:1029B00087E69CE00E94CB25882319F069E878E03F
:1029C00084CD6CE878E0CE0101960E945027BE01CC
:1029D0006F5F7F4F87E69CE00E94C8258C01CE0187
:1029E00001960E94D42617FD57C562E978E06DCDA7
:1029F0008091E90C882309F40DC565E978E0CE01E2
:102A000007960E945027BE01695F7F4F87E69CE0D2
:102A10000E94C82597FD16C063E378E0CE010196B9
:102A20000E945027BE016F5F7F4F89E194E10E94B1
:102A3000C825192F111F1127111FCE0101960E94C1
:102A4000D42601C010E0CE0107960E94D4261111B1
:102A50001AC56CE57AE0CE0101960E945027BE01AE
:102A60006F5F7F4F89E194E10E94C8258C01CE0100
:102A700001960E94D42617FD0FC581E08093750C46
:102A80000BC5211167C060E27AE087E69CE00E94F6
:102A9000CB25882319F06BE978E017CD67EA78E059
:102AA000CE0101960E945027BE016F5F7F4F87E6DF
:102AB0009CE00E94C8258C01CE0101960E94D4267C
:102AC00017FD03C06BEA78E000CD64ED78E0CE013D
:102AD00001960E945027BE016F5F7F4F87E69CE002
:102AE0000E94C8258C01CE0101960E94D42617FDB4
:102AF00003C069ED78E0E9CC67EE78E0CE0101969D
:102B00000E945027BE016F5F7F4F87E69CE00E94C6
:102B1000C8258C01CE0101960E94D42617FD03C062
:102B20006CEE78E0D2CC6AE079E0CE0101960E94AA
:102B30005027BE016F5F7F4F87E69CE00E94C8254B
:102B40008C01CE0101960E94D42617FDA5C46EE02B
:102B500079E0BBCC8091E90C882309F45BC46CE577
:102B60007AE0CE0101960E945027BE016F5F7F4F31
:102B700089E194E10E94C8257C01CE0101960E9462
:102B8000D426F7FC47C462E279E0CE0101960E94A8
:102B90005027BE016F5F7F4F87E69CE00E94C825EB
:102BA0008C01CE0101960E94D42617FD66CF8DE3DD
:102BB00090E06EC48091740C811150C060E27AE0A4
:102BC00087E69CE00E94CB25882319F065E279E036
:102BD0007CCC69E379E0CE0101960E945027BE01CA
:102BE0006F5F7F4F87E69CE00E94C8258C01CE0175
:102BF00001960E94D42617FD1AC06DE379E0CE013C
:102C000001960E9450276FE174E1CE0101960E9467
:102C10004B2669E178E00E943426BC0187E69CE0FF
:102C20000E948526CE0101960E94D42635C46DE40B
:102C300079E0CE0101960E945027BE016F5F7F4F61
:102C400087E69CE00E94C8258C01CE0101960E9477
:102C5000D42617FD21C462E579E037CC8091E90CD8
:102C6000882309F4D7C36CE57AE0CE0101960E946F
:102C70005027BE016F5F7F4F89E194E10E94C82514
:102C80007C01CE0101960E94D426F7FCC3C36AE6FC
:102C900079E0CE0101960E945027BE016F5F7F4F01
:102CA00087E69CE00E94C8258C01CE0101960E9417
:102CB000D42617FDE2CE8EE390E0C4C12111BDC041
:102CC00080912116811173CF1111E6C320912C1030
:102CD00030912D1080912A1090912B1028173907D0
:102CE000B1F160E27AE08DE994E10E94702686E01D
:102CF000F82E04E110E080912A1090912B10209181
:102D00002C1030912D1028173907F1F09C012F5FFE
:102D10003F4F30932B1020932A10F89EB001F99E5C
:102D2000700D11246B5D7B4E8DE994E10E946A2643
:102D300080912A1090912B10B8010E948E59909387
:102D40002B1080932A10D7CF8FE390E0A1C38091FE
:102D50000102811105C080910002882309F48DCE03
:102D600082E490E095C38091740C81116AC060E2A6
:102D70007AE087E69CE00E94CB25882319F06FE675
:102D800079E054C065E779E0CE0101960E945027B2
:102D9000BE016F5F7F4F87E69CE00E94C8258C01D3
:102DA000CE0101960E94D42617FD23C06091A11484
:102DB0007091A214CE0107960E94BF3F6BE779E0A5
:102DC000CE0101960E945027BE01695F7F4FCE0160
:102DD00001960E944B26BC0187E69CE00E94852656
:102DE000CE0101960E94D426CE0107960E94D426D9
:102DF00021C068E879E0CE0101960E945027BE010B
:102E00006F5F7F4F87E69CE00E94C8258C01CE0152
:102E100001960E94D42617FD07C06DE974E187E68C
:102E20009CE00E94852606C06EE879E087E69CE07B
:102E30000E94702684E18093060284E68093730CDE
:102E40002BC38091E90C882309F401C26CE57AE078
:102E5000CE0107960E945027BE01695F7F4F89E12E
:102E600094E10E94C82597FD17C06CE979E0CE0176
:102E700001960E945027BE016F5F7F4F89E194E168
:102E80000E94C8259095192F111F1127111FCE01DF
:102E900001960E94D42601C010E0CE0107960E9440
:102EA000D4261111EACD62EA79E0CE0101960E94A2
:102EB0005027BE016F5F7F4F89E194E10E94C825D2
:102EC0008C01CE0101960E94D42617FFD6CD66EA6A
:102ED00079E0CE0101960E945027BE016F5F7F4FBF
:102EE00089E194E10E94C8258C01CE0101960E94DF
:102EF000D42617FDD1C28EE390E0CAC28091740C33
:102F0000811171C060E27AE087E69CE00E94CB25E7
:102F1000882309F44AC06FE174E1CE0101960E9452
:102F2000482780910102882319F06BEA79E002C0FA
:102F30006FEA79E0CE010D960E94502763E67BE0B0
:102F4000CE0107960E945027AE01435F5F4FBE013E
:102F5000695F7F4FCE0101960E949848CE01079687
:102F60000E94D426CE010D960E94D42663EB79E010
:102F7000CE0107960E945027BE016F5F7F4FCE01A2
:102F800007960E944B2669E178E00E943426BC0136
:102F900087E69CE00E948526CE0107960E94D426F3
:102FA000CE0101960E94D42677C26DE479E0CE016D
:102FB00001960E945027BE016F5F7F4F87E69CE01D
:102FC0000E94C8258C01CE0101960E94D42617FDCF
:102FD00063C280910102882319F063EC79E075CA1D
:102FE0006EED79E072CA8091E90C882309F42FC153
:102FF0006CE57AE0CE0101960E945027BE016F5F1A
:103000007F4F89E194E10E94C8257C01CE010196A1
:103010000E94D426F7FC1BC16AE679E0CE01019636
:103020000E945027BE016F5F7F4F87E69CE00E94A1
:10303000C8258C01CE0101960E94D42617FD1DCD16
:1030400083E490E090930802809307021092211687
:1030500023C28091740C811122C060E27AE087E67D
:103060009CE00E94CB25882319F068EF79E0DECE42
:103070006EEF79E0CE0101960E945027BE016F5F8E
:103080007F4F87E69CE00E94C8258C01CE01019607
:103090000E94D42617FDCECE64E07AE0C7CE8091A0
:1030A000E90C882309F4D3C06CE57AE0CE010196DF
:1030B0000E945027BE016F5F7F4F89E194E10E941B
:1030C000C8257C01CE0101960E94D426F7FCBFC022
:1030D00065E17AE0CE0101960E945027BE016F5F44
:1030E0007F4F89E194E10E94C8258C01CE010196B1
:1030F0000E94D42617FFC1CC6AE17AE0CE01079680
:103100000E945027BE01695F7F4F89E194E10E94D0
:10311000C82597FD16C06BEF79E0CE0101960E949D
:103120005027BE016F5F7F4F87E69CE00E943335DA
:1031300011E0811101C010E0CE0101960E94D42659
:1031400001C010E0CE0107960E94D426112351F051
:1031500080910102882319F010920102CCCE1092C6
:103160000002C9CE6CE57AE0CE0107960E94502796
:10317000BE01695F7F4F89E194E10E94C82597FDF8
:1031800016C068EA78E0CE0101960E945027BE0181
:103190006F5F7F4F89E194E10E94C8259095192FB8
:1031A000111F1127111FCE0101960E94D426CE01B6
:1031B00007960E94D426112309F46EC16EE17AE0CD
:1031C000CE0101960E945027BE016F5F7F4F89E1BB
:1031D00094E10E94C8258C01CE0101960E94D4265C
:1031E00017FDB6CF00911D1410911E140550110942
:1031F0006EE17AE0CE0101960E945027BE016F5F1A
:103200007F4F89E194E10E94C8259801AC0169E1F2
:1032100074E1CE0107960E941B36BE01695F7F4FA5
:103220008DE994E10E949A26CE0107960E94D42649
:10323000CE0101960E94D4261092710C1092700C4F
:1032400010926F0C10926E0C85E490E021C1112356
:1032500009F451CE21C10091700C1091710C01152F
:10326000110579F480916E0C90916F0C892B49F4C3
:1032700080910102882311F082E401C081E48093EF
:103280006D0CF0906D0C8F2D0E942B3840916E0CC0
:1032900050916F0C481759070CF040C04F5F5F4FBB
:1032A00050936F0C40936E0C6F2DCE0101960E94CF
:1032B000A63C2D813E8141E050E0BE016F5F7F4F13
:1032C000CE0107960E941B36BE01695F7F4F8DE9D4
:1032D00094E10E94C8258C01CE0107960E94D42655
:1032E000CE0101960E94D42617FFD6C040916E0CE5
:1032F00050916F0C60916D0CCE0101960E94763B4F
:10330000CE0101960E94D42680916E0C90916F0C94
:10331000019790936F0C80936E0CBEC06FE17AE0C2
:10332000CE0101960E945027A8014F5F5F4FBE015A
:103330006F5F7F4F8DE994E10E94AB2501969093DA
:10334000710C8093700CCE0101960E94D42640919E
:10335000700C5091710C9A01255F3F4F6DE974E13B
:10336000CE0101960E941B36AE014F5F5F4F609108
:103370006D0CCE0107960E948E3ACE0107960E94F0
:10338000D426CE0101960E94D42680916E0C909195
:103390006F0C019690936F0C80936E0C0091700CE3
:1033A0001091710C6FE17AE0CE0101960E945027D6
:1033B000A801BE016F5F7F4F8DE994E10E94AB25AC
:1033C0008C01CE0101960E94D42617FF65C0C0CEA5
:1033D0008091740C811103C061E27AE076C880911B
:1033E000E90C8823B9F064E57AE0CE0101960E94E9
:1033F0005027BE016F5F7F4F89E194E10E94C8258D
:103400007C01CE0101960E94D426F7FC03C088E41B
:1034100090E03EC0111140C08AE090E039C060E207
:103420007AE087E69CE00E94702681E08093740C2D
:103430008091E90C882381F18091ED0C81111AC0F3
:103440006FE57AE0CE0101960E945027BE016F5FC2
:103450007F4F89E194E10E94C8258C01CE0101963D
:103460000E94D42617FD06C08FE490E090930802D6
:10347000809307021092EC0C1092EB0C1092ED0C62
:103480001092E90C09C087E490E002C08FEF90E051
:1034900090930802809307028091740C811106C0FA
:1034A00080916B0C90916C0C892B99F48091740C29
:1034B0008823C9F08091EA0C90910602891798F44C
:1034C0008F5F8093EA0C891770F081E08093E90C9C
:1034D0000AC067E67CE08EE290E10E94642781E00A
:1034E0008093740CE3CF62960FB6F894DEBF0FBEE4
:1034F000CDBFDF91CF911F910F91FF90EF90089575
:103500001F93CF93DF93EC0180E2689FF0011124B9
:10351000E65DF14F9385917129F0842F827411F04B
:1035200080E04FC0142F6A8B8091090290910A02AB
:10353000A0910B02B0910C028E879F87A88BB98B4C
:103540004489558960E070E0BA0155274427828D8F
:10355000938DA0E0B0E0482B592B6A2B7B2B4F8B2F
:10356000588F698F7A8F8385887151F4848D958DFA
:10357000A68DB78D8B8B9C8BAD8BBE8B81E00CC0E9
:10358000803171F69E012D5E3F4F8B8D9C8D0E9488
:10359000073F882329F284E08D83812F8F708C83ED
:1035A0001E821F82188619861A861B861C861D8617
:1035B00016FF06C0CE01DF91CF911F910C947A3E89
:1035C00081E0DF91CF911F9108958FB7F89480919A
:1035D0007F0C8FBF08950F931F93CF93DF93EB0161
:1035E0000E949D298B010E94D2308F3F49F00E949A
:1035F0009D29601B710B6C177D07A8F380E001C04B
:1036000081E0DF91CF911F910F910895EF92FF928A
:103610000F931F93CF93DF93EC017901411551056F
:103620006105710511F482E13BC08B85833039F06F
:1036300089E0440F551F661F771F8A95D1F79A01BD
:10364000AB0168E1CE010E94D430882311F084E000
:1036500027C08EEF0E94CB3087018EEFF81AF80159
:1036600081918F010E94CB30E016F106C1F78FEFF8
:103670000E94CB308FEF0E94CB300E94D2308A87DD
:103680008F71853031F081E18D83CE010E94C13090
:1036900008C068E572E0CE019EDF811107C085E1B8
:1036A0008D83CE010E94C13080E014C020E030E064
:1036B000A9016DE0CE010E94D430811109C00E94A1
:1036C000D230811105C0CE010E94C13081E002C01C
:1036D00084E1E6CFDF91CF911F910F91FF90EF90A2
:1036E00008958091800C882399F1409109025091AE
:1036F0000A0260910B0270910C022AE23EE0809176
:10370000EC159091ED1582DF811102C080E00895E3
:103710004091810C5091820C6091830C7091840CCB
:10372000411551056105710589F02AE23EE080915D
:10373000EC159091ED156ADF882341F31092810C0E
:103740001092820C1092830C1092840C1092800CB8
:1037500081E00895CF93DF93EC018D81882311F1EF
:103760008C8187FF1CC0CE010E94FB3DFC01892B90
:10377000C9F08D81823040F48B899C89AD89BE89E6
:10378000848F958FA68FB78F8F89988DA98DBA8DCD
:10379000938F828FB58BA48B8C818F778C83DF91F5
:1037A000CF919FCF80E0DF91CF910895CF93DF93AA
:1037B000EC01D0DF882311F01D8281E0DF91CF91F1
:1037C0000895CF93DF93EC018E81882389F08F8158
:1037D00098859C012F5F3F4F38872F83823092401E
:1037E00018F40E94D230F3CFCE010E94C1301E8265
:1037F000DF91CF910895AF92BF92CF92DF92EF9277
:10380000FF920F931F93CF93DF93EC016901C801DF
:10381000820F931F8130924008F06FC08E81882301
:1038200071F088819981AA81BB8184179507A607C9
:10383000B70729F48F819885C816D906B0F5488353
:1038400059836A837B838B85833039F089E0440F09
:10385000551F661F771F8A95D1F79A01AB0161E169
:10386000CE010E94D430882319F083E08D8345C0B7
:103870000E949D295B010E94D2308A878F3F49F4C4
:103880000E949D296A197B096D327140A0F38FE077
:1038900003C08E3F31F08DE08D83CE010E94C13098
:1038A0002CC018861F8281E08E838F8198858C15AD
:1038B0009D0540F40E94D2308F81988501969887AB
:1038C0008F83F3CF6701E00EF11EEC14FD0431F09D
:1038D0000E94D230F60181936F01F7CF8F819885D6
:1038E000080F191F18870F838985882319F0011580
:1038F000124040F0CE0165DF05C0CE010E94C1300C
:1039000080E001C081E0DF91CF911F910F91FF9086
:10391000EF90DF90CF90BF90AF9008958F929F92DD
:10392000AF92BF92EF92FF920F931F93CF934B01F1
:103930005C01C42F8091090290910A02A0910B02B0
:10394000B0910C0288159905AA05BB05F1F0C9DEF6
:10395000811102C080E01FC08AE2E82E8EE0F82EBE
:1039600000E012E020E030E0B501A4018091EC1508
:103970009091ED1540DF882369F3809209029092BF
:103980000A02A0920B02B0920C028091800CC82B0C
:10399000C093800C81E0CF911F910F91FF90EF9029
:1039A000BF90AF909F908F9008958F929F92AF920B
:1039B000BF92CF92DF92EF92FF920F931F93CF931C
:1039C000DF93FC0181859285A385B4850196A11DB5
:1039D000B11D84179507A607B70710F480E05AC0F9
:1039E00083889488A588B6888789803129F4BB2785
:1039F000A72F962F852F09C0DB01CA01C7E0B69516
:103A0000A79597958795CA95D1F7E9016A017B013A
:103A10008F01BC01CD01680D791D8A1D9B1D809011
:103A2000090290900A02A0900B02B0900C02681557
:103A300079058A059B0591F4F8018789803199F40D
:103A4000DD24EE24FF24C601880F991FFC01E65DEA
:103A5000F14F80819181A0E0B0E017C040E05EDFCF
:103A60008111EACFBBCFE894C7F8DD24EE24FF2410
:103A7000C601880F991F880F991FFC01E65DF14F61
:103A800080819181A281B381BF7088839983AA8349
:103A9000BB8381E0DF91CF911F910F91FF90EF9059
:103AA000DF90CF90BF90AF909F908F9008958F92AE
:103AB0009F92AF92BF92CF92DF92EF92FF920F93BD
:103AC0001F93CF93DF93EC018D81811102C080E0C1
:103AD00077C00B891C892D893E8904171507260795
:103AE0003707A8F36A017B01823029F4CA86DB8696
:103AF000EC86FD860DC0C114D104E104F10451F43B
:103B00001E821F82188619861A861B861C861D86B1
:103B100081E056C08A849B84AC84BD84EB8DFC8D8F
:103B2000258530E0275F3F4FB501A4014150510981
:103B300061097109022E04C07695679557954795DE
:103B40000A94D2F7D701C6010197A109B10904C0AF
:103B5000B695A795979587952A95D2F784179507D7
:103B6000A607B70720F089288A288B2871F44F8987
:103B7000588D698D7A8D4E835F83688779874C0174
:103B80005D018E010A5F1F4F15C0841B950BA60BAC
:103B9000B70BF5CF4E815F816885798598018B8D54
:103BA0009C8D03DF91E0891A9108A108B108882350
:103BB00009F48DCF81149104A104B10459F796CF73
:103BC000DF91CF911F910F91FF90EF90DF90CF90F9
:103BD000BF90AF909F908F9008953F924F925F92C9
:103BE0006F927F928F929F92AF92BF92CF92DF920D
:103BF000EF92FF920F931F93CF93DF93CDB7DEB772
:103C00002C970FB6F894DEBF0FBECDBF5C01DC0170
:103C10005B968D909C905C971696CD90DD90ED9084
:103C2000FC901997C114D104E104F10439F0BFEFFD
:103C3000CB1ADB0AEB0AFB0A312C07C0F401C08067
:103C4000D180E280F38033243394F401818592851E
:103C5000A385B4859C01AD012F5F3F4F4F4F5F4F50
:103C600029873A874B875C87260137011D821E8290
:103C70001F821886F40181859285A385B4852D81E4
:103C80003E814F815885281739074A075B0708F09E
:103C900062C089859A85AB85BC858C159D05AE056E
:103CA000BF0550F482E0C82ED12CE12CF12C92E01B
:103CB000492E512C612C712C9E012F5F3F4FB70173
:103CC000A601C40172DE882309F445C089819A8166
:103CD000AB81BC81892B8A2B8B2B41F026013701CC
:103CE0009FEF491A590A690A790A05C0C414D50414
:103CF000E604F70491F02D813E814F8158852F5FB6
:103D00003F4F4F4F5F4F2D833E834F8358873FEF89
:103D1000C31AD30AE30AF30AADCF0FEF1FEF2FEF59
:103D20003FE0B301A201C4010E94E72A882399F071
:103D3000D50116964D915D916D917C911997411524
:103D400051056105710549F093018201C4010E948A
:103D5000E72A811102C080E02AC0D50116964D9253
:103D60005D926D927C921997332051F0D301C2017C
:103D70000196A11DB11DF40180839183A283B383B9
:103D8000F5018789908DA18DB28D892B8A2B8B2B84
:103D900069F4D50157964D925D926D927C925A9737
:103DA00014968C911497806814968C9381E02C96CD
:103DB0000FB6F894DEBF0FBECDBFDF91CF911F913C
:103DC0000F91FF90EF90DF90CF90BF90AF909F90BA
:103DD0008F907F906F905F904F903F9008952F92BB
:103DE0003F924F925F926F927F928F929F92AF928B
:103DF000BF92CF92DF92EF92FF920F931F93CF93D8
:103E0000DF93CDB7DEB72C970FB6F894DEBF0FBEA9
:103E1000CDBF7C01DC0115962C90211069C1FE01FB
:103E20003196CE010C966F0130E231938E179F07C9
:103E3000E1F7DA0130E087E09D91992331F19E327C
:103E400031F48A3009F459C138E08AE0F5CFECEE5C
:103E5000F1E04491442321F031969413FACF4DC1FF
:103E6000831708F44AC14FED490F4E3508F045C19C
:103E700041E0430FF601E30FF11D3FE9390F3A31FD
:103E800008F490529083342FD7CF8981803209F47F
:103E900034C12C878B01FB01838D948DD7015C96F7
:103EA0009C938E935B9716821782108611861286DA
:103EB000138614861586B12CF80182859385A48516
:103EC000B585438954896589768984179507A6073E
:103ED000B70708F05BC025E0B695A795979587953D
:103EE0002A95D1F7F82FFF70AF2ED80115968C9137
:103EF000823008F402C1C8010E94863197FDFDC0DE
:103F0000F80182859385A485B5854F96A11DB11DC5
:103F100082879387A487B587F0E2AF9EB001112412
:103F2000665D714F6115710509F4E7C0DB018C9185
:103F3000882319F0853EC1F4DDC0B1100EC0F70131
:103F4000A28A8091090290910A02A0910B02B0917D
:103F50000C0286879787A08BB18BDB018C9188231D
:103F600099F0BB24B394A8CF4BE050E0C6010E9467
:103F7000AE5B892B09F0A0CF8C858073803309F468
:103F8000BCC04C856A2DB0C0BB24B3948C858271B3
:103F9000823109F0B2C0BB2039F0C7010E94FB3D5D
:103FA000009709F076C0A9C0F8018581823009F434
:103FB000A4C0C80112DE882309F49FC0D8015B9613
:103FC000ED91FC915C9716968D909D90AD90BC9074
:103FD0001997B2E08B1A9108A108B108058404C0B2
:103FE000880C991CAA1CBB1C0A94D2F7868597855D
:103FF000A089B189880E991EAA1EBB1E3480E1E0FB
:104000008E1A9108A108B108332001F1240135016D
:10401000430C511C611C711C64DB882309F46DC0C6
:10402000EAE2FEE0119220E1EA32F207D9F740928B
:10403000090250920A0260920B0270920C02809167
:10404000800C81608093800C3A94DECFD8015B961F
:10405000ED91FC915C9780E092E0A0E0B0E00584F7
:1040600004C0880F991FAA1FBB1F0A94D2F7F8013A
:104070004389548965897689840F951FA61FB71FC8
:10408000838B948BA58BB68BD70152961C928AE2B8
:104090009EE020E2FC0111922A95E9F72BE0F6015F
:1040A000DC0101900D922A95E1F721E238E2DC0172
:1040B00051963C932E93509740E058E01F965C93A6
:1040C0004E931E9753963C932E93529759963C933A
:1040D0002E93589757965C934E93569702DB8823FE
:1040E00061F04C85F7016289C7010ADA282E05C004
:1040F000212C03C0B11035CF22CF822D2C960FB6C4
:10410000F894DEBF0FBECDBFDF91CF911F910F910D
:10411000FF90EF90DF90CF90BF90AF909F908F90E7
:104120007F906F905F904F903F902F9008952F92C7
:104130003F924F925F926F927F928F929F92AF9237
:10414000BF92CF92DF92EF92FF920F931F93CF9384
:10415000DF9300D01F92CDB7DEB78C015B011A014F
:10416000DC0115968C9115978130C1F414968C91D1
:1041700081FF14C082FF1CC0F801438954896589FE
:10418000768982859385A485B58584179507A607CA
:10419000B70771F0C8018BDC81110AC081E090E0A3
:1041A000D80113969C938E93129780E090E030C1D3
:1041B000610182C05B968D919C915C97FC0174803B
:1041C0002FEF270D2A013B0139E07694679457942D
:1041D00047943A95D1F7722E74207A01F1E0FF22CC
:1041E000772009F475C080E092E08E199F0946019E
:1041F0008C159D0508F44C01D8015B962D913C91DE
:104200005C9716968D919D910D90BC91A02D029773
:10421000A109B109F901058404C0880F991FAA1FDB
:10422000BB1F0A94D2F74685578560897189840F30
:10423000951FA61FB71F9C01AD01270D311D411D04
:10424000511D29013A01811432E0930609F085C01D
:104250008091090290910A02A0910B02B0910C0288
:10426000481659066A067B0659F48FEF9FEFDC016A
:104270008093090290930A02A0930B02B0930C0260
:104280009501B301A2018091EC159091ED15BED975
:10429000882309F483CF9EEFB91AC818D908F8010A
:1042A00082859385A485B585880D991DA11DB11DB5
:1042B00082879387A487B587D8011A964D915D911F
:1042C0006D917C911D97C114D10409F073CF83C007
:1042D000E114F10409F087CF16964D915D916D912F
:1042E0007C911997411551056105710559F457964F
:1042F0008D919D910D90BC91A02D0097A105B105C8
:1043000031F520C09E012F5F3F4F4FDB882309F41A
:104310004DCF89819A81AB81BC81F801238D348D89
:10432000F9012789203129F048EF5FEF6FEF7FE037
:1043300004C048EF5FEF60E070E084179507A607C0
:10434000B70728F0C80149DC81114DCF27CFF8010C
:1043500086839783A087B18746CFE114F10421F5C6
:10436000D8011A964D915D916D917C911D97539650
:104370008D919D910D90BC91A02D481759076A070A
:104380007B0790F0AED9882309F408CF4092090248
:1043900050920A0260920B0270920C028091800C83
:1043A00081608093800C07C041E0C301B201B6DA9E
:1043B000882309F4F3CED501F701E65DF14F9F01A3
:1043C000280D391D2E173F0719F08D918193FACFD3
:1043D000A80CB91C62CFF80183899489A589B68994
:1043E00084179507A607B70738F4438B548B658B62
:1043F000768B848180688483F801848183FD02C088
:10440000C10106C0C801A6D9882309F4C7CEF8CFD8
:104410000F900F900F900F90DF91CF911F910F9100
:10442000FF90EF90DF90CF90BF90AF909F908F90D4
:104430007F906F905F904F903F902F900895CF9313
:10444000DF931F92CDB7DEB7698341E050E0BE0134
:104450006F5F7F4F6CDE0F90DF91CF9108952F92A9
:104460003F924F925F926F927F928F929F92AF9204
:10447000BF92CF92DF92EF92FF920F931F93CF9351
:10448000DF93EC016B014A018D81811103C08FEF35
:104490009FEFD4C08C8180FFFACF4B885C886D88F9
:1044A0007E884A855B856C857D85C401A0E0B0E08F
:1044B00093018201041B150B260B370B08171907F4
:1044C0002A073B0718F44201841A950A54011E0179
:1044D00026E0220E311CA114B10409F47DC04A85E6
:1044E0005B856C857D852A0181E05822ED818B8D6D
:1044F0009C8D8A019B01F9E03695279517950795C4
:10450000FA95D1F7E23061F4FC01828D938DA48D90
:10451000B58DBC01CD01600F711F821F931F3EC07E
:10452000FC0174807A94702241145104C1F471101A
:1045300016C0452B462B472B49F48F89988DA98DA2
:10454000BA8D8E839F83A887B98709C04E815F810A
:1045500068857985910129DA882309F498CFEB8D54
:10456000FC8D8E819F81A885B9850297A109B1092B
:10457000058404C0880F991FAA1FBB1F0A94D2F795
:104580004685578560897189840F951FA61FB71FBF
:10459000BC01CD01670D711D811D911D20E032E030
:1045A0002419350935012A153B0508F439012C81F8
:1045B00026FD04C06114F2E07F0681F40091090237
:1045C00010910A0220910B0230910C0260177107C2
:1045D00082079307A9F402C0C40130C040E09ED90D
:1045E000882309F454CFF201E65DF14FD601CF01E3
:1045F000860D971D8E179F0781F021912D93FACF7D
:10460000760183019201AB01BC018091EC15909180
:10461000ED15F1D8882309F43ACFC60CD71C8A854A
:104620009B85AC85BD85860D971DA11DB11D8A8713
:104630009B87AC87BD87A618B7084DCFDF91CF9178
:104640001F910F91FF90EF90DF90CF90BF90AF90B0
:104650009F908F907F906F905F904F903F902F90A2
:104660000895CF93DF93EC0180917E0C811109C0F6
:1046700081E080937E0C80916811909169110E9475
:104680001F3160E08C81DF91CF91B5C50895CF9245
:10469000DF92EF92FF920F931F93CF93DF936C0102
:1046A0007A018B01C0E0D0E0CE15DF0581F0D801A2
:1046B0006D918D01D601ED91FC910190F081E02D7D
:1046C000C6011995892B11F02196EECF7E01C70105
:1046D000DF91CF911F910F91FF90EF90DF90CF90DE
:1046E0000895FC01538D448D252F30E0842F90E0F8
:1046F000821B930B541710F0CF96089501970895DD
:10470000FC01918D828D981761F0828DDF01A80FD9
:10471000B11D5D968C91928D9F5F9F73928F90E0FB
:1047200008958FEF9FEF0895FC01918D828D98176A
:1047300031F0828DE80FF11D858D90E008958FEFA7
:104740009FEF0895FC01918D228D892F90E0805C70
:104750009F4F821B91098F73992708958EE290E1F4
:10476000F1DF21E0892B09F420E0822F08958FEDFD
:1047700092E1E8DF21E0892B09F420E0822F0895FF
:104780008CE793E1DFDF21E0892B09F420E0822F21
:1047900008958BEC90E1D6DF21E0892B09F420E02D
:1047A000822F0895FC01848DDF01A80FB11DA35A4B
:1047B000BF4F2C91848D90E001968F739927848F41
:1047C000A689B7892C93A089B1898C918370806464
:1047D0008C93938D848D981306C00288F389E02D05
:1047E00080818F7D80830895EF92FF920F931F93B6
:1047F000CF93DF93EC0181E0888F9B8D8C8D981394
:1048000005C0E889F989808185FD25C0F62E0B8DCC
:1048100010E00F5F1F4F0F731127E02E8C8DE812F1
:104820000BC00FB607FCFACFE889F989808185FFB4
:10483000F5CFCE01B7DFF2CF8B8DFE01E80FF11D72
:10484000E35AFF4FF0829FB7F8940B8FEA89FB89F8
:10485000808180620AC09FB7F894EE89FF896083E7
:10486000E889F98980818370806480839FBF81E0BB
:1048700090E0DF91CF911F910F91FF90EF900895FD
:10488000CF93DF93EC01888D8823C1F0EA89FB89FF
:10489000808185FD05C0A889B9898C9186FD0EC0EF
:1048A0000FB607FCF5CF808185FFF2CFA889B989C3
:1048B0008C9185FFEDCFCE0175DFE8CFDF91CF91F1
:1048C000089580E090E0892B19F063DF811116C014
:1048D00080E090E0892B19F053DF811112C080E055
:1048E00090E0892B19F043DF81110EC080E090E049
:1048F000892B79F033DF81110AC008950E940000EE
:10490000E7CF0E940000EBCF0E940000EFCF0C9495
:104910000000089590E0FC013197E231F10508F0C4
:104920004EC08827EE52FF4F8F4F0C94A1598091B3
:1049300080008F7703C0809180008F7D80938000FE
:10494000089580918000877FF9CF84B58F7702C06A
:1049500084B58F7D84BD08958091B0008F7703C0AA
:104960008091B0008F7D8093B00008958091900079
:104970008F7707C0809190008F7D03C08091900059
:10498000877F8093900008958091A0008F7707C063
:104990008091A0008F7D03C08091A000877F8093CD
:1049A000A0000895809120018F7707C08091200199
:1049B0008F7D03C080912001877F8093200108951F
:1049C0003FB7F89480918A0C90918B0CA0918C0C3D
:1049D000B0918D0C26B5A89B05C02F3F19F001960C
:1049E000A11DB11D3FBFBA2FA92F982F8827820F75
:1049F000911DA11DB11DBC01CD0142E0660F771FC5
:104A0000881F991F4A95D1F70895CF93DF93EC0142
:104A100088819981009711F00E94415A1982188269
:104A20001D821C821B821A82DF91CF9108950F9301
:104A30001F93CF93DF93EC0188819981009729F030
:104A40002A813B812617370788F48B016F5F7F4FE0
:104A50000E94CA5A009761F0998388831B830A8356
:104A60002C813D81232B11F4FC01108281E001C0D7
:104A700080E0DF91CF911F910F910895EF92FF9207
:104A80000F931F93CF93DF93EC017B018A01BA014F
:104A9000CEDF811103C0CE01B8DF07C01D830C83B8
:104AA000B701888199810E94E95BCE01DF91CF91A6
:104AB0001F910F91FF90EF900895AF92BF92CF9208
:104AC000DF92EF92FF920F931F93CF93DF937B01BF
:104AD0008A01FB01448155814115510561F1FC01B9
:104AE000248135812115310531F12417350718F15D
:104AF0000217130718F0890101501109FC01A08069
:104B0000B180C501DFEFCFEF6501C00ED11EC81621
:104B1000D906A0F0F701608171810E94FF5B0097C8
:104B200069F09C012A193B090217130710F0D22FD4
:104B3000C32F0196ECCF8FEF9FEF02C08D2F9C2FDC
:104B4000DF91CF911F910F91FF90EF90DF90CF9069
:104B5000BF90AF900895CF93DF93FC0124813581FE
:104B60004217530780F4FB01DC01CD91DC91608199
:104B70007181CE01840F951F0E94FF5B009719F091
:104B80008C1B9D0B02C08FEF9FEFDF91CF9108959B
:104B900040E050E0E0CFFC0124813581232B31F44B
:104BA00021E061157105A1F0FB0108C0FC018081C5
:104BB00091816115710531F421E0FC018081882328
:104BC00039F005C00E94E05B21E0892B09F020E06C
:104BD000822F0895EF92FF920F931F93CF93DF934D
:104BE0006115710511F480E01BC041155105B9F044
:104BF0007B01EC018C819D818A01080F191FB8018E
:104C0000CE0115DF882379F3288139818C819D813C
:104C1000B701820F931F0E94E95B1D830C8381E023
:104C2000DF91CF911F910F91FF90EF9008950F9317
:104C30001F93CF93DF931F921F92CDB7DEB78C01E6
:104C400069831A8241E050E0BE016F5F7F4FC2DF8F
:104C5000811102C0C801D9DEC8010F900F90DF9109
:104C6000CF911F910F910895CF93DF93EC016115C0
:104C7000710559F0FB0101900020E9F73197AF0170
:104C8000461B570BA7DF811102C0CE01BEDECE014D
:104C9000DF91CF910895CF93DF93EC01FB01448125
:104CA00055816081718196DF811102C0CE01ADDE38
:104CB000CE01DF91CF9108956115710549F0FB0197
:104CC00001900020E9F73197AF01461B570B82CFC7
:104CD00080E00895FB0144815581608171817ACF24
:104CE000CF93DF93EC016115710551F0FB01019049
:104CF0000020E9F73197AF01461B570BBFDE01C01B
:104D000084DECE01DF91CF910895CF93DF93EC0144
:104D1000FB018617970751F060817181611571055C
:104D200021F044815581AADE01C06FDECE01DF9102
:104D3000CF9108950F931F93CF93DF938C01EB01D5
:104D4000FC0180819181009739F06881798161153A
:104D50007105A1F40E94415A88819981F8019183DB
:104D600080838A819B81938382838C819D819583BB
:104D70008483198218821B821A820FC0F801428133
:104D800053812C813D814217530720F30E94E95B38
:104D90008C819D81F801958384831D821C82DF9123
:104DA000CF911F910F910895FC01808191810C9406
:104DB000415A0F931F93CF93DF93CDB7DEB762971E
:104DC0000FB6F894DEBF0FBECDBF8C01CB01F8014A
:104DD00011821082138212821582148250E0BE0169
:104DE0006F5F7F4F0E94AF58BE016F5F7F4FC8015A
:104DF00077DF62960FB6F894DEBF0FBECDBFDF91AE
:104E0000CF911F910F9108950F931F93CF93DF932D
:104E1000CDB7DEB729970FB6F894DEBF0FBECDBF72
:104E20008C01862FF8011182108213821282158262
:104E3000148250E0BE016F5F7F4F90E00E94D8580F
:104E4000BE016F5F7F4FC8014BDF29960FB6F89404
:104E5000DEBF0FBECDBFDF91CF911F910F9108959F
:104E6000CF93DF931F921F92CDB7DEB7FC01118263
:104E70001082138212821582148269831A82BE0103
:104E80006F5F7F4F2DDF0F900F90DF91CF910895CF
:104E9000FC0111821082138212821582148235CF96
:104EA000FC01118210821382128215821482611514
:104EB000710549F0FB0101900020E9F73197AF013E
:104EC000461B570BDBCD08950F931F93CF93DF93B2
:104ED000EC01FB014481558160817181E881F98198
:104EE0000280F381E02D19958C01E881F98102801F
:104EF000F381E02D42E050E061EC7AE0CE011995BB
:104F0000800F911FDF91CF911F910F9108951F92F4
:104F10000F920FB60F9211240BB60F922F933F935F
:104F20004F935F936F937F938F939F93AF93BF93B1
:104F3000EF93FF938EE290E135DCFF91EF91BF910B
:104F4000AF919F918F917F916F915F914F913F9121
:104F50002F910F900BBE0F900FBE0F901F901895C2
:104F60001F920F920FB60F9211240BB60F922F9330
:104F70003F934F935F936F937F938F939F93AF93E1
:104F8000BF93EF93FF938EE290E10E94E84AFF9176
:104F9000EF91BF91AF919F918F917F916F915F91B1
:104FA0004F913F912F910F900BBE0F900FBE0F901E
:104FB0001F9018951F920F920FB60F9211240BB6E7
:104FC0000F922F933F934F935F936F937F938F93A2
:104FD0009F93AF93BF93EF93FF938FED92E1E2DB4B
:104FE000FF91EF91BF91AF919F918F917F916F91C1
:104FF0005F914F913F912F910F900BBE0F900FBE7D
:105000000F901F9018951F920F920FB60F921124B8
:105010000BB60F922F933F934F935F936F937F93B2
:105020008F939F93AF93BF93EF93FF938FED92E195
:105030000E94E84AFF91EF91BF91AF919F918F91AC
:105040007F916F915F914F913F912F910F900BBE88
:105050000F900FBE0F901F9018951F920F920FB6D2
:105060000F9211240BB60F922F933F934F935F93A0
:105070006F937F938F939F93AF93BF93EF93FF9320
:105080008CE793E18FDBFF91EF91BF91AF919F91FF
:105090008F917F916F915F914F913F912F910F90E1
:1050A0000BBE0F900FBE0F901F9018951F920F927E
:1050B0000FB60F9211240BB60F922F933F934F937D
:1050C0005F936F937F938F939F93AF93BF93EF9370
:1050D000FF938CE793E10E94E84AFF91EF91BF9123
:1050E000AF919F918F917F916F915F914F913F9180
:1050F0002F910F900BBE0F900FBE0F901F90189521
:105100001F920F920FB60F9211240BB60F922F938E
:105110003F934F935F936F937F938F939F93AF933F
:10512000BF93EF93FF938BEC90E13CDBFF91EF910A
:10513000BF91AF919F918F917F916F915F914F91AF
:105140003F912F910F900BBE0F900FBE0F901F90AD
:1051500018951F920F920FB60F9211240BB60F9253
:105160002F933F934F935F936F937F938F939F936F
:10517000AF93BF93EF93FF938BEC90E10E94E84ACB
:10518000FF91EF91BF91AF919F918F917F916F911F
:105190005F914F913F912F910F900BBE0F900FBEDB
:1051A0000F901F901895CF93DF93282F30E0F901CF
:1051B000E05DFD4F8491F901E057FD4FD491F90175
:1051C000EA52FD4FC491CC2389F08111A3DBEC2F6F
:1051D000F0E0EE0FFF1FEA5EFD4FA591B491EC9158
:1051E000ED2381E090E021F480E002C080E090E0D7
:1051F000DF91CF9108951F93CF93DF93282F30E055
:10520000F901E05DFD4F8491F901E057FD4FD49124
:10521000F901EA52FD4FC491CC23B9F0162F811148
:1052200079DBEC2FF0E0EE0FFF1FE450FE4FA5916D
:10523000B4919FB7F894111104C08C91D095D823E4
:1052400002C0EC91DE2BDC939FBFDF91CF911F91C9
:105250000895CF93DF9390E0FC01E057FD4F249138
:10526000FC01EA52FD4F8491882361F190E0880FA0
:10527000991FFC01EA58FD4FC591D491FC01E450FF
:10528000FE4FA591B491611109C09FB7F894888130
:10529000209582238883EC912E230BC0623061F429
:1052A0009FB7F8948881322F309583238883EC91BF
:1052B0002E2B2C939FBF06C08FB7F894E8812E2B1E
:1052C00028838FBFDF91CF9108958F929F92AF92E5
:1052D000BF92CF92DF92EF92FF926B017C0170DB65
:1052E0004B015C01C114D104E104F104E9F068DB75
:1052F000DC01CB0188199909AA09BB09883E9340B2
:10530000A105B10578F321E0C21AD108E108F1083E
:1053100088EE880E83E0981EA11CB11CC114D10434
:10532000E104F10421F7DECFFF90EF90DF90CF9002
:10533000BF90AF909F908F9008952FB7F894609191
:10534000860C7091870C8091880C9091890C2FBFEE
:1053500008951F920F920FB60F9211242F933F932F
:105360008F939F93AF93BF938091860C9091870CFE
:10537000A091880CB091890C3091850C23E0230F0B
:105380002D3720F40196A11DB11D05C026E8230F7D
:105390000296A11DB11D2093850C8093860C9093DD
:1053A000870CA093880CB093890C80918A0C909103
:1053B0008B0CA0918C0CB0918D0C0196A11DB11D90
:1053C00080938A0C90938B0CA0938C0CB0938D0CD3
:1053D000BF91AF919F918F913F912F910F900FBEF1
:1053E0000F901F901895CF92DF92EF92FF920F933C
:1053F0001F93CF93DF93EC0188E60E94894063E01E
:1054000083EB91E148D20E94934187E090E00E94B3
:10541000874183EB91E1F7D18F77982F92959F7019
:105420001AEF082F919F000D112483EB91E1EBD12E
:105430009C01332794E0359527959A95E1F7F82E4E
:10544000129FF00C112483EB91E1DDD19C013327F5
:1054500044E0359527954A95E1F7E82E129FE00C38
:10546000112483EB91E1CFD19C01332754E0359592
:1054700027955A95E1F7D82E129FD00C112483EB73
:1054800091E1C1D183EB91E1BED19C01332764E06E
:10549000359527956A95E1F7C82E129FC00C112407
:1054A00083EB91E1B0D19C01332774E035952795CA
:1054B0007A95E1F7129F800D11248883C982DA82E0
:1054C000EB82FC820D83CE01DF91CF911F910F9172
:1054D000FF90EF90DF90CF900895CF92DF92EF9200
:1054E000FF920F931F93CF93DF93EC0188E60E9406
:1054F000894060E083EB91E1CED10E94934187E047
:1055000090E00E94874183EB91E17DD18F77982FC6
:1055100092959F701AEF082F919F000D112483EB35
:1055200091E171D19C01332794E0359527959A95A7
:10553000E1F7F82E129FF00C112483EB91E163D177
:105540009C01332744E0359527954A95E1F7E82EED
:10555000129FE00C112483EB91E155D183EB91E193
:1055600052D19C01332754E0359527955A95E1F7A0
:10557000D82E129FD00C112483EB91E144D19C01D1
:10558000332764E0359527956A95E1F7C82E129F79
:10559000C00C112483EB91E136D19C01332774E0D8
:1055A000359527957A95E1F7129F800D1124888310
:1055B000C982DA82EB82FC820D83CE01DF91CF912A
:1055C0001F910F91FF90EF90DF90CF9008954F9231
:1055D0005F926F927F928F929F92AF92BF92CF9283
:1055E000DF92EF92FF920F931F93CF93DF93EC0123
:1055F000423051056105710510F480E078C089855D
:105600009A85AB85BC850196A11DB11D84179507B0
:10561000A607B70790F3CB88DC88ED88FE888F89D2
:10562000803129F4BB27A72F962F852F09C0DB01D6
:10563000CA01E7E0B695A79597958795EA95D1F7C2
:10564000480159012A013B01C80ED91EEA1EFB1E62
:105650008091090290910A02A0910B02B0910C0274
:10566000C816D906EA06FB0681F48F898031A9F4B1
:10567000B301A201552766277727440F551FFA016A
:10568000E65DF14F9182808219C040E0C701B6010A
:105690000E948E1C8111E9CFB0CFB301A2014F77D8
:1056A000552766277727440F551F440F551FFA01CA
:1056B000E65DF14F80829182A282B3828091800C5C
:1056C00081608093800C8A89823080F08D819E81F8
:1056D000AF81B885C80ED91EEA1EFB1EC092810C90
:1056E000D092820CE092830CF092840C81E0DF91E6
:1056F000CF911F910F91FF90EF90DF90CF90BF90CF
:10570000AF909F908F907F906F905F904F90089593
:10571000DC015996ED91FC915A973097B9F0838945
:105720009489A589B6894285538564857585841BCE
:10573000950BA60BB70B811520E89207A105B105C3
:1057400038F08FEF9FE7A0E0B0E0089580E090E0B0
:105750000895CF93DF931F92CDB7DEB76983DC0145
:10576000ED91FC910280F381E02D41E050E0BE011B
:105770006F5F7F4F19950F90DF91CF91089585ED61
:105780008093BC008091BC0084FDFCCF1092290E58
:1057900008954091AE0C262F30E0240F311D2132A8
:1057A0003105DCF42091290E2430C9F4FC0180E09D
:1057B00090E0861758F43091AE0C2191DC01A2578D
:1057C000B34FA30FB11D2C930196F3CF8091AE0C74
:1057D000680F6093AE0C80E0089581E0089582E048
:1057E0000895089508950895E091EF158091EE15BC
:1057F000E81730F4F0E0ED51F24F808190E0089529
:105800008FEF9FEF08959091EF158091EE15981707
:1058100050F4E92FF0E0ED51F24F208130E09F5F2E
:105820009093EF1502C02FEF3FEFC90108958091CB
:10583000EE1590E02091EF15821B91090895CF920B
:10584000DF92EF92FF920F931F93CF93DF937C0130
:10585000CB018A012091C00D222389F0EB016B015D
:10586000C40ED51ECC15DD0561F06991D701ED910F
:10587000FC910190F081E02DC7011995F3CF642FC1
:1058800088DFC801DF91CF911F910F91FF90EF90BA
:10589000DF90CF900895CF93DF931F92CDB7DEB7FF
:1058A00069832091C00D2223D1F02091E20D203296
:1058B00040F021E030E0FC013383228380E090E07F
:1058C00014C08091C10DE82FF0E0EE53F24F9981A2
:1058D00090838F5F8093C10D8093E20D04C061E0DF
:1058E000CE01019656DF81E090E00F90DF91CF91DD
:1058F000089580E090E00895CF93DF93CDB7DEB7B1
:105900006D970FB6F894DEBF0FBECDBF442351F1A3
:10591000AB01BC011C821B8285E992E09A838983DA
:105920001E8222E0CE0101960E94EF1E811102C06C
:1059300090E013C0CE0101960E947A3E8823C1F305
:10594000CE0101960E94FB3D009791F325EEFC01EC
:1059500020831E820E94711B982F81E0911103C049
:1059600080E001C081E06D960FB6F894DEBF0FBEF7
:10597000CDBFDF91CF9108951F93CF93DF93CDB724
:10598000DEB76D970FB6F894DEBF0FBECDBFAB018B
:105990001C821B8225E932E03A8329831E8221E0A2
:1059A000BC01CE0101960E94EF1E11E0811102C0E0
:1059B00010E004C0CE0101960E94D61B812F6D9687
:1059C0000FB6F894DEBF0FBECDBFDF91CF911F9110
:1059D0000895FC01818D928D009711F00C94AA1B03
:1059E0000895CF93DF93EC01898D9A8D009739F458
:1059F00081E090E09B838A8380E090E00BC0FC0113
:105A0000138212820E949720E98DFA8D22813381C0
:105A1000232B71F7DF91CF910895AF92BF92CF9270
:105A2000DF92EF92FF920F931F93CF93DF9300D0FB
:105A30001F921F92CDB7DEB77C01062FB72E142F11
:105A4000690143E050E0BE016F5F7F4F0E948A4AC8
:105A500018161CF08EEF9FEF6BC08981882319F018
:105A60008DEF9FEF65C08A818111FACF8B818F3FC7
:105A7000B9F7960142E050E0BE016C5F7F4FC7016D
:105A80000E948A4A181634F78C819D81980F41F73D
:105A900082508C83181708F449C0F7011481AA2496
:105AA000A394A10E960142E050E0BE016F5F7F4FCC
:105AB000C7010E948A4A18166CF68981853D81F6D5
:105AC0008A81A812CDCF4C8150E09601602F7B2DAA
:105AD000C7010E948A4A2C81082E000C990B422F84
