:1000000011C1000040C100003EC100003CC1000021
:100010003AC1000038C1000036C1000034C1000000
:1000200032C1000030C100002EC100002CC1000010
:100030002AC1000028C1000026C1000024C1000020
:1000400022C1000020C100001EC100001CC1000030
:100050000C94EE4A18C1000016C100000C94A44A8A
:1000600012C100000C947A4A0C94504A0CC1000052
:100070000AC1000008C1000006C1000004C1000060
:1000800002C1000000C10000FEC000000C94194B2A
:100090000C94264A0C94FC49F6C000000C94444B86
:1000A000F2C00000F0C00000EEC00000ECC0000094
:1000B000EAC00000E8C00000E6C00000E4C00000A4
:1000C000E2C00000E0C00000DEC000000C94D24995
:1000D0000C94A849D8C000000C947E490C94544953
:1000E000D2C000007C3C3E5E2B3D3F2F5B5D3B2C35
:1000F0002A225C0000002200250028002B002E0090
:100100003100340002010000050108010B0100006C
:1001100020002300260029002C002F0032000001BF
:10012000000003010601090100000A0B02090C0D81
:100130000E0807030401000000000000000000009A
:1001400000000000000000000000000000000000AF
:10015000000000001211100000000000000000006C
:10016000000000000000000000000000000000008F
:100170002100240027002A002D0030003300010157
:100180000000040107010A010102102020080810E4
:1001900020401020408002010201080402010102F7
:1001A00004081020408080402010080402018004D0
:1001B000020180402010080402010804020101022B
:1001C000040810204080010204081020408005052A
:1001D0000505070508080808020202020A0A0808BD
:1001E00004040404010101010101010103030303EB
:1001F00003030303040707070C0C0C0C0C0C0C0C7A
:100200000202020206060606060606060B0B0B0B8A
:100210000B0B0B0B1F1C1F1E1F1E1F1F1E1F1E0064
:10022000F450C65011241FBECFEFD1E2DEBFCDBFC8
:1002300000E00CBF1DE0A0E0B2E0EAEBF1EC00E072
:100240000BBF02C007900D92A631B107D9F727E185
:10025000A6E1BDE001C01D92A031B207E1F711E0B7
:10026000C1E1D1E000E006C021970109802FFE0125
:100270000E94A75CC031D10780E00807A9F70E945F
:10028000DE520C94CC60BCCE08959091FB0E809110
:10029000FA0E2FEF3FEF981748F4E92FF0E0E652FF
:1002A000F14F208130E09F5F9093FB0EC9010895CC
:1002B0009091FB0E8091FA0E2FEF3FEF981748F4C4
:1002C000E92FF0E0E652F14F208130E09F5F9093FC
:1002D000FB0EC90108959091D90E9111FCCF91E0C8
:1002E0009093D90E4093D80E2FEF2093D70E1092F3
:1002F000D60E260F2093D50E9093D40E9091D40E47
:10030000880F892B8093D40E8091D30E8130F9F41D
:100310001092D30E8091D40E8093BB008091BC00CC
:1003200083FDF8CF85EC8093BC008091D90E81309D
:10033000E1F38091D60E861710F46091D60EA3EBF0
:10034000BEE0EAEDFEE080E0861303C0089585EE8E
:10035000EACF9D9191938F5FF7CF982F2091B20EA6
:1003600081E0213208F043C08091D90E8111FCCF89
:100370008091B10E32E03093D90E9093D80E9FEF5A
:100380009093D70E1092D60E2093D50EA1E9BEE021
:10039000E3EBFEE090E0291331C01092D40E90916F
:1003A000D40E880F892B8093D40E8091D30E813088
:1003B00049F51092D30E8091D40E8093BB008091AA
:1003C000BC0083FDF8CF85EC8093BC008091D90EF2
:1003D0008230E1F38091D70E8F3FB1F08091D70E3C
:1003E0008032A1F08091D70E803391F084E010929A
:1003F000900E1092B20E10928F0E08953D9131938F
:100400009F5FC9CF85EEE0CF80E0F1CF82E0EFCFF4
:1004100083E0EDCF91E090938F0E8093B10E109218
:10042000900E1092B20E089581E097CFDC011596E0
:100430001C92159714961C92149713961C9213975E
:100440001C9281E011968C93119711968C911197C3
:100450008C3070F4282F2150330BF901EC5EFD4FE6
:10046000E491823009F4EF5FE11102C08F5FEACFBF
:1004700081E012968C9308950F931F93CF93DF938F
:10048000EC019A01AB01E889F98982E08083EC856F
:10049000FD8510820E851F8560E079E08DE390E098
:1004A0000E94395C215031094109510956954795FF
:1004B00037952795F8012083188EEC89FD8986E011
:1004C0008083EA89FB89808180618083EA89FB8956
:1004D000808188608083EA89FB898081806880834D
:1004E000EA89FB8980818F7D8083DF91CF911F9185
:1004F0000F910895089508950895AF92BF92CF92F5
:10050000DF92EF92FF920F931F93CF93DF936C01D3
:100510007B018B01040F151FEB015E01AE18BF08B4
:10052000C017D10759F06991D601ED91FC91019066
:10053000F081E02DC6011995892B79F7C501DF916E
:10054000CF911F910F91FF90EF90DF90CF90BF90D0
:10055000AF900895FC01A089B1898C91A689B789D3
:1005600082FD0FC09C91818D8F5F8F73228D8217CA
:1005700049F0A18DAE0FBF2FB11D5D969C93818F69
:1005800008958C910895FC01538D448D252F30E002
:10059000842F90E0821B930B541710F0CF96089590
:1005A00001970895FC01918D828D981761F0A28DBD
:1005B000AE0FBF2FB11D5D968C91928D9F5F9F7383
:1005C000928F90E008958FEF9FEF0895FC01918D39
:1005D000828D981731F0828DE80FF11D858D90E0A6
:1005E00008958FEF9FEF0895FC01918D228D892F43
:1005F00090E0805C9F4F821B91098F73992708952B
:100600008CEF90E1F1DF21E0892B09F420E0822FCB
:1006100008958DEC94E1E8DF21E0892B09F420E0D6
:10062000822F08958FE695E1DFDF21E0892B09F421
:1006300020E0822F089589E991E1D6DF21E0892B1E
:1006400009F420E0822F0895FC01A48DA80FB92F92
:10065000B11DA35ABF4F2C91848D90E001968F73EA
:100660009927848FA689B7892C93A089B1898C9109
:10067000837080648C93938D848D981306C0028858
:10068000F389E02D80818F7D80830895EF92FF9222
:100690000F931F93CF93DF93EC0181E0888F9B8DA5
:1006A0008C8D98131AC0E889F989808185FF15C05F
:1006B0009FB7F894EE89FF896083E889F989808182
:1006C0008370806480839FBF81E090E0DF91CF9151
:1006D0001F910F91FF90EF900895F62E0B8D10E073
:1006E0000F5F1F4F0F731127E02E8C8D8E110BC0E3
:1006F0000FB607FCFACFE889F989808185FFF5CF2D
:10070000CE01A2DFF2CFEB8DEC0FFD2FF11DE35AEE
:10071000FF4FF0829FB7F8940B8FEA89FB898081A5
:100720008062D0CFCF93DF93EC01888D8823B1F026
:10073000AA89BB89E889F9898C9185FD03C08081EC
:1007400086FD0CC00FB607FCF7CF8C9185FFF2CF6A
:10075000808185FFEDCFCE0177DFEACFDF91CF91AA
:1007600008958150823108F05AC0E82FF0E08827C0
:10077000E354FC4F8F4F0C94A75CDD03E103CF03E0
:10078000D503D9030F04E403EA03EE03F403F803EB
:10079000FC03020406040F040A04100414048091EC
:1007A00080008F77809380000895809180008F7DF6
:1007B000F9CF80918000877FF5CF84B58F7784BD96
:1007C000089584B58F7DFBCF8091B0008F778093A3
:1007D000B00008958091B0008F7DF9CF8091900096
:1007E0008F77809390000895809190008F7DF9CF4E
:1007F00080919000877FF5CF8091A0008F778093C4
:10080000A00008958091A0008F7DF9CF8091A00075
:10081000877FF5CF809120018F7780932001089505
:10082000809120018F7DF9CF80912001877FF5CFC6
:10083000CF93DF93282F30E0F901E85DFE4F8491DC
:10084000F901E857FE4FD491F901E253FE4FC491EC
:10085000CC2399F0811185DFEC2FF0E0EE0FFF1F24
:10086000E25FFE4FA591B491EC91ED2381E090E021
:1008700009F480E0DF91CF91089580E090E0FACF15
:100880001F93CF93DF93282F30E0F901E85DFE4FEF
:100890008491F901E857FE4FD491F901E253FE4FDC
:1008A000C491CC23A1F0162F81115BDFEC2FF0E077
:1008B000EE0FFF1FEC50FF4FA591B4918FB7F89446
:1008C000EC91111108C0D095DE23DC938FBFDF912E
:1008D000CF911F910895DE2BF8CF1092FB0E10924E
:1008E000FA0E1092900E1092B20E1092D90E81E074
:1008F0008093D80E1092D30E61E084E1C1DF61E0F5
:1009000085E1BEDFE9EBF0E080818E7F808380812E
:100910008D7F808388E48093B80085E48093BC0059
:100920008AE792E090938B0E80938A0E8BE792E099
:100930009093890E8093880E0895CF93DF9390E073
:10094000FC01E857FE4F249182539E4FFC01849195
:100950008823D1F090E0880F991FFC01E259FE4FE7
:10096000A591B491FC01EC50FF4FC591D491611158
:100970000EC09FB7F8948C91E22FE0958E238C9354
:100980002881E223E8839FBFDF91CF9108958FB73D
:10099000F894EC91E22BEC938FBFF6CF3FB7F8942D
:1009A0008091350E9091360EA091370EB091380E91
:1009B00026B5A89B05C02F3F19F00196A11DB11DBA
:1009C0003FBFBA2FA92F982F8827BC01CD01620FF6
:1009D000711D811D911D42E0660F771F881F991FB1
:1009E0004A95D1F708958F929F92AF92BF92CF927E
:1009F000DF92EF92FF924B015C01D0DF6B017C0133
:100A0000CDDF6C197D098E099F09683E7340810511
:100A10009105B0F321E0821A9108A108B10888EE8F
:100A2000C80E83E0D81EE11CF11C81149104A104BE
:100A3000B10431F7FF90EF90DF90CF90BF90AF906F
:100A40009F908F9008952FB7F8946091310E709118
:100A5000320E8091330E9091340E2FBF08958F92F5
:100A60009F92AF92BF92CF92DF92EF92FF920F933D
:100A70001F93CF93DF937C018C01060F171FEC01AE
:100A80006E01CE18DF080C171D0741F1DCDF609303
:100A9000D5147093D6148093D7149093D8148DECFA
:100AA00094E180DD97FF28C0CEDF8090D514909030
:100AB000D614A090D714B090D814681979098A096F
:100AC0009B098090D1149090D214A090D314B09030
:100AD000D414681579058A059B0508F3C601DF91D2
:100AE000CF911F910F91FF90EF90DF90CF90BF902B
:100AF000AF909F908F9008958993C2CF8FB7F8944D
:100B000080912A0E8FBF089561E0FC018481B8DED8
:100B10008091290E81111092290E08958EBD00003A
:100B20000DB407FEFDCF8EB508958FEFF7CF0F936D
:100B30001F93CF93DF93EC0186DF8B01F6DF8F3FAE
:100B400061F081DF601B710B6C177D07B8F380E0EB
:100B5000DF91CF911F910F91089581E0F9CF8CBD66
:100B60009DBD0895CF93DF93EC018091290E8111F3
:100B700008C081E08093290E80913612909137123F
:100B8000EEDF60E08C81DF91CF917ACE8F929F92E1
:100B9000AF92BF92FF920F931F93CF93DF93EC011D
:100BA000F62E49015A018E81882379F08F8198852C
:100BB0009C012F5F3F4F38872F838230924010F483
:100BC000B4DFF4CFCE01A0DF1E82CE01CBDF8CE2FA
:100BD00091E0ADDF8F2D8064A1DF08E110E0D50149
:100BE000C401002E04C0B695A795979587950A94E1
:100BF000D2F794DF08501109083F8FEF180779F7F3
:100C000085E9FF2021F028E087E8F2128FEF86DFE8
:100C100010E08BDF8A8787FF04C01F3F11F01F5F42
:100C2000F8CFDF91CF911F910F91FF90BF90AF90C0
:100C30009F908F900895AF92BF92CF92DF92EF92E4
:100C4000FF920F931F93CF93DF93EC016901C801CB
:100C5000820F931F8130924048F58E81882379F06E
:100C600088819981AA81BB8184179507A607B70758
:100C700031F48F819885C816D90608F03CC04883A6
:100C800059836A837B838B85833039F089E0440FF5
:100C9000551F661F771F8A95D1F79A01AB0161E155
:100CA000CE0174DF882381F083E08D83CE012CDFB9
:100CB00080E0DF91CF911F910F91FF90EF90DF9037
:100CC000CF90BF90AF900895BEDE5B012EDF8A8784
:100CD0008F3F59F4B8DE6A197B096D327140B0F369
:100CE0008FE08D83CE0110DFE1CF8E3F81F4188637
:100CF0001F8281E08E838F8198858C159D0548F435
:100D000014DF8F819885019698878F83F4CF8DE0CB
:100D1000E8CF6701E00EF11E08DFF60181936F0155
:100D2000EE15FF05C9F78F819885080F191F1887E1
:100D30000F838985882319F00115124090F08E8168
:100D4000882379F08F8198859C012F5F3F4F3887EA
:100D50002F838230924010F4E8DEF4CFCE01D4DE4F
:100D60001E8281E0A6CFCF92DF92EF92FF920F9387
:100D7000CF93DF93EC01690182E1411551056105D3
:100D8000710591F08B85833039F089E0440F551F50
:100D9000661F771F8A95D1F79A01AB0168E1CE01F2
:100DA000F5DE882319F084E08D8326C08EEFB6DE51
:100DB00076018EEFD81AF70181917F01AFDEEC1436
:100DC000FD04C9F78FEFAADE8FEFA8DEAEDE8A87BB
:100DD0008F71853069F4011113C0CE0195DE81E079
:100DE000DF91CF910F91FF90EF90DF90CF9008951A
:100DF00081E18D83CE0188DECE0186DE80E0F0CFFA
:100E000088E592E094DE811102C085E1CDCF20E03B
:100E100030E0A9016DE0CE01B9DE882311F084E154
:100E2000C3CF83DE8111FBCFD8CF0F9340912C0E1F
:100E300050912D0E60912E0E70912F0E411551057F
:100E40006105710591F0082F2CEF3EE080918D0E29
:100E500090918E0E88DF882349F010922C0E10920C
:100E60002D0E10922E0E10922F0E81E00F910895EC
:100E70000F93CF93C82F80912B0E811105C0C1E035
:100E80008C2FCF910F91089540910F025091100235
:100E900060911102709112020C2F2CEF3EE08091B4
:100EA0008D0E90918E0E5FDF811102C0C0E0E8CF01
:100EB000CC2329F381E0B9DF8823C1F310922B0EF4
:100EC000DFCF8F929F92AF92BF92EF92FF920F93DC
:100ED0001F93CF934B015C01C42F80910F0290911F
:100EE0001002A0911102B091120288159905AA056D
:100EF000BB0541F181E0BCDF81110BC080E0CF91E7
:100F00001F910F91FF90EF90BF90AF909F908F90A7
:100F100008958CEFE82E8EE0F82E00E012E030E02D
:100F200020E0B501A40180918D0E90918E0E83DE9C
:100F3000882321F380920F0290921002A092110256
:100F4000B092120240912B0E4C2B40932B0E81E05D
:100F5000D6CFCF93DF93EC016E857F858889998901
:100F600041E0AFDF882351F08A8920E2829FC001EF
:100F700011248450914FDF91CF91089590E080E04B
:100F8000FACF8F929F92AF92BF92CF92DF92EF9261
:100F9000FF92CF9328E332E130938E0E20938D0E93
:100FA000882309F46BC040E060E070E0CB0189DF8A
:100FB00081110BC080E0CF91FF90EF90DF90CF9038
:100FC000BF90AF909F908F9008958091BA108F77C7
:100FD00089F78091C6109091C710A091C810B09168
:100FE000C91084369105A105B10520F3C090C21047
:100FF000D090C310E090C410F090C510C114D1047B
:10100000E104F104B9F240E0C701B6015ADF8823D8
:1010100089F28091070F9091080F8115924051F647
:10102000A0910C0FAA2331F260910A0F70910B0F5F
:101030006115710509F4BECF2091090F222309F42F
:10104000B9CFA09356122093481290E080E030E090
:10105000E1E0F0E0C82FAF01082E02C0440F551F99
:101060000A94E2F72417350769F041E0480F01962A
:101070008930910579F7409351129CCFC12CD12C26
:101080007601C1CF809351122091120F3091130F2E
:1010900050E040E02115310541F42091200F3091BE
:1010A000210F4091220F5091230F2093491230932A
:1010B0004A1240934B1250934C1246015701860E30
:1010C000971EA11CB11C8092571290925812A092A8
:1010D0005912B0925A12E0910D0FF0910E0FF09349
:1010E0005D12E0935C12B0E00E945B5CDC01CB011E
:1010F000880D991DAA1DBB1D80935E1290935F12EF
:10110000A0936012B093611225E0EE0FFF1F2A95A5
:10111000E1F7E150FE4FEF2FFF27E6958E0F9F1F5F
:10112000A11DB11D8093521290935312A09354129B
:10113000B093551280900F0F9090100FB12CA12CEE
:101140008114910441F480901C0F90901D0FA09089
:101150001E0FB0901F0FC81AD90AEA0AFB0AC80C62
:10116000D91CEA1CFB1C04C0F694E794D794C794DE
:10117000CA95D2F7C0924D12D0924E12E0924F1201
:10118000F092501285EFC8168FE0D806E104F10402
:1011900028F48CE080935B1281E00DCF80E125EF95
:1011A000C2162FEFD206E104F104A0F38091280FBC
:1011B0009091290FA0912A0FB0912B0F80935E126E
:1011C00090935F12A0936012B093611280E2E2CF1D
:1011D0004F925F926F927F928F929F92AF92BF9247
:1011E000CF92DF92EF92FF920F931F93CF93DF93F3
:1011F000EC01423051056105710590F480E0DF910A
:10120000CF911F910F91FF90EF90DF90CF90BF9003
:10121000AF909F908F907F906F905F904F900895C8
:1012200089859A85AB85BC850196A11DB11D841762
:101230009507A607B70710F3CB88DC88ED88FE88F2
:101240008F89803109F042C0BB27A72F962F852FA9
:10125000480159012A013B01C80ED91EEA1EFB1E96
:1012600080910F0290911002A0911102B091120290
:10127000C816D906EA06FB0699F58F898031B9F5BB
:10128000B301A201552766277727440F551F445005
:10129000514FFA019182808280912B0E8160809360
:1012A0002B0E8A89823080F08D819E81AF81B88536
:1012B0008C0D9D1DAE1DBF1D80932C0E90932D0E89
:1012C000A0932E0EB0932F0E81E099CFDB01CA01BF
:1012D000E7E0B695A79597958795EA95D1F7B8CFAA
:1012E00040E0C701B601EDDD8111C7CF87CFB30163
:1012F000A2014F77552766277727440F551F440FC4
:10130000551F4450514FFA0180829182A282B382CC
:10131000C3CF8F929F92AF92BF92CF92DF92EF9204
:10132000FF920F931F93CF93DF93FC0181859285EA
:10133000A385B4850196A11DB11D84179507A60745
:10134000B70770F480E0DF91CF911F910F91FF906C
:10135000EF90DF90CF90BF90AF909F908F900895C7
:1013600083889488A588B6888789803189F5BB27CA
:10137000A72F962F852FE9016A017B018F01BC0100
:10138000CD01680D791D8A1D9B1D80900F029090E4
:101390001002A0901102B090120286169706A806BD
:1013A000B90601F5F8018789803109F5DD24EE24BD
:1013B000FF24F601EE0FFF1FE450F14F8081918171
:1013C000B0E0A0E088839983AA83BB8381E0BBCF90
:1013D000DB01CA01C7E0B695A79597958795CA9591
:1013E000D1F7C9CF40E06DDD8111DCCFABCFE89400
:1013F000C7F8DD24EE24FF24F601EE0FFF1FEE0FE9
:10140000FF1FE450F14F80819181A281B381BF70B1
:10141000D9CF4F925F926F927F92AF92BF92CF924D
:10142000DF92EF92FF920F931F93CF93DF9300D041
:101430001F92CDB7DEB78C0149835A836B837C83BF
:101440005901C12CD12C7601412C82E0582E612CFF
:10145000712C49815A816B817C819E012F5F3F4FA6
:10146000C80157DF882339F1F8018585A30192016E
:1014700004C0220F331F441F551F8A95D2F7DA018B
:10148000C901C80ED91EEA1EFB1E49815A816B8113
:101490007C818789803111F188EF9FEFAFEFBFE04A
:1014A000481759076A077B07A0F2F501C082D1826D
:1014B000E282F38281E00F900F900F900F90DF9106
:1014C000CF911F910F91FF90EF90DF90CF90BF9041
:1014D000AF907F906F905F904F90089588EF9FEF4F
:1014E000A0E0B0E0DDCFCF93DF93FC012581222384
:1014F00021F080E0DF91CF910895EC0180915B12A3
:10150000803159F582E08583178A108E118E128EF4
:1015100080915C1290915D12B0E0A0E025E0880F10
:10152000991FAA1FBB1F2A95D1F7838B948BA58B7C
:10153000B68B84E492E19C8F8B8F81E08C831E823A
:101540001F82188619861A861B861C861D861E8693
:101550001F86188A198A1A8ACDCF803251F683E005
:10156000858340915E1250915F126091601270917C
:101570006112478B508F618F728F9F012D5E3F4F9D
:1015800084E492E146DF8111D4CFB3CF8F929F9252
:10159000AF92BF92CF92DF92EF92FF920F931F9381
:1015A000CF93DF93EC018D8181110EC080E0DF913C
:1015B000CF911F910F91FF90EF90DF90CF90BF9050
:1015C000AF909F908F9008950B891C892D893E893B
:1015D000041715072607370748F34A015B018230D5
:1015E00031F48A869B86AC86BD8681E0E0CF81148B
:1015F0009104A104B10449F41E821F821886198641
:101600001A861B861C861D86F0CF0A851B852C85B5
:101610003D85EB8DFC8D858590E00996B901A8018B
:101620004150510961097109082E04C076956795EA
:10163000579547950A94D2F775016401E1E0CE1AF7
:10164000D108E108F10804C0F694E794D794C79450
:101650008A95D2F7C416D506E606F70620F0012BC8
:10166000022B032B09F58F89988DA98DBA8D8E8356
:101670009F83A887B9878E010A5F1F4FC114D104C9
:10168000E104F10409F4ADCF4E815F81688579856D
:1016900098018B8D9C8D3DDE91E0C91AD108E1083F
:1016A000F1088111EBCF82CFC41AD50AE60AF70AF6
:1016B000E2CF3F924F925F926F927F928F929F9272
:1016C000AF92BF92CF92DF92EF92FF920F931F9350
:1016D000CF93DF93CDB7DEB72C970FB6F894DEBF6C
:1016E0000FBECDBF5C01DC015B968D909C905C973A
:1016F00016964D905D906D907C9019974114510411
:101700006104710409F467C0BFEF4B1A5B0A6B0AEE
:101710007B0A312CF40181859285A385B4859C01D7
:10172000AD012F5F3F4F4F4F5F4F29873A874B8760
:101730005C87730162011D821E821F821886F4017C
:1017400081859285A385B4852D813E814F81588501
:10175000281739074A075B0708F054C089859A851E
:10176000AB85BC858C159D05AE05BF0550F482E0A8
:10177000C82ED12CE12CF12C92E0492E512C612C59
:10178000712C9E012F5F3F4FB701A601C401C1DD3F
:101790008823C1F189819A81AB81BC81892B8A2BF5
:1017A0008B2B09F1260137019FEF491A590A690A63
:1017B000790A2D813E814F8158852F5F3F4F4F4FD2
:1017C0005F4F2D833E834F8358873FEFC31AD30A61
:1017D000E30AF30AB4CFF401408051806280738041
:1017E0003324339497CFC414D504E604F70409F7DF
:1017F0000FEF1FEF2FEF3FE0B701A601C401E8DCB8
:10180000811119C080E02C960FB6F894DEBF0FBE90
:10181000CDBFDF91CF911F910F91FF90EF90DF909F
:10182000CF90BF90AF909F908F907F906F905F9080
:101830004F903F900895D50116964D915D916D9111
:101840007C911997411551056105710531F097019A
:101850008601C401BDDC8823A9F2D5011696CD927C
:10186000DD92ED92FC921997332051F0D701C60119
:101870000196A11DB11DF40180839183A283B383DE
:10188000F5018789908DA18DB28D892B8A2B8B2BA9
:1018900039F48481C78AD08EE18EF28E8068848389
:1018A000F50184818062848381E0ADCF2F923F92E5
:1018B0004F925F926F927F928F929F92AF92BF9260
:1018C000CF92DF92EF92FF920F931F93CF93DF930C
:1018D000EC015B012A018D81811115C08FEF9FEF13
:1018E000DF91CF911F910F91FF90EF90DF90CF90FC
:1018F000BF90AF909F908F907F906F905F904F9030
:101900003F902F9008958C8180FFE8CF0B891C8930
:101910002D893E894A855B856C857D85C201B0E055
:10192000A0E068017901C41AD50AE60AF70AC816C8
:10193000D906EA06FB0618F42801441A550A4201A2
:101940001E0126E0220E311C8114910409F4B0C05E
:101950004A855B856C857D856A0181E0D8228B8D07
:101960009C8D8A019B01E9E036952795179507958F
:10197000EA95D1F7ED81E230D9F5FC01628D738DE6
:10198000848D958D600F711F821F931F612C22E043
:10199000722E6C187D088614970408F434012C818B
:1019A00026FD04C06114F2E07F0671F400910F027D
:1019B00010911002209111023091120206171707A0
:1019C0002807390709F051C040E07BDA882309F481
:1019D00085CFC6018450914FD5019C01260D371D3E
:1019E000FC012E173F0709F45EC041914D93F9CFDA
:1019F000FC0174807A947022C114D10471F47110C6
:101A00000CC0452B462B472B39F58F89988DA98D16
:101A1000BA8D8E839F83A887B987EB8DFC8D6E81ED
:101A20007F81888599856250710981099109258591
:101A300004C0660F771F881F991F2A95D2F7068565
:101A4000178520893189600F711F821F931F670DD1
:101A5000711D811D911D9ACF4E815F8168857985A9
:101A6000910157DC8111D9CF39CF750183019601DE
:101A7000AB01BC0180918D0E90918E0EDCD8882335
:101A800009F42CCFA60CB71C8A859B85AC85BD8537
:101A9000860D971DA11DB11D8A879B87AC87BD87C9
:101AA0008618970851CF281B390BA20EB31EECCF16
:101AB000C20116CF1F93CF93DF93FC012581222310
:101AC00061F1162FEC01848187FF1DC0CF0141DA3F
:101AD000FC01892B11F18D81823040F48B899C8926
:101AE000AD89BE89848F958FA68FB78F8F89988D8A
:101AF000938F828F8F89988DA98DBA8DB58BA48B8A
:101B00008C818F778C83111103C08C818F7E8C83A5
:101B1000812FDF91CF911F91ABC980E0DF91CF91F1
:101B20001F910895FF920F931F93CF93DF93EC01C2
:101B30008D81813041F090E080E0DF91CF911F9165
:101B40000F91FF9008958C8181FFF5CF82FD19C020
:101B500000918D0E10918E0EC80104D80E9495053B
:101B6000F82EC8010E9484058FEFF812E4CF8C8113
:101B700085FF19C060E0CE019DDF8C818F7D8C8355
:101B8000DACF4B895C896D897E898A859B85AC8596
:101B9000BD8584179507A607B707D1F2CE01F6DCFD
:101BA0008111D6CFC8CF40912C0E50912D0E60914F
:101BB0002E0E70912F0E452B462B472B19F080E0EF
:101BC00034D9B9CF80618C832A853B85317080E020
:101BD00092E0821B930BB1CFCF93DF93EC0161E0D6
:101BE00069DF882311F01D8281E0DF91CF91089594
:101BF000CF92DF92EF92FF921F93CF93DF93C82F84
:101C000080916712882319F082E692E1E5DF109255
:101C100043121092411210923E1210923D12C09344
:101C20003C120E942305EB0161E080913C120E946E
:101C30009D0461E080913C120E9440041FB7F8941B
:101C400080918C0E811127C0E3E0F2E08491EDEBEE
:101C5000F1E09491E82FF0E0EE0FFF1FE259FE4F04
:101C6000A591B491EC91E92321F461E085E30E9410
:101C7000400461E085E30E949D048CB580618CBDC9
:101C80008CB580648CBD61E084E30E949D0461E0BA
:101C900083E30E949D0480918C0E8F5F80938C0E55
:101CA0001FBF82E580933612109237128091361250
:101CB000909137120E94AF051AE08FEF0E948E05B7
:101CC0001150D9F788E392E10E94B20520E030E09C
:101CD000A90160E088E392E10E94C605182F809375
:101CE0004212813081F00E9423056C1B7D0B613D07
:101CF000774060F381E080933D1288E392E10E9497
:101D0000840590E076C02AEA31E040E050E068E0E7
:101D100088E392E10E94C60582FF2AC01093431215
:101D200080914312C12CD12C7601823029F4C12C30
:101D3000D12CE12C80E4F82E20E030E0A90167E30B
:101D400088E392E10E94C605A701960169E288E353
:101D500092E10E94C605809342128823C1F00E943E
:101D600023056C1B7D0B613D774030F388E0C3CFCA
:101D700014E00E949505809342121150D1F78A3ADF
:101D800011F082E0B8CF82E080934312C9CF8091F6
:101D900043128230D1F420E030E0A9016AE388E305
:101DA00092E10E94C605882311F086E0A4CF0E942C
:101DB0009505807C803C19F483E0809343120E9457
:101DC00095050E9495050E94950588E392E10E9481
:101DD000840580E5809336121092371281E0D1D8C5
:101DE000882381F082E692E17EDB91E0882309F48A
:101DF00088CF892FDF91CF911F91FF90EF90DF90D7
:101E0000CF90089580E0BDD8882309F47ACFEACF37
:101E10002F923F924F925F926F927F928F929F92FA
:101E2000AF92BF92CF92DF92EF92FF920F931F93E8
:101E3000CF93DF9300D01F921F92CDB7DEB77C0106
:101E40005B01342E5D83DC0115968C9115978130F2
:101E500009F0CCC014962C9021FEC8C022FCB3C05F
:101E6000C32CDD8022947FE027222094B22DB17014
:101E70002B2ED7011A964D915D916D917C911D97F6
:101E8000C114D10409F425C15B968D919C915C9796
:101E9000FC0174807A948A019B0169E0369527954C
:101EA000179507956A95D1F770228A011170711004
:101EB0001FC001151105E1F416964D915D916D91CC
:101EC0007C911997411551056105710509F097C07D
:101ED00057968D919D910D90BC91A02D0097A105D5
:101EE000B10509F0ADC0C701E4DB882309F47EC069
:101EF00080E092E0801B910B46018C159D0508F453
:101F00004C01D7015B964D915C915C9716968D9133
:101F10009D910D90BC91A02D0297A109B109FA01E4
:101F2000258504C0880F991FAA1FBB1F2A95D2F7C9
:101F30004685578560897189840F951FA61FB71F35
:101F40009C01AD01270D311D411D511D29013A0193
:101F5000811432E0930609F079C080910F029091CC
:101F60001002A0911102B091120284159505A605E8
:101F7000B70559F48FEF9FEFDC0180930F02909328
:101F80001002A0931102B0931202022D9501B30129
:101F9000A20180918D0E90918E0E0E94B30688232F
:101FA00029F19EEFB91AC818D908F70182859385DF
:101FB000A485B585880D991DA11DB11D82879387C4
:101FC000A487B58756CFF7014389548965897689F7
:101FD00082859385A485B585481759076A077B07CD
:101FE00009F43ECFC701D2DA81113ACF81E090E007
:101FF000D70113969C938E93129780E006C09E01A2
:102000002F5F3F4F86D9811102C090E079C089814E
:102010009A81AB81BC81F701238D348DF901278929
:1020200048EF5FEF60E070E0203121F048EF5FEFB4
:102030006FEF7FE084179507A607B70708F053CF27
:10204000F70186839783A087B18752CF01151105C9
:1020500099F5D7011A964D915D916D917C911D97DF
:1020600053968D919D910D90BC91A02D48175907C5
:102070006A077B0708F181E00E943807882309F48A
:10208000B5CF40920F0250921002609211027092EE
:10209000120280912B0E816080932B0EC801845018
:1020A000914FD5019C01280D391DFC012E173F07CA
:1020B00059F04D914193FACF41E0C301B2010E9422
:1020C00061078111EBCF92CF281B390BA20EB31EF3
:1020D0006ACFF70183899489A589B6898417950702
:1020E000A607B70738F48481438B548B658B768BB6
:1020F00080688483F701848183FD1AC0832D9D81CC
:102100000F900F900F900F900F90DF91CF911F9134
:102110000F91FF90EF90DF90CF90BF90AF909F9086
:102120008F907F906F905F904F903F902F90089589
:1021300061E0C701BFDC882309F458CFDFCFCF931C
:10214000DF931F92CDB7DEB7698341E050E0BE0157
:102150006F5F7F4F5DDE0F90DF91CF910895FC019F
:10216000DB0112968D919C911397938382838FE963
:1021700092E09183808314968C91149784831596B2
:102180008C911597858316964D915D916D917C91FB
:10219000199746835783608771871A964D915D9191
:1021A0006D917C911D9742875387648775871E9632
:1021B0004D915D916D917C91519746875787608BCA
:1021C000718B52968C915297828B53964D915D9163
:1021D0006D917C915697438B548B658B768B57967C
:1021E0004D915D916D917C915A97478B508F618F86
:1021F000728F5B968D919C91948F838F0895DC01F3
:102200005996ED91FC91309721F081E095819111E3
:1022100001C080E00895FC01818D928D009711F03E
:1022200061E048CC0895DC015996ED91FC9130971E
:10223000B9F083899489A589B689428553856485D7
:102240007585841B950BA60BB70B811520E89207AB
:10225000A105B10538F08FEF9FE7A0E0B0E0089549
:1022600090E080E00895DC0159968D919C91009753
:1022700039F0DC01ED91FC910480F581E02D199499
:1022800090E080E00895CF93DF93EC01E98DFA8D23
:10229000309749F481E090E09B838A8390E080E06E
:1022A000DF91CF91089513821282898D9A8DB0DDCE
:1022B000E98DFA8D22813381232B61F7F1CFCF9302
:1022C000DF931F92CDB7DEB76983DC01ED91FC91FE
:1022D0000280F381E02D41E050E0BE016F5F7F4F4F
:1022E00019950F90DF91CF910895CF93DF931F92AF
:1022F000CDB7DEB741E050E0BE016F5F7F4FD6DA69
:10230000019731F4898190E00F90DF91CF9108958A
:102310008FEF9FEFF9CFFC01818D928D009709F02F
:10232000E4CF8FEF9FEF08950F931F93CF93DF9329
:10233000EC01898D9A8D10E000E0009789F0D5DFDF
:102340008C010F3F100761F0898D9A8DFC01428549
:10235000538564857585415051096109710916D904
:10236000C801DF91CF911F910F9108952F923F9255
:102370004F925F926F927F928F929F92AF92BF9295
:10238000CF92DF92EF92FF920F931F93CF93DF9341
:102390002C011A0189013B01D0E0C0E06901F12C58
:1023A000E12CC215D30511F10E9423054B015C01FC
:1023B000D20112968D919C91DC01ED91FC910284E9
:1023C000F385E02D199597FF25C00115110581F3BF
:1023D0000E942305681979098A099B096C157D05F6
:1023E0008E059F0528F38EEF209709F08C2FDF9143
:1023F000CF911F910F91FF90EF90DF90CF90BF9002
:10240000AF909F908F907F906F905F904F903F9094
:102410002F900895F30181933F012196C2CFAF928F
:10242000BF92CF92DF92EF92FF920F931F93CF93C1
:10243000DF9300D01F921F92CDB7DEB77C01062F2D
:10244000B72E142F690143E050E0BE016F5F7F4F4C
:102450008DDF181694F08EEF9FEF0F900F900F9076
:102460000F900F90DF91CF911F910F91FF90EF9000
:10247000DF90CF90BF90AF9008958981882319F0A5
:102480008DEF9FEFEACF8A818111FACF8B818F3F49
:10249000B9F7960142E050E0BE016C5F7F4FC70183
:1024A00065DF1816C4F68C819D81980F49F782501C
:1024B0008C83181708F445C0F7011481AA24A3944B
:1024C000A10E960142E050E0BE016F5F7F4FC70151
:1024D0004DDF18160CF0BFCF8981853D89F68A81C2
:1024E0008A11CECF4C8150E09601602F7B2DC70121
:1024F0003DDF2C81082E000C990B2817190609F0D6
:10250000AACF1A52902FE02FFB2D8E2F891B8217F6
:1025100018F48191180FF9CF960142E050E0BE0106
:102520006F5F7F4FC70122DF18160CF094CF8981AF
:10253000180F09F0A5CF8A818111A2CF8C8190E07C
:102540008CCF8CEF9FEF89CF40E052EC61E070E0E0
:10255000FC01828193810C943C022F923F924F9216
:102560005F926F927F928F929F92AF92BF92CF9223
:10257000DF92EF92FF920F931F93CF93DF932C0183
:102580001A0189013B01D0E0C0E06901F12CE12C86
:10259000C215D30511F10E9423054B015C01D20144
:1025A00012968D919C91DC01ED91FC910284F38552
:1025B000E02D199597FF25C00115110581F30E94A3
:1025C0002305681979098A099B096C157D058E0513
:1025D0009F0528F38EEF209709F08C2FDF91CF9184
:1025E0001F910F91FF90EF90DF90CF90BF90AF9031
:1025F0009F908F907F906F905F904F903F902F9023
:102600000895F30181933F012196C2CFAF92BF920B
:10261000CF92DF92EF92FF920F931F93CF93DF93AE
:1026200000D01F921F92CDB7DEB77C01062FB72EC8
:10263000142F690143E050E0BE016F5F7F4F8DDFD3
:10264000181694F08EEF9FEF0F900F900F900F9051
:102650000F90DF91CF911F910F91FF90EF90DF903E
:10266000CF90BF90AF9008958981882319F08DEFA6
:102670009FEFEACF8A818111FACF8B818F3FB9F723
:10268000960142E050E0BE016C5F7F4FC70165DFFD
:102690001816C4F68C819D81980F49F782508C835F
:1026A000181708F445C0F7011481AA24A394A10EB9
:1026B000960142E050E0BE016F5F7F4FC7014DDFE2
:1026C00018160CF0BFCF8981853D89F68A818A1161
:1026D000CECF4C8150E09601602F7B2DC7013DDFAE
:1026E0002C81082E000C990B2817190609F0AACF87
:1026F0001A52902FE02FFB2D8E2F891B821718F472
:102700008191180FF9CF960142E050E0BE016F5F52
:102710007F4FC70122DF18160CF094CF8981180F64
:1027200009F0A5CF8A818111A2CF8C8190E08CCF56
:102730008CEF9FEF89CF40E052EC61E070E0FC014C
:10274000828193810C943C02DC01ED91FC9101901B
:10275000F081E02D1994CF93DF93EC0165E570E0F3
:102760008A819B81F1DF65E570E08A819B81ECDFE6
:1027700070E060E08A819B81E7DF70E060E08A8141
:102780009B81E2DF70E060E08A819B81DDDF8A81EE
:102790009B81DC01ED91FC910084F185E02D199580
:1027A0008A819B81DC01ED91FC910084F185E02D13
:1027B0001995892B49F08A819B81DC01ED91FC916F
:1027C0000284F385E02DEBCFDF91CF910895CF9375
:1027D000DF93EC0165E570E08A819B81B5DF65E5FB
:1027E00070E08A819B81B0DF70E060E08A819B812C
:1027F000ABDF70E060E08A819B81A6DF70E060E083
:102800008A819B81A1DF8A819B81DC01ED91FC9112
:102810000084F185E02D19958A819B81DC01ED9181
:10282000FC910084F185E02D1995892B49F08A816E
:102830009B81DC01ED91FC910284F385E02DEBCFCF
:10284000DF91CF91089585ED8093BC008091BC000D
:1028500084FDFCCF1092D90E08952091060E260F0C
:102860003327331F21323105ECF42091D90EFC01BE
:1028700090E080E0243069F082E00895A091060E97
:102880002191AC014A51524FA40FB52FB11D2C9389
:102890000196861798F38091060E680F6093060ED6
:1028A00080E0089581E008950895E091FB0E809105
:1028B000FA0EE81730F4F0E0E652F14F808190E034
:1028C00008958FEF9FEF08958091FA0E9091FB0E7F
:1028D000891B990B0895CF92DF92EF92FF920F938D
:1028E0001F93CF93DF937C01CB018A0120918F0E40
:1028F000222389F0EB016B01C40ED51ECC15DD053A
:1029000061F06991D701ED91FC910190F081E02D8A
:10291000C7011995F3CF642FA0DFC801DF91CF91D4
:102920001F910F91FF90EF90DF90CF900895CF937C
:10293000DF931F92CDB7DEB7698320918F0E2223DC
:10294000F9F02091B20E203258F021E030E0FC0185
:102950003383228390E080E00F90DF91CF91089540
:102960008091900EE82FF0E0EF56F14F998190831F
:102970008F5F8093900E8093B20E81E090E0ECCF59
:1029800061E0CE01019669DFF8CF1F93CF93DF930B
:10299000EC0188E60E940A0263E081E892E1C7DF69
:1029A0002D811AE0822F612F0E94745C682F660FC0
:1029B000680F660F620F81E892E1B9DF2C81822FE8
:1029C000612F0E94745C682F660F680F660F620F9C
:1029D00081E892E1ACDF2B81822F612F0E94745C31
:1029E000682F660F680F660F620F81E892E19FDF24
:1029F0002A81822F612F0E94745C682F660F680FF6
:102A0000660F620F81E892E192DF60E081E892E177
:102A10008EDF2981822F612F0E94745C682F660FE0
:102A2000680F660F620F81E892E181DF2881822FB3
:102A3000612F0E94745C682F660F680F660F620F2B
:102A400081E892E174DF0E94140288E60E940A0283
:102A500062E081E892E16BDF60E081E892E167DFAC
:102A6000DF91CF911F910C9414021F93CF93DF93AA
:102A7000EC0188E60E940A0260E081E892E157DFFB
:102A80002D811AE0822F612F0E94745C682F660FDF
:102A9000680F660F620F81E892E149DF2C81822F77
:102AA000612F0E94745C682F660F680F660F620FBB
:102AB00081E892E13CDF2B81822F612F0E94745CC0
:102AC000682F660F680F660F620F81E892E12FDFB3
:102AD00060E081E892E12BDF2A81822F612F0E9442
:102AE000745C682F660F680F660F620F81E892E1D1
:102AF0001EDF2981822F612F0E94745C682F660F70
:102B0000680F660F620F81E892E111DF2881822F42
:102B1000612F0E94745C682F660F680F660F620F4A
:102B200081E892E104DFDF91CF911F910C941402B0
:102B300090E080E008958FE10E94180461E068272A
:102B40008FE10C944004EFE6F0E080818E7F80837B
:102B500060E08FE10C944004CF939FEF980F923088
:102B600000F51092D80D91E090936F0D90930502AF
:102B7000823009F441C0C1E0C0936E0D61E083E290
:102B80000E94400460E082E20E944004C093DB0D9A
:102B90008091460E9091470E9093DA0D8093D90D57
:102BA0000AC0823049F18330D1F1813021F3809124
:102BB000DB0D811104C080916F0DCF91089581E0EC
:102BC0008093D80D80936F0D80916E0D813059F4F4
:102BD00061E082E20E94400460E083E20E944004DF
:102BE0001092DB0DE8CF8230D9F761E083E20E94DA
:102BF000400460E082E2F2CF82E080936E0D61E0FB
:102C000082E20E94400460E083E20E94400481E08E
:102C10008093DB0D8091440E9091450EBDCF809145
:102C20006F0D882341F280910502882321F08150A5
:102C300080930502C0CF61E082E20E94400461E01F
:102C400083E20E94400410926F0D81E0F1CFCF9398
:102C500080910E02893061F498E090930E022091E9
:102C60000D02293051F490930D021092E50D0EC023
:102C7000813031F498E090930E0280930D02F5CFED
:102C80008430C1F38A30B1F38B30A1F380910D020F
:102C900080930C029091E50D843009F4D4C0F0F4D7
:102CA000813069F1823009F09AC1911108C081E048
:102CB0008093E50D85E18093E40D1092E00D809105
:102CC000E40D853109F4A1C008F08BC0882309F414
:102CD0008BC19091E00D891336C086C18A3009F40A
:102CE00071C18B3009F474C1893009F078C1911138
:102CF0007BC181E08093E50D80E02EDF75C19111ED
:102D000017C08093E50D84E20E9418048093E30DC0
:102D100085E20E941804C82F8093E20D8093E10D94
:102D200081E01ADF8CE0C11101C08BE08093E40DDB
:102D30001092E00D8091E40D8B3041F08C30D9F091
:102D4000882309F451C18093E00D4EC18093E00DBA
:102D500085E20E9418048093E20D9091E10D89179D
:102D600009F442C1882309F43FC18093E10D8CE04E
:102D70008093E40D39C18093E00D8091DF0D8111C6
:102D800004C08091DE0D882351F01092DF0D109267
:102D9000DE0D8091430E8093DD0D82E0DDDE85E265
:102DA0000E9418048093E20D9091E10D891709F4B7
:102DB0001BC1811119C1D0DE84E20E94180488234E
:102DC00041F01092E40D82E080930D021092E50D27
:102DD0000BC18091E30D8111F4CF1092E40D83E0DB
:102DE000F3CF9091E00D863101F1873109F071CF79
:102DF000973111F08093E00D85E20E9418048093D2
:102E0000E20D8111F1C0A8DEE8CF9091E00D95317F
:102E100011F08093E00D84E20E941804892B09F0E0
:102E2000E3C081E099DE86E1A3CF963111F0809373
:102E3000E00D85E20E9418048093E20D882309F4D6
:102E4000D3C087E195CF911118C081E08093E50D43
:102E500084E20E9418048093E30D85E20E94180426
:102E6000C82F8093E20D8093E10D82E075DE8BE246
:102E7000C11101C089E28093E40D8091E40D8B3291
:102E800009F44CC0E8F4882309F4AEC0893209F093
:102E900020CF9091E00D993211F08093E00D85E202
:102EA0000E9418048093E20D9091E10D891709F4B6
:102EB0009BC0882309F498C08093E10D8BE258CF22
:102EC0009091E00D8C3209F46AC08D3209F001CF87
:102ED0009D3211F08093E00D8091DF0D811104C0CF
:102EE0008091DE0D882351F01092DF0D1092DE0DDF
:102EF0008091430E8093DD0D81E02EDE85E20E94FD
:102F000018048093E20D9091E10D891709F46CC0CB
:102F100081116AC01092E10D1FDE39C09091E00D61
:102F20009B3211F08093E00D8091DF0D811104C080
:102F30008091DE0D882369F081E08093DC0D109292
:102F4000DF0D1092DE0D8091430E8093DD0D81E048
:102F500003DE85E20E9418048093E20D9091E10D5A
:102F6000891709F441C081113FC01092E10DF4DDD1
:102F700084E20E9418049091E30D891304C090919B
:102F8000DC0D992341F08093E30D1092DC0D10923B
:102F9000E40D85E019CF82E0DFDD8CE2E9CE9C32E2
:102FA00011F08093E00D85E20E9418048093E20DF9
:102FB0009091E10D8917C1F08823B1F08093E10D64
:102FC0008DE2D6CE911110C081E08093E50D95CEB3
:102FD00091110AC081E08093E50D82E08ECE9111BF
:102FE00003C081E08093E50D8091DB0D882361F1C2
:102FF0008091E20D9091E10D891363C08091D90D0C
:103000009091DA0D009709F453C001979093DA0D6F
:103010008093D90D8091DD0D2091D90D3091DA0D7D
:10302000820F932F911D892B79F484E20E9418045A
:103030008093E30D882309F447C080E08DDD81E0B3
:103040008093DE0D1092DF0D8091D80D813031F428
:1030500083E082DD811102C01092D80D80917B0047
:10306000877F80937B0080E480937C0080917A004E
:10307000806480937A0080917A0086FDFCCF9091E5
:10308000780080917900892798278927813223E069
:10309000920714F160E089E10E94400461E082E15E
:1030A0000E94400460E081E30E94400460E024C08C
:1030B0008091DD0D882309F4ADCF81508093DD0D23
:1030C000A9CF8093E10DA6CF80E046DD81E080931B
:1030D000DF0D1092DE0DB8CF61E0853F914084F0A6
:1030E00089E10E94400460E082E10E94400460E0C7
:1030F00081E30E94400461E080E3CF910C9440049E
:1031000089E10E94400461E082E10E94400461E0A4
:10311000CACFCF93DF93FB0122813381DC01139669
:103120003C932E9312974481558166817781149642
:103130004D935D936D937C93179740855185628580
:10314000738518964D935D936D937C931B971C9696
:10315000EF012C969C01275E3F4F49914D93A2179A
:10316000B307D9F7218D328DFC01328F218FDF918A
:10317000CF9108950F931F93CF93DF93082F10E003
:103180000F5A114FF801D081DD2351F1C82F0E9451
:10319000CE046093370D7093380D8093390D909362
:1031A0003A0DC093360DF8011082C150C73080F43B
:1031B000EC2FF0E061E08827EF51F74E8F4F0C9431
:1031C000A75CF618FC18021908190E1914191A1917
:1031D00061E082E00E94400461E083E00E944004DC
:1031E0008D2FDF91CF911F910F91089582E00E9462
:1031F000400461E084E0F2CF82E00E94400461E09C
:1032000085E0ECCF82E00E94400461E086E0E6CFFA
:1032100082E00E94400461E087E0E0CF82E00E940B
:10322000400461E088E0DACF82E00E94400461E07F
:1032300089E0D4CF82E00E94400461E08AE0CECFF2
:10324000CF92DF92EF92FF920F931F93CF93DF9372
:10325000C091360DC83008F038C0D0E0FE0160E003
:103260008827EA5CF64E8F4F0C94A75C3E197419C0
:10327000761978197A197C197E19801983E00E94D1
:1032800040040E94CE040091370D1091380D20911A
:10329000390D30913A0DFE01EE0FFF1FEE0FFF1FAB
:1032A000EA5EF24FC080D180E280F380DC01CB0186
:1032B000801B910BA20BB30BC816D906EA06FB06BE
:1032C00020F480839183A283B3838FEF8093360DA4
:1032D00060E082E0DF91CF911F910F91FF90EF901E
:1032E000DF90CF900C94400484E0C9CF85E0C7CF35
:1032F00086E0C5CF87E0C3CF88E0C1CF89E0BFCFEC
:103300008AE0BDCF8F929F92AF92BF92CF92DF9211
:10331000EF92FF920F931F93CF93DF9300D01F92F2
:10332000CDB7DEB7FC018581813091F080E00F9050
:103330000F900F900F90DF91CF911F910F91FF9001
:10334000EF90DF90CF90BF90AF909F908F900895B7
:10335000848181FFEBCF83899489A589B689892BE4
:103360008A2B8B2B09F45FC07F0140E050E0BA014B
:10337000CF010E94C60A8823C9F2F701C38CD48CFE
:103380008788908CA18CB28C82E090E0A0E0B0E0C5
:10339000F60180839183A283B3839E012F5F3F4F09
:1033A000B501A401C6010E948909882309F4BECF92
:1033B00000E010E09801B501A401C6010E94E808F0
:1033C000882309F4B3CF89809A80AB80BC80F60152
:1033D0008789803119F188EF9FEFAFEFBFE0881642
:1033E0009906AA06BB06C8F2F701178A108E118E3D
:1033F000128E138A148A158A168A848180688483BF
:1034000061E0C7010E945A0D882309F48FCF40E084
:1034100050E0BA01C7010E94C60A89CF88EF9FEF2A
:10342000A0E0B0E0DCCF81E082CFCF92DF92EF92DC
:10343000FF921F93CF93DF93EC0180E2689FF0012E
:103440001124E450F14F9385917161F0842F8274BF
:1034500049F080E0DF91CF911F91FF90EF90DF90D6
:10346000CF900895142F6A8B80910F0290911002D3
:10347000A0911102B09112028E879F87A88BB98B01
:10348000C488D588F12CE12C7601DD24CC24CF8AA8
:10349000D88EE98EFA8E828D938DB0E0A0E0AC01DB
:1034A000BD014C295D296E297F294F8B588F698F6B
:1034B0007A8F83858871B1F4848D958DA68DB78DB3
:1034C0008B8B9C8BAD8BBE8B81E08D831F701C839F
:1034D0001E821F82188619861A861B861C861D86E8
:1034E00081E0B8CF803109F0B4CF9E012D5E3F4F0F
:1034F0008B8D9C8D0E94090A882309F4AACF84E051
:10350000E4CF41E0682F88E60E946B011092FB0E29
:103510008093FA0E089588E60E940A0260E081E82E
:1035200092E105DA0E94140281E090E0EADF0E9455
:103530005801805887FB882780F90895CF92DF9241
:10354000FF920F931F93CF93DF936C0188E60E9445
:103550000A0263E081E892E1EAD90E94140287E05E
:1035600090E0CFDF0E9458018F77282F30E094E061
:10357000359527959A95E1F7922F990F990FC22FBC
:10358000C91BCC0FC80F0E9458019C0144E035951F
:1035900027954A95E1F72F703327922F990F990FAE
:1035A000D22FD91BDD0FD80F0E9458019C0154E087
:1035B000359527955A95E1F72F703327922F990F5C
:1035C000990F122F191B110F180F0E9458019C01FF
:1035D00064E0359527956A95E1F72F703327922F90
:1035E000990F990F022F091B000F080F0E94580115
:1035F0000E9458019C0174E0359527957A95E1F772
:103600002F703327922F990F990FF22EF91AFF0C72
:10361000F80E0E9458019C01E4E035952795EA9543
:10362000E1F72F703327922F990F990F291B220F43
:10363000820FF6018083F18202831383D483C583D2
:10364000C601DF91CF911F910F91FF90DF90CF9036
:103650000895CF92DF92FF920F931F93CF93DF9342
:103660006C0188E60E940A0260E081E892E15FD97D
:103670000E94140287E090E044DF0E9458018F7797
:10368000282F30E094E0359527959A95E1F7922F11
:10369000990F990FC22FC91BCC0FC80F0E94580158
:1036A0009C0144E0359527954A95E1F72F70332723
:1036B000922F990F990FD22FD91BDD0FD80F0E948F
:1036C00058019C0154E0359527955A95E1F72F70E4
:1036D0003327922F990F990F122F191B110F180FC3
:1036E0000E9458010E9458019C0164E0359527957D
:1036F0006A95E1F72F703327922F990F990F022FB8
:10370000091B000F080F0E9458019C0174E03595B9
:1037100027957A95E1F72F703327922F990F990FFC
:10372000F22EF91AFF0CF80E0E9458019C01E4E0F9
:1037300035952795EA95E1F72F703327922F990F4A
:10374000990F291B220F820FF6018083F1820283D9
:103750001383D483C583C601DF91CF911F910F914D
:10376000FF90DF90CF9008951F93CF93DF939C013C
:10377000C9E3DEE011E01A838FB78B83F894B901B7
:103780007695679590E080E0605C7D4B804F9F4F21
:1037900050E040E00E94395CDA01C90123E0880F63
:1037A000991FAA1FBB1F2A95D1F7998388839093ED
:1037B0008700809386008B818FBFE1E8F0E08081F5
:1037C000887F808390812A81922B90838BE995E179
:1037D0009D838C8310936F008081822B8083DF9187
:1037E000CF911F910895EF92FF920F931F93CF9364
:1037F000DF937C018C01C8E0D0E0CE010E94145C14
:10380000F80181938F012196CC30D105B1F7C70122
:10381000DF91CF911F910F91FF90EF900895EF925C
:10382000FF920F931F93CF93DF937C018C01D0E025
:10383000C0E0CE010E94145CF80181938F012196B3
:10384000C431D105B1F7C701DF91CF911F910F911D
:10385000FF90EF9008950F931F93CF93DF938C0108
:10386000EB010E94145C8883C80101960E94145CDD
:103870008983CE01DF91CF911F910F910895CF934E
:10388000DF93EB010E94145C8883CE01DF91CF911E
:1038900008952F923F924F925F926F927F928F92F4
:1038A0009F92AF92BF92CF92DF92EF92FF920F93CF
:1038B0001F93CF93DF93CDB7DEB7A3970FB6F894DE
:1038C000DEBF0FBECDBF582E462E372ECE0101963D
:1038D000A6DF8B859C8599A388A30B811C810F5F34
:1038E0001F4F1F8E212C852C912CF4013197FBA3A7
:1038F000EAA388A199A128161906B0F56E0196E1F0
:10390000C90ED11C642C732CF12CE12CE814F904A1
:1039100039F1B601C8018E0D9F1DB1DFF301819110
:103920003F01F6019081FFEFCF1ADF0A981318C00C
:103930008AA19BA1E816F9067CF0BE016B5E7F4F61
:10394000C80101979CDF8D89851541F191E09F8F1A
:10395000065F1F4F2394CDCFEFEFEE1AFE0AD6CFAE
:10396000FF8DFF23A9F3E9CF80E0A3960FB6F8946B
:10397000DEBF0FBECDBFDF91CF911F910F91FF90A2
:10398000EF90DF90CF90BF90AF909F908F907F90FF
:103990006F905F904F903F902F90089581E0E5CF1A
:1039A0002F923F924F925F926F927F928F929F924F
:1039B000AF92BF92CF92DF92EF92FF920F931F933D
:1039C000CF93DF93CDB7DEB7A3970FB6F894DEBFE2
:1039D0000FBECDBF582E462E372ECE01099603DFDF
:1039E00089859A8599A388A31F8E212C85E1E82ECD
:1039F000F12C852C912CF4013197FBA3EAA388A12B
:103A000099A128161906B0F56E0196E1C90ED11CD0
:103A1000642C732C10E000E00815190539F1B6018B
:103A2000C701800F911F2BDFF30181913F01F60148
:103A30009081FFEFCF1ADF0A981318C08AA19BA1CB
:103A40000817190784F0BE016B5E7F4FC70101970D
:103A500016DF8D89851541F191E09F8FFAE0EF0E19
:103A6000F11C2394CCCF0F5F1F4FD6CFEF8DEE23E9
:103A7000A9F3E9CF80E0A3960FB6F894DEBF0FBE9E
:103A8000CDBFDF91CF911F910F91FF90EF90DF900D
:103A9000CF90BF90AF909F908F907F906F905F90EE
:103AA0004F903F902F90089581E0E5CFCF92DF9225
:103AB000EF92FF920F931F93CF93DF93EB017B0164
:103AC0002AE0E20EF11C8B016C01C61AD70AC6016E
:103AD000800F911F0E94145CF80181938F01EE15F5
:103AE000FF05A9F7CE01DF91CF911F910F91FF90B4
:103AF000EF90DF90CF900895FC0144815581809133
:103B00006616909167168417950780F0809162166B
:103B100090916316009751F0608171816115710574
:103B200029F00E94CD5D21E0892B09F020E0822F51
:103B30000895FB0101900020E9F73197AF01461B82
:103B4000570BDC01ED91FC910280F381E02D19947B
:103B50008F929F92AF92BF920F931F93CF93DF9359
:103B6000CDB7DEB7A1970FB6F894DEBF0FBECDBFBD
:103B700019A2423008F44AE08E010F5D1F4F842ED7
:103B8000912CB12CA12CA50194010E94395CE62F47
:103B9000B901CA01EA30FCF4E05DD801EE938D0171
:103BA000232B242B252B79F790E080E0109721F030
:103BB000BD0189E991E1BDDFA1960FB6F894DEBFA2
:103BC0000FBECDBFDF91CF911F910F91BF90AF90EE
:103BD0009F908F900895E95CE0CFCF93DF93682F9B
:103BE00070E090E080E04AE0B3DFEC0164E673E06F
:103BF00089E991E19EDF8C0F9D1FDF91CF910895A0
:103C0000CF93DF93BC0189E991E193DFEC0164E696
:103C100073E089E991E18DDF8C0F9D1FDF91CF91DA
:103C200008950F931F93CF93DF93EC01FB01448121
:103C3000558160817181E881F9810280F381E02DF5
:103C400019958C0164E673E0CE0173DF800F911F3C
:103C5000DF91CF911F910F910895FC018081918197
:103C6000009711F00C94875B60E070E0CB01089541
:103C7000AF92BF92CF92DF92EF92FF920F931F937A
:103C8000CF93DF936B01EA01FB014481558141151C
:103C9000510561F1FC01248135812115310531F196
:103CA0002417350718F1C217D30710F0E90121973F
:103CB000FC0100811181C801AA24AA94BB24BA94F2
:103CC0007801EC0EFD1EE816F906A0F0F601608101
:103CD00071810E94EA5D009769F09C01201B310B05
:103CE000C217D30708F059010196EDCFAA24AA9470
:103CF000BB24BA94C501DF91CF911F910F91FF9022
:103D0000EF90DF90CF90BF90AF900895CF93DF9367
:103D1000FC01248135814217530788F4C081D18189
:103D2000FB0160817181CE01840F951F0E94EA5DC5
:103D3000009729F08C1B9D0BDF91CF9108958FEF99
:103D40009FEFFACF50E040E0E1CF2F923F924F92A9
:103D50005F926F927F928F929F92AF92BF92CF921B
:103D6000DF92EF92FF920F931F93CF93DF93FC01AB
:103D7000448055804114510409F4CCC0FB01648097
:103D800075806114710409F4C5C07A016B01EC01FE
:103D9000FA01A480B580A618B70808811981A1147A
:103DA000B104B9F4F60160817181C8010E94EA5D35
:103DB0008C01009709F4AEC0F701608171814481E4
:103DC00055810E94985DF70184819581080F191F24
:103DD000E9CFB7FC10C0FB01208031804201C8014F
:103DE000B1010E94EA5D009709F448C0860D971D55
:103DF0008A0C9B1CF5CF3801F60160817181C801E6
:103E00000E94EA5D2C01009719F14C01801A910A79
:103E1000A401B801C3010E94985D680C791CF701E8
:103E20006081718144815581C3010E94985DF701D1
:103E300084809580680C791CF60104811581040D3D
:103E4000151D8C819D818A0D9B1D9D838C83D4CFF4
:103E5000B801C301DF91CF911F910F91FF90EF90B7
:103E6000DF90CF90BF90AF909F908F907F906F909A
:103E70005F904F903F902F900C94C65D481459046A
:103E800009F448C08A819B818815990560F4B401C2
:103E90006F5F7F4FC8010E94AF5C0097D9F1998393
:103EA00088839B828A824C815D814150510957FDF4
:103EB00031C0B601CE01DCDE8C0197FD2BC0F601CE
:103EC00024813581280F391F88819981820F931FA2
:103ED0004C815D81421B530BBC018A0D9B1D0E94CE
:103EE000A15D8C819D818A0D9B1D9D838C83288182
:103EF0003981820F931FFC01108288819981F7011B
:103F00006081718144815581800F911F0E94985D6D
:103F1000A801CBCFDF91CF911F910F91FF90EF9030
:103F2000DF90CF90BF90AF909F908F907F906F90D9
:103F30005F904F903F902F9008950F931F93CF93D2
:103F4000DF93EC0188819981009759F02A813B81A8
:103F50002617370730F081E0DF91CF911F910F9145
:103F600008958B016F5F7F4F0E94AF5C009759F0FF
:103F7000998388831B830A832C813D81232B59F7E6
:103F8000FC011082E8CF80E0E7CFEF92FF920F9321
:103F90001F93CF93DF936115710541F480E0DF91AA
:103FA000CF911F910F91FF90EF900895411551050A
:103FB000A9F07B01EC010C811D81040F151FB801D4
:103FC000BCDF882359F3288139818C819D81B70119
:103FD000820F931F0E94C65D1D830C8381E0DFCF9B
:103FE000FB0101900020E9F73197AF01461B570B09
:103FF000CCCFFB014481558160817181C6CFFC012A
:1040000024813581FB014481558124173507A0F0B7
:10401000FC0180819181009779F0FB0160817181C1
:104020006115710549F0241B350B820F931F0E9407
:10403000BD5D21E0892B09F020E0822F0895FC016D
:1040400024813581232B39F421E0FB0180818823F1
:1040500049F020E007C0808191810E94BD5D21E090
:10406000892BB9F7822F0895CF93DF93EC01A881B4
:10407000B981EB01E881F9811097F1F03097B1F443
:10408000EC018C819D81892BC9F08C9190E00BC053
:10409000DB0114968D919C91892B81F0808190E0B9
:1040A000919581959109DF91CF910895BF01CD013F
:1040B000DF91CF910C94BD5D309751F790E080E097
:1040C000F2CF0F931F93CF93DF938C01EB01FC0191
:1040D000808191810097E1F0688179816115710596
:1040E000A9F0428153812C813D814217530770F022
:1040F0000E94C65D8C819D81F801958384831D8219
:104100001C82DF91CF911F910F9108950E94FE595B
:1041100088819981F801918380838A819B8193832F
:1041200082838C819D8195838483198218821B826E
:104130001A82E5CFCF93DF93EC01888199810097B4
:1041400011F00E94FE59198218821D821C821B8266
:104150001A82DF91CF9108950F931F93CF93DF932E
:104160001F921F92CDB7DEB78C0169831A8241E09E
:1041700050E0BE016F5F7F4F08DF811102C0C801B0
:10418000D9DFC8010F900F90DF91CF911F910F9150
:104190000895CF93DF93EC01FB0101900020E9F734
:1041A0003197AF01461B570BF0DE811102C0CE01E3
:1041B000C1DFCE01DF91CF910895CF93DF93EC0162
:1041C000FB014481558160817181DFDE811102C074
:1041D000CE01B0DFCE01DF91CF910895EF92FF9233
:1041E0000F931F93CF93DF93EC017B018A01BA01F8
:1041F000A4DE81110AC0CE019DDFCE01DF91CF91F7
:104200001F910F91FF90EF9008951D830C83B701CC
:10421000888199810E94C65DF0CFFB01019000204A
:10422000E9F73197AF01461B570BD8CF0F931F9378
:10423000CF93DF93CDB7DEB761970FB6F894DEBFAB
:104240000FBECDBF8C01CB01F80111821082138209
:104250001282158214824AE0BE016F5F7F4F0E9476
:10426000E85BBE016F5F7F4FC801D7DF61960FB675
:10427000F894DEBF0FBECDBFDF91CF911F910F919C
:1042800008950F931F93CF93DF9300D000D000D0F9
:10429000CDB7DEB78C01862FF80111821082138210
:1042A00012821582148250E0BE016F5F7F4F90E052
:1042B0000E94DE5BBE016F5F7F4FC801AEDF2996B3
:1042C0000FB6F894DEBF0FBECDBFDF91CF911F9127
:1042D0000F910895CF93DF931F921F92CDB7DEB752
:1042E000FC0111821082138212821582148269836A
:1042F0001A82BE016F5F7F4F90DF0F900F90DF91AA
:10430000CF910895CF93DF93EC01FB0186179707B8
:1043100041F0608171816115710539F044815581E9
:104320005DDFCE01DF91CF91089504DFFACFFC016C
:10433000118210821382128215821482E3CFFC0153
:104340001182108213821282158214826115710506
:1043500049F0FB0101900020E9F73197AF01461BBE
:10436000570B3CCF0895AF92BF92CF92DF92EF925E
:10437000FF920F931F93CF93DF936C015B017A0140
:1043800089012417350720F48F2D7901042F182F68
:104390006FEE77E0C601D3DFD5011496CD91DC91A5
:1043A000EC16FD06D8F40C171D0708F4E801D5013A
:1043B000ED91FC911197EC0FFD1F108110826D9112
:1043C0007C916E0D7F1DC6016115710599F025DF89
:1043D000F50180819181C80FD91F1883C601DF9133
:1043E000CF911F910F91FF90EF90DF90CF90BF90F2
:1043F000AF9008959FDEECCF1F93CF93DF93EC0136
:10440000162F63EE72E09BDF173098F4E12FF0E097
:104410008827E25FFD4D8F4F0C94A75C15221E226A
:104420002122242227222A222D226DEE72E0CE01A3
:10443000F4DECE01DF91CF911F91089569EF72E014
:10444000F6CF65E073E0F3CF6BE173E0F0CF67E2A6
:1044500073E0EDCF6DE273E0EACF61E473E0E7CFA4
:10446000FC0180819181009711F00C94FE59089510
:104470009F92AF92BF92CF92DF92EF92FF920F93F3
:104480001F93CF93DF93CDB7DEB7AA970FB6F894FB
:10449000DEBF0FBECDBF7C018B0180913F0E81300E
:1044A00009F085C023E130E041E150E0CE014F96B4
:1044B0005ADFCE014F96D1DBD62E20E130E04EE020
:1044C00050E0B801CE0149964EDFCE014996C5DBDA
:1044D000C62E2DE030E04BE050E0B801CE0143960F
:1044E00042DFCE014396B9DBB62E22E030E050E049
:1044F00040E0B801CE010D9636DFCE010D96ADDB62
:10450000A62E25E030E043E050E0B801CE0107964A
:104510002ADFCE010796A1DB962E2AE030E046E0A6
:1045200050E0B801CE0101961EDFCE01019695DB69
:104530009B01603D774010F0205D37402DA39EA287
:10454000AFA2B8A6C9A6DAA6CE0185960E943515F7
:10455000CE01019685DFCE01079682DFCE010D9652
:104560007FDFCE0143967CDFCE01499679DFCE0115
:104570004F9676DFF7011182108213821282158224
:104580001482B801C7019DDDC701AA960FB6F89441
:10459000DEBF0FBECDBFDF91CF911F910F91FF9076
:1045A000EF90DF90CF90BF90AF909F9008958230B2
:1045B00009F723E130E041E150E0CE014F96D3DE30
:1045C000CE014F964ADBD62E20E130E04EE050E09F
:1045D000B801CE014996C7DECE0149963EDBC62E14
:1045E0002DE030E04BE050E0B801CE014396BBDE59
:1045F000CE01439632DBB62E22E030E050E040E0C0
:10460000B801CE010D96AFDECE010D9626DBA62EAB
:1046100025E030E043E050E0B801CE010796A3DE8C
:10462000CE0107961ADB962E2AE030E046E050E0F5
:10463000B801CE01019697DECE0101960EDB9B01FB
:10464000603D774010F0205D37402DA39EA2AFA2C1
:10465000B8A6C9A6DAA6CE0185960E94C51478CF61
:104660008F929F92AF92BF92CF92DF92EF92FF9282
:104670000F931F93CF93DF9300D000D0CDB7DEB759
:104680007C01A62E6A016FEE77E059DE8601D12CFF
:10469000C12CB12CCA14DB0424F5C114D10421F0BF
:1046A00067E27CE0C7019CDC4801F8018081803131
:1046B00020F46DE673E0C70193DC0F5F1F4F40E10C
:1046C000F4016081CE010196DCDDBE016F5F7F4F9A
:1046D000C7018FDCCE010196C3DEFFEFCF1ADF0AE0
:1046E000D9CFC70126960FB6F894DEBF0FBECDBF57
:1046F000DF91CF911F910F91FF90EF90DF90CF90BE
:10470000BF90AF909F908F9008950F931F93CF937A
:10471000DF9300D000D0CDB7DEB711E08CEF90E191
:104720000E94F402892B09F43CC08CEF90E10E94B6
:10473000D2028093550D90913D0D992339F18091CE
:104740003B0D90913C0D019690933C0D80933B0D59
:1047500080910202909103028734910591F468E5FB
:1047600073E0CE010196EBDDBE016F5F7F4F82E605
:1047700096E145DC082FCE01019672DE01111093FF
:104780003D0D10925B0D10925A0DC8CF89831A828D
:1047900041E050E0BE016F5F7F4F82E696E1F5DBBE
:1047A000D7CF26960FB6F894DEBF0FBECDBFDF91F0
:1047B000CF911F910F910895A8CF80E090E0892BB1
:1047C00029F00E941B0381110E94000080E090E00C
:1047D000892B29F00E94120381110E94000080E0C1
:1047E00090E0892B29F00E94090381110E940000AA
:1047F0000E940003811189CF0895EF92FF920F93D9
:104800001F93CF93DF9300D000D0CDB7DEB78C01DC
:104810006FEE77E094DD86EFE82E8FE0F82EC7018B
:104820000E94145C8F3FC9F46DE673E0C801D8DBC9
:104830008FEFE81AF80AE11480E1F80681F7C80161
:1048400026960FB6F894DEBF0FBECDBFDF91CF9195
:104850001F910F91FF90EF900895682FCE01019660
:1048600039DDBE016F5F7F4FC801C3DBCE0101960A
:10487000F7DDDECFCF93DF9300D000D0CDB7DEB72A
:10488000BC01CE01019653DD67E673E0CE010196CF
:1048900080DCBC0188E696E135DDCE010196E0DDE5
:1048A00081E080936B0D26960FB6F894DEBF0FBEA5
:1048B000CDBFDF91CF910895DF92EF92FF920F93DA
:1048C0001F93CF93DF93CDB7DEB7E6970FB6F8947B
:1048D000DEBF0FBECDBF7C01D62E8A016FEE77E022
:1048E0002EDDCE0101960E940F1C1016110644F415
:1048F00021E4D21609F459C032E4D31609F49CC05D
:104900006D817E81CE01C19691DC69817A81CE0173
:104910008B968CDC6F817885CE01859687DC6B81E8
:104920007C81CE014F9682DC6FE673E0CE01459626
:1049300006DDBE01615E7F4FCE0145963EDC68E735
:1049400073E027DCBE016B5D7F4F37DC67E27CE004
:1049500020DCBE01655D7F4F30DC68E773E019DC69
:10496000BE016F5C7F4F29DCBC01C70142DBCE0179
:10497000459676DDCE014F9673DDCE01859670DDCE
:10498000CE018B966DDDCE01C1966ADDC701E6963C
:104990000FB6F894DEBF0FBECDBFDF91CF911F9150
:1049A0000F91FF90EF90DF9008958F819885801789
:1049B000910708F4A5CF8B819C81009709F4A0CFC3
:1049C000015011094AE0409F9001419F300D112490
:1049D000BE016B5E7F4F820F931F68D810E0812F5E
:1049E000012E000C990B2D892817190679F274F203
:1049F000E6E1F0E0EC0FFD1F8E0F9F1FFC016081D0
:104A000040E1CE018596603100F53BDC6CE673E059
:104A1000CE014F9694DCBE016B5D7F4FCE014F9669
:104A2000CCDBBC01C701E5DACE014F9619DDCE0122
:104A3000859616DD1F5FD3CF8D819E8180179107EC
:104A400008F45ECF89819A81B8CF1BDC67E27CE0F5
:104A5000DFCFCF93DF93EC01898D9A8D009741F0E2
:104A60000E94EC0D898D9A8D0E94FE591A8E198E26
:104A7000DF91CF9108950F931F93CF93DF93CDB71D
:104A8000DEB762970FB6F894DEBF0FBECDBF8C01C4
:104A9000CB01F801118210821382128215821482D6
:104AA00050E0BE016F5F7F4F0E94B55BBE016F5F3C
:104AB0007F4FC801B2DB62960FB6F894DEBF0FBE1F
:104AC000CDBFDF91CF911F910F910895AF92BF920B
:104AD000CF92DF92EF92FF920F931F93CF93DF93CA
:104AE0001F921F92CDB7DEB78C016B015A017A017C
:104AF00081E0E81AF1086AE773E0C601A0DA8823CA
:104B0000D1F0BE016F5F7F4FC5018F52904F0E9461
:104B10003F1C4AE06981C801B4DBC8010F900F90C7
:104B2000DF91CF911F910F91FF90EF90DF90CF9089
:104B3000BF90AF9008956EE773E0C60180DA8823D6
:104B400049F0BE016F5F7F4FC5018F52904F0E94A9
:104B50003F1CDFCF62E873E0C60171DA882379F089
:104B6000C701880F991FBE016F5F7F4F8E52904F14
:104B70000E942B1C69817A81C80158DBCECF66E880
:104B800073E0C6015CDA882381F0C701880F991FA2
:104B9000BE016F5F7F4F8E52904F0E942B1C698128
:104BA0007A814AE0C80167DFB8CF6AE873E0C801DC
:104BB000C6DBB3CF3F924F925F926F927F928F92FC
:104BC0009F92AF92BF92CF92DF92EF92FF920F939C
:104BD0001F93CF93DF9300D000D000D01F921F927D
:104BE000CDB7DEB77C01DC0115968C91811115C023
:104BF000FE013196CE010C966F0130E23193E81739
:104C0000F907E1F7DA0130E087E09D91B92E9923A9
:104C100029F19E3239F48A3011F480E0DAC038E0AC
:104C20008AE0F3CFE4EEF0E04491442321F03196A2
:104C30009413FACFF2CF831780F34FED490F4E351F
:104C400060F74FE9490F4A3118F440EEB42EB90E1F
:104C5000F601E30FF11DB0823F5FD7CF898180322B
:104C6000E1F2322E8B01FB01838D948DD7015C968E
:104C70009C938E935B9716821782108611861286FC
:104C8000138614861586F80182859385A485B585DB
:104C9000438954896589768984179507A607B707DC
:104CA00008F04DC025E0B695A795979587952A956C
:104CB000D1F7F82FFF70AF2ED80115968C91823066
:104CC00008F4ABCFC8010E94751197FDA6CFF8017B
:104CD00082859385A485B5854F96A11DB11D8287D8
:104CE0009387A487B587F0E2AF9EB001112464508A
:104CF000714F6115710509F490CFDB018C91882308
:104D000041F0853E09F058C0BB2029F0BB24B39484
:104D1000BACFB1100EC0F701A28A80910F02909114
:104D20001002A0911102B091120286879787A08B82
:104D3000B18BDB018C918111E9CFBB24B394832D1E
:104D40008271823109F069CFBB2009F45AC0C701D2
:104D50000E94A907009709F460CF20E2FC0111929C
:104D60002A95E9F72BE0F601DC0101900D922A95D6
:104D7000E1F721E238E2DC0151963C932E93509703
:104D800040E058E01F965C934E931E9753963C93D9
:104D90002E93529759963C932E93589757965C931F
:104DA0004E93569781E00E943807882309F435CF47
:104DB000432DF70162890AC04BE050E0C6010E9412
:104DC0008B5D892B09F05FCF432D6A2DC7010E94AF
:104DD000151A2B960FB6F894DEBF0FBECDBFDF912C
:104DE000CF911F910F91FF90EF90DF90CF90BF90E8
:104DF000AF909F908F907F906F905F904F903F907B
:104E00000895F8018581823009F407CFC8010E9416
:104E1000590B882309F401CFD8015B96ED91FC91E1
:104E20005C9716968D909D90AD90BC901997B2E0CE
:104E30008B1A9108A108B108858504C0880C991CBB
:104E4000AA1CBB1C8A95D2F786859785A089B18953
:104E5000880E991EAA1EBB1E848124013501480EAE
:104E6000511C611C711C84149504A604B70409F13B
:104E7000E1E04E1A51086108710881E00E9438078C
:104E8000882309F4CACEECEFFEE011928CEF90E19A
:104E90008E179F07D1F740920F0250921002609236
:104EA00011027092120280912B0E816080932B0E62
:104EB000DACFD8015B96ED91FC91258580E092E0F8
:104EC000A0E0B0E004C0880F991FAA1FBB1F2A955D
:104ED000D2F7F8014389548965897689840F951F33
:104EE000A61FB71F838B948BA58BB68BD7015296C9
:104EF0001C928CEF9EE031CFCF93DF93CDB7DEB71E
:104F00006D970FB6F894DEBF0FBECDBF442391F16D
:104F1000AB01BC011C821B828FE992E09A838983DA
:104F20001E8222E0CE01019645DE81110EC090E086
:104F300081E0911101C080E06D960FB6F894DEBF5C
:104F40000FBECDBFDF91CF910895CE0101960E9493
:104F50008219882361F3CE0101960E94A907009768
:104F600031F325EEFC0120831E8281E00E94380788
:104F7000982FDECF81E0E0CF1F93CF93DF93CDB7A3
:104F8000DEB76D970FB6F894DEBF0FBECDBFAB0195
:104F90001C821B822FE932E03A8329831E8221E0A2
:104FA000BC01CE01019606DE11E081110CC010E0BB
:104FB000812F6D960FB6F894DEBF0FBECDBFDF9187
:104FC000CF911F910895CE0101960E94EC0DF0CF74
:104FD0009F92AF92BF92CF92DF92EF92FF920F9388
:104FE0001F93CF93DF93CDB7DEB72C970FB6F8940E
:104FF000DEBF0FBECDBF7C016B01942EB22EA32E5F
:10500000DC0112968D919C91DC01ED91FC91008464
:10501000F185E02D1995F70182819381DC01ED91F5
:10502000FC910084F185E02D1995F701A281B381EF
:10503000892B41F0ED91FC9111970284F385E02DCD
:10504000CD01E8CFF6018081F701848370E060E054
:10505000CD010E94A41370E060E0D70112968D91FB
:105060009C910E94A4136FEF70E0F70182819381FD
:105070000E94A41361E0600F162F190DD70112963C
:105080008D919C91DC01ED91FC910190F081E02DDE
:10509000612F1995612F70E0719561957109F70184
:1050A000828193810E94A41364ED70E0D70112966F
:1050B0008D919C910E94A413F70182819381492DC7
:1050C00050E0DC01ED91FC910280F381E02DB6010E
:1050D00019959C2DF60114ED8E2F891B891518F456
:1050E0008191180FF9CFF70182819381402F50E011
:1050F000DC01ED91FC910280F381E02D6B2D7A2D86
:1051000019959B2DEB2DFA2D8E2F891B801718F4E6
:105110008191180FF9CFF70182819381612F6195F9
:10512000DC01ED91FC910190F081E02D199570E08A
:1051300060E0F701828193810E94A41386E0EBE195
:10514000F2E0DE01179601900D928A95E1F72AE0D0
:1051500030E046E050E0BE016F5F7F4FC7010E9424
:10516000B61118160CF546E050E0BE01695F7F4F9E
:10517000CE0101960E948B5D21E0892B09F420E08D
:10518000822F81952C960FB6F894DEBF0FBECDBF4F
:10519000DF91CF911F910F91FF90EF90DF90CF9013
:1051A000BF90AF909F9008958EEFECCF9F92AF92FB
:1051B000BF92CF92DF92EF92FF920F931F93CF9304
:1051C000DF93CDB7DEB72C970FB6F894DEBF0FBED6
:1051D000CDBF7C016B01942EB22EA32EDC01129662
:1051E0008D919C91DC01ED91FC910084F185E02D85
:1051F0001995F70182819381DC01ED91FC91008486
:10520000F185E02D1995F701A281B381892B41F039
:10521000ED91FC9111970284F385E02DCD01E8CF4B
:10522000F6018081F701848370E060E0CD010E9487
:10523000A41370E060E0D70112968D919C910E94BA
:10524000A4136FEF70E0F701828193810E94A41391
:1052500061E0600F162F190DD70112968D919C9168
:10526000DC01ED91FC910190F081E02D612F199509
:10527000612F70E0719561957109F70182819381C9
:105280000E94A41364ED70E0D70112968D919C9159
:105290000E94A413F70182819381492D50E0DC0123
:1052A000ED91FC910280F381E02DB60119959C2DC2
:1052B000F60114ED8E2F891B891518F48191180FB2
:1052C000F9CFF70182819381402F50E0DC01ED910D
:1052D000FC910280F381E02D6B2D7A2D19959B2D89
:1052E000EB2DFA2D8E2F891B801718F48191180F42
:1052F000F9CFF70182819381612F6195DC01ED91F6
:10530000FC910190F081E02D199570E060E0F701CB
:10531000828193810E94A41386E0EBE1F2E0DE013A
:10532000179601900D928A95E1F72AE030E046E069
:1053300050E0BE016F5F7F4FC7010E94AD1218168B
:105340000CF546E050E0BE01695F7F4FCE0101964B
:105350000E948B5D21E0892B09F420E0822F81954A
:105360002C960FB6F894DEBF0FBECDBFDF91CF9164
:105370001F910F91FF90EF90DF90CF90BF90AF9073
:105380009F9008958EEFECCFEF92FF920F931F93B3
:10539000CF93DF93EC017B018A011B821A8288EE96
:1053A00093E0A0E0B0E08C839D83AE83BF8385ED66
:1053B00092E0998388838DE190E00E9462599A8FF0
:1053C000898F009779F02DE1F701DC0101900D92B2
:1053D0002A95E1F74CE050E0B801CE010C960E940E
:1053E000DB5D188EDF91CF911F910F91FF90EF90B1
:1053F00008952F923F924F925F926F927F928F9279
:105400009F92AF92BF92CF92DF92EF92FF920F9353
:105410001F93CF93DF93CDB7DEB7C756D1090FB631
:10542000F894DEBF0FBECDBF5C013B01A6964FAF27
:10543000A69719A218A28FE992E09F8F8E8F1BA2C8
:105440001C821B829A8389831E824E018EE1880E04
:10545000911CC4010E94730A63018E010F5F1F4FEC
:10546000240118016FE270E0C6010E94B25D00974E
:1054700009F457C0F60120812F3271F4FFEFCF1AE3
:10548000DF0A902F812F8201492E582E942D852DD1
:105490002801092F182FE6CF8C198D3008F08CE0E9
:1054A000E82EF12CA701B601CE01885A9F4F0E9429
:1054B000DB5DE8E5F0E0EC0FFD1FEE0DFF1D108257
:1054C000C8010E94EC0D21E0AE01485A5F4FB201C5
:1054D000C80170DB81111FC01EAE1DAE8FE992E0C6
:1054E0009CAF8BAF21961FAE2197A896EEADFFAD76
:1054F000A8976E0E7F1EF301808181111FC0BE012F
:10550000655C7F4FC1010E94AF1048E753E0B101D5
:10551000C5013ADF31C0CE0CDF1CC2010E94EC0D88
:10552000B5CFC60186199709A8969FAF8EAFA897E9
:10553000B201CE01CB960E94AF10D7CF19A218A20C
:105540008FE992E09F8F8E8F1BA221968FAD2197BE
:1055500081112DC0F5011382128288EE93E0A0E044
:10556000B0E084839583A683B78385ED92E0918331
:105570008083128E118E1486C501C959DF4F0FB674
:10558000F894DEBF0FBECDBFDF91CF911F910F9179
:10559000FF90EF90DF90CF90BF90AF909F908F9053
:1055A0007F906F905F904F903F902F900895A696B8
:1055B0002FADA697A301BE01655C7F4FC401FADA47
:1055C000882341F2CE01CB960E94EC0DA6968FADBA
:1055D000A6978670863039F449A95AA96BA97CA987
:1055E000C4010E94C60AB401C1010E94AF10A30108
:1055F0008ECF0C941C5CCF92DF92EF92FF920F93B0
:105600001F93CF93DF93C62F6A010EEB1FE0823406
:1056100011F008EC1FE0C43011F0C73021F578011B
:105620008FEFE81AF80A6C2FC801E3DF10E000E002
:10563000D0E0C8018E0D9F1D60E00C171D0724F4FB
:10564000F601E00FF11F6081D4DF0F5F1F4F0730BD
:10565000110579F7DF91CF911F910F91FF90EF9096
:10566000DF90CF900895C111F5CFD0E0C0E060E0A9
:10567000CE01800F911FBDDF2196C830D105B9F74B
:10568000E9CFFF920F931F93CF93DF93EC01F62E98
:1056900008811981C8010E94145CF81621F06F2D51
:1056A000C8010E941C5CCE01DF91CF911F910F9128
:1056B000FF900895CF92DF92EF92FF920F931F9386
:1056C000CF93DF931F921F92CDB7DEB76C017C01A1
:1056D00010E000E01A830983F70161917F01CE0198
:1056E0000196CFDF0F5F1F4F0431110599F7C601F7
:1056F0000F900F90DF91CF911F910F91FF90EF903E
:10570000DF90CF900895EF92FF920F931F93CF9366
:10571000DF931F921F92CDB7DEB78C017B019A8376
:105720008983FB016081CE010196ABDF0F5F1F4FC4
:105730001A830983F7016181CE010196A2DFC701B7
:105740000F900F90DF91CF911F910F91FF90EF90ED
:105750000895AF92BF92CF92DF92EF92FF920F9394
:105760001F93CF93DF931F921F92CDB7DEB78B01AC
:105770006B012AE0C20ED11C7B015C01A61AB70A9C
:10578000C5018E0D9F1D9A838983F70161917F0169
:10579000CE01019676DFEC14FD0491F7C8010F905D
:1057A0000F90DF91CF911F910F91FF90EF90DF90BD
:1057B000CF90BF90AF9008958F929F92AF92BF927B
:1057C000CF92DF92EF92FF920F931F93CF93DF93CD
:1057D000CDB7DEB7E2970FB6F894DEBF0FBECDBFF0
:1057E0006C01F62E8A0164E973E0CE018B960E946B
:1057F0009F211AAA19AACE0101960E940F1C81E4CA
:10580000F81639F082E4F81609F45AC0F12CE12CAC
:1058100032C0EB80FC808B859C859AAB89AB1016DF
:105820001106ECF06AEF73E0C6010E949F21CE01E1
:105830008B960E943022C601E2960FB6F894DEBF26
:105840000FBECDBFDF91CF911F910F91FF90EF90D1
:10585000DF90CF90BF90AF909F908F90089580176A
:10586000910700F301979AAB89ABBE016F5C7F4F44
:105870008AE090E048DF580181E0A81AB1082AE0E8
:105880002A9DC0012B9D900D1124E80EF91E89A9B7
:105890009AA9A816B90658F547018AE0880E911C06
:1058A000BE016B5E7F4FC4010E94561DBE016B5E40
:1058B0007F4FC7014EDF8FEFA81AB80A7401E7CFF8
:1058C000E980FA8089859A859AAB89AB1016110612
:1058D0000CF0A8CF8017910708F4A4CF01979AABDA
:1058E00089ABBE016F5C7F4F88E090E0C3CF4AE098
:1058F000B801CE018596BFD8BE01655D7F4FCE0150
:105900004F960E949721BE016B5D7F4FCE014F964F
:105910000E94DD20BC01C6010E949721CE014F9656
:105920000E943022CE0185960E94302280CFCF93F4
:10593000DF93CDB7DEB7E2970FB6F894DEBF0FBEA8
:10594000CDBF89A7262FDE019A96FB019E2F921BC1
:10595000981718F491919D93F9CF81E489ABCE010A
:1059600001960E940F1C84E1FE013196DE015596DE
:1059700001900D928A95E1F78F89988D4F8D58A1EE
:105980006AE0649F9001659F300D1124BE01675D40
:105990007F4F820F931FDDDE8F8D98A1019698A314
:1059A0008F8FBE01615E7F4F8AE090E0ACDEE296B1
:1059B0000FB6F894DEBF0FBECDBFDF91CF91089533
:1059C000CF93DF93CDB7DEB7E2970FB6F894DEBF83
:1059D0000FBECDBF89A7262FDE019A96FB019E2F11
:1059E000921B981718F491919D93F9CF85E589AB97
:1059F000CE0109960E94F31B84E1FE013196DE017F
:105A0000559601900D928A95E1F72D8D3E8D4AE0D5
:105A1000429FC001439F900D1124BE01675D7F4FDF
:105A2000449697DE8D8D9E8D01969E8F8D8FBE0143
:105A3000635E7F4F88E090E066DEE2960FB6F894F2
:105A4000DEBF0FBECDBFDF91CF910895CF92DF9221
:105A5000FF920F931F93CF93DF93CDB7DEB7E397FA
:105A60000FB6F894DEBF0FBECDBF6C01CE014C96D1
:105A70000E9416026FEE77E0CE0188960E949F2169
:105A800080913F0E8E010F5F1F4F813009F006C1DC
:105A9000C8010E94291B86E0F801DE015C96019096
:105AA0000D928A95E1F789A11F928F9388A11F9289
:105AB0008F938F8D1F928F938E8D1F928F938D8DCD
:105AC0001F928F938C8D90E08053984F9F938F936C
:105AD00082E194E09F938F931F930F930E94045E43
