:1000000011C1000040C100003EC100003CC1000021
:100010003AC1000038C1000036C1000034C1000000
:1000200032C1000030C100002EC100002CC1000010
:100030002AC1000028C1000026C1000024C1000020
:1000400022C1000020C100001EC100001CC1000030
:100050000C94FC0F18C1000016C100000C9427433B
:1000600012C100000C948A3F0C94603F0CC1000048
:100070000AC1000008C1000006C1000004C1000060
:1000800002C1000000C10000FEC000000C94271057
:100090000C94363F0C940D3FF6C000000C94C71032
:1000A000F2C00000F0C00000EEC00000ECC0000094
:1000B000EAC00000E8C00000E6C00000E4C00000A4
:1000C000E2C00000E0C00000DEC000000C94E33E8F
:1000D0000C94BA3ED8C000000C94913E0C94683E3B
:1000E000D2C000007C3C3E5E2B3D3F2F5B5D3B2C35
:1000F0002A225C0000002200250028002B002E0090
:100100003100340002010000050108010B0100006C
:1001100020002300260029002C002F0032000001BF
:10012000000003010601090100000A0B02090C0D81
:100130000E0807030401000000000000000000009A
:1001400000000000000000000000000000000000AF
:10015000000000001211100000000000000000006C
:10016000000000000000000000000000000000008F
:100170002100240027002A002D0030003300010157
:100180000000040107010A010102102020080810E4
:1001900020401020408002010201080402010102F7
:1001A00004081020408080402010080402018004D0
:1001B000020180402010080402010804020101022B
:1001C000040810204080010204081020408005052A
:1001D0000505070508080808020202020A0A0808BD
:1001E00004040404010101010101010103030303EB
:1001F00003030303040707070C0C0C0C0C0C0C0C7A
:100200000202020206060606060606060B0B0B0B8A
:100210000B0B0B0B1F1C1F1E1F1E1F1F1E1F1E0064
:100220004A56325611241FBECFEFD1E2DEBFCDBFFA
:1002300000E00CBF1EE0A0E0B2E0E6E7F1ED00E078
:100240000BBF02C007900D92A233B107D9F72BE183
:10025000A2E3BEE001C01D92AC35B207E1F711E0A8
:10026000C1E1D1E000E006C021970109802FFE0125
:100270000E948564C031D10780E00807A9F70E9479
:10028000A2570C94AA68BCCEDC015996ED91FC9162
:10029000309721F081E09581911101C080E00895AF
:1002A000DC015996ED91FC913097B9F083899489DE
:1002B000A589B6894285538564857585841B950B10
:1002C000A60BB70B811520E89207A105B10538F000
:1002D0008FEF9FE7A0E0B0E0089590E080E0089500
:1002E000DC0159968D919C91009739F0DC01ED91DC
:1002F000FC910480F581E02D199490E080E0089550
:10030000CF93DF931F92CDB7DEB76983DC01ED9108
:10031000FC910280F381E02D41E050E0BE016F5F6F
:100320007F4F19950F90DF91CF910895DC01ED91EA
:10033000FC910190F081E02D1994CF93DF93EC01B3
:1003400065E570E08A819B81F1DF65E570E08A8177
:100350009B81ECDF70E060E08A819B81E7DF70E0E9
:1003600060E08A819B81E2DF70E060E08A819B81AE
:10037000DDDF8A819B81DC01ED91FC910084F185B8
:10038000E02D19958A819B81DC01ED91FC9100841F
:10039000F185E02D1995892B49F08A819B81DC013B
:1003A000ED91FC910284F385E02DEBCFDF91CF91AD
:1003B0000895CF93DF93EC0165E570E08A819B811E
:1003C000B5DF65E570E08A819B81B0DF70E060E0B9
:1003D0008A819B81ABDF70E060E08A819B81A6DF30
:1003E00070E060E08A819B81A1DF8A819B81DC01D2
:1003F000ED91FC910084F185E02D19958A819B8116
:10040000DC01ED91FC910084F185E02D1995892B9B
:1004100049F08A819B81DC01ED91FC910284F38596
:10042000E02DEBCFDF91CF9108952091C512260FDB
:100430003327331F21323105ECF420915913FC018D
:1004400090E080E0243069F082E00895A091C51228
:100450002191AC014B555D4EA40FB52FB11D2C93CE
:100460000196861798F38091C512680F6093C512A4
:1004700080E0089581E00895089508950895E09139
:10048000801380917F13E81730F4F0E0E15AFC4EBE
:10049000808190E008958FEF9FEF089590918013F1
:1004A00080917F132FEF3FEF981748F4E92FF0E08A
:1004B000E15AFC4E208130E09F5F90938013C90188
:1004C000089580917F1390918013891B990B089553
:1004D000CF92DF92EF92FF920F931F93CF93DF9310
:1004E0007C01CB018A0120911013222389F0EB01BA
:1004F0006B01C40ED51ECC15DD0561F06991D701E5
:10050000ED91FC910190F081E02DC7011995F3CF99
:10051000642F8BDFC801DF91CF911F910F91FF9066
:10052000EF90DF90CF900895CF93DF931F92CDB7D8
:10053000DEB76983209110132223F9F02091321342
:10054000203258F021E030E0FC013383228390E038
:1005500080E00F90DF91CF91089580911113E82FE3
:10056000F0E0EE5EFC4E998190838F5F80931113D3
:100570008093321381E090E0ECCF61E0CE010196F0
:1005800054DFF8CF90E080E00895CF93DF939C0193
:10059000CAEED2E181E08A838FB78B83F894B901E8
:1005A0007695679590E080E0605C7D4B804F9F4F33
:1005B00050E040E00E941764DA01C90123E0880F8F
:1005C000991FAA1FBB1F2A95D1F7998388839093FF
:1005D0008700809386008B818FBFE1E8F0E0808107
:1005E000887F808380819A81892B8083DF91CF915E
:1005F0000895CF93DF93FB0122813381DC011396B1
:100600003C932E931297448155816681778114968D
:100610004D935D936D937C931797408551856285CB
:10062000738518964D935D936D937C931B971C96E1
:10063000EF012C969C01275E3F4F49914D93A217E5
:10064000B307D9F7218D328DFC01328F218FDF91D5
:10065000CF9108952F923F924F925F926F927F9227
:100660008F929F92AF92BF92CF92DF92EF92FF92C2
:100670000F931F93CF93DF932C011A0189013B0144
:10068000D0E0C0E06901F12CE12CC215D30511F1D5
:100690000E94B2424B015C01D20112968D919C9155
:1006A000DC01ED91FC910284F385E02D199597FF13
:1006B00025C00115110581F30E94B242681979091C
:1006C0008A099B096C157D058E059F0528F38EEF21
:1006D000209709F08C2FDF91CF911F910F91FF9000
:1006E000EF90DF90CF90BF90AF909F908F907F90D2
:1006F0006F905F904F903F902F900895F3018193FA
:100700003F012196C2CFAF92BF92CF92DF92EF927C
:10071000FF920F931F93CF93DF9300D01F921F92EE
:10072000CDB7DEB77C01062FB72E142F690143E049
:1007300050E0BE016F5F7F4F8DDF181694F08EEF93
:100740009FEF0F900F900F900F900F90DF91CF9130
:100750001F910F91FF90EF90DF90CF90BF90AF90DF
:1007600008958981882319F08DEF9FEFEACF8A8160
:100770008111FACF8B818F3FB9F7960142E050E0AB
:10078000BE016C5F7F4FC70165DF1816C4F68C8110
:100790009D81980F49F782508C83181708F445C043
:1007A000F7011481AA24A394A10E960142E050E01F
:1007B000BE016F5F7F4FC7014DDF18160CF0BFCF32
:1007C0008981853D89F68A818A11CECF4C8150E09E
:1007D0009601602F7B2DC7013DDF2C81082E000C78
:1007E000990B2817190609F0AACF1A52902FE02F5B
:1007F000FB2D8E2F891B821718F48191180FF9CFCA
:10080000960142E050E0BE016F5F7F4FC70122DFDB
:1008100018160CF094CF8981180F09F0A5CF8A81A2
:100820008111A2CF8C8190E08CCF8CEF9FEF89CF8C
:100830002F923F924F925F926F927F928F929F92F0
:10084000AF92BF92CF92DF92EF92FF920F931F93DE
:10085000CF93DF932C011A0189013B01D0E0C0E066
:100860006901F12CE12CC215D30511F10E94B242AD
:100870004B015C01D20112968D919C91DC01ED91AE
:10088000FC910284F385E02D199597FF25C0011591
:10089000110581F30E94B242681979098A099B09FE
:1008A0006C157D058E059F0528F38EEF209709F0C6
:1008B0008C2FDF91CF911F910F91FF90EF90DF90E0
:1008C000CF90BF90AF909F908F907F906F905F90F0
:1008D0004F903F902F900895F30181933F0121960F
:1008E000C2CFAF92BF92CF92DF92EF92FF920F935F
:1008F0001F93CF93DF9300D01F921F92CDB7DEB727
:100900007C01062FB72E142F690143E050E0BE0191
:100910006F5F7F4F8DDF181694F08EEF9FEF0F9073
:100920000F900F900F900F90DF91CF911F910F912B
:10093000FF90EF90DF90CF90BF90AF9008958981A6
:10094000882319F08DEF9FEFEACF8A818111FACFCA
:100950008B818F3FB9F7960142E050E0BE016C5F9A
:100960007F4FC70165DF1816C4F68C819D81980FF3
:1009700049F782508C83181708F445C0F701148199
:10098000AA24A394A10E960142E050E0BE016F5F3D
:100990007F4FC7014DDF18160CF0BFCF8981853D11
:1009A00089F68A818A11CECF4C8150E09601602F62
:1009B0007B2DC7013DDF2C81082E000C990B2817D9
:1009C000190609F0AACF1A52902FE02FFB2D8E2F77
:1009D000891B821718F48191180FF9CF960142E014
:1009E00050E0BE016F5F7F4FC70122DF18160CF089
:1009F00094CF8981180F09F0A5CF8A818111A2CFE8
:100A00008C8190E08CCF8CEF9FEF89CF6091A31207
:100A10008FE10E94DD3F8091A31291E089278093AE
:100A2000A3120895E1E8F0E08081887F808360E090
:100A30008FE10C94DD3FCF939FEF980F923000F53C
:100A40001092951291E090932512909305028230B6
:100A500009F441C0C1E0C093241261E083E20E9426
:100A6000DD3F60E082E20E94DD3FC09398128091FA
:100A7000F7129091F81290939712809396120AC0F1
:100A8000823049F18330D1F1813021F38091981285
:100A9000811104C080912512CF91089581E0809347
:100AA00095128093251280912412813059F461E0CF
:100AB00082E20E94DD3F60E083E20E94DD3F10920F
:100AC0009812E8CF8230D9F761E083E20E94DD3FDF
:100AD00060E082E2F2CF82E08093241261E082E261
:100AE0000E94DD3F60E083E20E94DD3F81E0809371
:100AF00098128091F5129091F612BDCF8091251237
:100B0000882341F280910502882321F0815080934F
:100B10000502C0CF61E082E20E94DD3F61E083E236
:100B20000E94DD3F1092251281E0F1CFCF93DF9339
:100B3000CDB7DEB76D970FB6F894DEBF0FBECDBF51
:100B4000442399F1AB01BC011C821B828DEA92E027
:100B50009A8389831E8222E0CE0101960E944A4E2A
:100B600081110EC090E081E0911101C080E06D968E
:100B70000FB6F894DEBF0FBECDBFDF91CF910895C1
:100B8000CE0101960E944A4A882361F3CE01019664
:100B90000E946545009731F325EEFC0120831E82FB
:100BA00081E00E94F144982FDECF81E0E0CF1F93D7
:100BB000CF93DF93CDB7DEB76D970FB6F894DEBF56
:100BC0000FBECDBFAB011C821B822DEA32E03A83FF
:100BD00029831E8221E0BC01CE0101960E944A4E6B
:100BE00011E081110CC010E0812F6D960FB6F894C2
:100BF000DEBF0FBECDBFDF91CF911F910895CE0113
:100C000001960E94EA4FF0CFCF93DF93EC01898DDC
:100C10009A8D009741F00E94EA4F898D9A8D0E942B
:100C2000BB611A8E198EDF91CF910895FC01818DE1
:100C3000928D009719F061E00C947F490895CF934D
:100C4000DF93EC01E98DFA8D309749F481E090E073
:100C50009B838A8390E080E0DF91CF910895138297
:100C60001282898D9A8D0E94434BE98DFA8D2281E3
:100C70003381232B59F7F0CF9F92AF92BF92CF923F
:100C8000DF92EF92FF920F931F93CF93DF93CDB735
:100C9000DEB72C970FB6F894DEBF0FBECDBF7C0138
:100CA0006B01942EB22EA32EDC0112968D919C9195
:100CB000DC01ED91FC910084F185E02D1995F7019F
:100CC00082819381DC01ED91FC910084F185E02D1E
:100CD0001995F701A281B381892B41F0ED91FC9127
:100CE00011970284F385E02DCD01E8CFF6018081D4
:100CF000F701848370E060E0CD0118DB70E060E014
:100D0000D70112968D919C9111DB6FEF70E0F70186
:100D1000828193810BDB61E0600F162F190DD701E3
:100D200012968D919C91DC01ED91FC910190F081E6
:100D3000E02D612F1995612F70E071956195710912
:100D4000F70182819381F2DA64ED70E0D7011296A7
:100D50008D919C91EBDAF70182819381492D50E0CE
:100D6000DC01ED91FC910280F381E02DB601199533
:100D70009C2DF60114ED8E2F891B891518F4819195
:100D8000180FF9CFF70182819381402F50E0DC01E9
:100D9000ED91FC910280F381E02D6B2D7A2D199558
:100DA0009B2DEB2DFA2D8E2F891B801718F4819126
:100DB000180FF9CFF70182819381612F6195DC01D2
:100DC000ED91FC910190F081E02D199570E060E0CB
:100DD000F70182819381AADA86E0EDE1F2E0DE019B
:100DE000179601900D928A95E1F72AE030E046E0EF
:100DF00050E0BE016F5F7F4FC7012CDC18160CF569
:100E000046E050E0BE01695F7F4FCE0101960E942F
:100E1000696521E0892B09F420E0822F81952C96C9
:100E20000FB6F894DEBF0FBECDBFDF91CF911F91FB
:100E30000F91FF90EF90DF90CF90BF90AF909F9079
:100E400008958EEFECCF9F92AF92BF92CF92DF9238
:100E5000EF92FF920F931F93CF93DF93CDB7DEB73F
:100E60002C970FB6F894DEBF0FBECDBF7C016B018F
:100E7000942EB22EA32EDC0112968D919C91DC0152
:100E8000ED91FC910084F185E02D1995F7018281A7
:100E90009381DC01ED91FC910084F185E02D1995A1
:100EA000F701A281B381892B41F0ED91FC9111975B
:100EB0000284F385E02DCD01E8CFF6018081F701B2
:100EC000848370E060E0CD0131DA70E060E0D7014A
:100ED00012968D919C912ADA6FEF70E0F701828172
:100EE000938124DA61E0600F162F190DD701129655
:100EF0008D919C91DC01ED91FC910190F081E02DB0
:100F0000612F1995612F70E0719561957109F70155
:100F1000828193810BDA64ED70E0D70112968D9196
:100F20009C9104DAF70182819381492D50E0DC0124
:100F3000ED91FC910280F381E02DB60119959C2D75
:100F4000F60114ED8E2F891B891518F48191180F65
:100F5000F9CFF70182819381402F50E0DC01ED91C0
:100F6000FC910280F381E02D6B2D7A2D19959B2D3C
:100F7000EB2DFA2D8E2F891B801718F48191180FF5
:100F8000F9CFF70182819381612F6195DC01ED91A9
:100F9000FC910190F081E02D199570E060E0F7017F
:100FA00082819381C3D986E0EDE1F2E0DE011796FC
:100FB00001900D928A95E1F72AE030E046E050E09A
:100FC000BE016F5F7F4FC70133DC18160CF546E09A
:100FD00050E0BE01695F7F4FCE0101960E946965B6
:100FE00021E0892B09F420E0822F81952C960FB601
:100FF000F894DEBF0FBECDBFDF91CF911F910F914F
:10100000FF90EF90DF90CF90BF90AF909F900895AA
:101010008EEFECCF40E052EC61E070E0FC018281A9
:1010200093810C94983940E052EC61E070E0FC014F
:10103000828193810C949839EF92FF921F93CF9302
:10104000DF93182FEB017A0190917F138091801329
:10105000981719F00E945539F7CF1695812F0E94E5
:10106000683961E086E095E15FDA61E086E095E16C
:101070005BDA81E00E940B416EE170E080E090E07D
:101080000E94824241E06AE0812F0E94304010922B
:10109000801380937F130E945539873049F50E9451
:1010A00055390E9455390E94553988830E94553917
:1010B00089830E9455398A830E9455398B831C820B
:1010C0001D821E8290917F1380918013981719F0D2
:1010D0000E945539F7CF84E0F701808381E00E94B8
:1010E0000B4181E0DF91CF911F91FF90EF90089528
:1010F0008A3021F50E9455390E9455390E94553990
:1011000088830E94553989830E9455398A830E94B9
:1011100055398B830E9455398C830E9455398D83B4
:101120000E9455398E8390917F1380918013981778
:1011300019F00E945539F7CF87E0CECF1882198277
:101140001A821B821C821D821E8290917F138091C5
:101150008013981719F00E945539F7CFF7011082C4
:1011600081E00E940B4180E0BDCFCF9380911402BB
:10117000893061F498E09093140220910D02293097
:1011800051F490930D021092A2120EC0813031F4EE
:1011900098E09093140280930D02F5CF8430C1F350
:1011A0008A30B1F38B30A1F380910D0280930C0251
:1011B0009091A212843009F4D4C0F0F4813069F126
:1011C000823009F09AC1911108C081E08093A21287
:1011D00085E18093A11210929D128091A112853118
:1011E00009F4A1C008F08BC0882309F48BC1909149
:1011F0009D12891336C086C18A3009F471C18B30C3
:1012000009F474C1893009F078C191117BC181E082
:101210008093A21280E00FDC75C1911117C08093FA
:10122000A21284E20E94B43F8093A01285E20E9441
:10123000B43FC82F80939F1280939E1281E0FBDB06
:101240008CE0C11101C08BE08093A11210929D121D
:101250008091A1128B3041F08C30D9F0882309F4B1
:1012600051C180939D124EC180939D1285E20E94D0
:10127000B43F80939F1290919E12891709F442C146
:10128000882309F43FC180939E128CE08093A112C1
:1012900039C180939D1280919C12811104C080916C
:1012A0009B12882351F010929C1210929B128091F5
:1012B000F41280939A1282E0BEDB85E20E94B43F72
:1012C00080939F1290919E12891709F41BC181117E
:1012D00019C1B1DB84E20E94B43F882341F010922F
:1012E000A11282E080930D021092A2120BC1809194
:1012F000A0128111F4CF1092A11283E0F3CF90914C
:101300009D12863101F1873109F071CF973111F0CB
:1013100080939D1285E20E94B43F80939F128111B9
:10132000F1C089DBE8CF90919D12953111F0809347
:101330009D1284E20E94B43F892B09F0E3C081E052
:101340007ADB86E1A3CF963111F080939D1285E27E
:101350000E94B43F80939F12882309F4D3C087E191
:1013600095CF911118C081E08093A21284E20E946F
:10137000B43F8093A01285E20E94B43FC82F8093AF
:101380009F1280939E1282E056DB8BE2C11101C056
:1013900089E28093A1128091A1128B3209F44CC092
:1013A000E8F4882309F4AEC0893209F020CF909187
:1013B0009D12993211F080939D1285E20E94B43FF4
:1013C00080939F1290919E12891709F49BC08823E5
:1013D00009F498C080939E128BE258CF90919D1291
:1013E0008C3209F46AC08D3209F001CF9D3211F0C0
:1013F00080939D1280919C12811104C080919B1258
:10140000882351F010929C1210929B128091F4123A
:1014100080939A1281E00FDB85E20E94B43F8093B3
:101420009F1290919E12891709F46CC081116AC0B5
:1014300010929E1200DB39C090919D129B3211F0E8
:1014400080939D1280919C12811104C080919B1207
:10145000882369F081E08093991210929C12109277
:101460009B128091F41280939A1281E0E4DA85E273
:101470000E94B43F80939F1290919E12891709F4A5
:1014800041C081113FC010929E12D5DA84E20E94C1
:10149000B43F9091A012891304C09091991299239E
:1014A00041F08093A012109299121092A11285E03F
:1014B00019CF82E0C0DA8CE2E9CE9C3211F0809341
:1014C0009D1285E20E94B43F80939F1290919E12DC
:1014D0008917C1F08823B1F080939E128DE2D6CE99
:1014E000911110C081E08093A21295CE91110AC093
:1014F00081E08093A21282E08ECE911103C081E040
:101500008093A21280919812882361F180919F129A
:1015100090919E12891363C08091961290919712B8
:10152000009709F453C001979093971280939612F5
:1015300080919A122091961230919712820F932FD8
:10154000911D892B79F484E20E94B43F8093A0120C
:10155000882309F447C080E06EDA81E080939B1213
:1015600010929C1280919512813031F483E063DAFD
:10157000811102C01092951280917B00877F809329
:101580007B0080E480937C0080917A00806480936B
:101590007A0080917A0086FDFCCF9091780080914E
:1015A0007900892798278927813223E0920714F14F
:1015B00060E089E10E94DD3F61E082E10E94DD3F61
:1015C00060E081E30E94DD3F60E024C080919A12D8
:1015D000882309F4ADCF815080939A12A9CF8093CC
:1015E0009E12A6CF80E027DA81E080939C121092B1
:1015F0009B12B8CF61E0853F914084F089E10E9461
:10160000DD3F60E082E10E94DD3F60E081E30E9417
:10161000DD3F61E080E3CF910C94DD3F89E10E94E2
:10162000DD3F61E082E10E94DD3F61E0CACF0C94C2
:10163000FA630F931F93CF93DF938C01EB010E940A
:10164000F2638883C80101960E94F2638983CE0108
:10165000DF91CF911F910F910895CF93DF93EB010D
:101660000E94F2638883CE01DF91CF910895CF92DB
:10167000DF92EF92FF920F931F93CF93DF93EB01D3
:101680007B012AE0E20EF11C8B016C01C61AD70A1D
:10169000C601800F911F0E94F263F80181938F01B0
:1016A000EE15FF05A9F7CE01DF91CF911F910F91A4
:1016B000FF90EF90DF90CF900895CF93DF939C0140
:1016C000E0911B12F0911C12CF0101966AE070E0CC
:1016D0000E9472644091191250911A1248175907CA
:1016E00091F0EC01C9012AE52E9FB0012F9F700DEA
:1016F00011246B56714F4AE550E00E943239D09365
:101700001C12C0931B12DF91CF9108951F93CF93AA
:10171000DF93CDB7DEB764970FB6F894DEBF0FBE88
:10172000CDBF182FCE0101960E94EC388B859C8589
:10173000113431F089859A85123411F090E080E0FF
:1017400064960FB6F894DEBF0FBECDBFDF91CF9188
:101750001F9108952F923F924F925F926F927F92C6
:101760008F929F92AF92BF92CF92DF92EF92FF92B1
:101770000F931F93CF93DF93CDB7DEB7A3970FB629
:10178000F894DEBF0FBECDBF582E462E372ECE01A9
:1017900001960E94EC388B859C8599A388A30B81C8
:1017A0001C810F5F1F4F1F8E212C852C912CF40163
:1017B0003197FBA3EAA388A199A128161906B0F5D1
:1017C0006E0196E1C90ED11C642C732CF12CE12C16
:1017D000E814F90439F1B601C8018E0D9F1D3DDFF3
:1017E000F30181913F01F6019081FFEFCF1ADF0AEB
:1017F000981318C08AA19BA1E816F9067CF0BE01D7
:101800006B5E7F4FC801019728DF8D89851541F1F7
:1018100091E09F8F065F1F4F2394CDCFEFEFEE1A1D
:10182000FE0AD6CFFF8DFF23A9F3E9CF80E0A39670
:101830000FB6F894DEBF0FBECDBFDF91CF911F91E1
:101840000F91FF90EF90DF90CF90BF90AF909F905F
:101850008F907F906F905F904F903F902F90089562
:1018600081E0E5CFAF92BF92CF92DF92EF92FF92ED
:101870000F931F93CF93DF93CDB7DEB7C854D10931
:101880000FB6F894DEBF0FBECDBF98E0E3E2F2E002
:10189000DE01D19601900D929A95E1F798E0EBE286
:1018A000F2E0DE01D99601900D929A95E1F798E069
:1018B000E3E3F2E0DE01AF5BBF4F01900D929A953A
:1018C000E1F798E0EBE3F2E0DE01599601900D922A
:1018D0009A95E1F798E0E3E4F2E0DE019196019059
:1018E0000D929A95E1F798E0EBE4F2E0DE0199962B
:1018F00001900D929A95E1F798E0E3E5F2E0DE01C0
:10190000119601900D929A95E1F798E0EBE5F2E0DF
:10191000DE01199601900D929A95E1F798E0E3E6C1
:10192000F2E0DE01519601900D929A95E1F7FE01E9
:10193000F19693E040E0282F2150330B89016B0191
:1019400030E020E0281788F4D6015D916D017F0119
:10195000E20EF31ED7011196FC90F51206C0201777
:1019600031072CF42F5F3F4FEDCF442321F020812E
:10197000281719F141E0915038969111E0CFFE01FE
:10198000799643E050E0282F2150330B89015B0109
:1019900030E020E0281798F4D501FD905D016F013B
:1019A000C20ED31ED6011196EC90EF1008C020177E
:1019B00031073CF42F5F3F4FEDCF91E0E0CF55234F
:1019C00021F02081281719F151E04150389641113A
:1019D000DECFFE01319643E050E0282F2150330B3B
:1019E00089015B0130E020E0281798F4D501FD90D3
:1019F0005D016F01C20ED31ED6011196EC90EF105F
:101A000008C0201731073CF42F5F3F4FEDCF92E025
:101A1000E0CF552321F020812817C1F051E041503B
:101A200038964111DECF892FC85BDF4F0FB6F8948F
:101A3000DEBF0FBECDBFDF91CF911F910F91FF9001
:101A4000EF90DF90CF90BF90AF90089593E0EBCFF1
:101A50002F923F924F925F926F927F928F929F92BE
:101A6000AF92BF92CF92DF92EF92FF920F931F93AC
:101A7000CF93DF93CDB7DEB7A3970FB6F894DEBF51
:101A80000FBECDBF582E462E372ECE0109960E948E
:101A9000D03889859A8599A388A31F8E212C85E14A
:101AA000E82EF12C852C912CF4013197FBA3EAA3AD
:101AB00088A199A128161906B0F56E0196E1C90E04
:101AC000D11C642C732C10E000E00815190539F1C5
:101AD000B601C701800F911FC0DDF30181913F0165
:101AE000F6019081FFEFCF1ADF0A981318C08AA180
:101AF0009BA10817190784F0BE016B5E7F4FC701D9
:101B00000197ABDD8D89851541F191E09F8FFAE05A
:101B1000EF0EF11C2394CCCF0F5F1F4FD6CFEF8D6C
:101B2000EE23A9F3E9CF80E0A3960FB6F894DEBFC9
:101B30000FBECDBFDF91CF911F910F91FF90EF901E
:101B4000DF90CF90BF90AF909F908F907F906F90DD
:101B50005F904F903F902F90089581E0E5CF8FB731
:101B6000F8948091E9128FBF089561E0FC018481AF
:101B70000E94DD3F8091E81281111092E8120895D1
:101B80008EBD00000DB407FEFDCF8EB508958FEF1A
:101B9000F7CF8CBD9DBD0895CF93DF93EC0180916D
:101BA000E812811108C081E08093E8128091BB1493
:101BB0009091BC14EEDF60E08C81DF91CF910C94AA
:101BC000DD3F8F929F92AF92BF92FF920F931F9330
:101BD000CF93DF93EC01F62E49015A018E818823C1
:101BE00079F08F8198859C012F5F3F4F38872F8335
:101BF0008230924010F4CBDFF4CFCE01B6DF1E82EC
:101C0000CE01CADF8CE291E00E94BE428F2D80643B
:101C1000B7DF08E110E0D501C401002E04C0B6957D
:101C2000A795979587950A94D2F7AADF08501109CE
:101C3000083F8FEF180779F785E9FF2021F028E0AA
:101C400087E8F2128FEF9CDF10E0A1DF8A8787FF21
:101C500004C01F3F11F01F5FF8CFDF91CF911F919C
:101C60000F91FF90BF90AF909F908F900895AF928B
:101C7000BF92CF92DF92EF92FF920F931F93CF9379
:101C8000DF93EC016901C801820F931F81309240FC
:101C900048F58E81882379F088819981AA81BB815A
:101CA00084179507A607B70731F48F819885C81662
:101CB000D90608F03EC0488359836A837B838B85AD
:101CC000833039F089E0440F551F661F771F8A95CE
:101CD000D1F79A01AB0161E1CE0173DF882381F076
:101CE00083E08D83CE0141DF80E0DF91CF911F91B2
:101CF0000F91FF90EF90DF90CF90BF90AF9008953D
:101D00000E94B2425B0143DF8A878F3F61F40E94E9
:101D1000B2426A197B096D327140A8F38FE08D835E
:101D2000CE0123DFDFCF8E3F81F418861F8281E052
:101D30008E838F8198858C159D0548F428DF8F81CF
:101D40009885019698878F83F4CF8DE0E8CF67015F
:101D5000E00EF11E1CDFF60181936F01EE15FF0509
:101D6000C9F78F819885080F191F18870F838985F8
:101D7000882319F00115124090F08E81882379F0A4
:101D80008F8198859C012F5F3F4F38872F8382304A
:101D9000924010F4FCDEF4CFCE01E7DE1E8281E03B
:101DA000A4CFCF92DF92EF92FF920F93CF93DF9366
:101DB000EC01690182E1411551056105710591F060
:101DC0008B85833039F089E0440F551F661F771FDC
:101DD0008A95D1F79A01AB0168E1CE01F2DE882342
:101DE00019F084E08D8326C08EEFCADE76018EEF77
:101DF000D81AF70181917F01C3DEEC14FD04C9F705
:101E00008FEFBEDE8FEFBCDEC2DE8A878F7185303A
:101E100069F4011113C0CE01A8DE81E0DF91CF91FA
:101E20000F91FF90EF90DF90CF90089581E18D8327
:101E3000CE019BDECE0199DE80E0F0CF88E592E016
:101E40000E94BE42811102C085E1CCCF20E030E08B
:101E5000A9016DE0CE01B5DE882311F084E1C2CF87
:101E600096DE8111FBCFD7CFFC01DB0112968D915D
:101E70009C911397938382838DEA92E09183808370
:101E800014968C911497848315968C91159785835D
:101E900016964D915D916D917C911997468357836C
:101EA000608771871A964D915D916D917C911D9718
:101EB00042875387648775871E964D915D916D911A
:101EC0007C91519746875787608B718B52968C9186
:101ED0005297828B53964D915D916D917C9156975F
:101EE000438B548B658B768B57964D915D916D919D
:101EF0007C915A97478B508F618F728F5B968D9133
:101F00009C91948F838F0895EF92FF920F931F936C
:101F1000CF93DF93EC017B018A011B821A8288EE4A
:101F200093E0A0E0B0E08C839D83AE83BF8383EE1B
:101F300092E0998388838DE190E00E941F619A8FDF
:101F4000898F009779F02DE1F701DC0101900D9266
:101F50002A95E1F74CE050E0B801CE010C960E94C2
:101F6000B965188EDF91CF911F910F91FF90EF907F
:101F70000895CF93DF931F92CDB7DEB741E050E0D5
:101F8000BE016F5F7F4F0E94444D019731F48981FC
:101F900090E00F90DF91CF9108958FEF9FEFF9CFF1
:101FA000FC01818D928D009709F0E3CF8FEF9FEFB9
:101FB00008950F931F93CF93DF93EC01898D9A8D32
:101FC00010E000E0009791F0D4DF8C010F3F100784
:101FD00069F0898D9A8DFC014285538564857585EC
:101FE00041505109610971090E94B749C801DF9147
:101FF000CF911F910F9108951F920F920FB60F92DC
:1020000011240BB60F922F933F934F935F936F93CF
:102010007F938F939F93AF93BF93EF93FF93E09141
:10202000EE12F091EF121995FF91EF91BF91AF91E0
:102030009F918F917F916F915F914F913F912F91E0
:102040000F900BBE0F900FBE0F901F9018951F9210
:102050000F920FB60F9211240BB60F922F933F934E
:102060004F935F936F937F938F939F93AF93BF93A0
:10207000EF93FF93E091FE12F091FF121995FF91FB
:10208000EF91BF91AF919F918F917F916F915F91F0
:102090004F913F912F910F900BBE0F900FBE0F905D
:1020A0001F9018951092591381E080935813109245
:1020B000531361E084E10E94DD3F61E085E10E940D
:1020C000DD3FE9EBF0E080818E7F808380818D7F32
:1020D000808388E48093B80085E48093BC000895F1
:1020E000CF93DF9391E09093A4128823B1F0C09135
:1020F000B800D091BA008091BC008A7B8093BC006C
:1021000060E084E10E94DD3F60E085E10E94DD3F08
:10211000C9DFD093BA00C093B800DF91CF91089582
:1021200085ED8093BC0080915B1390915C13A0912E
:102130005D13B0915E130796A11DB11D23E0B69506
:10214000A795979587952A95D1F72091BC0024FDF6
:1021500003C010925913089540915B1350915C1382
:1021600060915D1370915E13452B462B472B69F3ED
:102170000097A105B10541F025E32A95F1F700008C
:102180000197A109B109E1CF80915A13A9CF1F92FC
:102190000F920FB60F9211240BB60F922F933F930D
:1021A0004F935F936F937F938F939F93AF93BF935F
:1021B000EF93FF938091B900887F803609F44CC07B
:1021C00008F03FC0883209F4A8C028F5803109F42E
:1021D0009CC0C8F4882309F4FAC0883009F495C07B
:1021E000FF91EF91BF91AF919F918F917F916F91EF
:1021F0005F914F913F912F910F900BBE0F900FBEAB
:102200000F901F901895883109F487C0803241F7EC
:102210008093571314C0803409F49CC040F4803379
:10222000B9F38833E9F68093571385ECAFC0803556
:1022300009F484C0883509F495C0883489F670DFC4
:10224000CFCF883909F48CC038F5883729F050F49D
:10225000883611F0803721F683E08093591310926D
:10226000E71257C0883809F47BC0803919F08038EC
:1022700009F0B6CF8091E712803208F071C0E0918A
:10228000E71281E08E0F8093E7128091BB00F0E0AF
:10229000E953FD4E80833DC0803B39F0E0F4803A45
:1022A00009F479C0883A09F09BCF84E080935913F0
:1022B0001092C6121092C512E0910D13F0910E13F8
:1022C00019958091C51281110FC081E08093C512CC
:1022D0001092A51209C0803C09F4A7CF883C09F4EC
:1022E000A4CF883B09F07CCFE091C61281E08E0F2D
:1022F0008093C612F0E0EB55FD4E80818093BB00C9
:102300009091C6128091C51229C080915413809378
:10231000BB0085EC8093BC0063CF909156138091F5
:102320005513981758F5E091561381E08E0F80935E
:102330005613F0E0ED5CFC4E8081E9CFE09156133E
:1023400081E08E0F809356138091BB00F0E0ED5C2E
:10235000FC4E808390915613809155139817C8F2C4
:1023600085E8D8CFE091561381E08E0F8093561305
:102370008091BB00F0E0ED5CFC4E808380915813AF
:1023800081115DCF81E08093531384EA8093BC0078
:102390001092591325CF85EC8093BC0010925913ED
:1023A0008091E712803230F4E091E712F0E0E953D7
:1023B000FD4E10826091E71270E0E0910B13F091F6
:1023C0000C1387EC92E119951092E71209CF109245
:1023D000571335CFCF92DF92EF92FF920F931F9357
:1023E000CF93DF93C62F6A010EEB1FE0823411F00A
:1023F00008EC1FE0C43011F0C73021F578018FEFF1
:10240000E81AF80A6C2FC80112D910E000E0D0E0F9
:10241000C8018E0D9F1D60E00C171D0724F4F60106
:10242000E00FF11F608103D90F5F1F4F07301105C7
:1024300079F7DF91CF911F910F91FF90EF90DF908F
:10244000CF900895C111F5CFD0E0C0E060E0CE019B
:10245000800F911FECD82196C830D105B9F7E9CF8C
:10246000FF920F931F93CF93DF93EC01F62E088119
:102470001981C8010E94F263F81621F06F2DC8017E
:102480000E94FA63CE01DF91CF911F910F91FF90CF
:102490000895EF92FF920F931F93CF93DF931F92B4
:1024A0001F92CDB7DEB78C017B019A838983FB0134
:1024B0006081CE010196D4DF0F5F1F4F1A8309831D
:1024C000F7016181CE010196CBDFC7010F900F901C
:1024D000DF91CF911F910F91FF90EF900895AF92F0
:1024E000BF92CF92DF92EF92FF920F931F93CF9301
:1024F000DF931F921F92CDB7DEB78B016B012AE0ED
:10250000C20ED11C7B015C01A61AB70AC5018E0D53
:102510009F1D9A838983F70161917F01CE01019606
:102520009FDFEC14FD0491F7C8010F900F90DF912D
:10253000CF911F910F91FF90EF90DF90CF90BF90C0
:10254000AF900895CF93DF93CDB7DEB7E2970FB684
:10255000F894DEBF0FBECDBF89A7262FDE019A9665
:10256000FB019E2F921B981718F491919D93F9CF20
:1025700081E489ABCE0101960E94EC3884E1FE0132
:102580003196DE01559601900D928A95E1F78F897B
:10259000988D4F8D58A16AE0649F9001659F300D22
:1025A0001124BE01675D7F4F820F931F98DF8F8DCF
:1025B00098A1019698A38F8FBE01615E7F4F8AE03C
:1025C00090E067DFE2960FB6F894DEBF0FBECDBF96
:1025D000DF91CF910895CF93DF93CDB7DEB7E29728
:1025E0000FB6F894DEBF0FBECDBF89A7262FDE0140
:1025F0009A96FB019E2F921B981718F491919D9328
:10260000F9CF85E589ABCE0109960E94D03884E1E7
:10261000FE013196DE01559601900D928A95E1F703
:102620002D8D3E8D4AE0429FC001439F900D1124A5
:10263000BE01675D7F4F449652DF8D8D9E8D019662
:102640009E8F8D8FBE01635E7F4F88E090E021DF1B
:10265000E2960FB6F894DEBF0FBECDBFDF91CF91EB
:1026600008950F931F93CF93DF93082F10E00E5F11
:102670001C4EF801D081DD2351F1C82F0E940B4080
:102680006093530E7093540E8093550E9093560E94
:10269000C093520EF8011082C150C73080F4EC2F65
:1026A000F0E061E08827E85AFC4E8F4F0C94856477
:1026B0006D13731379137F1385138B13911361E0DB
:1026C00082E00E94DD3F61E083E00E94DD3F8D2FCC
:1026D000DF91CF911F910F91089582E00E94DD3F1D
:1026E00061E084E0F2CF82E00E94DD3F61E085E0BE
:1026F000ECCF82E00E94DD3F61E086E0E6CF82E041
:102700000E94DD3F61E087E0E0CF82E00E94DD3F94
:1027100061E088E0DACF82E00E94DD3F61E089E09D
:10272000D4CF82E00E94DD3F61E08AE0CECF0F93FC
:102730001F93E091520EE83098F4F0E060E08827B3
:10274000EB55FC4E8F4F0C948564AD13E313E513EA
:10275000E713E913EB13ED13EF1383E00E94DD3F62
:102760008091520E883030F50E940B408B014091D1
:10277000530E5091540E6091550E7091560EE0918B
:10278000520EDC01C801841B950BA60BB70B24E08D
:10279000E29FF0011124EE5CF14F40815181628192
:1027A0007381481759076A077B0720F48083918358
:1027B000A283B3838FEF8093520E60E082E01F917B
:1027C0000F910C94DD3F84E0C9CF85E0C7CF86E050
:1027D000C5CF87E0C3CF88E0C1CF89E0BFCF8AE013
:1027E000BDCF9F92AF92BF92CF92DF92EF92FF92B6
:1027F0000F931F93CF93DF93CDB7DEB7AA970FB692
:10280000F894DEBF0FBECDBF7C018B018091F31227
:10281000813009F098C023E130E041E150E0CE0181
:102820004F960E94873DCE014F960E94F339D62ED7
:1028300020E130E04EE050E0B801CE0149960E9420
:10284000873DCE0149960E94F339C62E2DE030E037
:102850004BE050E0B801CE0143960E94873DCE0187
:1028600043960E94F339B62E22E030E050E040E07B
:10287000B801CE010D960E94873DCE010D960E94B3
:10288000F339A62E25E030E043E050E0B801CE0158
:1028900007960E94873DCE0107960E94F339962E37
:1028A0002AE030E046E050E0B801CE0101960E94F7
:1028B000873DCE0101960E94F3399B01603D774030
:1028C00010F0205D37402DA39EA2AFA2B8A6C9A6E6
:1028D000DAA6CE0185960E948744CE0101960E9419
:1028E000F73CCE0107960E94F73CCE010D960E9460
:1028F000F73CCE0143960E94F73CCE0149960E94D8
:10290000F73CCE014F960E94F73CF70111821082EE
:102910001382128215821482B801C7010E94023C00
:10292000C701AA960FB6F894DEBF0FBECDBFDF91E8
:10293000CF911F910F91FF90EF90DF90CF90BF90BC
:10294000AF909F900895823001F723E130E041E19C
:1029500050E0CE014F960E94873DCE014F960E94D7
:10296000F339D62E20E130E04EE050E0B801CE0140
:1029700049960E94873DCE0149960E94F339C62EA2
:102980002DE030E04BE050E0B801CE0143960E94CC
:10299000873DCE0143960E94F339B62E22E030E007
:1029A00050E040E0B801CE010D960E94873DCE0177
:1029B0000D960E94F339A62E25E030E043E050E06A
:1029C000B801CE0107960E94873DCE0107960E946E
:1029D000F339962E2AE030E046E050E0B801CE010F
:1029E00001960E94873DCE0101960E94F3399B011A
:1029F000603D774010F0205D37402DA39EA2AFA22E
:102A0000B8A6C9A6DAA6CE0185960E940A4265CF6D
:102A10008F929F92AF92BF92CF92DF92EF92FF92EE
:102A20000F931F93CF93DF9300D000D0CDB7DEB7C5
:102A30007C01A62E6A016BEB7BE00E94733D860150
:102A4000D12CC12CB12CCA14DB044CF5C114D10417
:102A500029F063E877E0C7010E94F33B4801F801E1
:102A60008081803128F460E973E0C7010E94F33B64
:102A70000F5F1F4F40E1F4016081CE0101960E947B
:102A80002A3DBE016F5F7F4FC7010E94FC3BCE0114
:102A900001960E94F73CFFEFCF1ADF0AD4CFC7019F
:102AA00026960FB6F894DEBF0FBECDBFDF91CF9153
:102AB0001F910F91FF90EF90DF90CF90BF90AF905C
:102AC0009F908F9008951F93CF93DF93EC01162F63
:102AD00061EF72E00E94733D1730A0F4E12FF0E047
:102AE0008827EA58FA4E8F4F0C9485647D15871518
:102AF0008A158D159015931596156BEF72E0CE0122
:102B00000E94AE3CCE01DF91CF911F91089567E006
:102B100073E0F5CF63E173E0F2CF69E273E0EFCFEA
:102B200065E373E0ECCF6BE373E0E9CF6FE473E050
:102B3000E6CF0F931F93CF93DF9300D000D0CDB794
:102B4000DEB711E081E893E10E94F736892B09F4A2
:102B50004BC081E893E10E94D53680937A0E909124
:102B6000590E2091570E3091580E992339F12F5F4D
:102B70003F4F3093580E2093570E80910202909150
:102B8000030280359105A9F466E673E0CE01019653
:102B90000E94733DBE016F5F7F4F80E096E10E940F
:102BA000633B082FCE0101960E94F73C0111109360
:102BB000590E1092840E1092830EC4CF211592E00C
:102BC000390734F42F5F3F4F3093580E2093570E40
:102BD00089831A8241E050E0BE016F5F7F4F80E041
:102BE00096E10E94C83BC9CF26960FB6F894DEBF87
:102BF0000FBECDBFDF91CF911F910F91089599CF57
:102C0000AF92BF92CF92DF92EF92FF920F931F93FA
:102C1000CF93DF931F921F92CDB7DEB78C016B016C
:102C20005A017A0181E0E81AF10865E773E0C6010C
:102C30000E94833B8823D9F0BE016F5F7F4FC5019F
:102C40008F52904F0E942D0B4AE06981C8010E946B
:102C50002A3DC8010F900F90DF91CF911F910F91E6
:102C6000FF90EF90DF90CF90BF90AF90089569E70D
:102C700073E0C6010E94833B882349F0BE016F5F69
:102C80007F4FC5018F52904F0E942D0BDDCF6DE716
:102C900073E0C6010E94833B882381F0C701880F3F
:102CA000991FBE016F5F7F4F8E52904F0E94190B8C
:102CB00069817A81C8010E94B73CCBCF61E873E09B
:102CC000C6010E94833B882389F0C701880F991FA2
:102CD000BE016F5F7F4F8E52904F0E94190B69812A
:102CE0007A814AE0C8010E94FF3CB3CF65E873E0F7
:102CF000C8010E94733DADCFEF92FF920F931F93D7
:102D0000CF93DF9300D000D0CDB7DEB78C016BEB53
:102D10007BE00E94733D86EFE82E8FE0F82EC7011E
:102D20000E94F2638F3FD1F460E973E0C8010E9412
:102D3000F33B8FEFE81AF80AE11480E1F80679F71F
:102D4000C80126960FB6F894DEBF0FBECDBFDF9147
:102D5000CF911F910F91FF90EF900895682FCE01B2
:102D600001960E94533DBE016F5F7F4FC8010E94D4
:102D7000FC3BCE0101960E94F73CDBCFDF92EF9245
:102D8000FF920F931F93CF93DF93CDB7DEB7E697F4
:102D90000FB6F894DEBF0FBECDBF7C01D62E8A01E0
:102DA0006BEB7BE00E94733DCE0101960E94EC38F4
:102DB0001016110644F421E4D21609F46BC032E473
:102DC000D31609F4B5C06D817E81CE01C1960E94F3
:102DD000B73C69817A81CE018B960E94B73C6F81A6
:102DE0007885CE0185960E94B73C6B817C81CE01AF
:102DF0004F960E94B73C62E973E0CE0145960E946F
:102E0000733DBE01615E7F4FCE0145960E947E3CC0
:102E10006BE973E00E946A3CBE016B5D7F4F0E94CC
:102E20007E3C63E877E00E946A3CBE01655D7F4FAF
:102E30000E947E3C6BE973E00E946A3CBE016F5CBD
:102E40007F4F0E947E3CBC01C7010E94FC3BCE012B
:102E500045960E94F73CCE014F960E94F73CCE016A
:102E600085960E94F73CCE018B960E94F73CCE01DE
:102E7000C1960E94F73CC701E6960FB6F894DEBFF4
:102E80000FBECDBFDF91CF911F910F91FF90EF90BB
:102E9000DF9008958F8198858017910708F493CF6C
:102EA0008B819C81009709F48ECF015011094AE073
:102EB000409F9001419F300D1124BE016B5E7F4FFA
:102EC000820F931F0E94370B10E0812F012E000C00
:102ED000990B2D892817190671F26CF2E6E1F0E0E2
:102EE000EC0FFD1F8E0F9F1FFC01608140E1CE01A2
:102EF0008596603130F50E942A3D6FE873E0CE017F
:102F00004F960E94733DBE016B5D7F4FCE014F9681
:102F10000E947E3CBC01C7010E94FC3BCE014F9643
:102F20000E94F73CCE0185960E94F73C1F5FCDCFF3
:102F30008D819E818017910708F445CF89819A8100
:102F4000B1CF0E942A3D63E877E0D9CFDF92EF92BC
:102F5000FF920F931F93CF93DF93CDB7DEB7E39725
:102F60000FB6F894DEBF0FBECDBF7C01CE014C96EC
:102F70000E9472396BEB7BE0CE0188960E94733D14
:102F80008091F3128E010F5F1F4F813009F000C155
:102F9000C8010E94FC4386E0F801DE015C960190C6
:102FA0000D928A95E1F789A11F928F9388A11F92B4
:102FB0008F938F8D1F928F938E8D1F928F938D8DF8
:102FC0001F928F938C8D90E08053984F9F938F9397
:102FD00089EF93E09F938F931F930F930E94E26575
:102FE000B801CE0188960E94AE3C63E877E0C80144
:102FF0000E94733DB801CE0188960E94603B9C01FF
:1030000050E040E0BE01685D7F4FCE014C960E94CB
:10301000873DBE01645E7F4FCE0182960E946B3D6C
:1030200065E174E0CE0182960E946A3CBC01CE014B
:103030008E960E946B3DCE0182960E94F73CCE0197
:103040004C960E94F73CC8010E94F73C85EE95E142
:103050000E9444010FB6F894DEBF0FBECDBF882397
:1030600089F061EF75E1C8010E94733DBE01625DA8
:103070007F4FC8010E94983BD82EC8010E94F73CA0
:10308000D11015C085EE95E10E944401882321F0FE
:1030900085EE95E10E9404066EA57FA547E1C80173
:1030A0000E94F64FB80185EE95E10E94F90263E8AF
:1030B00077E0C8010E94733DB801CE0188960E9456
:1030C000603B2CA53DA5AC014F5F5F4FBE01685D25
:1030D0007F4FCE014C960E94873DBE01645E7F4FBC
:1030E000CE0182960E946B3D63E877E0CE01829626
:1030F0000E946A3CB7010E947E3CBC0185EE95E1CE
:103100000E944C3ECE0182960E94F73CCE014C9626
:103110000E94F73CC8010E94F73C85EE95E10E94B1
:103120001606BE01685D7F4FC8010E946B3D69E0D5
:10313000C8010E944D3CB7010E947E3C62E773E0EB
:103140000E946A3CBC01CE014C960E946B3DCE01B0
:103150004C960E945D0BCE014C960E94F73CC80134
:103160000E94F73CCE018E960E94F73CCE018896D5
:103170000E94F73CE3960FB6F894DEBF0FBECDBFBA
:10318000DF91CF911F910F91FF90EF90DF90089505
:10319000823009F008CFC8010E947143FCCE0F9322
:1031A0001F93CF93DF93CDB7DEB767970FB6F89431
:1031B000DEBF0FBECDBF80919412882309F472C088
:1031C00081508093941280910802882309F4A0C250
:1031D00081508093080210910C02133069F0153071
:1031E00009F4E4C4123041F0113031F0812F8D7FA9
:1031F00011E0843009F010E080917512811709F414
:1032000046C010937512612F84EB9FE00E94FA6311
:10321000612FCE010C9657DC6CEF76E0CE01019663
:103220000E94733DBE01645F7F4FCE0101960E94F4
:103230007E3CBC01CE0142960E946B3DCE0142967F
:1032400085DECE0142960E94F73CCE0101960E9497
:10325000F73CCE010C960E94F73C80910C02833023
:10326000B1F480910702882391F050E040E060E0E3
:1032700081E4B0D86DE077E0CE0101960E94733D05
:10328000CE01019663DECE0101960E94F73C67965F
:103290000FB6F894DEBF0FBECDBFDF91CF911F9167
:1032A0000F91089581E08093941280910A02909189
:1032B0000B02009729F0019790930B0280930A026A
:1032C000EDE8F2E187E0DF011D928A95E9F71092BF
:1032D0008C124CE852E1BF0182EA0E941C0888234C
:1032E000B9F10DE812E120918C12C8018D5892417C
:1032F0002817190679F074F0F80161918F0170E0D8
:1033000090E080E040E10E94DF3D83E897E00E948A
:10331000353EE9CF62E773E08EE194E10E94D03D53
:103320006DE872E180918C120E94AA0B882309F447
:10333000A2C080910A0290910B02892B19F482E0BD
:103340008093060285E090E090930B0280930A023E
:1033500080910A0290910B02892B41F486E20E942F
:10336000B43F892B19F081E080930A131AE088E1B9
:103370000E94B43F892B09F0B5C11150C1F71092DA
:10338000841244E852E165E872E180EA0E941C0878
:103390002091821230918312882309F4A3C1232B38
:1033A00031F082E090E090938312809382128091BA
:1033B0000902882309F407CF1092090282E0809362
:1033C000060214E01093120210931302009181126E
:1033D0008091841265E872E1011124C190918012FC
:1033E000911120C10E94280D882309F44CC085E06A
:1033F00080931202809313021093140281E0809351
:103400000A1345E852E16091841282E40E94EA11B5
:1034100045E852E160918412CE010C96F9DA6AE136
:1034200074E0CE0101960E94733DBE01645F7F4F40
:10343000CE0101960E947E3C64E474E00E946A3CE6
:10344000BC01CE0142960E946B3DCE0142967EDDCC
:10345000CE0142960E94F73CCE0101960E94F73CB5
:10346000CE010C960E94F73C82E090E0909383128C
:1034700080938212A8CE83E08093060210920B0202
:1034800010920A0265CF65E872E1809184120E9471
:10349000320C813009F443C008F48CC0823009F446
:1034A00074C0833009F08FCE45E852E160918412F8
:1034B000CE010C96ADDA65E974E0CE0101960E946A
:1034C000733DBE01645F7F4FCE0101960E947E3C3A
:1034D00064E474E00E946A3CBC01CE0142960E9402
:1034E0006B3DCE01429632DDCE0142960E94F73C02
:1034F000CE0101960E94F73CCE010C960E94F73C4B
:1035000061E080E20E94DD3F0E941D5289E08093CD
:1035100006028CE0809312028093130254CE109323
:10352000060297E090931202909313028093811207
:1035300045E852E160918412CE010C9669DA66E4A6
:1035400074E0CE0101960E94733DBE01645F7F4F1F
:10355000CE0101960E947E3C64E474E00E946A3CC5
:10356000BC01CE0142960E946B3DCE014296EEDC3C
:10357000CE0142960E94F73CCE0101960E94F73C94
:10358000CE010C960E94F73C1ECE86E08093060288
:1035900089E0809312028093130281E0809380126D
:1035A00045E852E160918412CE010C9631DA6EE664
:1035B00074E0C7CF83E08093060286E08093120216
:1035C0008093130245E852E160918412CE010C967B
:1035D0001FDA69EC74E0CE0101960E94733DBE01D2
:1035E000645F7F4FCE0101960E947E3C64E474E0EC
:1035F0000E946A3CBC01CE0142960E946B3DCE0106
:103600004296A4DCCE0142960E94F73CCE01019680
:103610000E94F73CCE010C960E94F73C81E080931B
:103620001602D1CD0E94320C8130B9F4002309F486
:10363000CACD85E08093060288E0809312028093D1
:1036400013021092811245E852E160918412CE017A
:103650000C96DED968EE74E074CF8230C9F48091A4
:103660008012882309F4AFCD87E0809306028AE0B8
:1036700080931202809313021092801245E852E167
:1036800060918412CE010C96C3D96AE175E059CFDE
:10369000833009F498CD002381F065E872E18091D0
:1036A00084120E94EB1245E852E160918412CE012F
:1036B0000C96AED96BE475E044CF809180128823DC
:1036C00009F481CD65E872E1809184120E94A21212
:1036D00045E852E160918412CE010C9699D96FE6CB
:1036E00075E02FCF8091821290918312009729F07C
:1036F000019790938312809382128091821290910D
:103700008312892B09F05FCD81E0809309025BCDA4
:1037100081E08093080282E195E10E94F736892BCF
:1037200029F082E195E10E94D536F5CF6AEB82E17E
:1037300095E10E94493762E082E195E10E944937B4
:1037400061E082E195E10E94493769EB82E195E110
:103750000E94493782E195E10E94953782E390E02B
:10376000A0E0B0E08093161590931715A09318155C
:10377000B09319151092791210927A1210927B124E
:1037800010927C1210927D1210927E1210927F1273
:1037900061E070E0CE0142960E94D7420197A1F00D
:1037A000109278128091761290917712009709F01A
:1037B000F7C18091761290917712892B09F00BCD89
:1037C00081E08093070207CD8A898D3B49F761E04C
:1037D00070E0CE010C960E94D742019709F76C85E4
:1037E000683011F06B30E1F670E0CE0101960E9476
:1037F000D7422C852817190699F6283009F081C080
:103800008B81809379128C8180937A128D81809341
:103810007B128E8180937C1210927D1210927E1208
:1038200010927F1284E0809378122091761230916A
:103830007712232B31F022E030E03093771220937F
:10384000761290910702992309F4C5CC10920702D1
:1038500092E09093060204E0009312020093130298
:103860001091811269E772E1111136C190918012B5
:10387000911132C10E94AA0B882309F45CC085E033
:10388000809312028093130281E08093140249E72F
:1038900052E16091781281E40E94EA1149E752E115
:1038A00060917812CE010C96B3D862E975E0CE0132
:1038B00001960E94733DBE01645F7F4FCE01019669
:1038C0000E947E3C64E474E00E946A3CBC01CE012C
:1038D00042960E946B3DCE01429638DBCE01429665
:1038E0000E94F73CCE0101960E94F73CCE010C9657
:1038F0000E94F73C82E090E09093771280937612DA
:103900006ACC2B3009F04CCF8B81809379128C815B
:1039100080937A128D8180937B128E8180937C12AA
:103920008F8180937D12888580937E128985809314
:103930007F1287E078CF69E772E1809178120E9468
:10394000320C813009F443C008F48DC0823009F490
:1039500074C0833009F03FCC49E752E1609178129E
:10396000CE010C9655D865E076E0CE0101960E9416
:10397000733DBE01645F7F4FCE0101960E947E3C85
:1039800064E474E00E946A3CBC01CE0142960E944D
:103990006B3DCE014296DADACE0142960E94F73CA8
:1039A000CE0101960E94F73CCE010C960E94F73C96
:1039B00061E080E20E94DD3F0E941D5289E0809319
:1039C00006028CE0809312028093130204CC0093D1
:1039D000060297E090931202909313028093811253
:1039E00049E752E160917812CE010C9611D868EB4C
:1039F00075E0CE0101960E94733DBE01645F7F4F6A
:103A0000CE0101960E947E3C64E474E00E946A3C10
:103A1000BC01CE0142960E946B3DCE01429696DAE1
:103A2000CE0142960E94F73CCE0101960E94F73CDF
:103A3000CE010C960E94F73CCECB86E08093060226
:103A400089E0809312028093130281E080938012B8
:103A500049E752E160917812CE010C960E94081558
:103A60006FED75E0C6CF83E08093060286E0809319
:103A700012028093130249E752E160917812CE015D
:103A80000C960E94081568E376E0CE0101960E942C
:103A9000733DBE01645F7F4FCE0101960E947E3C64
:103AA00064E474E00E946A3CBC01CE0142960E942C
:103AB0006B3DCE0142964ADACE0142960E94F73C17
:103AC000CE0101960E94F73CCE010C960E94F73C75
:103AD00081E0809315027FCB0E94320C8130C1F4CB
:103AE000112309F478CB85E08093060288E0809367
:103AF0001202809313021092811249E752E1609101
:103B00007812CE010C960E94081566E576E071CF1A
:103B10008230D1F480918012882309F45CCB87E055
:103B2000809306028AE0809312028093130210921F
:103B3000801249E752E160917812CE010C960E9402
:103B4000081567E876E055CF833009F444CB11239C
:103B500089F069E772E1809178120E94EB1249E7DF
:103B600052E160917812CE010C960E94081567EB25
:103B700076E03FCF80918012882309F42CCB69E74F
:103B800072E1809178120E94A21249E752E160919D
:103B90007812CE010C960E9408156AED76E029CFC6
:103BA0000197909377128093761203CE14E024CB82
:103BB000CF93DF9300D000D0CDB7DEB7BC01CE01EC
:103BC00001960E946B3D6BEF7AE0CE0101960E9458
:103BD0006A3CBC0186E096E10E94E23CCE0101967F
:103BE0000E94F73C81E08093940E26960FB6F894DD
:103BF000DEBF0FBECDBFDF91CF910895AF92BF92D0
:103C0000CF92DF92EF92FF920F931F93CF93DF93A8
:103C1000CDB7DEB76D970FB6F894DEBF0FBECDBF40
:103C20005C016B016BEB7BE0CE0148960E94733D1B
:103C300006EF1FE0C8010E94F263682FCE010196D3
:103C40000E94533DBE016F5F7F4FCE0148960E9498
:103C5000FC3BCE0101960E94F73C0F5F1F4F011500
:103C600080E1180739F74BE050E0BE016F5F7F4FEE
:103C7000C6010E9432398E010F5F1F4F86EFE82E7A
:103C80008FE0F82EF80161918F01C7010E94170B98
:103C9000FFEFEF1AFF0AE11480E1F80699F768E5F3
:103CA00077E0CE010C960E94733DB601CE010C96D2
:103CB0000E947E3C69EF76E00E946A3CBE01685E2D
:103CC0007F4F0E947E3C64E474E00E946A3CBC0129
:103CD000CE0142960E946B3DCE01429637D9CE016D
:103CE00042960E94F73CCE010C960E94F73CB6012A
:103CF000CE010C960E946B3D63E877E0CE010C96F6
:103D00000E946A3CBE01685E7F4F0E947E3CBC01FF
:103D1000C5010E946B3DCE010C960E94F73CCE017E
:103D200048960E94F73CC5016D960FB6F894DEBF29
:103D30000FBECDBFDF91CF911F910F91FF90EF90FC
:103D4000DF90CF90BF90AF9008958F929F92AF92E7
:103D5000BF92CF92DF92EF92FF920F931F93CF9378
:103D6000DF93CDB7DEB7E2970FB6F894DEBF0FBE94
:103D7000CDBF6C01F62E8A016DE973E0CE018B9602
:103D80000E94733D1AAA19AACE0101960E94EC382E
:103D900081E4F81639F082E4F81609F45CC0F12CDD
:103DA000E12C33C0EB80FC808B859C859AAB89AB82
:103DB00010161106ECF06AE677E0C6010E94733D2A
:103DC000CE018B960E94F73CC601E2960FB6F8949E
:103DD000DEBF0FBECDBFDF91CF911F910F91FF903E
:103DE000EF90DF90CF90BF90AF909F908F9008950D
:103DF0008017910700F301979AAB89ABBE016F5C06
:103E00007F4F8AE090E00E944912580181E0A81A91
:103E1000B1082AE02A9DC0012B9D900D1124E80EC7
:103E2000F91E89A99AA9A816B90660F547018AE082
:103E3000880E911CBE016B5E7F4FC4010E94370B40
:103E4000BE016B5E7F4FC7010E946F128FEFA81AF1
:103E5000B80A7401E6CFE980FA8089859A859AAB21
:103E600089AB101611060CF0A6CF8017910708F445
:103E7000A2CF01979AAB89ABBE016F5C7F4F88E000
:103E800090E0C1CF4AE0B801CE0185960E94FF3C88
:103E9000BE01655D7F4FCE014F960E946B3DBE0116
:103EA0006B5D7F4FCE014F960E947E3CBC01C601E8
:103EB0000E946B3DCE014F960E94F73CCE01859645
:103EC0000E94F73C7DCF7F928F929F92AF92BF92DC
:103ED000CF92DF92EF92FF920F931F93CF93DF93D6
:103EE000CDB7DEB7E0970FB6F894DEBF0FBECDBFFB
:103EF0007C01762E6A0162E877E0CE018B960E9403
:103F0000733DCE0101960E94EC3887E08D8BF6015F
:103F100084819581449710F484E08D8B5E01F5E1F6
:103F2000AF0EB11C450110E000E094012A193B09D5
:103F30008D899FEF891A990A82171306D9F0D4F058
:103F400098012E5F3F4FA801B601CE014F960E9407
:103F5000873D40E150E070E060E08F8D98A10E94C5
:103F60004462F4016083CE014F960E94F73C0D5FDE
:103F70001F4FDBCFF1E47F1649F092E4791609F484
:103F800075C010E000E0912C812C3CC00B851C8595
:103F90002F81388502171307F0F065E877E0C70135
:103FA0000E94733DCE018B960E94F73CC701E096BC
:103FB0000FB6F894DEBF0FBECDBFDF91CF911F913A
:103FC0000F91FF90EF90DF90CF90BF90AF909F90B8
:103FD0008F907F9008958B809C80BE016A5E7F4F9A
:103FE0000E94AA0B882319F06BE977E0D8CFC801AB
:103FF000019698A38F8FBE01615E7F4F8AE090E0AB
:104000000E9449122AE0209FC001219F900D112497
:10401000B501880D991D0E946F12B8016F5F7F4F27
:10402000CE0185960E94B73CBE01655D7F4FCE01F3
:104030004F960E946B3DBE016B5D7F4FCE014F9648
:104040000E947E3C63E877E00E946A3CB6010E94D1
:104050007E3CBC01C7010E946B3DCE014F960E9481
:10406000F73CCE0185960E94F73C9CCF09851A85C6
:104070002D813E810217130708F08FCF89809A8027
:10408000BE016A5E7F4F0E94280D8111ADCFC8012D
:10409000019698A38F8FBE01615E7F4F88E090E00C
:1040A000AFCFCF92DF92EF92FF920F931F93CF93F8
:1040B000DF93CDB7DEB768970FB6F894DEBF0FBEBB
:1040C000CDBF80918C0E811109C06BEB7BE086E83F
:1040D0009EE00E94733D81E080938C0E8091850E5E
:1040E000882371F08091840E90910402891740F426
:1040F0008F5F8093840E891718F081E08093830E80
:10410000F090820E20910202309103028091000211
:10411000909101022817390719F4FF2009F4B5C05E
:104120001092810E1092800EF11009C06BEB7BE0B3
:1041300086E89EE00E94AE3C83E0809304021092E9
:10414000820E1092850E8091000290910102909350
:10415000030280930202F8946BEB7BE080E096E12F
:104160000E94AE3C78941092830E1092840E84E1EB
:1041700080937F0EFF24F39410917F0E80917A0E2E
:10418000E12C8A3009F0D4C00091850E002309F497
:10419000B4C060E773E0CE0101960E94733DBE019A
:1041A0006F5F7F4F80E096E10E94603B6C01CE0123
:1041B00001960E94F73CD7FCA0C0F89463E773E037
:1041C000CE0107960E94733DBE01695F7F4F80E07C
:1041D00096E10E94603BE12C97FD16C063E773E017
:1041E000CE0101960E94733DBE016F5F7F4F80E05C
:1041F00096E10E94603BEE24E39402970CF0E12CE0
:10420000CE0101960E94F73CCE0107960E94F73C32
:10421000EE2009F445C063E773E0CE0101960E94E9
:10422000733DBE016F5F7F4F80E096E10E94603B6F
:1042300040910416509105164115510509F1BC0134
:104240006F5F7F4FE9F04617570708F4BA01809176
:10425000001690910116461B570B5093051640937C
:104260000416680F791F0E94B965E0910016F0915D
:1042700001168091041690910516E80FF91F10821F
:10428000CE0101960E94F73C99CF0E94B2428091E4
:104290007F0E882309F470CF815080937F0E6CCFFE
:1042A000789480910202909103028433910509F47D
:1042B000D0C308F08BC08E31910509F4FAC108F023
:1042C0004DC08231910509F452C12091850E833190
:1042D000910580F58B30910509F423C18C3091054F
:1042E00009F432C10A9799F5211109C164EC77E00C
:1042F00086E89EE00E94AE3CA1C00091850EE12CB4
:10430000002379F26CEB77E0CE0101960E94733DB9
:10431000BE016F5F7F4F80E096E10E94633BEE2419
:10432000E394811101C0E12CCE0101960E94F73C7B
:1043300000E0B7CF8431910509F436C108F42EC1ED
:104340008531910509F460C1469709F48DC18FEF5D
:1043500090E0909301028093000270C08932910531
:1043600009F4C5C22091850E8A329105D0F48032BD
:10437000910509F4EEC108F4B1C1889741F7211104
:104380008FC26BEB7BE086E89EE00E94833B882334
:1043900009F404C26CE378E086E89EE00E94AE3C3B
:1043A0004DC08B32910509F4F1C208F4CCC28233BE
:1043B000910509F4FFC2C39751F621112AC360E9A0
:1043C00079E086E89EE00E94AE3C38C084349105D6
:1043D00009F479C708F051C08F33910509F43CC541
:1043E000E8F48D33910509F43BC408F0FAC4CC9786
:1043F00009F0ADCF8091850E811114C46BEB7BE089
:1044000086E89EE00E94833B882309F49FC363EB08
:1044100079E086E89EE00E94AE3C10C02091850EB7
:104420008134910509F40BC608F468C582349105FE
:1044300009F42EC68334910509F089CF8091850E49
:104440008111CDC580918A0E90918B0E892B09F434
:10445000C6C566E87EE081E893E10E944C3E0E947A
:10446000B24260937B0E70937C0E80937D0E90938E
:104470007E0E81E08093850EBBC58834910511F4D2
:104480000C947A2BE0F42091850E8634910511F47A
:104490000C945C2B10F40C94292BFF2031F082E358
:1044A0008093040286E980937F0E21110C94742B73
:1044B00062EF7BE086E89EE00E94AE3CBFCF813594
:1044C000910511F40C94692C80F48035910509F064
:1044D0003ECF8091850E81110C943B2C62E07CE0F4
:1044E00086E89EE00E94AE3CA9CF8935910511F483
:1044F0000C949F2C8F3F910509F4A0CF28CF002367
:1045000039F08BE090E0909301028093000296CF07
:10451000111165C582E190E0909301028093000241
:104520008DCF211107C069EC77E086E89EE00E94FC
:10453000AE3C84CF002309F420C28CE090E090933D
:104540000102809300027ACF211107C061ED77E06C
:1045500086E89EE00E94AE3C71CF002309F40DC2B4
:1045600084E190E0909301028093000267CFFF20E6
:1045700041F061E087E10E94DD3F8AE080937F0E99
:104580005DCF11115BCF60E087E10E94DD3F83E1E9
:1045900090E0909301028093000250CFF1104ECF33
:1045A000112309F4ECC14ACF211107C06BED77E06C
:1045B00086E89EE00E94AE3C41CF002309F4DDC1B5
:1045C00062EE77E0CE0101960E94733DBE016F5FFF
:1045D0007F4F80E096E10E94603B8C01CE01019606
:1045E0000E94F73C0F30110541F440E150E06AE6CB
:1045F0007EE080E096E10E94323985E190E0909380
:104600000102809300021ACF211107C064EE77E007
:1046100086E89EE00E94AE3C11CF002309F4ADC1B4
:1046200062EE77E0CE0101960E94733DBE016F5F9E
:104630007F4F80E096E10E94603B8C01CE010196A5
:104640000E94F73C0F30110541F440E150E06AE56B
:104650007EE080E096E10E94323986E190E090931E
:10466000010280930002EACE211107C06CEE77E0D0
:1046700086E89EE00E94AE3CE1CE002309F47DC1B5
:1046800065EF77E0CE0101960E94733DCE01019661
:104690000E94D639082FCE0101960E94F73C0023D4
:1046A00009F47ECF8EE190E09093010280930002A6
:1046B000C5CE8091850E811107C062E078E086E862
:1046C0009EE00E94AE3CBACE002309F456C18FE1B1
:1046D00090E09093010280930002B0CE211107C0B8
:1046E00069E078E086E89EE00E94AE3CA7CE002319
:1046F00009F443C162E178E0CE0107960E94733D60
:10470000CE0107960E94D639811112C06DE178E082
:10471000CE0101960E94733DCE0101960E94D639CA
:1047200001E0811101C000E0CE0101960E94F73C3A
:10473000CE0107960E94F73C002339F080E290E01A
:10474000909301028093000279CE81E08093820EE3
:1047500075CE211107C068E278E086E89EE00E94ED
:10476000AE3C6CCE002309F408C162E378E0CE01D0
:1047700001960E94733DCE0101960E94D639082F02
:10478000CE0101960E94F73C002309F409CF88E28C
:1047900090E0909301028093000250CE6AE578E0A9
:1047A000CE0101960E94733DBE016F5F7F4F86E888
:1047B0009EE00E94603B8C01CE0101960E94F73C76
:1047C00017FD1EC08091F9129091FA128130910567
:1047D00039F462E678E086E89EE00E94AE3C2ECE98
:1047E000029739F46EE778E086E89EE00E94AE3CDE
:1047F00025CE60EA78E086E89EE00E94AE3C1ECEC0
:1048000063EC78E0CE0101960E94733DBE016F5FBC
:104810007F4F86E89EE00E94603B8C01CE010196AE
:104820000E94F73C17FD14C08091F9129091FA1282
:10483000029739F067EC78E086E89EE00E94AE3C93
:10484000FDCD6EED78E086E89EE00E94AE3CF6CDB0
:104850006DEF78E0CE0101960E94733DBE016F5F5F
:104860007F4F86E89EE00E94603B8C01CE0101965E
:104870000E94F73C17FDE2CD8091F9129091FA1257
:10488000029739F062E079E086E89EE00E94AE3C53
:10489000D5CD68E179E086E89EE00E94AE3CCECDC1
:1048A000EE2039F082E190E09093010280930002C3
:1048B000C5CD002309F461C060E379E0CE01019623
:1048C0000E94733DBE016F5F7F4F86E89EE00E94AD
:1048D000603B8C01CE0101960E94F73C17FD35CF5D
:1048E00089E290E09093010280930002A7CDFF201F
:1048F00039F064E379E086E89EE00E94AE3C9ECD0C
:104900000023C1F062E479E0CE0101960E94733D7C
:10491000CE0101960E94D639182FCE0101960E9431
:10492000F73C112349F08CE390E0909301028093CF
:10493000000284CD111182CD8AE290E090930102B1
:10494000809300027BCD21110DC06FE479E086E8F1
:104950009EE00E94AE3C8EE18093040282E380934D
:104960007F0E6CCDEE2039F08BE290E09093010247
:104970008093000263CD0111D6CF111130C38AE0BC
:1049800090E0909301028093000258CD21110DC058
:104990006CE579E086E89EE00E94AE3C8EE1809373
:1049A000040282E380937F0E49CD0111C5CFE1104F
:1049B000C3CFE3CF211107C069E679E086E89EE026
:1049C0000E94AE3C3BCD8091830E8823B1F26DE313
:1049D0007CE0CE0101960E94733DBE016F5F7F4F68
:1049E00080E096E10E94603B8C01CE0101960E941E
:1049F000F73C17FD07C084E390E090930102809399
:104A000000021CCD83E390E09093010280930002AA
:104A100015CD8091830E882309F4AFCF6DE37CE040
:104A2000CE0101960E94733DBE016F5F7F4F80E013
:104A300096E10E94603B7C01CE0101960E94F73C0A
:104A4000F7FCAECD82E390E09093010280930002E8
:104A5000F5CC8091850E81112AC06BEB7BE086E856
:104A60009EE00E94833B882339F06BE979E086E879
:104A70009EE00E94AE3CE2CC6EE979E0CE01019668
:104A80000E94733DBE016F5F7F4F86E89EE00E94EB
:104A9000603B8C01CE0101960E94F73C17FDCECC05
:104AA00064EA79E086E89EE00E94AE3CC7CC809143
:104AB000830E882309F461CF67EA79E0CE01079677
:104AC0000E94733DBE01695F7F4F86E89EE00E94B1
:104AD000603B10E097FD15C06DEA79E0CE010196CC
:104AE0000E94733DBE016F5F7F4F80E096E10E94A0
:104AF000603B192F111F1127111FCE0101960E9433
:104B0000F73CCE0107960E94F73C112339F080E56F
:104B100090E0909301028093000290CC6DE37CE0E2
:104B2000CE0101960E94733DBE016F5F7F4F80E012
:104B300096E10E94603B8C01CE0101960E94F73CF9
:104B400017FD7CCC81E08093820E78CC6FEB79E00E
:104B5000CE0101960E94733DBE016F5F7F4F86E8D4
:104B60009EE00E94603B8C01CE0101960E94F73CC2
:104B700017FD07C063EC79E086E89EE00E94AE3C3A
:104B80005DCC6CEE79E0CE0101960E94733DBE01D2
:104B90006F5F7F4F86E89EE00E94603B8C01CE01F4
:104BA00001960E94F73C17FD07C061EF79E086E8A7
:104BB0009EE00E94AE3C42CC6FEF79E0CE010196C0
:104BC0000E94733DBE016F5F7F4F86E89EE00E94AA
:104BD000603B8C01CE0101960E94F73C17FD07C097
:104BE00064E07AE086E89EE00E94AE3C27CC6BE26F
:104BF0007AE0CE0101960E94733DBE016F5F7F4F48
:104C000086E89EE00E94603B8C01CE0101960E94E6
:104C1000F73C17FD13CC6FE27AE086E89EE00E9435
:104C2000AE3C0CCC002309F4A8CE61E57AE0CE01BD
:104C300001960E94733DBE016F5F7F4F86E89EE044
:104C40000E94603B8C01CE0101960E94F73C17FD4B
:104C500079CF8DE390E09093010280930002EECB38
:104C60008091850E81119DC06BEB7BE086E89EE014
:104C70000E94833B882339F064E57AE086E89EE071
:104C80000E94AE3CDBCB68E67AE0CE0101960E9442
:104C9000733DBE016F5F7F4F86E89EE00E94603BE0
:104CA0008C01CE0101960E94F73C17FD5FC06CE6B7
:104CB0007AE0CE0101960E94733D66E076E1CE0176
:104CC00001960E947E3C6FE47AE00E946A3CBC013F
:104CD00086E89EE00E94E23CCE0101960E94F73CED
:104CE0006AE57EE0CE0143960E94733D6AE67EE06F
:104CF000CE010D960E94733D6CE77AE0CE010796D7
:104D00000E94733DBE01635F7F4FCE0107960E94F4
:104D10007E3C6CE77AE00E946A3CBE016D5E7F4F8C
:104D20000E947E3C6EE77AE00E946A3C8C016EE74E
:104D30007AE0CE0101960E94733DA801BE016F5F2B
:104D40007F4F86E89EE00E944C3ACE0101960E9479
:104D5000F73CCE0107960E94F73CCE010D960E94CB
:104D6000F73CCE0143960E94F73C68CB6EED7BE0AA
:104D7000CE0101960E94733DBE016F5F7F4F86E8B2
:104D80009EE00E94603B8C01CE0101960E94F73CA0
:104D900017FD54CB60E87AE086E89EE00E94AE3CC6
:104DA0004DCB002309F4E9CD61E57BE0CE0101960E
:104DB0000E94733DBE016F5F7F4F86E89EE00E94B8
:104DC000603B8C01CE0101960E94F73C17FDBACEE4
:104DD0008EE390E090930102809300021092940E73
:104DE0002DCBFF2021F084E680937F0E27CB80918E
:104DF000940E81112ECF80911B1290911C12209144
:104E0000191230911A12112389F02817390709F461
:104E100015CB6BEB7BE08CE096E10E94AE3C8FE320
:104E200090E0909301028093000208CB2817390785
:104E300081F780911602811105C0809115028823A7
:104E400009F480CE82E490E0909301028093000206
:104E500081E08093940EF2CA8091850E81110DC07D
:104E60006CE97AE086E89EE00E94AE3C82E38093A3
:104E7000040286E980937F0EE1CA0023B1F168EA5B
:104E80007AE0CE0101960E94733DBE016F5F7F4FB5
:104E900080E096E10E94603B8C01CE0101960E9469
:104EA000F73C17FD07C080E490E0909301028093E7
:104EB0000002C4CA65EB7AE0CE0101960E94733D00
:104EC000BE016F5F7F4F80E096E10E94603B8C01E6
:104ED000CE0101960E94F73C17FDB0CA89E290E02E
:104EE0009093010280930002A9CA111178C08FE14A
:104EF00090E09093010280930002A0CAFF2031F05D
:104F000084E68093040286E980937F0E21115DC0C0
:104F10000AE58AE0E82EF12C8091191290911A127C
:104F200020911B1230911C122817390719F1089F84
:104F3000B001099F700D11246B56714FCE0101967F
:104F40000E94733DBE016F5F7F4F8CE096E10E942F
:104F5000FC3BCE0101960E94F73C80911912909182
:104F60001A120196B7010E94726490931A128093EC
:104F70001912D2CF6091101670911116CE010796BA
:104F80000E94B73C60EC7AE0CE0101960E94733D2E
:104F9000BE01695F7F4FCE0101960E947E3CBC013D
:104FA00086E89EE00E94E23CCE0101960E94F73C1A
:104FB000CE0107960E94F73C111140CA8EE390E0A3
:104FC000909301028093000239CA002301F181E429
:104FD00090E09093010280930002112379F3909165
:104FE000800E81E0981721F09091810E9111AFC44D
:104FF00068960FB6F894DEBF0FBECDBFDF91CF919C
:105000001F910F91FF90EF90DF90CF9008956DEC7E
:105010007AE0CE0101960E94733DBE016F5F7F4F23
:1050200080E096E10E94603B7C01CE0101960E94E7
:10503000F73CF7FCC1CF81E08093810EBDCFFF200C
:1050400031F082E38093040286E980937F0E211180
:1050500007C068ED7AE086E89EE00E94AE3CEEC9AB
:1050600066EE7AE0002309F4B8CFCE0101960E94E3
:10507000733DBE016F5F7F4F80E096E10E94603B11
:105080008C01CE0101960E94F73C17FF97CFD6C93D
:105090002111E5C06BEB7BE086E89EE00E94833B3C
:1050A000882309F449C066E076E1CE0101960E94AA
:1050B0006B3D8091160262EF7AE0811102C069EFC8
:1050C0007AE0CE010D960E94733D6BEF7AE0CE013F
:1050D00007960E94733DAE01435F5F4FBE01695F5B
:1050E0007F4FCE0101960E944C3ACE0107960E9456
:1050F000F73CCE010D960E94F73C60E07BE0CE01CC
:1051000007960E94733DBE016F5F7F4FCE010796E9
:105110000E947E3C6FE47AE00E946A3CBC0186E813
:105120009EE00E94E23CCE0107960E94F73CCE0131
:1051300001960E94F73C82C960E17BE0CE010196B6
:105140000E94733DBE016F5F7F4F86E89EE00E9424
:10515000603B8C01CE0101960E94F73C17FD49C0CF
:1051600066E076E1CE010D960E946B3D80911602BD
:1051700068E17BE0811102C061E27BE0CE0107962D
:105180000E94733D6BEF7AE0CE0101960E94733D61
:10519000AE01495F5F4FBE016F5F7F4FCE010D963D
:1051A0000E944C3ACE0101960E94F73CCE01079630
:1051B0000E94F73C6CE67AE0CE0101960E94733DB6
:1051C000BE01635F7F4FCE0101960E947E3C6FE47B
:1051D0007AE00E946A3CBC0186E89EE00E94E23CC4
:1051E000CE0101960E94F73CCE010D960E94F73C3D
:1051F00025C96AE27BE0CE0101960E94733DBE01A3
:105200006F5F7F4F86E89EE00E94603B8C01CE017D
:1052100001960E94F73C17FD07C062E37BE086E839
:105220009EE00E94AE3C0AC96EE47BE0CE0101968E
:105230000E94733DBE016F5F7F4F86E89EE00E9433
:10524000603B8C01CE0101960E94F73C17FDF6C829
:1052500066E57BE086E89EE00E94AE3CEFC8809168
:10526000830E882309F4B9CE6DE37CE0CE0101966C
:105270000E94733DBE016F5F7F4F80E096E10E9408
:10528000603B7C01CE0101960E94F73CF7FC94CE76
:1052900062E77BE0CE0101960E94733DBE016F5F25
:1052A0007F4F86E89EE00E94603B8C01CE01019614
:1052B0000E94F73C17FD46CC84E490E090930102F5
:1052C00080930002BBC88091850E81112BC06BEBCF
:1052D0007BE086E89EE00E94833B6AE77BE08111E9
:1052E00016C066E87BE0CE0101960E94733DBE01C8
:1052F0006F5F7F4F86E89EE00E94603B8C01CE018D
:1053000001960E94F73C17FD06C06AE87BE086E83C
:105310009EE00E94AE3C84E18093040284E6809388
:105320007F0E8CC869E97BE0CE0101960E94733D37
:10533000BE016F5F7F4F80E096E10E94603B7C0181
:10534000CE0101960E94F73CF7FC10C08091160236
:10535000882349F01092160286E490E090930102AF
:10536000809300026BC810921502F6CF8091830ED5
:10537000882309F421CE6DE37CE0CE0101960E94E2
:10538000733DBE016F5F7F4F80E096E10E94603BFE
:105390007C01CE0101960E94F73CF7FC0DCE65EA38
:1053A0007BE0CE0101960E94733DBE016F5F7F4F8F
:1053B00080E096E10E94603B8C01CE0101960E9444
:1053C000F73C17FFBFCB6CEB7AE0CE0107960E944B
:1053D000733DBE01695F7F4F80E096E10E94603BB4
:1053E00010E097FD15C06DE77BE0CE0101960E94AD
:1053F000733DBE016F5F7F4F86E89EE00E94633B76
:1054000011E0811101C010E0CE0101960E94F73C2D
:10541000CE0107960E94F73C112351F080911602AD
:10542000882319F010921602C9CD10921502C6CD2C
:105430006AEA7BE0CE0101960E94733DBE016F5F78
:105440007F4F80E096E10E94603B8C01CE01019687
:105450000E94F73C17FD02C00C941E2262EB7BE019
:10546000CE0101960E94733DBE016F5F7F4F80E0C9
:1054700096E10E94603B8C01CE0101960E94F73CB0
:1054800017FF02C00C941E2281E08093820E60EC14
:1054900079E0CE0101960E94733DBE016F5F7F4FA0
:1054A00080E096E10E94603B8C01CE0101960E9453
:1054B000F73C17FD4AC069EB7BE0CE0101960E94E4
:1054C000733DBE016F5F7F4F80E096E10E94603BBD
:1054D0008C01CE0101960E94F73C17FD9FCF0091F1
:1054E0000416109105160650110969EB7BE0CE01F8
:1054F00001960E94733DBE016F5F7F4F80E096E191
:105500000E94603B9801AC0160E076E1CE01079615
:105510000E94873DBE01695F7F4F8CE096E10E944B
:10552000023CCE0107960E94F73CCE0101960E94F4
:10553000F73C109221121092201210921F1210921A
:105540001E120E94E9540C941E2200910416109120
:1055500005166CEB7BE0CE0101960E94733DBE0107
:105560006F5F7F4F80E096E10E94603B9801AC0145
:1055700060E076E1CE0107960E94873DBE01695F3B
:105580007F4F80E096E10E94023CCE0107960E9488
:10559000F73CCE0101960E94F73C00910416109151
:1055A000051663E773E0CE0101960E94733DBE01CC
:1055B0006F5F7F4F80E096E10E94603BAC014F5FE0
:1055C0005F4F980160E076E1CE0107960E94873D2B
:1055D000BE01695F7F4F80E096E10E94023CCE01F0
:1055E00007960E94F73CCE0101960E94F73C20915D
:1055F0000416309105162650310950E040E060E075
:1056000076E1CE0101960E94873DBE016F5F7F4F1C
:1056100080E096E10E94023CCE0101960E94F73C98
:105620006CE076E1CE0101960E946B3D60E076E190
:10563000CE0101960E947E3CBC018CE096E10E9466
:10564000E23CCE0101960E94F73C0E94E9540C9482
:105650001E22FF2031F082E38093040286E98093CA
:105660007F0E211108C066EC7BE086E89EE00E9478
:10567000AE3C0C941E22002309F4AFCC69E97BE018
:10568000CE0101960E94733DBE016F5F7F4F80E0A7
:1056900096E10E94603B8C01CE0101960E94F73C8E
:1056A00017FF02C00C941E2288E490E09093010240
:1056B000809300020C941E22FF2031F082E380933D
:1056C000040286E980937F0E211108C066ED7BE01D
:1056D00086E89EE00E94AE3C0C941E2263EE7BE0C6
:1056E000002309F47ACCC1CC002309F476CC6DEF09
:1056F0007BE0BBCCE0902012F090211200911E12B2
:1057000010911F12E114F10459F40115110541F42F
:1057100080911602882309F450C082E480931D1200
:10572000D0901D128D2D0E94860B081719070CF0C2
:1057300046C0A8014F5F5F4F50931F1240931E1247
:105740006D2DCE0101960E94BE162D813E8141E055
:1057500050E0BE016F5F7F4FCE0107960E94873DEC
:10576000BE01695F7F4F8CE096E10E94603B8C0137
:10577000CE0107960E94F73CCE0101960E94F73CAD
:1057800017FD02C00C941E2240911E1250911F1250
:1057900060911D12CE0101960E94A51ECE010196B8
:1057A0000E94F73C80911E1290911F1201979093D6
:1057B0001F1280931E120C941E2281E4AFCF6AEB5D
:1057C0007BE0CE0101960E94733DA7014F5F5F4FC2
:1057D000BE016F5F7F4F8CE096E10E94443B0196D3
:1057E0009093211280932012CE0101960E94F73CE3
:1057F00040912012509121129A01255F3F4F6CE099
:1058000076E1CE0101960E94873DAE014F5F5F4F6A
:1058100060911D12CE0107960E94631FCE0107966C
:105820000E94F73CCE0101960E94F73C80911E1227
:1058300090911F12019690931F1280931E12009157
:105840002012109121126AEB7BE0CE0101960E949A
:10585000733DA801BE016F5F7F4F8CE096E10E940F
:10586000443B8C01CE0101960E94F73C17FD02C01B
:105870000C941E22D3CD8091830E8823C1F065E362
:105880007CE0CE0101960E94733DBE016F5F7F4FA9
:1058900080E096E10E94603B7C01CE0101960E946F
:1058A000F73CF7FE0EC0112321F00C941E221111BB
:1058B00096CB8AE090E090930102809300020C94D2
:1058C0001E2281E590E090930102809300020C94E7
:1058D0001E226BEB7BE086E89EE00E94AE3C81E0FE
:1058E0008093850E8091830E882309F478CB809174
:1058F000590E81111AC060E47CE0CE0101960E942D
:10590000733DBE016F5F7F4F80E096E10E94603B78
:105910008C01CE0101960E94F73C17FD06C089E577
:1059200090E090930102809300021092580E109222
:10593000570E1092590E1092830E0C941E2280E581
:1059400090E090930102809300020C941E228093B9
:10595000800E6CE076E181E893E10E944C3E48CBFA
:105960008F929F92AF92BF92CF92DF92EF92FF926F
:105970000F931F93CF93DF93CDB7DEB7C056D109F6
:105980000FB6F894DEBF0FBECDBF8091741291E0C8
:10599000980F90937412837041F5E0910602E23003
:1059A00019F481E080932F1280912F12813009F435
:1059B0006AC098F0823009F4B0C1833009F475C22E
:1059C00060E08FE10E94DD3F60E080E20E94DD3F09
:1059D00061E08EE10E94DD3F84C0EB3009F446C0F7
:1059E00081E080932F120E94512011E08EE194E11A
:1059F0000E94F736181619060CF0FBC28EE194E1EE
:105A00000E94D536E0910013F0910113EC5CFD4E3D
:105A10008083833251F490913412933231F010929A
:105A20000113109200138093341280913412833248
:105A3000E9F68091001390910113FC01EC5CFD4E9E
:105A400020812D3011F4109333120196909301139D
:105A500080930013803491054CF2809133128111B0
:105A6000C5CF1092011310920013C0CF8091130282
:105A7000853111F082E0B5CF809112028F3109F4A7
:105A8000B2CF83E0AECFE250EA30B8F4F0E088273E
:105A9000E35BF24D8F4F0C948564572D7C2D932D35
:105AA000C52DD92DED2D012E442E5D2D642D809117
:105AB0002E128823C9F0813071F10E9412051092D4
:105AC0002E128BE080930602809106028B3091F6B5
:105AD00080911302853171F6809112028F3109F0A5
