:1000000011C1000040C100003EC100003CC1000021
:100010003AC1000038C1000036C1000034C1000000
:1000200032C1000030C100002EC100002CC1000010
:100030002AC1000028C1000026C1000024C1000020
:1000400022C1000020C100001EC100001CC1000030
:100050000C944F4B18C1000016C100000C94054BC6
:1000600012C100000C94DB4A0C94B14A0CC1000090
:100070000AC1000008C1000006C1000004C1000060
:1000800002C1000000C10000FEC000000C947A4BC9
:100090000C94874A0C945D4AF6C000000C94A54B62
:1000A000F2C00000F0C00000EEC00000ECC0000094
:1000B000EAC00000E8C00000E6C00000E4C00000A4
:1000C000E2C00000E0C00000DEC000000C94334A33
:1000D0000C94094AD8C000000C94DF490C94B5492F
:1000E000D2C000007C3C3E5E2B3D3F2F5B5D3B2C35
:1000F0002A225C0000002200250028002B002E0090
:100100003100340002010000050108010B0100006C
:1001100020002300260029002C002F0032000001BF
:10012000000003010601090100000A0B02090C0D81
:100130000E0807030401000000000000000000009A
:1001400000000000000000000000000000000000AF
:10015000000000001211100000000000000000006C
:10016000000000000000000000000000000000008F
:100170002100240027002A002D0030003300010157
:100180000000040107010A010102102020080810E4
:1001900020401020408002010201080402010102F7
:1001A00004081020408080402010080402018004D0
:1001B000020180402010080402010804020101022B
:1001C000040810204080010204081020408005052A
:1001D0000505070508080808020202020A0A0808BD
:1001E00004040404010101010101010103030303EB
:1001F00003030303040707070C0C0C0C0C0C0C0C7A
:100200000202020206060606060606060B0B0B0B8A
:100210000B0B0B0B1F1C1F1E1F1E1F1F1E1F1E0064
:100220008351555111241FBECFEFD1E2DEBFCDBFA8
:1002300000E00CBF1CE0A0E0B2E0E2E1F2EC00E084
:100240000BBF02C007900D92A03EB107D9F727E17E
:10025000A0EEBCE001C01D92A238B207E1F711E0A8
:10026000C1E1D1E000E006C021970109802FFE0125
:100270000E94E15CC031D10780E00807A9F70E9425
:100280001F530C94F860BCCE9091BE0F8091BD0FAF
:100290002FEF3FEF981748F4E92FF0E0E356F04FC7
:1002A000208130E09F5F9093BE0FC9010895909127
:1002B000BE0F8091BD0F2FEF3FEF981748F4E92F45
:1002C000F0E0E356F04F208130E09F5F9093BE0F47
:1002D000C901089590919C0F9111FCCF91E09093EA
:1002E0009C0F40939B0F2FEF20939A0F1092990F22
:1002F000260F2093980F9093970F9091970F880F48
:10030000892B8093970F8091960F8130F9F410928A
:10031000960F8091970F8093BB008091BC0083FD66
:10032000F8CF85EC8093BC0080919C0F8130E1F385
:100330008091990F861710F46091990FA6E7BFE09E
:10034000EDE9FFE080E0861303C0089585EEEACF73
:100350009D9191938F5FF7CF982F2091750F81E03A
:10036000213208F043C080919C0F8111FCCF809115
:10037000740F32E030939C0F90939B0F9FEF9093FC
:100380009A0F1092990F2093980FA4E5BFE0E6E72B
:10039000FFE090E0291331C01092970F9091970FD2
:1003A000880F892B8093970F8091960F813049F5A4
:1003B0001092960F8091970F8093BB008091BC00A4
:1003C00083FDF8CF85EC8093BC0080919C0F823038
:1003D000E1F380919A0F8F3FB1F080919A0F8032B4
:1003E000A1F080919A0F803391F084E01092530F26
:1003F0001092750F1092520F08953D9131939F5FA7
:10040000C9CF85EEE0CF80E0F1CF82E0EFCF83E08F
:10041000EDCF91E09093520F8093740F1092530F91
:100420001092750F089581E097CFDC0115961C920C
:10043000159714961C92149713961C9213971C925E
:1004400081E011968C93119711968C9111978C30B5
:1004500070F4282F2150330BF901EC5EFD4FE4912D
:10046000823009F4EF5FE11102C08F5FEACF81E0D3
:1004700012968C9308950F931F93CF93DF93EC0103
:100480009A01AB01E889F98982E08083EC85FD85DA
:1004900010820E851F8560E079E08DE390E00E9478
:1004A000735C21503109410951095695479537959B
:1004B0002795F8012083188EEC89FD8986E08083DA
:1004C000EA89FB89808180618083EA89FB89808158
:1004D00088608083EA89FB89808180688083EA89DB
:1004E000FB8980818F7D8083DF91CF911F910F9158
:1004F0000895089508950895AF92BF92CF92DF9224
:10050000EF92FF920F931F93CF93DF936C017B01C8
:100510008B01040F151FEB015E01AE18BF08C01759
:10052000D10759F06991D601ED91FC910190F081CC
:10053000E02DC6011995892B79F7C501DF91CF917F
:100540001F910F91FF90EF90DF90CF90BF90AF90F1
:100550000895FC01A089B1898C91A689B78982FD93
:100560000FC09C91818D8F5F8F73228D821749F010
:10057000A18DAE0FBF2FB11D5D969C93818F089505
:100580008C910895FC01538D448D252F30E0842FEC
:1005900090E0821B930B541710F0CF9608950197AB
:1005A0000895FC01918D828D981761F0A28DAE0F98
:1005B000BF2FB11D5D968C91928D9F5F9F73928F1F
:1005C00090E008958FEF9FEF0895FC01918D828D4B
:1005D000981731F0828DE80FF11D858D90E0089518
:1005E0008FEF9FEF0895FC01918D228D892F90E070
:1005F000805C9F4F821B91098F73992708958FEB21
:1006000091E1F1DF21E0892B09F420E0822F0895A8
:1006100080E995E1E8DF21E0892B09F420E0822FD1
:10062000089582E396E1DFDF21E0892B09F420E0E1
:10063000822F08958CE592E1D6DF21E0892B09F421
:1006400020E0822F0895FC01A48DA80FB92FB11DC1
:10065000A35ABF4F2C91848D90E001968F739927F8
:10066000848FA689B7892C93A089B1898C918370D6
:1006700080648C93938D848D981306C00288F389CF
:10068000E02D80818F7D80830895EF92FF920F93FC
:100690001F93CF93DF93EC0181E0888F9B8D8C8D2E
:1006A00098131AC0E889F989808185FF15C09FB722
:1006B000F894EE89FF896083E889F98980818370E5
:1006C000806480839FBF81E090E0DF91CF911F9194
:1006D0000F91FF90EF900895F62E0B8D10E00F5FB5
:1006E0001F4F0F731127E02E8C8D8E110BC00FB68C
:1006F00007FCFACFE889F989808185FFF5CFCE0123
:10070000A2DFF2CFEB8DEC0FFD2FF11DE35AFF4F6F
:10071000F0829FB7F8940B8FEA89FB898081806211
:10072000D0CFCF93DF93EC01888D8823B1F0AA89D5
:10073000BB89E889F9898C9185FD03C0808186FD9C
:100740000CC00FB607FCF7CF8C9185FFF2CF8081EC
:1007500085FFEDCFCE0177DFEACFDF91CF9108950E
:1007600080E090E0892B21F065DF81110E9400007C
:1007700080E090E0892B21F054DF81110E9400007D
:1007800080E090E0892B21F043DF81110E9400007E
:1007900080E090E0892B21F032DF81110C94000081
:1007A00008958150823108F05AC0E82FF0E0882780
:1007B000E352FC4F8F4F0C94E15CFD030104EF0307
:1007C000F503F9032F0404040A040E0414041804A6
:1007D0001C04220426042F042A04300434048091CB
:1007E00080008F77809380000895809180008F7DB6
:1007F000F9CF80918000877FF5CF84B58F7784BD56
:10080000089584B58F7DFBCF8091B0008F77809362
:10081000B00008958091B0008F7DF9CF8091900055
:100820008F77809390000895809190008F7DF9CF0D
:1008300080919000877FF5CF8091A0008F77809383
:10084000A00008958091A0008F7DF9CF8091A00035
:10085000877FF5CF809120018F77809320010895C5
:10086000809120018F7DF9CF80912001877FF5CF86
:10087000CF93DF93282F30E0F901E85DFE4F84919C
:10088000F901E857FE4FD491F901E253FE4FC491AC
:10089000CC2399F0811185DFEC2FF0E0EE0FFF1FE4
:1008A000E25FFE4FA591B491EC91ED2381E090E0E1
:1008B00009F480E0DF91CF91089580E090E0FACFD5
:1008C0001F93CF93DF93282F30E0F901E85DFE4FAF
:1008D0008491F901E857FE4FD491F901E253FE4F9C
:1008E000C491CC23A1F0162F81115BDFEC2FF0E037
:1008F000EE0FFF1FEC50FF4FA591B4918FB7F89406
:10090000EC91111108C0D095DE23DC938FBFDF91ED
:10091000CF911F910895DE2BF8CF1092BE0F109249
:10092000BD0F1092530F1092750F10929C0F81E023
:1009300080939B0F1092960F61E084E1C1DF61E02C
:1009400085E1BEDFE9EBF0E080818E7F80838081EE
:100950008D7F808388E48093B80085E48093BC0019
:1009600089E792E090934E0F80934D0F8AE792E0D3
:1009700090934C0F80934B0F0895CF93DF9390E0AB
:10098000FC01E857FE4F249182539E4FFC01849155
:100990008823D1F090E0880F991FFC01E259FE4FA7
:1009A000A591B491FC01EC50FF4FC591D491611118
:1009B0000EC09FB7F8948C91E22FE0958E238C9314
:1009C0002881E223E8839FBFDF91CF9108958FB7FD
:1009D000F894EC91E22BEC938FBFF6CF3FB7F894ED
:1009E0008091F30E9091F40EA091F50EB091F60E59
:1009F00026B5A89B05C02F3F19F00196A11DB11D7A
:100A00003FBFBA2FA92F982F8827BC01CD01620FB5
:100A1000711D811D911D42E0660F771F881F991F70
:100A20004A95D1F708958F929F92AF92BF92CF923D
:100A3000DF92EF92FF924B015C01D0DF6B017C01F2
:100A4000CDDF6C197D098E099F09683E73408105D1
:100A50009105B0F321E0821A9108A108B10888EE4F
:100A6000C80E83E0D81EE11CF11C81149104A1047E
:100A7000B10431F7FF90EF90DF90CF90BF90AF902F
:100A80009F908F9008952FB7F8946091EF0E70911A
:100A9000F00E8091F10E9091F20E2FBF08958F927B
:100AA0009F92AF92BF92CF92DF92EF92FF920F93FD
:100AB0001F93CF93DF937C018C01060F171FEC016E
:100AC0006E01CE18DF080C171D0741F1DCDF6093C3
:100AD00098157093991580939A1590939B1580E9BA
:100AE00095E15FDD97FF28C0CEDF8090981590904C
:100AF0009915A0909A15B0909B15681979098A09E3
:100B00009B098090941590909515A0909615B090A3
:100B10009715681579058A059B0508F3C601DF91CD
:100B2000CF911F910F91FF90EF90DF90CF90BF90EA
:100B3000AF909F908F9008958993C2CF8FB7F8940C
:100B40008091E80E8FBF089561E0FC018481B8DEDA
:100B50008091E70E81111092E70E08958EBD00007E
:100B60000DB407FEFDCF8EB508958FEFF7CF0F932D
:100B70001F93CF93DF93EC0186DF8B01F6DF8F3F6E
:100B800061F081DF601B710B6C177D07B8F380E0AB
:100B9000DF91CF911F910F91089581E0F9CF8CBD26
:100BA0009DBD0895CF93DF93EC018091E70E8111F5
:100BB00008C081E08093E70E8091F9129091FA12BB
:100BC000EEDF60E08C81DF91CF917ACE8F929F92A1
:100BD000AF92BF92FF920F931F93CF93DF93EC01DD
:100BE000F62E49015A018E81882379F08F819885EC
:100BF0009C012F5F3F4F38872F838230924010F443
:100C0000B4DFF4CFCE01A0DF1E82CE01CBDF8CE2B9
:100C100091E0ADDF8F2D8064A1DF08E110E0D50108
:100C2000C401002E04C0B695A795979587950A94A0
:100C3000D2F794DF08501109083F8FEF180779F7B2
:100C400085E9FF2021F028E087E8F2128FEF86DFA8
:100C500010E08BDF8A8787FF04C01F3F11F01F5F02
:100C6000F8CFDF91CF911F910F91FF90BF90AF9080
:100C70009F908F900895AF92BF92CF92DF92EF92A4
:100C8000FF920F931F93CF93DF93EC016901C8018B
:100C9000820F931F8130924048F58E81882379F02E
:100CA00088819981AA81BB8184179507A607B70718
:100CB00031F48F819885C816D90608F03CC0488366
:100CC00059836A837B838B85833039F089E0440FB5
:100CD000551F661F771F8A95D1F79A01AB0161E115
:100CE000CE0174DF882381F083E08D83CE012CDF79
:100CF00080E0DF91CF911F910F91FF90EF90DF90F7
:100D0000CF90BF90AF900895BEDE5B012EDF8A8743
:100D10008F3F59F4B8DE6A197B096D327140B0F328
:100D20008FE08D83CE0110DFE1CF8E3F81F41886F6
:100D30001F8281E08E838F8198858C159D0548F4F4
:100D400014DF8F819885019698878F83F4CF8DE08B
:100D5000E8CF6701E00EF11E08DFF60181936F0115
:100D6000EE15FF05C9F78F819885080F191F1887A1
:100D70000F838985882319F00115124090F08E8128
:100D8000882379F08F8198859C012F5F3F4F3887AA
:100D90002F838230924010F4E8DEF4CFCE01D4DE0F
:100DA0001E8281E0A6CFCF92DF92EF92FF920F9347
:100DB000CF93DF93EC01690182E141155105610593
:100DC000710591F08B85833039F089E0440F551F10
:100DD000661F771F8A95D1F79A01AB0168E1CE01B2
:100DE000F5DE882319F084E08D8326C08EEFB6DE11
:100DF00076018EEFD81AF70181917F01AFDEEC14F6
:100E0000FD04C9F78FEFAADE8FEFA8DEAEDE8A877A
:100E10008F71853069F4011113C0CE0195DE81E038
:100E2000DF91CF910F91FF90EF90DF90CF900895D9
:100E300081E18D83CE0188DECE0186DE80E0F0CFB9
:100E400088E592E094DE811102C085E1CDCF20E0FB
:100E500030E0A9016DE0CE01B9DE882311F084E114
:100E6000C3CF83DE8111FBCFD8CF0F934091EA0E21
:100E70005091EB0E6091EC0E7091ED0E4115510505
:100E80006105710591F0082F2FEB3FE08091500F25
:100E90009091510F88DF882349F01092EA0E10924A
:100EA000EB0E1092EC0E1092ED0E81E00F91089572
:100EB0000F93CF93C82F8091E90E811105C0C1E037
:100EC0008C2FCF910F91089540910D0250910E02F9
:100ED00060910F02709110020C2F2FEB3FE0809178
:100EE000500F9091510F5FDF811102C0C0E0E8CF39
:100EF000CC2329F381E0B9DF8823C1F31092E90EF6
:100F0000DFCF8F929F92AF92BF92EF92FF920F939B
:100F10001F93CF934B015C01C42F80910D029091E0
:100F20000E02A0910F02B091100288159905AA0532
:100F3000BB0541F181E0BCDF81110BC080E0CF91A6
:100F40001F910F91FF90EF90BF90AF909F908F9067
:100F500008958FEBE82E8FE0F82E00E012E030E0ED
:100F600020E0B501A4018091500F9091510F83DED4
:100F7000882321F380920D0290920E02A0920F021C
:100F8000B09210024091E90E4C2B4093E90E81E0A3
:100F9000D6CFCF93DF93EC016E857F8588899989C1
:100FA00041E0AFDF882351F08A8920E2829FC001AF
:100FB00011248154904FDF91CF91089590E080E00B
:100FC000FACF8F929F92AF92BF92CF92DF92EF9221
:100FD000FF92CF932BEF32E13093510F2093500FBC
:100FE000882309F46BC040E060E070E0CB0189DF4A
:100FF00081110BC080E0CF91FF90EF90DF90CF90F8
:10100000BF90AF909F908F90089580917D118F77C2
:1010100089F78091891190918A11A0918B11B091DB
:101020008C1184369105A105B10520F3C09085117E
:10103000D0908611E0908711F0908811C114D104EE
:10104000E104F104B9F240E0C701B6015ADF882398
:1010500089F28091CA0F9091CB0F8115924051F681
:10106000A091CF0FAA2331F26091CD0F7091CE0FD6
:101070006115710509F4BECF2091CC0F222309F42C
:10108000B9CFA093191320930B1390E080E030E0C8
:10109000E1E0F0E0C82FAF01082E02C0440F551F59
:1010A0000A94E2F72417350769F041E0480F0196EA
:1010B0008930910579F7409314139CCFC12CD12C22
:1010C0007601C1CF809314132091D50F3091D60FA4
:1010D00050E040E02115310541F42091E30F3091BB
:1010E000E40F4091E50F5091E60F20930C133093DD
:1010F0000D1340930E1350930F1346015701860EA4
:10110000971EA11CB11C80921A1390921B13A092DF
:101110001C13B0921D13E091D00FF091D10FF093FA
:101120002013E0931F13B0E00E94955CDC01CB011B
:10113000880D991DAA1DBB1D809321139093221326
:10114000A0932313B093241325E0EE0FFF1F2A95DD
:10115000E1F7E150FE4FEF2FFF27E6958E0F9F1F1F
:10116000A11DB11D8093151390931613A09317130F
:10117000B09318138090D20F9090D30FB12CA12C64
:101180008114910441F48090DF0F9090E00FA090C3
:10119000E10FB090E20FC81AD90AEA0AFB0AC80C9C
:1011A000D91CEA1CFB1C04C0F694E794D794C7949E
:1011B000CA95D2F7C0921013D0921113E092121375
:1011C000F092131385EFC8168FE0D806E104F104FE
:1011D00028F48CE080931E1381E00DCF80E125EF91
:1011E000C2162FEFD206E104F104A0F38091EB0FB9
:1011F0009091EC0FA091ED0FB091EE0F8093211321
:1012000090932213A0932313B093241380E2E2CF90
:101210004F925F926F927F928F929F92AF92BF9206
:10122000CF92DF92EF92FF920F931F93CF93DF93B2
:10123000EC01423051056105710590F480E0DF91C9
:10124000CF911F910F91FF90EF90DF90CF90BF90C3
:10125000AF909F908F907F906F905F904F90089588
:1012600089859A85AB85BC850196A11DB11D841722
:101270009507A607B70710F3CB88DC88ED88FE88B2
:101280008F89803109F042C0BB27A72F962F852F69
:10129000480159012A013B01C80ED91EEA1EFB1E56
:1012A00080910D0290910E02A0910F02B091100258
:1012B000C816D906EA06FB0699F58F898031B9F57B
:1012C000B301A201552766277727440F551F4154C4
:1012D000504FFA01918280828091E90E8160809363
:1012E000E90E8A89823080F08D819E81AF81B88538
:1012F0008C0D9D1DAE1DBF1D8093EA0E9093EB0ECD
:10130000A093EC0EB093ED0E81E099CFDB01CA0102
:10131000E7E0B695A79597958795EA95D1F7B8CF69
:1013200040E0C701B601EDDD8111C7CF87CFB30122
:10133000A2014F77552766277727440F551F440F83
:10134000551F4154504FFA0180829182A282B3828C
:10135000C3CF8F929F92AF92BF92CF92DF92EF92C4
:10136000FF920F931F93CF93DF93FC0181859285AA
:10137000A385B4850196A11DB11D84179507A60705
:10138000B70770F480E0DF91CF911F910F91FF902C
:10139000EF90DF90CF90BF90AF909F908F90089587
:1013A00083889488A588B6888789803189F5BB278A
:1013B000A72F962F852FE9016A017B018F01BC01C0
:1013C000CD01680D791D8A1D9B1D80900D029090A6
:1013D0000E02A0900F02B090100286169706A80683
:1013E000B90601F5F8018789803109F5DD24EE247D
:1013F000FF24F601EE0FFF1FE154F04F8081918131
:10140000B0E0A0E088839983AA83BB8381E0BBCF4F
:10141000DB01CA01C7E0B695A79597958795CA9550
:10142000D1F7C9CF40E06DDD8111DCCFABCFE894BF
:10143000C7F8DD24EE24FF24F601EE0FFF1FEE0FA8
:10144000FF1FE154F04F80819181A281B381BF7071
:10145000D9CF4F925F926F927F92AF92BF92CF920D
:10146000DF92EF92FF920F931F93CF93DF9300D001
:101470001F92CDB7DEB78C0149835A836B837C837F
:101480005901C12CD12C7601412C82E0582E612CBF
:10149000712C49815A816B817C819E012F5F3F4F66
:1014A000C80157DF882339F1F8018585A30192012E
:1014B00004C0220F331F441F551F8A95D2F7DA014B
:1014C000C901C80ED91EEA1EFB1E49815A816B81D3
:1014D0007C818789803111F188EF9FEFAFEFBFE00A
:1014E000481759076A077B07A0F2F501C082D1822D
:1014F000E282F38281E00F900F900F900F90DF91C6
:10150000CF911F910F91FF90EF90DF90CF90BF9000
:10151000AF907F906F905F904F90089588EF9FEF0E
:10152000A0E0B0E0DDCFCF93DF93FC012581222343
:1015300021F080E0DF91CF910895EC0180911E139E
:10154000803159F582E08583178A108E118E128EB4
:1015500080911F1390912013B0E0A0E025E0880F48
:10156000991FAA1FBB1F2A95D1F7838B948BA58B3C
:10157000B68B87E093E19C8F8B8F81E08C831E82FA
:101580001F82188619861A861B861C861D861E8653
:101590001F86188A198A1A8ACDCF803251F683E0C5
:1015A00085834091211350912213609123137091F0
:1015B0002413478B508F618F728F9F012D5E3F4F99
:1015C00087E093E146DF8111D4CFB3CF8F929F9212
:1015D000AF92BF92CF92DF92EF92FF920F931F9341
:1015E000CF93DF93EC018D8181110EC080E0DF91FC
:1015F000CF911F910F91FF90EF90DF90CF90BF9010
:10160000AF909F908F9008950B891C892D893E89FA
:10161000041715072607370748F34A015B01823094
:1016200031F48A869B86AC86BD8681E0E0CF81144A
:101630009104A104B10449F41E821F821886198600
:101640001A861B861C861D86F0CF0A851B852C8575
:101650003D85EB8DFC8D858590E00996B901A8014B
:101660004150510961097109082E04C076956795AA
:10167000579547950A94D2F775016401E1E0CE1AB7
:10168000D108E108F10804C0F694E794D794C79410
:101690008A95D2F7C416D506E606F70620F0012B88
:1016A000022B032B09F58F89988DA98DBA8D8E8316
:1016B0009F83A887B9878E010A5F1F4FC114D10489
:1016C000E104F10409F4ADCF4E815F81688579852D
:1016D00098018B8D9C8D3DDE91E0C91AD108E108FF
:1016E000F1088111EBCF82CFC41AD50AE60AF70AB6
:1016F000E2CF3F924F925F926F927F928F929F9232
:10170000AF92BF92CF92DF92EF92FF920F931F930F
:10171000CF93DF93CDB7DEB72C970FB6F894DEBF2B
:101720000FBECDBF5C01DC015B968D909C905C97F9
:1017300016964D905D906D907C90199741145104D0
:101740006104710409F467C0BFEF4B1A5B0A6B0AAE
:101750007B0A312CF40181859285A385B4859C0197
:10176000AD012F5F3F4F4F4F5F4F29873A874B8720
:101770005C87730162011D821E821F821886F4013C
:1017800081859285A385B4852D813E814F815885C1
:10179000281739074A075B0708F054C089859A85DE
:1017A000AB85BC858C159D05AE05BF0550F482E068
:1017B000C82ED12CE12CF12C92E0492E512C612C19
:1017C000712C9E012F5F3F4FB701A601C401C1DDFF
:1017D0008823C1F189819A81AB81BC81892B8A2BB5
:1017E0008B2B09F1260137019FEF491A590A690A23
:1017F000790A2D813E814F8158852F5F3F4F4F4F92
:101800005F4F2D833E834F8358873FEFC31AD30A20
:10181000E30AF30AB4CFF401408051806280738000
:101820003324339497CFC414D504E604F70409F79E
:101830000FEF1FEF2FEF3FE0B701A601C401E8DC77
:10184000811119C080E02C960FB6F894DEBF0FBE50
:10185000CDBFDF91CF911F910F91FF90EF90DF905F
:10186000CF90BF90AF909F908F907F906F905F9040
:101870004F903F900895D50116964D915D916D91D1
:101880007C911997411551056105710531F097015A
:101890008601C401BDDC8823A9F2D5011696CD923C
:1018A000DD92ED92FC921997332051F0D701C601D9
:1018B0000196A11DB11DF40180839183A283B3839E
:1018C000F5018789908DA18DB28D892B8A2B8B2B69
:1018D00039F48481C78AD08EE18EF28E8068848349
:1018E000F50184818062848381E0ADCF2F923F92A5
:1018F0004F925F926F927F928F929F92AF92BF9220
:10190000CF92DF92EF92FF920F931F93CF93DF93CB
:10191000EC015B012A018D81811115C08FEF9FEFD2
:10192000DF91CF911F910F91FF90EF90DF90CF90BB
:10193000BF90AF909F908F907F906F905F904F90EF
:101940003F902F9008958C8180FFE8CF0B891C89F0
:101950002D893E894A855B856C857D85C201B0E015
:10196000A0E068017901C41AD50AE60AF70AC81688
:10197000D906EA06FB0618F42801441A550A420162
:101980001E0126E0220E311C8114910409F4B0C01E
:101990004A855B856C857D856A0181E0D8228B8DC7
:1019A0009C8D8A019B01E9E036952795179507954F
:1019B000EA95D1F7ED81E230D9F5FC01628D738DA6
:1019C000848D958D600F711F821F931F612C22E003
:1019D000722E6C187D088614970408F434012C814B
:1019E00026FD04C06114F2E07F0671F400910D023F
:1019F00010910E0220910F02309110020617170766
:101A00002807390709F051C040E07BDA882309F440
:101A100085CFC6018154904FD5019C01260D371DFD
:101A2000FC012E173F0709F45EC041914D93F9CF99
:101A3000FC0174807A947022C114D10471F4711085
:101A40000CC0452B462B472B39F58F89988DA98DD6
:101A5000BA8D8E839F83A887B987EB8DFC8D6E81AD
:101A60007F81888599856250710981099109258551
:101A700004C0660F771F881F991F2A95D2F7068525
:101A8000178520893189600F711F821F931F670D91
:101A9000711D811D911D9ACF4E815F816885798569
:101AA000910157DC8111D9CF39CF7501830196019E
:101AB000AB01BC018091500F9091510FDCD888236D
:101AC00009F42CCFA60CB71C8A859B85AC85BD85F7
:101AD000860D971DA11DB11D8A879B87AC87BD8789
:101AE0008618970851CF281B390BA20EB31EECCFD6
:101AF000C20116CF1F93CF93DF93FC0125812223D0
:101B000061F1162FEC01848187FF1DC0CF0141DAFE
:101B1000FC01892B11F18D81823040F48B899C89E5
:101B2000AD89BE89848F958FA68FB78F8F89988D49
:101B3000938F828F8F89988DA98DBA8DB58BA48B49
:101B40008C818F778C83111103C08C818F7E8C8365
:101B5000812FDF91CF911F91ABC980E0DF91CF91B1
:101B60001F910895FF920F931F93CF93DF93EC0182
:101B70008D81813041F090E080E0DF91CF911F9125
:101B80000F91FF9008958C8181FFF5CF82FD19C0E0
:101B90000091500F1091510FC80104D80E94B50553
:101BA000F82EC8010E94A4058FEFF812E4CF8C81B3
:101BB00085FF19C060E0CE019DDF8C818F7D8C8315
:101BC000DACF4B895C896D897E898A859B85AC8556
:101BD000BD8584179507A607B707D1F2CE01F6DCBD
:101BE0008111D6CFC8CF4091EA0E5091EB0E609193
:101BF000EC0E7091ED0E452B462B472B19F080E033
:101C000034D9B9CF80618C832A853B85317080E0DF
:101C100092E0821B930BB1CFCF93DF93EC0161E095
:101C200069DF882311F01D8281E0DF91CF91089553
:101C3000CF92DF92EF92FF921F93CF93DF93C82F43
:101C400080912A13882319F085E293E1E5DF109251
:101C50000613109204131092011310920013C093F4
:101C6000FF120E944305EB0161E08091FF120E9488
:101C7000BD0461E08091FF120E9460041FB7F894D8
:101C800080914F0F811127C0E3E0F2E08491EDEBEA
:101C9000F1E09491E82FF0E0EE0FFF1FE259FE4FC4
:101CA000A591B491EC91E92321F461E085E30E94D0
:101CB000600461E085E30E94BD048CB580618CBD49
:101CC0008CB580648CBD61E084E30E94BD0461E05A
:101CD00083E30E94BD0480914F0F8F5F80934F0F6D
:101CE0001FBF82E58093F9121092FA128091F912C7
:101CF0009091FA120E94CF051AE08FEF0E94AE0574
:101D00001150D9F78BEF92E10E94D20520E030E02C
:101D1000A90160E08BEF92E10E94E605182F809305
:101D20000513813081F00E9443056C1B7D0B613DE2
:101D3000774060F381E0809300138BEF92E10E9483
:101D4000A40590E076C02AEA31E040E050E068E087
:101D50008BEF92E10E94E60582FF2AC010930613E2
:101D600080910613C12CD12C7601823029F4C12C2C
:101D7000D12CE12C80E4F82E20E030E0A90167E3CB
:101D80008BEF92E10E94E605A701960169E28BEFD5
:101D900092E10E94E605809305138823C1F00E941A
:101DA00043056C1B7D0B613D774030F388E0C3CF6A
:101DB00014E00E94B505809305131150D1F78A3ABB
:101DC00011F082E0B8CF82E080930613C9CF8091F2
:101DD00006138230D1F420E030E0A9016AE38BEFF2
:101DE00092E10E94E605882311F086E0A4CF0E94CC
:101DF000B505807C803C19F483E0809306130E9433
:101E0000B5050E94B5050E94B5058BEF92E10E94D1
:101E1000A40580E58093F9121092FA1281E0D1D8DE
:101E2000882381F085E293E17EDB91E0882309F449
:101E300088CF892FDF91CF911F91FF90EF90DF9096
:101E4000CF90089580E0BDD8882309F47ACFEACFF7
:101E50002F923F924F925F926F927F928F929F92BA
:101E6000AF92BF92CF92DF92EF92FF920F931F93A8
:101E7000CF93DF9300D01F921F92CDB7DEB77C01C6
:101E80005B01342E5D83DC0115968C9115978130B2
:101E900009F0CCC014962C9021FEC8C022FCB3C01F
:101EA000C32CDD8022947FE027222094B22DB170D4
:101EB0002B2ED7011A964D915D916D917C911D97B6
:101EC000C114D10409F425C15B968D919C915C9756
:101ED000FC0174807A948A019B0169E0369527950C
:101EE000179507956A95D1F770228A0111707110C4
:101EF0001FC001151105E1F416964D915D916D918C
:101F00007C911997411551056105710509F097C03C
:101F100057968D919D910D90BC91A02D0097A10594
:101F2000B10509F0ADC0C701E4DB882309F47EC028
:101F300080E092E0801B910B46018C159D0508F412
:101F40004C01D7015B964D915C915C9716968D91F3
:101F50009D910D90BC91A02D0297A109B109FA01A4
:101F6000258504C0880F991FAA1FBB1F2A95D2F789
:101F70004685578560897189840F951FA61FB71FF5
:101F80009C01AD01270D311D411D511D29013A0153
:101F9000811432E0930609F079C080910D0290918E
:101FA0000E02A0910F02B091100284159505A605AE
:101FB000B70559F48FEF9FEFDC0180930D029093EA
:101FC0000E02A0930F02B0931002022D9501B301EF
:101FD000A2018091500F9091510F0E94D306882347
:101FE00029F19EEFB91AC818D908F701828593859F
:101FF000A485B585880D991DA11DB11D8287938784
:10200000A487B58756CFF7014389548965897689B6
:1020100082859385A485B585481759076A077B078C
:1020200009F43ECFC701D2DA81113ACF81E090E0C6
:10203000D70113969C938E93129780E006C09E0161
:102040002F5F3F4F86D9811102C090E079C089810E
:102050009A81AB81BC81F701238D348DF9012789E9
:1020600048EF5FEF60E070E0203121F048EF5FEF74
:102070006FEF7FE084179507A607B70708F053CFE7
:10208000F70186839783A087B18752CF0115110589
:1020900099F5D7011A964D915D916D917C911D979F
:1020A00053968D919D910D90BC91A02D4817590785
:1020B0006A077B0708F181E00E945807882309F42A
:1020C000B5CF40920D0250920E0260920F027092B4
:1020D00010028091E90E81608093E90EC80181545D
:1020E000904FD5019C01280D391DFC012E173F078B
:1020F00059F04D914193FACF41E0C301B2010E94E2
:1021000081078111EBCF92CF281B390BA20EB31E92
:102110006ACFF70183899489A589B68984179507C1
:10212000A607B70738F48481438B548B658B768B75
:1021300080688483F701848183FD1AC0832D9D818B
:102140000F900F900F900F900F90DF91CF911F91F4
:102150000F91FF90EF90DF90CF90BF90AF909F9046
:102160008F907F906F905F904F903F902F90089549
:1021700061E0C701BFDC882309F458CFDFCFCF93DC
:10218000DF931F92CDB7DEB7698341E050E0BE0117
:102190006F5F7F4F5DDE0F90DF91CF910895FC015F
:1021A000DB0112968D919C9113979383828381EB2F
:1021B00092E09183808314968C9114978483159672
:1021C0008C911597858316964D915D916D917C91BB
:1021D000199746835783608771871A964D915D9151
:1021E0006D917C911D9742875387648775871E96F2
:1021F0004D915D916D917C91519746875787608B8A
:10220000718B52968C915297828B53964D915D9122
:102210006D917C915697438B548B658B768B57963B
:102220004D915D916D917C915A97478B508F618F45
:10223000728F5B968D919C91948F838F0895DC01B2
:102240005996ED91FC91309721F081E095819111A3
:1022500001C080E00895FC01818D928D009711F0FE
:1022600061E048CC0895DC015996ED91FC913097DE
:10227000B9F083899489A589B68942855385648597
:102280007585841B950BA60BB70B811520E892076B
:10229000A105B10538F08FEF9FE7A0E0B0E0089509
:1022A00090E080E00895DC0159968D919C91009713
:1022B00039F0DC01ED91FC910480F581E02D199459
:1022C00090E080E00895CF93DF93EC01E98DFA8DE3
:1022D000309749F481E090E09B838A8390E080E02E
:1022E000DF91CF91089513821282898D9A8DB0DD8E
:1022F000E98DFA8D22813381232B61F7F1CFCF93C2
:10230000DF931F92CDB7DEB76983DC01ED91FC91BD
:102310000280F381E02D41E050E0BE016F5F7F4F0E
:1023200019950F90DF91CF910895CF93DF931F926E
:10233000CDB7DEB741E050E0BE016F5F7F4FD6DA28
:10234000019731F4898190E00F90DF91CF9108954A
:102350008FEF9FEFF9CFFC01818D928D009709F0EF
:10236000E4CF8FEF9FEF08950F931F93CF93DF93E9
:10237000EC01898D9A8D10E000E0009789F0D5DF9F
:102380008C010F3F100761F0898D9A8DFC01428509
:10239000538564857585415051096109710916D9C4
:1023A000C801DF91CF911F910F9108952F923F9215
:1023B0004F925F926F927F928F929F92AF92BF9255
:1023C000CF92DF92EF92FF920F931F93CF93DF9301
:1023D0002C011A0189013B01D0E0C0E06901F12C18
:1023E000E12CC215D30511F10E9443054B015C019C
:1023F000D20112968D919C91DC01ED91FC910284A9
:10240000F385E02D199597FF25C00115110581F37E
:102410000E944305681979098A099B096C157D0595
:102420008E059F0528F38EEF209709F08C2FDF9102
:10243000CF911F910F91FF90EF90DF90CF90BF90C1
:10244000AF909F908F907F906F905F904F903F9054
:102450002F900895F30181933F012196C2CFAF924F
:10246000BF92CF92DF92EF92FF920F931F93CF9381
:10247000DF9300D01F921F92CDB7DEB77C01062FED
:10248000B72E142F690143E050E0BE016F5F7F4F0C
:102490008DDF181694F08EEF9FEF0F900F900F9036
:1024A0000F900F90DF91CF911F910F91FF90EF90C0
:1024B000DF90CF90BF90AF9008958981882319F065
:1024C0008DEF9FEFEACF8A818111FACF8B818F3F09
:1024D000B9F7960142E050E0BE016C5F7F4FC70143
:1024E00065DF1816C4F68C819D81980F49F78250DC
:1024F0008C83181708F445C0F7011481AA24A3940B
:10250000A10E960142E050E0BE016F5F7F4FC70110
:102510004DDF18160CF0BFCF8981853D89F68A8181
:102520008A11CECF4C8150E09601602F7B2DC701E0
:102530003DDF2C81082E000C990B2817190609F095
:10254000AACF1A52902FE02FFB2D8E2F891B8217B6
:1025500018F48191180FF9CF960142E050E0BE01C6
:102560006F5F7F4FC70122DF18160CF094CF89816F
:10257000180F09F0A5CF8A818111A2CF8C8190E03C
:102580008CCF8CEF9FEF89CF40E052EC61E070E0A0
:10259000FC01828193810C943B022F923F924F92D7
:1025A0005F926F927F928F929F92AF92BF92CF92E3
:1025B000DF92EF92FF920F931F93CF93DF932C0143
:1025C0001A0189013B01D0E0C0E06901F12CE12C46
:1025D000C215D30511F10E9443054B015C01D201E4
:1025E00012968D919C91DC01ED91FC910284F38512
:1025F000E02D199597FF25C00115110581F30E9463
:102600004305681979098A099B096C157D058E05B2
:102610009F0528F38EEF209709F08C2FDF91CF9143
:102620001F910F91FF90EF90DF90CF90BF90AF90F0
:102630009F908F907F906F905F904F903F902F90E2
:102640000895F30181933F012196C2CFAF92BF92CB
:10265000CF92DF92EF92FF920F931F93CF93DF936E
:1026600000D01F921F92CDB7DEB77C01062FB72E88
:10267000142F690143E050E0BE016F5F7F4F8DDF93
:10268000181694F08EEF9FEF0F900F900F900F9011
:102690000F90DF91CF911F910F91FF90EF90DF90FE
:1026A000CF90BF90AF9008958981882319F08DEF66
:1026B0009FEFEACF8A818111FACF8B818F3FB9F7E3
:1026C000960142E050E0BE016C5F7F4FC70165DFBD
:1026D0001816C4F68C819D81980F49F782508C831F
:1026E000181708F445C0F7011481AA24A394A10E79
:1026F000960142E050E0BE016F5F7F4FC7014DDFA2
:1027000018160CF0BFCF8981853D89F68A818A1120
:10271000CECF4C8150E09601602F7B2DC7013DDF6D
:102720002C81082E000C990B2817190609F0AACF46
:102730001A52902FE02FFB2D8E2F891B821718F431
:102740008191180FF9CF960142E050E0BE016F5F12
:102750007F4FC70122DF18160CF094CF8981180F24
:1027600009F0A5CF8A818111A2CF8C8190E08CCF16
:102770008CEF9FEF89CF40E052EC61E070E0FC010C
:10278000828193810C943B02DC01ED91FC910190DC
:10279000F081E02D1994CF93DF93EC0165E570E0B3
:1027A0008A819B81F1DF65E570E08A819B81ECDFA6
:1027B00070E060E08A819B81E7DF70E060E08A8101
:1027C0009B81E2DF70E060E08A819B81DDDF8A81AE
:1027D0009B81DC01ED91FC910084F185E02D199540
:1027E0008A819B81DC01ED91FC910084F185E02DD3
:1027F0001995892B49F08A819B81DC01ED91FC912F
:102800000284F385E02DEBCFDF91CF910895CF9334
:10281000DF93EC0165E570E08A819B81B5DF65E5BA
:1028200070E08A819B81B0DF70E060E08A819B81EB
:10283000ABDF70E060E08A819B81A6DF70E060E042
:102840008A819B81A1DF8A819B81DC01ED91FC91D2
:102850000084F185E02D19958A819B81DC01ED9141
:10286000FC910084F185E02D1995892B49F08A812E
:102870009B81DC01ED91FC910284F385E02DEBCF8F
:10288000DF91CF91089585ED8093BC008091BC00CD
:1028900084FDFCCF10929C0F08952091C40E260F4A
:1028A0003327331F21323105ECF420919C0FFC01BA
:1028B00090E080E0243069F082E00895A091C40E99
:1028C0002191AC014C55514FA40FB52FB11D2C9344
:1028D0000196861798F38091C40E680F6093C40E1A
:1028E00080E0089581E008950895E091BE0F809101
:1028F000BD0FE81730F4F0E0E356F04F808190E030
:1029000008958FEF9FEF08958091BD0F9091BE0FB6
:10291000891B990B0895CF92DF92EF92FF920F934C
:102920001F93CF93DF937C01CB018A012091520F3B
:10293000222389F0EB016B01C40ED51ECC15DD05F9
:1029400061F06991D701ED91FC910190F081E02D4A
:10295000C7011995F3CF642FA0DFC801DF91CF9194
:102960001F910F91FF90EF90DF90CF900895CF933C
:10297000DF931F92CDB7DEB769832091520F2223D8
:10298000F9F02091750F203258F021E030E0FC0181
:102990003383228390E080E00F90DF91CF91089500
:1029A0008091530FE82FF0E0EC5AF04F998190831B
:1029B0008F5F8093530F8093750F81E090E0ECCF91
:1029C00061E0CE01019669DFF8CF1F93CF93DF93CB
:1029D000EC0188E60E94090263E084E493E1C7DF2A
:1029E0002D811AE0822F612F0E94AE5C682F660F46
:1029F000680F660F620F84E493E1B9DF2C81822FA8
:102A0000612F0E94AE5C682F660F680F660F620F21
:102A100084E493E1ACDF2B81822F612F0E94AE5CB6
:102A2000682F660F680F660F620F84E493E19FDFE3
:102A30002A81822F612F0E94AE5C682F660F680F7B
:102A4000660F620F84E493E192DF60E084E493E137
:102A50008EDF2981822F612F0E94AE5C682F660F66
:102A6000680F660F620F84E493E181DF2881822F73
:102A7000612F0E94AE5C682F660F680F660F620FB1
:102A800084E493E174DF0E94130288E60E94090245
:102A900062E084E493E16BDF60E084E493E167DF6C
:102AA000DF91CF911F910C9413021F93CF93DF936B
:102AB000EC0188E60E94090260E084E493E157DFBC
:102AC0002D811AE0822F612F0E94AE5C682F660F65
:102AD000680F660F620F84E493E149DF2C81822F37
:102AE000612F0E94AE5C682F660F680F660F620F41
:102AF00084E493E13CDF2B81822F612F0E94AE5C46
:102B0000682F660F680F660F620F84E493E12FDF72
:102B100060E084E493E12BDF2A81822F612F0E9401
:102B2000AE5C682F660F680F660F620F84E493E156
:102B30001EDF2981822F612F0E94AE5C682F660FF5
:102B4000680F660F620F84E493E111DF2881822F02
:102B5000612F0E94AE5C682F660F680F660F620FD0
:102B600084E493E104DFDF91CF911F910C94130271
:102B700090E080E008958FE10E94380461E06827CA
:102B80008FE10C946004EFE6F0E080818E7F80831B
:102B900060E08FE10C946004CF939FEF980F923028
:102BA00000F51092960E91E090930A0E9093030216
:102BB000823009F441C0C1E0C093090E61E083E2B4
:102BC0000E94600460E082E20E946004C093990E5B
:102BD0008091040F9091050F9093980E8093970E1B
:102BE0000AC0823049F18330D1F1813021F38091E4
:102BF000990E811104C080910A0ECF91089581E051
:102C00008093960E80930A0E8091090E813059F4BC
:102C100061E082E20E94600460E083E20E9460045E
:102C20001092990EE8CF8230D9F761E083E20E94DA
:102C3000600460E082E2F2CF82E08093090E61E0FE
:102C400082E20E94600460E083E20E94600481E00E
:102C50008093990E8091020F9091030FBDCF8091C8
:102C60000A0E882341F280910302882321F08150CB
:102C700080930302C0CF61E082E20E94600461E0C1
:102C800083E20E94600410920A0E81E0F1CFCF939C
:102C900080910C02893061F498E090930C022091AD
:102CA0000B02293051F490930B021092A30E0EC028
:102CB000813031F498E090930C0280930B02F5CFB1
:102CC0008430C1F38A30B1F38B30A1F380910B02D1
:102CD00080930A029091A30E843009F4D4C0F0F4DA
:102CE000813069F1823009F09AC1911108C081E008
:102CF0008093A30E85E18093A20E10929E0E809188
:102D0000A20E853109F4A1C008F08BC0882309F414
:102D10008BC190919E0E891336C086C18A3009F40A
:102D200071C18B3009F474C1893009F078C19111F7
:102D30007BC181E08093A30E80E02EDF75C19111ED
:102D400017C08093A30E84E20E9438048093A10EE2
:102D500085E20E943804C82F8093A00E80939F0EB6
:102D600081E01ADF8CE0C11101C08BE08093A20EDC
:102D700010929E0E8091A20E8B3041F08C30D9F0D3
:102D8000882309F451C180939E0E4EC180939E0EFC
:102D900085E20E9438048093A00E90919F0E8917BF
:102DA00009F442C1882309F43FC180939F0E8CE04F
:102DB0008093A20E39C180939E0E80919D0E811149
:102DC00004C080919C0E882351F010929D0E1092A9
:102DD0009C0E8091010F80939B0E82E0DDDE85E2E8
:102DE0000E9438048093A00E90919F0E891709F4D9
:102DF0001BC1811119C1D0DE84E20E9438048823EE
:102E000041F01092A20E82E080930B021092A30E6A
:102E10000BC18091A10E8111F4CF1092A20E83E01C
:102E2000F3CF90919E0E863101F1873109F071CF79
:102E3000973111F080939E0E85E20E9438048093B2
:102E4000A00E8111F1C0A8DEE8CF90919E0E9531C1
:102E500011F080939E0E84E20E943804892B09F0C1
:102E6000E3C081E099DE86E1A3CF963111F0809333
:102E70009E0E85E20E9438048093A00E882309F4F8
:102E8000D3C087E195CF911118C081E08093A30E44
:102E900084E20E9438048093A10E85E20E943804E7
:102EA000C82F8093A00E80939F0E82E075DE8BE288
:102EB000C11101C089E28093A20E8091A20E8B32D3
:102EC00009F44CC0E8F4882309F4AEC0893209F053
:102ED00020CF90919E0E993211F080939E0E85E244
:102EE0000E9438048093A00E90919F0E891709F4D8
:102EF0009BC0882309F498C080939F0E8BE258CF23
:102F000090919E0E8C3209F46AC08D3209F001CF87
:102F10009D3211F080939E0E80919D0E811104C010
:102F200080919C0E882351F010929D0E10929C0E61
:102F30008091010F80939B0E81E02EDE85E20E943E
:102F400038048093A00E90919F0E891709F46CC0ED
:102F500081116AC010929F0E1FDE39C090919E0EA3
:102F60009B3211F080939E0E80919D0E811104C0C2
:102F700080919C0E882369F081E080939A0E1092D4
:102F80009D0E10929C0E8091010F80939B0E81E00C
:102F900003DE85E20E9438048093A00E90919F0E7C
:102FA000891709F441C081113FC010929F0EF4DDD2
:102FB00084E20E9438049091A10E891304C090917C
:102FC0009A0E992341F08093A10E10929A0E1092BE
:102FD000A20E85E019CF82E0DFDD8CE2E9CE9C32E3
:102FE00011F080939E0E85E20E9438048093A00E1B
:102FF00090919F0E8917C1F08823B1F080939F0EA6
:103000008DE2D6CE911110C081E08093A30E95CEB3
:1030100091110AC081E08093A30E82E08ECE9111BF
:1030200003C081E08093A30E8091990E882361F103
:103030008091A00E90919F0E891363C08091970E8E
:103040009091980E009709F453C001979093980EB1
:103050008093970E80919B0E2091970E3091980E41
:10306000820F932F911D892B79F484E20E943804FA
:103070008093A10E882309F447C080E08DDD81E0B4
:1030800080939C0E10929D0E8091960E813031F4AB
:1030900083E082DD811102C01092960E80917B0048
:1030A000877F80937B0080E480937C0080917A000E
:1030B000806480937A0080917A0086FDFCCF9091A5
:1030C000780080917900892798278927813223E029
:1030D000920714F160E089E10E94600461E082E1FE
:1030E0000E94600460E081E30E94600460E024C00C
:1030F00080919B0E882309F4ADCF815080939B0E65
:10310000A9CF80939F0EA6CF80E046DD81E080931B
:103110009D0E10929C0EB8CF61E0853F914084F0E7
:1031200089E10E94600460E082E10E94600460E046
:1031300081E30E94600461E080E3CF910C9460041D
:1031400089E10E94600461E082E10E94600461E024
:10315000CACFCF93DF93FB0122813381DC01139629
:103160003C932E9312974481558166817781149602
:103170004D935D936D937C93179740855185628540
:10318000738518964D935D936D937C931B971C9656
:10319000EF012C969C01275E3F4F49914D93A2175A
:1031A000B307D9F7218D328DFC01328F218FDF914A
:1031B000CF9108950F931F93CF93DF93082F10E0C3
:1031C0000C5E104FF801D081DD2351F1C82F0E9411
:1031D000EE046093010D7093020D8093030D9093A4
:1031E000040DC093000DF8011082C150C73080F467
:1031F000EC2FF0E061E08827EF5FF64E8F4F0C94E4
:10320000E15C16191C19221928192E1934193A19BA
:1032100061E082E00E94600461E083E00E9460045B
:103220008D2FDF91CF911F910F91089582E00E9421
:10323000600461E084E0F2CF82E00E94600461E01B
:1032400085E0ECCF82E00E94600461E086E0E6CF9A
:1032500082E00E94600461E087E0E0CF82E00E94AB
:10326000600461E088E0DACF82E00E94600461E0FF
:1032700089E0D4CF82E00E94600461E08AE0CECF92
:10328000CF92DF92EF92FF920F931F93CF93DF9332
:10329000C091000DC83008F038C0D0E0FE0160E0F9
:1032A0008827EA5AF64E8F4F0C94E15C5E19941908
:1032B000961998199A199C199E19A01983E00E94D1
:1032C00060040E94EE040091010D1091020D209106
:1032D000030D3091040DFE01EE0FFF1FEE0FFF1FD7
:1032E000E052F34FC080D180E280F380DC01CB015B
:1032F000801B910BA20BB30BC816D906EA06FB067E
:1033000020F480839183A283B3838FEF8093000D99
:1033100060E082E0DF91CF911F910F91FF90EF90DD
:10332000DF90CF900C94600484E0C9CF85E0C7CFD4
:1033300086E0C5CF87E0C3CF88E0C1CF89E0BFCFAB
:103340008AE0BDCF8F929F92AF92BF92CF92DF92D1
:10335000EF92FF920F931F93CF93DF9300D01F92B2
:10336000CDB7DEB7FC018581813091F080E00F9010
:103370000F900F900F90DF91CF911F910F91FF90C1
:10338000EF90DF90CF90BF90AF909F908F90089577
:10339000848181FFEBCF83899489A589B689892BA4
:1033A0008A2B8B2B09F45FC07F0140E050E0BA010B
:1033B000CF010E94E60A8823C9F2F701C38CD48C9E
:1033C0008788908CA18CB28C82E090E0A0E0B0E085
:1033D000F60180839183A283B3839E012F5F3F4FC9
:1033E000B501A401C6010E94A909882309F4BECF32
:1033F00000E010E09801B501A401C6010E9408098F
:10340000882309F4B3CF89809A80AB80BC80F60111
:103410008789803119F188EF9FEFAFEFBFE0881601
:103420009906AA06BB06C8F2F701178A108E118EFC
:10343000128E138A148A158A168A8481806884837E
:1034400061E0C7010E947A0D882309F48FCF40E024
:1034500050E0BA01C7010E94E60A89CF88EF9FEFCA
:10346000A0E0B0E0DCCF81E082CFCF92DF92EF929C
:10347000FF921F93CF93DF93EC0180E2689FF001EE
:103480001124E154F04F9385917161F0842F82747F
:1034900049F080E0DF91CF911F91FF90EF90DF9096
:1034A000CF900895142F6A8B80910D0290910E0297
:1034B000A0910F02B09110028E879F87A88BB98BC5
:1034C000C488D588F12CE12C7601DD24CC24CF8A68
:1034D000D88EE98EFA8E828D938DB0E0A0E0AC019B
:1034E000BD014C295D296E297F294F8B588F698F2B
:1034F0007A8F83858871B1F4848D958DA68DB78D73
:103500008B8B9C8BAD8BBE8B81E08D831F701C835E
:103510001E821F82188619861A861B861C861D86A7
:1035200081E0B8CF803109F0B4CF9E012D5E3F4FCE
:103530008B8D9C8D0E94290A882309F4AACF84E0F0
:10354000E4CF41E0682F88E60E946A011092BE0F26
:103550008093BD0F089588E60E94090260E084E42C
:1035600093E105DA0E94130281E090E0EADF0E9415
:103570005701805887FB882780F90895CF92DF9202
:10358000FF920F931F93CF93DF936C0188E60E9405
:10359000090263E084E493E1EAD90E94130287E020
:1035A00090E0CFDF0E9457018F77282F30E094E022
:1035B000359527959A95E1F7922F990F990FC22F7C
:1035C000C91BCC0FC80F0E9457019C0144E03595E0
:1035D00027954A95E1F72F703327922F990F990F6E
:1035E000D22FD91BDD0FD80F0E9457019C0154E048
:1035F000359527955A95E1F72F703327922F990F1C
:10360000990F122F191B110F180F0E9457019C01BF
:1036100064E0359527956A95E1F72F703327922F4F
:10362000990F990F022F091B000F080F0E945701D5
:103630000E9457019C0174E0359527957A95E1F732
:103640002F703327922F990F990FF22EF91AFF0C32
:10365000F80E0E9457019C01E4E035952795EA9504
:10366000E1F72F703327922F990F990F291B220F03
:10367000820FF6018083F18202831383D483C58392
:10368000C601DF91CF911F910F91FF90DF90CF90F6
:103690000895CF92DF92FF920F931F93CF93DF9302
:1036A0006C0188E60E94090260E084E493E15FD93E
:1036B0000E94130287E090E044DF0E9457018F7759
:1036C000282F30E094E0359527959A95E1F7922FD1
:1036D000990F990FC22FC91BCC0FC80F0E94570119
:1036E0009C0144E0359527954A95E1F72F703327E3
:1036F000922F990F990FD22FD91BDD0FD80F0E944F
:1037000057019C0154E0359527955A95E1F72F70A4
:103710003327922F990F990F122F191B110F180F82
:103720000E9457010E9457019C0164E0359527953E
:103730006A95E1F72F703327922F990F990F022F77
:10374000091B000F080F0E9457019C0174E035957A
:1037500027957A95E1F72F703327922F990F990FBC
:10376000F22EF91AFF0CF80E0E9457019C01E4E0BA
:1037700035952795EA95E1F72F703327922F990F0A
:10378000990F291B220F820FF6018083F182028399
:103790001383D483C583C601DF91CF911F910F910D
:1037A000FF90DF90CF9008951F93CF93DF939C01FC
:1037B000C7EFDEE011E01A838FB78B83F894B9016D
:1037C0007695679590E080E0605C7D4B804F9F4FE1
:1037D00050E040E00E94735CDA01C90123E0880FE9
:1037E000991FAA1FBB1F2A95D1F7998388839093AD
:1037F0008700809386008B818FBFE1E8F0E08081B5
:10380000887F808390812A81922B90838BEB95E136
:103810009D838C8310936F008081822B8083DF9146
:10382000CF911F910895FB0101900020E9F7319796
:10383000AF01461B570BDC01ED91FC910280F38137
:10384000E02D19948F929F92AF92BF920F931F9386
:10385000CF93DF93CDB7DEB7A1970FB6F894DEBF55
:103860000FBECDBF19A2423008F44AE08E010F5DB1
:103870001F4F842E912CB12CA12CA50194010E94E4
:10388000735CE62FB901CA01EA30FCF4E05DD801AF
:10389000EE938D01232B242B252B79F790E080E0EC
:1038A000109721F0BD018CE592E1BDDFA1960FB626
:1038B000F894DEBF0FBECDBFDF91CF911F910F9166
:1038C000BF90AF909F908F900895E95CE0CFCF9329
:1038D000DF93682F70E090E080E04AE0B3DFEC0116
:1038E0006CED7CE08CE592E19EDF8C0F9D1FDF91FB
:1038F000CF910895CF93DF93BC018CE592E193DFE4
:10390000EC016CED7CE08CE592E18DDF8C0F9D1F6E
:10391000DF91CF9108950F931F93CF93DF93EC0125
:10392000FB014481558160817181E881F9810280C8
:10393000F381E02D19958C016CED7CE0CE0173DFF5
:10394000800F911FDF91CF911F910F910895FC017E
:1039500080819181009711F00C94C15B60E070E070
:10396000CB010895AF92BF92CF92DF92EF92FF9278
:103970000F931F93CF93DF936B01EA01FB01448107
:1039800055814115510561F1FC01248135812115D5
:10399000310531F12417350718F1C217D30710F09C
:1039A000E9012197FC0100811181C801AA24AA9490
:1039B000BB24BA947801EC0EFD1EE816F906A0F0BF
:1039C000F601608171810E94165E009769F09C018A
:1039D000201B310BC217D30708F059010196EDCF18
:1039E000AA24AA94BB24BA94C501DF91CF911F9158
:1039F0000F91FF90EF90DF90CF90BF90AF90089520
:103A0000CF93DF93FC01248135814217530788F45B
:103A1000C081D181FB0160817181CE01840F951F2E
:103A20000E94165E009729F08C1B9D0BDF91CF91B1
:103A300008958FEF9FEFFACF50E040E0E1CF2F9253
:103A40003F924F925F926F927F928F929F92AF922E
:103A5000BF92CF92DF92EF92FF920F931F93CF937B
:103A6000DF93FC01448055804114510409F4CCC01B
:103A7000FB01648075806114710409F4C5C07A018A
:103A80006B01EC01FA01A480B580A618B708088183
:103A90001981A114B104B9F4F60160817181C801E2
:103AA0000E94165E8C01009709F4AEC0F701608198
:103AB0007181448155810E94D25DF7018481958195
:103AC000080F191FE9CFB7FC10C0FB01208031801F
:103AD0004201C801B1010E94165E009709F448C076
:103AE000860D971D8A0C9B1CF5CF3801F60160816D
:103AF0007181C8010E94165E2C01009719F14C01DA
:103B0000801A910AA401B801C3010E94D25D680C19
:103B1000791CF7016081718144815581C3010E9444
:103B2000D25DF70184809580680C791CF6010481D0
:103B30001581040D151D8C819D818A0D9B1D9D8312
:103B40008C83D4CFB801C301DF91CF911F910F9126
:103B5000FF90EF90DF90CF90BF90AF909F908F90AD
:103B60007F906F905F904F903F902F900C94005EED
:103B70004814590409F448C08A819B818815990525
:103B800060F4B4016F5F7F4FC8010E94E95C009749
:103B9000D9F1998388839B828A824C815D814150CF
:103BA000510957FD31C0B601CE01DCDE8C0197FD15
:103BB0002BC0F60124813581280F391F8881998116
:103BC000820F931F4C815D81421B530BBC018A0DF8
:103BD0009B1D0E94DB5D8C819D818A0D9B1D9D83B9
:103BE0008C8328813981820F931FFC011082888188
:103BF0009981F7016081718144815581800F911F06
:103C00000E94D25DA801CBCFDF91CF911F910F9180
:103C1000FF90EF90DF90CF90BF90AF909F908F90EC
:103C20007F906F905F904F903F902F9008950F93EB
:103C30001F93CF93DF93EC0188819981009759F00E
:103C40002A813B812617370730F081E0DF91CF9141
:103C50001F910F9108958B016F5F7F4F0E94E95C68
:103C6000009759F0998388831B830A832C813D81B7
:103C7000232B59F7FC011082E8CF80E0E7CFEF92C9
:103C8000FF920F931F93CF93DF936115710541F45A
:103C900080E0DF91CF911F910F91FF90EF900895F9
:103CA00041155105A9F07B01EC010C811D81040F28
:103CB000151FB801BCDF882359F3288139818C8115
:103CC0009D81B701820F931F0E94005E1D830C83AC
:103CD00081E0DFCFFB0101900020E9F73197AF01D0
:103CE000461B570BCCCFFB0144815581608171810C
:103CF000C6CFFC0124813581FB0144815581241705
:103D00003507A0F0FC0180819181009779F0FB01DB
:103D1000608171816115710549F0241B350B820F9B
:103D2000931F0E94F75D21E0892B09F020E0822F8C
:103D30000895FC0124813581232B39F421E0FB0116
:103D40008081882349F020E007C0808191810E9412
:103D5000F75D21E0892BB9F7822F0895CF93DF9388
:103D6000EC01A881B981EB01E881F9811097F1F0AC
:103D70003097B1F4EC018C819D81892BC9F08C9135
:103D800090E00BC0DB0114968D919C91892B81F002
:103D9000808190E0919581959109DF91CF9108956F
:103DA000BF01CD01DF91CF910C94F75D309751F7B2
:103DB00090E080E0F2CF0F931F93CF93DF938C01BD
:103DC000EB01FC01808191810097E1F068817981AC
:103DD00061157105A9F0428153812C813D81421703
:103DE000530770F00E94005E8C819D81F8019583DD
:103DF00084831D821C82DF91CF911F910F910895C2
:103E00000E94385A88819981F801918380838A8140
:103E10009B81938382838C819D8195838483198286
:103E200018821B821A82E5CFCF93DF93EC01888141
:103E30009981009711F00E94385A198218821D82C8
:103E40001C821B821A82DF91CF9108950F931F93DA
:103E5000CF93DF931F921F92CDB7DEB78C0169839A
:103E60001A8241E050E0BE016F5F7F4F08DF811191
:103E700002C0C801D9DFC8010F900F90DF91CF9128
:103E80001F910F910895CF93DF93EC01FB010190F7
:103E90000020E9F73197AF01461B570BF0DE811187
:103EA00002C0CE01C1DFCE01DF91CF910895CF9343
:103EB000DF93EC01FB014481558160817181DFDE7C
:103EC000811102C0CE01B0DFCE01DF91CF91089504
:103ED000EF92FF920F931F93CF93DF93EC017B013F
:103EE0008A01BA01A4DE81110AC0CE019DDFCE0194
:103EF000DF91CF911F910F91FF90EF9008951D8357
:103F00000C83B701888199810E94005EF0CFFB018C
:103F100001900020E9F73197AF01461B570BD8CF2E
:103F20000F931F93CF93DF93CDB7DEB761970FB693
:103F3000F894DEBF0FBECDBF8C01CB01F80111821A
:103F4000108213821282158214824AE0BE016F5FD2
:103F50007F4F0E94225CBE016F5F7F4FC801D7DF99
:103F600061960FB6F894DEBF0FBECDBFDF91CF9143
:103F70001F910F9108950F931F93CF93DF9300D05C
:103F800000D000D0CDB7DEB78C01862FF8011182AA
:103F90001082138212821582148250E0BE016F5F7C
:103FA0007F4F90E00E94185CBE016F5F7F4FC80199
:103FB000AEDF29960FB6F894DEBF0FBECDBFDF91FE
:103FC000CF911F910F910895CF93DF931F921F926E
:103FD000CDB7DEB7FC0111821082138212821582E6
:103FE000148269831A82BE016F5F7F4F90DF0F904A
:103FF0000F90DF91CF910895CF93DF93EC01FB01F8
:104000008617970741F0608171816115710539F05C
:10401000448155815DDFCE01DF91CF91089504DFAA
:10402000FACFFC011182108213821282158214824F
:10403000E3CFCF93DF939C01E091BF0DF091C00DD2
:10404000CF01019664E170E00E94CE5C4091BD0D0D
:104050005091BE0D4817590779F0EC01B90126E0DF
:104060002E9FC0012F9F900D11248052994EC4DFC6
:10407000D093C00DC093BF0DDF91CF910895FC0187
:1040800011821082138212821582148261157105C9
:1040900049F0FB0101900020E9F73197AF01461B81
:1040A000570B16CF0895AF92BF92CF92DF92EF9247
:1040B000FF920F931F93CF93DF936C015B017A0103
:1040C00089012417350720F48F2D7901042F182F2B
:1040D00061EB77E0C601D3DFD5011496CD91DC9179
:1040E000EC16FD06D8F40C171D0708F4E801D501FD
:1040F000ED91FC911197EC0FFD1F108110826D91D5
:104100007C916E0D7F1DC6016115710599F0FFDE72
:10411000F50180819181C80FD91F1883C601DF91F5
:10412000CF911F910F91FF90EF90DF90CF90BF90B4
:10413000AF90089579DEECCF1F93CF93DF93EC011E
:10414000162F63EE72E09BDF173098F4E12FF0E05A
:104150008827E255FF4D8F4F0C94E15CB520BE20BF
:10416000C120C420C720CA20CD206DEE72E0CE0150
:10417000CEDECE01DF91CF911F91089569EF72E0FD
:10418000F6CF65E073E0F3CF6BE173E0F0CF67E269
:1041900073E0EDCF6DE273E0EACF61E473E0E7CF67
:1041A000FC0180819181009711F00C94385A089598
:1041B0009F92AF92BF92CF92DF92EF92FF920F93B6
:1041C0001F93CF93DF93CDB7DEB7AA970FB6F894BE
:1041D000DEBF0FBECDBF7C018B018091FD0E813013
:1041E00009F085C023E130E041E150E0CE014F9677
:1041F0005ADFCE014F96ABDBD62E20E130E04EE009
:1042000050E0B801CE0149964EDFCE0149969FDBC2
:10421000C62E2DE030E04BE050E0B801CE014396D1
:1042200042DFCE01439693DBB62E22E030E050E031
:1042300040E0B801CE010D9636DFCE010D9687DB4A
:10424000A62E25E030E043E050E0B801CE0107960D
:104250002ADFCE0107967BDB962E2AE030E046E08F
:1042600050E0B801CE0101961EDFCE0101966FDB52
:104270009B01603D774010F0205D37402DA39EA24A
:10428000AFA2B8A6C9A6DAA6CE0185960E9455159A
:10429000CE01019685DFCE01079682DFCE010D9615
:1042A0007FDFCE0143967CDFCE01499679DFCE01D8
:1042B0004F9676DFF70111821082138212821582E7
:1042C0001482B801C70177DDC701AA960FB6F8942A
:1042D000DEBF0FBECDBFDF91CF911F910F91FF9039
:1042E000EF90DF90CF90BF90AF909F900895823075
:1042F00009F723E130E041E150E0CE014F96D3DEF3
:10430000CE014F9624DBD62E20E130E04EE050E087
:10431000B801CE014996C7DECE01499618DBC62EFC
:104320002DE030E04BE050E0B801CE014396BBDE1B
:10433000CE0143960CDBB62E22E030E050E040E0A8
:10434000B801CE010D96AFDECE010D9600DBA62E94
:1043500025E030E043E050E0B801CE010796A3DE4F
:10436000CE010796F4DA962E2AE030E046E050E0DF
:10437000B801CE01019697DECE010196E8DA9B01E5
:10438000603D774010F0205D37402DA39EA2AFA284
:10439000B8A6C9A6DAA6CE0185960E94E51478CF04
:1043A0008F929F92AF92BF92CF92DF92EF92FF9245
:1043B0000F931F93CF93DF9300D000D0CDB7DEB71C
:1043C0007C01A62E6A0161EB77E059DE8601D12CD3
:1043D000C12CB12CCA14DB0424F5C114D10421F082
:1043E00063EE7BE0C70176DC4801F8018081803113
:1043F00020F468EF73E0C7016DDC0F5F1F4F40E1F1
:10440000F4016081CE010196B6DDBE016F5F7F4F82
:10441000C70169DCCE010196C3DEFFEFCF1ADF0AC8
:10442000D9CFC70126960FB6F894DEBF0FBECDBF19
:10443000DF91CF911F910F91FF90EF90DF90CF9080
:10444000BF90AF909F908F900895CF93DF9300D04F
:1044500000D0CDB7DEB7BC01CE010196E2DD68E544
:1044600073E0CE0101960FDDBC018AED96E1C4DD5B
:10447000CE01019695DE81E08093BC0D26960FB6A5
:10448000F894DEBF0FBECDBFDF91CF910895CF93DB
:10449000DF93EC01898D9A8D009741F00E940C0EFC
:1044A000898D9A8D0E94385A1A8E198EDF91CF917C
:1044B00008950F931F93CF93DF93CDB7DEB7629725
:1044C0000FB6F894DEBF0FBECDBF8C01CB01F80153
:1044D00011821082138212821582148250E0BE0172
:1044E0006F5F7F4F0E94EF5BBE016F5F7F4FC80120
:1044F0000EDD62960FB6F894DEBF0FBECDBFDF9122
:10450000CF911F910F9108953F924F925F926F92BA
:104510007F928F929F92AF92BF92CF92DF92EF9253
:10452000FF920F931F93CF93DF9300D000D000D062
:104530001F921F92CDB7DEB77C01DC0115968C91DE
:10454000811115C0FE013196CE010C966F0130E24B
:104550003193E817F907E1F7DA0130E087E09D9140
:10456000B92E992329F19E3239F48A3011F480E072
:10457000DAC038E08AE0F3CFE4EEF0E0449144237F
:1045800021F031969413FACFF2CF831780F34FEDD9
:10459000490F4E3560F74FE9490F4A3118F440EEA4
:1045A000B42EB90EF601E30FF11DB0823F5FD7CFF5
:1045B00089818032E1F2322E8B01FB01838D948D53
:1045C000D7015C969C938E935B9716821782108618
:1045D00011861286138614861586F80182859385C6
:1045E000A485B5854389548965897689841795079B
:1045F000A607B70708F04DC025E0B695A795979593
:1046000087952A95D1F7F82FFF70AF2ED801159610
:104610008C91823008F4ABCFC8010E94951197FDB0
:10462000A6CFF80182859385A485B5854F96A11DF7
:10463000B11D82879387A487B587F0E2AF9EB00152
:1046400011246154704F6115710509F490CFDB019D
:104650008C91882341F0853E09F058C0BB2029F099
:10466000BB24B394BACFB1100EC0F701A28A8091D7
:104670000D0290910E02A0910F02B0911002868758
:104680009787A08BB18BDB018C918111E9CFBB2483
:10469000B394832D8271823109F069CFBB2009F474
:1046A0005AC0C7010E94C907009709F460CF20E2F1
:1046B000FC0111922A95E9F72BE0F601DC0101904B
:1046C0000D922A95E1F721E238E2DC0151963C9304
:1046D0002E93509740E058E01F965C934E931E97A0
:1046E00053963C932E93529759963C932E935897FA
:1046F00057965C934E93569781E00E945807882303
:1047000009F435CF432DF70162890AC04BE050E030
:10471000C6010E94C55D892B09F05FCF432D6A2D2C
:10472000C7010E94351A2B960FB6F894DEBF0FBE54
:10473000CDBFDF91CF911F910F91FF90EF90DF9050
:10474000CF90BF90AF909F908F907F906F905F9031
:104750004F903F900895F8018581823009F407CF8A
:10476000C8010E94790B882309F401CFD8015B9618
:10477000ED91FC915C9716968D909D90AD90BC90BC
:104780001997B2E08B1A9108A108B108858504C079
:10479000880C991CAA1CBB1C8A95D2F78685978524
:1047A000A089B189880E991EAA1EBB1E848124018E
:1047B0003501480E511C611C711C84149504A6041B
:1047C000B70409F1E1E04E1A51086108710881E06F
:1047D0000E945807882309F4CACEEFEBFFE011923C
:1047E0008FEB91E18E179F07D1F740920D02509207
:1047F0000E0260920F02709210028091E90E8160A9
:104800008093E90EDACFD8015B96ED91FC91258576
:1048100080E092E0A0E0B0E004C0880F991FAA1FDA
:10482000BB1F2A95D2F7F801438954896589768997
:10483000840F951FA61FB71F838B948BA58BB68BF8
:10484000D70152961C928FEB9FE031CFCF93DF932D
:10485000CDB7DEB76D970FB6F894DEBF0FBECDBFF4
:10486000442391F1AB01BC011C821B8281EB92E0DD
:104870009A8389831E8222E0CE01019645DE811152
:104880000EC090E081E0911101C080E06D960FB6FE
:10489000F894DEBF0FBECDBFDF91CF910895CE015A
:1048A00001960E94A219882361F3CE0101960E940D
:1048B000C907009731F325EEFC0120831E8281E0B9
:1048C0000E945807982FDECF81E0E0CF1F93CF934F
:1048D000DF93CDB7DEB76D970FB6F894DEBF0FBE8E
:1048E000CDBFAB011C821B8221EB32E03A832983CE
:1048F0001E8221E0BC01CE01019606DE11E081118D
:104900000CC010E0812F6D960FB6F894DEBF0FBE7D
:10491000CDBFDF91CF911F910895CE0101960E94E6
:104920000C0EF0CF9F92AF92BF92CF92DF92EF9298
:10493000FF920F931F93CF93DF93CDB7DEB72C97E2
:104940000FB6F894DEBF0FBECDBF7C016B01942E75
:10495000B22EA32EDC0112968D919C91DC01ED917B
:10496000FC910084F185E02D1995F70182819381F6
:10497000DC01ED91FC910084F185E02D1995F701A2
:10498000A281B381892B41F0ED91FC9111970284B2
:10499000F385E02DCD01E8CFF6018081F701848316
:1049A00070E060E0CD010E94C41370E060E0D701C8
:1049B00012968D919C910E94C4136FEF70E0F701E5
:1049C000828193810E94C41361E0600F162F190D3C
:1049D000D70112968D919C91DC01ED91FC91019093
:1049E000F081E02D612F1995612F70E0719561952F
:1049F0007109F701828193810E94C41364ED70E014
:104A0000D70112968D919C910E94C413F701828167
:104A10009381492D50E0DC01ED91FC910280F381FE
:104A2000E02DB60119959C2DF60114ED8E2F891BF2
:104A3000891518F48191180FF9CFF70182819381BC
:104A4000402F50E0DC01ED91FC910280F381E02DDC
:104A50006B2D7A2D19959B2DEB2DFA2D8E2F891B01
:104A6000801718F48191180FF9CFF7018281938193
:104A7000612F6195DC01ED91FC910190F081E02DB9
:104A8000199570E060E0F701828193810E94C41360
:104A900086E0EBE1F2E0DE01179601900D928A9537
:104AA000E1F72AE030E046E050E0BE016F5F7F4F63
:104AB000C7010E94D61118160CF546E050E0BE0161
:104AC000695F7F4FCE0101960E94C55D21E0892B71
:104AD00009F420E0822F81952C960FB6F894DEBF62
:104AE0000FBECDBFDF91CF911F910F91FF90EF903F
:104AF000DF90CF90BF90AF909F9008958EEFECCF56
:104B00009F92AF92BF92CF92DF92EF92FF920F935C
:104B10001F93CF93DF93CDB7DEB72C970FB6F894E2
:104B2000DEBF0FBECDBF7C016B01942EB22EA32E33
:104B3000DC0112968D919C91DC01ED91FC91008439
:104B4000F185E02D1995F70182819381DC01ED91CA
:104B5000FC910084F185E02D1995F701A281B381C4
:104B6000892B41F0ED91FC9111970284F385E02DA2
:104B7000CD01E8CFF6018081F701848370E060E029
:104B8000CD010E94C41370E060E0D70112968D91B0
:104B90009C910E94C4136FEF70E0F70182819381B2
:104BA0000E94C41361E0600F162F190DD7011296F1
:104BB0008D919C91DC01ED91FC910190F081E02DB3
:104BC000612F1995612F70E0719561957109F70159
:104BD000828193810E94C41364ED70E0D701129624
:104BE0008D919C910E94C413F70182819381492D7C
:104BF00050E0DC01ED91FC910280F381E02DB601E3
:104C000019959C2DF60114ED8E2F891B891518F42A
:104C10008191180FF9CFF70182819381402F50E0E5
:104C2000DC01ED91FC910280F381E02D6B2D7A2D5A
:104C300019959B2DEB2DFA2D8E2F891B801718F4BB
:104C40008191180FF9CFF70182819381612F6195CE
:104C5000DC01ED91FC910190F081E02D199570E05F
:104C600060E0F701828193810E94C41386E0EBE14A
:104C7000F2E0DE01179601900D928A95E1F72AE0A5
:104C800030E046E050E0BE016F5F7F4FC7010E94F9
:104C9000CD1218160CF546E050E0BE01695F7F4F5B
:104CA000CE0101960E94C55D21E0892B09F420E028
:104CB000822F81952C960FB6F894DEBF0FBECDBF24
:104CC000DF91CF911F910F91FF90EF90DF90CF90E8
:104CD000BF90AF909F9008958EEFECCFEF92FF9230
:104CE0000F931F93CF93DF93EC017B018A011B820B
:104CF0001A8288EE93E0A0E0B0E08C839D83AE83BF
:104D0000BF838DE892E0998388838DE190E00E94D3
:104D10009C599A8F898F009779F02DE1F701DC017A
:104D200001900D922A95E1F74CE050E0B801CE01D8
:104D30000C960E94075E188EDF91CF911F910F9104
:104D4000FF90EF9008952F923F924F925F926F9253
:104D50007F928F929F92AF92BF92CF92DF92EF920B
:104D6000FF920F931F93CF93DF93CDB7DEB7C75654
:104D7000D1090FB6F894DEBF0FBECDBF5C013B0179
:104D8000A6964FAFA69719A218A281EB92E09F8F2B
:104D90008E8F1BA21C821B829A8389831E824E01E6
:104DA0008EE1880E911CC4010E94930A63018E015A
:104DB0000F5F1F4F240118016FE270E0C6010E94CF
:104DC000EC5D009709F457C0F60120812F3271F491
:104DD000FFEFCF1ADF0A902F812F8201492E582E24
:104DE000942D852D2801092F182FE6CF8C198D3091
:104DF00008F08CE0E82EF12CA701B601CE01885A0C
:104E00009F4F0E94075EE8E5F0E0EC0FFD1FEE0DFE
:104E1000FF1D1082C8010E940C0E21E0AE01485A0D
:104E20005F4FB201C80170DB81111FC01EAE1DAE05
:104E300081EB92E09CAF8BAF21961FAE2197A89695
:104E4000EEADFFADA8976E0E7F1EF301808181113C
:104E50001FC0BE01655C7F4FC1010E94CF1049EBAE
:104E600053E0B101C5013ADF31C0CE0CDF1CC201F5
:104E70000E940C0EB5CFC60186199709A8969FAF60
:104E80008EAFA897B201CE01CB960E94CF10D7CF9C
:104E900019A218A281EB92E09F8F8E8F1BA2219600
:104EA0008FAD219781112DC0F5011382128288EEFA
:104EB00093E0A0E0B0E084839583A683B7838DE878
:104EC00092E091838083128E118E1486C501C95998
:104ED000DF4F0FB6F894DEBF0FBECDBFDF91CF918D
:104EE0001F910F91FF90EF90DF90CF90BF90AF9008
:104EF0009F908F907F906F905F904F903F902F90FA
:104F00000895A6962FADA697A301BE01655C7F4FBD
:104F1000C401FADA882341F2CE01CB960E940C0E2E
:104F2000A6968FADA6978670863039F449A95AA9FE
:104F30006BA97CA9C4010E94E60AB401C1010E94C8
:104F4000CF10A3018ECF0C94565CCF92DF92EF92DC
:104F5000FF920F931F93CF93DF93C62F6A010EEB3F
:104F60001FE0823411F008EC1FE0C43011F0C730AC
:104F700021F578018FEFE81AF80A6C2FC801E3DFFA
:104F800010E000E0D0E0C8018E0D9F1D60E00C171E
:104F90001D0724F4F601E00FF11F6081D4DF0F5FDD
:104FA0001F4F0730110579F7DF91CF911F910F91B6
:104FB000FF90EF90DF90CF900895C111F5CFD0E032
:104FC000C0E060E0CE01800F911FBDDF2196C830A8
:104FD000D105B9F7E9CFFF920F931F93CF93DF93DA
:104FE000EC01F62E08811981C8010E944E5CF8166A
:104FF00021F06F2DC8010E94565CCE01DF91CF9148
:105000001F910F91FF900895CF92DF92EF92FF9240
:105010000F931F93CF93DF931F921F92CDB7DEB7ED
:105020006C017C0110E000E01A830983F7016191B3
:105030007F01CE010196CFDF0F5F1F4F04311105B5
:1050400099F7C6010F900F90DF91CF911F910F91AB
:10505000FF90EF90DF90CF900895EF92FF920F9323
:105060001F93CF93DF931F921F92CDB7DEB78C01B2
:105070007B019A838983FB016081CE010196ABDFBE
:105080000F5F1F4F1A830983F7016181CE010196DB
:10509000A2DFC7010F900F90DF91CF911F910F9169
:1050A000FF90EF900895AF92BF92CF92DF92EF9270
:1050B000FF920F931F93CF93DF931F921F92CDB751
:1050C000DEB78B016B012AE0C20ED11C7B015C01B3
:1050D000A61AB70AC5018E0D9F1D9A838983F70111
:1050E00061917F01CE01019676DFEC14FD0491F70A
:1050F000C8010F900F90DF91CF911F910F91FF90FA
:10510000EF90DF90CF90BF90AF9008950F931F93D3
:10511000CF93DF938C01EB010E944E5C8883C80122
:1051200001960E944E5C8983CE01DF91CF911F9141
:105130000F910895CF93DF93EB010E944E5C88831B
:10514000CE01DF91CF910895AF92BF92CF92DF92BF
:10515000EF92FF920F931F93CF93DF931F921F92B3
:10516000CDB7DEB78C016B015A017A0181E0E81AF4
:10517000F10865EC73E0C6010E94991E8823D1F006
:10518000BE016F5F7F4FC5018F52904FD3DF4AE062
:105190006981C8010E94BB1FC8010F900F90DF9169
:1051A000CF911F910F91FF90EF90DF90CF90BF9024
:1051B000AF90089569EC73E0C6010E94991E8823A0
:1051C00041F0BE016F5F7F4FC5018F52904FB2DF3C
:1051D000DECF6DEC73E0C6010E94991E882379F042
:1051E000C701880F991FBE016F5F7F4F8E52904F8E
:1051F0008DDF69817A81C8010E94901FCDCF61ED5A
:1052000073E0C6010E94991E882379F0C701880FB8
:10521000991FBE016F5F7F4F8E52904F77DF69817C
:105220007A814AE0C80145D9B7CF65ED73E0C8017E
:105230000E943F20B1CFCF92DF92EF92FF920F9367
:105240001F93CF93DF93EB017B012AE0E20EF11C69
:105250008B016C01C61AD70AC601800F911F0E94EC
:105260004E5CF80181938F01EE15FF05A9F7CE0181
:10527000DF91CF911F910F91FF90EF90DF90CF9032
:105280000895EF92FF920F931F93CF93DF9300D077
:1052900000D0CDB7DEB78C0161EB77E00E943F20F4
:1052A00086EFE82E8FE0F82EC7010E944E5C8F3FFC
:1052B000D1F468EF73E0C8010E946A1E8FEFE81A0C
:1052C000F80AE11480E1F80679F7C80126960FB6CE
:1052D000F894DEBF0FBECDBFDF91CF911F910F912C
:1052E000FF90EF900895682FCE0101960E94E41F71
:1052F000BE016F5F7F4FC8010E94731ECE010196F1
:105300000E94D020DBCFEF92FF920F931F93CF9399
:10531000DF938C01613041F188E090E00E944E5CA7
:1053200080930D0D89E090E00E944E5C80930E0DFD
:105330008AE090E00E944E5C80930F0D8BE090E03D
:105340000E944E5C8093100D84E1E5E0FDE0D80101
:1053500001900D928A95E1F7C801DF91CF911F91DD
:105360000F91FF90EF90089585E0E82E8DE0F82EE4
:10537000D0E0C0E0CE010E944E5CF70181937F0136
:105380002196C431D105B1F7DFCF8F929F92AF92B2
:10539000BF92CF92DF92EF92FF920F931F93CF9322
:1053A000DF93CDB7DEB7E2970FB6F894DEBF0FBE3E
:1053B000CDBF6C01F62E8A016DE573E0CE018B96B0
:1053C0000E943F201AAA19AA61E0CE0101969BDF34
:1053D00081E4F81639F082E4F81609F459C0F12C8A
:1053E000E12C32C0EB80FC808B859C859AAB89AB2D
:1053F00010161106ECF06FED73E0C6010E943F201D
:10540000CE018B960E94D020C601E2960FB6F8948A
:10541000DEBF0FBECDBFDF91CF911F910F91FF90E7
:10542000EF90DF90CF90BF90AF909F908F900895B6
:105430008017910700F301979AAB89ABBE016F5CAF
:105440007F4F8AE090E009DE580181E0A81AB10898
:105450002AE02A9DC0012B9D900D1124E80EF91E13
:1054600089A99AA9A816B90650F547018AE0880EBD
:10547000911CBE016B5E7F4FC401DDDEBE016B5E21
:105480007F4FC70110DE8FEFA81AB80A7401E8CF6A
:10549000E980FA8089859A859AAB89AB1016110646
:1054A0000CF0A9CF8017910708F4A5CF01979AAB0C
:1054B00089ABBE016F5C7F4F88E090E0C4CF4AE0CB
:1054C000B801CE0185960E945922BE01655D7F4FCD
:1054D000CE014F960E941120BE016B5D7F4FCE0121
:1054E0004F960E94571FBC01C6010E941120CE0199
:1054F0004F960E94D020CE0185960E94D02080CF6A
:105500007F928F929F92AF92BF92CF92DF92EF9253
:10551000FF920F931F93CF93DF93CDB7DEB7E6973C
:105520000FB6F894DEBF0FBECDBF7C01762E8A0188
:1055300061EB77E00E943F2061E0CE010196E3DE5F
:1055400089809A80CB80DC806D817E81AF80B88439
:105550001016110644F421E4721609F46CC032E40A
:10556000731609F46EC0CE01C1960E94901FB4015B
:10557000CE018B960E94901FB501CE0185960E94A8
:10558000901FB601CE014F960E94901F6AEF73E004
:10559000CE0145960E943F20BE01615E7F4FCE0145
:1055A00045960E94571F69EB73E00E94431FBE019E
:1055B0006B5D7F4F0E94571F63EE7BE00E94431F8D
:1055C000BE01655D7F4F0E94571F69EB73E00E942B
:1055D000431FBE016F5C7F4F0E94571FBC01C70174
:1055E0000E94731ECE0145960E94D020CE014F9698
:1055F0000E94D020CE0185960E94D020CE018B96AD
:105600000E94D020CE01C1960E94D020C701E6960C
:105610000FB6F894DEBF0FBECDBFDF91CF911F91C3
:105620000F91FF90EF90DF90CF90BF90AF909F9041
:105630008F907F900895A016B10608F494CFC6010C
:1056400005C0C4016017710708F48DCF009709F4F5
:105650008ACF015011094AE0409F9001419F300DCF
:105660001124BE016B5E7F4F820F931FE4DD10E0BB
:10567000812F012E000C990B2D892817190631F264
:105680002CF2E6E1F0E0EC0FFD1F8E0F9F1FFC01F6
:10569000608140E1CE0185966031E8F40E94BB1F35
:1056A00067EF73E0CE014F960E943F20BE016B5D15
:1056B0007F4FCE014F960E94571FBC01C7010E9429
:1056C000731ECE014F960E94D020CE0185960E9477
:1056D000D0201F5FCDCF0E94BB1F63EE7BE0E2CFE7
:1056E0001F93CF93DF93CDB7DEB764970FB6F894CF
:1056F000DEBF0FBECDBF182F61E0CE01019603DEE5
:105700008B859C85113431F089859A85123411F08E
:1057100090E080E064960FB6F894DEBF0FBECDBF78
:10572000DF91CF911F9108952F923F924F925F92F8
:105730006F927F928F929F92AF92BF92CF92DF92A1
:10574000EF92FF920F931F93CF93DF93CDB7DEB706
:1057500069970FB6F894DEBF0FBECDBF582E462E08
:10576000372E61E0CE010196CEDD84E1FE01319657
:10577000ADE7BDE001900D928A95E1F700917F0DB4
:105780001091800D0F5F1F4F8091870D9091880DB4
:105790009F8B8E8B1D8A212C852C912CF4013197A7
:1057A000F98FE88F8E899F8928161906B0F584E74E
:1057B000C82E8DE0D82E642C732CF12CE12CE8142B
:1057C000F90439F1B601C8018E0D9F1DB3DCF30158
:1057D00081913F01F6019081FFEFCF1ADF0A981304
:1057E00018C0888D998DE816F9067CF063E77DE096
:1057F000C80101979FDC8091730D851541F191E0FF
:105800009D8B065F1F4F2394CDCFEFEFEE1AFE0A5C
:10581000D6CFFD89FF23A9F3E9CF80E069960FB6C3
:10582000F894DEBF0FBECDBFDF91CF911F910F91D6
:10583000FF90EF90DF90CF90BF90AF909F908F90B0
:105840007F906F905F904F903F902F90089581E0F0
:10585000E5CF2F923F924F925F926F927F928F92FD
:105860009F92AF92BF92CF92DF92EF92FF920F93EF
:105870001F93CF93DF93CDB7DEB769970FB6F89438
:10588000DEBF0FBECDBF582E462E372E60E0CE01B4
:10589000019639DD84E1FE013196AFE5BDE001906E
:1058A0000D928A95E1F78091670D9091680D9F8B1D
:1058B0008E8B1D8A212C95E1E92EF12C852C912CC3
:1058C000F4013197F98FE88F8E899F892816190680
:1058D000B0F586E5C82E8DE0D82E642C732C10E030
:1058E00000E00815190539F1B601C701800F911FB5
:1058F00021DCF30181913F01F6019081FFEFCF1A86
:10590000DF0A981318C0888D998D0817190784F03D
:1059100065E57DE0C70101970DDC8091550D85158A
:1059200041F191E09D8BFAE0EF0EF11C2394CCCF76
:105930000F5F1F4FD6CFED89EE23A9F3E9CF80E0AB
:1059400069960FB6F894DEBF0FBECDBFDF91CF9141
:105950001F910F91FF90EF90DF90CF90BF90AF908D
:105960009F908F907F906F905F904F903F902F907F
:10597000089581E0E5CFCF93DF93CDB7DEB764978D
:105980000FB6F894DEBF0FBECDBF80934B0D262F10
:10599000ACE4BDE0FB019E2F921B981718F4919187
:1059A0009D93F9CF81E48093530D61E0CE01019680
:1059B000AADC84E1FE013196A7E3BDE001900D92DF
:1059C0008A95E1F78091390D90913A0D4091410D02
:1059D0005091420D6AE0649F9001659F300D112443
:1059E0006BE47DE0820F931F5EDB8091410D90910F
:1059F000420D01969093420D8093410D61E47DE04C
:105A00008AE090E064960FB6F894DEBF0FBECDBF7B
:105A1000DF91CF9122CBCF93DF93CDB7DEB76497E1
:105A20000FB6F894DEBF0FBECDBF80932D0D262F8D
:105A3000AEE2BDE0FB019E2F921B981718F49191E6
:105A40009D93F9CF85E58093350D60E0CE010196F9
:105A50005ADC84E1FE013196A9E1BDE001900D928E
:105A60008A95E1F72091210D3091220D4AE0429F65
:105A7000C001439F900D11246DE27DE0449613DB3D
:105A80008091210D9091220D01969093220D80938B
:105A9000210D61E27DE088E090E064960FB6F89415
:105AA000DEBF0FBECDBFDF91CF91D7CACF92DF92BD
:105AB000FF920F931F93CF93DF93CDB7DEB7E3979A
:105AC0000FB6F894DEBF0FBECDBF6C018091010E02
:105AD00081111FC01092E90D1092E80D88EE93E03D
